{
  "contracts/MyToken.sol": {
    "MyToken": {
      "abi": [
        {
          "inputs": [
            {
              "internalType": "uint256",
              "name": "initialSupply",
              "type": "uint256"
            },
            {
              "internalType": "string",
              "name": "name",
              "type": "string"
            },
            {
              "internalType": "string",
              "name": "symbol",
              "type": "string"
            }
          ],
          "stateMutability": "nonpayable",
          "type": "constructor"
        },
        {
          "inputs": [],
          "name": "AccessControlBadConfirmation",
          "type": "error"
        },
        {
          "inputs": [
            {
              "internalType": "address",
              "name": "account",
              "type": "address"
            },
            {
              "internalType": "bytes32",
              "name": "neededRole",
              "type": "bytes32"
            }
          ],
          "name": "AccessControlUnauthorizedAccount",
          "type": "error"
        },
        {
          "inputs": [
            {
              "internalType": "address",
              "name": "spender",
              "type": "address"
            },
            {
              "internalType": "uint256",
              "name": "allowance",
              "type": "uint256"
            },
            {
              "internalType": "uint256",
              "name": "needed",
              "type": "uint256"
            }
          ],
          "name": "ERC20InsufficientAllowance",
          "type": "error"
        },
        {
          "inputs": [
            {
              "internalType": "address",
              "name": "sender",
              "type": "address"
            },
            {
              "internalType": "uint256",
              "name": "balance",
              "type": "uint256"
            },
            {
              "internalType": "uint256",
              "name": "needed",
              "type": "uint256"
            }
          ],
          "name": "ERC20InsufficientBalance",
          "type": "error"
        },
        {
          "inputs": [
            {
              "internalType": "address",
              "name": "approver",
              "type": "address"
            }
          ],
          "name": "ERC20InvalidApprover",
          "type": "error"
        },
        {
          "inputs": [
            {
              "internalType": "address",
              "name": "receiver",
              "type": "address"
            }
          ],
          "name": "ERC20InvalidReceiver",
          "type": "error"
        },
        {
          "inputs": [
            {
              "internalType": "address",
              "name": "sender",
              "type": "address"
            }
          ],
          "name": "ERC20InvalidSender",
          "type": "error"
        },
        {
          "inputs": [
            {
              "internalType": "address",
              "name": "spender",
              "type": "address"
            }
          ],
          "name": "ERC20InvalidSpender",
          "type": "error"
        },
        {
          "inputs": [],
          "name": "EnforcedPause",
          "type": "error"
        },
        {
          "inputs": [],
          "name": "ExpectedPause",
          "type": "error"
        },
        {
          "anonymous": false,
          "inputs": [
            {
              "indexed": true,
              "internalType": "address",
              "name": "owner",
              "type": "address"
            },
            {
              "indexed": true,
              "internalType": "address",
              "name": "spender",
              "type": "address"
            },
            {
              "indexed": false,
              "internalType": "uint256",
              "name": "value",
              "type": "uint256"
            }
          ],
          "name": "Approval",
          "type": "event"
        },
        {
          "anonymous": false,
          "inputs": [
            {
              "indexed": false,
              "internalType": "address",
              "name": "account",
              "type": "address"
            }
          ],
          "name": "Paused",
          "type": "event"
        },
        {
          "anonymous": false,
          "inputs": [
            {
              "indexed": true,
              "internalType": "bytes32",
              "name": "role",
              "type": "bytes32"
            },
            {
              "indexed": true,
              "internalType": "bytes32",
              "name": "previousAdminRole",
              "type": "bytes32"
            },
            {
              "indexed": true,
              "internalType": "bytes32",
              "name": "newAdminRole",
              "type": "bytes32"
            }
          ],
          "name": "RoleAdminChanged",
          "type": "event"
        },
        {
          "anonymous": false,
          "inputs": [
            {
              "indexed": true,
              "internalType": "bytes32",
              "name": "role",
              "type": "bytes32"
            },
            {
              "indexed": true,
              "internalType": "address",
              "name": "account",
              "type": "address"
            },
            {
              "indexed": true,
              "internalType": "address",
              "name": "sender",
              "type": "address"
            }
          ],
          "name": "RoleGranted",
          "type": "event"
        },
        {
          "anonymous": false,
          "inputs": [
            {
              "indexed": true,
              "internalType": "bytes32",
              "name": "role",
              "type": "bytes32"
            },
            {
              "indexed": true,
              "internalType": "address",
              "name": "account",
              "type": "address"
            },
            {
              "indexed": true,
              "internalType": "address",
              "name": "sender",
              "type": "address"
            }
          ],
          "name": "RoleRevoked",
          "type": "event"
        },
        {
          "anonymous": false,
          "inputs": [
            {
              "indexed": true,
              "internalType": "address",
              "name": "from",
              "type": "address"
            },
            {
              "indexed": true,
              "internalType": "address",
              "name": "to",
              "type": "address"
            },
            {
              "indexed": false,
              "internalType": "uint256",
              "name": "value",
              "type": "uint256"
            }
          ],
          "name": "Transfer",
          "type": "event"
        },
        {
          "anonymous": false,
          "inputs": [
            {
              "indexed": false,
              "internalType": "address",
              "name": "account",
              "type": "address"
            }
          ],
          "name": "Unpaused",
          "type": "event"
        },
        {
          "inputs": [],
          "name": "DEFAULT_ADMIN_ROLE",
          "outputs": [
            {
              "internalType": "bytes32",
              "name": "",
              "type": "bytes32"
            }
          ],
          "stateMutability": "view",
          "type": "function"
        },
        {
          "inputs": [],
          "name": "MINTER_ROLE",
          "outputs": [
            {
              "internalType": "bytes32",
              "name": "",
              "type": "bytes32"
            }
          ],
          "stateMutability": "view",
          "type": "function"
        },
        {
          "inputs": [],
          "name": "PAUSER_ROLE",
          "outputs": [
            {
              "internalType": "bytes32",
              "name": "",
              "type": "bytes32"
            }
          ],
          "stateMutability": "view",
          "type": "function"
        },
        {
          "inputs": [
            {
              "internalType": "address",
              "name": "owner",
              "type": "address"
            },
            {
              "internalType": "address",
              "name": "spender",
              "type": "address"
            }
          ],
          "name": "allowance",
          "outputs": [
            {
              "internalType": "uint256",
              "name": "",
              "type": "uint256"
            }
          ],
          "stateMutability": "view",
          "type": "function"
        },
        {
          "inputs": [
            {
              "internalType": "address",
              "name": "spender",
              "type": "address"
            },
            {
              "internalType": "uint256",
              "name": "value",
              "type": "uint256"
            }
          ],
          "name": "approve",
          "outputs": [
            {
              "internalType": "bool",
              "name": "",
              "type": "bool"
            }
          ],
          "stateMutability": "nonpayable",
          "type": "function"
        },
        {
          "inputs": [
            {
              "internalType": "address",
              "name": "account",
              "type": "address"
            }
          ],
          "name": "balanceOf",
          "outputs": [
            {
              "internalType": "uint256",
              "name": "",
              "type": "uint256"
            }
          ],
          "stateMutability": "view",
          "type": "function"
        },
        {
          "inputs": [
            {
              "internalType": "uint256",
              "name": "value",
              "type": "uint256"
            }
          ],
          "name": "burn",
          "outputs": [],
          "stateMutability": "nonpayable",
          "type": "function"
        },
        {
          "inputs": [
            {
              "internalType": "address",
              "name": "account",
              "type": "address"
            },
            {
              "internalType": "uint256",
              "name": "value",
              "type": "uint256"
            }
          ],
          "name": "burnFrom",
          "outputs": [],
          "stateMutability": "nonpayable",
          "type": "function"
        },
        {
          "inputs": [],
          "name": "decimals",
          "outputs": [
            {
              "internalType": "uint8",
              "name": "",
              "type": "uint8"
            }
          ],
          "stateMutability": "view",
          "type": "function"
        },
        {
          "inputs": [
            {
              "internalType": "bytes32",
              "name": "role",
              "type": "bytes32"
            }
          ],
          "name": "getRoleAdmin",
          "outputs": [
            {
              "internalType": "bytes32",
              "name": "",
              "type": "bytes32"
            }
          ],
          "stateMutability": "view",
          "type": "function"
        },
        {
          "inputs": [
            {
              "internalType": "bytes32",
              "name": "role",
              "type": "bytes32"
            },
            {
              "internalType": "address",
              "name": "account",
              "type": "address"
            }
          ],
          "name": "grantRole",
          "outputs": [],
          "stateMutability": "nonpayable",
          "type": "function"
        },
        {
          "inputs": [
            {
              "internalType": "bytes32",
              "name": "role",
              "type": "bytes32"
            },
            {
              "internalType": "address",
              "name": "account",
              "type": "address"
            }
          ],
          "name": "hasRole",
          "outputs": [
            {
              "internalType": "bool",
              "name": "",
              "type": "bool"
            }
          ],
          "stateMutability": "view",
          "type": "function"
        },
        {
          "inputs": [
            {
              "internalType": "address",
              "name": "to",
              "type": "address"
            },
            {
              "internalType": "uint256",
              "name": "amount",
              "type": "uint256"
            }
          ],
          "name": "mint",
          "outputs": [],
          "stateMutability": "nonpayable",
          "type": "function"
        },
        {
          "inputs": [],
          "name": "name",
          "outputs": [
            {
              "internalType": "string",
              "name": "",
              "type": "string"
            }
          ],
          "stateMutability": "view",
          "type": "function"
        },
        {
          "inputs": [],
          "name": "pause",
          "outputs": [],
          "stateMutability": "nonpayable",
          "type": "function"
        },
        {
          "inputs": [],
          "name": "paused",
          "outputs": [
            {
              "internalType": "bool",
              "name": "",
              "type": "bool"
            }
          ],
          "stateMutability": "view",
          "type": "function"
        },
        {
          "inputs": [
            {
              "internalType": "bytes32",
              "name": "role",
              "type": "bytes32"
            },
            {
              "internalType": "address",
              "name": "callerConfirmation",
              "type": "address"
            }
          ],
          "name": "renounceRole",
          "outputs": [],
          "stateMutability": "nonpayable",
          "type": "function"
        },
        {
          "inputs": [
            {
              "internalType": "bytes32",
              "name": "role",
              "type": "bytes32"
            },
            {
              "internalType": "address",
              "name": "account",
              "type": "address"
            }
          ],
          "name": "revokeRole",
          "outputs": [],
          "stateMutability": "nonpayable",
          "type": "function"
        },
        {
          "inputs": [
            {
              "internalType": "bytes4",
              "name": "interfaceId",
              "type": "bytes4"
            }
          ],
          "name": "supportsInterface",
          "outputs": [
            {
              "internalType": "bool",
              "name": "",
              "type": "bool"
            }
          ],
          "stateMutability": "view",
          "type": "function"
        },
        {
          "inputs": [],
          "name": "symbol",
          "outputs": [
            {
              "internalType": "string",
              "name": "",
              "type": "string"
            }
          ],
          "stateMutability": "view",
          "type": "function"
        },
        {
          "inputs": [],
          "name": "totalSupply",
          "outputs": [
            {
              "internalType": "uint256",
              "name": "",
              "type": "uint256"
            }
          ],
          "stateMutability": "view",
          "type": "function"
        },
        {
          "inputs": [
            {
              "internalType": "address",
              "name": "to",
              "type": "address"
            },
            {
              "internalType": "uint256",
              "name": "value",
              "type": "uint256"
            }
          ],
          "name": "transfer",
          "outputs": [
            {
              "internalType": "bool",
              "name": "",
              "type": "bool"
            }
          ],
          "stateMutability": "nonpayable",
          "type": "function"
        },
        {
          "inputs": [
            {
              "internalType": "address",
              "name": "from",
              "type": "address"
            },
            {
              "internalType": "address",
              "name": "to",
              "type": "address"
            },
            {
              "internalType": "uint256",
              "name": "value",
              "type": "uint256"
            }
          ],
          "name": "transferFrom",
          "outputs": [
            {
              "internalType": "bool",
              "name": "",
              "type": "bool"
            }
          ],
          "stateMutability": "nonpayable",
          "type": "function"
        },
        {
          "inputs": [],
          "name": "unpause",
          "outputs": [],
          "stateMutability": "nonpayable",
          "type": "function"
        }
      ],
      "evm": {
        "assembly": "// RO data = 0/0 bytes\n// RW data = 608/66192 bytes\n// Stack size = 32768 bytes\n\n// Instructions = 10309\n// Code size = 36005 bytes\n\n      : @0 (gas: 1)\n     0: jump @14 if a0 == a1\n      : @1 (gas: 9)\n     3: a3 = a1 << 0x20\n     6: a3 = a3 >> 0x20\n     9: a4 = a0 << 0x20\n    12: a4 = a4 >> 0x20\n    15: a4 = a4 + a2\n    18: a3 = a3 - a4\n    21: a4 = a2 << 0x1\n    24: a4 = -a4\n    26: jump @7 if a4 >=u a3\n      : @2 (gas: 1)\n    29: jump @11 if a0 >=u a1\n      : @3 (gas: 1)\n    32: jump @14 if a2 == 0\n      : @4 (gas: 3)\n    35: a2 = a2 + a0\n    38: a3 = a0\n    40: fallthrough\n      : @5 (gas: 6)\n    41: a4 = u8 [a1]\n    43: a1 = a1 + 0x1\n    46: a5 = a3 + 0x1\n    49: u8 [a3] = a4\n    51: a3 = a5\n    53: jump @5 if a5 != a2\n      : @6 (gas: 1)\n    56: jump @14\n      : @7 (gas: 1)\n    58: jump @14 if a2 == 0\n      : @8 (gas: 3)\n    61: a2 = a2 + a0\n    64: a3 = a0\n    66: fallthrough\n      : @9 (gas: 6)\n    67: a4 = u8 [a1]\n    69: a1 = a1 + 0x1\n    72: a5 = a3 + 0x1\n    75: u8 [a3] = a4\n    77: a3 = a5\n    79: jump @9 if a5 != a2\n      : @10 (gas: 1)\n    82: jump @14\n      : @11 (gas: 1)\n    84: jump @14 if a2 == 0\n      : @12 (gas: 2)\n    87: i32 a3 = a2 + 0xffffffffffffffff\n    90: fallthrough\n      : @13 (gas: 7)\n    91: a4 = a1 + a3\n    94: a4 = u8 [a4]\n    96: a2 = a2 + 0xffffffffffffffff\n    99: a5 = a0 + a3\n   102: u8 [a5] = a4\n   104: i32 a3 = a3 + 0xffffffffffffffff\n   107: jump @13 if a2 != 0\n      : @14 (gas: 1)\n   110: ret\n      : @15 (gas: 2)\n   112: a1 = i32 [0x20268]\n   117: jump @260 if a1 == 0\n      : @16 (gas: 4)\n   121: a0 = 0x30290\n   126: i32 a0 = a0 + 0\n   128: ecalli 8 // 'set_immutable_data'\n   130: jump @260\n      : @17 (gas: 8)\n   133: sp = sp + 0xfffffffffffffff0\n   136: u64 [sp + 0x8] = ra\n   139: u64 [sp] = s0\n   141: a2 = a1\n   143: s0 = a0\n   145: a1 = 0x20\n   148: a0 = a2\n   150: ra = 2, jump @33\n      : @18 [@dyn 1] (gas: 100)\n   155: a1 = u8 [a0 + 0x1]\n   158: a2 = u8 [a0]\n   160: a3 = u8 [a0 + 0x2]\n   163: a4 = u8 [a0 + 0x3]\n   166: a1 = a1 << 0x8\n   169: a1 = a1 | a2\n   172: a3 = a3 << 0x10\n   175: a4 = a4 << 0x18\n   178: a3 = a3 | a4\n   181: a1 = a1 | a3\n   184: a2 = u8 [a0 + 0x5]\n   187: a3 = u8 [a0 + 0x4]\n   190: a4 = u8 [a0 + 0x6]\n   193: a5 = u8 [a0 + 0x7]\n   196: a2 = a2 << 0x8\n   199: a2 = a2 | a3\n   202: a4 = a4 << 0x10\n   205: a5 = a5 << 0x18\n   208: a4 = a4 | a5\n   211: a2 = a2 | a4\n   214: a2 = a2 << 0x20\n   217: t0 = a2 | a1\n   220: a2 = u8 [a0 + 0x9]\n   223: a3 = u8 [a0 + 0x8]\n   226: a4 = u8 [a0 + 0xa]\n   229: a5 = u8 [a0 + 0xb]\n   232: a2 = a2 << 0x8\n   235: a2 = a2 | a3\n   238: a4 = a4 << 0x10\n   241: a5 = a5 << 0x18\n   244: a4 = a4 | a5\n   247: a2 = a2 | a4\n   250: a3 = u8 [a0 + 0xd]\n   253: a4 = u8 [a0 + 0xc]\n   256: a5 = u8 [a0 + 0xe]\n   259: a1 = u8 [a0 + 0xf]\n   262: a3 = a3 << 0x8\n   265: a3 = a3 | a4\n   268: a5 = a5 << 0x10\n   271: a1 = a1 << 0x18\n   274: a1 = a1 | a5\n   277: a1 = a1 | a3\n   280: a1 = a1 << 0x20\n   283: t1 = a1 | a2\n   286: a1 = u8 [a0 + 0x11]\n   289: a3 = u8 [a0 + 0x10]\n   292: a4 = u8 [a0 + 0x12]\n   295: a5 = u8 [a0 + 0x13]\n   298: a1 = a1 << 0x8\n   301: a1 = a1 | a3\n   304: a4 = a4 << 0x10\n   307: a5 = a5 << 0x18\n   310: a4 = a4 | a5\n   313: a1 = a1 | a4\n   316: a3 = u8 [a0 + 0x15]\n   319: a4 = u8 [a0 + 0x14]\n   322: a5 = u8 [a0 + 0x16]\n   325: a2 = u8 [a0 + 0x17]\n   328: a3 = a3 << 0x8\n   331: a3 = a3 | a4\n   334: a5 = a5 << 0x10\n   337: a2 = a2 << 0x18\n   340: a2 = a2 | a5\n   343: a2 = a2 | a3\n   346: a2 = a2 << 0x20\n   349: a3 = a2 | a1\n   352: a1 = u8 [a0 + 0x19]\n   355: a2 = u8 [a0 + 0x18]\n   358: a4 = u8 [a0 + 0x1a]\n   361: a5 = u8 [a0 + 0x1b]\n   364: a1 = a1 << 0x8\n   367: a1 = a1 | a2\n   370: a4 = a4 << 0x10\n   373: a5 = a5 << 0x18\n   376: a4 = a4 | a5\n   379: a1 = a1 | a4\n   382: a2 = u8 [a0 + 0x1d]\n   385: a4 = u8 [a0 + 0x1c]\n   388: a5 = u8 [a0 + 0x1e]\n   391: a0 = u8 [a0 + 0x1f]\n   394: a2 = a2 << 0x8\n   397: a2 = a2 | a4\n   400: a5 = a5 << 0x10\n   403: a0 = a0 << 0x18\n   406: a0 = a0 | a5\n   409: a0 = a0 | a2\n   412: a0 = a0 << 0x20\n   415: a0 = a0 | a1\n   418: a0 = reverse a0\n   420: a1 = reverse a3\n   422: a2 = reverse t1\n   424: a3 = reverse t0\n   426: u64 [s0 + 0x18] = a3\n   429: u64 [s0 + 0x10] = a2\n   432: u64 [s0 + 0x8] = a1\n   435: u64 [s0] = a0\n   437: ra = u64 [sp + 0x8]\n   440: s0 = u64 [sp]\n   442: sp = sp + 0x10\n   445: ret\n      : @19 (gas: 12)\n   447: sp = sp + 0xffffffffffffffd8\n   450: u64 [sp + 0x20] = ra\n   453: u64 [sp + 0x18] = s0\n   456: u64 [sp + 0x10] = s1\n   459: a2 = u64 [a1]\n   461: u64 [sp + 0x8] = a2\n   464: a2 = u64 [a1 + 0x8]\n   467: u64 [sp] = a2\n   469: s0 = u64 [a1 + 0x10]\n   472: s1 = u64 [a1 + 0x18]\n   475: a1 = 0x20\n   478: ra = 4, jump @33\n      : @20 [@dyn 2] (gas: 71)\n   483: a1 = reverse s1\n   485: a2 = reverse s0\n   487: a3 = u64 [sp]\n   489: a3 = reverse a3\n   491: a4 = u64 [sp + 0x8]\n   494: a4 = reverse a4\n   496: u8 [a0 + 0x18] = a4\n   499: u8 [a0 + 0x10] = a3\n   502: u8 [a0 + 0x8] = a2\n   505: u8 [a0] = a1\n   507: a5 = a4 >> 0x38\n   510: u8 [a0 + 0x1f] = a5\n   513: a5 = a4 >> 0x30\n   516: u8 [a0 + 0x1e] = a5\n   519: a5 = a4 >> 0x28\n   522: u8 [a0 + 0x1d] = a5\n   525: a5 = a4 >> 0x20\n   528: u8 [a0 + 0x1c] = a5\n   531: a5 = a4 >> 0x18\n   534: u8 [a0 + 0x1b] = a5\n   537: a5 = a4 >> 0x10\n   540: u8 [a0 + 0x1a] = a5\n   543: a4 = a4 >> 0x8\n   546: u8 [a0 + 0x19] = a4\n   549: a4 = a3 >> 0x38\n   552: u8 [a0 + 0x17] = a4\n   555: a4 = a3 >> 0x30\n   558: u8 [a0 + 0x16] = a4\n   561: a4 = a3 >> 0x28\n   564: u8 [a0 + 0x15] = a4\n   567: a4 = a3 >> 0x20\n   570: u8 [a0 + 0x14] = a4\n   573: a4 = a3 >> 0x18\n   576: u8 [a0 + 0x13] = a4\n   579: a4 = a3 >> 0x10\n   582: u8 [a0 + 0x12] = a4\n   585: a3 = a3 >> 0x8\n   588: u8 [a0 + 0x11] = a3\n   591: a3 = a2 >> 0x38\n   594: u8 [a0 + 0xf] = a3\n   597: a3 = a2 >> 0x30\n   600: u8 [a0 + 0xe] = a3\n   603: a3 = a2 >> 0x28\n   606: u8 [a0 + 0xd] = a3\n   609: a3 = a2 >> 0x20\n   612: u8 [a0 + 0xc] = a3\n   615: a3 = a2 >> 0x18\n   618: u8 [a0 + 0xb] = a3\n   621: a3 = a2 >> 0x10\n   624: u8 [a0 + 0xa] = a3\n   627: a2 = a2 >> 0x8\n   630: u8 [a0 + 0x9] = a2\n   633: a2 = a1 >> 0x38\n   636: u8 [a0 + 0x7] = a2\n   639: a2 = a1 >> 0x30\n   642: u8 [a0 + 0x6] = a2\n   645: a2 = a1 >> 0x28\n   648: u8 [a0 + 0x5] = a2\n   651: a2 = a1 >> 0x20\n   654: u8 [a0 + 0x4] = a2\n   657: a2 = a1 >> 0x18\n   660: u8 [a0 + 0x3] = a2\n   663: a2 = a1 >> 0x10\n   666: u8 [a0 + 0x2] = a2\n   669: a1 = a1 >> 0x8\n   672: u8 [a0 + 0x1] = a1\n   675: ra = u64 [sp + 0x20]\n   678: s0 = u64 [sp + 0x18]\n   681: s1 = u64 [sp + 0x10]\n   684: sp = sp + 0x28\n   687: ret\n      : @21 (gas: 32)\n   689: sp = sp + 0xffffffffffffffa0\n   692: u64 [sp + 0x58] = ra\n   695: u64 [sp + 0x50] = s0\n   698: u64 [sp + 0x48] = s1\n   701: s0 = sp + 0x60\n   704: sp = sp & 0xffffffffffffffe0\n   707: s1 = a0\n   709: a0 = u64 [a1 + 0x18]\n   712: a2 = u64 [a1 + 0x10]\n   715: a3 = u64 [a1 + 0x8]\n   718: a1 = u64 [a1]\n   720: a0 = reverse a0\n   722: a2 = reverse a2\n   724: a3 = reverse a3\n   726: a1 = reverse a1\n   728: u64 [sp + 0x18] = a1\n   731: u64 [sp + 0x10] = a3\n   734: u64 [sp + 0x8] = a2\n   737: u64 [sp] = a0\n   739: u64 [sp + 56] = 0\n   742: u64 [sp + 48] = 0\n   745: u64 [sp + 40] = 0\n   748: u64 [sp + 32] = 0\n   751: u32 [sp + 64] = 0x20\n   755: i32 a1 = sp + 0\n   757: i32 a3 = sp + 0x20\n   760: i32 a4 = sp + 0x40\n   763: a2 = 0xffffffffffffffff\n   766: a0 = 0\n   768: ra = 0x6\n   771: ecalli 5 // 'get_storage'\n   773: fallthrough\n      : @22 [@dyn 3] (gas: 5)\n   774: a0 = u64 [sp + 0x38]\n   777: a1 = u64 [sp + 0x30]\n   780: a2 = u64 [sp + 0x28]\n   783: a3 = u64 [sp + 0x20]\n   786: t0 = 8, jump @1377\n      : @23 [@dyn 4] (gas: 10)\n   792: u64 [s1 + 0x18] = a3\n   795: u64 [s1 + 0x10] = a2\n   798: u64 [s1 + 0x8] = a1\n   801: u64 [s1] = a0\n   803: sp = s0 + 0xffffffffffffffa0\n   806: ra = u64 [sp + 0x58]\n   809: s0 = u64 [sp + 0x50]\n   812: s1 = u64 [sp + 0x48]\n   815: sp = sp + 0x60\n   818: ret\n      : @24 (gas: 40)\n   820: sp = sp + 0xffffffffffffffa0\n   823: u64 [sp + 0x58] = ra\n   826: u64 [sp + 0x50] = s0\n   829: s0 = sp + 0x60\n   832: sp = sp & 0xffffffffffffffe0\n   835: t0 = u64 [a0]\n   837: a3 = u64 [a0 + 0x8]\n   840: a4 = u64 [a0 + 0x10]\n   843: a0 = u64 [a0 + 0x18]\n   846: t1 = u64 [a1]\n   848: a2 = u64 [a1 + 0x8]\n   851: a5 = u64 [a1 + 0x10]\n   854: a1 = u64 [a1 + 0x18]\n   857: t2 = reverse a0\n   859: a4 = reverse a4\n   861: a3 = reverse a3\n   863: a0 = reverse t0\n   865: t0 = reverse a1\n   867: a5 = reverse a5\n   869: a2 = reverse a2\n   871: a1 = reverse t1\n   873: u64 [sp + 0x18] = a0\n   876: u64 [sp + 0x10] = a3\n   879: u64 [sp + 0x8] = a4\n   882: u64 [sp] = t2\n   884: u64 [sp + 0x38] = a1\n   887: u64 [sp + 0x30] = a2\n   890: u64 [sp + 0x28] = a5\n   893: u64 [sp + 0x20] = t0\n   896: i32 a1 = sp + 0\n   898: i32 a3 = sp + 0x20\n   901: a2 = 0xffffffffffffffff\n   904: a4 = 0x20\n   907: a0 = 0\n   909: ecalli 9 // 'set_storage'\n   911: sp = s0 + 0xffffffffffffffa0\n   914: ra = u64 [sp + 0x58]\n   917: s0 = u64 [sp + 0x50]\n   920: sp = sp + 0x60\n   923: ret\n      : @25 (gas: 16)\n   925: sp = sp + 0xffffffffffffffa0\n   928: u64 [sp + 0x58] = ra\n   931: u64 [sp + 0x50] = s0\n   934: u64 [sp + 0x48] = s1\n   937: s0 = sp + 0x60\n   940: sp = sp & 0xffffffffffffffe0\n   943: a3 = u64 [a2]\n   945: u64 [sp + 0x18] = a3\n   948: a3 = u64 [a2 + 0x8]\n   951: u64 [sp + 0x10] = a3\n   954: a3 = u64 [a2 + 0x10]\n   957: u64 [sp + 0x8] = a3\n   960: a2 = u64 [a2 + 0x18]\n   963: u64 [sp] = a2\n   965: s1 = a1\n   967: ra = 10, jump @33\n      : @26 [@dyn 5] (gas: 23)\n   972: a1 = u64 [sp]\n   974: a1 = reverse a1\n   976: a2 = u64 [sp + 0x8]\n   979: a2 = reverse a2\n   981: a3 = u64 [sp + 0x10]\n   984: a3 = reverse a3\n   986: a4 = u64 [sp + 0x18]\n   989: a4 = reverse a4\n   991: u64 [sp + 0x38] = a4\n   994: u64 [sp + 0x30] = a3\n   997: u64 [sp + 0x28] = a2\n  1000: u64 [sp + 0x20] = a1\n  1003: i32 a2 = a0 + 0\n  1005: i32 a3 = s1 + 0\n  1007: i32 a0 = sp + 0x20\n  1010: a1 = 0x1\n  1013: ecalli 4 // 'deposit_event'\n  1015: sp = s0 + 0xffffffffffffffa0\n  1018: ra = u64 [sp + 0x58]\n  1021: s0 = u64 [sp + 0x50]\n  1024: s1 = u64 [sp + 0x48]\n  1027: sp = sp + 0x60\n  1030: ret\n      : @27 (gas: 15)\n  1032: sp = sp + 0xffffffffffffff20\n  1036: u64 [sp + 0xd8] = ra\n  1040: u64 [sp + 0xd0] = s0\n  1044: u64 [sp + 0xc8] = s1\n  1048: s0 = sp + 0xe0\n  1052: sp = sp & 0xffffffffffffffe0\n  1055: a5 = u64 [a4]\n  1057: u64 [sp + 0x40] = a5\n  1060: a5 = u64 [a4 + 0x8]\n  1063: u64 [sp + 0x48] = a5\n  1066: a5 = u64 [a4 + 0x10]\n  1069: u64 [sp + 0x50] = a5\n  1072: a4 = u64 [a4 + 0x18]\n  1075: u64 [sp + 0x58] = a4\n  1078: t0 = 12, jump @1390\n      : @28 [@dyn 6] (gas: 2)\n  1084: u64 [sp + 0x38] = a1\n  1087: ra = 14, jump @33\n      : @29 [@dyn 7] (gas: 46)\n  1092: a1 = reverse s1\n  1094: u64 [sp + 0x78] = a1\n  1097: a1 = u64 [sp]\n  1099: a1 = reverse a1\n  1101: u64 [sp + 0x70] = a1\n  1104: a1 = u64 [sp + 0x8]\n  1107: a1 = reverse a1\n  1109: u64 [sp + 0x68] = a1\n  1112: a1 = u64 [sp + 0x10]\n  1115: a1 = reverse a1\n  1117: u64 [sp + 0x60] = a1\n  1120: a1 = u64 [sp + 0x18]\n  1123: a1 = reverse a1\n  1125: u64 [sp + 0x98] = a1\n  1129: a1 = u64 [sp + 0x20]\n  1132: a1 = reverse a1\n  1134: u64 [sp + 0x90] = a1\n  1138: a1 = u64 [sp + 0x28]\n  1141: a1 = reverse a1\n  1143: u64 [sp + 0x88] = a1\n  1147: a1 = u64 [sp + 0x30]\n  1150: a1 = reverse a1\n  1152: u64 [sp + 0x80] = a1\n  1156: a1 = u64 [sp + 0x40]\n  1159: a1 = reverse a1\n  1161: u64 [sp + 0xb8] = a1\n  1165: a1 = u64 [sp + 0x48]\n  1168: a1 = reverse a1\n  1170: u64 [sp + 0xb0] = a1\n  1174: a1 = u64 [sp + 0x50]\n  1177: a1 = reverse a1\n  1179: u64 [sp + 0xa8] = a1\n  1183: a1 = u64 [sp + 0x58]\n  1186: a1 = reverse a1\n  1188: u64 [sp + 0xa0] = a1\n  1192: i32 a2 = a0 + 0\n  1194: a3 = i32 [sp + 0x38]\n  1197: i32 a0 = sp + 0x60\n  1200: a1 = 0x3\n  1203: ecalli 4 // 'deposit_event'\n  1205: sp = s0 + 0xffffffffffffff20\n  1209: ra = u64 [sp + 0xd8]\n  1213: s0 = u64 [sp + 0xd0]\n  1217: s1 = u64 [sp + 0xc8]\n  1221: sp = sp + 0xe0\n  1225: ret\n      : @30 (gas: 23)\n  1227: sp = sp + 0xfffffffffffffee0\n  1231: u64 [sp + 0x118] = ra\n  1235: u64 [sp + 0x110] = s0\n  1239: u64 [sp + 0x108] = s1\n  1243: s0 = sp + 0x120\n  1247: sp = sp & 0xffffffffffffffe0\n  1250: s1 = u64 [a5]\n  1252: u64 [sp + 0x60] = s1\n  1255: s1 = u64 [a5 + 0x8]\n  1258: u64 [sp + 0x68] = s1\n  1261: s1 = u64 [a5 + 0x10]\n  1264: u64 [sp + 0x70] = s1\n  1267: a5 = u64 [a5 + 0x18]\n  1270: u64 [sp + 0x78] = a5\n  1273: a5 = u64 [a4]\n  1275: u64 [sp + 0x38] = a5\n  1278: a5 = u64 [a4 + 0x8]\n  1281: u64 [sp + 0x40] = a5\n  1284: a5 = u64 [a4 + 0x10]\n  1287: u64 [sp + 0x48] = a5\n  1290: a4 = u64 [a4 + 0x18]\n  1293: u64 [sp + 0x50] = a4\n  1296: t0 = 16, jump @1390\n      : @31 [@dyn 8] (gas: 2)\n  1302: u64 [sp + 0x58] = a1\n  1305: ra = 18, jump @33\n      : @32 [@dyn 9] (gas: 58)\n  1310: a1 = reverse s1\n  1312: u64 [sp + 0x98] = a1\n  1316: a1 = u64 [sp]\n  1318: a1 = reverse a1\n  1320: u64 [sp + 0x90] = a1\n  1324: a1 = u64 [sp + 0x8]\n  1327: a1 = reverse a1\n  1329: u64 [sp + 0x88] = a1\n  1333: a1 = u64 [sp + 0x10]\n  1336: a1 = reverse a1\n  1338: u64 [sp + 0x80] = a1\n  1342: a1 = u64 [sp + 0x18]\n  1345: a1 = reverse a1\n  1347: u64 [sp + 0xb8] = a1\n  1351: a1 = u64 [sp + 0x20]\n  1354: a1 = reverse a1\n  1356: u64 [sp + 0xb0] = a1\n  1360: a1 = u64 [sp + 0x28]\n  1363: a1 = reverse a1\n  1365: u64 [sp + 0xa8] = a1\n  1369: a1 = u64 [sp + 0x30]\n  1372: a1 = reverse a1\n  1374: u64 [sp + 0xa0] = a1\n  1378: a1 = u64 [sp + 0x38]\n  1381: a1 = reverse a1\n  1383: u64 [sp + 0xd8] = a1\n  1387: a1 = u64 [sp + 0x40]\n  1390: a1 = reverse a1\n  1392: u64 [sp + 0xd0] = a1\n  1396: a1 = u64 [sp + 0x48]\n  1399: a1 = reverse a1\n  1401: u64 [sp + 0xc8] = a1\n  1405: a1 = u64 [sp + 0x50]\n  1408: a1 = reverse a1\n  1410: u64 [sp + 0xc0] = a1\n  1414: a1 = u64 [sp + 0x60]\n  1417: a1 = reverse a1\n  1419: u64 [sp + 0xf8] = a1\n  1423: a1 = u64 [sp + 0x68]\n  1426: a1 = reverse a1\n  1428: u64 [sp + 0xf0] = a1\n  1432: a1 = u64 [sp + 0x70]\n  1435: a1 = reverse a1\n  1437: u64 [sp + 0xe8] = a1\n  1441: a1 = u64 [sp + 0x78]\n  1444: a1 = reverse a1\n  1446: u64 [sp + 0xe0] = a1\n  1450: i32 a2 = a0 + 0\n  1452: a3 = i32 [sp + 0x58]\n  1455: i32 a0 = sp + 0x80\n  1459: a1 = 0x4\n  1462: ecalli 4 // 'deposit_event'\n  1464: sp = s0 + 0xfffffffffffffee0\n  1468: ra = u64 [sp + 0x118]\n  1472: s0 = u64 [sp + 0x110]\n  1476: s1 = u64 [sp + 0x108]\n  1480: sp = sp + 0x120\n  1484: ret\n      : @33 (gas: 2)\n  1486: i32 a2 = a0 >> 0x10\n  1489: jump @38 if a2 != 0\n      : @34 (gas: 4)\n  1492: a1 = a1 + a0\n  1495: i32 a1 = a1 + 0x1f\n  1498: a1 = a1 & 0xffffffffffffffe0\n  1501: jump @38 if a1 >u 65536\n      : @35 (gas: 3)\n  1507: a2 = 0x20264\n  1512: a3 = i32 [0x20264]\n  1517: jump @37 if a3 >=u a1\n      : @36 (gas: 2)\n  1520: u32 [0x20264] = a1\n  1525: fallthrough\n      : @37 (gas: 4)\n  1526: a1 = 0x20270\n  1531: i32 a0 = a0 + 0\n  1533: a0 = a0 + a1\n  1536: ret\n      : @38 (gas: 1)\n  1538: trap\n      : @39 (gas: 6)\n  1539: sp = sp + 0xfffffffffffffff0\n  1542: u64 [sp + 0x8] = ra\n  1545: u64 [sp] = s0\n  1547: s0 = a0 & 0x1\n  1550: ecalli 2 // 'call_data_size'\n  1552: fallthrough\n      : @40 (gas: 2)\n  1553: u32 [0x20260] = a0\n  1558: jump @42 if s0 == 0\n      : @41 (gas: 1)\n  1561: ra = 20, jump @43\n      : @42 [@dyn 10] (gas: 18)\n  1565: ra = 0x16\n  1568: sp = sp + 0xfffffffffffffe10\n  1572: u64 [sp + 0x1e8] = ra\n  1576: u64 [sp + 0x1e0] = s0\n  1580: u64 [sp + 0x1d8] = s1\n  1584: s0 = sp + 0x1f0\n  1588: sp = sp + 0xffffffffffffe650\n  1592: sp = sp & 0xffffffffffffffe0\n  1595: s1 = sp\n  1597: a2 = s1 + 0x1038\n  1601: u64 [a2 + 1248] = 0\n  1605: u64 [a2 + 1240] = 0\n  1609: u64 [a2 + 1224] = 0x80\n  1615: a0 = 0x40\n  1618: a1 = s1 + 0x1500\n  1622: u64 [a2 + 1232] = 0\n  1626: ra = 0x102\n  1630: jump @19\n      : @43 [@dyn 11] (gas: 21)\n  1633: sp = sp + 0xfffffffffffff808\n  1637: a0 = sp + 0x700\n  1641: u64 [a0 + 0xf0] = ra\n  1645: u64 [a0 + 0xe8] = s0\n  1649: u64 [a0 + 0xe0] = s1\n  1653: s0 = sp + 0x7f8\n  1657: sp = sp + 0xfffffffffffffcf8\n  1661: sp = sp & 0xffffffffffffffe0\n  1664: s1 = sp\n  1666: a0 = s1 + 0x1000\n  1670: u64 [a0 + 4294965304] = 0\n  1674: a0 = s1 + 0x1000\n  1678: u64 [a0 + 4294965296] = 0\n  1682: a1 = s1 + 0x1000\n  1686: u64 [a1 + 4294965280] = 0x80\n  1692: a0 = 0x40\n  1695: a1 = s1 + 0x7ff\n  1699: a1 = a1 + 0x21\n  1702: a2 = s1 + 0x1000\n  1706: u64 [a2 + 4294965288] = 0\n  1710: ra = 24, jump @19\n      : @44 [@dyn 12] (gas: 12)\n  1715: a0 = s1 + 0x1000\n  1719: u64 [a0 + 4294965336] = 0\n  1723: a0 = s1 + 0x1000\n  1727: u64 [a0 + 4294965328] = 0\n  1731: a0 = s1 + 0x1000\n  1735: u64 [a0 + 4294965320] = 0\n  1739: a0 = s1 + 0x1000\n  1743: u64 [a0 + 4294965312] = 0\n  1747: a0 = s1 + 0x1000\n  1751: i32 a0 = a0 + 0xfffffffffffff840\n  1755: ecalli 10 // 'value_transferred'\n  1757: fallthrough\n      : @45 (gas: 12)\n  1758: a0 = s1 + 0x1000\n  1762: a0 = u64 [a0 + 0xfffffffffffff850]\n  1766: a1 = s1 + 0x1000\n  1770: a1 = u64 [a1 + 0xfffffffffffff858]\n  1774: a2 = s1 + 0x1000\n  1778: a2 = u64 [a2 + 0xfffffffffffff848]\n  1782: a3 = s1 + 0x1000\n  1786: a3 = u64 [a3 + 0xfffffffffffff840]\n  1790: a1 = a1 | a2\n  1793: a0 = a0 | a3\n  1796: a0 = a0 | a1\n  1799: jump @47 if a0 == 0\n      : @46 (gas: 1)\n  1802: jump @214\n      : @47 (gas: 10)\n  1805: a2 = u32 [0x20260]\n  1810: u64 [s1 + 2040] = 0\n  1814: u64 [s1 + 2032] = 0\n  1818: u64 [s1 + 2024] = 0\n  1822: a0 = s1 + 0x7ff\n  1826: a0 = a0 + 0x1\n  1829: a1 = s1 + 0x7e0\n  1833: u64 [s1 + 0x130] = a2\n  1837: u64 [s1 + 0x7e0] = a2\n  1841: ra = 26, jump @856\n      : @48 [@dyn 13] (gas: 18)\n  1846: a0 = s1 + 0x1000\n  1850: a2 = u64 [a0 + 0xfffffffffffff818]\n  1854: a0 = s1 + 0x1000\n  1858: a3 = u64 [a0 + 0xfffffffffffff810]\n  1862: a0 = s1 + 0x1000\n  1866: a0 = u64 [a0 + 0xfffffffffffff808]\n  1870: a1 = s1 + 0x1000\n  1874: a1 = u64 [a1 + 0xfffffffffffff800]\n  1878: u64 [s1 + 0x128] = a0\n  1882: a0 = a0 | a2\n  1885: u64 [s1 + 0x138] = a1\n  1889: a1 = a1 | a3\n  1892: a1 = a1 | a0\n  1895: a1 = a1 >> 0x20\n  1898: a0 = a0 | a3\n  1901: a0 = a0 << 0x20\n  1904: a0 = a0 | a1\n  1907: jump @50 if a0 == 0\n      : @49 (gas: 1)\n  1910: jump @213\n      : @50 (gas: 5)\n  1913: u64 [s1 + 0x118] = a3\n  1917: u64 [s1 + 0x120] = a2\n  1921: a0 = u64 [s1 + 0x138]\n  1925: a1 = u64 [s1 + 0x130]\n  1929: ra = 28, jump @33\n      : @51 [@dyn 14] (gas: 5)\n  1934: i32 a0 = a0 + 0\n  1936: a1 = i32 [s1 + 0x130]\n  1940: a2 = 0\n  1942: ecalli 0 // 'call_data_copy'\n  1943: fallthrough\n      : @52 (gas: 2)\n  1944: a1 = u64 [s1 + 0x130]\n  1948: jump @54 if a1 >u 95\n      : @53 (gas: 1)\n  1952: jump @215\n      : @54 (gas: 3)\n  1955: a0 = s1 + 0x7c0\n  1959: a1 = u64 [s1 + 0x138]\n  1963: ra = 30, jump @17\n      : @55 [@dyn 15] (gas: 11)\n  1968: a3 = s1 + 0x100\n  1972: a0 = u64 [a3 + 0x20]\n  1975: a1 = u64 [a3 + 0x18]\n  1978: a2 = a1 | a0\n  1981: a0 = 0xffffffe0\n  1991: a1 = u64 [a3 + 0x38]\n  1994: a0 = a1 <u a0\n  1997: a1 = u64 [a3 + 0x28]\n  2000: a0 = 0 if a1 != 0\n  2002: a0 = 0 if a2 != 0\n  2004: jump @57 if a0 != 0\n      : @56 (gas: 1)\n  2007: jump @213\n      : @57 (gas: 13)\n  2010: u64 [s1 + 0x110] = a2\n  2014: a0 = u64 [s1 + 0x7d8]\n  2018: u64 [s1 + 0x88] = a0\n  2022: a0 = u64 [s1 + 0x7d0]\n  2026: u64 [s1 + 0x80] = a0\n  2030: a0 = u64 [s1 + 0x7c8]\n  2034: u64 [s1 + 0x78] = a0\n  2037: a0 = u64 [s1 + 0x7c0]\n  2041: u64 [s1 + 0x70] = a0\n  2044: a0 = u64 [s1 + 0x138]\n  2048: i32 a1 = a0 + 0x20\n  2051: a0 = s1 + 0x7a0\n  2055: ra = 32, jump @17\n      : @58 [@dyn 16] (gas: 7)\n  2060: t0 = u64 [s1 + 0x7b8]\n  2064: t2 = u64 [s1 + 0x7b0]\n  2068: a4 = u64 [s1 + 0x7a8]\n  2072: a2 = t2 | t0\n  2075: a3 = a4 <u 0x1\n  2078: a3 = 0 if a2 != 0\n  2080: jump @60 if a3 != 0\n      : @59 (gas: 1)\n  2083: jump @216\n      : @60 (gas: 48)\n  2086: a3 = u64 [s1 + 0x7a0]\n  2090: a2 = u64 [s1 + 0x138]\n  2094: a0 = u64 [s1 + 0x130]\n  2098: ra = a2 + a0\n  2101: a1 = ra <u a2\n  2104: a2 = a2 + a3\n  2107: u64 [s1 + 0x130] = a2\n  2111: a3 = a2 <u a3\n  2114: a5 = u64 [s1 + 0x128]\n  2118: a0 = a4 + a5\n  2121: t1 = a0 + a3\n  2124: a2 = t1 ^ a4\n  2127: a4 = t1 <u a4\n  2130: a4 = a3 if a2 == 0\n  2133: a0 = a5\n  2135: a5 = a5 + a1\n  2138: a2 = a5 <u a0\n  2141: a2 = a1 if a1 == 0\n  2144: a1 = u64 [s1 + 0x118]\n  2148: a3 = t2 + a1\n  2151: t2 = a3 <u t2\n  2154: a0 = u64 [s1 + 0x120]\n  2158: t0 = t0 + a0\n  2161: t0 = t0 + t2\n  2164: t2 = a1 + a2\n  2167: a4 = a4 + a3\n  2170: a2 = a4 <u a3\n  2173: a3 = t0 + a2\n  2176: a1 = t2 <u a1\n  2179: a0 = a0 + a1\n  2182: u64 [s1 + 0x108] = ra\n  2186: u64 [s1 + 0x740] = ra\n  2190: u64 [s1 + 0x100] = a5\n  2194: u64 [s1 + 0x748] = a5\n  2198: a1 = u64 [s1 + 0x130]\n  2202: a5 = s1 + 0x700\n  2206: u64 [a5 + 0x60] = a1\n  2209: u64 [s1 + 0x130] = t2\n  2213: u64 [s1 + 0x750] = t2\n  2217: u64 [s1 + 0xf8] = a0\n  2221: u64 [a5 + 0x58] = a0\n  2224: u64 [s1 + 0x768] = t1\n  2228: u64 [a5 + 0x70] = a4\n  2231: a0 = s1 + 0x780\n  2235: a1 = s1 + 0x760\n  2239: a2 = s1 + 0x740\n  2243: u64 [a5 + 0x78] = a3\n  2246: ra = 34, jump @867\n      : @61 [@dyn 17] (gas: 9)\n  2251: a0 = 0xffffffc0\n  2261: a2 = s1 + 0x100\n  2265: a1 = u64 [a2 + 0x38]\n  2268: a0 = a1 <u a0\n  2271: a1 = u64 [a2 + 0x28]\n  2274: a0 = 0 if a1 != 0\n  2276: a1 = u64 [a2 + 0x10]\n  2279: a0 = 0 if a1 != 0\n  2281: jump @63 if a0 != 0\n      : @62 (gas: 1)\n  2284: jump @213\n      : @63 (gas: 12)\n  2287: a0 = u64 [s1 + 0x798]\n  2291: u64 [s1 + 0xc0] = a0\n  2295: a0 = u64 [s1 + 0x790]\n  2299: u64 [s1 + 0xb8] = a0\n  2303: a0 = u64 [s1 + 0x788]\n  2307: u64 [s1 + 0xc8] = a0\n  2311: a0 = u64 [s1 + 0x780]\n  2315: u64 [s1 + 0xd0] = a0\n  2319: a0 = u64 [s1 + 0x138]\n  2323: i32 a1 = a0 + 0x40\n  2326: a0 = s1 + 0x720\n  2330: ra = 36, jump @17\n      : @64 [@dyn 18] (gas: 7)\n  2335: t0 = u64 [s1 + 0x738]\n  2339: a1 = u64 [s1 + 0x730]\n  2343: a2 = u64 [s1 + 0x728]\n  2347: a3 = a1 | t0\n  2350: a4 = a2 <u 0x1\n  2353: a4 = 0 if a3 != 0\n  2355: jump @66 if a4 != 0\n      : @65 (gas: 1)\n  2358: jump @217\n      : @66 (gas: 37)\n  2361: a3 = u64 [s1 + 0x720]\n  2365: a4 = u64 [s1 + 0x138]\n  2369: a4 = a4 + a3\n  2372: a3 = a4 <u a3\n  2375: a5 = u64 [s1 + 0x128]\n  2379: a5 = a5 + a2\n  2382: a5 = a5 + a3\n  2385: a0 = a5 ^ a2\n  2388: a2 = a5 <u a2\n  2391: a2 = a3 if a0 == 0\n  2394: a0 = u64 [s1 + 0x118]\n  2398: a0 = a0 + a1\n  2401: a2 = a2 + a0\n  2404: a3 = a2 <u a0\n  2407: a0 = a0 <u a1\n  2410: a1 = u64 [s1 + 0x120]\n  2414: t0 = t0 + a1\n  2417: a0 = a0 + t0\n  2420: a3 = a3 + a0\n  2423: a1 = s1 + 0x100\n  2427: a0 = u64 [a1 + 0x8]\n  2430: u64 [s1 + 0x6c0] = a0\n  2434: a0 = u64 [a1]\n  2436: u64 [s1 + 0x6c8] = a0\n  2440: u64 [s1 + 0x6e0] = a4\n  2444: a0 = u64 [a1 + 0x30]\n  2447: a4 = s1 + 0x600\n  2451: u64 [a4 + 0xd0] = a0\n  2455: a0 = u64 [s1 + 0xf8]\n  2459: u64 [a4 + 0xd8] = a0\n  2463: u64 [a4 + 0xe8] = a5\n  2467: u64 [a4 + 0xf0] = a2\n  2471: a0 = s1 + 0x700\n  2475: a1 = s1 + 0x6e0\n  2479: a2 = s1 + 0x6c0\n  2483: u64 [a4 + 0xf8] = a3\n  2487: ra = 38, jump @867\n      : @67 [@dyn 19] (gas: 12)\n  2492: a2 = u64 [s1 + 0xb8]\n  2496: a4 = u64 [s1 + 0xd0]\n  2500: a0 = a4 | a2\n  2503: a1 = u64 [s1 + 0xc0]\n  2507: a3 = u64 [s1 + 0xc8]\n  2511: a1 = a1 | a3\n  2514: a0 = a0 | a1\n  2517: a0 = a0 >> 0x20\n  2520: a1 = a1 | a2\n  2523: a1 = a1 << 0x20\n  2526: a0 = a0 | a1\n  2529: jump @69 if a0 == 0\n      : @68 (gas: 1)\n  2532: jump @213\n      : @69 (gas: 12)\n  2535: a1 = a4\n  2537: a2 = s1 + 0x700\n  2541: a0 = u64 [a2 + 0x18]\n  2544: u64 [s1 + 0x98] = a0\n  2548: a0 = u64 [a2 + 0x10]\n  2551: u64 [s1 + 0x90] = a0\n  2555: a0 = u64 [a2 + 0x8]\n  2558: u64 [s1 + 0xa0] = a0\n  2562: a0 = u64 [a2]\n  2564: u64 [s1 + 0xa8] = a0\n  2568: a0 = s1 + 0x6a0\n  2572: ra = 40, jump @17\n      : @70 [@dyn 20] (gas: 17)\n  2577: a0 = s1 + 0x600\n  2581: a3 = u64 [a0 + 0xb8]\n  2585: a1 = u64 [a0 + 0xb0]\n  2589: a2 = u64 [a0 + 0xa8]\n  2593: a0 = a3 >u 0\n  2595: a4 = a1 >u 0\n  2597: a4 = a0 if a3 != 0\n  2600: u64 [s1 + 0xf0] = a2\n  2604: a0 = a2 >u 0\n  2606: u64 [s1 + 0x60] = a1\n  2609: u64 [s1 + 0xe8] = a3\n  2613: a1 = a1 | a3\n  2616: u64 [s1 + 0x58] = a0\n  2619: u64 [s1 + 0xb0] = a4\n  2623: u64 [s1 + 0xe0] = a1\n  2627: a0 = a4 if a1 != 0\n  2630: jump @72 if a0 == 0\n      : @71 (gas: 1)\n  2633: jump @218\n      : @72 (gas: 14)\n  2636: a0 = u64 [s1 + 0x6a0]\n  2640: u64 [s1 + 0x68] = a0\n  2643: a0 = s1 + 0x1000\n  2647: u64 [a0 + 4294965368] = 0\n  2651: a0 = s1 + 0x1000\n  2655: u64 [a0 + 4294965360] = 0\n  2659: a0 = s1 + 0x1000\n  2663: u64 [a0 + 4294965352] = 0\n  2667: a1 = s1 + 0x1000\n  2671: u64 [a1 + 4294965344] = 0x3\n  2676: a0 = s1 + 0x680\n  2680: a1 = s1 + 0x7ff\n  2684: a1 = a1 + 0x61\n  2687: ra = 42, jump @21\n      : @73 [@dyn 21] (gas: 6)\n  2692: a4 = s1 + 0x600\n  2696: a0 = u64 [a4 + 0x90]\n  2700: a1 = u64 [a4 + 0x88]\n  2704: a2 = u64 [a4 + 0x80]\n  2708: a3 = u64 [a4 + 0x98]\n  2712: t0 = 44, jump @1382\n      : @74 [@dyn 22] (gas: 12)\n  2717: t0 = a2 <u 0x1\n  2720: ra = a1 & 0x7f\n  2723: t2 = a5 & a0\n  2726: a4 = a5 & t1\n  2729: ra = a1 if a2 != 0\n  2732: a1 = ra <u 0x20\n  2735: a5 = a5 & a3\n  2738: a2 = a1\n  2740: a2 = 0 if a4 != 0\n  2742: a0 = t2 | a5\n  2745: a2 = 0 if a0 != 0\n  2747: jump @76 if t0 == a2\n      : @75 (gas: 1)\n  2750: jump @224\n      : @76 (gas: 1)\n  2753: t0 = 46, jump @1391\n      : @77 [@dyn 23] (gas: 4)\n  2758: a0 = u64 [s1 + 0x68]\n  2761: a0 = a0 <u 0x20\n  2764: u64 [s1 + 0xd8] = a0\n  2768: jump @86 if a3 == 0\n      : @78 (gas: 11)\n  2772: u64 [s1 + 0x110] = a4\n  2776: u64 [s1 + 0x118] = ra\n  2780: u64 [s1 + 0x120] = a5\n  2784: u64 [s1 + 0x130] = t2\n  2788: u64 [s1 + 1656] = 0\n  2792: u64 [s1 + 1648] = 0\n  2796: u64 [s1 + 1640] = 0\n  2800: a1 = s1 + 0x660\n  2804: u64 [s1 + 1632] = 0x3\n  2809: a0 = 0\n  2811: ra = 48, jump @19\n      : @79 [@dyn 24] (gas: 2)\n  2816: a1 = i32 [0x20264]\n  2821: jump @81 if a1 >u 31\n      : @80 (gas: 2)\n  2825: u32 [0x20264] = 0x20\n  2831: fallthrough\n      : @81 (gas: 87)\n  2832: a0 = sp + 0xffffffffffffffe0\n  2835: a2 = a0 & 0xffffffffffffffe0\n  2838: u64 [s1 + 0x128] = a2\n  2842: sp = a2\n  2844: a0 = 0x20270\n  2849: i32 a0 = a0 + 0\n  2851: i32 a2 = a2 + 0\n  2853: a1 = 0x20\n  2856: ecalli 6 // 'hash_keccak_256'\n  2858: a0 = u64 [s1 + 0x68]\n  2861: a1 = a0 + 0x1f\n  2864: a0 = a1 <u a0\n  2867: a5 = u64 [s1 + 0xf0]\n  2871: a2 = a5 + a0\n  2874: a3 = a2 <u a5\n  2877: a3 = a0 if a0 == 0\n  2880: a4 = u64 [s1 + 0x60]\n  2883: a3 = a3 + a4\n  2886: u64 [s1 + 0x108] = a3\n  2890: a3 = a3 << 0x3b\n  2893: a4 = a2 >> 0x5\n  2896: a4 = a4 | a3\n  2899: a0 = u64 [s1 + 0x128]\n  2903: t1 = u64 [a0 + 0x18]\n  2906: a2 = a2 << 0x3b\n  2909: a3 = u64 [a0 + 0x10]\n  2912: a1 = a1 >> 0x5\n  2915: a0 = a1 | a2\n  2918: t2 = reverse t1\n  2920: a2 = reverse a3\n  2922: a1 = u64 [s1 + 0xd8]\n  2926: a1 = 0 if a5 != 0\n  2928: a3 = u64 [s1 + 0xe0]\n  2932: a1 = 0 if a3 != 0\n  2934: a4 = 0 if a1 != 0\n  2936: a0 = 0 if a1 != 0\n  2938: t0 = t2 + a0\n  2941: a0 = t0 <u t2\n  2944: a5 = a2 + a0\n  2947: a4 = a4 + a5\n  2950: u64 [s1 + 0x138] = a4\n  2954: a5 = a4 ^ a2\n  2957: a3 = a4 <u a2\n  2960: a3 = a0 if a5 == 0\n  2963: u64 [s1 + 0x100] = a3\n  2967: a0 = u64 [s1 + 0x118]\n  2971: ra = a0 + 0x1f\n  2974: a4 = ra <u a0\n  2977: a3 = u64 [s1 + 0x110]\n  2981: a0 = a3 + a4\n  2984: a5 = a0 <u a3\n  2987: a5 = a4 if a4 == 0\n  2990: t1 = u64 [s1 + 0x130]\n  2994: t1 = t1 + a5\n  2997: a4 = t1 << 0x3b\n  3000: a3 = a0 >> 0x5\n  3003: a3 = a3 | a4\n  3006: a0 = a0 << 0x3b\n  3009: a4 = ra >> 0x5\n  3012: a0 = a0 | a4\n  3015: a0 = a0 + t2\n  3018: u64 [s1 + 0x118] = a0\n  3022: a0 = a0 <u t2\n  3025: t2 = t0\n  3027: a4 = a2 + a0\n  3030: a4 = a4 + a3\n  3033: a3 = a4 ^ a2\n  3036: u64 [s1 + 0x110] = a4\n  3040: a2 = a4 <u a2\n  3043: a2 = a0 if a3 == 0\n  3046: a4 = u64 [s1 + 0x108]\n  3050: a0 = u64 [s1 + 0x60]\n  3053: a0 = a4 <u a0\n  3056: a3 = u64 [s1 + 0xe8]\n  3060: a0 = a0 + a3\n  3063: a3 = a4 >> 0x5\n  3066: a4 = a0 << 0x3b\n  3069: a3 = a3 | a4\n  3072: a4 = u64 [s1 + 0x128]\n  3076: t0 = u64 [a4]\n  3078: a4 = u64 [a4 + 0x8]\n  3081: a0 = a0 >> 0x5\n  3084: a3 = 0 if a1 != 0\n  3086: a0 = 0 if a1 != 0\n  3088: a1 = reverse a4\n  3090: a4 = reverse t0\n  3092: t0 = 50, jump @1418\n      : @82 [@dyn 25] (gas: 25)\n  3097: t0 = a0 + a3\n  3100: a0 = u64 [s1 + 0x130]\n  3104: a0 = t1 <u a0\n  3107: a3 = u64 [s1 + 0x120]\n  3111: a0 = a0 + a3\n  3114: a3 = t1 >> 0x5\n  3117: a5 = a0 << 0x3b\n  3120: a3 = a3 | a5\n  3123: a0 = a0 >> 0x5\n  3126: a0 = a0 + a4\n  3129: a5 = s1 + 0x100\n  3133: a4 = u64 [a5 + 0x38]\n  3136: a3 = a3 + a1\n  3139: a1 = a3 <u a1\n  3142: a0 = a0 + a1\n  3145: a2 = a2 + a3\n  3148: u64 [a5 + 0x8] = a2\n  3151: a1 = a2 <u a3\n  3154: a0 = a0 + a1\n  3157: u64 [a5] = a0\n  3159: a0 = sp + 0xffffffffffffffe0\n  3162: t1 = a0 & 0xffffffffffffffe0\n  3165: sp = t1\n  3167: u64 [s1 + 0xf8] = t1\n  3171: fallthrough\n      : @83 (gas: 20)\n  3172: a0 = u64 [s1 + 0x118]\n  3176: a0 = t2 <u a0\n  3179: a2 = u64 [s1 + 0x110]\n  3183: a1 = a4 ^ a2\n  3186: a2 = a4 <u a2\n  3189: a2 = a0 if a1 == 0\n  3192: a5 = u64 [s1 + 0x108]\n  3196: a0 = ra <u a5\n  3199: a3 = u64 [s1 + 0x100]\n  3203: a1 = t0 ^ a3\n  3206: a3 = t0 <u a3\n  3209: a3 = a0 if a1 == 0\n  3212: a0 = ra ^ a5\n  3215: a0 = a0 | a1\n  3218: a3 = a2 if a0 == 0\n  3221: u64 [t1] = t2\n  3223: u64 [t1 + 0x8] = a4\n  3226: u64 [t1 + 0x10] = ra\n  3229: u64 [t1 + 0x18] = t0\n  3232: jump @86 if a3 == 0\n      : @84 (gas: 16)\n  3235: a0 = s1 + 0x1000\n  3239: u64 [a0 + 4294965400] = 0\n  3243: a0 = s1 + 0x1000\n  3247: u64 [a0 + 4294965392] = 0\n  3251: a0 = s1 + 0x1000\n  3255: u64 [a0 + 4294965384] = 0\n  3259: a0 = s1 + 0x1000\n  3263: u64 [a0 + 4294965376] = 0\n  3267: a1 = s1 + 0x7ff\n  3271: a1 = a1 + 0x81\n  3275: a0 = t1\n  3277: u64 [s1 + 0x130] = t2\n  3281: u64 [s1 + 0x138] = a4\n  3285: u64 [s1 + 0x128] = t0\n  3289: u64 [s1 + 0x120] = ra\n  3293: ra = 52, jump @24\n      : @85 [@dyn 26] (gas: 15)\n  3298: t1 = u64 [s1 + 0xf8]\n  3302: t0 = u64 [s1 + 0x128]\n  3306: a4 = u64 [s1 + 0x138]\n  3310: t2 = u64 [s1 + 0x130]\n  3314: t2 = t2 + 0x1\n  3317: a0 = t2 <u 0x1\n  3320: a4 = a4 + a0\n  3323: a0 = t2 | a4\n  3326: a0 = a0 <u 0x1\n  3329: a1 = u64 [s1 + 0x120]\n  3333: a0 = a0 + a1\n  3336: a1 = a0 <u a1\n  3339: t0 = t0 + a1\n  3342: ra = a0\n  3344: jump @83\n      : @86 (gas: 23)\n  3347: a0 = u64 [s1 + 0xd8]\n  3351: a0 = a0 ^ 0x1\n  3354: a5 = u64 [s1 + 0xf0]\n  3358: a1 = u64 [s1 + 0x58]\n  3361: a0 = a1 if a5 != 0\n  3364: a1 = u64 [s1 + 0xb0]\n  3368: a2 = u64 [s1 + 0xe0]\n  3372: a0 = a1 if a2 != 0\n  3375: ra = u64 [s1 + 0xe8]\n  3379: a4 = a5 | ra\n  3382: a1 = u64 [s1 + 0x60]\n  3385: t2 = a1 >> 0x3f\n  3388: ra = ra << 0x1\n  3391: a2 = a5 >> 0x3f\n  3394: u64 [s1 + 0x58] = a2\n  3397: a2 = a1 << 0x1\n  3400: u64 [s1 + 0x48] = a2\n  3403: a3 = u64 [s1 + 0x68]\n  3406: t0 = a3 >> 0x3f\n  3409: a2 = a5 << 0x1\n  3412: u64 [s1 + 0x50] = a2\n  3415: a2 = a3 << 0x1\n  3418: jump @98 if a0 == 0\n      : @87 (gas: 14)\n  3422: u64 [s1 + 0x20] = a4\n  3425: u64 [s1 + 0x30] = t0\n  3428: u64 [s1 + 0x38] = ra\n  3431: u64 [s1 + 0x28] = t2\n  3434: u64 [s1 + 0x40] = a2\n  3437: a3 = a3 & 0xffffffffffffffe0\n  3440: u64 [s1 + 0xb0] = a3\n  3444: u64 [s1 + 1592] = 0\n  3448: u64 [s1 + 1584] = 0\n  3452: u64 [s1 + 1576] = 0\n  3456: a1 = s1 + 0x620\n  3460: u64 [s1 + 1568] = 0x3\n  3465: a0 = 0\n  3467: ra = 54, jump @19\n      : @88 [@dyn 27] (gas: 7)\n  3472: a0 = sp + 0xffffffffffffffe0\n  3475: a0 = a0 & 0xffffffffffffffe0\n  3478: u64 [s1 + 0x110] = a0\n  3482: sp = a0\n  3484: a1 = 0x20\n  3487: a0 = 0\n  3489: ra = 56, jump @33\n      : @89 [@dyn 28] (gas: 1)\n  3494: t0 = 58, jump @1412\n      : @90 [@dyn 29] (gas: 5)\n  3499: ecalli 6 // 'hash_keccak_256'\n  3501: u64 [s1 + 312] = 0x20\n  3506: a5 = 0\n  3508: u64 [s1 + 304] = 0\n  3512: t0 = 60, jump @1398\n      : @91 [@dyn 30] (gas: 15)\n  3517: t0 = u64 [a3]\n  3519: t1 = reverse a0\n  3521: a1 = reverse a1\n  3523: a3 = reverse a2\n  3525: a2 = reverse t0\n  3527: t0 = a2\n  3529: a0 = u64 [s1 + 0x110]\n  3533: u64 [a0 + 0x18] = a2\n  3536: u64 [s1 + 0xf0] = a3\n  3540: u64 [a0 + 0x10] = a3\n  3543: u64 [s1 + 0x108] = a1\n  3547: u64 [a0 + 0x8] = a1\n  3550: a3 = t1\n  3552: u64 [a0] = t1\n  3554: fallthrough\n      : @92 (gas: 25)\n  3555: t2 = t0\n  3557: t1 = a3\n  3559: a0 = u64 [s1 + 0xb0]\n  3563: u64 [s1 + 0x100] = a4\n  3567: a0 = a4 <u a0\n  3570: a4 = a0 ^ 0x1\n  3573: u64 [s1 + 0xf8] = ra\n  3577: a4 = 0x1 if ra != 0\n  3580: a0 = u64 [s1 + 0x120]\n  3584: a2 = u64 [s1 + 0x118]\n  3588: a0 = a0 | a2\n  3591: a4 = 0x1 if a0 != 0\n  3594: a1 = u64 [s1 + 0xd0]\n  3598: a0 = u64 [s1 + 0x138]\n  3602: a1 = a1 + a0\n  3605: a3 = u64 [s1 + 0xc8]\n  3609: t0 = a5\n  3611: a3 = a3 + a5\n  3614: a2 = u64 [s1 + 0xb8]\n  3618: a0 = u64 [s1 + 0x130]\n  3622: a2 = a2 + a0\n  3625: a0 = u64 [s1 + 0xc0]\n  3629: a5 = u64 [s1 + 0x128]\n  3633: a0 = a0 + a5\n  3636: jump @100 if a4 != 0\n      : @93 (gas: 23)\n  3640: a4 = u64 [s1 + 0x138]\n  3644: a4 = a1 <u a4\n  3647: ra = a3 + a4\n  3650: a3 = t0\n  3652: t0 = ra ^ t0\n  3655: a5 = ra <u a3\n  3658: a5 = a4 if t0 == 0\n  3661: a5 = a5 + a2\n  3664: t0 = a5 <u a2\n  3667: a4 = u64 [s1 + 0x130]\n  3671: a2 = a2 <u a4\n  3674: a0 = a0 + a2\n  3677: a0 = a0 + t0\n  3680: a2 = a1 | a5\n  3683: a0 = ra | a0\n  3686: a2 = a2 | a0\n  3689: a2 = a2 >> 0x20\n  3692: a0 = a0 | a5\n  3695: a0 = a0 << 0x20\n  3698: a0 = a0 | a2\n  3701: u64 [s1 + 0xe8] = t1\n  3705: u64 [s1 + 0xe0] = t2\n  3709: jump @95 if a0 == 0\n      : @94 (gas: 1)\n  3712: jump @213\n      : @95 (gas: 3)\n  3715: a0 = s1 + 0x1c0\n  3719: u64 [s1 + 0xd8] = a3\n  3723: ra = 62, jump @17\n      : @96 [@dyn 31] (gas: 16)\n  3728: a0 = u64 [s1 + 0x1d8]\n  3732: a1 = u64 [s1 + 0x1d0]\n  3736: a2 = u64 [s1 + 0x1c8]\n  3740: a3 = u64 [s1 + 0x1c0]\n  3744: a4 = s1 + 0x7ff\n  3748: a4 = a4 + 0xb9\n  3752: u64 [a4] = a0\n  3754: u64 [a4 + 0xfffffffffffffff8] = a1\n  3757: a0 = s1 + 0x1000\n  3761: u64 [a0 + 0xfffffffffffff8a8] = a2\n  3765: a0 = s1 + 0x1000\n  3769: u64 [a0 + 0xfffffffffffff8a0] = a3\n  3773: a1 = s1 + 0x7ff\n  3777: a1 = a1 + 0xa1\n  3781: a0 = u64 [s1 + 0x110]\n  3785: ra = 64, jump @24\n      : @97 [@dyn 32] (gas: 56)\n  3790: ra = u64 [s1 + 0xe8]\n  3794: ra = ra + 0x1\n  3797: a0 = ra <u 0x1\n  3800: t0 = u64 [s1 + 0x108]\n  3804: t0 = t0 + a0\n  3807: a0 = ra | t0\n  3810: a0 = a0 <u 0x1\n  3813: a1 = u64 [s1 + 0xf0]\n  3817: t1 = a1 + a0\n  3820: a1 = t1 <u a1\n  3823: a0 = u64 [s1 + 0xe0]\n  3827: a0 = a0 + a1\n  3830: a1 = u64 [s1 + 0x138]\n  3834: a2 = a1 + 0x20\n  3837: u64 [s1 + 0xe8] = a2\n  3841: a3 = a2 <u a1\n  3844: a1 = u64 [s1 + 0xd8]\n  3848: a2 = a1 + a3\n  3851: u64 [s1 + 0xe0] = a2\n  3855: a4 = a2 <u a1\n  3858: a4 = a3 if a3 == 0\n  3861: a1 = u64 [s1 + 0x130]\n  3865: t2 = a1 + a4\n  3868: a4 = t2 <u a1\n  3871: a1 = u64 [s1 + 0x128]\n  3875: a1 = a1 + a4\n  3878: u64 [s1 + 0x128] = a1\n  3882: a1 = u64 [s1 + 0x100]\n  3886: a4 = a1 + 0x20\n  3889: a5 = a4 <u a1\n  3892: a2 = u64 [s1 + 0xf8]\n  3896: a1 = a2 + a5\n  3899: a2 = a1 <u a2\n  3902: a2 = a5 if a5 == 0\n  3905: a3 = u64 [s1 + 0x118]\n  3909: a2 = a2 + a3\n  3912: a5 = a2 <u a3\n  3915: a3 = u64 [s1 + 0x120]\n  3919: a3 = a3 + a5\n  3922: u64 [s1 + 0x120] = a3\n  3926: u64 [s1 + 0x108] = t0\n  3930: a5 = u64 [s1 + 0x110]\n  3934: u64 [a5 + 0x8] = t0\n  3937: a3 = ra\n  3939: u64 [a5] = ra\n  3941: u64 [a5 + 0x10] = t1\n  3944: t0 = a0\n  3946: u64 [a5 + 0x18] = a0\n  3949: u64 [s1 + 0xf0] = t1\n  3953: a0 = u64 [s1 + 0xe8]\n  3957: u64 [s1 + 0x138] = a0\n  3961: a5 = u64 [s1 + 0xe0]\n  3965: u64 [s1 + 0x130] = t2\n  3969: ra = a1\n  3971: u64 [s1 + 0x118] = a2\n  3975: jump @92\n      : @98 (gas: 7)\n  3978: a0 = a3 | a1\n  3981: a0 = a0 | a4\n  3984: a4 = u64 [s1 + 0xd0]\n  3988: t1 = u64 [s1 + 0xc8]\n  3992: a1 = u64 [s1 + 0xc0]\n  3996: a5 = u64 [s1 + 0xb8]\n  4000: jump @114 if a0 != 0\n      : @99 (gas: 6)\n  4004: u64 [s1 + 0x40] = a2\n  4007: u64 [s1 + 288] = 0\n  4011: u64 [s1 + 280] = 0\n  4015: u64 [s1 + 296] = 0\n  4019: u64 [s1 + 304] = 0\n  4023: jump @117\n      : @100 (gas: 11)\n  4026: ra = t0\n  4028: t1 = u64 [s1 + 0x68]\n  4031: a4 = u64 [s1 + 0xb0]\n  4035: a4 = a4 ^ t1\n  4038: a5 = u64 [s1 + 0x60]\n  4041: a4 = a4 | a5\n  4044: a5 = u64 [s1 + 0x20]\n  4047: a4 = a4 | a5\n  4050: a5 = u64 [s1 + 0x38]\n  4053: t0 = u64 [s1 + 0x30]\n  4056: jump @113 if a4 == 0\n      : @101 (gas: 13)\n  4060: a4 = u64 [s1 + 0x138]\n  4064: a4 = a1 <u a4\n  4067: a3 = a3 + a4\n  4070: t0 = a3 ^ ra\n  4073: a5 = a3 <u ra\n  4076: a5 = a4 if t0 == 0\n  4079: a5 = a5 + a2\n  4082: t0 = a5 <u a2\n  4085: a4 = u64 [s1 + 0x130]\n  4089: a2 = a2 <u a4\n  4092: a0 = a0 + a2\n  4095: a0 = a0 + t0\n  4098: t0 = 66, jump @1403\n      : @102 [@dyn 33] (gas: 1)\n  4103: jump @104 if a0 == 0\n      : @103 (gas: 1)\n  4106: jump @213\n      : @104 (gas: 2)\n  4109: a0 = s1 + 0x600\n  4113: ra = 68, jump @17\n      : @105 [@dyn 34] (gas: 11)\n  4118: a1 = s1 + 0x600\n  4122: a0 = u64 [a1 + 0x18]\n  4125: u64 [s1 + 0x130] = a0\n  4129: a0 = u64 [a1 + 0x10]\n  4132: u64 [s1 + 0x128] = a0\n  4136: a0 = u64 [a1 + 0x8]\n  4139: u64 [s1 + 0x120] = a0\n  4143: a0 = u64 [a1]\n  4145: u64 [s1 + 0x118] = a0\n  4149: a0 = u64 [s1 + 0x68]\n  4152: t0 = 70, jump @1411\n      : @106 [@dyn 35] (gas: 1)\n  4157: ra = 72, jump @1428\n      : @107 [@dyn 36] (gas: 6)\n  4162: u64 [s1 + 0x108] = a0\n  4166: u64 [s1 + 0xf0] = a1\n  4170: a0 = 0xffffffffffffffff\n  4173: a1 = 0xffffffffffffffff\n  4176: a2 = u64 [s1 + 0x138]\n  4180: ra = 74, jump @1423\n      : @108 [@dyn 37] (gas: 1)\n  4185: t0 = 76, jump @1400\n      : @109 [@dyn 38] (gas: 1)\n  4190: ra = 78, jump @1423\n      : @110 [@dyn 39] (gas: 1)\n  4195: t0 = 80, jump @1351\n      : @111 [@dyn 40] (gas: 8)\n  4200: u64 [a4 + 0x20] = a3\n  4203: u64 [a4 + 0x18] = a2\n  4206: u64 [a4 + 0x10] = a1\n  4209: u64 [a4 + 0x8] = a0\n  4212: a1 = s1 + 0x7ff\n  4216: a1 = a1 + 0xc1\n  4220: a0 = u64 [s1 + 0x110]\n  4224: ra = 82, jump @24\n      : @112 [@dyn 41] (gas: 3)\n  4229: t0 = u64 [s1 + 0x30]\n  4232: a5 = u64 [s1 + 0x38]\n  4235: fallthrough\n      : @113 (gas: 25)\n  4236: a0 = u64 [s1 + 0x28]\n  4239: a0 = a0 | a5\n  4242: a1 = u64 [s1 + 0x58]\n  4245: a2 = u64 [s1 + 0x48]\n  4248: a1 = a1 | a2\n  4251: a2 = u64 [s1 + 0x50]\n  4254: a2 = a2 | t0\n  4257: a3 = u64 [s1 + 0x40]\n  4260: a3 = a3 + 0x1\n  4263: a5 = s1 + 0x7ff\n  4267: a5 = a5 + 0xb9\n  4271: u64 [a5 + 64] = 0\n  4274: u64 [a5 + 56] = 0\n  4277: u64 [a5 + 48] = 0\n  4280: u64 [a5 + 40] = 0x3\n  4284: u64 [a5 + 0x48] = a3\n  4287: u64 [a5 + 0x50] = a2\n  4290: u64 [a5 + 0x58] = a1\n  4293: u64 [a5 + 0x60] = a0\n  4296: a0 = s1 + 0x7ff\n  4300: a0 = a0 + 0xe1\n  4304: a1 = s1 + 0x7ff\n  4308: a1 = a1 + 0x101\n  4312: ra = 0x62\n  4315: jump @24\n      : @114 (gas: 6)\n  4318: a0 = a5 | a1\n  4321: a1 = 0xffffffe0\n  4331: a1 = a4 <u a1\n  4334: a1 = 0 if t1 != 0\n  4336: a1 = 0 if a0 != 0\n  4338: jump @213 if a1 == 0\n      : @115 (gas: 7)\n  4342: u64 [s1 + 0x40] = a2\n  4345: i32 a1 = a4 + 0x20\n  4348: a0 = s1 + 0x640\n  4352: u64 [s1 + 0x28] = t2\n  4355: u64 [s1 + 0x38] = ra\n  4358: u64 [s1 + 0x30] = t0\n  4361: ra = 84, jump @17\n      : @116 [@dyn 42] (gas: 15)\n  4366: t0 = u64 [s1 + 0x30]\n  4369: ra = u64 [s1 + 0x38]\n  4372: t2 = u64 [s1 + 0x28]\n  4375: a3 = u64 [s1 + 0x68]\n  4378: a1 = s1 + 0x600\n  4382: a0 = u64 [a1 + 0x58]\n  4385: a2 = s1 + 0x100\n  4389: u64 [a2 + 0x30] = a0\n  4392: a0 = u64 [a1 + 0x50]\n  4395: u64 [a2 + 0x28] = a0\n  4398: a0 = u64 [a1 + 0x48]\n  4401: u64 [a2 + 0x18] = a0\n  4404: a0 = u64 [a1 + 0x40]\n  4407: u64 [a2 + 0x20] = a0\n  4410: fallthrough\n      : @117 (gas: 10)\n  4411: a0 = u64 [s1 + 0x58]\n  4414: a1 = u64 [s1 + 0x48]\n  4417: a0 = a0 | a1\n  4420: u64 [s1 + 0x110] = a0\n  4424: a0 = ra | t2\n  4427: u64 [s1 + 0x108] = a0\n  4431: a0 = u64 [s1 + 0x50]\n  4434: a0 = a0 | t0\n  4437: u64 [s1 + 0x100] = a0\n  4441: t0 = 86, jump @1419\n      : @118 [@dyn 43] (gas: 1)\n  4446: ra = 88, jump @1428\n      : @119 [@dyn 44] (gas: 7)\n  4451: u64 [s1 + 0xe0] = a0\n  4455: u64 [s1 + 0xf8] = a1\n  4459: a0 = u64 [s1 + 0x68]\n  4462: i32 a2 = a0 << 0x3\n  4465: a0 = 0xffffffffffffffff\n  4468: a1 = 0xffffffffffffffff\n  4471: ra = 90, jump @1423\n      : @120 [@dyn 45] (gas: 10)\n  4476: u64 [s1 + 0xf0] = a0\n  4480: u64 [s1 + 0xe8] = a1\n  4484: a1 = u64 [s1 + 0xe0]\n  4488: a0 = a0 | a1\n  4491: u64 [s1 + 0xe0] = a0\n  4495: a0 = u64 [s1 + 0x138]\n  4499: i32 a2 = a0 + 0xffffffffffffff80\n  4502: a0 = 0xffffffffffffffff\n  4505: a1 = 0xffffffffffffffff\n  4508: ra = 92, jump @1423\n      : @121 [@dyn 46] (gas: 7)\n  4513: a4 = u64 [s1 + 0x138]\n  4517: a2 = a4 <u 0x80\n  4521: a3 = u64 [s1 + 0xe0]\n  4525: a0 = a3 if a2 != 0\n  4528: a5 = u64 [s1 + 0xe8]\n  4532: a3 = u64 [s1 + 0xf8]\n  4536: t0 = 94, jump @1421\n      : @122 [@dyn 47] (gas: 2)\n  4541: a4 = u64 [s1 + 0xf0]\n  4545: t0 = 96, jump @1381\n      : @123 [@dyn 48] (gas: 24)\n  4550: a4 = u64 [s1 + 0x40]\n  4553: a0 = a0 | a4\n  4556: a5 = s1 + 0x100\n  4560: a4 = u64 [a5]\n  4562: a1 = a1 | a4\n  4565: a4 = u64 [a5 + 0x8]\n  4568: a3 = a3 | a4\n  4571: a4 = u64 [a5 + 0x10]\n  4574: a2 = a2 | a4\n  4577: a5 = s1 + 0x7ff\n  4581: a5 = a5 + 0xb9\n  4585: u64 [a5 + 104] = 0x3\n  4589: u64 [a5 + 0x98] = a2\n  4593: u64 [a5 + 0xa0] = a3\n  4597: u64 [a5 + 0x90] = a1\n  4601: u64 [a5 + 0x88] = a0\n  4605: u64 [a5 + 128] = 0\n  4609: u64 [a5 + 120] = 0\n  4612: u64 [a5 + 112] = 0\n  4615: a0 = s1 + 0x7ff\n  4619: a0 = a0 + 0x121\n  4623: a1 = s1 + 0x7ff\n  4627: a1 = a1 + 0x141\n  4631: ra = 98, jump @24\n      : @124 [@dyn 49] (gas: 12)\n  4636: a1 = u64 [s1 + 0xa8]\n  4640: a4 = u64 [s1 + 0x90]\n  4644: a0 = a1 | a4\n  4647: a2 = u64 [s1 + 0xa0]\n  4651: a3 = u64 [s1 + 0x98]\n  4655: a2 = a2 | a3\n  4658: a0 = a0 | a2\n  4661: a0 = a0 >> 0x20\n  4664: a2 = a2 | a4\n  4667: a2 = a2 << 0x20\n  4670: a0 = a0 | a2\n  4673: jump @213 if a0 != 0\n      : @125 (gas: 2)\n  4677: a0 = s1 + 0x5e0\n  4681: ra = 100, jump @17\n      : @126 [@dyn 50] (gas: 17)\n  4686: a0 = s1 + 0x500\n  4690: a3 = u64 [a0 + 0xf8]\n  4694: a2 = u64 [a0 + 0xf0]\n  4698: a1 = u64 [a0 + 0xe8]\n  4702: a0 = a3 >u 0\n  4704: a4 = a2 >u 0\n  4706: a4 = a0 if a3 != 0\n  4709: u64 [s1 + 0xc0] = a1\n  4713: a0 = a1 >u 0\n  4715: u64 [s1 + 0xb8] = a2\n  4719: u64 [s1 + 0xb0] = a3\n  4723: a2 = a2 | a3\n  4726: u64 [s1 + 0xd8] = a0\n  4730: u64 [s1 + 0xe0] = a4\n  4734: u64 [s1 + 0xf0] = a2\n  4738: a0 = a4 if a2 != 0\n  4741: jump @230 if a0 != 0\n      : @127 (gas: 12)\n  4745: a0 = u64 [s1 + 0x5e0]\n  4749: u64 [s1 + 0xc8] = a0\n  4753: a1 = s1 + 0x7ff\n  4757: a1 = a1 + 0xb9\n  4761: u64 [a1 + 192] = 0\n  4765: u64 [a1 + 184] = 0\n  4769: u64 [a1 + 176] = 0\n  4773: u64 [a1 + 168] = 0x4\n  4778: a0 = s1 + 0x5c0\n  4782: a1 = s1 + 0x7ff\n  4786: a1 = a1 + 0x161\n  4790: ra = 102, jump @21\n      : @128 [@dyn 51] (gas: 6)\n  4795: a4 = s1 + 0x500\n  4799: a0 = u64 [a4 + 0xd0]\n  4803: a1 = u64 [a4 + 0xc8]\n  4807: a2 = u64 [a4 + 0xc0]\n  4811: a3 = u64 [a4 + 0xd8]\n  4815: t0 = 104, jump @1382\n      : @129 [@dyn 52] (gas: 12)\n  4820: t0 = a2 <u 0x1\n  4823: ra = a1 & 0x7f\n  4826: t2 = a5 & a0\n  4829: a4 = a5 & t1\n  4832: ra = a1 if a2 != 0\n  4835: a1 = ra <u 0x20\n  4838: a5 = a5 & a3\n  4841: a2 = a1\n  4843: a2 = 0 if a4 != 0\n  4845: a0 = t2 | a5\n  4848: a2 = 0 if a0 != 0\n  4850: jump @236 if t0 != a2\n      : @130 (gas: 1)\n  4854: t0 = 106, jump @1391\n      : @131 [@dyn 53] (gas: 4)\n  4859: a0 = u64 [s1 + 0xc8]\n  4863: a0 = a0 <u 0x20\n  4866: u64 [s1 + 0xe8] = a0\n  4870: jump @140 if a3 == 0\n      : @132 (gas: 11)\n  4874: u64 [s1 + 0x110] = a4\n  4878: u64 [s1 + 0x118] = ra\n  4882: u64 [s1 + 0x120] = a5\n  4886: u64 [s1 + 0x130] = t2\n  4890: u64 [s1 + 1464] = 0\n  4894: u64 [s1 + 1456] = 0\n  4898: u64 [s1 + 1448] = 0\n  4902: a1 = s1 + 0x5a0\n  4906: u64 [s1 + 1440] = 0x4\n  4911: a0 = 0\n  4913: ra = 108, jump @19\n      : @133 [@dyn 54] (gas: 2)\n  4918: a1 = i32 [0x20264]\n  4923: jump @135 if a1 >u 31\n      : @134 (gas: 2)\n  4927: u32 [0x20264] = 0x20\n  4933: fallthrough\n      : @135 (gas: 87)\n  4934: a0 = sp + 0xffffffffffffffe0\n  4937: a2 = a0 & 0xffffffffffffffe0\n  4940: u64 [s1 + 0x128] = a2\n  4944: sp = a2\n  4946: a0 = 0x20270\n  4951: i32 a0 = a0 + 0\n  4953: i32 a2 = a2 + 0\n  4955: a1 = 0x20\n  4958: ecalli 6 // 'hash_keccak_256'\n  4960: a0 = u64 [s1 + 0xc8]\n  4964: a1 = a0 + 0x1f\n  4967: a0 = a1 <u a0\n  4970: a5 = u64 [s1 + 0xc0]\n  4974: a2 = a5 + a0\n  4977: a3 = a2 <u a5\n  4980: a3 = a0 if a0 == 0\n  4983: a4 = u64 [s1 + 0xb8]\n  4987: a3 = a3 + a4\n  4990: u64 [s1 + 0x108] = a3\n  4994: a3 = a3 << 0x3b\n  4997: a4 = a2 >> 0x5\n  5000: a4 = a4 | a3\n  5003: a0 = u64 [s1 + 0x128]\n  5007: t0 = u64 [a0 + 0x18]\n  5010: a2 = a2 << 0x3b\n  5013: a0 = u64 [a0 + 0x10]\n  5016: a1 = a1 >> 0x5\n  5019: a2 = a2 | a1\n  5022: t2 = reverse t0\n  5024: a0 = reverse a0\n  5026: a1 = u64 [s1 + 0xe8]\n  5030: a1 = 0 if a5 != 0\n  5032: a3 = u64 [s1 + 0xf0]\n  5036: a1 = 0 if a3 != 0\n  5038: a4 = 0 if a1 != 0\n  5040: a2 = 0 if a1 != 0\n  5042: t0 = t2 + a2\n  5045: a2 = t0 <u t2\n  5048: a5 = a0 + a2\n  5051: a4 = a4 + a5\n  5054: u64 [s1 + 0x138] = a4\n  5058: a5 = a4 ^ a0\n  5061: a3 = a4 <u a0\n  5064: a3 = a2 if a5 == 0\n  5067: u64 [s1 + 0x100] = a3\n  5071: a2 = u64 [s1 + 0x118]\n  5075: ra = a2 + 0x1f\n  5078: a4 = ra <u a2\n  5081: a3 = u64 [s1 + 0x110]\n  5085: a2 = a3 + a4\n  5088: a5 = a2 <u a3\n  5091: a5 = a4 if a4 == 0\n  5094: t1 = u64 [s1 + 0x130]\n  5098: t1 = t1 + a5\n  5101: a4 = t1 << 0x3b\n  5104: a3 = a2 >> 0x5\n  5107: a3 = a3 | a4\n  5110: a2 = a2 << 0x3b\n  5113: a4 = ra >> 0x5\n  5116: a2 = a2 | a4\n  5119: a2 = a2 + t2\n  5122: u64 [s1 + 0x118] = a2\n  5126: a4 = a2 <u t2\n  5129: t2 = t0\n  5131: a2 = a0 + a4\n  5134: a2 = a2 + a3\n  5137: a3 = a2 ^ a0\n  5140: u64 [s1 + 0x110] = a2\n  5144: a2 = a2 <u a0\n  5147: a2 = a4 if a3 == 0\n  5150: a4 = u64 [s1 + 0x108]\n  5154: a0 = u64 [s1 + 0xb8]\n  5158: a0 = a4 <u a0\n  5161: a3 = u64 [s1 + 0xb0]\n  5165: a0 = a0 + a3\n  5168: a3 = a4 >> 0x5\n  5171: a4 = a0 << 0x3b\n  5174: a3 = a3 | a4\n  5177: a4 = u64 [s1 + 0x128]\n  5181: t0 = u64 [a4]\n  5183: a4 = u64 [a4 + 0x8]\n  5186: a0 = a0 >> 0x5\n  5189: a3 = 0 if a1 != 0\n  5191: a0 = 0 if a1 != 0\n  5193: a1 = reverse a4\n  5195: a4 = reverse t0\n  5197: t0 = 110, jump @1418\n      : @136 [@dyn 55] (gas: 25)\n  5202: t0 = a0 + a3\n  5205: a0 = u64 [s1 + 0x130]\n  5209: a0 = t1 <u a0\n  5212: a3 = u64 [s1 + 0x120]\n  5216: a0 = a0 + a3\n  5219: a3 = t1 >> 0x5\n  5222: a5 = a0 << 0x3b\n  5225: a3 = a3 | a5\n  5228: a0 = a0 >> 0x5\n  5231: a0 = a0 + a4\n  5234: a5 = s1 + 0x100\n  5238: a4 = u64 [a5 + 0x38]\n  5241: a3 = a3 + a1\n  5244: a1 = a3 <u a1\n  5247: a0 = a0 + a1\n  5250: a2 = a2 + a3\n  5253: u64 [a5 + 0x8] = a2\n  5256: a1 = a2 <u a3\n  5259: a0 = a0 + a1\n  5262: u64 [a5] = a0\n  5264: a0 = sp + 0xffffffffffffffe0\n  5267: t1 = a0 & 0xffffffffffffffe0\n  5270: sp = t1\n  5272: u64 [s1 + 0xf8] = t1\n  5276: fallthrough\n      : @137 (gas: 20)\n  5277: a0 = u64 [s1 + 0x118]\n  5281: a0 = t2 <u a0\n  5284: a2 = u64 [s1 + 0x110]\n  5288: a1 = a4 ^ a2\n  5291: a2 = a4 <u a2\n  5294: a2 = a0 if a1 == 0\n  5297: a5 = u64 [s1 + 0x108]\n  5301: a0 = ra <u a5\n  5304: a3 = u64 [s1 + 0x100]\n  5308: a1 = t0 ^ a3\n  5311: a3 = t0 <u a3\n  5314: a3 = a0 if a1 == 0\n  5317: a0 = ra ^ a5\n  5320: a0 = a0 | a1\n  5323: a3 = a2 if a0 == 0\n  5326: u64 [t1] = t2\n  5328: u64 [t1 + 0x8] = a4\n  5331: u64 [t1 + 0x10] = ra\n  5334: u64 [t1 + 0x18] = t0\n  5337: jump @140 if a3 == 0\n      : @138 (gas: 14)\n  5340: a0 = s1 + 0x7ff\n  5344: a0 = a0 + 0xb9\n  5348: u64 [a0 + 224] = 0\n  5352: u64 [a0 + 216] = 0\n  5356: u64 [a0 + 208] = 0\n  5360: u64 [a0 + 200] = 0\n  5364: a1 = s1 + 0x7ff\n  5368: a1 = a1 + 0x181\n  5372: a0 = t1\n  5374: u64 [s1 + 0x130] = t2\n  5378: u64 [s1 + 0x138] = a4\n  5382: u64 [s1 + 0x128] = t0\n  5386: u64 [s1 + 0x120] = ra\n  5390: ra = 112, jump @24\n      : @139 [@dyn 56] (gas: 15)\n  5395: t1 = u64 [s1 + 0xf8]\n  5399: t0 = u64 [s1 + 0x128]\n  5403: a4 = u64 [s1 + 0x138]\n  5407: t2 = u64 [s1 + 0x130]\n  5411: t2 = t2 + 0x1\n  5414: a0 = t2 <u 0x1\n  5417: a4 = a4 + a0\n  5420: a0 = t2 | a4\n  5423: a0 = a0 <u 0x1\n  5426: a1 = u64 [s1 + 0x120]\n  5430: a0 = a0 + a1\n  5433: a1 = a0 <u a1\n  5436: t0 = t0 + a1\n  5439: ra = a0\n  5441: jump @137\n      : @140 (gas: 9)\n  5444: a0 = u64 [s1 + 0xe8]\n  5448: a0 = a0 ^ 0x1\n  5451: a4 = u64 [s1 + 0xc0]\n  5455: a1 = u64 [s1 + 0xd8]\n  5459: a0 = a1 if a4 != 0\n  5462: a1 = u64 [s1 + 0xe0]\n  5466: a2 = u64 [s1 + 0xf0]\n  5470: a0 = a1 if a2 != 0\n  5473: jump @152 if a0 == 0\n      : @141 (gas: 10)\n  5477: a0 = u64 [s1 + 0xc8]\n  5481: a0 = a0 & 0xffffffffffffffe0\n  5484: u64 [s1 + 0xd0] = a0\n  5488: u64 [s1 + 1400] = 0\n  5492: u64 [s1 + 1392] = 0\n  5496: u64 [s1 + 1384] = 0\n  5500: a1 = s1 + 0x560\n  5504: u64 [s1 + 1376] = 0x4\n  5509: a0 = 0\n  5511: ra = 114, jump @19\n      : @142 [@dyn 57] (gas: 7)\n  5516: a0 = sp + 0xffffffffffffffe0\n  5519: a0 = a0 & 0xffffffffffffffe0\n  5522: u64 [s1 + 0x110] = a0\n  5526: sp = a0\n  5528: a1 = 0x20\n  5531: a0 = 0\n  5533: ra = 116, jump @33\n      : @143 [@dyn 58] (gas: 1)\n  5538: t0 = 118, jump @1412\n      : @144 [@dyn 59] (gas: 5)\n  5543: ecalli 6 // 'hash_keccak_256'\n  5545: u64 [s1 + 304] = 0x20\n  5550: a5 = 0\n  5552: u64 [s1 + 312] = 0\n  5556: t0 = 120, jump @1398\n      : @145 [@dyn 60] (gas: 15)\n  5561: t0 = u64 [a3]\n  5563: t1 = reverse a0\n  5565: a1 = reverse a1\n  5567: a3 = reverse a2\n  5569: a2 = reverse t0\n  5571: t0 = a2\n  5573: a0 = u64 [s1 + 0x110]\n  5577: u64 [a0 + 0x18] = a2\n  5580: u64 [s1 + 0xe8] = a3\n  5584: u64 [a0 + 0x10] = a3\n  5587: u64 [s1 + 0x100] = a1\n  5591: u64 [a0 + 0x8] = a1\n  5594: a3 = t1\n  5596: u64 [a0] = t1\n  5598: fallthrough\n      : @146 (gas: 26)\n  5599: t1 = t0\n  5601: t2 = a3\n  5603: a0 = u64 [s1 + 0xd0]\n  5607: u64 [s1 + 0xf8] = a4\n  5611: a0 = a4 <u a0\n  5614: a4 = a0 ^ 0x1\n  5617: u64 [s1 + 0xf0] = ra\n  5621: a4 = 0x1 if ra != 0\n  5624: a0 = u64 [s1 + 0x120]\n  5628: a2 = u64 [s1 + 0x118]\n  5632: a0 = a0 | a2\n  5635: a4 = 0x1 if a0 != 0\n  5638: a1 = u64 [s1 + 0xa8]\n  5642: ra = u64 [s1 + 0x130]\n  5646: a1 = a1 + ra\n  5649: a3 = u64 [s1 + 0xa0]\n  5653: t0 = a5\n  5655: a3 = a3 + a5\n  5658: a2 = u64 [s1 + 0x90]\n  5662: a0 = u64 [s1 + 0x138]\n  5666: a2 = a2 + a0\n  5669: a0 = u64 [s1 + 0x98]\n  5673: a5 = u64 [s1 + 0x128]\n  5677: a0 = a0 + a5\n  5680: u64 [s1 + 0x108] = t0\n  5684: jump @154 if a4 != 0\n      : @147 (gas: 13)\n  5688: a4 = a1 <u ra\n  5691: a3 = a3 + a4\n  5694: a5 = t0\n  5696: t0 = a3 ^ t0\n  5699: a5 = a3 <u a5\n  5702: a5 = a4 if t0 == 0\n  5705: a5 = a5 + a2\n  5708: t0 = a5 <u a2\n  5711: a4 = u64 [s1 + 0x138]\n  5715: a2 = a2 <u a4\n  5718: a0 = a0 + a2\n  5721: a0 = a0 + t0\n  5724: t0 = 122, jump @1403\n      : @148 [@dyn 61] (gas: 3)\n  5729: u64 [s1 + 0xe0] = t2\n  5733: u64 [s1 + 0xd8] = t1\n  5737: jump @213 if a0 != 0\n      : @149 (gas: 3)\n  5741: a0 = s1 + 0x260\n  5745: u64 [s1 + 0x130] = ra\n  5749: ra = 124, jump @17\n      : @150 [@dyn 62] (gas: 15)\n  5754: a4 = s1 + 0x200\n  5758: a0 = u64 [a4 + 0x78]\n  5761: a1 = u64 [a4 + 0x70]\n  5764: a2 = u64 [a4 + 0x68]\n  5767: a3 = u64 [a4 + 0x60]\n  5770: a4 = s1 + 0x7ff\n  5774: a4 = a4 + 0xb9\n  5778: u64 [a4 + 0x100] = a0\n  5782: u64 [a4 + 0xf8] = a1\n  5786: u64 [a4 + 0xf0] = a2\n  5790: u64 [a4 + 0xe8] = a3\n  5794: a1 = s1 + 0x7ff\n  5798: a1 = a1 + 0x1a1\n  5802: a0 = u64 [s1 + 0x110]\n  5806: ra = 126, jump @24\n      : @151 [@dyn 63] (gas: 56)\n  5811: ra = u64 [s1 + 0xe0]\n  5815: ra = ra + 0x1\n  5818: a0 = ra <u 0x1\n  5821: t0 = u64 [s1 + 0x100]\n  5825: t0 = t0 + a0\n  5828: a0 = ra | t0\n  5831: a0 = a0 <u 0x1\n  5834: a1 = u64 [s1 + 0xe8]\n  5838: t1 = a1 + a0\n  5841: a1 = t1 <u a1\n  5844: a0 = u64 [s1 + 0xd8]\n  5848: a0 = a0 + a1\n  5851: a1 = u64 [s1 + 0x130]\n  5855: a2 = a1 + 0x20\n  5858: u64 [s1 + 0xe0] = a2\n  5862: a3 = a2 <u a1\n  5865: a1 = u64 [s1 + 0x108]\n  5869: a2 = a1 + a3\n  5872: u64 [s1 + 0xd8] = a2\n  5876: a4 = a2 <u a1\n  5879: a4 = a3 if a3 == 0\n  5882: a1 = u64 [s1 + 0x138]\n  5886: t2 = a1 + a4\n  5889: a4 = t2 <u a1\n  5892: a1 = u64 [s1 + 0x128]\n  5896: a1 = a1 + a4\n  5899: u64 [s1 + 0x128] = a1\n  5903: a1 = u64 [s1 + 0xf8]\n  5907: a4 = a1 + 0x20\n  5910: a5 = a4 <u a1\n  5913: a2 = u64 [s1 + 0xf0]\n  5917: a1 = a2 + a5\n  5920: a2 = a1 <u a2\n  5923: a2 = a5 if a5 == 0\n  5926: a3 = u64 [s1 + 0x118]\n  5930: a2 = a2 + a3\n  5933: a5 = a2 <u a3\n  5936: a3 = u64 [s1 + 0x120]\n  5940: a3 = a3 + a5\n  5943: u64 [s1 + 0x120] = a3\n  5947: u64 [s1 + 0x100] = t0\n  5951: a5 = u64 [s1 + 0x110]\n  5955: u64 [a5 + 0x8] = t0\n  5958: a3 = ra\n  5960: u64 [a5] = ra\n  5962: u64 [a5 + 0x10] = t1\n  5965: t0 = a0\n  5967: u64 [a5 + 0x18] = a0\n  5970: u64 [s1 + 0xe8] = t1\n  5974: a0 = u64 [s1 + 0xe0]\n  5978: u64 [s1 + 0x130] = a0\n  5982: a5 = u64 [s1 + 0xd8]\n  5986: u64 [s1 + 0x138] = t2\n  5990: ra = a1\n  5992: u64 [s1 + 0x118] = a2\n  5996: jump @146\n      : @152 (gas: 8)\n  5999: a3 = u64 [s1 + 0xc8]\n  6003: a5 = u64 [s1 + 0xb8]\n  6007: a0 = a3 | a5\n  6010: a2 = u64 [s1 + 0xb0]\n  6014: a1 = a4 | a2\n  6017: a0 = a0 | a1\n  6020: t0 = u64 [s1 + 0xa8]\n  6024: jump @167 if a0 != 0\n      : @153 (gas: 5)\n  6028: u64 [s1 + 288] = 0\n  6032: u64 [s1 + 280] = 0\n  6036: u64 [s1 + 296] = 0\n  6040: u64 [s1 + 304] = 0\n  6044: jump @170\n      : @154 (gas: 10)\n  6047: t0 = u64 [s1 + 0xc8]\n  6051: a4 = u64 [s1 + 0xd0]\n  6055: a4 = a4 ^ t0\n  6058: t2 = u64 [s1 + 0xb8]\n  6062: a4 = a4 | t2\n  6065: t1 = u64 [s1 + 0xc0]\n  6069: ra = u64 [s1 + 0xb0]\n  6073: a5 = t1 | ra\n  6076: a4 = a4 | a5\n  6079: jump @166 if a4 == 0\n      : @155 (gas: 14)\n  6083: a4 = u64 [s1 + 0x130]\n  6087: a4 = a1 <u a4\n  6090: a3 = a3 + a4\n  6093: a5 = u64 [s1 + 0x108]\n  6097: t0 = a3 ^ a5\n  6100: a5 = a3 <u a5\n  6103: a5 = a4 if t0 == 0\n  6106: a5 = a5 + a2\n  6109: t0 = a5 <u a2\n  6112: a4 = u64 [s1 + 0x138]\n  6116: a2 = a2 <u a4\n  6119: a0 = a0 + a2\n  6122: a0 = a0 + t0\n  6125: t0 = 128, jump @1403\n      : @156 [@dyn 64] (gas: 1)\n  6131: jump @213 if a0 != 0\n      : @157 (gas: 2)\n  6135: a0 = s1 + 0x540\n  6139: ra = 130, jump @17\n      : @158 [@dyn 65] (gas: 11)\n  6145: a1 = s1 + 0x500\n  6149: a0 = u64 [a1 + 0x58]\n  6152: u64 [s1 + 0x130] = a0\n  6156: a0 = u64 [a1 + 0x50]\n  6159: u64 [s1 + 0x128] = a0\n  6163: a0 = u64 [a1 + 0x48]\n  6166: u64 [s1 + 0x120] = a0\n  6170: a0 = u64 [a1 + 0x40]\n  6173: u64 [s1 + 0x118] = a0\n  6177: a0 = u64 [s1 + 0xc8]\n  6181: t0 = 132, jump @1411\n      : @159 [@dyn 66] (gas: 1)\n  6187: ra = 134, jump @1428\n      : @160 [@dyn 67] (gas: 6)\n  6193: u64 [s1 + 0x108] = a0\n  6197: u64 [s1 + 0xf0] = a1\n  6201: a0 = 0xffffffffffffffff\n  6204: a1 = 0xffffffffffffffff\n  6207: a2 = u64 [s1 + 0x138]\n  6211: ra = 136, jump @1423\n      : @161 [@dyn 68] (gas: 1)\n  6217: t0 = 138, jump @1400\n      : @162 [@dyn 69] (gas: 1)\n  6223: ra = 140, jump @1423\n      : @163 [@dyn 70] (gas: 1)\n  6229: t0 = 142, jump @1351\n      : @164 [@dyn 71] (gas: 9)\n  6235: a5 = a4 + 0x100\n  6239: u64 [a5 + 0x20] = a3\n  6242: u64 [a5 + 0x18] = a2\n  6245: u64 [a5 + 0x10] = a1\n  6248: u64 [a5 + 0x8] = a0\n  6251: a1 = s1 + 0x7ff\n  6255: a1 = a1 + 0x1c1\n  6259: a0 = u64 [s1 + 0x110]\n  6263: ra = 144, jump @24\n      : @165 [@dyn 72] (gas: 5)\n  6269: t0 = u64 [s1 + 0xc8]\n  6273: t1 = u64 [s1 + 0xc0]\n  6277: t2 = u64 [s1 + 0xb8]\n  6281: ra = u64 [s1 + 0xb0]\n  6285: fallthrough\n      : @166 (gas: 28)\n  6286: a0 = t2 >> 0x3f\n  6289: a1 = ra << 0x1\n  6292: a0 = a0 | a1\n  6295: a1 = t1 >> 0x3f\n  6298: a2 = t2 << 0x1\n  6301: a1 = a1 | a2\n  6304: a2 = t0 >> 0x3f\n  6307: a3 = t1 << 0x1\n  6310: a2 = a2 | a3\n  6313: a3 = t0 << 0x1\n  6316: a3 = a3 + 0x1\n  6319: a5 = s1 + 0x7ff\n  6323: a5 = a5 + 0xb9\n  6327: u64 [a5 + 320] = 0\n  6331: u64 [a5 + 312] = 0\n  6335: u64 [a5 + 304] = 0\n  6339: u64 [a5 + 296] = 0x4\n  6344: a4 = a5 + 0x100\n  6348: u64 [a4 + 0x48] = a3\n  6351: u64 [a4 + 0x50] = a2\n  6354: u64 [a4 + 0x58] = a1\n  6357: u64 [a4 + 0x60] = a0\n  6360: a0 = s1 + 0x7ff\n  6364: a0 = a0 + 0x1e1\n  6368: a1 = s1 + 0x7ff\n  6372: a1 = a1 + 0x201\n  6376: ra = 0xa0\n  6380: jump @24\n      : @167 (gas: 9)\n  6383: a0 = u64 [s1 + 0x98]\n  6387: a1 = u64 [s1 + 0x90]\n  6391: a0 = a0 | a1\n  6394: a1 = 0xffffffe0\n  6404: a1 = t0 <u a1\n  6407: a3 = u64 [s1 + 0xa0]\n  6411: a1 = 0 if a3 != 0\n  6413: a1 = 0 if a0 != 0\n  6415: jump @213 if a1 == 0\n      : @168 (gas: 3)\n  6419: i32 a1 = t0 + 0x20\n  6422: a0 = s1 + 0x580\n  6426: ra = 146, jump @17\n      : @169 [@dyn 73] (gas: 14)\n  6432: a2 = u64 [s1 + 0xb0]\n  6436: a5 = u64 [s1 + 0xb8]\n  6440: a4 = u64 [s1 + 0xc0]\n  6444: a3 = u64 [s1 + 0xc8]\n  6448: a1 = s1 + 0x500\n  6452: a0 = u64 [a1 + 0x98]\n  6456: u64 [s1 + 0x130] = a0\n  6460: a0 = u64 [a1 + 0x90]\n  6464: u64 [s1 + 0x128] = a0\n  6468: a0 = u64 [a1 + 0x88]\n  6472: u64 [s1 + 0x118] = a0\n  6476: a0 = u64 [a1 + 0x80]\n  6480: u64 [s1 + 0x120] = a0\n  6484: fallthrough\n      : @170 (gas: 15)\n  6485: a0 = a4 >> 0x3f\n  6488: a1 = a5 << 0x1\n  6491: a0 = a0 | a1\n  6494: u64 [s1 + 0x110] = a0\n  6498: a0 = a5 >> 0x3f\n  6501: a1 = a2 << 0x1\n  6504: a0 = a0 | a1\n  6507: u64 [s1 + 0x108] = a0\n  6511: a0 = a3 >> 0x3f\n  6514: a1 = a4 << 0x1\n  6517: a0 = a0 | a1\n  6520: u64 [s1 + 0x100] = a0\n  6524: a0 = a3 << 0x1\n  6527: u64 [s1 + 0xf8] = a0\n  6531: t0 = 148, jump @1419\n      : @171 [@dyn 74] (gas: 1)\n  6537: ra = 150, jump @1428\n      : @172 [@dyn 75] (gas: 7)\n  6543: u64 [s1 + 0xd8] = a0\n  6547: u64 [s1 + 0xf0] = a1\n  6551: a0 = u64 [s1 + 0xc8]\n  6555: i32 a2 = a0 << 0x3\n  6558: a0 = 0xffffffffffffffff\n  6561: a1 = 0xffffffffffffffff\n  6564: ra = 152, jump @1423\n      : @173 [@dyn 76] (gas: 10)\n  6570: u64 [s1 + 0xe8] = a0\n  6574: u64 [s1 + 0xe0] = a1\n  6578: a1 = u64 [s1 + 0xd8]\n  6582: a0 = a0 | a1\n  6585: u64 [s1 + 0xd8] = a0\n  6589: a0 = u64 [s1 + 0x138]\n  6593: i32 a2 = a0 + 0xffffffffffffff80\n  6596: a0 = 0xffffffffffffffff\n  6599: a1 = 0xffffffffffffffff\n  6602: ra = 154, jump @1423\n      : @174 [@dyn 77] (gas: 7)\n  6608: a4 = u64 [s1 + 0x138]\n  6612: a2 = a4 <u 0x80\n  6616: a3 = u64 [s1 + 0xd8]\n  6620: a0 = a3 if a2 != 0\n  6623: a5 = u64 [s1 + 0xe0]\n  6627: a3 = u64 [s1 + 0xf0]\n  6631: t0 = 156, jump @1421\n      : @175 [@dyn 78] (gas: 2)\n  6637: a4 = u64 [s1 + 0xe8]\n  6641: t0 = 158, jump @1381\n      : @176 [@dyn 79] (gas: 25)\n  6647: a4 = u64 [s1 + 0xf8]\n  6651: a0 = a0 | a4\n  6654: a5 = s1 + 0x100\n  6658: a4 = u64 [a5]\n  6660: a1 = a1 | a4\n  6663: a4 = u64 [a5 + 0x8]\n  6666: a3 = a3 | a4\n  6669: a4 = u64 [a5 + 0x10]\n  6672: a2 = a2 | a4\n  6675: a5 = s1 + 0x7ff\n  6679: a5 = a5 + 0xb9\n  6683: u64 [a5 + 360] = 0x4\n  6688: a4 = a5 + 0x100\n  6692: u64 [a4 + 0x98] = a2\n  6696: u64 [a4 + 0xa0] = a3\n  6700: u64 [a4 + 0x90] = a1\n  6704: u64 [a4 + 0x88] = a0\n  6708: u64 [a5 + 384] = 0\n  6712: u64 [a5 + 376] = 0\n  6716: u64 [a5 + 368] = 0\n  6720: a0 = s1 + 0x7ff\n  6724: a0 = a0 + 0x221\n  6728: a1 = s1 + 0x7ff\n  6732: a1 = a1 + 0x241\n  6736: ra = 160, jump @24\n      : @177 [@dyn 80] (gas: 8)\n  6742: a0 = 0x30270\n  6747: u64 [s1 + 0x138] = a0\n  6751: i32 a0 = a0 + 0\n  6753: u64 [s1 + 0x130] = a0\n  6757: ra = 0xa2\n  6761: ecalli 3 // 'caller'\n  6763: t0 = 0xa4\n  6767: jump @1350\n      : @178 [@dyn 81] (gas: 1)\n  6770: t0 = 164, jump @1350\n      : @179 [@dyn 82] (gas: 8)\n  6776: u64 [s1 + 1304] = 0\n  6780: a2 = s1 + 0x500\n  6784: u64 [a2 + 0x10] = a1\n  6787: u64 [a2 + 0x8] = a0\n  6790: a0 = s1 + 0x520\n  6794: a1 = s1 + 0x500\n  6798: u64 [a2] = a3\n  6800: ra = 166, jump @894\n      : @180 [@dyn 83] (gas: 5)\n  6806: a0 = u64 [s1 + 0x130]\n  6810: ra = 0xa8\n  6814: ecalli 3 // 'caller'\n  6816: t0 = 0xaa\n  6820: jump @1350\n      : @181 [@dyn 84] (gas: 1)\n  6823: t0 = 170, jump @1350\n      : @182 [@dyn 85] (gas: 9)\n  6829: u64 [s1 + 1240] = 0\n  6833: u64 [s1 + 0x4d0] = a1\n  6837: u64 [s1 + 0x4c8] = a0\n  6841: a0 = s1 + 0x4e0\n  6845: a1 = s1 + 0x4c0\n  6849: u64 [s1 + 0x4c0] = a3\n  6853: ra = 0xac\n  6857: t0 = 0x35e\n  6861: jump @1380\n      : @183 [@dyn 86] (gas: 5)\n  6864: a0 = u64 [s1 + 0x130]\n  6868: ra = 0xae\n  6872: ecalli 3 // 'caller'\n  6874: t0 = 0xb0\n  6878: jump @1350\n      : @184 [@dyn 87] (gas: 1)\n  6881: t0 = 176, jump @1350\n      : @185 [@dyn 88] (gas: 10)\n  6887: u64 [s1 + 1176] = 0\n  6891: a2 = s1 + 0x400\n  6895: u64 [a2 + 0x90] = a1\n  6899: u64 [a2 + 0x88] = a0\n  6903: a0 = s1 + 0x4a0\n  6907: a1 = s1 + 0x480\n  6911: u64 [a2 + 0x80] = a3\n  6915: ra = 0xb2\n  6919: t0 = 0x3a4\n  6923: jump @1380\n      : @186 [@dyn 89] (gas: 3)\n  6926: a0 = u64 [s1 + 0x130]\n  6930: ecalli 3 // 'caller'\n  6932: fallthrough\n      : @187 (gas: 7)\n  6933: a2 = u64 [s1 + 0x138]\n  6937: a0 = u32 [a2 + 0x10]\n  6940: a1 = u64 [a2]\n  6942: a2 = u64 [a2 + 0x8]\n  6945: a0 = a0 | a1\n  6948: a0 = a0 | a2\n  6951: jump @242 if a0 == 0\n      : @188 (gas: 10)\n  6955: a1 = s1 + 0x7ff\n  6959: a1 = a1 + 0xb9\n  6963: u64 [a1 + 448] = 0\n  6967: u64 [a1 + 440] = 0\n  6971: u64 [a1 + 432] = 0\n  6975: u64 [a1 + 424] = 0x5\n  6980: a0 = s1 + 0x460\n  6984: a1 = s1 + 0x7ff\n  6988: a1 = a1 + 0x261\n  6992: ra = 180, jump @21\n      : @189 [@dyn 90] (gas: 2)\n  6998: a0 = u8 [s1 + 0x460]\n  7002: jump @247 if a0 != 0\n      : @190 (gas: 10)\n  7006: a0 = s1 + 0x7ff\n  7010: a0 = a0 + 0xb9\n  7014: u64 [a0 + 480] = 0\n  7018: u64 [a0 + 472] = 0\n  7022: u64 [a0 + 464] = 0\n  7026: u64 [a0 + 456] = 0x2\n  7031: a0 = s1 + 0x420\n  7035: a1 = s1 + 0x7ff\n  7039: a1 = a1 + 0x281\n  7043: ra = 182, jump @21\n      : @191 [@dyn 91] (gas: 43)\n  7049: t2 = u64 [s1 + 0x438]\n  7053: t1 = u64 [s1 + 0x430]\n  7057: ra = u64 [s1 + 0x420]\n  7061: u64 [s1 + 0x128] = ra\n  7065: a5 = u64 [s1 + 0x428]\n  7069: a1 = sp + 0xffffffffffffffe0\n  7072: a1 = a1 & 0xffffffffffffffe0\n  7075: sp = a1\n  7077: a2 = u64 [s1 + 0x78]\n  7080: a4 = a2 + a5\n  7083: a0 = u64 [s1 + 0x70]\n  7086: ra = ra + a0\n  7089: a0 = ra <u a0\n  7092: a4 = a4 + a0\n  7095: a3 = a4 ^ a2\n  7098: a2 = a4 <u a2\n  7101: a2 = a0 if a3 == 0\n  7104: t0 = u64 [s1 + 0x80]\n  7108: a0 = t0 + t1\n  7111: a3 = u64 [s1 + 0x88]\n  7115: a3 = a3 + t2\n  7118: t0 = a0 <u t0\n  7121: a3 = a3 + t0\n  7124: a2 = a2 + a0\n  7127: a0 = a2 <u a0\n  7130: t0 = a3 + a0\n  7133: a0 = a5 ^ a4\n  7136: a5 = a4 <u a5\n  7139: a3 = u64 [s1 + 0x128]\n  7143: a3 = ra <u a3\n  7146: a3 = a5 if a0 != 0\n  7149: a0 = a2 <u t1\n  7152: a5 = t2 ^ t0\n  7155: t2 = t0 <u t2\n  7158: t2 = a0 if a5 == 0\n  7161: a0 = t1 ^ a2\n  7164: a0 = a0 | a5\n  7167: a3 = t2 if a0 != 0\n  7170: u64 [a1 + 0x10] = a2\n  7173: u64 [a1 + 0x8] = a4\n  7176: u64 [a1] = ra\n  7178: u64 [a1 + 0x18] = t0\n  7181: jump @251 if a3 != 0\n      : @192 (gas: 9)\n  7185: a0 = s1 + 0x7ff\n  7189: a0 = a0 + 0xb9\n  7193: u64 [a0 + 512] = 0\n  7197: u64 [a0 + 504] = 0\n  7201: u64 [a0 + 496] = 0\n  7205: u64 [a0 + 488] = 0x2\n  7210: a0 = s1 + 0x7ff\n  7214: a0 = a0 + 0x2a1\n  7218: ra = 184, jump @24\n      : @193 [@dyn 92] (gas: 5)\n  7224: a0 = u64 [s1 + 0x130]\n  7228: ra = 0xba\n  7232: ecalli 3 // 'caller'\n  7234: t0 = 0xbc\n  7238: jump @1350\n      : @194 [@dyn 93] (gas: 1)\n  7241: t0 = 188, jump @1350\n      : @195 [@dyn 94] (gas: 8)\n  7247: u64 [s1 + 1048] = 0\n  7251: a2 = s1 + 0x400\n  7255: u64 [a2 + 0x10] = a1\n  7258: u64 [a2 + 0x8] = a0\n  7261: a1 = s1 + 0x400\n  7265: u64 [a2] = a3\n  7267: a0 = 0\n  7269: ra = 190, jump @19\n      : @196 [@dyn 95] (gas: 7)\n  7275: u64 [s1 + 1016] = 0\n  7279: u64 [s1 + 1008] = 0\n  7283: u64 [s1 + 1000] = 0\n  7287: a0 = 0x20\n  7290: a1 = s1 + 0x3e0\n  7294: u64 [s1 + 992] = 0\n  7298: ra = 192, jump @19\n      : @197 [@dyn 96] (gas: 6)\n  7304: a0 = sp + 0xffffffffffffffe0\n  7307: a0 = a0 & 0xffffffffffffffe0\n  7310: u64 [s1 + 0x128] = a0\n  7314: sp = a0\n  7316: a1 = i32 [0x20264]\n  7321: jump @199 if a1 >u 63\n      : @198 (gas: 2)\n  7325: u32 [0x20264] = 0x40\n  7331: fallthrough\n      : @199 (gas: 13)\n  7332: a0 = sp + 0xffffffffffffffe0\n  7335: a2 = a0 & 0xffffffffffffffe0\n  7338: u64 [s1 + 0x120] = a2\n  7342: sp = a2\n  7344: a0 = 0x20270\n  7349: i32 a0 = a0 + 0\n  7351: i32 a2 = a2 + 0\n  7353: a1 = 0x40\n  7356: ra = 0xc2\n  7360: ecalli 6 // 'hash_keccak_256'\n  7362: a3 = u64 [s1 + 0x120]\n  7366: t0 = 0xc4\n  7370: jump @1356\n      : @200 [@dyn 97] (gas: 2)\n  7373: a3 = u64 [s1 + 0x120]\n  7377: t0 = 196, jump @1356\n      : @201 [@dyn 98] (gas: 7)\n  7383: a1 = u64 [s1 + 0x128]\n  7387: u64 [a1 + 0x18] = a3\n  7390: u64 [a1 + 0x10] = a2\n  7393: u64 [a1 + 0x8] = a4\n  7396: u64 [a1] = a0\n  7398: a0 = s1 + 0x3c0\n  7402: ra = 198, jump @21\n      : @202 [@dyn 99] (gas: 33)\n  7408: a0 = u64 [s1 + 0x3c8]\n  7412: a1 = u64 [s1 + 0x3c0]\n  7416: t0 = u64 [s1 + 0x3d8]\n  7420: a3 = u64 [s1 + 0x3d0]\n  7424: a4 = u64 [s1 + 0x78]\n  7427: a4 = a4 + a0\n  7430: a5 = u64 [s1 + 0x70]\n  7433: a5 = a5 + a1\n  7436: a1 = a5 <u a1\n  7439: a4 = a4 + a1\n  7442: a2 = a4 ^ a0\n  7445: a0 = a4 <u a0\n  7448: a0 = a1 if a2 == 0\n  7451: a1 = u64 [s1 + 0x80]\n  7455: a1 = a1 + a3\n  7458: a2 = u64 [s1 + 0x88]\n  7462: t0 = t0 + a2\n  7465: a2 = a1 <u a3\n  7468: a2 = a2 + t0\n  7471: a0 = a0 + a1\n  7474: a1 = a0 <u a1\n  7477: a1 = a1 + a2\n  7480: a2 = s1 + 0x7ff\n  7484: a2 = a2 + 0xb9\n  7488: a3 = a2 + 0x200\n  7492: u64 [a3 + 0x8] = a5\n  7495: u64 [a3 + 0x10] = a4\n  7498: u64 [a3 + 0x18] = a0\n  7501: u64 [a3 + 0x20] = a1\n  7504: a1 = s1 + 0x7ff\n  7508: a1 = a1 + 0x2c1\n  7512: a0 = u64 [s1 + 0x128]\n  7516: ra = 200, jump @24\n      : @203 [@dyn 100] (gas: 3)\n  7522: a0 = s1 + 0x3a0\n  7526: a1 = 0x40\n  7529: ra = 202, jump @17\n      : @204 [@dyn 101] (gas: 6)\n  7535: a4 = s1 + 0x300\n  7539: a3 = u64 [a4 + 0xb8]\n  7543: a1 = u64 [a4 + 0xb0]\n  7547: a2 = u64 [a4 + 0xa8]\n  7551: a0 = u64 [a4 + 0xa0]\n  7555: t0 = 204, jump @1368\n      : @205 [@dyn 102] (gas: 1)\n  7561: jump @213 if a1 != 0\n      : @206 (gas: 11)\n  7565: a1 = u64 [s1 + 0x70]\n  7568: u64 [s1 + 0x380] = a1\n  7572: a1 = u64 [s1 + 0x78]\n  7575: u64 [s1 + 0x388] = a1\n  7579: a1 = u64 [s1 + 0x80]\n  7583: u64 [s1 + 0x390] = a1\n  7587: a1 = s1 + 0x380\n  7591: a2 = u64 [s1 + 0x88]\n  7595: u64 [s1 + 0x398] = a2\n  7599: u64 [s1 + 0x128] = a0\n  7603: ra = 206, jump @19\n      : @207 [@dyn 103] (gas: 6)\n  7609: a0 = u64 [s1 + 0x130]\n  7613: ra = 0xd0\n  7617: ecalli 3 // 'caller'\n  7619: a2 = u64 [s1 + 0x138]\n  7623: t0 = 0xd2\n  7627: jump @1352\n      : @208 [@dyn 104] (gas: 2)\n  7630: a2 = u64 [s1 + 0x138]\n  7634: t0 = 210, jump @1352\n      : @209 [@dyn 105] (gas: 28)\n  7640: t0 = a1 | a0\n  7643: a3 = a3 >> 0x20\n  7646: a2 = reverse a2\n  7648: a1 = a2 << 0x20\n  7651: a1 = a1 | a3\n  7654: a2 = a2 >> 0x20\n  7657: u64 [s1 + 824] = 0\n  7661: u64 [s1 + 856] = 0\n  7665: u64 [s1 + 848] = 0\n  7669: u64 [s1 + 840] = 0\n  7673: u64 [s1 + 832] = 0\n  7677: a3 = u64 [0x20000]\n  7682: a4 = u64 [0x20008]\n  7687: a5 = u64 [0x20010]\n  7692: a0 = u64 [0x20018]\n  7697: u64 [s1 + 0x378] = a3\n  7701: u64 [s1 + 0x370] = a4\n  7705: u64 [s1 + 0x368] = a5\n  7709: u64 [s1 + 0x360] = a0\n  7713: u64 [s1 + 0x330] = a2\n  7717: u64 [s1 + 0x328] = a1\n  7721: a1 = 0x20\n  7724: a2 = s1 + 0x360\n  7728: a3 = s1 + 0x340\n  7732: a4 = s1 + 0x320\n  7736: u64 [s1 + 0x320] = t0\n  7740: a0 = u64 [s1 + 0x128]\n  7744: ra = 212, jump @27\n      : @210 [@dyn 106] (gas: 3)\n  7750: a0 = s1 + 0x300\n  7754: a1 = 0x40\n  7757: ra = 214, jump @17\n      : @211 [@dyn 107] (gas: 6)\n  7763: a4 = s1 + 0x300\n  7767: a3 = u64 [a4 + 0x18]\n  7770: a1 = u64 [a4 + 0x10]\n  7773: a2 = u64 [a4 + 0x8]\n  7776: a0 = u64 [a4]\n  7778: t0 = 216, jump @1368\n      : @212 [@dyn 108] (gas: 1)\n  7784: jump @258 if a1 == 0\n      : @213 (gas: 1)\n  7788: trap\n      : @214 (gas: 6)\n  7789: a1 = 0x20270\n  7794: i32 a1 = a1 + 0\n  7796: a0 = 0x1\n  7799: a2 = 0\n  7801: ecalli 7 // 'seal_return'\n  7803: jump @218\n      : @215 (gas: 6)\n  7805: a1 = 0x20270\n  7810: i32 a1 = a1 + 0\n  7812: a0 = 0x1\n  7815: a2 = 0\n  7817: ecalli 7 // 'seal_return'\n  7819: jump @218\n      : @216 (gas: 6)\n  7821: a1 = 0x20270\n  7826: i32 a1 = a1 + 0\n  7828: a0 = 0x1\n  7831: a2 = 0\n  7833: ecalli 7 // 'seal_return'\n  7835: jump @218\n      : @217 (gas: 6)\n  7837: a1 = 0x20270\n  7842: i32 a1 = a1 + 0\n  7844: a0 = 0x1\n  7847: a2 = 0\n  7849: ecalli 7 // 'seal_return'\n  7851: fallthrough\n      : @218 (gas: 6)\n  7852: u64 [s1 + 368] = 0\n  7856: u64 [s1 + 360] = 0\n  7860: u64 [s1 + 352] = 0\n  7864: t0 = 0xda\n  7868: a0 = 0x4e487b7100000000\n  7878: fallthrough\n      : @219 [@dyn 109] (gas: 4)\n  7879: a1 = s1 + 0x160\n  7883: u64 [s1 + 0x178] = a0\n  7887: a0 = 0\n  7889: ra = 220, jump @19\n      : @220 [@dyn 110] (gas: 7)\n  7895: u64 [s1 + 344] = 0\n  7899: u64 [s1 + 336] = 0\n  7903: u64 [s1 + 320] = 0x41\n  7908: a0 = 0x4\n  7911: a1 = s1 + 0x140\n  7915: u64 [s1 + 328] = 0\n  7919: ra = 222, jump @19\n      : @221 [@dyn 111] (gas: 2)\n  7925: a1 = i32 [0x20264]\n  7930: jump @223 if a1 >u 63\n      : @222 (gas: 3)\n  7934: u32 [0x20264] = 0x40\n  7940: a1 = 0x20270\n  7945: jump @257\n      : @223 (gas: 2)\n  7948: a1 = 0x20270\n  7953: jump @257\n      : @224 (gas: 6)\n  7956: u64 [s1 + 432] = 0\n  7960: u64 [s1 + 424] = 0\n  7964: u64 [s1 + 416] = 0\n  7968: t0 = 0xe0\n  7972: a0 = 0x4e487b7100000000\n  7982: fallthrough\n      : @225 [@dyn 112] (gas: 4)\n  7983: a1 = s1 + 0x1a0\n  7987: u64 [s1 + 0x1b8] = a0\n  7991: a0 = 0\n  7993: ra = 226, jump @19\n      : @226 [@dyn 113] (gas: 7)\n  7999: u64 [s1 + 408] = 0\n  8003: u64 [s1 + 400] = 0\n  8007: u64 [s1 + 384] = 0x22\n  8012: a0 = 0x4\n  8015: a1 = s1 + 0x180\n  8019: u64 [s1 + 392] = 0\n  8023: ra = 228, jump @19\n      : @227 [@dyn 114] (gas: 2)\n  8029: a1 = i32 [0x20264]\n  8034: jump @229 if a1 >u 63\n      : @228 (gas: 3)\n  8038: u32 [0x20264] = 0x40\n  8044: a1 = 0x20270\n  8049: jump @257\n      : @229 (gas: 2)\n  8052: a1 = 0x20270\n  8057: jump @257\n      : @230 (gas: 6)\n  8060: u64 [s1 + 528] = 0\n  8064: u64 [s1 + 520] = 0\n  8068: u64 [s1 + 512] = 0\n  8072: t0 = 0xe6\n  8076: a0 = 0x4e487b7100000000\n  8086: fallthrough\n      : @231 [@dyn 115] (gas: 4)\n  8087: a1 = s1 + 0x200\n  8091: u64 [s1 + 0x218] = a0\n  8095: a0 = 0\n  8097: ra = 232, jump @19\n      : @232 [@dyn 116] (gas: 7)\n  8103: u64 [s1 + 504] = 0\n  8107: u64 [s1 + 496] = 0\n  8111: u64 [s1 + 480] = 0x41\n  8116: a0 = 0x4\n  8119: a1 = s1 + 0x1e0\n  8123: u64 [s1 + 488] = 0\n  8127: ra = 234, jump @19\n      : @233 [@dyn 117] (gas: 2)\n  8133: a1 = i32 [0x20264]\n  8138: jump @235 if a1 >u 63\n      : @234 (gas: 3)\n  8142: u32 [0x20264] = 0x40\n  8148: a1 = 0x20270\n  8153: jump @257\n      : @235 (gas: 2)\n  8156: a1 = 0x20270\n  8161: jump @257\n      : @236 (gas: 6)\n  8164: u64 [s1 + 592] = 0\n  8168: u64 [s1 + 584] = 0\n  8172: u64 [s1 + 576] = 0\n  8176: t0 = 0xec\n  8180: a0 = 0x4e487b7100000000\n  8190: fallthrough\n      : @237 [@dyn 118] (gas: 4)\n  8191: a1 = s1 + 0x240\n  8195: u64 [s1 + 0x258] = a0\n  8199: a0 = 0\n  8201: ra = 238, jump @19\n      : @238 [@dyn 119] (gas: 7)\n  8207: u64 [s1 + 568] = 0\n  8211: u64 [s1 + 560] = 0\n  8215: u64 [s1 + 544] = 0x22\n  8220: a0 = 0x4\n  8223: a1 = s1 + 0x220\n  8227: u64 [s1 + 552] = 0\n  8231: ra = 240, jump @19\n      : @239 [@dyn 120] (gas: 2)\n  8237: a1 = i32 [0x20264]\n  8242: jump @241 if a1 >u 63\n      : @240 (gas: 3)\n  8246: u32 [0x20264] = 0x40\n  8252: a1 = 0x20270\n  8257: jump @257\n      : @241 (gas: 2)\n  8260: a1 = 0x20270\n  8265: jump @257\n      : @242 (gas: 8)\n  8268: u64 [s1 + 688] = 0\n  8272: u64 [s1 + 680] = 0\n  8276: u64 [s1 + 672] = 0\n  8280: a0 = 0xec442f0500000000\n  8290: a1 = s1 + 0x2a0\n  8294: u64 [s1 + 0x2b8] = a0\n  8298: a0 = 0\n  8300: ra = 242, jump @19\n      : @243 [@dyn 121] (gas: 7)\n  8306: u64 [s1 + 664] = 0\n  8310: u64 [s1 + 656] = 0\n  8314: u64 [s1 + 648] = 0\n  8318: a0 = 0x4\n  8321: a1 = s1 + 0x280\n  8325: u64 [s1 + 640] = 0\n  8329: ra = 244, jump @19\n      : @244 [@dyn 122] (gas: 2)\n  8335: a1 = i32 [0x20264]\n  8340: jump @246 if a1 >u 63\n      : @245 (gas: 3)\n  8344: u32 [0x20264] = 0x40\n  8350: a1 = 0x20270\n  8355: jump @257\n      : @246 (gas: 2)\n  8358: a1 = 0x20270\n  8363: jump @257\n      : @247 (gas: 8)\n  8366: u64 [s1 + 1104] = 0\n  8370: u64 [s1 + 1096] = 0\n  8374: u64 [s1 + 1088] = 0\n  8378: a0 = 0xd93c066500000000\n  8388: a1 = s1 + 0x440\n  8392: u64 [s1 + 0x458] = a0\n  8396: a0 = 0\n  8398: ra = 246, jump @19\n      : @248 [@dyn 123] (gas: 2)\n  8404: a1 = i32 [0x20264]\n  8409: jump @250 if a1 >u 31\n      : @249 (gas: 2)\n  8413: u32 [0x20264] = 0x20\n  8419: fallthrough\n      : @250 (gas: 6)\n  8420: a1 = 0x20270\n  8425: i32 a1 = a1 + 0\n  8427: a0 = 0x1\n  8430: a2 = 0x4\n  8433: ecalli 7 // 'seal_return'\n  8435: fallthrough\n      : @251 (gas: 6)\n  8436: u64 [s1 + 752] = 0\n  8440: u64 [s1 + 744] = 0\n  8444: u64 [s1 + 736] = 0\n  8448: t0 = 0xf8\n  8452: a0 = 0x4e487b7100000000\n  8462: fallthrough\n      : @252 [@dyn 124] (gas: 4)\n  8463: a1 = s1 + 0x2e0\n  8467: u64 [s1 + 0x2f8] = a0\n  8471: a0 = 0\n  8473: ra = 250, jump @19\n      : @253 [@dyn 125] (gas: 7)\n  8479: u64 [s1 + 728] = 0\n  8483: u64 [s1 + 720] = 0\n  8487: u64 [s1 + 704] = 0x11\n  8492: a0 = 0x4\n  8495: a1 = s1 + 0x2c0\n  8499: u64 [s1 + 712] = 0\n  8503: ra = 252, jump @19\n      : @254 [@dyn 126] (gas: 2)\n  8509: a1 = i32 [0x20264]\n  8514: jump @256 if a1 >u 63\n      : @255 (gas: 3)\n  8518: u32 [0x20264] = 0x40\n  8524: a1 = 0x20270\n  8529: jump @257\n      : @256 (gas: 2)\n  8531: a1 = 0x20270\n  8536: fallthrough\n      : @257 (gas: 7)\n  8537: i32 a1 = a1 + 0\n  8539: a0 = 0x1\n  8542: a2 = 0x24\n  8545: ecalli 7 // 'seal_return'\n  8547: u64 [s1 + 0x138] = a0\n  8551: ra = 0xfe\n  8555: jump @33\n      : @258 (gas: 2)\n  8558: u64 [s1 + 0x138] = a0\n  8562: ra = 254, jump @33\n      : @259 [@dyn 127] (gas: 5)\n  8568: i32 a0 = a0 + 0\n  8570: a1 = 0\n  8572: a2 = 0\n  8574: ecalli 0 // 'call_data_copy'\n  8575: jump @15\n      : @260 (gas: 3)\n  8578: a0 = u64 [s1 + 0x138]\n  8582: a1 = 0\n  8584: ra = 256, jump @33\n      : @261 [@dyn 128] (gas: 5)\n  8590: i32 a1 = a0 + 0\n  8592: a0 = 0\n  8594: a2 = 0\n  8596: ecalli 7 // 'seal_return'\n  8598: jump @218\n      : @262 [@dyn 129] (gas: 4)\n  8601: a0 = 0x20260\n  8606: u64 [s1 + 0xb8] = a0\n  8610: a0 = i32 [0x20260]\n  8615: jump @264 if a0 >=u 4\n      : @263 (gas: 1)\n  8619: jump @822\n      : @264 (gas: 6)\n  8622: a0 = s1 + 0x1000\n  8626: i32 a0 = a0 + 0x520\n  8630: a1 = 0\n  8632: ra = 0x104\n  8636: ecalli 1 // 'call_data_load'\n  8638: fallthrough\n      : @265 [@dyn 130] (gas: 3)\n  8639: a2 = s1 + 0x1038\n  8643: a0 = i32 [a2 + 0x504]\n  8647: jump @267 if a0 != 2220280665\n      : @266 (gas: 1)\n  8654: jump @556\n      : @267 (gas: 1)\n  8657: jump @303 if a0 == 2446411860\n      : @268 (gas: 1)\n  8665: jump @270 if a0 != 2514000705\n      : @269 (gas: 1)\n  8672: jump @473\n      : @270 (gas: 1)\n  8675: jump @331 if a0 == 2719481311\n      : @271 (gas: 1)\n  8683: jump @273 if a0 != 2835717307\n      : @272 (gas: 1)\n  8690: jump @590\n      : @273 (gas: 1)\n  8693: jump @383 if a0 == 3577287571\n      : @274 (gas: 1)\n  8701: jump @343 if a0 == 3714247998\n      : @275 (gas: 1)\n  8709: jump @277 if a0 != 3862606313\n      : @276 (gas: 1)\n  8716: jump @617\n      : @277 (gas: 1)\n  8719: jump @394 if a0 == 117300739\n      : @278 (gas: 1)\n  8727: jump @280 if a0 != 157198259\n      : @279 (gas: 1)\n  8734: jump @624\n      : @280 (gas: 1)\n  8737: jump @282 if a0 != 404098525\n      : @281 (gas: 1)\n  8744: jump @527\n      : @282 (gas: 1)\n  8747: jump @284 if a0 != 599290589\n      : @283 (gas: 1)\n  8754: jump @604\n      : @284 (gas: 1)\n  8757: jump @286 if a0 != 613063843\n      : @285 (gas: 1)\n  8764: jump @576\n      : @286 (gas: 1)\n  8767: jump @371 if a0 == 826074471\n      : @287 (gas: 1)\n  8775: jump @289 if a0 != 1061922874\n      : @288 (gas: 1)\n  8782: jump @509\n      : @289 (gas: 1)\n  8785: jump @426 if a0 == 1086394137\n      : @290 (gas: 1)\n  8793: jump @292 if a0 == 1553423035\n      : @291 (gas: 1)\n  8800: jump @537\n      : @292 (gas: 9)\n  8803: a0 = s1 + 0x1838\n  8807: u64 [a0 + 160] = 0\n  8811: u64 [a0 + 152] = 0\n  8815: u64 [a0 + 144] = 0\n  8819: u64 [a0 + 136] = 0\n  8823: a0 = s1 + 0x2000\n  8827: i32 a0 = a0 + 0xfffffffffffff8c0\n  8831: ecalli 10 // 'value_transferred'\n  8833: fallthrough\n      : @293 (gas: 9)\n  8834: a3 = s1 + 0x1838\n  8838: a0 = u64 [a3 + 0x98]\n  8842: a1 = u64 [a3 + 0xa0]\n  8846: a2 = u64 [a3 + 0x90]\n  8850: a3 = u64 [a3 + 0x88]\n  8854: a1 = a1 | a2\n  8857: a0 = a0 | a3\n  8860: a0 = a0 | a1\n  8863: jump @295 if a0 == 0\n      : @294 (gas: 1)\n  8866: jump @680\n      : @295 (gas: 3)\n  8869: a0 = u64 [s1 + 0xb8]\n  8873: a0 = i32 [a0]\n  8875: jump @297 if a0 >u 3\n      : @296 (gas: 1)\n  8879: jump @681\n      : @297 (gas: 9)\n  8882: a1 = s1 + 0x1838\n  8886: u64 [a1 + 192] = 0\n  8890: u64 [a1 + 184] = 0\n  8894: u64 [a1 + 176] = 0\n  8898: u64 [a1 + 168] = 0x5\n  8903: a0 = s1 + 0x7ff\n  8907: a0 = a0 + 0x481\n  8911: a1 = s1 + 0x18e0\n  8915: ra = 262, jump @21\n      : @298 [@dyn 131] (gas: 8)\n  8921: a0 = s1 + 0x7ff\n  8925: a0 = a0 + 0x39\n  8928: a0 = u64 [a0 + 0x448]\n  8932: u64 [s1 + 0xb8] = a0\n  8936: a0 = s1 + 0x7ff\n  8940: a0 = a0 + 0x461\n  8944: a1 = 0x40\n  8947: ra = 264, jump @17\n      : @299 [@dyn 132] (gas: 8)\n  8953: a3 = s1 + 0x7ff\n  8957: a3 = a3 + 0x39\n  8960: a5 = a3 + 0x400\n  8964: a4 = u64 [a5 + 0x40]\n  8967: a1 = u64 [a5 + 0x38]\n  8970: a2 = u64 [a5 + 0x30]\n  8973: a0 = u64 [a5 + 0x28]\n  8976: t0 = 266, jump @1367\n      : @300 [@dyn 133] (gas: 1)\n  8982: jump @302 if a1 == 0\n      : @301 (gas: 1)\n  8985: jump @653\n      : @302 (gas: 11)\n  8988: a1 = u8 [s1 + 0xb8]\n  8992: a1 = a1 >u 0\n  8994: u64 [a3 + 1056] = 0\n  8998: u64 [a3 + 1048] = 0\n  9002: u64 [a3 + 0x408] = a1\n  9006: a1 = s1 + 0x7ff\n  9010: a1 = a1 + 0x441\n  9014: u64 [a3 + 1040] = 0\n  9018: u64 [s1 + 0xb8] = a0\n  9022: ra = 0x2c6\n  9026: jump @19\n      : @303 (gas: 11)\n  9029: a0 = s1 + 0x1838\n  9033: u64 [a0 + 480] = 0\n  9037: u64 [a0 + 472] = 0\n  9041: u64 [a0 + 464] = 0\n  9045: u64 [a0 + 456] = 0\n  9049: a0 = s1 + 0x2000\n  9053: i32 a0 = a0 + 0xfffffffffffffa00\n  9057: ra = 0x10c\n  9061: ecalli 10 // 'value_transferred'\n  9063: t0 = 0x10e\n  9067: jump @1397\n      : @304 [@dyn 134] (gas: 1)\n  9070: t0 = 270, jump @1397\n      : @305 [@dyn 135] (gas: 1)\n  9076: t0 = 272, jump @1416\n      : @306 [@dyn 136] (gas: 1)\n  9082: jump @308 if a0 == 0\n      : @307 (gas: 1)\n  9085: jump @682\n      : @308 (gas: 4)\n  9088: a0 = u64 [s1 + 0xb8]\n  9092: a0 = i32 [a0]\n  9094: a1 = 0x43\n  9097: jump @310 if a1 <u a0\n      : @309 (gas: 1)\n  9100: jump @683\n      : @310 (gas: 5)\n  9103: a0 = s1 + 0x7ff\n  9107: a0 = a0 + 0x781\n  9111: ra = 0x112\n  9115: t0 = 0x402\n  9119: jump @1417\n      : @311 [@dyn 137] (gas: 16)\n  9122: a1 = s1 + 0x7ff\n  9126: a1 = a1 + 0x39\n  9129: a2 = a1 + 0x700\n  9133: a0 = u64 [a2 + 0x58]\n  9136: u64 [s1 + 0xa8] = a0\n  9140: a0 = u64 [a2 + 0x50]\n  9143: u64 [s1 + 0xb0] = a0\n  9147: a0 = u64 [a2 + 0x48]\n  9150: u64 [s1 + 0xb8] = a0\n  9154: a0 = s1 + 0x2000\n  9158: i32 a0 = a0 + 0xfffffffffffffa20\n  9162: a1 = 0x4\n  9165: ra = 0x114\n  9169: ecalli 1 // 'call_data_load'\n  9171: t0 = 0x116\n  9175: jump @1397\n      : @312 [@dyn 138] (gas: 1)\n  9178: t0 = 278, jump @1397\n      : @313 [@dyn 139] (gas: 15)\n  9184: a0 = u64 [a4 + 0xe8]\n  9188: a1 = u64 [a4 + 0xf0]\n  9192: a2 = u64 [a4 + 0xf8]\n  9196: a3 = u64 [a3 + 0x200]\n  9200: a4 = s1 + 0x7ff\n  9204: a4 = a4 + 0x39\n  9207: a5 = a4 + 0x700\n  9211: u64 [a5 + 0x40] = a3\n  9214: u64 [a5 + 0x38] = a2\n  9217: u64 [a5 + 0x30] = a1\n  9220: a1 = s1 + 0x7ff\n  9224: a1 = a1 + 0x761\n  9228: u64 [a5 + 0x28] = a0\n  9231: a0 = 0\n  9233: ra = 280, jump @19\n      : @314 [@dyn 140] (gas: 11)\n  9239: a1 = s1 + 0x7ff\n  9243: a1 = a1 + 0x39\n  9246: u64 [a1 + 1824] = 0\n  9250: u64 [a1 + 1816] = 0\n  9254: u64 [a1 + 1800] = 0x6\n  9259: a2 = a1\n  9261: a0 = 0x20\n  9264: a1 = s1 + 0x7ff\n  9268: a1 = a1 + 0x741\n  9272: u64 [a2 + 1808] = 0\n  9276: ra = 282, jump @19\n      : @315 [@dyn 141] (gas: 3)\n  9282: a1 = 0x20264\n  9287: a0 = i32 [0x20264]\n  9292: jump @317 if a0 >u 63\n      : @316 (gas: 2)\n  9296: u32 [0x20264] = 0x40\n  9302: fallthrough\n      : @317 (gas: 15)\n  9303: a0 = sp + 0xffffffffffffffe0\n  9306: a2 = a0 & 0xffffffffffffffe0\n  9309: u64 [s1 + 0x90] = a2\n  9313: sp = a2\n  9315: a0 = 0x20270\n  9320: i32 a0 = a0 + 0\n  9322: i32 a2 = a2 + 0\n  9324: u64 [s1 + 0xa0] = a1\n  9328: a1 = 0x40\n  9331: u64 [s1 + 0x98] = a0\n  9335: ra = 0x11c\n  9339: ecalli 6 // 'hash_keccak_256'\n  9341: a3 = u64 [s1 + 0x90]\n  9345: t0 = 0x11e\n  9349: jump @1405\n      : @318 [@dyn 142] (gas: 2)\n  9352: a3 = u64 [s1 + 0x90]\n  9356: t0 = 286, jump @1405\n      : @319 [@dyn 143] (gas: 27)\n  9362: u64 [s1 + 0x88] = a0\n  9366: a0 = reverse a1\n  9368: u64 [s1 + 0x80] = a0\n  9372: a0 = reverse a2\n  9374: u64 [s1 + 0x78] = a0\n  9377: a0 = reverse a3\n  9379: u64 [s1 + 0x70] = a0\n  9382: a0 = sp + 0xffffffffffffffe0\n  9385: a0 = a0 & 0xffffffffffffffe0\n  9388: u64 [s1 + 0x90] = a0\n  9392: sp = a0\n  9394: a0 = u64 [s1 + 0xa8]\n  9398: a0 = a0 << 0x20\n  9401: a0 = a0 >> 0x20\n  9404: a2 = s1 + 0x7ff\n  9408: a2 = a2 + 0x39\n  9411: u64 [a2 + 1792] = 0\n  9415: a3 = a2 + 0x600\n  9419: u64 [a3 + 0xf8] = a0\n  9423: a0 = u64 [s1 + 0xb0]\n  9427: u64 [a3 + 0xf0] = a0\n  9431: a1 = s1 + 0x7ff\n  9435: a1 = a1 + 0x721\n  9439: a0 = u64 [s1 + 0xb8]\n  9443: u64 [a3 + 0xe8] = a0\n  9447: a0 = 0\n  9449: ra = 288, jump @19\n      : @320 [@dyn 144] (gas: 16)\n  9455: a0 = u64 [s1 + 0x70]\n  9458: a1 = s1 + 0x7ff\n  9462: a1 = a1 + 0x39\n  9465: a2 = a1 + 0x600\n  9469: u64 [a2 + 0xe0] = a0\n  9473: a0 = u64 [s1 + 0x78]\n  9476: u64 [a2 + 0xd8] = a0\n  9480: a0 = u64 [s1 + 0x80]\n  9484: u64 [a2 + 0xd0] = a0\n  9488: a3 = a1\n  9490: a0 = 0x20\n  9493: a1 = s1 + 0x7ff\n  9497: a1 = a1 + 0x701\n  9501: a2 = u64 [s1 + 0x88]\n  9505: u64 [a3 + 0x6c8] = a2\n  9509: ra = 290, jump @19\n      : @321 [@dyn 145] (gas: 3)\n  9515: a1 = u64 [s1 + 0xa0]\n  9519: a0 = i32 [a1]\n  9521: jump @323 if a0 >u 63\n      : @322 (gas: 2)\n  9525: u32 [a1 + 0] = 0x40\n  9528: fallthrough\n      : @323 (gas: 12)\n  9529: a0 = sp + 0xffffffffffffffe0\n  9532: a0 = a0 & 0xffffffffffffffe0\n  9535: u64 [s1 + 0xb8] = a0\n  9539: sp = a0\n  9541: i32 a2 = a0 + 0\n  9543: a1 = 0x40\n  9546: a0 = u64 [s1 + 0x98]\n  9550: ra = 0x124\n  9554: ecalli 6 // 'hash_keccak_256'\n  9556: a3 = u64 [s1 + 0xb8]\n  9560: t0 = 0x126\n  9564: jump @1356\n      : @324 [@dyn 146] (gas: 2)\n  9567: a3 = u64 [s1 + 0xb8]\n  9571: t0 = 294, jump @1356\n      : @325 [@dyn 147] (gas: 8)\n  9577: a1 = u64 [s1 + 0x90]\n  9581: u64 [a1 + 0x18] = a3\n  9584: u64 [a1 + 0x10] = a2\n  9587: u64 [a1 + 0x8] = a4\n  9590: u64 [a1] = a0\n  9592: a0 = s1 + 0x7ff\n  9596: a0 = a0 + 0x6e1\n  9600: ra = 296, jump @21\n      : @326 [@dyn 148] (gas: 8)\n  9606: a0 = s1 + 0x7ff\n  9610: a0 = a0 + 0x39\n  9613: a0 = u64 [a0 + 0x6a8]\n  9617: u64 [s1 + 0xb8] = a0\n  9621: a0 = s1 + 0x7ff\n  9625: a0 = a0 + 0x6c1\n  9629: a1 = 0x40\n  9632: ra = 298, jump @17\n      : @327 [@dyn 149] (gas: 8)\n  9638: a3 = s1 + 0x7ff\n  9642: a3 = a3 + 0x39\n  9645: a5 = a3 + 0x600\n  9649: a4 = u64 [a5 + 0xa0]\n  9653: a1 = u64 [a5 + 0x98]\n  9657: a2 = u64 [a5 + 0x90]\n  9661: a0 = u64 [a5 + 0x88]\n  9665: t0 = 300, jump @1367\n      : @328 [@dyn 150] (gas: 1)\n  9671: jump @330 if a1 == 0\n      : @329 (gas: 1)\n  9674: jump @653\n      : @330 (gas: 11)\n  9677: a1 = u8 [s1 + 0xb8]\n  9681: a1 = a1 >u 0\n  9683: u64 [a3 + 1664] = 0\n  9687: u64 [a3 + 1656] = 0\n  9691: u64 [a3 + 0x668] = a1\n  9695: a1 = s1 + 0x7ff\n  9699: a1 = a1 + 0x6a1\n  9703: u64 [a3 + 1648] = 0\n  9707: u64 [s1 + 0xb8] = a0\n  9711: ra = 0x2c6\n  9715: jump @19\n      : @331 (gas: 11)\n  9718: a0 = s1 + 0x1838\n  9722: u64 [a0 + 608] = 0\n  9726: u64 [a0 + 600] = 0\n  9730: u64 [a0 + 592] = 0\n  9734: u64 [a0 + 584] = 0\n  9738: a0 = s1 + 0x2000\n  9742: i32 a0 = a0 + 0xfffffffffffffa80\n  9746: ra = 0x12e\n  9750: ecalli 10 // 'value_transferred'\n  9752: t0 = 0x130\n  9756: jump @1384\n      : @332 [@dyn 151] (gas: 1)\n  9759: t0 = 304, jump @1384\n      : @333 [@dyn 152] (gas: 1)\n  9765: t0 = 306, jump @1396\n      : @334 [@dyn 153] (gas: 1)\n  9771: jump @336 if a0 == 0\n      : @335 (gas: 1)\n  9774: jump @684\n      : @336 (gas: 3)\n  9777: a0 = u64 [s1 + 0xb8]\n  9781: a0 = i32 [a0]\n  9783: jump @338 if a0 >u 3\n      : @337 (gas: 1)\n  9787: jump @685\n      : @338 (gas: 3)\n  9790: a0 = s1 + 0x11a0\n  9794: a1 = 0x40\n  9797: ra = 308, jump @17\n      : @339 [@dyn 154] (gas: 7)\n  9803: a3 = s1 + 0x1038\n  9807: a5 = a3 + 0x100\n  9811: a4 = u64 [a5 + 0x80]\n  9815: a1 = u64 [a5 + 0x78]\n  9818: a2 = u64 [a5 + 0x70]\n  9821: a0 = u64 [a5 + 0x68]\n  9824: t0 = 310, jump @1367\n      : @340 [@dyn 155] (gas: 1)\n  9830: jump @342 if a1 == 0\n      : @341 (gas: 1)\n  9833: jump @653\n      : @342 (gas: 8)\n  9836: u64 [a3 + 352] = 0\n  9840: u64 [a3 + 344] = 0\n  9844: u64 [a3 + 336] = 0\n  9848: a1 = s1 + 0x1180\n  9852: u64 [a3 + 328] = 0\n  9856: u64 [s1 + 0xb8] = a0\n  9860: ra = 0x2c6\n  9864: jump @19\n      : @343 (gas: 10)\n  9867: a0 = s1 + 0x1838\n  9871: u64 [a0 + 800] = 0\n  9875: u64 [a0 + 792] = 0\n  9879: u64 [a0 + 784] = 0\n  9883: u64 [a0 + 776] = 0\n  9887: a0 = s1 + 0x2000\n  9891: i32 a0 = a0 + 0xfffffffffffffb40\n  9895: ra = 0x138\n  9899: ecalli 10 // 'value_transferred'\n  9901: fallthrough\n      : @344 [@dyn 156] (gas: 3)\n  9902: a3 = s1 + 0x1838\n  9906: a4 = a3 + 0x300\n  9910: t0 = 314, jump @1385\n      : @345 [@dyn 157] (gas: 1)\n  9916: jump @347 if a0 == 0\n      : @346 (gas: 1)\n  9919: jump @686\n      : @347 (gas: 4)\n  9922: a0 = u64 [s1 + 0xb8]\n  9926: a0 = i32 [a0]\n  9928: a1 = 0x43\n  9931: jump @349 if a1 <u a0\n      : @348 (gas: 1)\n  9934: jump @687\n      : @349 (gas: 6)\n  9937: a0 = 0xffffffff\n  9947: u64 [s1 + 0xb8] = a0\n  9951: a0 = s1 + 0x14a0\n  9955: ra = 0x13c\n  9959: t0 = 0x3f8\n  9963: jump @1417\n      : @350 [@dyn 158] (gas: 11)\n  9966: a1 = s1 + 0x1038\n  9970: a0 = u64 [a1 + 0x468]\n  9974: u64 [s1 + 0xb0] = a0\n  9978: a0 = u64 [a1 + 0x470]\n  9982: u64 [s1 + 0x90] = a0\n  9986: a0 = u32 [a1 + 0x478]\n  9990: u64 [s1 + 0x88] = a0\n  9994: a0 = s1 + 0x1480\n  9998: ra = 0x13e\n 10002: t0 = 0x402\n 10006: jump @1417\n      : @351 [@dyn 159] (gas: 3)\n 10009: t0 = 0x140\n 10013: a1 = s1 + 0x1038\n 10017: fallthrough\n      : @352 [@dyn 160] (gas: 18)\n 10018: a2 = a1 + 0x400\n 10022: a0 = u64 [a2 + 0x58]\n 10025: u64 [s1 + 0xa8] = a0\n 10029: a0 = u64 [a2 + 0x50]\n 10032: u64 [s1 + 0xa0] = a0\n 10036: a0 = u64 [a2 + 0x48]\n 10039: u64 [s1 + 0x98] = a0\n 10043: u64 [a1 + 1088] = 0\n 10047: a0 = u64 [s1 + 0x88]\n 10051: u64 [a2 + 0x38] = a0\n 10054: a0 = u64 [s1 + 0x90]\n 10058: u64 [a2 + 0x30] = a0\n 10061: a2 = a1\n 10063: a1 = s1 + 0x1460\n 10067: a0 = u64 [s1 + 0xb0]\n 10071: u64 [a2 + 0x428] = a0\n 10075: a0 = 0\n 10077: ra = 322, jump @19\n      : @353 [@dyn 161] (gas: 3)\n 10083: t0 = 0x144\n 10087: a1 = s1 + 0x1038\n 10091: fallthrough\n      : @354 [@dyn 162] (gas: 8)\n 10092: u64 [a1 + 1056] = 0\n 10096: u64 [a1 + 1048] = 0\n 10100: u64 [a1 + 1032] = 0x1\n 10105: a2 = a1\n 10107: a0 = 0x20\n 10110: a1 = s1 + 0x1440\n 10114: u64 [a2 + 1040] = 0\n 10118: ra = 326, jump @19\n      : @355 [@dyn 163] (gas: 3)\n 10124: a1 = 0x20264\n 10129: a0 = i32 [0x20264]\n 10134: jump @357 if a0 >u 63\n      : @356 (gas: 2)\n 10138: u32 [0x20264] = 0x40\n 10144: fallthrough\n      : @357 (gas: 15)\n 10145: a0 = sp + 0xffffffffffffffe0\n 10148: a2 = a0 & 0xffffffffffffffe0\n 10151: u64 [s1 + 0x88] = a2\n 10155: sp = a2\n 10157: a0 = 0x20270\n 10162: i32 a0 = a0 + 0\n 10164: i32 a2 = a2 + 0\n 10166: u64 [s1 + 0xb0] = a1\n 10170: a1 = 0x40\n 10173: u64 [s1 + 0x90] = a0\n 10177: ra = 0x148\n 10181: ecalli 6 // 'hash_keccak_256'\n 10183: a3 = u64 [s1 + 0x88]\n 10187: t0 = 0x14a\n 10191: jump @1405\n      : @358 [@dyn 164] (gas: 2)\n 10194: a3 = u64 [s1 + 0x88]\n 10198: t0 = 330, jump @1405\n      : @359 [@dyn 165] (gas: 27)\n 10204: u64 [s1 + 0x80] = a0\n 10208: a0 = reverse a1\n 10210: u64 [s1 + 0x78] = a0\n 10213: a0 = reverse a2\n 10215: u64 [s1 + 0x70] = a0\n 10218: a0 = reverse a3\n 10220: u64 [s1 + 0x68] = a0\n 10223: a0 = sp + 0xffffffffffffffe0\n 10226: a0 = a0 & 0xffffffffffffffe0\n 10229: u64 [s1 + 0x88] = a0\n 10233: sp = a0\n 10235: a0 = u64 [s1 + 0x98]\n 10239: a0 = a0 & 0xffffffffffffffff\n 10242: a2 = u64 [s1 + 0xa0]\n 10246: a1 = a2 & 0xffffffffffffffff\n 10249: a2 = u64 [s1 + 0xb8]\n 10253: a3 = u64 [s1 + 0xa8]\n 10257: a2 = a2 & a3\n 10260: a3 = s1 + 0x1038\n 10264: u64 [a3 + 1024] = 0\n 10268: a4 = a3 + 0x300\n 10272: u64 [a4 + 0xf8] = a2\n 10276: u64 [a4 + 0xf0] = a1\n 10280: a1 = s1 + 0x1420\n 10284: u64 [a4 + 0xe8] = a0\n 10288: a0 = 0\n 10290: ra = 332, jump @19\n      : @360 [@dyn 166] (gas: 14)\n 10296: a0 = u64 [s1 + 0x68]\n 10299: a1 = s1 + 0x1038\n 10303: a2 = a1 + 0x300\n 10307: u64 [a2 + 0xe0] = a0\n 10311: a0 = u64 [s1 + 0x70]\n 10314: u64 [a2 + 0xd8] = a0\n 10318: a0 = u64 [s1 + 0x78]\n 10321: u64 [a2 + 0xd0] = a0\n 10325: a3 = a1\n 10327: a0 = 0x20\n 10330: a1 = s1 + 0x1400\n 10334: a2 = u64 [s1 + 0x80]\n 10338: u64 [a3 + 0x3c8] = a2\n 10342: ra = 334, jump @19\n      : @361 [@dyn 167] (gas: 3)\n 10348: a1 = u64 [s1 + 0xb0]\n 10352: a0 = i32 [a1]\n 10354: jump @363 if a0 >u 63\n      : @362 (gas: 2)\n 10358: u32 [a1 + 0] = 0x40\n 10361: fallthrough\n      : @363 (gas: 12)\n 10362: a0 = sp + 0xffffffffffffffe0\n 10365: a0 = a0 & 0xffffffffffffffe0\n 10368: u64 [s1 + 0xb8] = a0\n 10372: sp = a0\n 10374: i32 a2 = a0 + 0\n 10376: a1 = 0x40\n 10379: a0 = u64 [s1 + 0x90]\n 10383: ra = 0x150\n 10387: ecalli 6 // 'hash_keccak_256'\n 10389: a3 = u64 [s1 + 0xb8]\n 10393: t0 = 0x152\n 10397: jump @1356\n      : @364 [@dyn 168] (gas: 2)\n 10400: a3 = u64 [s1 + 0xb8]\n 10404: t0 = 338, jump @1356\n      : @365 [@dyn 169] (gas: 7)\n 10410: a1 = u64 [s1 + 0x88]\n 10414: u64 [a1 + 0x18] = a3\n 10417: u64 [a1 + 0x10] = a2\n 10420: u64 [a1 + 0x8] = a4\n 10423: u64 [a1] = a0\n 10425: a0 = s1 + 0x13e0\n 10429: ra = 340, jump @21\n      : @366 [@dyn 170] (gas: 13)\n 10435: a1 = s1 + 0x1038\n 10439: a2 = a1 + 0x300\n 10443: a0 = u64 [a2 + 0xc0]\n 10447: u64 [s1 + 0xb8] = a0\n 10451: a0 = u64 [a2 + 0xb8]\n 10455: u64 [s1 + 0xb0] = a0\n 10459: a0 = u64 [a2 + 0xb0]\n 10463: u64 [s1 + 0xa8] = a0\n 10467: a0 = u64 [a2 + 0xa8]\n 10471: u64 [s1 + 0xa0] = a0\n 10475: a0 = s1 + 0x13c0\n 10479: a1 = 0x40\n 10482: ra = 342, jump @17\n      : @367 [@dyn 171] (gas: 3)\n 10488: a3 = s1 + 0x1038\n 10492: a5 = a3 + 0x300\n 10496: t0 = 344, jump @1408\n      : @368 [@dyn 172] (gas: 1)\n 10502: jump @370 if a0 == 0\n      : @369 (gas: 1)\n 10505: jump @653\n      : @370 (gas: 14)\n 10508: a0 = u64 [s1 + 0xa0]\n 10512: a2 = a3 + 0x300\n 10516: u64 [a2 + 0x68] = a0\n 10519: a0 = u64 [s1 + 0xa8]\n 10523: u64 [a2 + 0x70] = a0\n 10526: a0 = u64 [s1 + 0xb0]\n 10530: u64 [a2 + 0x78] = a0\n 10533: a1 = s1 + 0x13a0\n 10537: a0 = u64 [s1 + 0xb8]\n 10541: u64 [a2 + 0x80] = a0\n 10545: a0 = a4\n 10547: u64 [s1 + 0xb8] = a4\n 10551: ra = 0x2c6\n 10555: jump @19\n      : @371 (gas: 10)\n 10558: u64 [a2 + 1760] = 0\n 10562: u64 [a2 + 1752] = 0\n 10566: u64 [a2 + 1744] = 0\n 10570: u64 [a2 + 1736] = 0\n 10574: a0 = s1 + 0x1000\n 10578: i32 a0 = a0 + 0x700\n 10582: ra = 0x15a\n 10586: ecalli 10 // 'value_transferred'\n 10588: t0 = 0x15c\n 10592: jump @1378\n      : @372 [@dyn 173] (gas: 1)\n 10595: t0 = 348, jump @1378\n      : @373 [@dyn 174] (gas: 1)\n 10601: t0 = 350, jump @1416\n      : @374 [@dyn 175] (gas: 1)\n 10607: jump @376 if a0 == 0\n      : @375 (gas: 1)\n 10610: jump @688\n      : @376 (gas: 3)\n 10613: a0 = u64 [s1 + 0xb8]\n 10617: a0 = i32 [a0]\n 10619: jump @378 if a0 >u 3\n      : @377 (gas: 1)\n 10623: jump @689\n      : @378 (gas: 3)\n 10626: a0 = s1 + 0x7e0\n 10630: a1 = 0x40\n 10633: ra = 352, jump @17\n      : @379 [@dyn 176] (gas: 6)\n 10639: a4 = s1 + 0x700\n 10643: a3 = u64 [a4 + 0xf8]\n 10647: a1 = u64 [a4 + 0xf0]\n 10651: a2 = u64 [a4 + 0xe8]\n 10655: a0 = u64 [a4 + 0xe0]\n 10659: t0 = 354, jump @1368\n      : @380 [@dyn 177] (gas: 1)\n 10665: jump @382 if a1 == 0\n      : @381 (gas: 1)\n 10668: jump @653\n      : @382 (gas: 8)\n 10671: u64 [s1 + 2008] = 0\n 10675: u64 [s1 + 2000] = 0\n 10679: u64 [s1 + 1992] = 0\n 10683: a1 = s1 + 0x7c0\n 10687: u64 [s1 + 1984] = 0x12\n 10692: u64 [s1 + 0xb8] = a0\n 10696: ra = 0x2c6\n 10700: jump @19\n      : @383 (gas: 11)\n 10703: a0 = s1 + 0x1838\n 10707: u64 [a0 + 704] = 0\n 10711: u64 [a0 + 696] = 0\n 10715: u64 [a0 + 688] = 0\n 10719: u64 [a0 + 680] = 0\n 10723: a0 = s1 + 0x2000\n 10727: i32 a0 = a0 + 0xfffffffffffffae0\n 10731: ra = 0x164\n 10735: ecalli 10 // 'value_transferred'\n 10737: t0 = 0x166\n 10741: jump @1384\n      : @384 [@dyn 178] (gas: 1)\n 10744: t0 = 358, jump @1384\n      : @385 [@dyn 179] (gas: 8)\n 10750: a0 = u64 [a4 + 0xb8]\n 10754: a1 = u64 [a4 + 0xc0]\n 10758: a2 = u64 [a4 + 0xb0]\n 10762: a3 = u64 [a4 + 0xa8]\n 10766: a1 = a1 | a2\n 10769: a0 = a0 | a3\n 10772: a0 = a0 | a1\n 10775: jump @387 if a0 == 0\n      : @386 (gas: 1)\n 10778: jump @690\n      : @387 (gas: 3)\n 10781: a0 = u64 [s1 + 0xb8]\n 10785: a0 = i32 [a0]\n 10787: jump @389 if a0 >u 3\n      : @388 (gas: 1)\n 10791: jump @691\n      : @389 (gas: 3)\n 10794: a0 = s1 + 0x12a0\n 10798: a1 = 0x40\n 10801: ra = 360, jump @17\n      : @390 [@dyn 180] (gas: 7)\n 10807: a3 = s1 + 0x1038\n 10811: a5 = a3 + 0x200\n 10815: a4 = u64 [a5 + 0x80]\n 10819: a1 = u64 [a5 + 0x78]\n 10822: a2 = u64 [a5 + 0x70]\n 10825: a0 = u64 [a5 + 0x68]\n 10828: t0 = 362, jump @1367\n      : @391 [@dyn 181] (gas: 1)\n 10834: jump @393 if a1 == 0\n      : @392 (gas: 1)\n 10837: jump @653\n      : @393 (gas: 13)\n 10840: a1 = u64 [0x20040]\n 10845: a5 = a3 + 0x200\n 10849: u64 [a5 + 0x60] = a1\n 10852: a4 = u64 [0x20048]\n 10857: a1 = u64 [0x20050]\n 10862: a2 = u64 [0x20058]\n 10867: u64 [a5 + 0x58] = a4\n 10870: u64 [a5 + 0x50] = a1\n 10873: a1 = s1 + 0x1280\n 10877: u64 [a5 + 0x48] = a2\n 10880: u64 [s1 + 0xb8] = a0\n 10884: ra = 0x2c6\n 10888: jump @19\n      : @394 (gas: 10)\n 10891: u64 [a2 + 1376] = 0\n 10895: u64 [a2 + 1368] = 0\n 10899: u64 [a2 + 1360] = 0\n 10903: u64 [a2 + 1352] = 0\n 10907: a0 = s1 + 0x1000\n 10911: i32 a0 = a0 + 0x580\n 10915: ra = 0x16c\n 10919: ecalli 10 // 'value_transferred'\n 10921: t0 = 0x16e\n 10925: jump @1422\n      : @395 [@dyn 182] (gas: 1)\n 10928: t0 = 366, jump @1422\n      : @396 [@dyn 183] (gas: 1)\n 10934: t0 = 368, jump @1396\n      : @397 [@dyn 184] (gas: 1)\n 10940: jump @399 if a0 == 0\n      : @398 (gas: 1)\n 10943: jump @692\n      : @399 (gas: 3)\n 10946: a0 = u64 [s1 + 0xb8]\n 10950: a0 = i32 [a0]\n 10952: jump @401 if a0 >u 3\n      : @400 (gas: 1)\n 10956: jump @693\n      : @401 (gas: 3)\n 10959: a0 = s1 + 0x2a0\n 10963: a1 = 0x40\n 10966: ra = 370, jump @17\n      : @402 [@dyn 185] (gas: 16)\n 10972: a0 = u64 [s1 + 0x2b8]\n 10976: u64 [s1 + 0x18] = a0\n 10979: a0 = u64 [s1 + 0x2b0]\n 10983: u64 [s1 + 0x28] = a0\n 10986: a0 = u64 [s1 + 0x2a8]\n 10990: u64 [s1 + 0x20] = a0\n 10993: a0 = u64 [s1 + 0x2a0]\n 10997: u64 [s1 + 0x30] = a0\n 11000: a0 = s1 + 0x1038\n 11004: u64 [a0 + 1408] = 0\n 11008: u64 [a0 + 1400] = 0\n 11012: u64 [a0 + 1392] = 0\n 11016: u64 [a0 + 1384] = 0x3\n 11021: a0 = s1 + 0x280\n 11025: a1 = s1 + 0x15a0\n 11029: ra = 372, jump @21\n      : @403 [@dyn 186] (gas: 34)\n 11035: a2 = u64 [s1 + 0x290]\n 11039: t2 = u64 [s1 + 0x288]\n 11043: t0 = u64 [s1 + 0x298]\n 11047: a5 = u64 [s1 + 0x280]\n 11051: a0 = a2 << 0x3f\n 11054: a1 = t2 >> 0x1\n 11057: a0 = a0 | a1\n 11060: a1 = t0 << 0x3f\n 11063: u64 [s1 + 0xb0] = a2\n 11067: a2 = a2 >> 0x1\n 11070: a1 = a1 | a2\n 11073: a2 = t2 << 0x3f\n 11076: a3 = a5 >> 0x1\n 11079: a4 = a3 | a2\n 11082: a2 = t0 >> 0x1\n 11085: u64 [s1 + 0xa8] = a5\n 11089: a5 = a5 & 0x1\n 11092: a3 = -a5\n 11094: a1 = a1 & a3\n 11097: t1 = a3 & a0\n 11100: a2 = a2 & a3\n 11103: ra = a4 & 0x7f\n 11106: a4 = ra if a5 == 0\n 11109: u64 [s1 + 0x70] = a4\n 11112: a0 = a4 <u 0x20\n 11115: u64 [s1 + 0x60] = t1\n 11118: a0 = 0 if t1 != 0\n 11120: u64 [s1 + 0x68] = a1\n 11123: u64 [s1 + 0x58] = a2\n 11126: a1 = a1 | a2\n 11129: a0 = 0 if a1 != 0\n 11131: u64 [s1 + 0xb8] = a5\n 11135: a1 = a5 <u 0x1\n 11138: jump @405 if a1 == a0\n      : @404 (gas: 1)\n 11141: jump @694\n      : @405 (gas: 12)\n 11144: a2 = u64 [s1 + 0x28]\n 11147: a4 = u64 [s1 + 0x30]\n 11150: a0 = a4 | a2\n 11153: a1 = u64 [s1 + 0x18]\n 11156: a3 = u64 [s1 + 0x20]\n 11159: a1 = a1 | a3\n 11162: a0 = a0 | a1\n 11165: a0 = a0 >> 0x20\n 11168: a1 = a1 | a2\n 11171: a1 = a1 << 0x20\n 11174: a1 = a1 | a0\n 11177: jump @407 if a1 == 0\n      : @406 (gas: 1)\n 11180: jump @653\n      : @407 (gas: 15)\n 11183: a0 = a4\n 11185: u64 [s1 + 0x90] = ra\n 11189: u64 [s1 + 0x98] = t2\n 11193: u64 [s1 + 0xa0] = t0\n 11197: a1 = u64 [s1 + 0x70]\n 11200: a3 = s1 + 0x200\n 11204: u64 [a3 + 0x60] = a1\n 11207: a1 = u64 [s1 + 0x60]\n 11210: u64 [a3 + 0x68] = a1\n 11213: a1 = u64 [s1 + 0x68]\n 11216: u64 [a3 + 0x70] = a1\n 11219: a1 = s1 + 0x260\n 11223: a2 = u64 [s1 + 0x58]\n 11226: u64 [a3 + 0x78] = a2\n 11229: ra = 374, jump @19\n      : @408 [@dyn 187] (gas: 2)\n 11235: a0 = u64 [s1 + 0xb8]\n 11239: jump @410 if a0 == 0\n      : @409 (gas: 1)\n 11242: jump @654\n      : @410 (gas: 1)\n 11245: t0 = 376, jump @1394\n      : @411 [@dyn 188] (gas: 1)\n 11251: jump @413 if a1 != 0\n      : @412 (gas: 1)\n 11254: jump @653\n      : @413 (gas: 13)\n 11257: a1 = u64 [s1 + 0xa8]\n 11261: a1 = a1 & 0xffffffffffffff00\n 11265: i32 a0 = a3 + 0x20\n 11268: a3 = u64 [s1 + 0x98]\n 11272: a2 = s1 + 0x100\n 11276: u64 [a2 + 0xe8] = a3\n 11280: u64 [a2 + 0xe0] = a1\n 11284: a1 = u64 [s1 + 0xb0]\n 11288: u64 [a2 + 0xf0] = a1\n 11292: a1 = s1 + 0x1e0\n 11296: a3 = u64 [s1 + 0xa0]\n 11300: u64 [a2 + 0xf8] = a3\n 11304: ra = 378, jump @19\n      : @414 [@dyn 189] (gas: 9)\n 11310: t2 = 0\n 11312: t1 = 0\n 11314: u64 [s1 + 176] = 0\n 11318: a0 = u64 [s1 + 0x90]\n 11322: a0 = a0 >u 0\n 11324: a0 = a0 << 0x5\n 11327: u64 [s1 + 0xb8] = a0\n 11331: t0 = 0x17c\n 11335: jump @1388\n      : @415 (gas: 1)\n 11338: t0 = 380, jump @1388\n      : @416 [@dyn 190] (gas: 28)\n 11344: t0 = u64 [s1 + 0x20]\n 11347: a3 = a2 + t0\n 11350: ra = a3 + a0\n 11353: a3 = ra ^ a2\n 11356: a4 = ra <u a2\n 11359: a4 = a0 if a3 == 0\n 11362: a0 = a2 <u t2\n 11365: a0 = a1 if a1 == 0\n 11368: a0 = a0 + t1\n 11371: a1 = a0 <u t1\n 11374: a2 = u64 [s1 + 0x28]\n 11377: a2 = a2 + a0\n 11380: a4 = a4 + a2\n 11383: a0 = a2 <u a0\n 11386: a2 = a4 <u a2\n 11389: t1 = u64 [s1 + 0x18]\n 11392: a3 = u64 [s1 + 0xb0]\n 11396: a3 = a3 + t1\n 11399: a1 = a1 + a3\n 11402: a0 = a0 + a1\n 11405: a5 = a0 + a2\n 11408: a0 = a5 >u 0\n 11410: a1 = a4 >u 0\n 11412: a1 = a0 if a5 != 0\n 11415: a0 = a4 | a5\n 11418: a2 = ra >u 0\n 11420: a2 = a1 if a0 != 0\n 11423: jump @418 if a2 == 0\n      : @417 (gas: 1)\n 11426: jump @763\n      : @418 (gas: 6)\n 11429: a0 = u64 [s1 + 0x30]\n 11432: a1 = u64 [s1 + 0xb8]\n 11436: a0 = a1 <u a0\n 11439: a1 = ra ^ t0\n 11442: a2 = ra <u t0\n 11445: t0 = 382, jump @1386\n      : @419 [@dyn 191] (gas: 1)\n 11451: jump @421 if a3 == 0\n      : @420 (gas: 1)\n 11454: jump @763\n      : @421 (gas: 11)\n 11457: a0 = u64 [s1 + 0xb8]\n 11461: u64 [s1 + 0x1c0] = a0\n 11465: u64 [s1 + 0x1c8] = ra\n 11469: u64 [s1 + 0x1d0] = a4\n 11473: a0 = 0x40\n 11476: a1 = s1 + 0x1c0\n 11480: u64 [s1 + 0x1d8] = a5\n 11484: u64 [s1 + 0xa8] = ra\n 11488: u64 [s1 + 0xa0] = a4\n 11492: u64 [s1 + 0xb0] = a5\n 11496: ra = 384, jump @19\n      : @422 [@dyn 192] (gas: 21)\n 11502: a0 = u64 [s1 + 0x18]\n 11505: a4 = s1 + 0x100\n 11509: u64 [a4 + 0x78] = a0\n 11512: a0 = u64 [s1 + 0x28]\n 11515: u64 [a4 + 0x70] = a0\n 11518: a0 = u64 [s1 + 0x20]\n 11521: u64 [a4 + 0x68] = a0\n 11524: a0 = u64 [s1 + 0x30]\n 11527: u64 [a4 + 0x60] = a0\n 11530: a0 = u64 [s1 + 0xb0]\n 11534: u64 [a4 + 0x98] = a0\n 11538: a0 = u64 [s1 + 0xa0]\n 11542: u64 [a4 + 0x90] = a0\n 11546: a0 = u64 [s1 + 0xa8]\n 11550: u64 [a4 + 0x88] = a0\n 11554: a0 = s1 + 0x1a0\n 11558: a1 = s1 + 0x180\n 11562: a2 = s1 + 0x160\n 11566: a3 = u64 [s1 + 0xb8]\n 11570: u64 [a4 + 0x80] = a3\n 11574: ra = 386, jump @1021\n      : @423 [@dyn 193] (gas: 12)\n 11580: a2 = u64 [s1 + 0xa0]\n 11584: a4 = u64 [s1 + 0xa8]\n 11588: t0 = u64 [s1 + 0xb8]\n 11592: a0 = t0 | a2\n 11595: a1 = u64 [s1 + 0xb0]\n 11599: a1 = a1 | a4\n 11602: a0 = a0 | a1\n 11605: a0 = a0 >> 0x20\n 11608: a1 = a1 | a2\n 11611: a1 = a1 << 0x20\n 11614: a0 = a0 | a1\n 11617: jump @425 if a0 == 0\n      : @424 (gas: 1)\n 11620: jump @653\n      : @425 (gas: 7)\n 11623: a5 = s1 + 0x100\n 11627: a0 = u64 [a5 + 0xa8]\n 11631: a1 = u64 [a5 + 0xb8]\n 11635: u64 [s1 + 0x98] = a1\n 11639: t1 = u64 [s1 + 0x1a0]\n 11643: a3 = u64 [a5 + 0xb0]\n 11647: jump @505\n      : @426 (gas: 8)\n 11650: u64 [a2 + 1984] = 0\n 11654: u64 [a2 + 1976] = 0\n 11658: u64 [a2 + 1968] = 0\n 11662: u64 [a2 + 1960] = 0\n 11666: a0 = s1 + 0x1000\n 11670: i32 a0 = a0 + 0x7e0\n 11674: ecalli 10 // 'value_transferred'\n 11676: fallthrough\n      : @427 (gas: 10)\n 11677: a3 = s1 + 0x1038\n 11681: a4 = a3 + 0x700\n 11685: a0 = u64 [a4 + 0xb8]\n 11689: a1 = u64 [a4 + 0xc0]\n 11693: a2 = u64 [a4 + 0xb0]\n 11697: a3 = u64 [a4 + 0xa8]\n 11701: a1 = a1 | a2\n 11704: a0 = a0 | a3\n 11707: a0 = a0 | a1\n 11710: jump @429 if a0 == 0\n      : @428 (gas: 1)\n 11713: jump @700\n      : @429 (gas: 4)\n 11716: a0 = u64 [s1 + 0xb8]\n 11720: a0 = i32 [a0]\n 11722: a1 = 0x43\n 11725: jump @431 if a1 <u a0\n      : @430 (gas: 1)\n 11728: jump @701\n      : @431 (gas: 5)\n 11731: a0 = s1 + 0x7ff\n 11735: a0 = a0 + 0x3e1\n 11739: ra = 0x184\n 11743: t0 = 0x3f8\n 11747: jump @1417\n      : @432 [@dyn 194] (gas: 42)\n 11750: a1 = s1 + 0x7ff\n 11754: a1 = a1 + 0x39\n 11757: a2 = a1 + 0x300\n 11761: a0 = u64 [a2 + 0xb8]\n 11765: u64 [s1 + 0x78] = a0\n 11768: a0 = u64 [a2 + 0xb0]\n 11772: u64 [s1 + 0xa8] = a0\n 11776: a0 = u64 [a2 + 0xa8]\n 11780: u64 [s1 + 0xb0] = a0\n 11784: a0 = s1 + 0x2000\n 11788: i32 a0 = a0 + 0xfffffffffffff800\n 11792: a1 = 0x24\n 11795: ecalli 1 // 'call_data_load'\n 11797: a0 = s1 + 0x1038\n 11801: a2 = a0 + 0x700\n 11805: a1 = u64 [a2 + 0xe0]\n 11809: u64 [s1 + 0xa0] = a1\n 11813: a1 = u64 [a2 + 0xd8]\n 11817: u64 [s1 + 0x90] = a1\n 11821: a1 = u64 [a2 + 0xd0]\n 11825: u64 [s1 + 0x88] = a1\n 11829: a0 = u64 [a2 + 0xc8]\n 11833: u64 [s1 + 0x80] = a0\n 11837: a0 = u64 [0x20040]\n 11842: u64 [s1 + 0x40] = a0\n 11845: a3 = s1 + 0x7ff\n 11849: a3 = a3 + 0x39\n 11852: a4 = a3 + 0x300\n 11856: u64 [a4 + 0xa0] = a0\n 11860: a1 = u64 [0x20048]\n 11865: a2 = u64 [0x20050]\n 11870: a0 = u64 [0x20058]\n 11875: u64 [s1 + 0x30] = a1\n 11878: u64 [a4 + 0x98] = a1\n 11882: u64 [s1 + 0x28] = a2\n 11885: u64 [a4 + 0x90] = a2\n 11889: a1 = s1 + 0x7ff\n 11893: a1 = a1 + 0x3c1\n 11897: u64 [s1 + 0x38] = a0\n 11900: u64 [a4 + 0x88] = a0\n 11904: a0 = 0\n 11906: ra = 390, jump @19\n      : @433 [@dyn 195] (gas: 11)\n 11912: a1 = s1 + 0x7ff\n 11916: a1 = a1 + 0x39\n 11919: u64 [a1 + 896] = 0\n 11923: u64 [a1 + 888] = 0\n 11927: u64 [a1 + 872] = 0x6\n 11932: a2 = a1\n 11934: a0 = 0x20\n 11937: a1 = s1 + 0x7ff\n 11941: a1 = a1 + 0x3a1\n 11945: u64 [a2 + 880] = 0\n 11949: ra = 392, jump @19\n      : @434 [@dyn 196] (gas: 3)\n 11955: a1 = 0x20264\n 11960: a0 = i32 [0x20264]\n 11965: jump @436 if a0 >u 63\n      : @435 (gas: 2)\n 11969: u32 [0x20264] = 0x40\n 11975: fallthrough\n      : @436 (gas: 15)\n 11976: a0 = sp + 0xffffffffffffffe0\n 11979: a2 = a0 & 0xffffffffffffffe0\n 11982: u64 [s1 + 0x70] = a2\n 11985: sp = a2\n 11987: a0 = 0x20270\n 11992: i32 a0 = a0 + 0\n 11994: u64 [s1 + 0x98] = a1\n 11998: i32 a2 = a2 + 0\n 12000: a1 = 0x40\n 12003: u64 [s1 + 0xb8] = a0\n 12007: ra = 0x18a\n 12011: ecalli 6 // 'hash_keccak_256'\n 12013: a3 = u64 [s1 + 0x70]\n 12016: t0 = 0x18c\n 12020: jump @1375\n      : @437 [@dyn 197] (gas: 2)\n 12023: a3 = u64 [s1 + 0x70]\n 12026: t0 = 396, jump @1375\n      : @438 [@dyn 198] (gas: 9)\n 12032: a0 = 0x30270\n 12037: u64 [s1 + 0x70] = a0\n 12040: i32 a0 = a0 + 0\n 12042: u64 [s1 + 0x20] = a0\n 12045: ra = 0x18e\n 12049: ecalli 3 // 'caller'\n 12051: a2 = u64 [s1 + 0x70]\n 12054: t0 = 0x190\n 12058: jump @1347\n      : @439 [@dyn 199] (gas: 2)\n 12061: a2 = u64 [s1 + 0x70]\n 12064: t0 = 400, jump @1347\n      : @440 [@dyn 200] (gas: 9)\n 12070: u64 [a2 + 864] = 0\n 12074: a4 = a2 + 0x300\n 12078: u64 [a4 + 0x58] = a1\n 12081: u64 [a4 + 0x50] = a0\n 12084: a1 = s1 + 0x7ff\n 12088: a1 = a1 + 0x381\n 12092: u64 [a4 + 0x48] = a3\n 12095: a0 = 0\n 12097: ra = 402, jump @19\n      : @441 [@dyn 201] (gas: 16)\n 12103: a0 = u64 [s1 + 0x48]\n 12106: a1 = s1 + 0x7ff\n 12110: a1 = a1 + 0x39\n 12113: a2 = a1 + 0x300\n 12117: u64 [a2 + 0x40] = a0\n 12120: a0 = u64 [s1 + 0x50]\n 12123: u64 [a2 + 0x38] = a0\n 12126: a0 = u64 [s1 + 0x58]\n 12129: u64 [a2 + 0x30] = a0\n 12132: a3 = a1\n 12134: a0 = 0x20\n 12137: a1 = s1 + 0x7ff\n 12141: a1 = a1 + 0x361\n 12145: a2 = u64 [s1 + 0x60]\n 12148: u64 [a3 + 0x328] = a2\n 12152: ra = 404, jump @19\n      : @442 [@dyn 202] (gas: 3)\n 12158: a1 = u64 [s1 + 0x98]\n 12162: a0 = i32 [a1]\n 12164: jump @444 if a0 >u 63\n      : @443 (gas: 2)\n 12168: u32 [a1 + 0] = 0x40\n 12171: fallthrough\n      : @444 (gas: 4)\n 12172: a0 = sp + 0xffffffffffffffe0\n 12175: a0 = a0 & 0xffffffffffffffe0\n 12178: u64 [s1 + 0x60] = a0\n 12181: t0 = 406, jump @1406\n      : @445 [@dyn 203] (gas: 5)\n 12187: ra = 0x198\n 12191: ecalli 6 // 'hash_keccak_256'\n 12193: a3 = u64 [s1 + 0x60]\n 12196: t0 = 0x19a\n 12200: jump @1383\n      : @446 [@dyn 204] (gas: 2)\n 12203: a3 = u64 [s1 + 0x60]\n 12206: t0 = 410, jump @1383\n      : @447 [@dyn 205] (gas: 3)\n 12212: a0 = s1 + 0x7ff\n 12216: a0 = a0 + 0x341\n 12220: ra = 412, jump @21\n      : @448 [@dyn 206] (gas: 4)\n 12226: a2 = s1 + 0x7ff\n 12230: a2 = a2 + 0x39\n 12233: a0 = u8 [a2 + 0x308]\n 12237: jump @450 if a0 != 0\n      : @449 (gas: 1)\n 12240: jump @702\n      : @450 (gas: 9)\n 12243: a0 = u64 [s1 + 0x78]\n 12246: a0 = a0 << 0x20\n 12249: a2 = a0 >> 0x20\n 12252: a0 = u64 [s1 + 0xb0]\n 12256: a1 = u64 [s1 + 0xa8]\n 12260: a0 = a0 | a1\n 12263: u64 [s1 + 0x70] = a2\n 12266: a0 = a0 | a2\n 12269: jump @452 if a0 != 0\n      : @451 (gas: 1)\n 12272: jump @710\n      : @452 (gas: 1)\n 12275: ra = 414, jump @1338\n      : @453 [@dyn 207] (gas: 9)\n 12281: a0 = s1 + 0x1838\n 12285: u64 [a0 + 0] = 0\n 12287: u64 [a0 + 4294967288] = 0\n 12290: u64 [a0 + 4294967280] = 0\n 12293: u64 [a0 + 4294967272] = 0x2\n 12297: a0 = s1 + 0x7ff\n 12301: a0 = a0 + 0x321\n 12305: a1 = s1 + 0x1820\n 12309: ra = 416, jump @21\n      : @454 [@dyn 208] (gas: 40)\n 12315: a1 = s1 + 0x7ff\n 12319: a1 = a1 + 0x39\n 12322: t2 = u64 [a1 + 0x300]\n 12326: a2 = a1 + 0x200\n 12330: a0 = u64 [a2 + 0xf8]\n 12334: a4 = u64 [a2 + 0xe8]\n 12338: a5 = u64 [a2 + 0xf0]\n 12342: a1 = sp + 0xffffffffffffffe0\n 12345: a1 = a1 & 0xffffffffffffffe0\n 12348: sp = a1\n 12350: a3 = u64 [s1 + 0x88]\n 12354: a3 = a3 + a5\n 12357: t0 = u64 [s1 + 0x80]\n 12361: t0 = t0 + a4\n 12364: a4 = t0 <u a4\n 12367: a3 = a3 + a4\n 12370: t1 = a3 ^ a5\n 12373: a2 = a3 <u a5\n 12376: a2 = a4 if t1 == 0\n 12379: a4 = u64 [s1 + 0x90]\n 12383: a4 = a4 + a0\n 12386: a5 = a4 + a2\n 12389: t1 = a5 <u a4\n 12392: ra = u64 [s1 + 0xa0]\n 12396: ra = ra + t2\n 12399: a4 = a4 <u a0\n 12402: a4 = a4 + ra\n 12405: ra = a4 + t1\n 12408: t1 = a5 <u a0\n 12411: a4 = t2 ^ ra\n 12414: t2 = ra <u t2\n 12417: t2 = t1 if a4 == 0\n 12420: a0 = a0 ^ a5\n 12423: a0 = a0 | a4\n 12426: t2 = a2 if a0 == 0\n 12429: u64 [a1 + 0x10] = a5\n 12432: u64 [a1 + 0x8] = a3\n 12435: u64 [a1] = t0\n 12437: u64 [a1 + 0x18] = ra\n 12440: jump @456 if t2 == 0\n      : @455 (gas: 1)\n 12443: jump @712\n      : @456 (gas: 7)\n 12446: a0 = s1 + 0x1838\n 12450: u64 [a0 + 32] = 0\n 12453: u64 [a0 + 24] = 0\n 12456: u64 [a0 + 16] = 0\n 12459: u64 [a0 + 8] = 0x2\n 12463: a0 = s1 + 0x1840\n 12467: ra = 418, jump @24\n      : @457 [@dyn 209] (gas: 14)\n 12473: a2 = s1 + 0x7ff\n 12477: a2 = a2 + 0x39\n 12480: u64 [a2 + 736] = 0\n 12484: a0 = u64 [s1 + 0x70]\n 12487: a3 = a2 + 0x200\n 12491: u64 [a3 + 0xd8] = a0\n 12495: a0 = u64 [s1 + 0xa8]\n 12499: u64 [a3 + 0xd0] = a0\n 12503: a1 = s1 + 0x7ff\n 12507: a1 = a1 + 0x301\n 12511: a0 = u64 [s1 + 0xb0]\n 12515: u64 [a3 + 0xc8] = a0\n 12519: a0 = 0\n 12521: ra = 420, jump @19\n      : @458 [@dyn 210] (gas: 11)\n 12527: a0 = s1 + 0x7ff\n 12531: a0 = a0 + 0x39\n 12534: u64 [a0 + 704] = 0\n 12538: u64 [a0 + 696] = 0\n 12542: u64 [a0 + 688] = 0\n 12546: a2 = a0\n 12548: a0 = 0x20\n 12551: a1 = s1 + 0x7ff\n 12555: a1 = a1 + 0x2e1\n 12559: u64 [a2 + 680] = 0\n 12563: ra = 422, jump @19\n      : @459 [@dyn 211] (gas: 7)\n 12569: a0 = sp + 0xffffffffffffffe0\n 12572: a0 = a0 & 0xffffffffffffffe0\n 12575: u64 [s1 + 0x78] = a0\n 12578: sp = a0\n 12580: a2 = u64 [s1 + 0x98]\n 12584: a0 = i32 [a2]\n 12586: jump @461 if a0 >u 63\n      : @460 (gas: 2)\n 12590: u32 [a2 + 0] = 0x40\n 12593: fallthrough\n      : @461 (gas: 4)\n 12594: a0 = sp + 0xffffffffffffffe0\n 12597: a0 = a0 & 0xffffffffffffffe0\n 12600: u64 [s1 + 0x98] = a0\n 12604: t0 = 424, jump @1406\n      : @462 [@dyn 212] (gas: 5)\n 12610: ra = 0x1aa\n 12614: ecalli 6 // 'hash_keccak_256'\n 12616: a3 = u64 [s1 + 0x98]\n 12620: t0 = 0x1ac\n 12624: jump @1356\n      : @463 [@dyn 213] (gas: 2)\n 12627: a3 = u64 [s1 + 0x98]\n 12631: t0 = 428, jump @1356\n      : @464 [@dyn 214] (gas: 8)\n 12637: a1 = u64 [s1 + 0x78]\n 12640: u64 [a1 + 0x18] = a3\n 12643: u64 [a1 + 0x10] = a2\n 12646: u64 [a1 + 0x8] = a4\n 12649: u64 [a1] = a0\n 12651: a0 = s1 + 0x7ff\n 12655: a0 = a0 + 0x2c1\n 12659: ra = 430, jump @21\n      : @465 [@dyn 215] (gas: 33)\n 12665: a2 = s1 + 0x7ff\n 12669: a2 = a2 + 0x39\n 12672: a4 = a2 + 0x200\n 12676: a0 = u64 [a4 + 0x90]\n 12680: a1 = u64 [a4 + 0x88]\n 12684: t0 = u64 [a2 + 0x2a0]\n 12688: a3 = u64 [a4 + 0x98]\n 12692: a4 = u64 [s1 + 0x88]\n 12696: a4 = a4 + a0\n 12699: a5 = u64 [s1 + 0x80]\n 12703: a5 = a5 + a1\n 12706: a1 = a5 <u a1\n 12709: a4 = a4 + a1\n 12712: a2 = a4 ^ a0\n 12715: a0 = a4 <u a0\n 12718: a0 = a1 if a2 == 0\n 12721: a1 = u64 [s1 + 0x90]\n 12725: a1 = a1 + a3\n 12728: a2 = u64 [s1 + 0xa0]\n 12732: t0 = t0 + a2\n 12735: a2 = a1 <u a3\n 12738: a2 = a2 + t0\n 12741: a0 = a0 + a1\n 12744: a1 = a0 <u a1\n 12747: a1 = a1 + a2\n 12750: a2 = s1 + 0x1838\n 12754: u64 [a2 + 0x28] = a5\n 12757: u64 [a2 + 0x30] = a4\n 12760: u64 [a2 + 0x38] = a0\n 12763: u64 [a2 + 0x40] = a1\n 12766: a1 = s1 + 0x1860\n 12770: a0 = u64 [s1 + 0x78]\n 12773: ra = 432, jump @24\n      : @466 [@dyn 216] (gas: 4)\n 12779: a0 = s1 + 0x7ff\n 12783: a0 = a0 + 0x2a1\n 12787: a1 = 0x40\n 12790: ra = 434, jump @17\n      : @467 [@dyn 217] (gas: 8)\n 12796: a3 = s1 + 0x7ff\n 12800: a3 = a3 + 0x39\n 12803: a5 = a3 + 0x200\n 12807: a4 = u64 [a5 + 0x80]\n 12811: a1 = u64 [a5 + 0x78]\n 12814: a2 = u64 [a5 + 0x70]\n 12817: a0 = u64 [a5 + 0x68]\n 12820: t0 = 436, jump @1367\n      : @468 [@dyn 218] (gas: 1)\n 12826: jump @470 if a1 == 0\n      : @469 (gas: 1)\n 12829: jump @653\n      : @470 (gas: 13)\n 12832: a1 = u64 [s1 + 0x80]\n 12836: a4 = a3 + 0x200\n 12840: u64 [a4 + 0x48] = a1\n 12843: a1 = u64 [s1 + 0x88]\n 12847: u64 [a4 + 0x50] = a1\n 12850: a1 = u64 [s1 + 0x90]\n 12854: u64 [a4 + 0x58] = a1\n 12857: a1 = s1 + 0x7ff\n 12861: a1 = a1 + 0x281\n 12865: a2 = u64 [s1 + 0xa0]\n 12869: u64 [a4 + 0x60] = a2\n 12872: u64 [s1 + 0xa0] = a0\n 12876: ra = 438, jump @19\n      : @471 [@dyn 219] (gas: 32)\n 12882: a5 = s1 + 0x7ff\n 12886: a5 = a5 + 0x39\n 12889: u64 [a5 + 512] = 0\n 12893: a0 = u64 [s1 + 0x70]\n 12896: a1 = a5 + 0x100\n 12900: u64 [a1 + 0xf8] = a0\n 12904: a0 = u64 [s1 + 0xa8]\n 12908: u64 [a1 + 0xf0] = a0\n 12912: a0 = u64 [s1 + 0xb0]\n 12916: u64 [a1 + 0xe8] = a0\n 12920: u64 [a5 + 544] = 0\n 12924: u64 [a5 + 536] = 0\n 12928: u64 [a5 + 528] = 0\n 12932: a0 = u64 [0x200a0]\n 12937: a1 = u64 [0x200a8]\n 12942: a2 = u64 [0x200b0]\n 12947: a3 = u64 [0x200b8]\n 12952: a4 = a5 + 0x200\n 12956: u64 [a4 + 0x40] = a0\n 12959: u64 [a4 + 0x38] = a1\n 12962: u64 [a4 + 0x30] = a2\n 12965: u64 [a4 + 0x28] = a3\n 12968: a1 = 0x20\n 12971: a2 = s1 + 0x7ff\n 12975: a2 = a2 + 0x261\n 12979: a3 = s1 + 0x7ff\n 12983: a3 = a3 + 0x241\n 12987: a4 = s1 + 0x7ff\n 12991: a4 = a4 + 0x221\n 12995: u64 [a5 + 520] = 0\n 12999: a0 = u64 [s1 + 0xa0]\n 13003: ra = 440, jump @27\n      : @472 [@dyn 220] (gas: 5)\n 13009: a0 = 0\n 13011: a1 = u64 [s1 + 0xb8]\n 13015: a2 = 0\n 13017: ecalli 7 // 'seal_return'\n 13019: jump @824\n      : @473 (gas: 11)\n 13022: a0 = s1 + 0x1838\n 13026: u64 [a0 + 544] = 0\n 13030: u64 [a0 + 536] = 0\n 13034: u64 [a0 + 528] = 0\n 13038: u64 [a0 + 520] = 0\n 13042: a0 = s1 + 0x2000\n 13046: i32 a0 = a0 + 0xfffffffffffffa40\n 13050: ra = 0x1ba\n 13054: ecalli 10 // 'value_transferred'\n 13056: t0 = 0x1bc\n 13060: jump @1384\n      : @474 [@dyn 221] (gas: 1)\n 13063: t0 = 444, jump @1384\n      : @475 [@dyn 222] (gas: 1)\n 13069: t0 = 446, jump @1385\n      : @476 [@dyn 223] (gas: 1)\n 13075: jump @478 if a0 == 0\n      : @477 (gas: 1)\n 13078: jump @717\n      : @478 (gas: 3)\n 13081: a0 = u64 [s1 + 0xb8]\n 13085: a0 = i32 [a0]\n 13087: jump @480 if a0 >u 3\n      : @479 (gas: 1)\n 13091: jump @718\n      : @480 (gas: 3)\n 13094: a0 = s1 + 0x1160\n 13098: a1 = 0x40\n 13101: ra = 448, jump @17\n      : @481 [@dyn 224] (gas: 18)\n 13107: a1 = s1 + 0x1038\n 13111: a2 = a1 + 0x100\n 13115: a0 = u64 [a2 + 0x40]\n 13118: u64 [s1 + 0x18] = a0\n 13121: a0 = u64 [a2 + 0x38]\n 13124: u64 [s1 + 0x28] = a0\n 13127: a0 = u64 [a2 + 0x30]\n 13130: u64 [s1 + 0x20] = a0\n 13133: a0 = u64 [a2 + 0x28]\n 13136: u64 [s1 + 0x30] = a0\n 13139: a1 = s1 + 0x1838\n 13143: u64 [a1 + 576] = 0\n 13147: u64 [a1 + 568] = 0\n 13151: u64 [a1 + 560] = 0\n 13155: u64 [a1 + 552] = 0x4\n 13160: a0 = s1 + 0x1140\n 13164: a1 = s1 + 0x1a60\n 13168: ra = 450, jump @21\n      : @482 [@dyn 225] (gas: 35)\n 13174: a0 = s1 + 0x1038\n 13178: t2 = u64 [a0 + 0x118]\n 13182: ra = u64 [a0 + 0x110]\n 13186: t1 = u64 [a0 + 0x120]\n 13190: a4 = u64 [a0 + 0x108]\n 13194: a0 = t2 << 0x3f\n 13197: a1 = ra >> 0x1\n 13200: a0 = a0 | a1\n 13203: a1 = t1 << 0x3f\n 13206: a2 = t2 >> 0x1\n 13209: a1 = a1 | a2\n 13212: a2 = ra << 0x3f\n 13215: a3 = a4 >> 0x1\n 13218: a5 = a3 | a2\n 13221: a2 = t1 >> 0x1\n 13224: u64 [s1 + 0xb0] = a4\n 13228: a4 = a4 & 0x1\n 13231: a3 = -a4\n 13233: a1 = a1 & a3\n 13236: t0 = a3 & a0\n 13239: a2 = a2 & a3\n 13242: a0 = a5 & 0x7f\n 13245: u64 [s1 + 0xa8] = a0\n 13249: a5 = a0 if a4 == 0\n 13252: u64 [s1 + 0x70] = a5\n 13255: a0 = a5 <u 0x20\n 13258: u64 [s1 + 0x60] = t0\n 13261: a0 = 0 if t0 != 0\n 13263: u64 [s1 + 0x68] = a1\n 13266: u64 [s1 + 0x58] = a2\n 13269: a1 = a1 | a2\n 13272: a0 = 0 if a1 != 0\n 13274: u64 [s1 + 0xb8] = a4\n 13278: a1 = a4 <u 0x1\n 13281: jump @484 if a1 == a0\n      : @483 (gas: 1)\n 13284: jump @719\n      : @484 (gas: 12)\n 13287: a2 = u64 [s1 + 0x28]\n 13290: a3 = u64 [s1 + 0x30]\n 13293: a0 = a3 | a2\n 13296: a1 = u64 [s1 + 0x20]\n 13299: a4 = u64 [s1 + 0x18]\n 13302: a1 = a1 | a4\n 13305: a0 = a0 | a1\n 13308: a0 = a0 >> 0x20\n 13311: a1 = a1 | a2\n 13314: a1 = a1 << 0x20\n 13317: a1 = a1 | a0\n 13320: jump @486 if a1 == 0\n      : @485 (gas: 1)\n 13323: jump @653\n      : @486 (gas: 15)\n 13326: a0 = a3\n 13328: u64 [s1 + 0x90] = ra\n 13332: u64 [s1 + 0x98] = t2\n 13336: u64 [s1 + 0xa0] = t1\n 13340: a1 = u64 [s1 + 0x70]\n 13343: a3 = s1 + 0x1038\n 13347: u64 [a3 + 0xe8] = a1\n 13351: a1 = u64 [s1 + 0x60]\n 13354: u64 [a3 + 0xf0] = a1\n 13358: a1 = u64 [s1 + 0x68]\n 13361: u64 [a3 + 0xf8] = a1\n 13365: a1 = s1 + 0x1120\n 13369: a2 = u64 [s1 + 0x58]\n 13372: u64 [a3 + 0x100] = a2\n 13376: ra = 452, jump @19\n      : @487 [@dyn 226] (gas: 2)\n 13382: a0 = u64 [s1 + 0xb8]\n 13386: jump @489 if a0 == 0\n      : @488 (gas: 1)\n 13389: jump @667\n      : @489 (gas: 1)\n 13392: t0 = 454, jump @1394\n      : @490 [@dyn 227] (gas: 1)\n 13398: jump @492 if a1 != 0\n      : @491 (gas: 1)\n 13401: jump @653\n      : @492 (gas: 13)\n 13404: a1 = u64 [s1 + 0xb0]\n 13408: a1 = a1 & 0xffffffffffffff00\n 13412: i32 a0 = a3 + 0x20\n 13415: a2 = s1 + 0x1038\n 13419: a3 = u64 [s1 + 0x90]\n 13423: u64 [a2 + 0x70] = a3\n 13426: u64 [a2 + 0x68] = a1\n 13429: a1 = u64 [s1 + 0x98]\n 13433: u64 [a2 + 0x78] = a1\n 13436: a1 = s1 + 0x10a0\n 13440: a3 = u64 [s1 + 0xa0]\n 13444: u64 [a2 + 0x80] = a3\n 13448: ra = 456, jump @19\n      : @493 [@dyn 228] (gas: 9)\n 13454: t2 = 0\n 13456: t1 = 0\n 13458: u64 [s1 + 176] = 0\n 13462: a0 = u64 [s1 + 0xa8]\n 13466: a0 = a0 >u 0\n 13468: a0 = a0 << 0x5\n 13471: u64 [s1 + 0xb8] = a0\n 13475: t0 = 0x1ca\n 13479: jump @1388\n      : @494 (gas: 1)\n 13482: t0 = 458, jump @1388\n      : @495 [@dyn 229] (gas: 28)\n 13488: t0 = u64 [s1 + 0x20]\n 13491: a3 = a2 + t0\n 13494: ra = a3 + a0\n 13497: a3 = ra ^ a2\n 13500: a4 = ra <u a2\n 13503: a4 = a0 if a3 == 0\n 13506: a0 = a2 <u t2\n 13509: a0 = a1 if a1 == 0\n 13512: a0 = a0 + t1\n 13515: a1 = a0 <u t1\n 13518: a2 = u64 [s1 + 0x28]\n 13521: a2 = a2 + a0\n 13524: a4 = a4 + a2\n 13527: a0 = a2 <u a0\n 13530: a2 = a4 <u a2\n 13533: t1 = u64 [s1 + 0x18]\n 13536: a3 = u64 [s1 + 0xb0]\n 13540: a3 = a3 + t1\n 13543: a1 = a1 + a3\n 13546: a0 = a0 + a1\n 13549: a5 = a0 + a2\n 13552: a0 = a5 >u 0\n 13554: a1 = a4 >u 0\n 13556: a1 = a0 if a5 != 0\n 13559: a0 = a4 | a5\n 13562: a2 = ra >u 0\n 13564: a2 = a1 if a0 != 0\n 13567: jump @497 if a2 == 0\n      : @496 (gas: 1)\n 13570: jump @769\n      : @497 (gas: 6)\n 13573: a0 = u64 [s1 + 0x30]\n 13576: a1 = u64 [s1 + 0xb8]\n 13580: a0 = a1 <u a0\n 13583: a1 = ra ^ t0\n 13586: a2 = ra <u t0\n 13589: t0 = 460, jump @1386\n      : @498 [@dyn 230] (gas: 1)\n 13595: jump @500 if a3 == 0\n      : @499 (gas: 1)\n 13598: jump @769\n      : @500 (gas: 13)\n 13601: a2 = s1 + 0x1038\n 13605: a0 = u64 [s1 + 0xb8]\n 13609: u64 [a2 + 0x48] = a0\n 13612: a3 = ra\n 13614: u64 [a2 + 0x50] = a3\n 13617: u64 [a2 + 0x58] = a4\n 13620: a0 = 0x40\n 13623: a1 = s1 + 0x1080\n 13627: u64 [a2 + 0x60] = a5\n 13630: u64 [s1 + 0xa8] = a3\n 13634: u64 [s1 + 0xa0] = a4\n 13638: u64 [s1 + 0xb0] = a5\n 13642: ra = 462, jump @19\n      : @501 [@dyn 231] (gas: 23)\n 13648: a1 = s1 + 0x1038\n 13652: a0 = u64 [s1 + 0x18]\n 13655: u64 [a1] = a0\n 13657: a0 = u64 [s1 + 0x28]\n 13660: a2 = a1 + 0xffffffffffffff00\n 13664: u64 [a2 + 0xf8] = a0\n 13668: a0 = u64 [s1 + 0x20]\n 13671: u64 [a2 + 0xf0] = a0\n 13675: a0 = u64 [s1 + 0x30]\n 13678: u64 [a2 + 0xe8] = a0\n 13682: a0 = u64 [s1 + 0xb0]\n 13686: u64 [a1 + 0x20] = a0\n 13689: a0 = u64 [s1 + 0xa0]\n 13693: u64 [a1 + 0x18] = a0\n 13696: a0 = u64 [s1 + 0xa8]\n 13700: u64 [a1 + 0x10] = a0\n 13703: a4 = a1\n 13705: a0 = s1 + 0x1060\n 13709: a1 = s1 + 0x1040\n 13713: a2 = s1 + 0x1020\n 13717: a3 = u64 [s1 + 0xb8]\n 13721: u64 [a4 + 0x8] = a3\n 13724: ra = 464, jump @1021\n      : @502 [@dyn 232] (gas: 12)\n 13730: a3 = u64 [s1 + 0xa0]\n 13734: a4 = u64 [s1 + 0xa8]\n 13738: t0 = u64 [s1 + 0xb8]\n 13742: a0 = t0 | a3\n 13745: a1 = u64 [s1 + 0xb0]\n 13749: a1 = a1 | a4\n 13752: a0 = a0 | a1\n 13755: a0 = a0 >> 0x20\n 13758: a1 = a1 | a3\n 13761: a1 = a1 << 0x20\n 13764: a0 = a0 | a1\n 13767: jump @504 if a0 == 0\n      : @503 (gas: 1)\n 13770: jump @653\n      : @504 (gas: 8)\n 13773: a1 = s1 + 0x1038\n 13777: a0 = u64 [a1 + 0x30]\n 13780: a2 = u64 [a1 + 0x40]\n 13783: u64 [s1 + 0x98] = a2\n 13787: a2 = a3\n 13789: t1 = u64 [a1 + 0x28]\n 13792: a3 = u64 [a1 + 0x38]\n 13795: fallthrough\n      : @505 (gas: 24)\n 13796: t2 = a0 ^ a4\n 13799: a5 = a0 <u a4\n 13802: ra = t1 <u t0\n 13805: a5 = ra if t2 == 0\n 13808: a1 = a3 - a2\n 13811: t2 = a1 - a5\n 13814: a1 = a1 <u a5\n 13817: a3 = a3 <u a2\n 13820: a2 = u64 [s1 + 0x98]\n 13824: a3 = a2 - a3\n 13827: a2 = u64 [s1 + 0xb0]\n 13831: a3 = a3 - a2\n 13834: a3 = a3 - a1\n 13837: a0 = a0 - a4\n 13840: a0 = a0 - ra\n 13843: a1 = t1 - t0\n 13846: a0 = a0 | a3\n 13849: a2 = a1 | t2\n 13852: a2 = a2 | a0\n 13855: a0 = a0 | t2\n 13858: a2 = a2 >> 0x20\n 13861: a0 = a0 << 0x20\n 13864: a0 = a0 | a2\n 13867: jump @507 if a0 == 0\n      : @506 (gas: 1)\n 13870: jump @653\n      : @507 (gas: 3)\n 13873: a0 = t0\n 13875: u64 [s1 + 0xb8] = a1\n 13879: ra = 466, jump @33\n      : @508 [@dyn 233] (gas: 6)\n 13885: i32 a1 = a0 + 0\n 13887: a2 = i32 [s1 + 0xb8]\n 13891: a0 = 0\n 13893: ra = 0x2ca\n 13897: ecalli 7 // 'seal_return'\n 13899: jump @780\n      : @509 (gas: 8)\n 13902: u64 [a2 + 1856] = 0\n 13906: u64 [a2 + 1848] = 0\n 13910: u64 [a2 + 1840] = 0\n 13914: u64 [a2 + 1832] = 0\n 13918: a0 = s1 + 0x1000\n 13922: i32 a0 = a0 + 0x760\n 13926: ecalli 10 // 'value_transferred'\n 13928: fallthrough\n      : @510 (gas: 10)\n 13929: a3 = s1 + 0x1038\n 13933: a4 = a3 + 0x700\n 13937: a0 = u64 [a4 + 0x38]\n 13940: a1 = u64 [a4 + 0x40]\n 13943: a2 = u64 [a4 + 0x30]\n 13946: a3 = u64 [a4 + 0x28]\n 13949: a1 = a1 | a2\n 13952: a0 = a0 | a3\n 13955: a0 = a0 | a1\n 13958: jump @512 if a0 == 0\n      : @511 (gas: 1)\n 13961: jump @724\n      : @512 (gas: 3)\n 13964: a0 = u64 [s1 + 0xb8]\n 13968: a0 = i32 [a0]\n 13970: jump @514 if a0 >u 3\n      : @513 (gas: 1)\n 13974: jump @725\n      : @514 (gas: 1)\n 13977: ra = 468, jump @1157\n      : @515 [@dyn 234] (gas: 9)\n 13983: a0 = s1 + 0x1038\n 13987: u64 [a0 + 1888] = 0\n 13991: u64 [a0 + 1880] = 0\n 13995: u64 [a0 + 1872] = 0\n 13999: u64 [a0 + 1864] = 0x5\n 14004: a0 = s1 + 0x7ff\n 14008: a0 = a0 + 0x121\n 14012: a1 = s1 + 0x1780\n 14016: ra = 470, jump @21\n      : @516 [@dyn 235] (gas: 5)\n 14022: a3 = s1 + 0x7ff\n 14026: a3 = a3 + 0x39\n 14029: a0 = u64 [a3 + 0xe8]\n 14033: a1 = a0 & 0xff\n 14037: jump @518 if a1 != 0\n      : @517 (gas: 1)\n 14040: jump @726\n      : @518 (gas: 17)\n 14043: a1 = u64 [a3 + 0x100]\n 14047: a2 = u64 [a3 + 0xf8]\n 14051: a3 = u64 [a3 + 0xf0]\n 14055: a0 = a0 & 0xffffffffffffff00\n 14059: a4 = s1 + 0x1038\n 14063: u64 [a4 + 1920] = 0\n 14067: u64 [a4 + 1912] = 0\n 14071: u64 [a4 + 1904] = 0\n 14075: u64 [a4 + 1896] = 0x5\n 14080: a5 = a4 + 0x700\n 14084: u64 [a5 + 0x90] = a3\n 14088: u64 [a5 + 0x88] = a0\n 14092: u64 [a5 + 0x98] = a2\n 14096: u64 [a5 + 0xa0] = a1\n 14100: a0 = s1 + 0x17a0\n 14104: a1 = s1 + 0x17c0\n 14108: ra = 472, jump @24\n      : @519 [@dyn 236] (gas: 4)\n 14114: a0 = s1 + 0x7ff\n 14118: a0 = a0 + 0x101\n 14122: a1 = 0x40\n 14125: ra = 474, jump @17\n      : @520 [@dyn 237] (gas: 17)\n 14131: a0 = s1 + 0x7ff\n 14135: a0 = a0 + 0x39\n 14138: a1 = u64 [a0 + 0xe0]\n 14142: u64 [s1 + 0xb0] = a1\n 14146: a1 = u64 [a0 + 0xd8]\n 14150: u64 [s1 + 0xa8] = a1\n 14154: a1 = u64 [a0 + 0xd0]\n 14158: u64 [s1 + 0xa0] = a1\n 14162: a0 = u64 [a0 + 0xc8]\n 14166: u64 [s1 + 0xb8] = a0\n 14170: a0 = 0x30270\n 14175: u64 [s1 + 0x98] = a0\n 14179: i32 a0 = a0 + 0\n 14181: ra = 0x1dc\n 14185: ecalli 3 // 'caller'\n 14187: t0 = 0x1de\n 14191: jump @1404\n      : @521 [@dyn 238] (gas: 1)\n 14194: t0 = 478, jump @1404\n      : @522 [@dyn 239] (gas: 1)\n 14200: jump @653 if a0 != 0\n      : @523 (gas: 2)\n 14204: a2 = u64 [s1 + 0x98]\n 14208: t0 = 480, jump @1347\n      : @524 [@dyn 240] (gas: 8)\n 14214: u64 [a2 + 192] = 0\n 14218: u64 [a2 + 0xb8] = a1\n 14222: u64 [a2 + 0xb0] = a0\n 14226: a1 = s1 + 0x7ff\n 14230: a1 = a1 + 0xe1\n 14234: u64 [a2 + 0xa8] = a3\n 14238: a0 = a4\n 14240: ra = 482, jump @19\n      : @525 [@dyn 241] (gas: 16)\n 14246: a0 = u64 [0x200c0]\n 14251: a1 = u64 [0x200c8]\n 14256: a2 = s1 + 0x7ff\n 14260: a2 = a2 + 0x39\n 14263: u64 [a2 + 0xa0] = a0\n 14267: a0 = u64 [0x200d0]\n 14272: u64 [a2 + 0x98] = a1\n 14276: a3 = u64 [0x200d8]\n 14281: u64 [a2 + 0x90] = a0\n 14285: a0 = a2\n 14287: a1 = 0x20\n 14290: a2 = s1 + 0x7ff\n 14294: a2 = a2 + 0xc1\n 14298: u64 [a0 + 0x88] = a3\n 14302: a0 = u64 [s1 + 0xb8]\n 14306: ra = 484, jump @25\n      : @526 [@dyn 242] (gas: 6)\n 14312: a1 = 0x20270\n 14317: i32 a1 = a1 + 0\n 14319: a0 = 0\n 14321: a2 = 0\n 14323: ecalli 7 // 'seal_return'\n 14325: jump @824\n      : @527 (gas: 8)\n 14328: u64 [a2 + 1504] = 0\n 14332: u64 [a2 + 1496] = 0\n 14336: u64 [a2 + 1488] = 0\n 14340: u64 [a2 + 1480] = 0\n 14344: a0 = s1 + 0x1000\n 14348: i32 a0 = a0 + 0x600\n 14352: ecalli 10 // 'value_transferred'\n 14354: fallthrough\n      : @528 (gas: 10)\n 14355: a4 = s1 + 0x1038\n 14359: a5 = a4 + 0x500\n 14363: a0 = u64 [a5 + 0xd8]\n 14367: a1 = u64 [a5 + 0xe0]\n 14371: a2 = u64 [a5 + 0xd0]\n 14375: a3 = u64 [a5 + 0xc8]\n 14379: a1 = a1 | a2\n 14382: a0 = a0 | a3\n 14385: a0 = a0 | a1\n 14388: jump @530 if a0 == 0\n      : @529 (gas: 1)\n 14391: jump @731\n      : @530 (gas: 3)\n 14394: a0 = u64 [s1 + 0xb8]\n 14398: a0 = i32 [a0]\n 14400: jump @532 if a0 >u 3\n      : @531 (gas: 1)\n 14404: jump @732\n      : @532 (gas: 7)\n 14407: u64 [a4 + 1536] = 0\n 14411: u64 [a4 + 1528] = 0\n 14415: u64 [a4 + 1520] = 0\n 14419: u64 [a4 + 1512] = 0x2\n 14424: a0 = s1 + 0x500\n 14428: a1 = s1 + 0x1620\n 14432: ra = 486, jump @21\n      : @533 [@dyn 243] (gas: 12)\n 14438: a1 = s1 + 0x500\n 14442: a0 = u64 [a1 + 0x18]\n 14445: u64 [s1 + 0xb8] = a0\n 14449: a0 = u64 [a1 + 0x10]\n 14452: u64 [s1 + 0xb0] = a0\n 14456: a0 = u64 [a1 + 0x8]\n 14459: u64 [s1 + 0xa8] = a0\n 14463: a0 = u64 [a1]\n 14465: u64 [s1 + 0xa0] = a0\n 14469: a0 = s1 + 0x4e0\n 14473: a1 = 0x40\n 14476: ra = 488, jump @17\n      : @534 [@dyn 244] (gas: 6)\n 14482: a4 = s1 + 0x400\n 14486: a0 = u64 [a4 + 0xf8]\n 14490: a1 = u64 [a4 + 0xf0]\n 14494: a2 = u64 [a4 + 0xe8]\n 14498: a3 = u64 [a4 + 0xe0]\n 14502: t0 = 490, jump @1409\n      : @535 [@dyn 245] (gas: 1)\n 14508: jump @653 if a0 != 0\n      : @536 (gas: 14)\n 14512: a0 = u64 [s1 + 0xa0]\n 14516: a2 = s1 + 0x400\n 14520: u64 [a2 + 0xc0] = a0\n 14524: a0 = u64 [s1 + 0xa8]\n 14528: u64 [a2 + 0xc8] = a0\n 14532: a0 = u64 [s1 + 0xb0]\n 14536: u64 [a2 + 0xd0] = a0\n 14540: a1 = s1 + 0x4c0\n 14544: a0 = u64 [s1 + 0xb8]\n 14548: u64 [a2 + 0xd8] = a0\n 14552: a0 = a3\n 14554: u64 [s1 + 0xb8] = a3\n 14558: ra = 0x2c6\n 14562: jump @19\n      : @537 (gas: 2)\n 14565: a2 = s1 + 0x1838\n 14569: jump @539 if a0 == 1889567281\n      : @538 (gas: 1)\n 14576: jump @733\n      : @539 (gas: 8)\n 14579: u64 [a2 + 224] = 0\n 14583: u64 [a2 + 216] = 0\n 14587: u64 [a2 + 208] = 0\n 14591: u64 [a2 + 200] = 0\n 14595: a0 = s1 + 0x2000\n 14599: i32 a0 = a0 + 0xfffffffffffff900\n 14603: ecalli 10 // 'value_transferred'\n 14605: fallthrough\n      : @540 (gas: 9)\n 14606: a3 = s1 + 0x1838\n 14610: a0 = u64 [a3 + 0xd8]\n 14614: a1 = u64 [a3 + 0xe0]\n 14618: a2 = u64 [a3 + 0xd0]\n 14622: a3 = u64 [a3 + 0xc8]\n 14626: a1 = a1 | a2\n 14629: a0 = a0 | a3\n 14632: a0 = a0 | a1\n 14635: jump @542 if a0 == 0\n      : @541 (gas: 1)\n 14638: jump @739\n      : @542 (gas: 4)\n 14641: a0 = u64 [s1 + 0xb8]\n 14645: a0 = i32 [a0]\n 14647: a1 = 0x23\n 14650: jump @544 if a1 <u a0\n      : @543 (gas: 1)\n 14653: jump @740\n      : @544 (gas: 5)\n 14656: a0 = s1 + 0x7ff\n 14660: a0 = a0 + 0x541\n 14664: ra = 0x1ec\n 14668: t0 = 0x3f8\n 14672: jump @1417\n      : @545 [@dyn 246] (gas: 14)\n 14675: a3 = s1 + 0x7ff\n 14679: a3 = a3 + 0x39\n 14682: a0 = u64 [a3 + 0x508]\n 14686: a1 = u64 [a3 + 0x510]\n 14690: a2 = u32 [a3 + 0x518]\n 14694: u64 [a3 + 1280] = 0\n 14698: a4 = a3 + 0x400\n 14702: u64 [a4 + 0xf8] = a2\n 14706: u64 [a4 + 0xf0] = a1\n 14710: a1 = s1 + 0x7ff\n 14714: a1 = a1 + 0x521\n 14718: u64 [a4 + 0xe8] = a0\n 14722: a0 = 0\n 14724: ra = 494, jump @19\n      : @546 [@dyn 247] (gas: 11)\n 14730: a0 = s1 + 0x7ff\n 14734: a0 = a0 + 0x39\n 14737: u64 [a0 + 1248] = 0\n 14741: u64 [a0 + 1240] = 0\n 14745: u64 [a0 + 1232] = 0\n 14749: a2 = a0\n 14751: a0 = 0x20\n 14754: a1 = s1 + 0x7ff\n 14758: a1 = a1 + 0x501\n 14762: u64 [a2 + 1224] = 0\n 14766: ra = 496, jump @19\n      : @547 [@dyn 248] (gas: 2)\n 14772: a1 = i32 [0x20264]\n 14777: jump @549 if a1 >u 63\n      : @548 (gas: 2)\n 14781: u32 [0x20264] = 0x40\n 14787: fallthrough\n      : @549 (gas: 11)\n 14788: a0 = sp + 0xffffffffffffffe0\n 14791: a2 = a0 & 0xffffffffffffffe0\n 14794: u64 [s1 + 0xb8] = a2\n 14798: sp = a2\n 14800: a0 = 0x20270\n 14805: i32 a0 = a0 + 0\n 14807: i32 a2 = a2 + 0\n 14809: a1 = 0x40\n 14812: ra = 0x1f2\n 14816: ecalli 6 // 'hash_keccak_256'\n 14818: fallthrough\n      : @550 [@dyn 249] (gas: 6)\n 14819: a3 = u64 [s1 + 0xb8]\n 14823: a0 = u64 [a3 + 0x18]\n 14826: a1 = u64 [a3 + 0x10]\n 14829: a2 = u64 [a3 + 0x8]\n 14832: a3 = u64 [a3]\n 14834: t0 = 500, jump @1377\n      : @551 [@dyn 250] (gas: 9)\n 14840: a4 = s1 + 0x1838\n 14844: u64 [a4 + 0x100] = a3\n 14848: u64 [a4 + 0xf8] = a2\n 14852: u64 [a4 + 0xf0] = a1\n 14856: u64 [a4 + 0xe8] = a0\n 14860: a0 = s1 + 0x7ff\n 14864: a0 = a0 + 0x4e1\n 14868: a1 = s1 + 0x1920\n 14872: ra = 502, jump @21\n      : @552 [@dyn 251] (gas: 15)\n 14878: a1 = s1 + 0x7ff\n 14882: a1 = a1 + 0x39\n 14885: a2 = a1 + 0x400\n 14889: a0 = u64 [a2 + 0xc0]\n 14893: u64 [s1 + 0xb8] = a0\n 14897: a0 = u64 [a2 + 0xb8]\n 14901: u64 [s1 + 0xb0] = a0\n 14905: a0 = u64 [a2 + 0xb0]\n 14909: u64 [s1 + 0xa8] = a0\n 14913: a0 = u64 [a2 + 0xa8]\n 14917: u64 [s1 + 0xa0] = a0\n 14921: a0 = s1 + 0x7ff\n 14925: a0 = a0 + 0x4c1\n 14929: a1 = 0x40\n 14932: ra = 504, jump @17\n      : @553 [@dyn 252] (gas: 4)\n 14938: a3 = s1 + 0x7ff\n 14942: a3 = a3 + 0x39\n 14945: a5 = a3 + 0x400\n 14949: t0 = 506, jump @1408\n      : @554 [@dyn 253] (gas: 1)\n 14955: jump @653 if a0 != 0\n      : @555 (gas: 15)\n 14959: a0 = u64 [s1 + 0xa0]\n 14963: a2 = a3 + 0x400\n 14967: u64 [a2 + 0x68] = a0\n 14970: a0 = u64 [s1 + 0xa8]\n 14974: u64 [a2 + 0x70] = a0\n 14977: a0 = u64 [s1 + 0xb0]\n 14981: u64 [a2 + 0x78] = a0\n 14984: a1 = s1 + 0x7ff\n 14988: a1 = a1 + 0x4a1\n 14992: a0 = u64 [s1 + 0xb8]\n 14996: u64 [a2 + 0x80] = a0\n 15000: a0 = a4\n 15002: u64 [s1 + 0xb8] = a4\n 15006: ra = 0x2c6\n 15010: jump @19\n      : @556 (gas: 11)\n 15013: a0 = s1 + 0x1838\n 15017: u64 [a0 + 352] = 0\n 15021: u64 [a0 + 344] = 0\n 15025: u64 [a0 + 336] = 0\n 15029: u64 [a0 + 328] = 0\n 15033: a0 = s1 + 0x2000\n 15037: i32 a0 = a0 + 0xfffffffffffff980\n 15041: ra = 0x1fc\n 15045: ecalli 10 // 'value_transferred'\n 15047: t0 = 0x1fe\n 15051: jump @1397\n      : @557 [@dyn 254] (gas: 1)\n 15054: t0 = 510, jump @1397\n      : @558 [@dyn 255] (gas: 1)\n 15060: t0 = 512, jump @1396\n      : @559 [@dyn 256] (gas: 1)\n 15066: jump @561 if a0 == 0\n      : @560 (gas: 1)\n 15069: jump @741\n      : @561 (gas: 3)\n 15072: a0 = u64 [s1 + 0xb8]\n 15076: a0 = i32 [a0]\n 15078: jump @563 if a0 >u 3\n      : @562 (gas: 1)\n 15082: jump @742\n      : @563 (gas: 1)\n 15085: ra = 514, jump @1157\n      : @564 [@dyn 257] (gas: 1)\n 15091: ra = 516, jump @1338\n      : @565 [@dyn 258] (gas: 9)\n 15097: a1 = s1 + 0x1838\n 15101: u64 [a1 + 384] = 0\n 15105: u64 [a1 + 376] = 0\n 15109: u64 [a1 + 368] = 0\n 15113: u64 [a1 + 360] = 0x5\n 15118: a0 = s1 + 0x7ff\n 15122: a0 = a0 + 0x681\n 15126: a1 = s1 + 0x19a0\n 15130: ra = 518, jump @21\n      : @566 [@dyn 259] (gas: 22)\n 15136: a3 = s1 + 0x7ff\n 15140: a3 = a3 + 0x39\n 15143: a4 = a3 + 0x600\n 15147: a0 = u64 [a4 + 0x48]\n 15150: a1 = u64 [a4 + 0x50]\n 15153: a2 = u64 [a4 + 0x58]\n 15156: a3 = u64 [a4 + 0x60]\n 15159: a0 = a0 & 0xffffffffffffff00\n 15163: a0 = a0 | 0x1\n 15166: a4 = s1 + 0x1838\n 15170: u64 [a4 + 416] = 0\n 15174: u64 [a4 + 408] = 0\n 15178: u64 [a4 + 400] = 0\n 15182: u64 [a4 + 392] = 0x5\n 15187: a5 = a4 + 0x100\n 15191: u64 [a5 + 0xc0] = a3\n 15195: u64 [a5 + 0xb8] = a2\n 15199: u64 [a5 + 0xb0] = a1\n 15203: u64 [a5 + 0xa8] = a0\n 15207: a0 = s1 + 0x19c0\n 15211: a1 = s1 + 0x19e0\n 15215: ra = 520, jump @24\n      : @567 [@dyn 260] (gas: 4)\n 15221: a0 = s1 + 0x7ff\n 15225: a0 = a0 + 0x661\n 15229: a1 = 0x40\n 15232: ra = 522, jump @17\n      : @568 [@dyn 261] (gas: 18)\n 15238: a0 = s1 + 0x7ff\n 15242: a0 = a0 + 0x39\n 15245: a2 = a0 + 0x600\n 15249: a1 = u64 [a2 + 0x40]\n 15252: u64 [s1 + 0xb0] = a1\n 15256: a1 = u64 [a2 + 0x38]\n 15259: u64 [s1 + 0xa8] = a1\n 15263: a1 = u64 [a2 + 0x30]\n 15266: u64 [s1 + 0xa0] = a1\n 15270: a0 = u64 [a2 + 0x28]\n 15273: u64 [s1 + 0xb8] = a0\n 15277: a0 = 0x30270\n 15282: u64 [s1 + 0x98] = a0\n 15286: i32 a0 = a0 + 0\n 15288: ra = 0x20c\n 15292: ecalli 3 // 'caller'\n 15294: t0 = 0x20e\n 15298: jump @1404\n      : @569 [@dyn 262] (gas: 1)\n 15301: t0 = 526, jump @1404\n      : @570 [@dyn 263] (gas: 1)\n 15307: jump @653 if a0 != 0\n      : @571 (gas: 2)\n 15311: a2 = u64 [s1 + 0x98]\n 15315: t0 = 528, jump @1347\n      : @572 [@dyn 264] (gas: 9)\n 15321: u64 [a2 + 1568] = 0\n 15325: a5 = a2 + 0x600\n 15329: u64 [a5 + 0x18] = a1\n 15332: u64 [a5 + 0x10] = a0\n 15335: a1 = s1 + 0x7ff\n 15339: a1 = a1 + 0x641\n 15343: u64 [a5 + 0x8] = a3\n 15346: a0 = a4\n 15348: ra = 530, jump @19\n      : @573 [@dyn 265] (gas: 16)\n 15354: a0 = u64 [0x20080]\n 15359: a1 = u64 [0x20088]\n 15364: a2 = s1 + 0x7ff\n 15368: a2 = a2 + 0x39\n 15371: u64 [a2 + 0x600] = a0\n 15375: a0 = u64 [0x20090]\n 15380: u64 [a2 + 0x5f8] = a1\n 15384: a3 = u64 [0x20098]\n 15389: u64 [a2 + 0x5f0] = a0\n 15393: a0 = a2\n 15395: a1 = 0x20\n 15398: a2 = s1 + 0x7ff\n 15402: a2 = a2 + 0x621\n 15406: u64 [a0 + 0x5e8] = a3\n 15410: a0 = u64 [s1 + 0xb8]\n 15414: ra = 532, jump @25\n      : @574 [@dyn 266] (gas: 6)\n 15420: a1 = 0x20270\n 15425: i32 a1 = a1 + 0\n 15427: a0 = 0\n 15429: a2 = 0\n 15431: ecalli 7 // 'seal_return'\n 15433: jump @824\n      : @575 (gas: 5)\n 15436: i32 a1 = a1 + 0\n 15438: a0 = 0\n 15440: a2 = 0\n 15442: ecalli 7 // 'seal_return'\n 15444: jump @824\n      : @576 (gas: 10)\n 15447: u64 [a2 + 1632] = 0\n 15451: u64 [a2 + 1624] = 0\n 15455: u64 [a2 + 1616] = 0\n 15459: u64 [a2 + 1608] = 0\n 15463: a0 = s1 + 0x1000\n 15467: i32 a0 = a0 + 0x680\n 15471: ra = 0x216\n 15475: ecalli 10 // 'value_transferred'\n 15477: t0 = 0x218\n 15481: jump @1378\n      : @577 [@dyn 267] (gas: 1)\n 15484: t0 = 536, jump @1378\n      : @578 [@dyn 268] (gas: 1)\n 15490: t0 = 538, jump @1396\n      : @579 [@dyn 269] (gas: 1)\n 15496: jump @581 if a0 == 0\n      : @580 (gas: 1)\n 15499: jump @743\n      : @581 (gas: 3)\n 15502: a0 = u64 [s1 + 0xb8]\n 15506: a0 = i32 [a0]\n 15508: jump @583 if a0 >u 35\n      : @582 (gas: 1)\n 15512: jump @744\n      : @583 (gas: 7)\n 15515: a0 = s1 + 0x1000\n 15519: i32 a0 = a0 + 0x6a0\n 15523: a1 = 0x4\n 15526: ra = 0x21c\n 15530: ecalli 1 // 'call_data_load'\n 15532: t0 = 0x21e\n 15536: jump @1378\n      : @584 [@dyn 270] (gas: 1)\n 15539: t0 = 542, jump @1378\n      : @585 [@dyn 271] (gas: 11)\n 15545: a2 = u64 [a4 + 0x68]\n 15548: a0 = u64 [a4 + 0x70]\n 15551: a1 = u64 [a4 + 0x78]\n 15554: a3 = u64 [a4 + 0x80]\n 15558: u64 [s1 + 0x6b8] = a3\n 15562: u64 [s1 + 0x6b0] = a1\n 15566: u64 [s1 + 0x6a8] = a0\n 15570: a0 = s1 + 0x6c0\n 15574: a1 = s1 + 0x6a0\n 15578: u64 [s1 + 0x6a0] = a2\n 15582: ra = 544, jump @1050\n      : @586 [@dyn 272] (gas: 11)\n 15588: a0 = u64 [s1 + 0x6d8]\n 15592: u64 [s1 + 0xb8] = a0\n 15596: a0 = u64 [s1 + 0x6d0]\n 15600: u64 [s1 + 0xb0] = a0\n 15604: a0 = u64 [s1 + 0x6c8]\n 15608: u64 [s1 + 0xa8] = a0\n 15612: a0 = u64 [s1 + 0x6c0]\n 15616: u64 [s1 + 0xa0] = a0\n 15620: a0 = s1 + 0x680\n 15624: a1 = 0x40\n 15627: ra = 546, jump @17\n      : @587 [@dyn 273] (gas: 6)\n 15633: a4 = s1 + 0x600\n 15637: a0 = u64 [a4 + 0x98]\n 15641: a1 = u64 [a4 + 0x90]\n 15645: a2 = u64 [a4 + 0x88]\n 15649: a3 = u64 [a4 + 0x80]\n 15653: t0 = 548, jump @1409\n      : @588 [@dyn 274] (gas: 1)\n 15659: jump @653 if a0 != 0\n      : @589 (gas: 14)\n 15663: a0 = u64 [s1 + 0xa0]\n 15667: a2 = s1 + 0x600\n 15671: u64 [a2 + 0x60] = a0\n 15674: a0 = u64 [s1 + 0xa8]\n 15678: u64 [a2 + 0x68] = a0\n 15681: a0 = u64 [s1 + 0xb0]\n 15685: u64 [a2 + 0x70] = a0\n 15688: a1 = s1 + 0x660\n 15692: a0 = u64 [s1 + 0xb8]\n 15696: u64 [a2 + 0x78] = a0\n 15699: a0 = a3\n 15701: u64 [s1 + 0xb8] = a3\n 15705: ra = 0x2c6\n 15709: jump @19\n      : @590 (gas: 11)\n 15712: a0 = s1 + 0x1838\n 15716: u64 [a0 + 640] = 0\n 15720: u64 [a0 + 632] = 0\n 15724: u64 [a0 + 624] = 0\n 15728: u64 [a0 + 616] = 0\n 15732: a0 = s1 + 0x2000\n 15736: i32 a0 = a0 + 0xfffffffffffffaa0\n 15740: ra = 0x226\n 15744: ecalli 10 // 'value_transferred'\n 15746: t0 = 0x228\n 15750: jump @1384\n      : @591 [@dyn 275] (gas: 1)\n 15753: t0 = 552, jump @1384\n      : @592 [@dyn 276] (gas: 8)\n 15759: a0 = u64 [a4 + 0x78]\n 15762: a1 = u64 [a4 + 0x80]\n 15766: a2 = u64 [a4 + 0x70]\n 15769: a3 = u64 [a4 + 0x68]\n 15772: a1 = a1 | a2\n 15775: a0 = a0 | a3\n 15778: a0 = a0 | a1\n 15781: jump @594 if a0 == 0\n      : @593 (gas: 1)\n 15784: jump @745\n      : @594 (gas: 4)\n 15787: a0 = u64 [s1 + 0xb8]\n 15791: a0 = i32 [a0]\n 15793: a1 = 0x43\n 15796: jump @596 if a1 <u a0\n      : @595 (gas: 1)\n 15799: jump @746\n      : @596 (gas: 4)\n 15802: a0 = s1 + 0x1260\n 15806: ra = 0x22a\n 15810: t0 = 0x3f8\n 15814: jump @1417\n      : @597 [@dyn 277] (gas: 31)\n 15817: a1 = s1 + 0x1038\n 15821: a2 = a1 + 0x200\n 15825: a0 = u64 [a2 + 0x28]\n 15828: u64 [s1 + 0xb8] = a0\n 15832: a0 = u64 [a2 + 0x30]\n 15835: u64 [s1 + 0xb0] = a0\n 15839: a0 = u64 [a2 + 0x38]\n 15842: u64 [s1 + 0xa8] = a0\n 15846: a0 = u64 [a2 + 0x40]\n 15849: u64 [s1 + 0xa0] = a0\n 15853: a0 = s1 + 0x2000\n 15857: i32 a0 = a0 + 0xfffffffffffffac0\n 15861: a1 = 0x24\n 15864: ecalli 1 // 'call_data_load'\n 15866: a0 = s1 + 0x1838\n 15870: a2 = a0 + 0x200\n 15874: a1 = u64 [a2 + 0x88]\n 15878: u64 [s1 + 0x98] = a1\n 15882: a1 = u64 [a2 + 0x90]\n 15886: u64 [s1 + 0x90] = a1\n 15890: a1 = u64 [a2 + 0x98]\n 15894: u64 [s1 + 0x88] = a1\n 15898: a0 = u64 [a2 + 0xa0]\n 15902: u64 [s1 + 0x80] = a0\n 15906: a0 = 0x30270\n 15911: u64 [s1 + 0x78] = a0\n 15914: i32 a0 = a0 + 0\n 15916: ra = 0x22c\n 15920: ecalli 3 // 'caller'\n 15922: t0 = 0x22e\n 15926: jump @1379\n      : @598 [@dyn 278] (gas: 1)\n 15929: t0 = 558, jump @1379\n      : @599 [@dyn 279] (gas: 27)\n 15935: a3 = s1 + 0x1038\n 15939: a4 = u64 [s1 + 0x80]\n 15943: a5 = a3 + 0x100\n 15947: u64 [a5 + 0xe0] = a4\n 15951: a4 = u64 [s1 + 0x88]\n 15955: u64 [a5 + 0xd8] = a4\n 15959: a4 = u64 [s1 + 0x90]\n 15963: u64 [a5 + 0xd0] = a4\n 15967: a4 = u64 [s1 + 0x98]\n 15971: u64 [a5 + 0xc8] = a4\n 15975: a4 = u64 [s1 + 0xa0]\n 15979: u64 [a3 + 0x200] = a4\n 15983: a4 = u64 [s1 + 0xa8]\n 15987: u64 [a5 + 0xf8] = a4\n 15991: a4 = u64 [s1 + 0xb0]\n 15995: u64 [a5 + 0xf0] = a4\n 15999: a4 = u64 [s1 + 0xb8]\n 16003: u64 [a5 + 0xe8] = a4\n 16007: a4 = a3 + 0x200\n 16011: u64 [a4 + 0x18] = a2\n 16014: u64 [a4 + 0x10] = a0\n 16017: u64 [a4 + 0x8] = a1\n 16020: a0 = s1 + 0x1240\n 16024: a1 = s1 + 0x1220\n 16028: a2 = s1 + 0x1200\n 16032: u64 [a3 + 544] = 0\n 16036: ra = 560, jump @1105\n      : @600 [@dyn 280] (gas: 3)\n 16042: a0 = s1 + 0x11e0\n 16046: a1 = 0x40\n 16049: ra = 562, jump @17\n      : @601 [@dyn 281] (gas: 7)\n 16055: a3 = s1 + 0x1038\n 16059: a5 = a3 + 0x100\n 16063: a4 = u64 [a5 + 0xc0]\n 16067: a1 = u64 [a5 + 0xb8]\n 16071: a2 = u64 [a5 + 0xb0]\n 16075: a0 = u64 [a5 + 0xa8]\n 16079: t0 = 564, jump @1367\n      : @602 [@dyn 282] (gas: 1)\n 16085: jump @653 if a1 != 0\n      : @603 (gas: 8)\n 16089: u64 [a3 + 416] = 0\n 16093: u64 [a3 + 408] = 0\n 16097: u64 [a3 + 392] = 0x1\n 16102: a1 = s1 + 0x11c0\n 16106: u64 [a3 + 400] = 0\n 16110: u64 [s1 + 0xb8] = a0\n 16114: ra = 0x2c6\n 16118: jump @19\n      : @604 (gas: 10)\n 16121: u64 [a2 + 1568] = 0\n 16125: u64 [a2 + 1560] = 0\n 16129: u64 [a2 + 1552] = 0\n 16133: u64 [a2 + 1544] = 0\n 16137: a0 = s1 + 0x1000\n 16141: i32 a0 = a0 + 0x640\n 16145: ra = 0x236\n 16149: ecalli 10 // 'value_transferred'\n 16151: t0 = 0x238\n 16155: jump @1378\n      : @605 [@dyn 283] (gas: 1)\n 16158: t0 = 568, jump @1378\n      : @606 [@dyn 284] (gas: 1)\n 16164: t0 = 570, jump @1385\n      : @607 [@dyn 285] (gas: 1)\n 16170: jump @747 if a0 != 0\n      : @608 (gas: 4)\n 16174: a0 = u64 [s1 + 0xb8]\n 16178: a0 = i32 [a0]\n 16180: a1 = 0x63\n 16183: jump @748 if a1 >=u a0\n      : @609 (gas: 4)\n 16187: a0 = s1 + 0x640\n 16191: ra = 0x23c\n 16195: t0 = 0x3f8\n 16199: jump @1417\n      : @610 [@dyn 286] (gas: 12)\n 16202: a0 = u64 [s1 + 0x640]\n 16206: u64 [s1 + 0xb8] = a0\n 16210: a0 = u64 [s1 + 0x648]\n 16214: u64 [s1 + 0xb0] = a0\n 16218: a0 = u64 [s1 + 0x650]\n 16222: u64 [s1 + 0xa8] = a0\n 16226: a0 = u64 [s1 + 0x658]\n 16230: u64 [s1 + 0xa0] = a0\n 16234: a0 = s1 + 0x620\n 16238: ra = 0x23e\n 16242: t0 = 0x402\n 16246: jump @1417\n      : @611 [@dyn 287] (gas: 65)\n 16249: a0 = u64 [s1 + 0x620]\n 16253: u64 [s1 + 0x78] = a0\n 16256: a0 = u64 [s1 + 0x628]\n 16260: u64 [s1 + 0x70] = a0\n 16263: a0 = u64 [s1 + 0x630]\n 16267: u64 [s1 + 0x68] = a0\n 16270: a0 = u64 [s1 + 0x638]\n 16274: u64 [s1 + 0x60] = a0\n 16277: a0 = s1 + 0x1000\n 16281: i32 a0 = a0 + 0x660\n 16285: a1 = 0x44\n 16288: ecalli 1 // 'call_data_load'\n 16290: a0 = s1 + 0x1038\n 16294: a2 = a0 + 0x600\n 16298: a1 = u64 [a2 + 0x28]\n 16301: u64 [s1 + 0x98] = a1\n 16305: a1 = u64 [a2 + 0x30]\n 16308: u64 [s1 + 0x90] = a1\n 16312: a1 = u64 [a2 + 0x38]\n 16315: u64 [s1 + 0x88] = a1\n 16319: a0 = u64 [a2 + 0x40]\n 16322: u64 [s1 + 0x80] = a0\n 16326: a0 = 0x30270\n 16331: u64 [s1 + 0x58] = a0\n 16334: i32 a0 = a0 + 0\n 16336: ecalli 3 // 'caller'\n 16338: a2 = u64 [s1 + 0x58]\n 16341: a0 = u64 [a2 + 0x8]\n 16344: a1 = i32 [a2 + 0x10]\n 16347: a2 = u64 [a2]\n 16349: a0 = reverse a0\n 16351: a3 = a0 << 0x20\n 16354: a1 = reverse a1\n 16356: a1 = a1 >> 0x20\n 16359: a3 = a3 | a1\n 16362: a0 = a0 >> 0x20\n 16365: a1 = reverse a2\n 16367: a2 = a1 << 0x20\n 16370: a0 = a0 | a2\n 16373: a1 = a1 >> 0x20\n 16376: a2 = u64 [s1 + 0x80]\n 16380: u64 [s1 + 0x5d8] = a2\n 16384: a2 = u64 [s1 + 0x88]\n 16388: u64 [s1 + 0x5d0] = a2\n 16392: a2 = u64 [s1 + 0x90]\n 16396: u64 [s1 + 0x5c8] = a2\n 16400: a2 = u64 [s1 + 0x98]\n 16404: u64 [s1 + 0x5c0] = a2\n 16408: u64 [s1 + 1528] = 0\n 16412: a2 = u64 [s1 + 0xa0]\n 16416: a4 = s1 + 0x600\n 16420: u64 [a4 + 0x18] = a2\n 16423: a2 = u64 [s1 + 0xa8]\n 16427: u64 [a4 + 0x10] = a2\n 16430: a2 = u64 [s1 + 0xb0]\n 16434: u64 [a4 + 0x8] = a2\n 16437: a2 = u64 [s1 + 0xb8]\n 16441: u64 [a4] = a2\n 16443: u64 [s1 + 0x5f0] = a1\n 16447: u64 [s1 + 0x5e8] = a0\n 16451: a0 = s1 + 0x600\n 16455: a1 = s1 + 0x5e0\n 16459: a2 = s1 + 0x5c0\n 16463: u64 [s1 + 0x5e0] = a3\n 16467: ra = 576, jump @1058\n      : @612 [@dyn 288] (gas: 28)\n 16473: a0 = u64 [s1 + 0x80]\n 16477: u64 [s1 + 0x578] = a0\n 16481: a0 = u64 [s1 + 0x88]\n 16485: u64 [s1 + 0x570] = a0\n 16489: a0 = u64 [s1 + 0x90]\n 16493: u64 [s1 + 0x568] = a0\n 16497: a0 = u64 [s1 + 0x98]\n 16501: u64 [s1 + 0x560] = a0\n 16505: a0 = u64 [s1 + 0x60]\n 16508: u64 [s1 + 0x598] = a0\n 16512: a0 = u64 [s1 + 0x68]\n 16515: u64 [s1 + 0x590] = a0\n 16519: a0 = u64 [s1 + 0x70]\n 16522: u64 [s1 + 0x588] = a0\n 16526: a0 = u64 [s1 + 0x78]\n 16529: u64 [s1 + 0x580] = a0\n 16533: a0 = u64 [s1 + 0xa0]\n 16537: u64 [s1 + 0x5b8] = a0\n 16541: a0 = u64 [s1 + 0xa8]\n 16545: u64 [s1 + 0x5b0] = a0\n 16549: a0 = u64 [s1 + 0xb0]\n 16553: u64 [s1 + 0x5a8] = a0\n 16557: a0 = s1 + 0x5a0\n 16561: a1 = s1 + 0x580\n 16565: a2 = s1 + 0x560\n 16569: a3 = u64 [s1 + 0xb8]\n 16573: u64 [s1 + 0x5a0] = a3\n 16577: ra = 578, jump @1105\n      : @613 [@dyn 289] (gas: 3)\n 16583: a0 = s1 + 0x540\n 16587: a1 = 0x40\n 16590: ra = 580, jump @17\n      : @614 [@dyn 290] (gas: 6)\n 16596: a4 = s1 + 0x500\n 16600: a3 = u64 [a4 + 0x58]\n 16603: a1 = u64 [a4 + 0x50]\n 16606: a2 = u64 [a4 + 0x48]\n 16609: a0 = u64 [a4 + 0x40]\n 16612: t0 = 582, jump @1368\n      : @615 [@dyn 291] (gas: 1)\n 16618: jump @653 if a1 != 0\n      : @616 (gas: 8)\n 16622: u64 [s1 + 1336] = 0\n 16626: u64 [s1 + 1328] = 0\n 16630: u64 [s1 + 1320] = 0\n 16634: a1 = s1 + 0x520\n 16638: u64 [s1 + 1312] = 0x1\n 16643: u64 [s1 + 0xb8] = a0\n 16647: ra = 0x2c6\n 16651: jump @19\n      : @617 (gas: 9)\n 16654: a0 = s1 + 0x1838\n 16658: u64 [a0 + 832] = 0\n 16662: u64 [a0 + 824] = 0\n 16666: u64 [a0 + 816] = 0\n 16670: u64 [a0 + 808] = 0\n 16674: a0 = s1 + 0x2000\n 16678: i32 a0 = a0 + 0xfffffffffffffb60\n 16682: ecalli 10 // 'value_transferred'\n 16684: fallthrough\n      : @618 (gas: 10)\n 16685: a3 = s1 + 0x1838\n 16689: a4 = a3 + 0x300\n 16693: a0 = u64 [a4 + 0x38]\n 16696: a1 = u64 [a4 + 0x40]\n 16699: a2 = u64 [a4 + 0x30]\n 16702: a3 = u64 [a4 + 0x28]\n 16705: a1 = a1 | a2\n 16708: a0 = a0 | a3\n 16711: a0 = a0 | a1\n 16714: jump @749 if a0 != 0\n      : @619 (gas: 3)\n 16718: a0 = u64 [s1 + 0xb8]\n 16722: a0 = i32 [a0]\n 16724: jump @750 if a0 <=u 3\n      : @620 (gas: 3)\n 16729: a0 = s1 + 0x14e0\n 16733: a1 = 0x40\n 16736: ra = 584, jump @17\n      : @621 [@dyn 292] (gas: 7)\n 16742: a3 = s1 + 0x1038\n 16746: a5 = a3 + 0x400\n 16750: a4 = u64 [a5 + 0xc0]\n 16754: a1 = u64 [a5 + 0xb8]\n 16758: a2 = u64 [a5 + 0xb0]\n 16762: a0 = u64 [a5 + 0xa8]\n 16766: t0 = 586, jump @1367\n      : @622 [@dyn 293] (gas: 1)\n 16772: jump @653 if a1 != 0\n      : @623 (gas: 13)\n 16776: a1 = u64 [0x20020]\n 16781: a5 = a3 + 0x400\n 16785: u64 [a5 + 0xa0] = a1\n 16789: a4 = u64 [0x20028]\n 16794: a1 = u64 [0x20030]\n 16799: a2 = u64 [0x20038]\n 16804: u64 [a5 + 0x98] = a4\n 16808: u64 [a5 + 0x90] = a1\n 16812: a1 = s1 + 0x14c0\n 16816: u64 [a5 + 0x88] = a2\n 16820: u64 [s1 + 0xb8] = a0\n 16824: ra = 0x2c6\n 16828: jump @19\n      : @624 (gas: 10)\n 16831: u64 [a2 + 1440] = 0\n 16835: u64 [a2 + 1432] = 0\n 16839: u64 [a2 + 1424] = 0\n 16843: u64 [a2 + 1416] = 0\n 16847: a0 = s1 + 0x1000\n 16851: i32 a0 = a0 + 0x5c0\n 16855: ra = 0x24c\n 16859: ecalli 10 // 'value_transferred'\n 16861: t0 = 0x24e\n 16865: jump @1422\n      : @625 [@dyn 294] (gas: 1)\n 16868: t0 = 590, jump @1422\n      : @626 [@dyn 295] (gas: 8)\n 16874: a0 = u64 [a4 + 0x98]\n 16878: a1 = u64 [a4 + 0xa0]\n 16882: a2 = u64 [a4 + 0x90]\n 16886: a3 = u64 [a4 + 0x88]\n 16890: a1 = a1 | a2\n 16893: a0 = a0 | a3\n 16896: a0 = a0 | a1\n 16899: jump @751 if a0 != 0\n      : @627 (gas: 4)\n 16903: a0 = u64 [s1 + 0xb8]\n 16907: a0 = i32 [a0]\n 16909: a1 = 0x43\n 16912: jump @752 if a1 >=u a0\n      : @628 (gas: 4)\n 16916: a0 = s1 + 0x4a0\n 16920: ra = 0x250\n 16924: t0 = 0x3f8\n 16928: jump @1417\n      : @629 [@dyn 296] (gas: 36)\n 16931: a1 = s1 + 0x400\n 16935: a0 = u64 [a1 + 0xb0]\n 16939: u64 [s1 + 0x98] = a0\n 16943: a0 = u64 [a1 + 0xa8]\n 16947: u64 [s1 + 0xb0] = a0\n 16951: a0 = u64 [a1 + 0xa0]\n 16955: u64 [s1 + 0xb8] = a0\n 16959: a0 = sp + 0xffffffffffffffe0\n 16962: a0 = a0 & 0xffffffffffffffe0\n 16965: u64 [s1 + 0xa0] = a0\n 16969: sp = a0\n 16971: a0 = s1 + 0x1000\n 16975: i32 a0 = a0 + 0x5e0\n 16979: a1 = 0x24\n 16982: ecalli 1 // 'call_data_load'\n 16984: a0 = s1 + 0x1038\n 16988: a4 = a0 + 0x500\n 16992: a1 = u64 [a4 + 0xc0]\n 16996: a2 = u64 [a4 + 0xb8]\n 17000: a3 = u64 [a4 + 0xb0]\n 17004: a0 = u64 [a4 + 0xa8]\n 17008: u64 [s1 + 0x50] = a1\n 17011: a4 = u64 [s1 + 0xa0]\n 17015: u64 [a4 + 0x18] = a1\n 17018: u64 [s1 + 0x48] = a2\n 17021: u64 [a4 + 0x10] = a2\n 17024: u64 [s1 + 0x40] = a3\n 17027: u64 [a4 + 0x8] = a3\n 17030: u64 [s1 + 0x38] = a0\n 17033: u64 [a4] = a0\n 17035: a0 = 0x30270\n 17040: u64 [s1 + 0xa8] = a0\n 17044: i32 a0 = a0 + 0\n 17046: u64 [s1 + 0x90] = a0\n 17050: ecalli 3 // 'caller'\n 17052: fallthrough\n      : @630 (gas: 7)\n 17053: a2 = u64 [s1 + 0xa8]\n 17057: a0 = u32 [a2 + 0x10]\n 17060: a1 = u64 [a2]\n 17062: a2 = u64 [a2 + 0x8]\n 17065: a0 = a0 | a1\n 17068: a0 = a0 | a2\n 17071: jump @753 if a0 == 0\n      : @631 (gas: 9)\n 17075: a0 = u64 [s1 + 0x98]\n 17079: a0 = a0 << 0x20\n 17082: a1 = a0 >> 0x20\n 17085: a0 = u64 [s1 + 0xb0]\n 17089: a2 = u64 [s1 + 0xb8]\n 17093: a0 = a0 | a2\n 17096: u64 [s1 + 0x98] = a1\n 17100: a0 = a0 | a1\n 17103: jump @758 if a0 == 0\n      : @632 (gas: 23)\n 17107: a0 = u64 [s1 + 0x90]\n 17111: ecalli 3 // 'caller'\n 17113: a2 = u64 [s1 + 0xa8]\n 17117: a0 = u64 [a2 + 0x8]\n 17120: a1 = i32 [a2 + 0x10]\n 17123: a2 = u64 [a2]\n 17125: a0 = reverse a0\n 17127: a3 = a0 << 0x20\n 17130: a1 = reverse a1\n 17132: a1 = a1 >> 0x20\n 17135: a3 = a3 | a1\n 17138: a0 = a0 >> 0x20\n 17141: a1 = reverse a2\n 17143: a2 = a1 << 0x20\n 17146: a0 = a0 | a2\n 17149: a1 = a1 >> 0x20\n 17152: u64 [s1 + 1176] = 0\n 17156: u64 [s1 + 0x490] = a1\n 17160: u64 [s1 + 0x488] = a0\n 17164: a1 = s1 + 0x480\n 17168: u64 [s1 + 0x480] = a3\n 17172: a0 = 0\n 17174: ra = 594, jump @19\n      : @633 [@dyn 297] (gas: 7)\n 17180: u64 [s1 + 1144] = 0\n 17184: u64 [s1 + 1136] = 0\n 17188: u64 [s1 + 1120] = 0x1\n 17193: a0 = 0x20\n 17196: a1 = s1 + 0x460\n 17200: u64 [s1 + 1128] = 0\n 17204: ra = 596, jump @19\n      : @634 [@dyn 298] (gas: 3)\n 17210: a1 = 0x20264\n 17215: a0 = i32 [0x20264]\n 17220: jump @636 if a0 >u 63\n      : @635 (gas: 2)\n 17224: u32 [0x20264] = 0x40\n 17230: fallthrough\n      : @636 (gas: 15)\n 17231: a0 = sp + 0xffffffffffffffe0\n 17234: a2 = a0 & 0xffffffffffffffe0\n 17237: u64 [s1 + 0x78] = a2\n 17240: sp = a2\n 17242: a0 = 0x20270\n 17247: i32 a0 = a0 + 0\n 17249: i32 a2 = a2 + 0\n 17251: u64 [s1 + 0x88] = a1\n 17255: a1 = 0x40\n 17258: u64 [s1 + 0x80] = a0\n 17262: ra = 0x256\n 17266: ecalli 6 // 'hash_keccak_256'\n 17268: a3 = u64 [s1 + 0x78]\n 17271: t0 = 0x258\n 17275: jump @1405\n      : @637 [@dyn 299] (gas: 2)\n 17278: a3 = u64 [s1 + 0x78]\n 17281: t0 = 600, jump @1405\n      : @638 [@dyn 300] (gas: 21)\n 17287: u64 [s1 + 0x70] = a0\n 17290: a0 = reverse a1\n 17292: u64 [s1 + 0x68] = a0\n 17295: a0 = reverse a2\n 17297: u64 [s1 + 0x60] = a0\n 17300: a0 = reverse a3\n 17302: u64 [s1 + 0x58] = a0\n 17305: a0 = sp + 0xffffffffffffffe0\n 17308: a0 = a0 & 0xffffffffffffffe0\n 17311: u64 [s1 + 0x78] = a0\n 17314: sp = a0\n 17316: u64 [s1 + 1112] = 0\n 17320: a0 = u64 [s1 + 0x98]\n 17324: u64 [s1 + 0x450] = a0\n 17328: a0 = u64 [s1 + 0xb0]\n 17332: u64 [s1 + 0x448] = a0\n 17336: a1 = s1 + 0x440\n 17340: a0 = u64 [s1 + 0xb8]\n 17344: u64 [s1 + 0x440] = a0\n 17348: a0 = 0\n 17350: ra = 602, jump @19\n      : @639 [@dyn 301] (gas: 12)\n 17356: a0 = u64 [s1 + 0x58]\n 17359: a3 = s1 + 0x400\n 17363: u64 [a3 + 0x38] = a0\n 17366: a0 = u64 [s1 + 0x60]\n 17369: u64 [a3 + 0x30] = a0\n 17372: a0 = u64 [s1 + 0x68]\n 17375: u64 [a3 + 0x28] = a0\n 17378: a0 = 0x20\n 17381: a1 = s1 + 0x420\n 17385: a2 = u64 [s1 + 0x70]\n 17388: u64 [a3 + 0x20] = a2\n 17391: ra = 604, jump @19\n      : @640 [@dyn 302] (gas: 3)\n 17397: a1 = u64 [s1 + 0x88]\n 17401: a0 = i32 [a1]\n 17403: jump @642 if a0 >u 63\n      : @641 (gas: 2)\n 17407: u32 [a1 + 0] = 0x40\n 17410: fallthrough\n      : @642 (gas: 24)\n 17411: a0 = sp + 0xffffffffffffffe0\n 17414: a0 = a0 & 0xffffffffffffffe0\n 17417: u64 [s1 + 0x88] = a0\n 17421: sp = a0\n 17423: i32 a2 = a0 + 0\n 17425: a1 = 0x40\n 17428: a0 = u64 [s1 + 0x80]\n 17432: ecalli 6 // 'hash_keccak_256'\n 17434: a3 = u64 [s1 + 0x88]\n 17438: a0 = u64 [a3 + 0x18]\n 17441: a1 = u64 [a3 + 0x10]\n 17444: a2 = u64 [a3 + 0x8]\n 17447: a3 = u64 [a3]\n 17449: a4 = reverse a0\n 17451: a1 = reverse a1\n 17453: a2 = reverse a2\n 17455: a3 = reverse a3\n 17457: a0 = u64 [s1 + 0x78]\n 17460: u64 [a0 + 0x18] = a3\n 17463: u64 [a0 + 0x10] = a2\n 17466: u64 [a0 + 0x8] = a1\n 17469: u64 [a0] = a4\n 17471: a1 = u64 [s1 + 0xa0]\n 17475: ra = 606, jump @24\n      : @643 [@dyn 303] (gas: 3)\n 17481: a0 = s1 + 0x400\n 17485: a1 = 0x40\n 17488: ra = 608, jump @17\n      : @644 [@dyn 304] (gas: 6)\n 17494: a4 = s1 + 0x400\n 17498: a0 = u64 [a4 + 0x18]\n 17501: a1 = u64 [a4 + 0x10]\n 17504: a2 = u64 [a4 + 0x8]\n 17507: a3 = u64 [a4]\n 17509: t0 = 610, jump @1409\n      : @645 [@dyn 305] (gas: 1)\n 17515: jump @653 if a0 != 0\n      : @646 (gas: 12)\n 17519: a0 = u64 [s1 + 0x38]\n 17522: u64 [s1 + 0x3e0] = a0\n 17526: a0 = u64 [s1 + 0x40]\n 17529: u64 [s1 + 0x3e8] = a0\n 17533: a0 = u64 [s1 + 0x48]\n 17536: u64 [s1 + 0x3f0] = a0\n 17540: a1 = s1 + 0x3e0\n 17544: a0 = u64 [s1 + 0x50]\n 17547: u64 [s1 + 0x3f8] = a0\n 17551: a0 = a3\n 17553: u64 [s1 + 0xa0] = a3\n 17557: ra = 612, jump @19\n      : @647 [@dyn 306] (gas: 6)\n 17563: a0 = u64 [s1 + 0x90]\n 17567: ra = 0x266\n 17571: ecalli 3 // 'caller'\n 17573: a2 = u64 [s1 + 0xa8]\n 17577: t0 = 0x268\n 17581: jump @1352\n      : @648 [@dyn 307] (gas: 2)\n 17584: a2 = u64 [s1 + 0xa8]\n 17588: t0 = 616, jump @1352\n      : @649 [@dyn 308] (gas: 31)\n 17594: t0 = a1 | a0\n 17597: a3 = a3 >> 0x20\n 17600: a2 = reverse a2\n 17602: a1 = a2 << 0x20\n 17605: a1 = a1 | a3\n 17608: a2 = a2 >> 0x20\n 17611: u64 [s1 + 920] = 0\n 17615: a0 = u64 [s1 + 0x98]\n 17619: u64 [s1 + 0x390] = a0\n 17623: a0 = u64 [s1 + 0xb0]\n 17627: u64 [s1 + 0x388] = a0\n 17631: a0 = u64 [s1 + 0xb8]\n 17635: u64 [s1 + 0x380] = a0\n 17639: u64 [s1 + 952] = 0\n 17643: a3 = u64 [0x200e0]\n 17648: a4 = u64 [0x200e8]\n 17653: a5 = u64 [0x200f0]\n 17658: a0 = u64 [0x200f8]\n 17663: u64 [s1 + 0x3d8] = a3\n 17667: u64 [s1 + 0x3d0] = a4\n 17671: u64 [s1 + 0x3c8] = a5\n 17675: u64 [s1 + 0x3c0] = a0\n 17679: u64 [s1 + 0x3b0] = a2\n 17683: u64 [s1 + 0x3a8] = a1\n 17687: a1 = 0x20\n 17690: a2 = s1 + 0x3c0\n 17694: a3 = s1 + 0x3a0\n 17698: a4 = s1 + 0x380\n 17702: u64 [s1 + 0x3a0] = t0\n 17706: a0 = u64 [s1 + 0xa0]\n 17710: ra = 618, jump @27\n      : @650 [@dyn 309] (gas: 3)\n 17716: a0 = s1 + 0x360\n 17720: a1 = 0x40\n 17723: ra = 620, jump @17\n      : @651 [@dyn 310] (gas: 6)\n 17729: a4 = s1 + 0x300\n 17733: a3 = u64 [a4 + 0x78]\n 17736: a1 = u64 [a4 + 0x70]\n 17739: a2 = u64 [a4 + 0x68]\n 17742: a0 = u64 [a4 + 0x60]\n 17745: t0 = 622, jump @1368\n      : @652 [@dyn 311] (gas: 1)\n 17751: jump @776 if a1 == 0\n      : @653 (gas: 1)\n 17755: trap\n      : @654 (gas: 7)\n 17756: u64 [s1 + 600] = 0\n 17760: u64 [s1 + 592] = 0\n 17764: u64 [s1 + 584] = 0\n 17768: a1 = s1 + 0x240\n 17772: u64 [s1 + 576] = 0x3\n 17777: a0 = 0\n 17779: ra = 624, jump @19\n      : @655 [@dyn 312] (gas: 1)\n 17785: t0 = 626, jump @1415\n      : @656 [@dyn 313] (gas: 30)\n 17791: t0 = u64 [0x20100]\n 17796: a3 = u64 [0x20108]\n 17801: a1 = u64 [s1 + 0x30]\n 17804: a0 = a1 + 0x20\n 17807: u64 [s1 + 0x50] = a0\n 17810: a0 = a0 <u a1\n 17813: a1 = u64 [s1 + 0x20]\n 17816: a2 = a1 + a0\n 17819: u64 [s1 + 0x48] = a2\n 17822: a1 = a2 <u a1\n 17825: a1 = a0 if a0 == 0\n 17828: a5 = u64 [0x20110]\n 17833: a0 = u64 [0x20118]\n 17838: ra = t0\n 17840: u64 [a4 + 0x18] = t0\n 17843: u64 [s1 + 0x78] = a3\n 17846: u64 [a4 + 0x10] = a3\n 17849: t0 = a5\n 17851: u64 [a4 + 0x8] = a5\n 17854: u64 [s1 + 0x98] = a4\n 17858: a2 = a0\n 17860: u64 [a4] = a0\n 17862: a0 = u64 [s1 + 0x28]\n 17865: a1 = a1 + a0\n 17868: u64 [s1 + 0x40] = a1\n 17871: a0 = a1 <u a0\n 17874: a1 = u64 [s1 + 0x18]\n 17877: a0 = a0 + a1\n 17880: u64 [s1 + 0x38] = a0\n 17883: fallthrough\n      : @657 (gas: 3)\n 17884: u64 [s1 + 0x80] = a2\n 17888: u64 [s1 + 0x88] = t0\n 17892: t0 = 628, jump @1366\n      : @658 [@dyn 314] (gas: 1)\n 17898: jump @660 if a3 != 0\n      : @659 (gas: 1)\n 17901: jump @415\n      : @660 (gas: 5)\n 17904: a0 = s1 + 0x220\n 17908: a1 = u64 [s1 + 0x98]\n 17912: u64 [s1 + 0xa8] = t1\n 17916: u64 [s1 + 0xa0] = t2\n 17920: ra = 630, jump @21\n      : @661 [@dyn 315] (gas: 1)\n 17926: t0 = 632, jump @1370\n      : @662 [@dyn 316] (gas: 6)\n 17932: t0 = a1 <u a5\n 17935: a5 = u64 [s1 + 0xb0]\n 17939: a3 = u64 [s1 + 0x38]\n 17942: a5 = a5 + a3\n 17945: a5 = a5 + t0\n 17948: t0 = 634, jump @1399\n      : @663 [@dyn 317] (gas: 1)\n 17954: jump @653 if a1 != 0\n      : @664 (gas: 12)\n 17958: a3 = s1 + 0x200\n 17962: a2 = u64 [a3 + 0x38]\n 17965: a1 = u64 [a3 + 0x30]\n 17968: a5 = u64 [a3 + 0x28]\n 17971: a4 = u64 [a3 + 0x20]\n 17974: u64 [a3] = a4\n 17976: u64 [a3 + 0x8] = a5\n 17979: u64 [a3 + 0x10] = a1\n 17982: a1 = s1 + 0x200\n 17986: u64 [a3 + 0x18] = a2\n 17989: u64 [s1 + 0xb8] = t2\n 17993: ra = 636, jump @19\n      : @665 [@dyn 318] (gas: 1)\n 17999: t0 = 638, jump @1354\n      : @666 [@dyn 319] (gas: 14)\n 18005: t0 = ra\n 18007: a5 = u64 [s1 + 0x98]\n 18011: u64 [a5 + 0x8] = ra\n 18014: a2 = a3\n 18016: u64 [a5] = a3\n 18018: a3 = t2\n 18020: u64 [a5 + 0x10] = a3\n 18023: ra = a0\n 18025: u64 [a5 + 0x18] = a0\n 18028: u64 [s1 + 0x78] = a3\n 18031: u64 [s1 + 0xb8] = t1\n 18035: t2 = a1\n 18037: t1 = a4\n 18039: jump @657\n      : @667 (gas: 8)\n 18042: a2 = s1 + 0x1038\n 18046: u64 [a2 + 224] = 0\n 18050: u64 [a2 + 216] = 0\n 18054: u64 [a2 + 208] = 0\n 18058: a1 = s1 + 0x1100\n 18062: u64 [a2 + 200] = 0x4\n 18067: a0 = 0\n 18069: ra = 640, jump @19\n      : @668 [@dyn 320] (gas: 1)\n 18075: t0 = 642, jump @1415\n      : @669 [@dyn 321] (gas: 30)\n 18081: t0 = u64 [0x20060]\n 18086: a3 = u64 [0x20068]\n 18091: a1 = u64 [s1 + 0x30]\n 18094: a0 = a1 + 0x20\n 18097: u64 [s1 + 0x50] = a0\n 18100: a0 = a0 <u a1\n 18103: a1 = u64 [s1 + 0x20]\n 18106: a2 = a1 + a0\n 18109: u64 [s1 + 0x48] = a2\n 18112: a1 = a2 <u a1\n 18115: a1 = a0 if a0 == 0\n 18118: a5 = u64 [0x20070]\n 18123: a0 = u64 [0x20078]\n 18128: ra = t0\n 18130: u64 [a4 + 0x18] = t0\n 18133: u64 [s1 + 0x78] = a3\n 18136: u64 [a4 + 0x10] = a3\n 18139: t0 = a5\n 18141: u64 [a4 + 0x8] = a5\n 18144: u64 [s1 + 0x98] = a4\n 18148: a2 = a0\n 18150: u64 [a4] = a0\n 18152: a0 = u64 [s1 + 0x28]\n 18155: a1 = a1 + a0\n 18158: u64 [s1 + 0x40] = a1\n 18161: a0 = a1 <u a0\n 18164: a1 = u64 [s1 + 0x18]\n 18167: a0 = a0 + a1\n 18170: u64 [s1 + 0x38] = a0\n 18173: fallthrough\n      : @670 (gas: 3)\n 18174: u64 [s1 + 0x80] = a2\n 18178: u64 [s1 + 0x88] = t0\n 18182: t0 = 644, jump @1366\n      : @671 [@dyn 322] (gas: 1)\n 18188: jump @673 if a3 != 0\n      : @672 (gas: 1)\n 18191: jump @494\n      : @673 (gas: 5)\n 18194: a0 = s1 + 0x10e0\n 18198: a1 = u64 [s1 + 0x98]\n 18202: u64 [s1 + 0xa8] = t1\n 18206: u64 [s1 + 0xa0] = t2\n 18210: ra = 646, jump @21\n      : @674 [@dyn 323] (gas: 1)\n 18216: t0 = 648, jump @1370\n      : @675 [@dyn 324] (gas: 6)\n 18222: t0 = a1 <u a5\n 18225: a5 = u64 [s1 + 0xb0]\n 18229: a3 = u64 [s1 + 0x38]\n 18232: a5 = a5 + a3\n 18235: a5 = a5 + t0\n 18238: t0 = 650, jump @1399\n      : @676 [@dyn 325] (gas: 1)\n 18244: jump @653 if a1 != 0\n      : @677 (gas: 12)\n 18248: a5 = s1 + 0x1038\n 18252: t0 = u64 [a5 + 0xc0]\n 18256: a1 = u64 [a5 + 0xb8]\n 18260: a2 = u64 [a5 + 0xb0]\n 18264: a4 = u64 [a5 + 0xa8]\n 18268: u64 [a5 + 0x88] = a4\n 18272: u64 [a5 + 0x90] = a2\n 18276: u64 [a5 + 0x98] = a1\n 18280: a1 = s1 + 0x10c0\n 18284: u64 [a5 + 0xa0] = t0\n 18288: u64 [s1 + 0xb8] = t2\n 18292: ra = 652, jump @19\n      : @678 [@dyn 326] (gas: 1)\n 18298: t0 = 654, jump @1354\n      : @679 [@dyn 327] (gas: 14)\n 18304: t0 = ra\n 18306: a5 = u64 [s1 + 0x98]\n 18310: u64 [a5 + 0x8] = ra\n 18313: a2 = a3\n 18315: u64 [a5] = a3\n 18317: a3 = t2\n 18319: u64 [a5 + 0x10] = a3\n 18322: ra = a0\n 18324: u64 [a5 + 0x18] = a0\n 18327: u64 [s1 + 0x78] = a3\n 18330: u64 [s1 + 0xb8] = t1\n 18334: t2 = a1\n 18336: t1 = a4\n 18338: jump @670\n      : @680 (gas: 6)\n 18341: a1 = 0x20270\n 18346: i32 a1 = a1 + 0\n 18348: a0 = 0x1\n 18351: a2 = 0\n 18353: ecalli 7 // 'seal_return'\n 18355: jump @824\n      : @681 (gas: 6)\n 18358: a1 = 0x20270\n 18363: i32 a1 = a1 + 0\n 18365: a0 = 0x1\n 18368: a2 = 0\n 18370: ecalli 7 // 'seal_return'\n 18372: jump @824\n      : @682 (gas: 6)\n 18375: a1 = 0x20270\n 18380: i32 a1 = a1 + 0\n 18382: a0 = 0x1\n 18385: a2 = 0\n 18387: ecalli 7 // 'seal_return'\n 18389: jump @824\n      : @683 (gas: 6)\n 18392: a1 = 0x20270\n 18397: i32 a1 = a1 + 0\n 18399: a0 = 0x1\n 18402: a2 = 0\n 18404: ecalli 7 // 'seal_return'\n 18406: jump @824\n      : @684 (gas: 6)\n 18409: a1 = 0x20270\n 18414: i32 a1 = a1 + 0\n 18416: a0 = 0x1\n 18419: a2 = 0\n 18421: ecalli 7 // 'seal_return'\n 18423: jump @824\n      : @685 (gas: 6)\n 18426: a1 = 0x20270\n 18431: i32 a1 = a1 + 0\n 18433: a0 = 0x1\n 18436: a2 = 0\n 18438: ecalli 7 // 'seal_return'\n 18440: jump @824\n      : @686 (gas: 6)\n 18443: a1 = 0x20270\n 18448: i32 a1 = a1 + 0\n 18450: a0 = 0x1\n 18453: a2 = 0\n 18455: ecalli 7 // 'seal_return'\n 18457: jump @824\n      : @687 (gas: 6)\n 18460: a1 = 0x20270\n 18465: i32 a1 = a1 + 0\n 18467: a0 = 0x1\n 18470: a2 = 0\n 18472: ecalli 7 // 'seal_return'\n 18474: jump @824\n      : @688 (gas: 6)\n 18477: a1 = 0x20270\n 18482: i32 a1 = a1 + 0\n 18484: a0 = 0x1\n 18487: a2 = 0\n 18489: ecalli 7 // 'seal_return'\n 18491: jump @824\n      : @689 (gas: 6)\n 18494: a1 = 0x20270\n 18499: i32 a1 = a1 + 0\n 18501: a0 = 0x1\n 18504: a2 = 0\n 18506: ecalli 7 // 'seal_return'\n 18508: jump @824\n      : @690 (gas: 6)\n 18511: a1 = 0x20270\n 18516: i32 a1 = a1 + 0\n 18518: a0 = 0x1\n 18521: a2 = 0\n 18523: ecalli 7 // 'seal_return'\n 18525: jump @824\n      : @691 (gas: 6)\n 18528: a1 = 0x20270\n 18533: i32 a1 = a1 + 0\n 18535: a0 = 0x1\n 18538: a2 = 0\n 18540: ecalli 7 // 'seal_return'\n 18542: jump @824\n      : @692 (gas: 6)\n 18545: a1 = 0x20270\n 18550: i32 a1 = a1 + 0\n 18552: a0 = 0x1\n 18555: a2 = 0\n 18557: ecalli 7 // 'seal_return'\n 18559: jump @824\n      : @693 (gas: 6)\n 18562: a1 = 0x20270\n 18567: i32 a1 = a1 + 0\n 18569: a0 = 0x1\n 18572: a2 = 0\n 18574: ecalli 7 // 'seal_return'\n 18576: jump @824\n      : @694 (gas: 6)\n 18579: u64 [s1 + 272] = 0\n 18583: u64 [s1 + 264] = 0\n 18587: u64 [s1 + 256] = 0\n 18591: t0 = 0x290\n 18595: a0 = 0x4e487b7100000000\n 18605: fallthrough\n      : @695 [@dyn 328] (gas: 4)\n 18606: a1 = s1 + 0x100\n 18610: u64 [s1 + 0x118] = a0\n 18614: a0 = 0\n 18616: ra = 658, jump @19\n      : @696 [@dyn 329] (gas: 7)\n 18622: u64 [s1 + 248] = 0\n 18626: u64 [s1 + 240] = 0\n 18630: u64 [s1 + 224] = 0x22\n 18635: a0 = 0x4\n 18638: a1 = s1 + 0xe0\n 18642: u64 [s1 + 232] = 0\n 18646: ra = 660, jump @19\n      : @697 [@dyn 330] (gas: 2)\n 18652: a1 = i32 [0x20264]\n 18657: jump @699 if a1 >u 63\n      : @698 (gas: 3)\n 18661: u32 [0x20264] = 0x40\n 18667: a1 = 0x20270\n 18672: jump @775\n      : @699 (gas: 2)\n 18675: a1 = 0x20270\n 18680: jump @775\n      : @700 (gas: 6)\n 18683: a1 = 0x20270\n 18688: i32 a1 = a1 + 0\n 18690: a0 = 0x1\n 18693: a2 = 0\n 18695: ecalli 7 // 'seal_return'\n 18697: jump @824\n      : @701 (gas: 6)\n 18700: a1 = 0x20270\n 18705: i32 a1 = a1 + 0\n 18707: a0 = 0x1\n 18710: a2 = 0\n 18712: ecalli 7 // 'seal_return'\n 18714: jump @824\n      : @702 (gas: 9)\n 18717: u64 [a2 + 344] = 0\n 18721: u64 [a2 + 336] = 0\n 18725: u64 [a2 + 328] = 0\n 18729: a0 = 0xe2517d3f00000000\n 18739: a1 = s1 + 0x7ff\n 18743: a1 = a1 + 0x181\n 18747: u64 [a2 + 0x160] = a0\n 18751: a0 = 0\n 18753: ra = 662, jump @19\n      : @703 [@dyn 331] (gas: 6)\n 18759: a0 = u64 [s1 + 0x20]\n 18762: ra = 0x298\n 18766: ecalli 3 // 'caller'\n 18768: a2 = u64 [s1 + 0x70]\n 18771: t0 = 0x29a\n 18775: jump @1347\n      : @704 [@dyn 332] (gas: 2)\n 18778: a2 = u64 [s1 + 0x70]\n 18781: t0 = 666, jump @1347\n      : @705 [@dyn 333] (gas: 9)\n 18787: u64 [a2 + 320] = 0\n 18791: a4 = a2 + 0x100\n 18795: u64 [a4 + 0x38] = a1\n 18798: u64 [a4 + 0x30] = a0\n 18801: a0 = 0x4\n 18804: a1 = s1 + 0x7ff\n 18808: a1 = a1 + 0x161\n 18812: u64 [a4 + 0x28] = a3\n 18815: ra = 668, jump @19\n      : @706 [@dyn 334] (gas: 16)\n 18821: a0 = u64 [s1 + 0x40]\n 18824: a1 = s1 + 0x7ff\n 18828: a1 = a1 + 0x39\n 18831: a2 = a1 + 0x100\n 18835: u64 [a2 + 0x20] = a0\n 18838: a0 = u64 [s1 + 0x30]\n 18841: u64 [a2 + 0x18] = a0\n 18844: a0 = u64 [s1 + 0x28]\n 18847: u64 [a2 + 0x10] = a0\n 18850: a3 = a1\n 18852: a0 = 0x24\n 18855: a1 = s1 + 0x7ff\n 18859: a1 = a1 + 0x141\n 18863: a2 = u64 [s1 + 0x38]\n 18866: u64 [a3 + 0x108] = a2\n 18870: ra = 670, jump @19\n      : @707 [@dyn 335] (gas: 3)\n 18876: a0 = u64 [s1 + 0x98]\n 18880: a0 = i32 [a0]\n 18882: jump @709 if a0 >u 95\n      : @708 (gas: 7)\n 18886: a1 = u64 [s1 + 0x98]\n 18890: u32 [a1 + 0] = 0x60\n 18893: a0 = 0x1\n 18896: a2 = 0x44\n 18899: a1 = u64 [s1 + 0xb8]\n 18903: ecalli 7 // 'seal_return'\n 18905: jump @717\n      : @709 (gas: 5)\n 18908: a0 = 0x1\n 18911: a2 = 0x44\n 18914: a1 = u64 [s1 + 0xb8]\n 18918: ecalli 7 // 'seal_return'\n 18920: jump @717\n      : @710 (gas: 12)\n 18923: a0 = s1 + 0x7ff\n 18927: a0 = a0 + 0x39\n 18930: u64 [a0 + 408] = 0\n 18934: u64 [a0 + 400] = 0\n 18938: u64 [a0 + 392] = 0\n 18942: a2 = a0\n 18944: a0 = 0xec442f0500000000\n 18954: a1 = s1 + 0x7ff\n 18958: a1 = a1 + 0x1c1\n 18962: u64 [a2 + 0x1a0] = a0\n 18966: a0 = 0\n 18968: ra = 672, jump @19\n      : @711 [@dyn 336] (gas: 12)\n 18974: a0 = s1 + 0x7ff\n 18978: a0 = a0 + 0x39\n 18981: u64 [a0 + 384] = 0\n 18985: u64 [a0 + 376] = 0\n 18989: u64 [a0 + 368] = 0\n 18993: a2 = a0\n 18995: a0 = 0x4\n 18998: a1 = s1 + 0x7ff\n 19002: a1 = a1 + 0x1a1\n 19006: u64 [a2 + 360] = 0\n 19010: ra = 0x2a4\n 19014: jump @19\n      : @712 (gas: 12)\n 19017: a0 = s1 + 0x7ff\n 19021: a0 = a0 + 0x39\n 19024: u64 [a0 + 472] = 0\n 19028: u64 [a0 + 464] = 0\n 19032: u64 [a0 + 456] = 0\n 19036: a2 = a0\n 19038: a0 = 0x4e487b7100000000\n 19048: a1 = s1 + 0x7ff\n 19052: a1 = a1 + 0x201\n 19056: u64 [a2 + 0x1e0] = a0\n 19060: a0 = 0\n 19062: ra = 674, jump @19\n      : @713 [@dyn 337] (gas: 11)\n 19068: a1 = s1 + 0x7ff\n 19072: a1 = a1 + 0x39\n 19075: u64 [a1 + 448] = 0\n 19079: u64 [a1 + 440] = 0\n 19083: u64 [a1 + 424] = 0x11\n 19088: a2 = a1\n 19090: a0 = 0x4\n 19093: a1 = s1 + 0x7ff\n 19097: a1 = a1 + 0x1e1\n 19101: u64 [a2 + 432] = 0\n 19105: ra = 676, jump @19\n      : @714 [@dyn 338] (gas: 3)\n 19111: a0 = u64 [s1 + 0x98]\n 19115: a0 = i32 [a0]\n 19117: jump @716 if a0 >u 63\n      : @715 (gas: 7)\n 19121: a1 = u64 [s1 + 0x98]\n 19125: u32 [a1 + 0] = 0x40\n 19128: a0 = 0x1\n 19131: a2 = 0x24\n 19134: a1 = u64 [s1 + 0xb8]\n 19138: ecalli 7 // 'seal_return'\n 19140: jump @717\n      : @716 (gas: 5)\n 19142: a0 = 0x1\n 19145: a2 = 0x24\n 19148: a1 = u64 [s1 + 0xb8]\n 19152: ecalli 7 // 'seal_return'\n 19154: fallthrough\n      : @717 (gas: 6)\n 19155: a1 = 0x20270\n 19160: i32 a1 = a1 + 0\n 19162: a0 = 0x1\n 19165: a2 = 0\n 19167: ecalli 7 // 'seal_return'\n 19169: jump @824\n      : @718 (gas: 6)\n 19172: a1 = 0x20270\n 19177: i32 a1 = a1 + 0\n 19179: a0 = 0x1\n 19182: a2 = 0\n 19184: ecalli 7 // 'seal_return'\n 19186: jump @824\n      : @719 (gas: 12)\n 19189: a0 = s1 + 0x7ff\n 19193: a0 = a0 + 0x39\n 19196: u64 [a0 + 1944] = 0\n 19200: u64 [a0 + 1936] = 0\n 19204: u64 [a0 + 1928] = 0\n 19208: a2 = a0\n 19210: a0 = 0x4e487b7100000000\n 19220: a1 = s1 + 0x7ff\n 19224: a1 = a1 + 0x7c1\n 19228: u64 [a2 + 0x7a0] = a0\n 19232: a0 = 0\n 19234: ra = 678, jump @19\n      : @720 [@dyn 339] (gas: 11)\n 19240: a1 = s1 + 0x7ff\n 19244: a1 = a1 + 0x39\n 19247: u64 [a1 + 1920] = 0\n 19251: u64 [a1 + 1912] = 0\n 19255: u64 [a1 + 1896] = 0x22\n 19260: a2 = a1\n 19262: a0 = 0x4\n 19265: a1 = s1 + 0x7ff\n 19269: a1 = a1 + 0x7a1\n 19273: u64 [a2 + 1904] = 0\n 19277: ra = 680, jump @19\n      : @721 [@dyn 340] (gas: 2)\n 19283: a1 = i32 [0x20264]\n 19288: jump @723 if a1 >u 63\n      : @722 (gas: 3)\n 19292: u32 [0x20264] = 0x40\n 19298: a1 = 0x20270\n 19303: jump @775\n      : @723 (gas: 2)\n 19306: a1 = 0x20270\n 19311: jump @775\n      : @724 (gas: 6)\n 19314: a1 = 0x20270\n 19319: i32 a1 = a1 + 0\n 19321: a0 = 0x1\n 19324: a2 = 0\n 19326: ecalli 7 // 'seal_return'\n 19328: jump @824\n      : @725 (gas: 6)\n 19331: a1 = 0x20270\n 19336: i32 a1 = a1 + 0\n 19338: a0 = 0x1\n 19341: a2 = 0\n 19343: ecalli 7 // 'seal_return'\n 19345: jump @824\n      : @726 (gas: 9)\n 19348: u64 [a3 + 120] = 0\n 19351: u64 [a3 + 112] = 0\n 19354: a0 = 0x8dfc202b00000000\n 19364: u64 [a3 + 0x80] = a0\n 19368: a1 = s1 + 0x7ff\n 19372: a1 = a1 + 0xa1\n 19376: u64 [a3 + 104] = 0\n 19379: a0 = 0\n 19381: ra = 682, jump @19\n      : @727 [@dyn 341] (gas: 2)\n 19387: a1 = i32 [0x20264]\n 19392: jump @729 if a1 >u 31\n      : @728 (gas: 3)\n 19396: u32 [0x20264] = 0x20\n 19402: a1 = 0x20270\n 19407: jump @730\n      : @729 (gas: 2)\n 19409: a1 = 0x20270\n 19414: fallthrough\n      : @730 (gas: 5)\n 19415: i32 a1 = a1 + 0\n 19417: a0 = 0x1\n 19420: a2 = 0x4\n 19423: ecalli 7 // 'seal_return'\n 19425: fallthrough\n      : @731 (gas: 6)\n 19426: a1 = 0x20270\n 19431: i32 a1 = a1 + 0\n 19433: a0 = 0x1\n 19436: a2 = 0\n 19438: ecalli 7 // 'seal_return'\n 19440: jump @824\n      : @732 (gas: 6)\n 19443: a1 = 0x20270\n 19448: i32 a1 = a1 + 0\n 19450: a0 = 0x1\n 19453: a2 = 0\n 19455: ecalli 7 // 'seal_return'\n 19457: jump @824\n      : @733 (gas: 1)\n 19460: jump @780 if a0 != 3578229791\n      : @734 (gas: 11)\n 19468: a0 = s1 + 0x1838\n 19472: u64 [a0 + 736] = 0\n 19476: u64 [a0 + 728] = 0\n 19480: u64 [a0 + 720] = 0\n 19484: u64 [a0 + 712] = 0\n 19488: a0 = s1 + 0x2000\n 19492: i32 a0 = a0 + 0xfffffffffffffb00\n 19496: ra = 0x2ac\n 19500: ecalli 10 // 'value_transferred'\n 19502: t0 = 0x2ae\n 19506: jump @1384\n      : @735 [@dyn 342] (gas: 1)\n 19509: t0 = 686, jump @1384\n      : @736 [@dyn 343] (gas: 1)\n 19515: t0 = 688, jump @1416\n      : @737 [@dyn 344] (gas: 1)\n 19521: jump @791 if a0 == 0\n      : @738 (gas: 6)\n 19525: a1 = 0x20270\n 19530: i32 a1 = a1 + 0\n 19532: a0 = 0x1\n 19535: a2 = 0\n 19537: ecalli 7 // 'seal_return'\n 19539: jump @824\n      : @739 (gas: 6)\n 19542: a1 = 0x20270\n 19547: i32 a1 = a1 + 0\n 19549: a0 = 0x1\n 19552: a2 = 0\n 19554: ecalli 7 // 'seal_return'\n 19556: jump @824\n      : @740 (gas: 6)\n 19559: a1 = 0x20270\n 19564: i32 a1 = a1 + 0\n 19566: a0 = 0x1\n 19569: a2 = 0\n 19571: ecalli 7 // 'seal_return'\n 19573: jump @824\n      : @741 (gas: 6)\n 19576: a1 = 0x20270\n 19581: i32 a1 = a1 + 0\n 19583: a0 = 0x1\n 19586: a2 = 0\n 19588: ecalli 7 // 'seal_return'\n 19590: jump @824\n      : @742 (gas: 6)\n 19593: a1 = 0x20270\n 19598: i32 a1 = a1 + 0\n 19600: a0 = 0x1\n 19603: a2 = 0\n 19605: ecalli 7 // 'seal_return'\n 19607: jump @824\n      : @743 (gas: 6)\n 19610: a1 = 0x20270\n 19615: i32 a1 = a1 + 0\n 19617: a0 = 0x1\n 19620: a2 = 0\n 19622: ecalli 7 // 'seal_return'\n 19624: jump @824\n      : @744 (gas: 6)\n 19627: a1 = 0x20270\n 19632: i32 a1 = a1 + 0\n 19634: a0 = 0x1\n 19637: a2 = 0\n 19639: ecalli 7 // 'seal_return'\n 19641: jump @824\n      : @745 (gas: 6)\n 19644: a1 = 0x20270\n 19649: i32 a1 = a1 + 0\n 19651: a0 = 0x1\n 19654: a2 = 0\n 19656: ecalli 7 // 'seal_return'\n 19658: jump @824\n      : @746 (gas: 6)\n 19661: a1 = 0x20270\n 19666: i32 a1 = a1 + 0\n 19668: a0 = 0x1\n 19671: a2 = 0\n 19673: ecalli 7 // 'seal_return'\n 19675: jump @824\n      : @747 (gas: 6)\n 19678: a1 = 0x20270\n 19683: i32 a1 = a1 + 0\n 19685: a0 = 0x1\n 19688: a2 = 0\n 19690: ecalli 7 // 'seal_return'\n 19692: jump @824\n      : @748 (gas: 6)\n 19695: a1 = 0x20270\n 19700: i32 a1 = a1 + 0\n 19702: a0 = 0x1\n 19705: a2 = 0\n 19707: ecalli 7 // 'seal_return'\n 19709: jump @824\n      : @749 (gas: 6)\n 19712: a1 = 0x20270\n 19717: i32 a1 = a1 + 0\n 19719: a0 = 0x1\n 19722: a2 = 0\n 19724: ecalli 7 // 'seal_return'\n 19726: jump @824\n      : @750 (gas: 6)\n 19729: a1 = 0x20270\n 19734: i32 a1 = a1 + 0\n 19736: a0 = 0x1\n 19739: a2 = 0\n 19741: ecalli 7 // 'seal_return'\n 19743: jump @824\n      : @751 (gas: 6)\n 19746: a1 = 0x20270\n 19751: i32 a1 = a1 + 0\n 19753: a0 = 0x1\n 19756: a2 = 0\n 19758: ecalli 7 // 'seal_return'\n 19760: jump @824\n      : @752 (gas: 6)\n 19763: a1 = 0x20270\n 19768: i32 a1 = a1 + 0\n 19770: a0 = 0x1\n 19773: a2 = 0\n 19775: ecalli 7 // 'seal_return'\n 19777: jump @824\n      : @753 (gas: 8)\n 19780: u64 [s1 + 752] = 0\n 19784: u64 [s1 + 744] = 0\n 19788: u64 [s1 + 736] = 0\n 19792: a0 = 0xe602df0500000000\n 19802: a1 = s1 + 0x2e0\n 19806: u64 [s1 + 0x2f8] = a0\n 19810: a0 = 0\n 19812: ra = 690, jump @19\n      : @754 [@dyn 345] (gas: 7)\n 19818: u64 [s1 + 728] = 0\n 19822: u64 [s1 + 720] = 0\n 19826: u64 [s1 + 712] = 0\n 19830: a0 = 0x4\n 19833: a1 = s1 + 0x2c0\n 19837: u64 [s1 + 704] = 0\n 19841: ra = 692, jump @19\n      : @755 [@dyn 346] (gas: 2)\n 19847: a1 = i32 [0x20264]\n 19852: jump @757 if a1 >u 63\n      : @756 (gas: 3)\n 19856: u32 [0x20264] = 0x40\n 19862: a1 = 0x20270\n 19867: jump @775\n      : @757 (gas: 2)\n 19870: a1 = 0x20270\n 19875: jump @775\n      : @758 (gas: 8)\n 19878: u64 [s1 + 816] = 0\n 19882: u64 [s1 + 808] = 0\n 19886: u64 [s1 + 800] = 0\n 19890: a0 = 0x94280d6200000000\n 19900: a1 = s1 + 0x320\n 19904: u64 [s1 + 0x338] = a0\n 19908: a0 = 0\n 19910: ra = 694, jump @19\n      : @759 [@dyn 347] (gas: 7)\n 19916: u64 [s1 + 792] = 0\n 19920: u64 [s1 + 784] = 0\n 19924: u64 [s1 + 776] = 0\n 19928: a0 = 0x4\n 19931: a1 = s1 + 0x300\n 19935: u64 [s1 + 768] = 0\n 19939: ra = 696, jump @19\n      : @760 [@dyn 348] (gas: 2)\n 19945: a1 = i32 [0x20264]\n 19950: jump @762 if a1 >u 63\n      : @761 (gas: 3)\n 19954: u32 [0x20264] = 0x40\n 19960: a1 = 0x20270\n 19965: jump @775\n      : @762 (gas: 2)\n 19968: a1 = 0x20270\n 19973: jump @775\n      : @763 (gas: 6)\n 19976: u64 [s1 + 336] = 0\n 19980: u64 [s1 + 328] = 0\n 19984: u64 [s1 + 320] = 0\n 19988: t0 = 0x2ba\n 19992: a0 = 0x4e487b7100000000\n 20002: fallthrough\n      : @764 [@dyn 349] (gas: 4)\n 20003: a1 = s1 + 0x140\n 20007: u64 [s1 + 0x158] = a0\n 20011: a0 = 0\n 20013: ra = 700, jump @19\n      : @765 [@dyn 350] (gas: 7)\n 20019: u64 [s1 + 312] = 0\n 20023: u64 [s1 + 304] = 0\n 20027: u64 [s1 + 288] = 0x41\n 20032: a0 = 0x4\n 20035: a1 = s1 + 0x120\n 20039: u64 [s1 + 296] = 0\n 20043: ra = 702, jump @19\n      : @766 [@dyn 351] (gas: 2)\n 20049: a1 = i32 [0x20264]\n 20054: jump @768 if a1 >u 63\n      : @767 (gas: 3)\n 20058: u32 [0x20264] = 0x40\n 20064: a1 = 0x20270\n 20069: jump @775\n      : @768 (gas: 2)\n 20072: a1 = 0x20270\n 20077: jump @775\n      : @769 (gas: 9)\n 20079: a0 = s1 + 0x7ff\n 20083: a0 = a0 + 0x39\n 20086: u64 [a0 + 2008] = 0\n 20090: u64 [a0 + 2000] = 0\n 20094: u64 [a0 + 1992] = 0\n 20098: a2 = a0\n 20100: t0 = 0x2c0\n 20104: a0 = 0x4e487b7100000000\n 20114: fallthrough\n      : @770 [@dyn 352] (gas: 4)\n 20115: a1 = s1 + 0x1000\n 20119: u64 [a2 + 0x7e0] = a0\n 20123: a0 = 0\n 20125: ra = 706, jump @19\n      : @771 [@dyn 353] (gas: 11)\n 20131: a1 = s1 + 0x7ff\n 20135: a1 = a1 + 0x39\n 20138: u64 [a1 + 1984] = 0\n 20142: u64 [a1 + 1976] = 0\n 20146: u64 [a1 + 1960] = 0x41\n 20151: a2 = a1\n 20153: a0 = 0x4\n 20156: a1 = s1 + 0x7ff\n 20160: a1 = a1 + 0x7e1\n 20164: u64 [a2 + 1968] = 0\n 20168: ra = 708, jump @19\n      : @772 [@dyn 354] (gas: 2)\n 20174: a1 = i32 [0x20264]\n 20179: jump @774 if a1 >u 63\n      : @773 (gas: 3)\n 20183: u32 [0x20264] = 0x40\n 20189: a1 = 0x20270\n 20194: jump @775\n      : @774 (gas: 2)\n 20196: a1 = 0x20270\n 20201: fallthrough\n      : @775 (gas: 5)\n 20202: i32 a1 = a1 + 0\n 20204: a0 = 0x1\n 20207: a2 = 0x24\n 20210: ecalli 7 // 'seal_return'\n 20212: fallthrough\n      : @776 (gas: 7)\n 20213: u64 [s1 + 856] = 0\n 20217: u64 [s1 + 848] = 0\n 20221: u64 [s1 + 840] = 0\n 20225: a1 = s1 + 0x340\n 20229: u64 [s1 + 832] = 0x1\n 20234: u64 [s1 + 0xb8] = a0\n 20238: ra = 710, jump @19\n      : @777 [@dyn 355] (gas: 3)\n 20244: a1 = 0x20\n 20247: a0 = u64 [s1 + 0xb8]\n 20251: ra = 712, jump @33\n      : @778 [@dyn 356] (gas: 6)\n 20257: i32 a1 = a0 + 0\n 20259: a2 = 0x20\n 20262: a0 = 0\n 20264: ra = 0x2ca\n 20268: ecalli 7 // 'seal_return'\n 20270: jump @780\n      : @779 (gas: 5)\n 20272: a2 = 0x20\n 20275: a0 = 0\n 20277: ra = 0x2ca\n 20281: ecalli 7 // 'seal_return'\n 20283: fallthrough\n      : @780 [@dyn 357] (gas: 1)\n 20284: jump @786 if a0 != 33540519\n      : @781 (gas: 11)\n 20291: a0 = s1 + 0x1038\n 20295: u64 [a0 + 1312] = 0\n 20299: u64 [a0 + 1304] = 0\n 20303: u64 [a0 + 1296] = 0\n 20307: u64 [a0 + 1288] = 0\n 20311: a0 = s1 + 0x1000\n 20315: i32 a0 = a0 + 0x540\n 20319: ra = 0x2cc\n 20323: ecalli 10 // 'value_transferred'\n 20325: t0 = 0x2ce\n 20329: jump @1422\n      : @782 [@dyn 358] (gas: 1)\n 20332: t0 = 718, jump @1422\n      : @783 [@dyn 359] (gas: 1)\n 20338: t0 = 720, jump @1385\n      : @784 [@dyn 360] (gas: 1)\n 20344: jump @798 if a0 == 0\n      : @785 (gas: 6)\n 20348: a1 = 0x20270\n 20353: i32 a1 = a1 + 0\n 20355: a0 = 0x1\n 20358: a2 = 0\n 20360: ecalli 7 // 'seal_return'\n 20362: jump @824\n      : @786 (gas: 1)\n 20365: jump @793 if a0 != 791671133\n      : @787 (gas: 11)\n 20373: a0 = s1 + 0x1038\n 20377: u64 [a0 + 1696] = 0\n 20381: u64 [a0 + 1688] = 0\n 20385: u64 [a0 + 1680] = 0\n 20389: u64 [a0 + 1672] = 0\n 20393: a0 = s1 + 0x1000\n 20397: i32 a0 = a0 + 0x6c0\n 20401: ra = 0x2d2\n 20405: ecalli 10 // 'value_transferred'\n 20407: t0 = 0x2d4\n 20411: jump @1378\n      : @788 [@dyn 361] (gas: 1)\n 20414: t0 = 724, jump @1378\n      : @789 [@dyn 362] (gas: 8)\n 20420: a0 = u64 [a4 + 0x98]\n 20424: a1 = u64 [a4 + 0xa0]\n 20428: a2 = u64 [a4 + 0x90]\n 20432: a3 = u64 [a4 + 0x88]\n 20436: a1 = a1 | a2\n 20439: a0 = a0 | a3\n 20442: a0 = a0 | a1\n 20445: jump @809 if a0 == 0\n      : @790 (gas: 6)\n 20449: a1 = 0x20270\n 20454: i32 a1 = a1 + 0\n 20456: a0 = 0x1\n 20459: a2 = 0\n 20461: ecalli 7 // 'seal_return'\n 20463: jump @824\n      : @791 (gas: 3)\n 20466: a0 = u64 [s1 + 0xb8]\n 20470: a0 = i32 [a0]\n 20472: jump @800 if a0 >u 67\n      : @792 (gas: 6)\n 20477: a1 = 0x20270\n 20482: i32 a1 = a1 + 0\n 20484: a0 = 0x1\n 20487: a2 = 0\n 20489: ecalli 7 // 'seal_return'\n 20491: jump @824\n      : @793 (gas: 1)\n 20494: jump @805 if a0 != 911641278\n      : @794 (gas: 11)\n 20502: a0 = s1 + 0x1038\n 20506: u64 [a0 + 1792] = 0\n 20510: u64 [a0 + 1784] = 0\n 20514: u64 [a0 + 1776] = 0\n 20518: u64 [a0 + 1768] = 0\n 20522: a0 = s1 + 0x1000\n 20526: i32 a0 = a0 + 0x720\n 20530: ra = 0x2d6\n 20534: ecalli 10 // 'value_transferred'\n 20536: t0 = 0x2d8\n 20540: jump @1378\n      : @795 [@dyn 363] (gas: 1)\n 20543: t0 = 728, jump @1378\n      : @796 [@dyn 364] (gas: 8)\n 20549: a0 = u64 [a4 + 0xf8]\n 20553: a1 = u64 [a3 + 0x700]\n 20557: a2 = u64 [a4 + 0xf0]\n 20561: a3 = u64 [a4 + 0xe8]\n 20565: a1 = a1 | a2\n 20568: a0 = a0 | a3\n 20571: a0 = a0 | a1\n 20574: jump @814 if a0 == 0\n      : @797 (gas: 6)\n 20578: a1 = 0x20270\n 20583: i32 a1 = a1 + 0\n 20585: a0 = 0x1\n 20588: a2 = 0\n 20590: ecalli 7 // 'seal_return'\n 20592: jump @824\n      : @798 (gas: 3)\n 20595: a0 = u64 [s1 + 0xb8]\n 20599: a0 = i32 [a0]\n 20601: jump @811 if a0 >u 35\n      : @799 (gas: 6)\n 20606: a1 = 0x20270\n 20611: i32 a1 = a1 + 0\n 20613: a0 = 0x1\n 20616: a2 = 0\n 20618: ecalli 7 // 'seal_return'\n 20620: jump @824\n      : @800 (gas: 18)\n 20623: a0 = s1 + 0x2000\n 20627: i32 a0 = a0 + 0xfffffffffffffb20\n 20631: a1 = 0x4\n 20634: ecalli 1 // 'call_data_load'\n 20636: a0 = s1 + 0x1838\n 20640: a2 = a0 + 0x200\n 20644: a1 = u64 [a2 + 0xe8]\n 20648: u64 [s1 + 0xb8] = a1\n 20652: a1 = u64 [a2 + 0xf0]\n 20656: u64 [s1 + 0xb0] = a1\n 20660: a1 = u64 [a2 + 0xf8]\n 20664: u64 [s1 + 0xa8] = a1\n 20668: a0 = u64 [a0 + 0x300]\n 20672: u64 [s1 + 0xa0] = a0\n 20676: a0 = s1 + 0x1380\n 20680: ra = 0x2da\n 20684: t0 = 0x402\n 20688: jump @1417\n      : @801 [@dyn 365] (gas: 22)\n 20691: a1 = s1 + 0x1038\n 20695: a2 = a1 + 0x300\n 20699: a0 = u64 [a2 + 0x48]\n 20702: u64 [s1 + 0x98] = a0\n 20706: a0 = u64 [a2 + 0x50]\n 20709: u64 [s1 + 0x90] = a0\n 20713: a0 = u64 [a2 + 0x58]\n 20716: u64 [s1 + 0x88] = a0\n 20720: a0 = u64 [a2 + 0x60]\n 20723: u64 [s1 + 0x80] = a0\n 20727: a0 = u64 [s1 + 0xa0]\n 20731: u64 [a2 + 0x20] = a0\n 20734: a0 = u64 [s1 + 0xa8]\n 20738: u64 [a2 + 0x18] = a0\n 20741: a0 = u64 [s1 + 0xb0]\n 20745: u64 [a2 + 0x10] = a0\n 20748: a3 = a1\n 20750: a0 = s1 + 0x1360\n 20754: a1 = s1 + 0x1340\n 20758: a2 = u64 [s1 + 0xb8]\n 20762: u64 [a3 + 0x308] = a2\n 20766: ra = 732, jump @1050\n      : @802 [@dyn 366] (gas: 13)\n 20772: a4 = s1 + 0x1038\n 20776: a5 = a4 + 0x300\n 20780: a1 = u64 [a5 + 0x28]\n 20783: a0 = u64 [a5 + 0x30]\n 20786: a2 = u64 [a5 + 0x38]\n 20789: a3 = u64 [a5 + 0x40]\n 20792: u64 [a5] = a3\n 20794: a3 = a4 + 0x200\n 20798: u64 [a3 + 0xf8] = a2\n 20802: u64 [a3 + 0xf0] = a0\n 20806: a0 = s1 + 0x1320\n 20810: u64 [a3 + 0xe8] = a1\n 20814: ra = 734, jump @1186\n      : @803 [@dyn 367] (gas: 25)\n 20820: a0 = s1 + 0x1038\n 20824: a1 = u64 [s1 + 0x80]\n 20828: a2 = a0 + 0x200\n 20832: u64 [a2 + 0xa0] = a1\n 20836: a1 = u64 [s1 + 0x88]\n 20840: u64 [a2 + 0x98] = a1\n 20844: a1 = u64 [s1 + 0x90]\n 20848: u64 [a2 + 0x90] = a1\n 20852: a1 = u64 [s1 + 0x98]\n 20856: u64 [a2 + 0x88] = a1\n 20860: a1 = u64 [s1 + 0xa0]\n 20864: u64 [a2 + 0xc0] = a1\n 20868: a1 = u64 [s1 + 0xa8]\n 20872: u64 [a2 + 0xb8] = a1\n 20876: a1 = u64 [s1 + 0xb0]\n 20880: u64 [a2 + 0xb0] = a1\n 20884: a4 = a0\n 20886: a0 = s1 + 0x1300\n 20890: a1 = s1 + 0x12e0\n 20894: a2 = s1 + 0x12c0\n 20898: a3 = u64 [s1 + 0xb8]\n 20902: u64 [a4 + 0x2a8] = a3\n 20906: ra = 0x2e0\n 20910: t0 = 0x520\n 20914: jump @1402\n      : @804 [@dyn 368] (gas: 2)\n 20917: a1 = 0x20270\n 20922: jump @575\n      : @805 (gas: 1)\n 20925: jump @816 if a0 != 1117154408\n      : @806 (gas: 9)\n 20933: a0 = s1 + 0x1838\n 20937: u64 [a0 + 96] = 0\n 20940: u64 [a0 + 88] = 0\n 20943: u64 [a0 + 80] = 0\n 20946: u64 [a0 + 72] = 0\n 20949: a0 = s1 + 0x2000\n 20953: i32 a0 = a0 + 0xfffffffffffff880\n 20957: ecalli 10 // 'value_transferred'\n 20959: fallthrough\n      : @807 (gas: 9)\n 20960: a3 = s1 + 0x1838\n 20964: a0 = u64 [a3 + 0x58]\n 20967: a1 = u64 [a3 + 0x60]\n 20970: a2 = u64 [a3 + 0x50]\n 20973: a3 = u64 [a3 + 0x48]\n 20976: a1 = a1 | a2\n 20979: a0 = a0 | a3\n 20982: a0 = a0 | a1\n 20985: jump @824 if a0 == 0\n      : @808 (gas: 6)\n 20989: a1 = 0x20270\n 20994: i32 a1 = a1 + 0\n 20996: a0 = 0x1\n 20999: a2 = 0\n 21001: ecalli 7 // 'seal_return'\n 21003: jump @824\n      : @809 (gas: 3)\n 21006: a0 = u64 [s1 + 0xb8]\n 21010: a0 = i32 [a0]\n 21012: jump @826 if a0 >u 67\n      : @810 (gas: 6)\n 21017: a1 = 0x20270\n 21022: i32 a1 = a1 + 0\n 21024: a0 = 0x1\n 21027: a2 = 0\n 21029: ecalli 7 // 'seal_return'\n 21031: jump @824\n      : @811 (gas: 7)\n 21034: a0 = s1 + 0x1000\n 21038: i32 a0 = a0 + 0x560\n 21042: a1 = 0x4\n 21045: ecalli 1 // 'call_data_load'\n 21047: t0 = 0x2e2\n 21051: a1 = s1 + 0x1038\n 21055: fallthrough\n      : @812 [@dyn 369] (gas: 11)\n 21056: a4 = a1 + 0x500\n 21060: a0 = u64 [a4 + 0x40]\n 21063: a2 = u64 [a4 + 0x38]\n 21066: a3 = u64 [a4 + 0x28]\n 21069: a1 = u64 [a4 + 0x30]\n 21072: a4 = a0 << 0x20\n 21075: a4 = a4 >> 0x20\n 21078: a2 = a2 | a3\n 21081: a4 = a4 | a1\n 21084: a4 = a4 | a2\n 21087: jump @831 if a4 == 0\n      : @813 (gas: 6)\n 21091: a1 = 0x20270\n 21096: i32 a1 = a1 + 0\n 21098: a0 = 0x1\n 21101: a2 = 0\n 21103: ecalli 7 // 'seal_return'\n 21105: jump @824\n      : @814 (gas: 4)\n 21108: a0 = u64 [s1 + 0xb8]\n 21112: a0 = i32 [a0]\n 21114: a1 = 0x43\n 21117: jump @835 if a1 <u a0\n      : @815 (gas: 6)\n 21121: a1 = 0x20270\n 21126: i32 a1 = a1 + 0\n 21128: a0 = 0x1\n 21131: a2 = 0\n 21133: ecalli 7 // 'seal_return'\n 21135: jump @824\n      : @816 (gas: 1)\n 21137: jump @822 if a0 != 2043438992\n      : @817 (gas: 11)\n 21144: a0 = s1 + 0x1838\n 21148: u64 [a0 + 288] = 0\n 21152: u64 [a0 + 280] = 0\n 21156: u64 [a0 + 272] = 0\n 21160: u64 [a0 + 264] = 0\n 21164: a0 = s1 + 0x2000\n 21168: i32 a0 = a0 + 0xfffffffffffff940\n 21172: ra = 0x2e4\n 21176: ecalli 10 // 'value_transferred'\n 21178: t0 = 0x2e6\n 21182: jump @1397\n      : @818 [@dyn 370] (gas: 1)\n 21185: t0 = 742, jump @1397\n      : @819 [@dyn 371] (gas: 1)\n 21191: t0 = 744, jump @1385\n      : @820 [@dyn 372] (gas: 1)\n 21197: jump @840 if a0 == 0\n      : @821 (gas: 6)\n 21201: a1 = 0x20270\n 21206: i32 a1 = a1 + 0\n 21208: a0 = 0x1\n 21211: a2 = 0\n 21213: ecalli 7 // 'seal_return'\n 21215: jump @824\n      : @822 (gas: 6)\n 21217: a1 = 0x20270\n 21222: i32 a1 = a1 + 0\n 21224: a0 = 0x1\n 21227: a2 = 0\n 21229: ecalli 7 // 'seal_return'\n 21231: jump @824\n      : @823 (gas: 5)\n 21233: i32 a1 = a1 + 0\n 21235: a0 = 0x1\n 21238: a2 = 0\n 21240: ecalli 7 // 'seal_return'\n 21242: fallthrough\n      : @824 (gas: 3)\n 21243: a0 = u64 [s1 + 0xb8]\n 21247: a0 = i32 [a0]\n 21249: jump @842 if a0 >u 35\n      : @825 (gas: 2)\n 21254: a1 = 0x20270\n 21259: jump @823\n      : @826 (gas: 18)\n 21261: a0 = s1 + 0x1000\n 21265: i32 a0 = a0 + 0x6e0\n 21269: a1 = 0x4\n 21272: ecalli 1 // 'call_data_load'\n 21274: a0 = s1 + 0x1038\n 21278: a2 = a0 + 0x600\n 21282: a1 = u64 [a2 + 0xa8]\n 21286: u64 [s1 + 0xb8] = a1\n 21290: a1 = u64 [a2 + 0xb0]\n 21294: u64 [s1 + 0xb0] = a1\n 21298: a1 = u64 [a2 + 0xb8]\n 21302: u64 [s1 + 0xa8] = a1\n 21306: a0 = u64 [a2 + 0xc0]\n 21310: u64 [s1 + 0xa0] = a0\n 21314: a0 = s1 + 0x7a0\n 21318: ra = 0x2ea\n 21322: t0 = 0x402\n 21326: jump @1417\n      : @827 [@dyn 373] (gas: 19)\n 21329: a0 = u64 [s1 + 0x7a0]\n 21333: u64 [s1 + 0x98] = a0\n 21337: a0 = u64 [s1 + 0x7a8]\n 21341: u64 [s1 + 0x90] = a0\n 21345: a0 = u64 [s1 + 0x7b0]\n 21349: u64 [s1 + 0x88] = a0\n 21353: a0 = u64 [s1 + 0x7b8]\n 21357: u64 [s1 + 0x80] = a0\n 21361: a0 = u64 [s1 + 0xa0]\n 21365: u64 [s1 + 0x778] = a0\n 21369: a0 = u64 [s1 + 0xa8]\n 21373: u64 [s1 + 0x770] = a0\n 21377: a0 = u64 [s1 + 0xb0]\n 21381: u64 [s1 + 0x768] = a0\n 21385: a0 = s1 + 0x780\n 21389: a1 = s1 + 0x760\n 21393: a2 = u64 [s1 + 0xb8]\n 21397: u64 [s1 + 0x760] = a2\n 21401: ra = 748, jump @1050\n      : @828 [@dyn 374] (gas: 10)\n 21407: a1 = u64 [s1 + 0x780]\n 21411: a0 = u64 [s1 + 0x788]\n 21415: a2 = u64 [s1 + 0x790]\n 21419: a3 = u64 [s1 + 0x798]\n 21423: u64 [s1 + 0x758] = a3\n 21427: u64 [s1 + 0x750] = a2\n 21431: u64 [s1 + 0x748] = a0\n 21435: a0 = s1 + 0x740\n 21439: u64 [s1 + 0x740] = a1\n 21443: ra = 750, jump @1186\n      : @829 [@dyn 375] (gas: 24)\n 21449: a0 = u64 [s1 + 0x80]\n 21453: a1 = s1 + 0x600\n 21457: u64 [a1 + 0xf8] = a0\n 21461: a0 = u64 [s1 + 0x88]\n 21465: u64 [a1 + 0xf0] = a0\n 21469: a0 = u64 [s1 + 0x90]\n 21473: u64 [a1 + 0xe8] = a0\n 21477: a0 = u64 [s1 + 0x98]\n 21481: u64 [a1 + 0xe0] = a0\n 21485: a0 = u64 [s1 + 0xa0]\n 21489: a4 = s1 + 0x700\n 21493: u64 [a4 + 0x18] = a0\n 21496: a0 = u64 [s1 + 0xa8]\n 21500: u64 [a4 + 0x10] = a0\n 21503: a0 = u64 [s1 + 0xb0]\n 21507: u64 [a4 + 0x8] = a0\n 21510: a0 = s1 + 0x720\n 21514: a1 = s1 + 0x700\n 21518: a2 = s1 + 0x6e0\n 21522: a3 = u64 [s1 + 0xb8]\n 21526: u64 [a4] = a3\n 21528: ra = 0x2f0\n 21532: t0 = 0x4de\n 21536: jump @1402\n      : @830 [@dyn 376] (gas: 2)\n 21539: a1 = 0x20270\n 21544: jump @575\n      : @831 (gas: 18)\n 21547: a3 = 0x7965db0b00000000\n 21557: a3 = a3 ^ a0\n 21560: a3 = a3 | a1\n 21563: a3 = a3 | a2\n 21566: a3 = a3 <u 0x1\n 21569: a4 = 0x1ffc9a700000000\n 21579: a0 = a0 ^ a4\n 21582: a0 = a0 | a1\n 21585: a0 = a0 | a2\n 21588: a0 = a0 <u 0x1\n 21591: a0 = a0 | a3\n 21594: u64 [s1 + 216] = 0\n 21598: u64 [s1 + 208] = 0\n 21602: u64 [s1 + 0xc0] = a0\n 21606: a0 = 0x80\n 21610: a1 = s1 + 0xc0\n 21614: u64 [s1 + 200] = 0\n 21618: ra = 754, jump @19\n      : @832 [@dyn 377] (gas: 2)\n 21624: a1 = i32 [0x20264]\n 21629: jump @834 if a1 >u 159\n      : @833 (gas: 4)\n 21634: u32 [0x20264] = 0xa0\n 21641: a0 = 0x20270\n 21646: i32 a1 = a0 + 0x80\n 21650: jump @779\n      : @834 (gas: 3)\n 21653: a0 = 0x20270\n 21658: i32 a1 = a0 + 0x80\n 21662: jump @779\n      : @835 (gas: 5)\n 21665: a0 = s1 + 0x7ff\n 21669: a0 = a0 + 0x81\n 21673: ra = 0x2f4\n 21677: t0 = 0x402\n 21681: jump @1417\n      : @836 [@dyn 378] (gas: 15)\n 21684: a0 = s1 + 0x7ff\n 21688: a0 = a0 + 0x39\n 21691: a1 = u64 [a0 + 0x60]\n 21694: u64 [s1 + 0xa0] = a1\n 21698: a1 = u64 [a0 + 0x58]\n 21701: u64 [s1 + 0xa8] = a1\n 21705: a1 = u64 [a0 + 0x50]\n 21708: u64 [s1 + 0xb0] = a1\n 21712: a0 = u64 [a0 + 0x48]\n 21715: u64 [s1 + 0xb8] = a0\n 21719: a0 = 0x30270\n 21724: u64 [s1 + 0x98] = a0\n 21728: i32 a0 = a0 + 0\n 21730: ecalli 3 // 'caller'\n 21732: fallthrough\n      : @837 (gas: 25)\n 21733: a2 = u64 [s1 + 0x98]\n 21737: a0 = u64 [a2 + 0x8]\n 21740: a1 = u64 [a2]\n 21742: a2 = i32 [a2 + 0x10]\n 21745: a0 = reverse a0\n 21747: a3 = a0 >> 0x20\n 21750: a1 = reverse a1\n 21752: a4 = a1 << 0x20\n 21755: a3 = a3 | a4\n 21758: a0 = a0 << 0x20\n 21761: a2 = reverse a2\n 21763: a2 = a2 >> 0x20\n 21766: a0 = a0 | a2\n 21769: a1 = a1 >> 0x20\n 21772: a2 = u64 [s1 + 0xa8]\n 21776: a2 = a2 << 0x20\n 21779: a2 = a2 >> 0x20\n 21782: a1 = a1 ^ a2\n 21785: a2 = u64 [s1 + 0xb8]\n 21789: a0 = a0 ^ a2\n 21792: a0 = a0 | a1\n 21795: a1 = u64 [s1 + 0xb0]\n 21799: a1 = a1 ^ a3\n 21802: a0 = a0 | a1\n 21805: jump @846 if a0 != 0\n      : @838 (gas: 39)\n 21809: a0 = s1 + 0x1000\n 21813: i32 a0 = a0 + 0x740\n 21817: a1 = 0x4\n 21820: ecalli 1 // 'call_data_load'\n 21822: a2 = s1 + 0x1038\n 21826: a4 = a2 + 0x700\n 21830: a3 = u64 [a4 + 0x8]\n 21833: a0 = u64 [a4 + 0x10]\n 21836: a1 = u64 [a4 + 0x18]\n 21839: a2 = u64 [a4 + 0x20]\n 21842: a4 = u64 [s1 + 0xa0]\n 21846: a5 = s1 + 0x1000\n 21850: u64 [a5 + 0xfffffffffffff818] = a4\n 21854: a4 = u64 [s1 + 0xa8]\n 21858: a5 = s1 + 0x1000\n 21862: u64 [a5 + 0xfffffffffffff810] = a4\n 21866: a4 = u64 [s1 + 0xb0]\n 21870: a5 = s1 + 0x1000\n 21874: u64 [a5 + 0xfffffffffffff808] = a4\n 21878: a4 = u64 [s1 + 0xb8]\n 21882: a5 = s1 + 0x1000\n 21886: u64 [a5 + 0xfffffffffffff800] = a4\n 21890: a4 = s1 + 0x7ff\n 21894: a4 = a4 + 0x39\n 21897: u64 [a4] = a2\n 21899: u64 [a4 + 0xfffffffffffffff8] = a1\n 21902: a1 = s1 + 0x1000\n 21906: u64 [a1 + 0xfffffffffffff828] = a0\n 21910: a0 = s1 + 0x7ff\n 21914: a0 = a0 + 0x41\n 21917: a1 = s1 + 0x7ff\n 21921: a1 = a1 + 0x21\n 21924: a2 = s1 + 0x7ff\n 21928: a2 = a2 + 0x1\n 21931: a4 = s1 + 0x1000\n 21935: u64 [a4 + 0xfffffffffffff820] = a3\n 21939: ra = 0x2f6\n 21943: t0 = 0x520\n 21947: jump @1402\n      : @839 [@dyn 379] (gas: 2)\n 21950: a1 = 0x20270\n 21955: jump @575\n      : @840 (gas: 4)\n 21958: a0 = u64 [s1 + 0xb8]\n 21962: a0 = i32 [a0]\n 21964: a1 = 0x43\n 21967: jump @850 if a1 <u a0\n      : @841 (gas: 2)\n 21971: a1 = 0x20270\n 21976: jump @823\n      : @842 (gas: 21)\n 21979: a0 = s1 + 0x2000\n 21983: i32 a0 = a0 + 0xfffffffffffff8a0\n 21987: a1 = 0x4\n 21990: ecalli 1 // 'call_data_load'\n 21992: a0 = s1 + 0x1838\n 21996: a1 = u64 [a0 + 0x68]\n 21999: u64 [s1 + 0xb8] = a1\n 22003: a1 = u64 [a0 + 0x70]\n 22006: u64 [s1 + 0xb0] = a1\n 22010: a1 = u64 [a0 + 0x78]\n 22013: u64 [s1 + 0xa8] = a1\n 22017: a0 = u64 [a0 + 0x80]\n 22021: u64 [s1 + 0xa0] = a0\n 22025: a0 = 0x30270\n 22030: u64 [s1 + 0x98] = a0\n 22034: i32 a0 = a0 + 0\n 22036: ra = 0x2f8\n 22040: ecalli 3 // 'caller'\n 22042: a2 = u64 [s1 + 0x98]\n 22046: t0 = 0x2fa\n 22050: jump @1347\n      : @843 [@dyn 380] (gas: 2)\n 22053: a2 = u64 [s1 + 0x98]\n 22057: t0 = 762, jump @1347\n      : @844 [@dyn 381] (gas: 18)\n 22063: a4 = u64 [s1 + 0xa0]\n 22067: a5 = a2 + 0x300\n 22071: u64 [a5 + 0xe0] = a4\n 22075: a4 = u64 [s1 + 0xa8]\n 22079: u64 [a5 + 0xd8] = a4\n 22083: a4 = u64 [s1 + 0xb0]\n 22087: u64 [a5 + 0xd0] = a4\n 22091: a4 = u64 [s1 + 0xb8]\n 22095: u64 [a5 + 0xc8] = a4\n 22099: u64 [a2 + 1024] = 0\n 22103: u64 [a5 + 0xf8] = a1\n 22107: u64 [a5 + 0xf0] = a0\n 22111: a0 = s1 + 0x7ff\n 22115: a0 = a0 + 0x421\n 22119: a1 = s1 + 0x7ff\n 22123: a1 = a1 + 0x401\n 22127: u64 [a5 + 0xe8] = a3\n 22131: ra = 764, jump @1299\n      : @845 [@dyn 382] (gas: 2)\n 22137: a1 = 0x20270\n 22142: jump @575\n      : @846 (gas: 11)\n 22145: a2 = s1 + 0x7ff\n 22149: a2 = a2 + 0x39\n 22152: u64 [a2 + 56] = 0\n 22155: u64 [a2 + 48] = 0\n 22158: a0 = 0x6697b23200000000\n 22168: u64 [a2 + 0x40] = a0\n 22171: a1 = s1 + 0x7ff\n 22175: a1 = a1 + 0x61\n 22178: u64 [a2 + 40] = 0\n 22181: a0 = 0\n 22183: ra = 766, jump @19\n      : @847 [@dyn 383] (gas: 2)\n 22189: a1 = i32 [0x20264]\n 22194: jump @849 if a1 >u 31\n      : @848 (gas: 3)\n 22198: u32 [0x20264] = 0x20\n 22204: a1 = 0x20270\n 22209: jump @730\n      : @849 (gas: 2)\n 22212: a1 = 0x20270\n 22217: jump @730\n      : @850 (gas: 5)\n 22220: a0 = s1 + 0x7ff\n 22224: a0 = a0 + 0x601\n 22228: ra = 0x300\n 22232: t0 = 0x3f8\n 22236: jump @1417\n      : @851 [@dyn 384] (gas: 32)\n 22239: a1 = s1 + 0x7ff\n 22243: a1 = a1 + 0x39\n 22246: a2 = a1 + 0x500\n 22250: a0 = u64 [a2 + 0xc8]\n 22254: u64 [s1 + 0xb8] = a0\n 22258: a0 = u64 [a2 + 0xd0]\n 22262: u64 [s1 + 0xb0] = a0\n 22266: a0 = u64 [a2 + 0xd8]\n 22270: u64 [s1 + 0xa8] = a0\n 22274: a0 = u64 [a2 + 0xe0]\n 22278: u64 [s1 + 0xa0] = a0\n 22282: a0 = s1 + 0x2000\n 22286: i32 a0 = a0 + 0xfffffffffffff960\n 22290: a1 = 0x24\n 22293: ecalli 1 // 'call_data_load'\n 22295: a0 = s1 + 0x1838\n 22299: a2 = a0 + 0x100\n 22303: a1 = u64 [a2 + 0x28]\n 22306: u64 [s1 + 0x98] = a1\n 22310: a1 = u64 [a2 + 0x30]\n 22313: u64 [s1 + 0x90] = a1\n 22317: a1 = u64 [a2 + 0x38]\n 22320: u64 [s1 + 0x88] = a1\n 22324: a0 = u64 [a2 + 0x40]\n 22327: u64 [s1 + 0x80] = a0\n 22331: a0 = 0x30270\n 22336: u64 [s1 + 0x78] = a0\n 22339: i32 a0 = a0 + 0\n 22341: ra = 0x302\n 22345: ecalli 3 // 'caller'\n 22347: t0 = 0x304\n 22351: jump @1379\n      : @852 [@dyn 385] (gas: 1)\n 22354: t0 = 772, jump @1379\n      : @853 [@dyn 386] (gas: 31)\n 22360: a3 = s1 + 0x7ff\n 22364: a3 = a3 + 0x39\n 22367: a4 = u64 [s1 + 0x80]\n 22371: a5 = a3 + 0x500\n 22375: u64 [a5 + 0x80] = a4\n 22379: a4 = u64 [s1 + 0x88]\n 22383: u64 [a5 + 0x78] = a4\n 22386: a4 = u64 [s1 + 0x90]\n 22390: u64 [a5 + 0x70] = a4\n 22393: a4 = u64 [s1 + 0x98]\n 22397: u64 [a5 + 0x68] = a4\n 22400: u64 [a3 + 1440] = 0\n 22404: a4 = u64 [s1 + 0xa0]\n 22408: u64 [a5 + 0xc0] = a4\n 22412: a4 = u64 [s1 + 0xa8]\n 22416: u64 [a5 + 0xb8] = a4\n 22420: a4 = u64 [s1 + 0xb0]\n 22424: u64 [a5 + 0xb0] = a4\n 22428: u64 [a5 + 0x98] = a2\n 22432: u64 [a5 + 0x90] = a0\n 22436: u64 [a5 + 0x88] = a1\n 22440: a4 = a3\n 22442: a0 = s1 + 0x7ff\n 22446: a0 = a0 + 0x5e1\n 22450: a1 = s1 + 0x7ff\n 22454: a1 = a1 + 0x5c1\n 22458: a2 = s1 + 0x7ff\n 22462: a2 = a2 + 0x5a1\n 22466: a3 = u64 [s1 + 0xb8]\n 22470: u64 [a4 + 0x5a8] = a3\n 22474: ra = 774, jump @1058\n      : @854 [@dyn 387] (gas: 25)\n 22480: a0 = u64 [s1 + 0x80]\n 22484: a1 = s1 + 0x7ff\n 22488: a1 = a1 + 0x39\n 22491: a2 = a1 + 0x500\n 22495: u64 [a2 + 0x40] = a0\n 22498: a0 = u64 [s1 + 0x88]\n 22502: u64 [a2 + 0x38] = a0\n 22505: a0 = u64 [s1 + 0x90]\n 22509: u64 [a2 + 0x30] = a0\n 22512: a0 = u64 [s1 + 0x98]\n 22516: u64 [a2 + 0x28] = a0\n 22519: a0 = u64 [s1 + 0xa0]\n 22523: u64 [a2 + 0x60] = a0\n 22526: a0 = u64 [s1 + 0xa8]\n 22530: u64 [a2 + 0x58] = a0\n 22533: a0 = u64 [s1 + 0xb0]\n 22537: u64 [a2 + 0x50] = a0\n 22540: a3 = a1\n 22542: a0 = s1 + 0x7ff\n 22546: a0 = a0 + 0x581\n 22550: a1 = s1 + 0x7ff\n 22554: a1 = a1 + 0x561\n 22558: a2 = u64 [s1 + 0xb8]\n 22562: u64 [a3 + 0x548] = a2\n 22566: ra = 776, jump @1299\n      : @855 [@dyn 388] (gas: 2)\n 22572: a1 = 0x20270\n 22577: jump @575\n      : @856 (gas: 17)\n 22580: sp = sp + 0xffffffffffffff30\n 22584: u64 [sp + 0xc8] = ra\n 22588: u64 [sp + 0xc0] = s0\n 22592: u64 [sp + 0xb8] = s1\n 22596: s0 = sp + 0xd0\n 22600: sp = sp & 0xfffffffffffffff0\n 22603: a2 = u64 [a1 + 0x18]\n 22606: u64 [sp + 0x10] = a2\n 22609: a2 = u64 [a1 + 0x10]\n 22612: u64 [sp + 0x8] = a2\n 22615: a2 = u64 [a1 + 0x8]\n 22618: u64 [sp] = a2\n 22620: s1 = u64 [a1]\n 22622: u64 [sp + 0x28] = a0\n 22625: a0 = sp + 0x90\n 22629: a1 = 0x40\n 22632: ra = 778, jump @17\n      : @857 [@dyn 389] (gas: 39)\n 22638: a1 = u64 [sp + 0x98]\n 22642: a2 = u64 [sp + 0x90]\n 22646: a0 = s1 + 0x1f\n 22649: ra = a0 <u s1\n 22652: a3 = u64 [sp]\n 22654: a4 = a3 + ra\n 22657: a0 = a0 & 0xffffffffffffffe0\n 22660: t1 = a1 + a4\n 22663: t0 = a2 + a0\n 22666: u64 [sp + 0x20] = a2\n 22669: a5 = t0 <u a2\n 22672: t1 = t1 + a5\n 22675: s1 = t1 ^ a1\n 22678: u64 [sp + 0x18] = a1\n 22681: a2 = t1 <u a1\n 22684: a2 = a5 if s1 == 0\n 22687: t2 = u64 [sp + 0xa8]\n 22691: a4 = a4 <u a3\n 22694: s1 = u64 [sp + 0xa0]\n 22698: a4 = ra if ra == 0\n 22701: a0 = u64 [sp + 0x8]\n 22704: a4 = a4 + a0\n 22707: a5 = a4 <u a0\n 22710: a4 = a4 + s1\n 22713: a3 = a4 + a2\n 22716: a0 = u64 [sp + 0x10]\n 22719: a0 = a0 + t2\n 22722: a0 = a0 + a5\n 22725: a5 = a3 <u a4\n 22728: a4 = a4 <u s1\n 22731: a0 = a0 + a4\n 22734: a4 = a0 + a5\n 22737: a0 = a4 >u 0\n 22739: a5 = a3 >u 0\n 22741: a5 = a0 if a4 != 0\n 22744: a0 = a3 | a4\n 22747: a1 = t1 >u 0\n 22749: a1 = a5 if a0 != 0\n 22752: jump @861 if a1 != 0\n      : @858 (gas: 8)\n 22755: a0 = a3 <u s1\n 22758: a1 = a4 ^ t2\n 22761: a5 = a4 <u t2\n 22764: a5 = a0 if a1 == 0\n 22767: a0 = a3 ^ s1\n 22770: a0 = a0 | a1\n 22773: a2 = a5 if a0 != 0\n 22776: jump @861 if a2 != 0\n      : @859 (gas: 8)\n 22779: u64 [sp + 0x70] = t0\n 22782: u64 [sp + 0x78] = t1\n 22785: u64 [sp + 0x80] = a3\n 22789: a0 = 0x40\n 22792: a1 = sp + 0x70\n 22795: u64 [sp + 0x88] = a4\n 22799: u64 [sp + 0x10] = t2\n 22802: ra = 780, jump @19\n      : @860 [@dyn 390] (gas: 14)\n 22808: a0 = u64 [sp + 0x28]\n 22811: a1 = u64 [sp + 0x10]\n 22814: u64 [a0 + 0x18] = a1\n 22817: u64 [a0 + 0x10] = s1\n 22820: a1 = u64 [sp + 0x18]\n 22823: u64 [a0 + 0x8] = a1\n 22826: a1 = u64 [sp + 0x20]\n 22829: u64 [a0] = a1\n 22831: sp = s0 + 0xffffffffffffff30\n 22835: ra = u64 [sp + 0xc8]\n 22839: s0 = u64 [sp + 0xc0]\n 22843: s1 = u64 [sp + 0xb8]\n 22847: sp = sp + 0xd0\n 22851: ret\n      : @861 (gas: 6)\n 22853: u64 [sp + 96] = 0\n 22856: u64 [sp + 88] = 0\n 22859: u64 [sp + 80] = 0\n 22862: t0 = 0x30e\n 22866: a0 = 0x4e487b7100000000\n 22876: fallthrough\n      : @862 [@dyn 391] (gas: 4)\n 22877: a1 = sp + 0x50\n 22880: u64 [sp + 0x68] = a0\n 22883: a0 = 0\n 22885: ra = 784, jump @19\n      : @863 [@dyn 392] (gas: 7)\n 22891: u64 [sp + 72] = 0\n 22894: u64 [sp + 64] = 0\n 22897: u64 [sp + 48] = 0x41\n 22901: a0 = 0x4\n 22904: a1 = sp + 0x30\n 22907: u64 [sp + 56] = 0\n 22910: ra = 786, jump @19\n      : @864 [@dyn 393] (gas: 2)\n 22916: a1 = i32 [0x20264]\n 22921: jump @866 if a1 >u 63\n      : @865 (gas: 2)\n 22925: u32 [0x20264] = 0x40\n 22931: fallthrough\n      : @866 (gas: 7)\n 22932: a1 = 0x20270\n 22937: i32 a1 = a1 + 0\n 22939: a0 = 0x1\n 22942: a2 = 0x24\n 22945: ra = 0x314\n 22949: ecalli 7 // 'seal_return'\n 22951: fallthrough\n      : @867 [@dyn 394] (gas: 37)\n 22952: sp = sp + 0xfffffffffffffe70\n 22956: u64 [sp + 0x188] = ra\n 22960: u64 [sp + 0x180] = s0\n 22964: u64 [sp + 0x178] = s1\n 22968: s0 = sp + 0x190\n 22972: sp = sp & 0xfffffffffffffff0\n 22975: t2 = u64 [a1]\n 22977: a4 = u64 [a2 + 0x8]\n 22980: ra = u64 [a1 + 0x8]\n 22983: s1 = u64 [a2]\n 22985: a3 = t2 + 0x1f\n 22988: t0 = a3 <u t2\n 22991: a5 = ra + t0\n 22994: u64 [sp + 0x20] = s1\n 22997: t1 = a3 <u s1\n 23000: a3 = a5 ^ a4\n 23003: u64 [sp + 0x28] = a4\n 23006: a4 = a5 <u a4\n 23009: a4 = t1 if a3 == 0\n 23012: s1 = u64 [a1 + 0x10]\n 23015: a3 = a5 <u ra\n 23018: a3 = t0 if t0 == 0\n 23021: a5 = u64 [a2 + 0x18]\n 23024: t0 = u64 [a1 + 0x18]\n 23027: t1 = u64 [a2 + 0x10]\n 23030: a3 = a3 + s1\n 23033: a1 = a3 <u s1\n 23036: a1 = a1 + t0\n 23039: a2 = a1 ^ a5\n 23042: u64 [sp + 0x10] = a5\n 23045: a1 = a1 <s a5\n 23048: a5 = a3 <u t1\n 23051: a1 = a5 if a2 == 0\n 23054: a3 = a3 ^ t1\n 23057: a2 = a2 | a3\n 23060: a4 = a1 if a2 != 0\n 23063: jump @885 if a4 == 0\n      : @868 (gas: 13)\n 23067: u64 [sp + 0x8] = a0\n 23070: u64 [sp + 0x18] = t1\n 23073: a0 = t2 | s1\n 23076: u64 [sp + 0x38] = ra\n 23079: u64 [sp + 0x30] = t0\n 23082: a1 = ra | t0\n 23085: a0 = a0 | a1\n 23088: a0 = a0 >> 0x20\n 23091: u64 [sp + 0x58] = s1\n 23094: a1 = a1 | s1\n 23097: a1 = a1 << 0x20\n 23100: a0 = a0 | a1\n 23103: jump @884 if a0 != 0\n      : @869 (gas: 4)\n 23107: a0 = sp + 0x150\n 23111: u64 [sp + 0x50] = t2\n 23114: a1 = t2\n 23116: ra = 790, jump @17\n      : @870 [@dyn 395] (gas: 12)\n 23122: a3 = u64 [sp + 0x168]\n 23126: a2 = u64 [sp + 0x160]\n 23130: a4 = u64 [sp + 0x158]\n 23134: a0 = a3 >u 0\n 23136: a1 = a2 >u 0\n 23138: a1 = a0 if a3 != 0\n 23141: u64 [sp + 0x80] = a2\n 23145: u64 [sp + 0x88] = a3\n 23149: a0 = a2 | a3\n 23152: a2 = a4 >u 0\n 23154: a2 = a1 if a0 != 0\n 23157: jump @886 if a2 != 0\n      : @871 (gas: 20)\n 23161: a1 = u64 [sp + 0x150]\n 23165: a0 = a1 + 0x1f\n 23168: u64 [sp + 0x48] = a1\n 23171: a1 = a0 <u a1\n 23174: u64 [sp + 0x78] = a4\n 23177: a1 = a1 + a4\n 23180: a1 = a1 & 0x1\n 23183: a0 = a0 & 0xffffffffffffffe0\n 23186: a2 = a0 + 0x20\n 23189: a0 = a2 <u a0\n 23192: a3 = a1 + a0\n 23195: a4 = a3 <u a1\n 23198: a4 = a0 if a0 == 0\n 23201: u64 [sp + 296] = 0\n 23205: u64 [sp + 0x110] = a2\n 23209: u64 [sp + 0x118] = a3\n 23213: a0 = sp + 0x130\n 23217: a1 = sp + 0x110\n 23221: u64 [sp + 0x120] = a4\n 23225: ra = 792, jump @856\n      : @872 [@dyn 396] (gas: 15)\n 23231: a2 = u64 [sp + 0x148]\n 23235: a3 = u64 [sp + 0x140]\n 23239: a1 = u64 [sp + 0x138]\n 23243: a0 = u64 [sp + 0x130]\n 23247: u64 [sp + 0x40] = a1\n 23250: u64 [sp + 0x68] = a2\n 23253: a2 = a2 | a1\n 23256: a1 = a0 | a3\n 23259: a1 = a1 | a2\n 23262: a1 = a1 >> 0x20\n 23265: u64 [sp + 0x70] = a3\n 23268: a2 = a2 | a3\n 23271: a2 = a2 << 0x20\n 23274: a1 = a1 | a2\n 23277: jump @884 if a1 != 0\n      : @873 (gas: 11)\n 23281: s1 = u64 [sp + 0x48]\n 23284: u64 [sp + 0xf0] = s1\n 23288: a1 = u64 [sp + 0x78]\n 23291: u64 [sp + 0xf8] = a1\n 23295: a1 = u64 [sp + 0x80]\n 23299: u64 [sp + 0x100] = a1\n 23303: a1 = sp + 0xf0\n 23307: a2 = u64 [sp + 0x88]\n 23311: u64 [sp + 0x108] = a2\n 23315: u64 [sp + 0x60] = a0\n 23318: ra = 794, jump @19\n      : @874 [@dyn 397] (gas: 45)\n 23324: a0 = u64 [sp + 0x50]\n 23327: a3 = a0 + s1\n 23330: a2 = a3 <u a0\n 23333: t2 = u64 [sp + 0x38]\n 23336: a0 = u64 [sp + 0x78]\n 23339: a0 = a0 + t2\n 23342: a0 = a0 + a2\n 23345: a4 = a0 ^ t2\n 23348: a1 = a0 <u t2\n 23351: a1 = a2 if a4 == 0\n 23354: t1 = u64 [sp + 0x58]\n 23357: a2 = u64 [sp + 0x80]\n 23361: a2 = a2 + t1\n 23364: a5 = a3 + 0x20\n 23367: t0 = a5 <u a3\n 23370: a4 = a0 + t0\n 23373: a3 = u64 [sp + 0x20]\n 23376: a5 = a3 <u a5\n 23379: a3 = u64 [sp + 0x28]\n 23382: s1 = a4 ^ a3\n 23385: a3 = a3 <u a4\n 23388: a5 = a3 if s1 != 0\n 23391: a3 = a2 <u t1\n 23394: t1 = u64 [sp + 0x30]\n 23397: s1 = u64 [sp + 0x88]\n 23401: s1 = s1 + t1\n 23404: a3 = a3 + s1\n 23407: a1 = a1 + a2\n 23410: a2 = a1 <u a2\n 23413: a2 = a2 + a3\n 23416: a0 = a4 <u a0\n 23419: a0 = t0 if t0 == 0\n 23422: a0 = a0 + a1\n 23425: a1 = a0 <u a1\n 23428: a1 = a1 + a2\n 23431: a3 = u64 [sp + 0x10]\n 23434: a2 = a1 ^ a3\n 23437: a1 = a3 <u a1\n 23440: a4 = u64 [sp + 0x18]\n 23443: a3 = a4 <u a0\n 23446: a1 = a3 if a2 == 0\n 23449: a0 = a0 ^ a4\n 23452: a0 = a0 | a2\n 23455: a5 = a1 if a0 != 0\n 23458: jump @892 if a5 != 0\n      : @875 (gas: 10)\n 23462: a0 = u64 [sp + 0x70]\n 23465: a1 = u64 [sp + 0x68]\n 23468: a1 = a1 | a0\n 23471: a0 = 0xffffffe0\n 23481: a4 = u64 [sp + 0x60]\n 23484: a2 = a4 <u a0\n 23487: a3 = u64 [sp + 0x40]\n 23490: a2 = 0 if a3 != 0\n 23492: a2 = 0 if a1 != 0\n 23494: jump @884 if a2 == 0\n      : @876 (gas: 12)\n 23498: a3 = a4\n 23500: a1 = u64 [sp + 0x58]\n 23503: a1 = a1 | t1\n 23506: a5 = u64 [sp + 0x50]\n 23509: a0 = a5 <u a0\n 23512: a0 = 0 if t2 != 0\n 23514: a0 = 0 if a1 != 0\n 23516: ra = u64 [sp + 0x88]\n 23520: a2 = u64 [sp + 0x80]\n 23524: a4 = u64 [sp + 0x78]\n 23527: s1 = u64 [sp + 0x48]\n 23530: jump @884 if a0 == 0\n      : @877 (gas: 8)\n 23534: a0 = s1 | a2\n 23537: a1 = a4 | ra\n 23540: a0 = a0 | a1\n 23543: a0 = a0 >> 0x20\n 23546: a1 = a1 | a2\n 23549: a1 = a1 << 0x20\n 23552: a0 = a0 | a1\n 23555: jump @884 if a0 != 0\n      : @878 (gas: 5)\n 23559: i32 a0 = a3 + 0x20\n 23562: i32 a1 = a5 + 0x20\n 23565: u64 [sp + 0x58] = a1\n 23568: a1 = s1\n 23570: ra = 796, jump @33\n      : @879 [@dyn 398] (gas: 4)\n 23576: u64 [sp + 0x50] = a0\n 23579: a0 = u64 [sp + 0x58]\n 23582: a1 = s1\n 23584: ra = 798, jump @33\n      : @880 [@dyn 399] (gas: 4)\n 23590: a1 = a0\n 23592: a0 = u64 [sp + 0x50]\n 23595: a2 = s1\n 23597: ra = 800, jump @0\n      : @881 [@dyn 400] (gas: 27)\n 23603: a1 = u64 [sp + 0x60]\n 23606: a0 = a1 + s1\n 23609: a1 = a0 <u a1\n 23612: s1 = u64 [sp + 0x40]\n 23615: a2 = u64 [sp + 0x78]\n 23618: a2 = a2 + s1\n 23621: a2 = a2 + a1\n 23624: a3 = a2 ^ s1\n 23627: a4 = a2 <u s1\n 23630: a4 = a1 if a3 == 0\n 23633: a5 = u64 [sp + 0x70]\n 23636: a1 = u64 [sp + 0x80]\n 23640: a1 = a1 + a5\n 23643: a4 = a4 + a1\n 23646: t0 = a4 <u a1\n 23649: a1 = a1 <u a5\n 23652: a5 = u64 [sp + 0x88]\n 23656: a3 = u64 [sp + 0x68]\n 23659: a5 = a5 + a3\n 23662: a1 = a1 + a5\n 23665: a1 = a1 + t0\n 23668: a1 = a1 | a4\n 23671: a3 = 0xffffffe0\n 23681: a3 = a0 <u a3\n 23684: a3 = 0 if a2 != 0\n 23686: a3 = 0 if a1 != 0\n 23688: jump @884 if a3 == 0\n      : @882 (gas: 7)\n 23691: i32 a0 = a0 + 0x20\n 23694: u64 [sp + 232] = 0\n 23698: u64 [sp + 224] = 0\n 23702: u64 [sp + 216] = 0\n 23706: a1 = sp + 0xd0\n 23710: u64 [sp + 208] = 0\n 23714: ra = 802, jump @19\n      : @883 [@dyn 401] (gas: 14)\n 23720: a0 = u64 [sp + 0x8]\n 23723: a1 = u64 [sp + 0x68]\n 23726: u64 [a0 + 0x18] = a1\n 23729: a1 = u64 [sp + 0x70]\n 23732: u64 [a0 + 0x10] = a1\n 23735: u64 [a0 + 0x8] = s1\n 23738: a1 = u64 [sp + 0x60]\n 23741: u64 [a0] = a1\n 23743: sp = s0 + 0xfffffffffffffe70\n 23747: ra = u64 [sp + 0x188]\n 23751: s0 = u64 [sp + 0x180]\n 23755: s1 = u64 [sp + 0x178]\n 23759: sp = sp + 0x190\n 23763: ret\n      : @884 (gas: 1)\n 23765: trap\n      : @885 (gas: 2)\n 23766: a1 = 0x20270\n 23771: jump @893\n      : @886 (gas: 6)\n 23773: u64 [sp + 192] = 0\n 23777: u64 [sp + 184] = 0\n 23781: u64 [sp + 176] = 0\n 23785: t0 = 0x324\n 23789: a0 = 0x4e487b7100000000\n 23799: fallthrough\n      : @887 [@dyn 402] (gas: 4)\n 23800: a1 = sp + 0xb0\n 23804: u64 [sp + 0xc8] = a0\n 23808: a0 = 0\n 23810: ra = 806, jump @19\n      : @888 [@dyn 403] (gas: 7)\n 23816: u64 [sp + 168] = 0\n 23820: u64 [sp + 160] = 0\n 23824: u64 [sp + 144] = 0x41\n 23829: a0 = 0x4\n 23832: a1 = sp + 0x90\n 23836: u64 [sp + 152] = 0\n 23840: ra = 808, jump @19\n      : @889 [@dyn 404] (gas: 2)\n 23846: a1 = i32 [0x20264]\n 23851: jump @891 if a1 >u 63\n      : @890 (gas: 2)\n 23855: u32 [0x20264] = 0x40\n 23861: fallthrough\n      : @891 (gas: 7)\n 23862: a1 = 0x20270\n 23867: i32 a1 = a1 + 0\n 23869: a0 = 0x1\n 23872: a2 = 0x24\n 23875: ecalli 7 // 'seal_return'\n 23877: a1 = 0x20270\n 23882: jump @893\n      : @892 (gas: 2)\n 23884: a1 = 0x20270\n 23889: fallthrough\n      : @893 (gas: 6)\n 23890: i32 a1 = a1 + 0\n 23892: a0 = 0x1\n 23895: a2 = 0\n 23897: ra = 0x32a\n 23901: ecalli 7 // 'seal_return'\n 23903: fallthrough\n      : @894 [@dyn 405] (gas: 22)\n 23904: sp = sp + 0xfffffffffffffda0\n 23908: a2 = sp + 0x200\n 23912: u64 [a2 + 0x58] = ra\n 23915: u64 [a2 + 0x50] = s0\n 23918: u64 [a2 + 0x48] = s1\n 23921: s0 = sp + 0x260\n 23925: sp = sp & 0xffffffffffffffe0\n 23928: s1 = sp\n 23930: a2 = u64 [a1 + 0x10]\n 23933: u64 [s1 + 0x30] = a2\n 23936: a2 = u64 [a1 + 0x8]\n 23939: u64 [s1 + 0x50] = a2\n 23942: a1 = u64 [a1]\n 23944: u64 [s1 + 0x58] = a1\n 23947: u64 [s1 + 0x38] = a0\n 23950: u64 [s1 + 536] = 0\n 23954: u64 [s1 + 528] = 0\n 23958: u64 [s1 + 520] = 0\n 23962: a1 = s1 + 0x200\n 23966: u64 [s1 + 512] = 0\n 23970: a0 = 0\n 23972: ra = 812, jump @19\n      : @895 [@dyn 406] (gas: 7)\n 23978: u64 [s1 + 504] = 0\n 23982: u64 [s1 + 496] = 0\n 23986: u64 [s1 + 480] = 0x6\n 23991: a0 = 0x20\n 23994: a1 = s1 + 0x1e0\n 23998: u64 [s1 + 488] = 0\n 24002: ra = 814, jump @19\n      : @896 [@dyn 407] (gas: 3)\n 24008: a1 = 0x20264\n 24013: a0 = i32 [0x20264]\n 24018: jump @898 if a0 >u 63\n      : @897 (gas: 2)\n 24022: u32 [0x20264] = 0x40\n 24028: fallthrough\n      : @898 (gas: 14)\n 24029: a0 = sp + 0xffffffffffffffe0\n 24032: a2 = a0 & 0xffffffffffffffe0\n 24035: u64 [s1 + 0x28] = a2\n 24038: sp = a2\n 24040: a0 = 0x20270\n 24045: i32 a0 = a0 + 0\n 24047: i32 a2 = a2 + 0\n 24049: u64 [s1 + 0x48] = a1\n 24052: a1 = 0x40\n 24055: u64 [s1 + 0x40] = a0\n 24058: ra = 0x330\n 24062: ecalli 6 // 'hash_keccak_256'\n 24064: t0 = 0x332\n 24068: jump @1353\n      : @899 [@dyn 408] (gas: 1)\n 24071: t0 = 818, jump @1353\n      : @900 [@dyn 409] (gas: 13)\n 24077: a0 = u64 [s1 + 0x30]\n 24080: a0 = a0 << 0x20\n 24083: a0 = a0 >> 0x20\n 24086: u64 [s1 + 472] = 0\n 24090: u64 [s1] = a0\n 24092: u64 [s1 + 0x1d0] = a0\n 24096: a0 = u64 [s1 + 0x50]\n 24099: u64 [s1 + 0x1c8] = a0\n 24103: a1 = s1 + 0x1c0\n 24107: a0 = u64 [s1 + 0x58]\n 24110: u64 [s1 + 0x1c0] = a0\n 24114: a0 = 0\n 24116: ra = 820, jump @19\n      : @901 [@dyn 410] (gas: 12)\n 24122: a0 = u64 [s1 + 0x8]\n 24125: a3 = s1 + 0x100\n 24129: u64 [a3 + 0xb8] = a0\n 24133: a0 = u64 [s1 + 0x10]\n 24136: u64 [a3 + 0xb0] = a0\n 24140: a0 = u64 [s1 + 0x18]\n 24143: u64 [a3 + 0xa8] = a0\n 24147: a0 = 0x20\n 24150: a1 = s1 + 0x1a0\n 24154: a2 = u64 [s1 + 0x20]\n 24157: u64 [a3 + 0xa0] = a2\n 24161: ra = 822, jump @19\n      : @902 [@dyn 411] (gas: 3)\n 24167: a1 = u64 [s1 + 0x48]\n 24170: a0 = i32 [a1]\n 24172: jump @904 if a0 >u 63\n      : @903 (gas: 3)\n 24176: u32 [a1 + 0] = 0x40\n 24179: t0 = 0x338\n 24183: jump @1413\n      : @904 (gas: 1)\n 24186: t0 = 824, jump @1413\n      : @905 [@dyn 412] (gas: 5)\n 24192: ra = 0x33a\n 24196: ecalli 6 // 'hash_keccak_256'\n 24198: a3 = u64 [s1 + 0x30]\n 24201: t0 = 0x33c\n 24205: jump @1364\n      : @906 [@dyn 413] (gas: 2)\n 24208: a3 = u64 [s1 + 0x30]\n 24211: t0 = 828, jump @1364\n      : @907 [@dyn 414] (gas: 2)\n 24217: a0 = s1 + 0x180\n 24221: ra = 830, jump @21\n      : @908 [@dyn 415] (gas: 2)\n 24227: a0 = u8 [s1 + 0x180]\n 24231: jump @910 if a0 == 0\n      : @909 (gas: 2)\n 24234: a1 = 0\n 24236: jump @930\n      : @910 (gas: 6)\n 24239: u64 [s1 + 376] = 0\n 24243: u64 [s1 + 368] = 0\n 24247: u64 [s1 + 360] = 0\n 24251: a1 = s1 + 0x160\n 24255: u64 [s1 + 352] = 0\n 24259: ra = 832, jump @19\n      : @911 [@dyn 416] (gas: 1)\n 24265: t0 = 834, jump @1373\n      : @912 [@dyn 417] (gas: 1)\n 24271: ra = 836, jump @19\n      : @913 [@dyn 418] (gas: 3)\n 24277: a1 = u64 [s1 + 0x48]\n 24280: a0 = i32 [a1]\n 24282: jump @915 if a0 >u 63\n      : @914 (gas: 3)\n 24286: u32 [a1 + 0] = 0x40\n 24289: t0 = 0x346\n 24293: jump @1413\n      : @915 (gas: 1)\n 24296: t0 = 838, jump @1413\n      : @916 [@dyn 419] (gas: 5)\n 24302: ra = 0x348\n 24306: ecalli 6 // 'hash_keccak_256'\n 24308: a3 = u64 [s1 + 0x30]\n 24311: t0 = 0x34a\n 24315: jump @1405\n      : @917 [@dyn 420] (gas: 2)\n 24318: a3 = u64 [s1 + 0x30]\n 24321: t0 = 842, jump @1405\n      : @918 [@dyn 421] (gas: 21)\n 24327: u64 [s1 + 0x28] = a0\n 24330: a0 = reverse a1\n 24332: u64 [s1 + 0x20] = a0\n 24335: a0 = reverse a2\n 24337: u64 [s1 + 0x18] = a0\n 24340: a0 = reverse a3\n 24342: u64 [s1 + 0x10] = a0\n 24345: a0 = sp + 0xffffffffffffffe0\n 24348: a0 = a0 & 0xffffffffffffffe0\n 24351: u64 [s1 + 0x30] = a0\n 24354: sp = a0\n 24356: u64 [s1 + 312] = 0\n 24360: a0 = u64 [s1]\n 24362: u64 [s1 + 0x130] = a0\n 24366: a0 = u64 [s1 + 0x50]\n 24369: u64 [s1 + 0x128] = a0\n 24373: a1 = s1 + 0x120\n 24377: a0 = u64 [s1 + 0x58]\n 24380: u64 [s1 + 0x120] = a0\n 24384: a0 = 0\n 24386: ra = 844, jump @19\n      : @919 [@dyn 422] (gas: 12)\n 24392: a0 = u64 [s1 + 0x10]\n 24395: a3 = s1 + 0x100\n 24399: u64 [a3 + 0x18] = a0\n 24402: a0 = u64 [s1 + 0x18]\n 24405: u64 [a3 + 0x10] = a0\n 24408: a0 = u64 [s1 + 0x20]\n 24411: u64 [a3 + 0x8] = a0\n 24414: a0 = 0x20\n 24417: a1 = s1 + 0x100\n 24421: a2 = u64 [s1 + 0x28]\n 24424: u64 [a3] = a2\n 24426: ra = 846, jump @19\n      : @920 [@dyn 423] (gas: 3)\n 24432: a1 = u64 [s1 + 0x48]\n 24435: a0 = i32 [a1]\n 24437: jump @922 if a0 >u 63\n      : @921 (gas: 2)\n 24441: u32 [a1 + 0] = 0x40\n 24444: fallthrough\n      : @922 (gas: 12)\n 24445: a0 = sp + 0xffffffffffffffe0\n 24448: a0 = a0 & 0xffffffffffffffe0\n 24451: u64 [s1 + 0x48] = a0\n 24454: sp = a0\n 24456: i32 a2 = a0 + 0\n 24458: a1 = 0x40\n 24461: a0 = u64 [s1 + 0x40]\n 24464: ra = 0x350\n 24468: ecalli 6 // 'hash_keccak_256'\n 24470: a3 = u64 [s1 + 0x48]\n 24473: t0 = 0x352\n 24477: jump @1356\n      : @923 [@dyn 424] (gas: 2)\n 24480: a3 = u64 [s1 + 0x48]\n 24483: t0 = 850, jump @1356\n      : @924 [@dyn 425] (gas: 7)\n 24489: a1 = u64 [s1 + 0x30]\n 24492: u64 [a1 + 0x18] = a3\n 24495: u64 [a1 + 0x10] = a2\n 24498: u64 [a1 + 0x8] = a4\n 24501: u64 [a1] = a0\n 24503: a0 = s1 + 0xe0\n 24507: ra = 852, jump @21\n      : @925 [@dyn 426] (gas: 14)\n 24513: a0 = u64 [s1 + 0xe0]\n 24517: a1 = u64 [s1 + 0xe8]\n 24521: a2 = u64 [s1 + 0xf8]\n 24525: a3 = u64 [s1 + 0xf0]\n 24529: a0 = a0 & 0xffffffffffffff00\n 24533: a0 = a0 | 0x1\n 24536: a4 = s1 + 0x200\n 24540: u64 [a4 + 0x38] = a2\n 24543: u64 [a4 + 0x30] = a3\n 24546: u64 [a4 + 0x28] = a1\n 24549: u64 [a4 + 0x20] = a0\n 24552: a1 = s1 + 0x220\n 24556: a0 = u64 [s1 + 0x30]\n 24559: ra = 854, jump @24\n      : @926 [@dyn 427] (gas: 8)\n 24565: a0 = 0x30270\n 24570: u64 [s1 + 0x48] = a0\n 24573: i32 a0 = a0 + 0\n 24575: ra = 0x358\n 24579: ecalli 3 // 'caller'\n 24581: a2 = u64 [s1 + 0x48]\n 24584: t0 = 0x35a\n 24588: jump @1352\n      : @927 [@dyn 428] (gas: 2)\n 24591: a2 = u64 [s1 + 0x48]\n 24594: t0 = 858, jump @1352\n      : @928 [@dyn 429] (gas: 36)\n 24600: t0 = a1 | a0\n 24603: a3 = a3 >> 0x20\n 24606: a2 = reverse a2\n 24608: a1 = a2 << 0x20\n 24611: a1 = a1 | a3\n 24614: a2 = a2 >> 0x20\n 24617: u64 [s1 + 120] = 0\n 24620: u64 [s1 + 152] = 0\n 24624: a0 = u64 [s1]\n 24626: u64 [s1 + 0x90] = a0\n 24630: a0 = u64 [s1 + 0x50]\n 24633: u64 [s1 + 0x88] = a0\n 24637: a0 = u64 [s1 + 0x58]\n 24640: u64 [s1 + 0x80] = a0\n 24644: u64 [s1 + 184] = 0\n 24648: u64 [s1 + 176] = 0\n 24652: u64 [s1 + 168] = 0\n 24656: u64 [s1 + 160] = 0\n 24660: a3 = u64 [0x20120]\n 24665: a4 = u64 [0x20128]\n 24670: a5 = u64 [0x20130]\n 24675: a0 = u64 [0x20138]\n 24680: u64 [s1 + 0xd8] = a3\n 24684: u64 [s1 + 0xd0] = a4\n 24688: u64 [s1 + 0xc8] = a5\n 24692: u64 [s1 + 0xc0] = a0\n 24696: u64 [s1 + 0x70] = a2\n 24699: u64 [s1 + 0x68] = a1\n 24702: a2 = s1 + 0xc0\n 24706: a3 = s1 + 0xa0\n 24710: a4 = s1 + 0x80\n 24714: a5 = s1 + 0x60\n 24717: u64 [s1 + 0x60] = t0\n 24720: a0 = 0\n 24722: a1 = 0\n 24724: ra = 860, jump @30\n      : @929 [@dyn 430] (gas: 2)\n 24730: a1 = 0x1\n 24733: fallthrough\n      : @930 (gas: 12)\n 24734: a2 = u64 [s1 + 0x38]\n 24737: u64 [a2] = a1\n 24739: u64 [a2 + 8] = 0\n 24742: u64 [a2 + 16] = 0\n 24745: u64 [a2 + 24] = 0\n 24748: sp = s0 + 0xfffffffffffffda0\n 24752: a0 = sp + 0x200\n 24756: ra = u64 [a0 + 0x58]\n 24759: s0 = u64 [a0 + 0x50]\n 24762: s1 = u64 [a0 + 0x48]\n 24765: sp = sp + 0x260\n 24769: ret\n      : @931 [@dyn 431] (gas: 7)\n 24771: a0 = u64 [0x20140]\n 24776: u64 [s1 + 0x20] = a0\n 24779: u64 [s1 + 0x238] = a0\n 24783: a1 = u64 [0x20148]\n 24788: a2 = u64 [0x20150]\n 24793: a0 = u64 [0x20158]\n 24798: t0 = 864, jump @1401\n      : @932 [@dyn 432] (gas: 1)\n 24804: ra = 866, jump @19\n      : @933 [@dyn 433] (gas: 1)\n 24810: t0 = 868, jump @1362\n      : @934 [@dyn 434] (gas: 1)\n 24816: ra = 870, jump @19\n      : @935 [@dyn 435] (gas: 3)\n 24822: a1 = 0x20264\n 24827: a0 = i32 [0x20264]\n 24832: jump @937 if a0 >u 63\n      : @936 (gas: 2)\n 24836: u32 [0x20264] = 0x40\n 24842: fallthrough\n      : @937 (gas: 6)\n 24843: a0 = sp + 0xffffffffffffffe0\n 24846: a2 = a0 & 0xffffffffffffffe0\n 24849: u64 [s1 + 0x48] = a2\n 24852: sp = a2\n 24854: a0 = 0x20270\n 24859: t0 = 872, jump @1420\n      : @938 [@dyn 436] (gas: 4)\n 24865: ra = 0x36a\n 24869: ecalli 6 // 'hash_keccak_256'\n 24871: t0 = 0x36c\n 24875: jump @1348\n      : @939 [@dyn 437] (gas: 1)\n 24878: t0 = 876, jump @1348\n      : @940 [@dyn 438] (gas: 1)\n 24884: ra = 878, jump @19\n      : @941 [@dyn 439] (gas: 1)\n 24890: t0 = 880, jump @1371\n      : @942 [@dyn 440] (gas: 1)\n 24896: ra = 882, jump @19\n      : @943 [@dyn 441] (gas: 3)\n 24902: a1 = u64 [s1 + 0x68]\n 24905: a0 = i32 [a1]\n 24907: jump @945 if a0 >u 63\n      : @944 (gas: 3)\n 24911: u32 [a1 + 0] = 0x40\n 24914: t0 = 0x374\n 24918: jump @1358\n      : @945 (gas: 1)\n 24921: t0 = 884, jump @1358\n      : @946 [@dyn 442] (gas: 4)\n 24927: ra = 0x376\n 24931: ecalli 6 // 'hash_keccak_256'\n 24933: t0 = 0x378\n 24937: jump @1355\n      : @947 [@dyn 443] (gas: 1)\n 24940: t0 = 888, jump @1355\n      : @948 [@dyn 444] (gas: 1)\n 24946: ra = 890, jump @21\n      : @949 [@dyn 445] (gas: 2)\n 24952: a0 = u8 [s1 + 0x1a0]\n 24956: jump @951 if a0 == 0\n      : @950 (gas: 5)\n 24959: a1 = 0\n 24961: a0 = 0\n 24963: a2 = u64 [s1 + 0x58]\n 24966: t0 = 0x3a2\n 24970: jump @1360\n      : @951 (gas: 1)\n 24973: t0 = 892, jump @1387\n      : @952 [@dyn 446] (gas: 1)\n 24979: ra = 894, jump @19\n      : @953 [@dyn 447] (gas: 1)\n 24985: t0 = 896, jump @1361\n      : @954 [@dyn 448] (gas: 1)\n 24991: ra = 898, jump @19\n      : @955 [@dyn 449] (gas: 3)\n 24997: a1 = u64 [s1 + 0x68]\n 25000: a0 = i32 [a1]\n 25002: jump @957 if a0 >u 63\n      : @956 (gas: 3)\n 25006: u32 [a1 + 0] = 0x40\n 25009: t0 = 0x384\n 25013: jump @1358\n      : @957 (gas: 1)\n 25016: t0 = 900, jump @1358\n      : @958 [@dyn 450] (gas: 4)\n 25022: ra = 0x386\n 25026: ecalli 6 // 'hash_keccak_256'\n 25028: t0 = 0x388\n 25032: jump @1349\n      : @959 [@dyn 451] (gas: 1)\n 25035: t0 = 904, jump @1349\n      : @960 [@dyn 452] (gas: 1)\n 25041: ra = 906, jump @19\n      : @961 [@dyn 453] (gas: 1)\n 25047: t0 = 908, jump @1372\n      : @962 [@dyn 454] (gas: 1)\n 25053: ra = 910, jump @19\n      : @963 [@dyn 455] (gas: 3)\n 25059: a1 = u64 [s1 + 0x68]\n 25062: a0 = i32 [a1]\n 25064: jump @965 if a0 >u 63\n      : @964 (gas: 2)\n 25068: u32 [a1 + 0] = 0x40\n 25071: fallthrough\n      : @965 (gas: 4)\n 25072: a0 = sp + 0xffffffffffffffe0\n 25075: a0 = a0 & 0xffffffffffffffe0\n 25078: u64 [s1 + 0x68] = a0\n 25081: t0 = 912, jump @1365\n      : @966 [@dyn 456] (gas: 4)\n 25087: ra = 0x392\n 25091: ecalli 6 // 'hash_keccak_256'\n 25093: t0 = 0x394\n 25097: jump @1357\n      : @967 [@dyn 457] (gas: 1)\n 25100: t0 = 916, jump @1357\n      : @968 [@dyn 458] (gas: 1)\n 25106: ra = 918, jump @21\n      : @969 [@dyn 459] (gas: 1)\n 25112: t0 = 920, jump @1359\n      : @970 [@dyn 460] (gas: 1)\n 25118: ra = 922, jump @24\n      : @971 [@dyn 461] (gas: 8)\n 25124: a0 = 0x30270\n 25129: u64 [s1 + 0x68] = a0\n 25132: i32 a0 = a0 + 0\n 25134: ra = 0x39c\n 25138: ecalli 3 // 'caller'\n 25140: a2 = u64 [s1 + 0x68]\n 25143: t0 = 0x39e\n 25147: jump @1352\n      : @972 [@dyn 462] (gas: 2)\n 25150: a2 = u64 [s1 + 0x68]\n 25153: t0 = 926, jump @1352\n      : @973 [@dyn 463] (gas: 40)\n 25159: t0 = a1 | a0\n 25162: a3 = a3 >> 0x20\n 25165: a2 = reverse a2\n 25167: a1 = a2 << 0x20\n 25170: a1 = a1 | a3\n 25173: a2 = a2 >> 0x20\n 25176: u64 [s1 + 152] = 0\n 25180: u64 [s1 + 184] = 0\n 25184: a0 = u64 [s1]\n 25186: u64 [s1 + 0xb0] = a0\n 25190: a0 = u64 [s1 + 0x70]\n 25193: u64 [s1 + 0xa8] = a0\n 25197: a0 = u64 [s1 + 0x78]\n 25200: u64 [s1 + 0xa0] = a0\n 25204: a0 = u64 [s1 + 0x20]\n 25207: u64 [s1 + 0xd8] = a0\n 25211: a0 = u64 [s1 + 0x18]\n 25214: u64 [s1 + 0xd0] = a0\n 25218: a0 = u64 [s1 + 0x10]\n 25221: u64 [s1 + 0xc8] = a0\n 25225: a0 = u64 [s1 + 0x8]\n 25228: u64 [s1 + 0xc0] = a0\n 25232: a3 = u64 [0x20160]\n 25237: a4 = u64 [0x20168]\n 25242: a5 = u64 [0x20170]\n 25247: a0 = u64 [0x20178]\n 25252: u64 [s1 + 0xf8] = a3\n 25256: u64 [s1 + 0xf0] = a4\n 25260: u64 [s1 + 0xe8] = a5\n 25264: u64 [s1 + 0xe0] = a0\n 25268: u64 [s1 + 0x90] = a2\n 25272: u64 [s1 + 0x88] = a1\n 25276: a2 = s1 + 0xe0\n 25280: a3 = s1 + 0xc0\n 25284: a4 = s1 + 0xa0\n 25288: a5 = s1 + 0x80\n 25292: u64 [s1 + 0x80] = t0\n 25296: a0 = 0\n 25298: a1 = 0\n 25300: ra = 928, jump @30\n      : @974 [@dyn 464] (gas: 4)\n 25306: a0 = 0\n 25308: a1 = 0x1\n 25311: a2 = u64 [s1 + 0x58]\n 25314: t0 = 930, jump @1360\n      : @975 [@dyn 465] (gas: 1)\n 25320: ret\n      : @976 [@dyn 466] (gas: 7)\n 25322: a0 = u64 [0x20180]\n 25327: u64 [s1 + 0x20] = a0\n 25330: u64 [s1 + 0x238] = a0\n 25334: a1 = u64 [0x20188]\n 25339: a2 = u64 [0x20190]\n 25344: a0 = u64 [0x20198]\n 25349: t0 = 934, jump @1401\n      : @977 [@dyn 467] (gas: 1)\n 25355: ra = 936, jump @19\n      : @978 [@dyn 468] (gas: 1)\n 25361: t0 = 938, jump @1362\n      : @979 [@dyn 469] (gas: 1)\n 25367: ra = 940, jump @19\n      : @980 [@dyn 470] (gas: 3)\n 25373: a1 = 0x20264\n 25378: a0 = i32 [0x20264]\n 25383: jump @982 if a0 >u 63\n      : @981 (gas: 2)\n 25387: u32 [0x20264] = 0x40\n 25393: fallthrough\n      : @982 (gas: 6)\n 25394: a0 = sp + 0xffffffffffffffe0\n 25397: a2 = a0 & 0xffffffffffffffe0\n 25400: u64 [s1 + 0x48] = a2\n 25403: sp = a2\n 25405: a0 = 0x20270\n 25410: t0 = 942, jump @1420\n      : @983 [@dyn 471] (gas: 4)\n 25416: ra = 0x3b0\n 25420: ecalli 6 // 'hash_keccak_256'\n 25422: t0 = 0x3b2\n 25426: jump @1348\n      : @984 [@dyn 472] (gas: 1)\n 25429: t0 = 946, jump @1348\n      : @985 [@dyn 473] (gas: 1)\n 25435: ra = 948, jump @19\n      : @986 [@dyn 474] (gas: 1)\n 25441: t0 = 950, jump @1371\n      : @987 [@dyn 475] (gas: 1)\n 25447: ra = 952, jump @19\n      : @988 [@dyn 476] (gas: 3)\n 25453: a1 = u64 [s1 + 0x68]\n 25456: a0 = i32 [a1]\n 25458: jump @990 if a0 >u 63\n      : @989 (gas: 3)\n 25462: u32 [a1 + 0] = 0x40\n 25465: t0 = 0x3ba\n 25469: jump @1358\n      : @990 (gas: 1)\n 25472: t0 = 954, jump @1358\n      : @991 [@dyn 477] (gas: 4)\n 25478: ra = 0x3bc\n 25482: ecalli 6 // 'hash_keccak_256'\n 25484: t0 = 0x3be\n 25488: jump @1355\n      : @992 [@dyn 478] (gas: 1)\n 25491: t0 = 958, jump @1355\n      : @993 [@dyn 479] (gas: 1)\n 25497: ra = 960, jump @21\n      : @994 [@dyn 480] (gas: 2)\n 25503: a0 = u8 [s1 + 0x1a0]\n 25507: jump @996 if a0 == 0\n      : @995 (gas: 5)\n 25510: a1 = 0\n 25512: a0 = 0\n 25514: a2 = u64 [s1 + 0x58]\n 25517: t0 = 0x3e8\n 25521: jump @1360\n      : @996 (gas: 1)\n 25524: t0 = 962, jump @1387\n      : @997 [@dyn 481] (gas: 1)\n 25530: ra = 964, jump @19\n      : @998 [@dyn 482] (gas: 1)\n 25536: t0 = 966, jump @1361\n      : @999 [@dyn 483] (gas: 1)\n 25542: ra = 968, jump @19\n      : @1000 [@dyn 484] (gas: 3)\n 25548: a1 = u64 [s1 + 0x68]\n 25551: a0 = i32 [a1]\n 25553: jump @1002 if a0 >u 63\n      : @1001 (gas: 3)\n 25557: u32 [a1 + 0] = 0x40\n 25560: t0 = 0x3ca\n 25564: jump @1358\n      : @1002 (gas: 1)\n 25567: t0 = 970, jump @1358\n      : @1003 [@dyn 485] (gas: 4)\n 25573: ra = 0x3cc\n 25577: ecalli 6 // 'hash_keccak_256'\n 25579: t0 = 0x3ce\n 25583: jump @1349\n      : @1004 [@dyn 486] (gas: 1)\n 25586: t0 = 974, jump @1349\n      : @1005 [@dyn 487] (gas: 1)\n 25592: ra = 976, jump @19\n      : @1006 [@dyn 488] (gas: 1)\n 25598: t0 = 978, jump @1372\n      : @1007 [@dyn 489] (gas: 1)\n 25604: ra = 980, jump @19\n      : @1008 [@dyn 490] (gas: 3)\n 25610: a1 = u64 [s1 + 0x68]\n 25613: a0 = i32 [a1]\n 25615: jump @1010 if a0 >u 63\n      : @1009 (gas: 2)\n 25619: u32 [a1 + 0] = 0x40\n 25622: fallthrough\n      : @1010 (gas: 4)\n 25623: a0 = sp + 0xffffffffffffffe0\n 25626: a0 = a0 & 0xffffffffffffffe0\n 25629: u64 [s1 + 0x68] = a0\n 25632: t0 = 982, jump @1365\n      : @1011 [@dyn 491] (gas: 4)\n 25638: ra = 0x3d8\n 25642: ecalli 6 // 'hash_keccak_256'\n 25644: t0 = 0x3da\n 25648: jump @1357\n      : @1012 [@dyn 492] (gas: 1)\n 25651: t0 = 986, jump @1357\n      : @1013 [@dyn 493] (gas: 1)\n 25657: ra = 988, jump @21\n      : @1014 [@dyn 494] (gas: 1)\n 25663: t0 = 990, jump @1359\n      : @1015 [@dyn 495] (gas: 1)\n 25669: ra = 992, jump @24\n      : @1016 [@dyn 496] (gas: 8)\n 25675: a0 = 0x30270\n 25680: u64 [s1 + 0x68] = a0\n 25683: i32 a0 = a0 + 0\n 25685: ra = 0x3e2\n 25689: ecalli 3 // 'caller'\n 25691: a2 = u64 [s1 + 0x68]\n 25694: t0 = 0x3e4\n 25698: jump @1352\n      : @1017 [@dyn 497] (gas: 2)\n 25701: a2 = u64 [s1 + 0x68]\n 25704: t0 = 996, jump @1352\n      : @1018 [@dyn 498] (gas: 40)\n 25710: t0 = a1 | a0\n 25713: a3 = a3 >> 0x20\n 25716: a2 = reverse a2\n 25718: a1 = a2 << 0x20\n 25721: a1 = a1 | a3\n 25724: a2 = a2 >> 0x20\n 25727: u64 [s1 + 152] = 0\n 25731: u64 [s1 + 184] = 0\n 25735: a0 = u64 [s1]\n 25737: u64 [s1 + 0xb0] = a0\n 25741: a0 = u64 [s1 + 0x70]\n 25744: u64 [s1 + 0xa8] = a0\n 25748: a0 = u64 [s1 + 0x78]\n 25751: u64 [s1 + 0xa0] = a0\n 25755: a0 = u64 [s1 + 0x20]\n 25758: u64 [s1 + 0xd8] = a0\n 25762: a0 = u64 [s1 + 0x18]\n 25765: u64 [s1 + 0xd0] = a0\n 25769: a0 = u64 [s1 + 0x10]\n 25772: u64 [s1 + 0xc8] = a0\n 25776: a0 = u64 [s1 + 0x8]\n 25779: u64 [s1 + 0xc0] = a0\n 25783: a3 = u64 [0x201a0]\n 25788: a4 = u64 [0x201a8]\n 25793: a5 = u64 [0x201b0]\n 25798: a0 = u64 [0x201b8]\n 25803: u64 [s1 + 0xf8] = a3\n 25807: u64 [s1 + 0xf0] = a4\n 25811: u64 [s1 + 0xe8] = a5\n 25815: u64 [s1 + 0xe0] = a0\n 25819: u64 [s1 + 0x90] = a2\n 25823: u64 [s1 + 0x88] = a1\n 25827: a2 = s1 + 0xe0\n 25831: a3 = s1 + 0xc0\n 25835: a4 = s1 + 0xa0\n 25839: a5 = s1 + 0x80\n 25843: u64 [s1 + 0x80] = t0\n 25847: a0 = 0\n 25849: a1 = 0\n 25851: ra = 998, jump @30\n      : @1019 [@dyn 499] (gas: 4)\n 25857: a0 = 0\n 25859: a1 = 0x1\n 25862: a2 = u64 [s1 + 0x58]\n 25865: t0 = 1000, jump @1360\n      : @1020 [@dyn 500] (gas: 1)\n 25871: ret\n      : @1021 (gas: 22)\n 25873: sp = sp + 0xfffffffffffffee0\n 25877: u64 [sp + 0x118] = ra\n 25881: u64 [sp + 0x110] = s0\n 25885: u64 [sp + 0x108] = s1\n 25889: s0 = sp + 0x120\n 25893: sp = sp & 0xfffffffffffffff0\n 25896: a4 = u64 [a1 + 0x10]\n 25899: a3 = u64 [a1 + 0x18]\n 25902: a5 = u64 [a1 + 0x8]\n 25905: t0 = u64 [a1]\n 25907: u64 [sp + 0x68] = a3\n 25910: u64 [sp + 0x78] = a5\n 25913: a1 = a5 | a3\n 25916: a3 = t0 | a4\n 25919: a3 = a3 | a1\n 25922: a3 = a3 >> 0x20\n 25925: u64 [sp + 0x70] = a4\n 25928: a1 = a1 | a4\n 25931: a1 = a1 << 0x20\n 25934: a1 = a1 | a3\n 25937: u64 [sp + 0x8] = a0\n 25940: jump @1036 if a1 != 0\n      : @1022 (gas: 15)\n 25944: a0 = u64 [a2 + 0x18]\n 25947: u64 [sp + 0x48] = a0\n 25950: s1 = u64 [a2 + 0x10]\n 25953: a0 = u64 [a2 + 0x8]\n 25956: u64 [sp + 0x50] = a0\n 25959: a0 = u64 [a2]\n 25961: u64 [sp + 0x58] = a0\n 25964: u64 [sp + 248] = 0\n 25968: u64 [sp + 240] = 0\n 25972: u64 [sp + 232] = 0\n 25976: a1 = sp + 0xe0\n 25980: u64 [sp + 224] = 0x20\n 25985: a0 = t0\n 25987: u64 [sp + 0x60] = t0\n 25990: ra = 1002, jump @19\n      : @1023 [@dyn 501] (gas: 12)\n 25996: a1 = u64 [sp + 0x58]\n 25999: a0 = a1 | s1\n 26002: a2 = u64 [sp + 0x48]\n 26005: a3 = u64 [sp + 0x50]\n 26008: a2 = a2 | a3\n 26011: a0 = a0 | a2\n 26014: a0 = a0 >> 0x20\n 26017: u64 [sp + 0x20] = s1\n 26020: a2 = a2 | s1\n 26023: a2 = a2 << 0x20\n 26026: a0 = a0 | a2\n 26029: jump @1036 if a0 != 0\n      : @1024 (gas: 2)\n 26033: a0 = sp + 0xc0\n 26037: ra = 1004, jump @17\n      : @1025 [@dyn 502] (gas: 13)\n 26043: a0 = u64 [sp + 0x70]\n 26046: a1 = u64 [sp + 0x68]\n 26049: a1 = a1 | a0\n 26052: a0 = 0x100000000\n 26062: u64 [sp + 0x10] = a0\n 26065: a0 = 0xffffffe0\n 26075: a2 = u64 [sp + 0x60]\n 26078: a0 = a2 <u a0\n 26081: a3 = u64 [sp + 0x78]\n 26084: a0 = 0 if a3 != 0\n 26086: u64 [sp + 0x18] = a1\n 26089: a0 = 0 if a1 != 0\n 26091: jump @1036 if a0 == 0\n      : @1026 (gas: 16)\n 26095: a3 = u64 [sp + 0xd8]\n 26099: a4 = u64 [sp + 0xd0]\n 26103: a5 = u64 [sp + 0xc8]\n 26107: a1 = u64 [sp + 0xc0]\n 26111: i32 a0 = a2 + 0x20\n 26114: u64 [sp + 0x28] = a1\n 26117: u64 [sp + 0xa0] = a1\n 26121: u64 [sp + 0x30] = a5\n 26124: u64 [sp + 0xa8] = a5\n 26128: u64 [sp + 0x38] = a4\n 26131: u64 [sp + 0xb0] = a4\n 26135: a1 = sp + 0xa0\n 26139: u64 [sp + 0x40] = a3\n 26142: u64 [sp + 0xb8] = a3\n 26146: s1 = a2\n 26148: ra = 1006, jump @19\n      : @1027 [@dyn 503] (gas: 8)\n 26154: a0 = u64 [sp + 0x10]\n 26157: a0 = a0 + 0xffffffffffffffc0\n 26160: a0 = s1 <u a0\n 26163: a1 = u64 [sp + 0x78]\n 26166: a0 = 0 if a1 != 0\n 26168: a1 = u64 [sp + 0x18]\n 26171: a0 = 0 if a1 != 0\n 26173: jump @1036 if a0 == 0\n      : @1028 (gas: 10)\n 26177: a0 = u64 [sp + 0x48]\n 26180: a1 = u64 [sp + 0x20]\n 26183: a0 = a0 | a1\n 26186: a1 = 0xffffffe0\n 26196: a3 = u64 [sp + 0x58]\n 26199: a1 = a3 <u a1\n 26202: a4 = u64 [sp + 0x50]\n 26205: a1 = 0 if a4 != 0\n 26207: a1 = 0 if a0 != 0\n 26209: jump @1036 if a1 == 0\n      : @1029 (gas: 13)\n 26213: a2 = s1\n 26215: a1 = u64 [sp + 0x28]\n 26218: a5 = u64 [sp + 0x38]\n 26221: a0 = a1 | a5\n 26224: a4 = u64 [sp + 0x40]\n 26227: s1 = u64 [sp + 0x30]\n 26230: a4 = a4 | s1\n 26233: a0 = a0 | a4\n 26236: a0 = a0 >> 0x20\n 26239: a4 = a4 | a5\n 26242: a4 = a4 << 0x20\n 26245: a0 = a0 | a4\n 26248: jump @1036 if a0 != 0\n      : @1030 (gas: 5)\n 26252: i32 a0 = a2 + 0x40\n 26255: i32 a3 = a3 + 0x20\n 26258: u64 [sp + 0x58] = a3\n 26261: s1 = a1\n 26263: ra = 1008, jump @33\n      : @1031 [@dyn 504] (gas: 4)\n 26269: u64 [sp + 0x50] = a0\n 26272: a0 = u64 [sp + 0x58]\n 26275: a1 = s1\n 26277: ra = 1010, jump @33\n      : @1032 [@dyn 505] (gas: 4)\n 26283: a1 = a0\n 26285: a0 = u64 [sp + 0x50]\n 26288: a2 = s1\n 26290: ra = 1012, jump @0\n      : @1033 [@dyn 506] (gas: 27)\n 26296: a0 = u64 [sp + 0x60]\n 26299: a0 = a0 + s1\n 26302: a1 = a0 <u s1\n 26305: a2 = u64 [sp + 0x78]\n 26308: a4 = u64 [sp + 0x30]\n 26311: a2 = a2 + a4\n 26314: a2 = a2 + a1\n 26317: a3 = a2 ^ a4\n 26320: a4 = a2 <u a4\n 26323: a4 = a1 if a3 == 0\n 26326: a1 = u64 [sp + 0x70]\n 26329: a3 = u64 [sp + 0x38]\n 26332: a1 = a1 + a3\n 26335: a3 = a1 <u a3\n 26338: a5 = u64 [sp + 0x68]\n 26341: s1 = u64 [sp + 0x40]\n 26344: a5 = a5 + s1\n 26347: a3 = a3 + a5\n 26350: a4 = a4 + a1\n 26353: a1 = a4 <u a1\n 26356: a1 = a1 + a3\n 26359: a1 = a1 | a4\n 26362: a3 = 0xffffffc0\n 26372: a3 = a0 <u a3\n 26375: a3 = 0 if a2 != 0\n 26377: a3 = 0 if a1 != 0\n 26379: jump @1036 if a3 == 0\n      : @1034 (gas: 7)\n 26383: i32 a0 = a0 + 0x40\n 26386: u64 [sp + 152] = 0\n 26390: u64 [sp + 144] = 0\n 26394: u64 [sp + 136] = 0\n 26398: a1 = sp + 0x80\n 26402: u64 [sp + 128] = 0\n 26406: ra = 1014, jump @19\n      : @1035 [@dyn 507] (gas: 35)\n 26412: s1 = u64 [sp + 0x28]\n 26415: s1 = s1 + 0x1f\n 26418: a0 = 0x1ffffffe0\n 26428: a0 = a0 & s1\n 26431: a1 = u64 [sp + 0x60]\n 26434: a0 = a0 + a1\n 26437: a1 = a0 <u a1\n 26440: a3 = u64 [sp + 0x78]\n 26443: a2 = a3 + a1\n 26446: a3 = a2 <u a3\n 26449: a3 = a1 if a1 == 0\n 26452: a1 = u64 [sp + 0x70]\n 26455: a3 = a3 + a1\n 26458: a1 = a3 <u a1\n 26461: a4 = u64 [sp + 0x68]\n 26464: a1 = a1 + a4\n 26467: a4 = a0 + 0x40\n 26470: a0 = a4 <u a0\n 26473: a5 = a2 + a0\n 26476: a2 = a5 <u a2\n 26479: a2 = a0 if a0 == 0\n 26482: a2 = a2 + a3\n 26485: a0 = a2 <u a3\n 26488: a0 = a0 + a1\n 26491: a1 = u64 [sp + 0x8]\n 26494: u64 [a1] = a4\n 26496: u64 [a1 + 0x8] = a5\n 26499: u64 [a1 + 0x10] = a2\n 26502: u64 [a1 + 0x18] = a0\n 26505: sp = s0 + 0xfffffffffffffee0\n 26509: ra = u64 [sp + 0x118]\n 26513: s0 = u64 [sp + 0x110]\n 26517: s1 = u64 [sp + 0x108]\n 26521: sp = sp + 0x120\n 26525: ret\n      : @1036 (gas: 1)\n 26527: trap\n      : @1037 [@dyn 508] (gas: 5)\n 26528: a1 = 0x4\n 26531: ra = 0x3fa\n 26535: ecalli 1 // 'call_data_load'\n 26537: t0 = 0x3fc\n 26541: jump @1393\n      : @1038 [@dyn 509] (gas: 1)\n 26544: t0 = 1020, jump @1393\n      : @1039 [@dyn 510] (gas: 1)\n 26550: jump @1042 if a3 == 0\n      : @1040 (gas: 1)\n 26553: t0 = 1022, jump @1407\n      : @1041 [@dyn 511] (gas: 1)\n 26559: ret\n      : @1042 (gas: 8)\n 26561: a1 = 0x20270\n 26566: i32 a1 = a1 + 0\n 26568: a0 = 0x1\n 26571: a2 = 0\n 26573: ra = 0x400\n 26577: ecalli 7 // 'seal_return'\n 26579: t0 = 0x402\n 26583: jump @1417\n      : @1043 [@dyn 512] (gas: 1)\n 26586: t0 = 1026, jump @1417\n      : @1044 [@dyn 513] (gas: 5)\n 26592: a1 = 0x24\n 26595: ra = 0x404\n 26599: ecalli 1 // 'call_data_load'\n 26601: t0 = 0x406\n 26605: jump @1393\n      : @1045 [@dyn 514] (gas: 1)\n 26608: t0 = 1030, jump @1393\n      : @1046 [@dyn 515] (gas: 1)\n 26614: jump @1049 if a3 == 0\n      : @1047 (gas: 1)\n 26617: t0 = 1032, jump @1407\n      : @1048 [@dyn 516] (gas: 1)\n 26623: ret\n      : @1049 (gas: 7)\n 26625: a1 = 0x20270\n 26630: i32 a1 = a1 + 0\n 26632: a0 = 0x1\n 26635: a2 = 0\n 26637: ra = 0x40a\n 26641: ecalli 7 // 'seal_return'\n 26643: fallthrough\n      : @1050 [@dyn 517] (gas: 19)\n 26644: sp = sp + 0xffffffffffffff40\n 26648: u64 [sp + 0xb8] = ra\n 26652: u64 [sp + 0xb0] = s0\n 26656: u64 [sp + 0xa8] = s1\n 26660: s0 = sp + 0xc0\n 26664: sp = sp & 0xffffffffffffffe0\n 26667: s1 = sp\n 26669: a2 = u64 [a1]\n 26671: a3 = u64 [a1 + 0x8]\n 26674: a4 = u64 [a1 + 0x10]\n 26677: a1 = u64 [a1 + 0x18]\n 26680: u64 [s1 + 0x18] = a0\n 26683: u64 [s1 + 0x78] = a1\n 26686: u64 [s1 + 0x70] = a4\n 26689: u64 [s1 + 0x68] = a3\n 26692: a1 = s1 + 0x60\n 26695: u64 [s1 + 0x60] = a2\n 26698: a0 = 0\n 26700: ra = 1036, jump @19\n      : @1051 [@dyn 518] (gas: 7)\n 26706: u64 [s1 + 88] = 0\n 26709: u64 [s1 + 80] = 0\n 26712: u64 [s1 + 64] = 0x6\n 26716: a0 = 0x20\n 26719: a1 = s1 + 0x40\n 26722: u64 [s1 + 72] = 0\n 26725: ra = 1038, jump @19\n      : @1052 [@dyn 519] (gas: 2)\n 26731: a1 = i32 [0x20264]\n 26736: jump @1054 if a1 >u 63\n      : @1053 (gas: 2)\n 26740: u32 [0x20264] = 0x40\n 26746: fallthrough\n      : @1054 (gas: 11)\n 26747: a0 = sp + 0xffffffffffffffe0\n 26750: a2 = a0 & 0xffffffffffffffe0\n 26753: u64 [s1 + 0x10] = a2\n 26756: sp = a2\n 26758: a0 = 0x20270\n 26763: i32 a0 = a0 + 0\n 26765: i32 a2 = a2 + 0\n 26767: a1 = 0x40\n 26770: ra = 0x410\n 26774: ecalli 6 // 'hash_keccak_256'\n 26776: fallthrough\n      : @1055 [@dyn 520] (gas: 6)\n 26777: a3 = u64 [s1 + 0x10]\n 26780: a0 = u64 [a3]\n 26782: a1 = u64 [a3 + 0x8]\n 26785: a2 = u64 [a3 + 0x10]\n 26788: a3 = u64 [a3 + 0x18]\n 26791: t0 = 1042, jump @1377\n      : @1056 [@dyn 521] (gas: 15)\n 26797: a3 = a3 + 0x1\n 26800: a4 = a3 <u 0x1\n 26803: a2 = a2 + a4\n 26806: a4 = a3 | a2\n 26809: a4 = a4 <u 0x1\n 26812: a4 = a4 + a1\n 26815: a1 = a4 <u a1\n 26818: a0 = a0 + a1\n 26821: u64 [s1 + 0x80] = a3\n 26825: u64 [s1 + 0x88] = a2\n 26829: u64 [s1 + 0x90] = a4\n 26833: u64 [s1 + 0x98] = a0\n 26837: a0 = s1 + 0x20\n 26840: a1 = s1 + 0x80\n 26844: ra = 1044, jump @21\n      : @1057 [@dyn 522] (gas: 15)\n 26850: a0 = u64 [s1 + 0x30]\n 26853: a1 = u64 [s1 + 0x38]\n 26856: a2 = u64 [s1 + 0x20]\n 26859: a3 = u64 [s1 + 0x28]\n 26862: a4 = u64 [s1 + 0x18]\n 26865: u64 [a4 + 0x10] = a0\n 26868: u64 [a4 + 0x18] = a1\n 26871: u64 [a4] = a2\n 26873: u64 [a4 + 0x8] = a3\n 26876: sp = s0 + 0xffffffffffffff40\n 26880: ra = u64 [sp + 0xb8]\n 26884: s0 = u64 [sp + 0xb0]\n 26888: s1 = u64 [sp + 0xa8]\n 26892: sp = sp + 0xc0\n 26896: ret\n      : @1058 (gas: 37)\n 26898: sp = sp + 0xfffffffffffffce0\n 26902: a3 = sp + 0x300\n 26906: u64 [a3 + 0x18] = ra\n 26909: u64 [a3 + 0x10] = s0\n 26912: u64 [a3 + 0x8] = s1\n 26915: s0 = sp + 0x320\n 26919: sp = sp & 0xffffffffffffffe0\n 26922: s1 = sp\n 26924: a3 = u64 [a2 + 0x18]\n 26927: u64 [s1 + 0x98] = a3\n 26931: a3 = u64 [a2 + 0x10]\n 26934: u64 [s1 + 0x90] = a3\n 26938: a3 = u64 [a2 + 0x8]\n 26941: u64 [s1 + 0xa0] = a3\n 26945: a2 = u64 [a2]\n 26947: u64 [s1 + 0xa8] = a2\n 26951: a2 = u64 [a1 + 0x10]\n 26954: u64 [s1 + 0x88] = a2\n 26958: a2 = u64 [a1 + 0x8]\n 26961: u64 [s1 + 0x80] = a2\n 26965: a1 = u64 [a1]\n 26967: u64 [s1 + 0x78] = a1\n 26970: a2 = u64 [a0]\n 26972: a1 = u64 [a0 + 0x8]\n 26975: a0 = u32 [a0 + 0x10]\n 26978: a3 = 0xffffffff\n 26988: u64 [s1 + 0x70] = a3\n 26991: u64 [s1 + 728] = 0\n 26995: u64 [s1 + 0x40] = a0\n 26998: u64 [s1 + 0x2d0] = a0\n 27002: u64 [s1 + 0x30] = a1\n 27005: u64 [s1 + 0x2c8] = a1\n 27009: a1 = s1 + 0x2c0\n 27013: u64 [s1 + 0x38] = a2\n 27016: u64 [s1 + 0x2c0] = a2\n 27020: a0 = 0\n 27022: ra = 1046, jump @19\n      : @1059 [@dyn 523] (gas: 7)\n 27028: u64 [s1 + 696] = 0\n 27032: u64 [s1 + 688] = 0\n 27036: u64 [s1 + 672] = 0x1\n 27041: a0 = 0x20\n 27044: a1 = s1 + 0x2a0\n 27048: u64 [s1 + 680] = 0\n 27052: ra = 1048, jump @19\n      : @1060 [@dyn 524] (gas: 3)\n 27058: a1 = 0x20264\n 27063: a0 = i32 [0x20264]\n 27068: jump @1062 if a0 >u 63\n      : @1061 (gas: 2)\n 27072: u32 [0x20264] = 0x40\n 27078: fallthrough\n      : @1062 (gas: 15)\n 27079: a0 = sp + 0xffffffffffffffe0\n 27082: a2 = a0 & 0xffffffffffffffe0\n 27085: u64 [s1 + 0x68] = a2\n 27088: sp = a2\n 27090: a0 = 0x20270\n 27095: i32 a0 = a0 + 0\n 27097: i32 a2 = a2 + 0\n 27099: u64 [s1 + 0xb0] = a1\n 27103: a1 = 0x40\n 27106: u64 [s1 + 0xb8] = a0\n 27110: ra = 0x41a\n 27114: ecalli 6 // 'hash_keccak_256'\n 27116: a3 = u64 [s1 + 0x68]\n 27119: t0 = 0x41c\n 27123: jump @1375\n      : @1063 [@dyn 525] (gas: 2)\n 27126: a3 = u64 [s1 + 0x68]\n 27129: t0 = 1052, jump @1375\n      : @1064 [@dyn 526] (gas: 17)\n 27135: a0 = u64 [s1 + 0x78]\n 27138: a0 = a0 & 0xffffffffffffffff\n 27141: a1 = u64 [s1 + 0x80]\n 27145: a1 = a1 & 0xffffffffffffffff\n 27148: a2 = u64 [s1 + 0x88]\n 27152: a3 = u64 [s1 + 0x70]\n 27155: a2 = a2 & a3\n 27158: u64 [s1 + 664] = 0\n 27162: u64 [s1 + 0x78] = a2\n 27165: u64 [s1 + 0x290] = a2\n 27169: u64 [s1 + 0x80] = a1\n 27173: u64 [s1 + 0x288] = a1\n 27177: a1 = s1 + 0x280\n 27181: u64 [s1 + 0x88] = a0\n 27185: u64 [s1 + 0x280] = a0\n 27189: a0 = 0\n 27191: ra = 1054, jump @19\n      : @1065 [@dyn 527] (gas: 12)\n 27197: a0 = u64 [s1 + 0x48]\n 27200: a3 = s1 + 0x200\n 27204: u64 [a3 + 0x78] = a0\n 27207: a0 = u64 [s1 + 0x50]\n 27210: u64 [a3 + 0x70] = a0\n 27213: a0 = u64 [s1 + 0x58]\n 27216: u64 [a3 + 0x68] = a0\n 27219: a0 = 0x20\n 27222: a1 = s1 + 0x260\n 27226: a2 = u64 [s1 + 0x60]\n 27229: u64 [a3 + 0x60] = a2\n 27232: ra = 1056, jump @19\n      : @1066 [@dyn 528] (gas: 3)\n 27238: a1 = u64 [s1 + 0xb0]\n 27242: a0 = i32 [a1]\n 27244: jump @1068 if a0 >u 63\n      : @1067 (gas: 2)\n 27248: u32 [a1 + 0] = 0x40\n 27251: fallthrough\n      : @1068 (gas: 4)\n 27252: a0 = sp + 0xffffffffffffffe0\n 27255: a0 = a0 & 0xffffffffffffffe0\n 27258: u64 [s1 + 0x70] = a0\n 27261: t0 = 1058, jump @1406\n      : @1069 [@dyn 529] (gas: 5)\n 27267: ra = 0x424\n 27271: ecalli 6 // 'hash_keccak_256'\n 27273: a3 = u64 [s1 + 0x70]\n 27276: t0 = 0x426\n 27280: jump @1383\n      : @1070 [@dyn 530] (gas: 2)\n 27283: a3 = u64 [s1 + 0x70]\n 27286: t0 = 1062, jump @1383\n      : @1071 [@dyn 531] (gas: 2)\n 27292: a0 = s1 + 0x240\n 27296: ra = 1064, jump @21\n      : @1072 [@dyn 532] (gas: 9)\n 27302: ra = u64 [s1 + 0x258]\n 27306: t1 = u64 [s1 + 0x250]\n 27310: a4 = u64 [s1 + 0x248]\n 27314: t0 = u64 [s1 + 0x240]\n 27318: a0 = a4 & ra\n 27321: a1 = t0 & t1\n 27324: a0 = a0 & a1\n 27327: a1 = 0xffffffffffffffff\n 27330: jump @1089 if a0 == a1\n      : @1073 (gas: 23)\n 27334: a0 = u64 [s1 + 0xa8]\n 27338: a2 = t0 <u a0\n 27341: a1 = u64 [s1 + 0xa0]\n 27345: a0 = a4 ^ a1\n 27348: a5 = a4 <u a1\n 27351: u64 [s1 + 0x50] = a2\n 27354: a5 = a2 if a0 == 0\n 27357: a2 = u64 [s1 + 0x90]\n 27361: a3 = t1 <u a2\n 27364: a1 = u64 [s1 + 0x98]\n 27368: a0 = ra ^ a1\n 27371: a1 = ra <u a1\n 27374: u64 [s1 + 0x28] = a3\n 27377: a1 = a3 if a0 == 0\n 27380: a2 = t1 ^ a2\n 27383: a0 = a0 | a2\n 27386: u64 [s1 + 0x48] = a5\n 27389: a1 = a5 if a0 == 0\n 27392: u64 [s1 + 0x70] = t0\n 27395: u64 [s1 + 0x68] = a4\n 27398: u64 [s1 + 0x60] = ra\n 27401: u64 [s1 + 0x58] = t1\n 27404: jump @1090 if a1 != 0\n      : @1074 (gas: 6)\n 27408: a3 = u64 [s1 + 0x40]\n 27411: a2 = u64 [s1 + 0x38]\n 27414: a0 = a2 | a3\n 27417: t2 = u64 [s1 + 0x30]\n 27420: a0 = a0 | t2\n 27423: jump @1097 if a0 == 0\n      : @1075 (gas: 6)\n 27427: a0 = u64 [s1 + 0x88]\n 27431: a1 = u64 [s1 + 0x78]\n 27434: a0 = a0 | a1\n 27437: a1 = u64 [s1 + 0x80]\n 27441: a0 = a0 | a1\n 27444: jump @1099 if a0 == 0\n      : @1076 (gas: 7)\n 27448: u64 [s1 + 568] = 0\n 27452: u64 [s1 + 0x220] = a2\n 27456: u64 [s1 + 0x228] = t2\n 27460: a1 = s1 + 0x220\n 27464: u64 [s1 + 0x230] = a3\n 27468: a0 = 0\n 27470: ra = 1066, jump @19\n      : @1077 [@dyn 533] (gas: 7)\n 27476: u64 [s1 + 536] = 0\n 27480: u64 [s1 + 528] = 0\n 27484: u64 [s1 + 512] = 0x1\n 27489: a0 = 0x20\n 27492: a1 = s1 + 0x200\n 27496: u64 [s1 + 520] = 0\n 27500: ra = 1068, jump @19\n      : @1078 [@dyn 534] (gas: 3)\n 27506: a1 = u64 [s1 + 0xb0]\n 27510: a0 = i32 [a1]\n 27512: jump @1080 if a0 >u 63\n      : @1079 (gas: 2)\n 27516: u32 [a1 + 0] = 0x40\n 27519: fallthrough\n      : @1080 (gas: 4)\n 27520: a0 = sp + 0xffffffffffffffe0\n 27523: a0 = a0 & 0xffffffffffffffe0\n 27526: u64 [s1 + 0x40] = a0\n 27529: t0 = 1070, jump @1406\n      : @1081 [@dyn 535] (gas: 5)\n 27535: ra = 0x430\n 27539: ecalli 6 // 'hash_keccak_256'\n 27541: a3 = u64 [s1 + 0x40]\n 27544: t0 = 0x432\n 27548: jump @1405\n      : @1082 [@dyn 536] (gas: 2)\n 27551: a3 = u64 [s1 + 0x40]\n 27554: t0 = 1074, jump @1405\n      : @1083 [@dyn 537] (gas: 21)\n 27560: u64 [s1 + 0x38] = a0\n 27563: a0 = reverse a1\n 27565: u64 [s1 + 0x30] = a0\n 27568: a0 = reverse a2\n 27570: u64 [s1 + 0x20] = a0\n 27573: a0 = reverse a3\n 27575: u64 [s1 + 0x18] = a0\n 27578: a0 = sp + 0xffffffffffffffe0\n 27581: a0 = a0 & 0xffffffffffffffe0\n 27584: u64 [s1 + 0x40] = a0\n 27587: sp = a0\n 27589: u64 [s1 + 504] = 0\n 27593: a0 = u64 [s1 + 0x78]\n 27596: u64 [s1 + 0x1f0] = a0\n 27600: a0 = u64 [s1 + 0x80]\n 27604: u64 [s1 + 0x1e8] = a0\n 27608: a1 = s1 + 0x1e0\n 27612: a0 = u64 [s1 + 0x88]\n 27616: u64 [s1 + 0x1e0] = a0\n 27620: a0 = 0\n 27622: ra = 1076, jump @19\n      : @1084 [@dyn 538] (gas: 12)\n 27628: a0 = u64 [s1 + 0x18]\n 27631: a3 = s1 + 0x100\n 27635: u64 [a3 + 0xd8] = a0\n 27639: a0 = u64 [s1 + 0x20]\n 27642: u64 [a3 + 0xd0] = a0\n 27646: a0 = u64 [s1 + 0x30]\n 27649: u64 [a3 + 0xc8] = a0\n 27653: a0 = 0x20\n 27656: a1 = s1 + 0x1c0\n 27660: a2 = u64 [s1 + 0x38]\n 27663: u64 [a3 + 0xc0] = a2\n 27667: ra = 1078, jump @19\n      : @1085 [@dyn 539] (gas: 3)\n 27673: a1 = u64 [s1 + 0xb0]\n 27677: a0 = i32 [a1]\n 27679: jump @1087 if a0 >u 63\n      : @1086 (gas: 2)\n 27683: u32 [a1 + 0] = 0x40\n 27686: fallthrough\n      : @1087 (gas: 4)\n 27687: a0 = sp + 0xffffffffffffffe0\n 27690: a0 = a0 & 0xffffffffffffffe0\n 27693: u64 [s1 + 0xb0] = a0\n 27697: t0 = 1080, jump @1406\n      : @1088 [@dyn 540] (gas: 43)\n 27703: ecalli 6 // 'hash_keccak_256'\n 27705: a2 = u64 [s1 + 0xb0]\n 27709: a0 = u64 [a2]\n 27711: a0 = reverse a0\n 27713: a1 = u64 [a2 + 0x8]\n 27716: a5 = u64 [s1 + 0x40]\n 27719: u64 [a5 + 0x18] = a0\n 27722: a0 = u64 [a2 + 0x10]\n 27725: a2 = u64 [a2 + 0x18]\n 27728: a1 = reverse a1\n 27730: u64 [a5 + 0x10] = a1\n 27733: a0 = reverse a0\n 27735: u64 [a5 + 0x8] = a0\n 27738: a0 = reverse a2\n 27740: u64 [a5] = a0\n 27742: a0 = u64 [s1 + 0x90]\n 27746: a1 = u64 [s1 + 0x58]\n 27749: a0 = a1 - a0\n 27752: a2 = u64 [s1 + 0x48]\n 27755: a1 = a0 - a2\n 27758: a0 = a0 <u a2\n 27761: a2 = u64 [s1 + 0x98]\n 27765: a3 = u64 [s1 + 0x60]\n 27768: a2 = a3 - a2\n 27771: a3 = u64 [s1 + 0x28]\n 27774: a2 = a2 - a3\n 27777: a2 = a2 - a0\n 27780: a0 = u64 [s1 + 0xa0]\n 27784: a3 = u64 [s1 + 0x68]\n 27787: a0 = a3 - a0\n 27790: a3 = u64 [s1 + 0x50]\n 27793: a0 = a0 - a3\n 27796: a3 = u64 [s1 + 0xa8]\n 27800: a4 = u64 [s1 + 0x70]\n 27803: a3 = a4 - a3\n 27806: a4 = s1 + 0x200\n 27810: u64 [a4 + 0xf8] = a2\n 27814: u64 [a4 + 0xf0] = a1\n 27818: u64 [a4 + 0xe8] = a0\n 27822: u64 [a4 + 0xe0] = a3\n 27826: a1 = s1 + 0x2e0\n 27830: a0 = a5\n 27832: ra = 1082, jump @24\n      : @1089 [@dyn 541] (gas: 7)\n 27838: sp = s0 + 0xfffffffffffffce0\n 27842: a0 = sp + 0x300\n 27846: ra = u64 [a0 + 0x18]\n 27849: s0 = u64 [a0 + 0x10]\n 27852: s1 = u64 [a0 + 0x8]\n 27855: sp = sp + 0x320\n 27859: ret\n      : @1090 (gas: 8)\n 27861: u64 [s1 + 304] = 0\n 27865: u64 [s1 + 296] = 0\n 27869: u64 [s1 + 288] = 0\n 27873: a0 = 0xfb8f41b200000000\n 27883: a1 = s1 + 0x120\n 27887: u64 [s1 + 0x138] = a0\n 27891: a0 = 0\n 27893: ra = 1084, jump @19\n      : @1091 [@dyn 542] (gas: 11)\n 27899: u64 [s1 + 280] = 0\n 27903: a0 = u64 [s1 + 0x78]\n 27906: a3 = s1 + 0x100\n 27910: u64 [a3 + 0x10] = a0\n 27913: a0 = u64 [s1 + 0x80]\n 27917: u64 [a3 + 0x8] = a0\n 27920: a0 = 0x4\n 27923: a1 = s1 + 0x100\n 27927: a2 = u64 [s1 + 0x88]\n 27931: u64 [a3] = a2\n 27933: ra = 1086, jump @19\n      : @1092 [@dyn 543] (gas: 11)\n 27939: a0 = u64 [s1 + 0x60]\n 27942: u64 [s1 + 0xf8] = a0\n 27946: a0 = u64 [s1 + 0x58]\n 27949: u64 [s1 + 0xf0] = a0\n 27953: a0 = u64 [s1 + 0x68]\n 27956: u64 [s1 + 0xe8] = a0\n 27960: a0 = 0x24\n 27963: a1 = s1 + 0xe0\n 27967: a2 = u64 [s1 + 0x70]\n 27970: u64 [s1 + 0xe0] = a2\n 27974: ra = 1088, jump @19\n      : @1093 [@dyn 544] (gas: 11)\n 27980: a0 = u64 [s1 + 0x98]\n 27984: u64 [s1 + 0xd8] = a0\n 27988: a0 = u64 [s1 + 0x90]\n 27992: u64 [s1 + 0xd0] = a0\n 27996: a0 = u64 [s1 + 0xa0]\n 28000: u64 [s1 + 0xc8] = a0\n 28004: a0 = 0x44\n 28007: a1 = s1 + 0xc0\n 28011: a2 = u64 [s1 + 0xa8]\n 28015: u64 [s1 + 0xc0] = a2\n 28019: ra = 1090, jump @19\n      : @1094 [@dyn 545] (gas: 3)\n 28025: a0 = u64 [s1 + 0xb0]\n 28029: a0 = i32 [a0]\n 28031: jump @1096 if a0 >u 127\n      : @1095 (gas: 5)\n 28035: a1 = u64 [s1 + 0xb0]\n 28039: u32 [a1 + 0] = 0x80\n 28043: a0 = 0x1\n 28046: a2 = 0x64\n 28049: jump @1104\n      : @1096 (gas: 6)\n 28052: a0 = 0x1\n 28055: a2 = 0x64\n 28058: a1 = u64 [s1 + 0xb8]\n 28062: ra = 0x44a\n 28066: ecalli 7 // 'seal_return'\n 28068: jump @1105\n      : @1097 (gas: 8)\n 28071: u64 [s1 + 368] = 0\n 28075: u64 [s1 + 360] = 0\n 28079: u64 [s1 + 352] = 0\n 28083: a0 = 0xe602df0500000000\n 28093: a1 = s1 + 0x160\n 28097: u64 [s1 + 0x178] = a0\n 28101: a0 = 0\n 28103: ra = 1092, jump @19\n      : @1098 [@dyn 546] (gas: 8)\n 28109: u64 [s1 + 344] = 0\n 28113: u64 [s1 + 336] = 0\n 28117: u64 [s1 + 328] = 0\n 28121: a0 = 0x4\n 28124: a1 = s1 + 0x140\n 28128: u64 [s1 + 320] = 0\n 28132: ra = 0x448\n 28136: jump @19\n      : @1099 (gas: 8)\n 28139: u64 [s1 + 432] = 0\n 28143: u64 [s1 + 424] = 0\n 28147: u64 [s1 + 416] = 0\n 28151: a0 = 0x94280d6200000000\n 28161: a1 = s1 + 0x1a0\n 28165: u64 [s1 + 0x1b8] = a0\n 28169: a0 = 0\n 28171: ra = 1094, jump @19\n      : @1100 [@dyn 547] (gas: 7)\n 28177: u64 [s1 + 408] = 0\n 28181: u64 [s1 + 400] = 0\n 28185: u64 [s1 + 392] = 0\n 28189: a0 = 0x4\n 28192: a1 = s1 + 0x180\n 28196: u64 [s1 + 384] = 0\n 28200: ra = 1096, jump @19\n      : @1101 [@dyn 548] (gas: 3)\n 28206: a0 = u64 [s1 + 0xb0]\n 28210: a0 = i32 [a0]\n 28212: jump @1103 if a0 >u 63\n      : @1102 (gas: 5)\n 28216: a1 = u64 [s1 + 0xb0]\n 28220: u32 [a1 + 0] = 0x40\n 28223: a0 = 0x1\n 28226: a2 = 0x24\n 28229: jump @1104\n      : @1103 (gas: 6)\n 28231: a0 = 0x1\n 28234: a2 = 0x24\n 28237: a1 = u64 [s1 + 0xb8]\n 28241: ra = 0x44a\n 28245: ecalli 7 // 'seal_return'\n 28247: jump @1105\n      : @1104 (gas: 4)\n 28249: a1 = u64 [s1 + 0xb8]\n 28253: ra = 0x44a\n 28257: ecalli 7 // 'seal_return'\n 28259: fallthrough\n      : @1105 [@dyn 549] (gas: 17)\n 28260: sp = sp + 0xfffffffffffffc20\n 28264: a3 = sp + 0x300\n 28268: u64 [a3 + 0xd8] = ra\n 28272: u64 [a3 + 0xd0] = s0\n 28276: u64 [a3 + 0xc8] = s1\n 28280: s0 = sp + 0x3e0\n 28284: sp = sp & 0xffffffffffffffe0\n 28287: s1 = sp\n 28289: a5 = u32 [a0 + 0x10]\n 28292: a3 = u64 [a0]\n 28294: a4 = u64 [a0 + 0x8]\n 28297: u64 [s1 + 0x78] = a3\n 28300: u64 [s1 + 0x68] = a5\n 28303: a0 = a3 | a5\n 28306: u64 [s1 + 0x70] = a4\n 28309: a0 = a0 | a4\n 28312: jump @1139 if a0 == 0\n      : @1106 (gas: 14)\n 28316: a0 = u64 [a1 + 0x10]\n 28319: a3 = u64 [a1 + 0x8]\n 28322: a1 = u64 [a1]\n 28324: a4 = 0xffffffffffffffff\n 28327: a5 = 0xffffffff\n 28337: a3 = a3 & a4\n 28340: a1 = a1 & a4\n 28343: a0 = a0 & a5\n 28346: u64 [s1 + 0x48] = a1\n 28349: u64 [s1 + 0x38] = a0\n 28352: a0 = a0 | a1\n 28355: u64 [s1 + 0x40] = a3\n 28358: a0 = a0 | a3\n 28361: jump @1144 if a0 == 0\n      : @1107 (gas: 9)\n 28365: a0 = u64 [a2 + 0x18]\n 28368: u64 [s1 + 0x98] = a0\n 28372: a0 = u64 [a2 + 0x10]\n 28375: u64 [s1 + 0x88] = a0\n 28379: a0 = u64 [a2 + 0x8]\n 28382: u64 [s1 + 0x80] = a0\n 28386: a0 = u64 [a2]\n 28388: u64 [s1 + 0x90] = a0\n 28392: ra = 1100, jump @1338\n      : @1108 [@dyn 550] (gas: 11)\n 28398: u64 [s1 + 824] = 0\n 28402: a0 = u64 [s1 + 0x68]\n 28405: a2 = s1 + 0x300\n 28409: u64 [a2 + 0x30] = a0\n 28412: a0 = u64 [s1 + 0x70]\n 28415: u64 [a2 + 0x28] = a0\n 28418: a1 = s1 + 0x320\n 28422: a0 = u64 [s1 + 0x78]\n 28425: u64 [a2 + 0x20] = a0\n 28428: a0 = 0\n 28430: ra = 1102, jump @19\n      : @1109 [@dyn 551] (gas: 7)\n 28436: u64 [s1 + 792] = 0\n 28440: u64 [s1 + 784] = 0\n 28444: u64 [s1 + 776] = 0\n 28448: a0 = 0x20\n 28451: a1 = s1 + 0x300\n 28455: u64 [s1 + 768] = 0\n 28459: ra = 1104, jump @19\n      : @1110 [@dyn 552] (gas: 3)\n 28465: a2 = 0x20264\n 28470: a0 = i32 [0x20264]\n 28475: jump @1112 if a0 >u 63\n      : @1111 (gas: 2)\n 28479: u32 [0x20264] = 0x40\n 28485: fallthrough\n      : @1112 (gas: 15)\n 28486: u64 [s1 + 0x58] = a2\n 28489: a0 = sp + 0xffffffffffffffe0\n 28492: a2 = a0 & 0xffffffffffffffe0\n 28495: u64 [s1 + 0x50] = a2\n 28498: sp = a2\n 28500: a0 = 0x20270\n 28505: i32 a0 = a0 + 0\n 28507: i32 a2 = a2 + 0\n 28509: a1 = 0x40\n 28512: u64 [s1 + 0x60] = a0\n 28515: ra = 0x452\n 28519: ecalli 6 // 'hash_keccak_256'\n 28521: a3 = u64 [s1 + 0x50]\n 28524: t0 = 0x454\n 28528: jump @1395\n      : @1113 [@dyn 553] (gas: 2)\n 28531: a3 = u64 [s1 + 0x50]\n 28534: t0 = 1108, jump @1395\n      : @1114 [@dyn 554] (gas: 7)\n 28540: u64 [a4 + 0x58] = a3\n 28543: u64 [a4 + 0x50] = a2\n 28546: u64 [a4 + 0x48] = a1\n 28549: u64 [a4 + 0x40] = a0\n 28552: a0 = s1 + 0x2e0\n 28556: a1 = s1 + 0x340\n 28560: ra = 1110, jump @21\n      : @1115 [@dyn 555] (gas: 28)\n 28566: a1 = s1 + 0x200\n 28570: a2 = u64 [a1 + 0xf8]\n 28574: a0 = u64 [a1 + 0xf0]\n 28578: a5 = u64 [a1 + 0xe8]\n 28582: a4 = u64 [a1 + 0xe0]\n 28586: a1 = u64 [s1 + 0x98]\n 28590: t1 = a2 ^ a1\n 28593: u64 [s1 + 0x28] = a2\n 28596: a1 = a2 <u a1\n 28599: a2 = u64 [s1 + 0x88]\n 28603: a3 = a0 <u a2\n 28606: u64 [s1 + 0x10] = a3\n 28609: a1 = a3 if t1 == 0\n 28612: a3 = u64 [s1 + 0x80]\n 28616: t0 = a5 ^ a3\n 28619: u64 [s1 + 0x30] = a5\n 28622: a5 = a5 <u a3\n 28625: a3 = u64 [s1 + 0x90]\n 28629: u64 [s1 + 0x50] = a4\n 28632: a3 = a4 <u a3\n 28635: u64 [s1 + 0x18] = a3\n 28638: a5 = a3 if t0 == 0\n 28641: u64 [s1 + 0x20] = a0\n 28644: a2 = a2 ^ a0\n 28647: a0 = a2 | t1\n 28650: u64 [s1 + 0x8] = a5\n 28653: a1 = a5 if a0 == 0\n 28656: jump @1150 if a1 != 0\n      : @1116 (gas: 11)\n 28660: u64 [s1 + 728] = 0\n 28664: a0 = u64 [s1 + 0x78]\n 28667: a2 = s1 + 0x200\n 28671: u64 [a2 + 0xc0] = a0\n 28675: a0 = u64 [s1 + 0x70]\n 28678: u64 [a2 + 0xc8] = a0\n 28682: a1 = s1 + 0x2c0\n 28686: a0 = u64 [s1 + 0x68]\n 28689: u64 [a2 + 0xd0] = a0\n 28693: a0 = 0\n 28695: ra = 1112, jump @19\n      : @1117 [@dyn 556] (gas: 7)\n 28701: u64 [s1 + 696] = 0\n 28705: u64 [s1 + 688] = 0\n 28709: u64 [s1 + 680] = 0\n 28713: a0 = 0x20\n 28716: a1 = s1 + 0x2a0\n 28720: u64 [s1 + 672] = 0\n 28724: ra = 1114, jump @19\n      : @1118 [@dyn 557] (gas: 28)\n 28730: a0 = u64 [s1 + 0x88]\n 28734: a1 = u64 [s1 + 0x20]\n 28737: a0 = a1 - a0\n 28740: a2 = u64 [s1 + 0x8]\n 28743: a1 = a0 - a2\n 28746: u64 [s1 + 0x20] = a1\n 28749: a0 = a0 <u a2\n 28752: a1 = u64 [s1 + 0x98]\n 28756: a2 = u64 [s1 + 0x28]\n 28759: a1 = a2 - a1\n 28762: a2 = u64 [s1 + 0x10]\n 28765: a1 = a1 - a2\n 28768: a1 = a1 - a0\n 28771: u64 [s1 + 0x28] = a1\n 28774: a2 = u64 [s1 + 0x58]\n 28777: a0 = i32 [a2]\n 28779: a1 = u64 [s1 + 0x80]\n 28783: a3 = u64 [s1 + 0x30]\n 28786: a1 = a3 - a1\n 28789: a3 = u64 [s1 + 0x18]\n 28792: a1 = a1 - a3\n 28795: u64 [s1 + 0x30] = a1\n 28798: a4 = 0x3f\n 28801: a1 = u64 [s1 + 0x90]\n 28805: a3 = u64 [s1 + 0x50]\n 28808: a3 = a3 - a1\n 28811: u64 [s1 + 0x50] = a3\n 28814: jump @1120 if a4 <u a0\n      : @1119 (gas: 2)\n 28817: u32 [a2 + 0] = 0x40\n 28820: fallthrough\n      : @1120 (gas: 4)\n 28821: a0 = sp + 0xffffffffffffffe0\n 28824: a0 = a0 & 0xffffffffffffffe0\n 28827: u64 [s1 + 0x18] = a0\n 28830: t0 = 1116, jump @1365\n      : @1121 [@dyn 558] (gas: 5)\n 28836: ra = 0x45e\n 28840: ecalli 6 // 'hash_keccak_256'\n 28842: a3 = u64 [s1 + 0x18]\n 28845: t0 = 0x460\n 28849: jump @1395\n      : @1122 [@dyn 559] (gas: 2)\n 28852: a3 = u64 [s1 + 0x18]\n 28855: t0 = 1120, jump @1395\n      : @1123 [@dyn 560] (gas: 15)\n 28861: u64 [a4 + 0x78] = a3\n 28864: u64 [a4 + 0x70] = a2\n 28867: u64 [a4 + 0x68] = a1\n 28870: u64 [a4 + 0x60] = a0\n 28873: a0 = u64 [s1 + 0x28]\n 28876: u64 [a4 + 0x98] = a0\n 28880: a0 = u64 [s1 + 0x20]\n 28883: u64 [a4 + 0x90] = a0\n 28887: a0 = u64 [s1 + 0x30]\n 28890: u64 [a4 + 0x88] = a0\n 28894: a0 = u64 [s1 + 0x50]\n 28897: u64 [a4 + 0x80] = a0\n 28901: a0 = s1 + 0x360\n 28905: a1 = s1 + 0x380\n 28909: ra = 1122, jump @24\n      : @1124 [@dyn 561] (gas: 11)\n 28915: u64 [s1 + 664] = 0\n 28919: a0 = u64 [s1 + 0x38]\n 28922: a2 = s1 + 0x200\n 28926: u64 [a2 + 0x90] = a0\n 28930: a0 = u64 [s1 + 0x40]\n 28933: u64 [a2 + 0x88] = a0\n 28937: a1 = s1 + 0x280\n 28941: a0 = u64 [s1 + 0x48]\n 28944: u64 [a2 + 0x80] = a0\n 28948: a0 = 0\n 28950: ra = 1124, jump @19\n      : @1125 [@dyn 562] (gas: 1)\n 28956: t0 = 1126, jump @1410\n      : @1126 [@dyn 563] (gas: 1)\n 28962: ra = 1128, jump @19\n      : @1127 [@dyn 564] (gas: 7)\n 28968: a1 = u64 [s1 + 0x58]\n 28971: a0 = sp + 0xffffffffffffffe0\n 28974: a0 = a0 & 0xffffffffffffffe0\n 28977: u64 [s1 + 0x50] = a0\n 28980: sp = a0\n 28982: a0 = i32 [a1]\n 28984: jump @1129 if a0 >u 63\n      : @1128 (gas: 2)\n 28988: u32 [a1 + 0] = 0x40\n 28991: fallthrough\n      : @1129 (gas: 4)\n 28992: a0 = sp + 0xffffffffffffffe0\n 28995: a0 = a0 & 0xffffffffffffffe0\n 28998: u64 [s1 + 0x58] = a0\n 29001: t0 = 1130, jump @1365\n      : @1130 [@dyn 565] (gas: 17)\n 29007: ecalli 6 // 'hash_keccak_256'\n 29009: a3 = u64 [s1 + 0x58]\n 29012: a0 = u64 [a3 + 0x18]\n 29015: a1 = u64 [a3 + 0x10]\n 29018: a2 = u64 [a3 + 0x8]\n 29021: a3 = u64 [a3]\n 29023: a0 = reverse a0\n 29025: a4 = reverse a1\n 29027: a2 = reverse a2\n 29029: a3 = reverse a3\n 29031: a1 = u64 [s1 + 0x50]\n 29034: u64 [a1 + 0x18] = a3\n 29037: u64 [a1 + 0x10] = a2\n 29040: u64 [a1 + 0x8] = a4\n 29043: u64 [a1] = a0\n 29045: a0 = s1 + 0x240\n 29049: ra = 1132, jump @21\n      : @1131 [@dyn 566] (gas: 30)\n 29055: a0 = u64 [s1 + 0x248]\n 29059: a1 = u64 [s1 + 0x240]\n 29063: t0 = u64 [s1 + 0x258]\n 29067: a3 = u64 [s1 + 0x250]\n 29071: a4 = u64 [s1 + 0x80]\n 29075: a4 = a4 + a0\n 29078: a5 = u64 [s1 + 0x90]\n 29082: a5 = a5 + a1\n 29085: a1 = a5 <u a1\n 29088: a4 = a4 + a1\n 29091: a2 = a4 ^ a0\n 29094: a0 = a4 <u a0\n 29097: a0 = a1 if a2 == 0\n 29100: a1 = u64 [s1 + 0x88]\n 29104: a1 = a1 + a3\n 29107: a2 = u64 [s1 + 0x98]\n 29111: t0 = t0 + a2\n 29114: a2 = a1 <u a3\n 29117: a2 = a2 + t0\n 29120: a0 = a0 + a1\n 29123: a1 = a0 <u a1\n 29126: a1 = a1 + a2\n 29129: a2 = s1 + 0x300\n 29133: u64 [a2 + 0xa0] = a5\n 29137: u64 [a2 + 0xa8] = a4\n 29141: u64 [a2 + 0xb0] = a0\n 29145: u64 [a2 + 0xb8] = a1\n 29149: a1 = s1 + 0x3a0\n 29153: a0 = u64 [s1 + 0x50]\n 29156: ra = 1134, jump @24\n      : @1132 [@dyn 567] (gas: 3)\n 29162: a0 = s1 + 0x220\n 29166: a1 = 0x40\n 29169: ra = 1136, jump @17\n      : @1133 [@dyn 568] (gas: 6)\n 29175: a4 = s1 + 0x200\n 29179: a3 = u64 [a4 + 0x38]\n 29182: a1 = u64 [a4 + 0x30]\n 29185: a2 = u64 [a4 + 0x28]\n 29188: a0 = u64 [a4 + 0x20]\n 29191: t0 = 1138, jump @1368\n      : @1134 [@dyn 569] (gas: 1)\n 29197: jump @1138 if a1 != 0\n      : @1135 (gas: 12)\n 29201: a1 = u64 [s1 + 0x90]\n 29205: a3 = s1 + 0x200\n 29209: u64 [a3] = a1\n 29211: a1 = u64 [s1 + 0x80]\n 29215: u64 [a3 + 0x8] = a1\n 29218: a1 = u64 [s1 + 0x88]\n 29222: u64 [a3 + 0x10] = a1\n 29225: a1 = s1 + 0x200\n 29229: a2 = u64 [s1 + 0x98]\n 29233: u64 [a3 + 0x18] = a2\n 29236: u64 [s1 + 0x98] = a0\n 29240: ra = 1140, jump @19\n      : @1136 [@dyn 570] (gas: 29)\n 29246: u64 [s1 + 440] = 0\n 29250: a0 = u64 [s1 + 0x38]\n 29253: a5 = s1 + 0x100\n 29257: u64 [a5 + 0xb0] = a0\n 29261: a0 = u64 [s1 + 0x40]\n 29264: u64 [a5 + 0xa8] = a0\n 29268: a0 = u64 [s1 + 0x48]\n 29271: u64 [a5 + 0xa0] = a0\n 29275: u64 [s1 + 472] = 0\n 29279: a0 = u64 [s1 + 0x68]\n 29282: u64 [a5 + 0xd0] = a0\n 29286: a0 = u64 [s1 + 0x70]\n 29289: u64 [a5 + 0xc8] = a0\n 29293: a0 = u64 [0x201c0]\n 29298: a1 = u64 [0x201c8]\n 29303: a2 = u64 [0x201d0]\n 29308: a3 = u64 [s1 + 0x78]\n 29311: u64 [a5 + 0xc0] = a3\n 29315: u64 [a5 + 0xf8] = a0\n 29319: u64 [a5 + 0xf0] = a1\n 29323: u64 [a5 + 0xe8] = a2\n 29327: a0 = u64 [0x201d8]\n 29332: a1 = 0x20\n 29335: a2 = s1 + 0x1e0\n 29339: a3 = s1 + 0x1c0\n 29343: a4 = s1 + 0x1a0\n 29347: u64 [a5 + 0xe0] = a0\n 29351: a0 = u64 [s1 + 0x98]\n 29355: ra = 1142, jump @27\n      : @1137 [@dyn 571] (gas: 7)\n 29361: sp = s0 + 0xfffffffffffffc20\n 29365: a0 = sp + 0x300\n 29369: ra = u64 [a0 + 0xd8]\n 29373: s0 = u64 [a0 + 0xd0]\n 29377: s1 = u64 [a0 + 0xc8]\n 29381: sp = sp + 0x3e0\n 29385: ret\n      : @1138 (gas: 1)\n 29387: trap\n      : @1139 (gas: 8)\n 29388: u64 [s1 + 208] = 0\n 29392: u64 [s1 + 200] = 0\n 29396: u64 [s1 + 192] = 0\n 29400: a0 = 0x96c6fd1e00000000\n 29410: a1 = s1 + 0xc0\n 29414: u64 [s1 + 0xd8] = a0\n 29418: a0 = 0\n 29420: ra = 1144, jump @19\n      : @1140 [@dyn 572] (gas: 7)\n 29426: u64 [s1 + 184] = 0\n 29430: u64 [s1 + 176] = 0\n 29434: u64 [s1 + 168] = 0\n 29438: a0 = 0x4\n 29441: a1 = s1 + 0xa0\n 29445: u64 [s1 + 160] = 0\n 29449: ra = 1146, jump @19\n      : @1141 [@dyn 573] (gas: 2)\n 29455: a1 = i32 [0x20264]\n 29460: jump @1143 if a1 >u 63\n      : @1142 (gas: 3)\n 29464: u32 [0x20264] = 0x40\n 29470: a1 = 0x20270\n 29475: jump @1149\n      : @1143 (gas: 2)\n 29477: a1 = 0x20270\n 29482: jump @1149\n      : @1144 (gas: 8)\n 29484: u64 [s1 + 272] = 0\n 29488: u64 [s1 + 264] = 0\n 29492: u64 [s1 + 256] = 0\n 29496: a0 = 0xec442f0500000000\n 29506: a1 = s1 + 0x100\n 29510: u64 [s1 + 0x118] = a0\n 29514: a0 = 0\n 29516: ra = 1148, jump @19\n      : @1145 [@dyn 574] (gas: 7)\n 29522: u64 [s1 + 248] = 0\n 29526: u64 [s1 + 240] = 0\n 29530: u64 [s1 + 232] = 0\n 29534: a0 = 0x4\n 29537: a1 = s1 + 0xe0\n 29541: u64 [s1 + 224] = 0\n 29545: ra = 1150, jump @19\n      : @1146 [@dyn 575] (gas: 2)\n 29551: a1 = i32 [0x20264]\n 29556: jump @1148 if a1 >u 63\n      : @1147 (gas: 3)\n 29560: u32 [0x20264] = 0x40\n 29566: a1 = 0x20270\n 29571: jump @1149\n      : @1148 (gas: 2)\n 29573: a1 = 0x20270\n 29578: fallthrough\n      : @1149 (gas: 5)\n 29579: i32 a1 = a1 + 0\n 29581: a0 = 0x1\n 29584: a2 = 0x24\n 29587: ecalli 7 // 'seal_return'\n 29589: fallthrough\n      : @1150 (gas: 8)\n 29590: u64 [s1 + 400] = 0\n 29594: u64 [s1 + 392] = 0\n 29598: u64 [s1 + 384] = 0\n 29602: a0 = 0xe450d38c00000000\n 29612: a1 = s1 + 0x180\n 29616: u64 [s1 + 0x198] = a0\n 29620: a0 = 0\n 29622: ra = 1152, jump @19\n      : @1151 [@dyn 576] (gas: 10)\n 29628: u64 [s1 + 376] = 0\n 29632: a0 = u64 [s1 + 0x68]\n 29635: u64 [s1 + 0x170] = a0\n 29639: a0 = u64 [s1 + 0x70]\n 29642: u64 [s1 + 0x168] = a0\n 29646: a0 = 0x4\n 29649: a1 = s1 + 0x160\n 29653: a2 = u64 [s1 + 0x78]\n 29656: u64 [s1 + 0x160] = a2\n 29660: ra = 1154, jump @19\n      : @1152 [@dyn 577] (gas: 11)\n 29666: a0 = u64 [s1 + 0x28]\n 29669: u64 [s1 + 0x158] = a0\n 29673: a0 = u64 [s1 + 0x20]\n 29676: u64 [s1 + 0x150] = a0\n 29680: a0 = u64 [s1 + 0x30]\n 29683: u64 [s1 + 0x148] = a0\n 29687: a0 = 0x24\n 29690: a1 = s1 + 0x140\n 29694: a2 = u64 [s1 + 0x50]\n 29697: u64 [s1 + 0x140] = a2\n 29701: ra = 1156, jump @19\n      : @1153 [@dyn 578] (gas: 12)\n 29707: a0 = u64 [s1 + 0x98]\n 29711: a3 = s1 + 0x100\n 29715: u64 [a3 + 0x38] = a0\n 29718: a0 = u64 [s1 + 0x88]\n 29722: u64 [a3 + 0x30] = a0\n 29725: a0 = u64 [s1 + 0x80]\n 29729: u64 [a3 + 0x28] = a0\n 29732: a0 = 0x44\n 29735: a1 = s1 + 0x120\n 29739: a2 = u64 [s1 + 0x90]\n 29743: u64 [a3 + 0x20] = a2\n 29746: ra = 1158, jump @19\n      : @1154 [@dyn 579] (gas: 3)\n 29752: a0 = u64 [s1 + 0x58]\n 29755: a0 = i32 [a0]\n 29757: jump @1156 if a0 >u 127\n      : @1155 (gas: 3)\n 29761: a1 = u64 [s1 + 0x58]\n 29764: u32 [a1 + 0] = 0x80\n 29768: fallthrough\n      : @1156 (gas: 6)\n 29769: a0 = 0x1\n 29772: a2 = 0x64\n 29775: a1 = u64 [s1 + 0x60]\n 29778: ra = 0x488\n 29782: ecalli 7 // 'seal_return'\n 29784: fallthrough\n      : @1157 [@dyn 580] (gas: 22)\n 29785: sp = sp + 0xfffffffffffffe60\n 29789: u64 [sp + 0x198] = ra\n 29793: u64 [sp + 0x190] = s0\n 29797: u64 [sp + 0x188] = s1\n 29801: s0 = sp + 0x1a0\n 29805: sp = sp & 0xffffffffffffffe0\n 29808: s1 = sp\n 29810: a0 = u64 [0x201e0]\n 29815: u64 [s1 + 0x38] = a0\n 29818: u64 [s1 + 0x178] = a0\n 29822: a1 = u64 [0x201e8]\n 29827: a2 = u64 [0x201f0]\n 29832: a0 = u64 [0x201f8]\n 29837: u64 [s1 + 0x28] = a1\n 29840: u64 [s1 + 0x170] = a1\n 29844: u64 [s1 + 0x20] = a2\n 29847: u64 [s1 + 0x168] = a2\n 29851: a1 = s1 + 0x160\n 29855: u64 [s1 + 0x30] = a0\n 29858: u64 [s1 + 0x160] = a0\n 29862: a0 = 0\n 29864: ra = 1162, jump @19\n      : @1158 [@dyn 581] (gas: 1)\n 29870: t0 = 1164, jump @1373\n      : @1159 [@dyn 582] (gas: 1)\n 29876: ra = 1166, jump @19\n      : @1160 [@dyn 583] (gas: 3)\n 29882: a1 = 0x20264\n 29887: a0 = i32 [0x20264]\n 29892: jump @1162 if a0 >u 63\n      : @1161 (gas: 2)\n 29896: u32 [0x20264] = 0x40\n 29902: fallthrough\n      : @1162 (gas: 14)\n 29903: a0 = sp + 0xffffffffffffffe0\n 29906: a2 = a0 & 0xffffffffffffffe0\n 29909: u64 [s1 + 0x68] = a2\n 29912: sp = a2\n 29914: a0 = 0x20270\n 29919: i32 a0 = a0 + 0\n 29921: i32 a2 = a2 + 0\n 29923: u64 [s1 + 0x78] = a1\n 29926: a1 = 0x40\n 29929: u64 [s1 + 0x70] = a0\n 29932: ra = 0x490\n 29936: ecalli 6 // 'hash_keccak_256'\n 29938: t0 = 0x492\n 29942: jump @1374\n      : @1163 [@dyn 584] (gas: 1)\n 29945: t0 = 1170, jump @1374\n      : @1164 [@dyn 585] (gas: 8)\n 29951: a0 = 0x30270\n 29956: u64 [s1 + 0x68] = a0\n 29959: i32 a0 = a0 + 0\n 29961: u64 [s1 + 0x18] = a0\n 29964: ra = 0x494\n 29968: ecalli 3 // 'caller'\n 29970: t0 = 0x496\n 29974: jump @1363\n      : @1165 [@dyn 586] (gas: 1)\n 29977: t0 = 1174, jump @1363\n      : @1166 [@dyn 587] (gas: 1)\n 29983: ra = 1176, jump @19\n      : @1167 [@dyn 588] (gas: 1)\n 29989: t0 = 1178, jump @1392\n      : @1168 [@dyn 589] (gas: 1)\n 29995: ra = 1180, jump @19\n      : @1169 [@dyn 590] (gas: 3)\n 30001: a1 = u64 [s1 + 0x78]\n 30004: a0 = i32 [a1]\n 30006: jump @1171 if a0 >u 63\n      : @1170 (gas: 3)\n 30010: u32 [a1 + 0] = 0x40\n 30013: t0 = 0x49e\n 30017: jump @1414\n      : @1171 (gas: 1)\n 30020: t0 = 1182, jump @1414\n      : @1172 [@dyn 591] (gas: 4)\n 30026: ra = 0x4a0\n 30030: ecalli 6 // 'hash_keccak_256'\n 30032: t0 = 0x4a2\n 30036: jump @1376\n      : @1173 [@dyn 592] (gas: 1)\n 30039: t0 = 1186, jump @1376\n      : @1174 [@dyn 593] (gas: 1)\n 30045: ra = 1188, jump @21\n      : @1175 [@dyn 594] (gas: 2)\n 30051: a0 = u8 [s1 + 0xe0]\n 30055: jump @1177 if a0 == 0\n      : @1176 (gas: 6)\n 30058: sp = s0 + 0xfffffffffffffe60\n 30062: ra = u64 [sp + 0x198]\n 30066: s0 = u64 [sp + 0x190]\n 30070: s1 = u64 [sp + 0x188]\n 30074: sp = sp + 0x1a0\n 30078: ret\n      : @1177 (gas: 1)\n 30080: t0 = 1190, jump @1389\n      : @1178 [@dyn 595] (gas: 1)\n 30086: ra = 1192, jump @19\n      : @1179 [@dyn 596] (gas: 5)\n 30092: a0 = u64 [s1 + 0x18]\n 30095: ra = 0x4aa\n 30099: ecalli 3 // 'caller'\n 30101: t0 = 0x4ac\n 30105: jump @1369\n      : @1180 [@dyn 597] (gas: 1)\n 30108: t0 = 1196, jump @1369\n      : @1181 [@dyn 598] (gas: 1)\n 30114: ra = 1198, jump @19\n      : @1182 [@dyn 599] (gas: 11)\n 30120: a0 = u64 [s1 + 0x38]\n 30123: u64 [s1 + 0x98] = a0\n 30127: a0 = u64 [s1 + 0x28]\n 30130: u64 [s1 + 0x90] = a0\n 30134: a0 = u64 [s1 + 0x20]\n 30137: u64 [s1 + 0x88] = a0\n 30141: a0 = 0x24\n 30144: a1 = s1 + 0x80\n 30148: a2 = u64 [s1 + 0x30]\n 30151: u64 [s1 + 0x80] = a2\n 30155: ra = 1200, jump @19\n      : @1183 [@dyn 600] (gas: 3)\n 30161: a0 = u64 [s1 + 0x78]\n 30164: a0 = i32 [a0]\n 30166: jump @1185 if a0 >u 95\n      : @1184 (gas: 3)\n 30170: a1 = u64 [s1 + 0x78]\n 30173: u32 [a1 + 0] = 0x60\n 30176: fallthrough\n      : @1185 (gas: 6)\n 30177: a0 = 0x1\n 30180: a2 = 0x44\n 30183: a1 = u64 [s1 + 0x70]\n 30186: ra = 0x4b2\n 30190: ecalli 7 // 'seal_return'\n 30192: fallthrough\n      : @1186 [@dyn 601] (gas: 22)\n 30193: sp = sp + 0xfffffffffffffe60\n 30197: u64 [sp + 0x198] = ra\n 30201: u64 [sp + 0x190] = s0\n 30205: u64 [sp + 0x188] = s1\n 30209: s0 = sp + 0x1a0\n 30213: sp = sp & 0xffffffffffffffe0\n 30216: s1 = sp\n 30218: a2 = u64 [a0]\n 30220: a1 = u64 [a0 + 0x8]\n 30223: a3 = u64 [a0 + 0x10]\n 30226: a0 = u64 [a0 + 0x18]\n 30229: u64 [s1 + 0x20] = a0\n 30232: u64 [s1 + 0x178] = a0\n 30236: u64 [s1 + 0x28] = a3\n 30239: u64 [s1 + 0x170] = a3\n 30243: u64 [s1 + 0x30] = a1\n 30246: u64 [s1 + 0x168] = a1\n 30250: a1 = s1 + 0x160\n 30254: u64 [s1 + 0x38] = a2\n 30257: u64 [s1 + 0x160] = a2\n 30261: a0 = 0\n 30263: ra = 1204, jump @19\n      : @1187 [@dyn 602] (gas: 1)\n 30269: t0 = 1206, jump @1373\n      : @1188 [@dyn 603] (gas: 1)\n 30275: ra = 1208, jump @19\n      : @1189 [@dyn 604] (gas: 3)\n 30281: a1 = 0x20264\n 30286: a0 = i32 [0x20264]\n 30291: jump @1191 if a0 >u 63\n      : @1190 (gas: 2)\n 30295: u32 [0x20264] = 0x40\n 30301: fallthrough\n      : @1191 (gas: 14)\n 30302: a0 = sp + 0xffffffffffffffe0\n 30305: a2 = a0 & 0xffffffffffffffe0\n 30308: u64 [s1 + 0x68] = a2\n 30311: sp = a2\n 30313: a0 = 0x20270\n 30318: i32 a0 = a0 + 0\n 30320: i32 a2 = a2 + 0\n 30322: u64 [s1 + 0x78] = a1\n 30325: a1 = 0x40\n 30328: u64 [s1 + 0x70] = a0\n 30331: ra = 0x4ba\n 30335: ecalli 6 // 'hash_keccak_256'\n 30337: t0 = 0x4bc\n 30341: jump @1374\n      : @1192 [@dyn 605] (gas: 1)\n 30344: t0 = 1212, jump @1374\n      : @1193 [@dyn 606] (gas: 8)\n 30350: a0 = 0x30270\n 30355: u64 [s1 + 0x68] = a0\n 30358: i32 a0 = a0 + 0\n 30360: u64 [s1 + 0x18] = a0\n 30363: ra = 0x4be\n 30367: ecalli 3 // 'caller'\n 30369: t0 = 0x4c0\n 30373: jump @1363\n      : @1194 [@dyn 607] (gas: 1)\n 30376: t0 = 1216, jump @1363\n      : @1195 [@dyn 608] (gas: 1)\n 30382: ra = 1218, jump @19\n      : @1196 [@dyn 609] (gas: 1)\n 30388: t0 = 1220, jump @1392\n      : @1197 [@dyn 610] (gas: 1)\n 30394: ra = 1222, jump @19\n      : @1198 [@dyn 611] (gas: 3)\n 30400: a1 = u64 [s1 + 0x78]\n 30403: a0 = i32 [a1]\n 30405: jump @1200 if a0 >u 63\n      : @1199 (gas: 3)\n 30409: u32 [a1 + 0] = 0x40\n 30412: t0 = 0x4c8\n 30416: jump @1414\n      : @1200 (gas: 1)\n 30419: t0 = 1224, jump @1414\n      : @1201 [@dyn 612] (gas: 4)\n 30425: ra = 0x4ca\n 30429: ecalli 6 // 'hash_keccak_256'\n 30431: t0 = 0x4cc\n 30435: jump @1376\n      : @1202 [@dyn 613] (gas: 1)\n 30438: t0 = 1228, jump @1376\n      : @1203 [@dyn 614] (gas: 1)\n 30444: ra = 1230, jump @21\n      : @1204 [@dyn 615] (gas: 2)\n 30450: a0 = u8 [s1 + 0xe0]\n 30454: jump @1206 if a0 == 0\n      : @1205 (gas: 6)\n 30457: sp = s0 + 0xfffffffffffffe60\n 30461: ra = u64 [sp + 0x198]\n 30465: s0 = u64 [sp + 0x190]\n 30469: s1 = u64 [sp + 0x188]\n 30473: sp = sp + 0x1a0\n 30477: ret\n      : @1206 (gas: 1)\n 30479: t0 = 1232, jump @1389\n      : @1207 [@dyn 616] (gas: 1)\n 30485: ra = 1234, jump @19\n      : @1208 [@dyn 617] (gas: 5)\n 30491: a0 = u64 [s1 + 0x18]\n 30494: ra = 0x4d4\n 30498: ecalli 3 // 'caller'\n 30500: t0 = 0x4d6\n 30504: jump @1369\n      : @1209 [@dyn 618] (gas: 1)\n 30507: t0 = 1238, jump @1369\n      : @1210 [@dyn 619] (gas: 1)\n 30513: ra = 1240, jump @19\n      : @1211 [@dyn 620] (gas: 11)\n 30519: a0 = u64 [s1 + 0x20]\n 30522: u64 [s1 + 0x98] = a0\n 30526: a0 = u64 [s1 + 0x28]\n 30529: u64 [s1 + 0x90] = a0\n 30533: a0 = u64 [s1 + 0x30]\n 30536: u64 [s1 + 0x88] = a0\n 30540: a0 = 0x24\n 30543: a1 = s1 + 0x80\n 30547: a2 = u64 [s1 + 0x38]\n 30550: u64 [s1 + 0x80] = a2\n 30554: ra = 1242, jump @19\n      : @1212 [@dyn 621] (gas: 3)\n 30560: a0 = u64 [s1 + 0x78]\n 30563: a0 = i32 [a0]\n 30565: jump @1214 if a0 >u 95\n      : @1213 (gas: 3)\n 30569: a1 = u64 [s1 + 0x78]\n 30572: u32 [a1 + 0] = 0x60\n 30575: fallthrough\n      : @1214 (gas: 7)\n 30576: a0 = 0x1\n 30579: a2 = 0x44\n 30582: a1 = u64 [s1 + 0x70]\n 30585: ra = 0x4dc\n 30589: ecalli 7 // 'seal_return'\n 30591: t0 = 0x4de\n 30595: jump @1402\n      : @1215 [@dyn 622] (gas: 1)\n 30598: t0 = 1246, jump @1402\n      : @1216 [@dyn 623] (gas: 21)\n 30604: u64 [s1 + 0x50] = a3\n 30607: a3 = u64 [a2 + 0x8]\n 30610: u64 [s1 + 0x70] = a3\n 30613: a2 = u64 [a2]\n 30615: u64 [s1 + 0x78] = a2\n 30618: a2 = u64 [a1]\n 30620: a3 = u64 [a1 + 0x8]\n 30623: a4 = u64 [a1 + 0x10]\n 30626: a1 = u64 [a1 + 0x18]\n 30629: u64 [s1 + 0x58] = a0\n 30632: u64 [s1 + 0x8] = a1\n 30635: u64 [s1 + 0x238] = a1\n 30639: u64 [s1 + 0x10] = a4\n 30642: u64 [s1 + 0x230] = a4\n 30646: u64 [s1 + 0x18] = a3\n 30649: u64 [s1 + 0x228] = a3\n 30653: a1 = s1 + 0x220\n 30657: u64 [s1 + 0x20] = a2\n 30660: u64 [s1 + 0x220] = a2\n 30664: a0 = 0\n 30666: ra = 1248, jump @19\n      : @1217 [@dyn 624] (gas: 1)\n 30672: t0 = 1250, jump @1362\n      : @1218 [@dyn 625] (gas: 1)\n 30678: ra = 1252, jump @19\n      : @1219 [@dyn 626] (gas: 3)\n 30684: a1 = 0x20264\n 30689: a0 = i32 [0x20264]\n 30694: jump @1221 if a0 >u 63\n      : @1220 (gas: 2)\n 30698: u32 [0x20264] = 0x40\n 30704: fallthrough\n      : @1221 (gas: 6)\n 30705: a0 = sp + 0xffffffffffffffe0\n 30708: a2 = a0 & 0xffffffffffffffe0\n 30711: u64 [s1 + 0x48] = a2\n 30714: sp = a2\n 30716: a0 = 0x20270\n 30721: t0 = 1254, jump @1420\n      : @1222 [@dyn 627] (gas: 4)\n 30727: ra = 0x4e8\n 30731: ecalli 6 // 'hash_keccak_256'\n 30733: t0 = 0x4ea\n 30737: jump @1348\n      : @1223 [@dyn 628] (gas: 1)\n 30740: t0 = 1258, jump @1348\n      : @1224 [@dyn 629] (gas: 1)\n 30746: ra = 1260, jump @19\n      : @1225 [@dyn 630] (gas: 1)\n 30752: t0 = 1262, jump @1371\n      : @1226 [@dyn 631] (gas: 1)\n 30758: ra = 1264, jump @19\n      : @1227 [@dyn 632] (gas: 3)\n 30764: a1 = u64 [s1 + 0x68]\n 30767: a0 = i32 [a1]\n 30769: jump @1229 if a0 >u 63\n      : @1228 (gas: 3)\n 30773: u32 [a1 + 0] = 0x40\n 30776: t0 = 0x4f2\n 30780: jump @1358\n      : @1229 (gas: 1)\n 30783: t0 = 1266, jump @1358\n      : @1230 [@dyn 633] (gas: 4)\n 30789: ra = 0x4f4\n 30793: ecalli 6 // 'hash_keccak_256'\n 30795: t0 = 0x4f6\n 30799: jump @1355\n      : @1231 [@dyn 634] (gas: 1)\n 30802: t0 = 1270, jump @1355\n      : @1232 [@dyn 635] (gas: 1)\n 30808: ra = 1272, jump @21\n      : @1233 [@dyn 636] (gas: 2)\n 30814: a0 = u8 [s1 + 0x1a0]\n 30818: jump @1235 if a0 == 0\n      : @1234 (gas: 5)\n 30821: a1 = 0\n 30823: a0 = 0\n 30825: a2 = u64 [s1 + 0x58]\n 30828: t0 = 0x51e\n 30832: jump @1360\n      : @1235 (gas: 11)\n 30835: a0 = u64 [s1 + 0x20]\n 30838: u64 [s1 + 0x180] = a0\n 30842: a0 = u64 [s1 + 0x18]\n 30845: u64 [s1 + 0x188] = a0\n 30849: a0 = u64 [s1 + 0x10]\n 30852: u64 [s1 + 0x190] = a0\n 30856: a1 = s1 + 0x180\n 30860: a0 = u64 [s1 + 0x8]\n 30863: u64 [s1 + 0x198] = a0\n 30867: a0 = 0\n 30869: ra = 1274, jump @19\n      : @1236 [@dyn 637] (gas: 1)\n 30875: t0 = 1276, jump @1361\n      : @1237 [@dyn 638] (gas: 1)\n 30881: ra = 1278, jump @19\n      : @1238 [@dyn 639] (gas: 3)\n 30887: a1 = u64 [s1 + 0x68]\n 30890: a0 = i32 [a1]\n 30892: jump @1240 if a0 >u 63\n      : @1239 (gas: 3)\n 30896: u32 [a1 + 0] = 0x40\n 30899: t0 = 0x500\n 30903: jump @1358\n      : @1240 (gas: 1)\n 30906: t0 = 1280, jump @1358\n      : @1241 [@dyn 640] (gas: 4)\n 30912: ra = 0x502\n 30916: ecalli 6 // 'hash_keccak_256'\n 30918: t0 = 0x504\n 30922: jump @1349\n      : @1242 [@dyn 641] (gas: 1)\n 30925: t0 = 1284, jump @1349\n      : @1243 [@dyn 642] (gas: 1)\n 30931: ra = 1286, jump @19\n      : @1244 [@dyn 643] (gas: 1)\n 30937: t0 = 1288, jump @1372\n      : @1245 [@dyn 644] (gas: 1)\n 30943: ra = 1290, jump @19\n      : @1246 [@dyn 645] (gas: 3)\n 30949: a1 = u64 [s1 + 0x68]\n 30952: a0 = i32 [a1]\n 30954: jump @1248 if a0 >u 63\n      : @1247 (gas: 2)\n 30958: u32 [a1 + 0] = 0x40\n 30961: fallthrough\n      : @1248 (gas: 4)\n 30962: a0 = sp + 0xffffffffffffffe0\n 30965: a0 = a0 & 0xffffffffffffffe0\n 30968: u64 [s1 + 0x68] = a0\n 30971: t0 = 1292, jump @1365\n      : @1249 [@dyn 646] (gas: 4)\n 30977: ra = 0x50e\n 30981: ecalli 6 // 'hash_keccak_256'\n 30983: t0 = 0x510\n 30987: jump @1357\n      : @1250 [@dyn 647] (gas: 1)\n 30990: t0 = 1296, jump @1357\n      : @1251 [@dyn 648] (gas: 1)\n 30996: ra = 1298, jump @21\n      : @1252 [@dyn 649] (gas: 1)\n 31002: t0 = 1300, jump @1359\n      : @1253 [@dyn 650] (gas: 1)\n 31008: ra = 1302, jump @24\n      : @1254 [@dyn 651] (gas: 8)\n 31014: a0 = 0x30270\n 31019: u64 [s1 + 0x68] = a0\n 31022: i32 a0 = a0 + 0\n 31024: ra = 0x518\n 31028: ecalli 3 // 'caller'\n 31030: a2 = u64 [s1 + 0x68]\n 31033: t0 = 0x51a\n 31037: jump @1352\n      : @1255 [@dyn 652] (gas: 2)\n 31040: a2 = u64 [s1 + 0x68]\n 31043: t0 = 1306, jump @1352\n      : @1256 [@dyn 653] (gas: 40)\n 31049: t0 = a1 | a0\n 31052: a3 = a3 >> 0x20\n 31055: a2 = reverse a2\n 31057: a1 = a2 << 0x20\n 31060: a1 = a1 | a3\n 31063: a2 = a2 >> 0x20\n 31066: u64 [s1 + 152] = 0\n 31070: u64 [s1 + 184] = 0\n 31074: a0 = u64 [s1]\n 31076: u64 [s1 + 0xb0] = a0\n 31080: a0 = u64 [s1 + 0x70]\n 31083: u64 [s1 + 0xa8] = a0\n 31087: a0 = u64 [s1 + 0x78]\n 31090: u64 [s1 + 0xa0] = a0\n 31094: a0 = u64 [s1 + 0x8]\n 31097: u64 [s1 + 0xd8] = a0\n 31101: a0 = u64 [s1 + 0x10]\n 31104: u64 [s1 + 0xd0] = a0\n 31108: a0 = u64 [s1 + 0x18]\n 31111: u64 [s1 + 0xc8] = a0\n 31115: a0 = u64 [s1 + 0x20]\n 31118: u64 [s1 + 0xc0] = a0\n 31122: a3 = u64 [0x20200]\n 31127: a4 = u64 [0x20208]\n 31132: a5 = u64 [0x20210]\n 31137: a0 = u64 [0x20218]\n 31142: u64 [s1 + 0xf8] = a3\n 31146: u64 [s1 + 0xf0] = a4\n 31150: u64 [s1 + 0xe8] = a5\n 31154: u64 [s1 + 0xe0] = a0\n 31158: u64 [s1 + 0x90] = a2\n 31162: u64 [s1 + 0x88] = a1\n 31166: a2 = s1 + 0xe0\n 31170: a3 = s1 + 0xc0\n 31174: a4 = s1 + 0xa0\n 31178: a5 = s1 + 0x80\n 31182: u64 [s1 + 0x80] = t0\n 31186: a0 = 0\n 31188: a1 = 0\n 31190: ra = 1308, jump @30\n      : @1257 [@dyn 654] (gas: 4)\n 31196: a0 = 0\n 31198: a1 = 0x1\n 31201: a2 = u64 [s1 + 0x58]\n 31204: t0 = 1310, jump @1360\n      : @1258 [@dyn 655] (gas: 1)\n 31210: ret\n      : @1259 [@dyn 656] (gas: 21)\n 31212: u64 [s1 + 0x38] = a3\n 31215: a3 = u64 [a2 + 0x8]\n 31218: u64 [s1 + 0x70] = a3\n 31221: a2 = u64 [a2]\n 31223: u64 [s1 + 0x78] = a2\n 31226: a2 = u64 [a1]\n 31228: a3 = u64 [a1 + 0x8]\n 31231: a4 = u64 [a1 + 0x10]\n 31234: a1 = u64 [a1 + 0x18]\n 31237: u64 [s1 + 0x30] = a0\n 31240: u64 [s1 + 0x40] = a1\n 31243: u64 [s1 + 0x238] = a1\n 31247: u64 [s1 + 0x48] = a4\n 31250: u64 [s1 + 0x230] = a4\n 31254: u64 [s1 + 0x50] = a3\n 31257: u64 [s1 + 0x228] = a3\n 31261: a1 = s1 + 0x220\n 31265: u64 [s1 + 0x58] = a2\n 31268: u64 [s1 + 0x220] = a2\n 31272: a0 = 0\n 31274: ra = 1314, jump @19\n      : @1260 [@dyn 657] (gas: 1)\n 31280: t0 = 1316, jump @1362\n      : @1261 [@dyn 658] (gas: 1)\n 31286: ra = 1318, jump @19\n      : @1262 [@dyn 659] (gas: 3)\n 31292: a1 = 0x20264\n 31297: a0 = i32 [0x20264]\n 31302: jump @1264 if a0 >u 63\n      : @1263 (gas: 2)\n 31306: u32 [0x20264] = 0x40\n 31312: fallthrough\n      : @1264 (gas: 6)\n 31313: a0 = sp + 0xffffffffffffffe0\n 31316: a2 = a0 & 0xffffffffffffffe0\n 31319: u64 [s1 + 0x28] = a2\n 31322: sp = a2\n 31324: a0 = 0x20270\n 31329: t0 = 1320, jump @1420\n      : @1265 [@dyn 660] (gas: 4)\n 31335: ra = 0x52a\n 31339: ecalli 6 // 'hash_keccak_256'\n 31341: t0 = 0x52c\n 31345: jump @1353\n      : @1266 [@dyn 661] (gas: 1)\n 31348: t0 = 1324, jump @1353\n      : @1267 [@dyn 662] (gas: 13)\n 31354: a0 = u64 [s1 + 0x38]\n 31357: a0 = a0 << 0x20\n 31360: a0 = a0 >> 0x20\n 31363: u64 [s1 + 504] = 0\n 31367: u64 [s1 + 0x38] = a0\n 31370: u64 [s1 + 0x1f0] = a0\n 31374: a0 = u64 [s1 + 0x70]\n 31377: u64 [s1 + 0x1e8] = a0\n 31381: a1 = s1 + 0x1e0\n 31385: a0 = u64 [s1 + 0x78]\n 31388: u64 [s1 + 0x1e0] = a0\n 31392: a0 = 0\n 31394: ra = 1326, jump @19\n      : @1268 [@dyn 663] (gas: 12)\n 31400: a0 = u64 [s1 + 0x8]\n 31403: a3 = s1 + 0x100\n 31407: u64 [a3 + 0xd8] = a0\n 31411: a0 = u64 [s1 + 0x10]\n 31414: u64 [a3 + 0xd0] = a0\n 31418: a0 = u64 [s1 + 0x18]\n 31421: u64 [a3 + 0xc8] = a0\n 31425: a0 = 0x20\n 31428: a1 = s1 + 0x1c0\n 31432: a2 = u64 [s1 + 0x20]\n 31435: u64 [a3 + 0xc0] = a2\n 31439: ra = 1328, jump @19\n      : @1269 [@dyn 664] (gas: 3)\n 31445: a1 = u64 [s1 + 0x68]\n 31448: a0 = i32 [a1]\n 31450: jump @1271 if a0 >u 63\n      : @1270 (gas: 2)\n 31454: u32 [a1 + 0] = 0x40\n 31457: fallthrough\n      : @1271 (gas: 4)\n 31458: a0 = sp + 0xffffffffffffffe0\n 31461: a0 = a0 & 0xffffffffffffffe0\n 31464: u64 [s1 + 0x20] = a0\n 31467: t0 = 1330, jump @1365\n      : @1272 [@dyn 665] (gas: 5)\n 31473: ra = 0x534\n 31477: ecalli 6 // 'hash_keccak_256'\n 31479: a3 = u64 [s1 + 0x20]\n 31482: t0 = 0x536\n 31486: jump @1364\n      : @1273 [@dyn 666] (gas: 2)\n 31489: a3 = u64 [s1 + 0x20]\n 31492: t0 = 1334, jump @1364\n      : @1274 [@dyn 667] (gas: 2)\n 31498: a0 = s1 + 0x1a0\n 31502: ra = 1336, jump @21\n      : @1275 [@dyn 668] (gas: 2)\n 31508: a0 = u8 [s1 + 0x1a0]\n 31512: jump @1297 if a0 == 0\n      : @1276 (gas: 11)\n 31516: a0 = u64 [s1 + 0x58]\n 31519: u64 [s1 + 0x180] = a0\n 31523: a0 = u64 [s1 + 0x50]\n 31526: u64 [s1 + 0x188] = a0\n 31530: a0 = u64 [s1 + 0x48]\n 31533: u64 [s1 + 0x190] = a0\n 31537: a1 = s1 + 0x180\n 31541: a0 = u64 [s1 + 0x40]\n 31544: u64 [s1 + 0x198] = a0\n 31548: a0 = 0\n 31550: ra = 1338, jump @19\n      : @1277 [@dyn 669] (gas: 1)\n 31556: t0 = 1340, jump @1361\n      : @1278 [@dyn 670] (gas: 1)\n 31562: ra = 1342, jump @19\n      : @1279 [@dyn 671] (gas: 3)\n 31568: a1 = u64 [s1 + 0x68]\n 31571: a0 = i32 [a1]\n 31573: jump @1281 if a0 >u 63\n      : @1280 (gas: 2)\n 31577: u32 [a1 + 0] = 0x40\n 31580: fallthrough\n      : @1281 (gas: 4)\n 31581: a0 = sp + 0xffffffffffffffe0\n 31584: a0 = a0 & 0xffffffffffffffe0\n 31587: u64 [s1 + 0x28] = a0\n 31590: t0 = 1344, jump @1365\n      : @1282 [@dyn 672] (gas: 4)\n 31596: ra = 0x542\n 31600: ecalli 6 // 'hash_keccak_256'\n 31602: t0 = 0x544\n 31606: jump @1353\n      : @1283 [@dyn 673] (gas: 1)\n 31609: t0 = 1348, jump @1353\n      : @1284 [@dyn 674] (gas: 10)\n 31615: u64 [s1 + 344] = 0\n 31619: a0 = u64 [s1 + 0x38]\n 31622: u64 [s1 + 0x150] = a0\n 31626: a0 = u64 [s1 + 0x70]\n 31629: u64 [s1 + 0x148] = a0\n 31633: a1 = s1 + 0x140\n 31637: a0 = u64 [s1 + 0x78]\n 31640: u64 [s1 + 0x140] = a0\n 31644: a0 = 0\n 31646: ra = 1350, jump @19\n      : @1285 [@dyn 675] (gas: 12)\n 31652: a0 = u64 [s1 + 0x8]\n 31655: a3 = s1 + 0x100\n 31659: u64 [a3 + 0x38] = a0\n 31662: a0 = u64 [s1 + 0x10]\n 31665: u64 [a3 + 0x30] = a0\n 31668: a0 = u64 [s1 + 0x18]\n 31671: u64 [a3 + 0x28] = a0\n 31674: a0 = 0x20\n 31677: a1 = s1 + 0x120\n 31681: a2 = u64 [s1 + 0x20]\n 31684: u64 [a3 + 0x20] = a2\n 31687: ra = 1352, jump @19\n      : @1286 [@dyn 676] (gas: 3)\n 31693: a1 = u64 [s1 + 0x68]\n 31696: a0 = i32 [a1]\n 31698: jump @1288 if a0 >u 63\n      : @1287 (gas: 2)\n 31702: u32 [a1 + 0] = 0x40\n 31705: fallthrough\n      : @1288 (gas: 4)\n 31706: a0 = sp + 0xffffffffffffffe0\n 31709: a0 = a0 & 0xffffffffffffffe0\n 31712: u64 [s1 + 0x68] = a0\n 31715: t0 = 1354, jump @1365\n      : @1289 [@dyn 677] (gas: 5)\n 31721: ra = 0x54c\n 31725: ecalli 6 // 'hash_keccak_256'\n 31727: a3 = u64 [s1 + 0x68]\n 31730: t0 = 0x54e\n 31734: jump @1364\n      : @1290 [@dyn 678] (gas: 2)\n 31737: a3 = u64 [s1 + 0x68]\n 31740: t0 = 1358, jump @1364\n      : @1291 [@dyn 679] (gas: 2)\n 31746: a0 = s1 + 0x100\n 31750: ra = 1360, jump @21\n      : @1292 [@dyn 680] (gas: 14)\n 31756: a4 = s1 + 0x100\n 31760: a0 = u64 [a4]\n 31762: a1 = u64 [a4 + 0x18]\n 31765: a2 = u64 [a4 + 0x10]\n 31768: a3 = u64 [a4 + 0x8]\n 31771: a0 = a0 & 0xffffffffffffff00\n 31775: a4 = s1 + 0x200\n 31779: u64 [a4 + 0x58] = a1\n 31782: u64 [a4 + 0x50] = a2\n 31785: u64 [a4 + 0x48] = a3\n 31788: u64 [a4 + 0x40] = a0\n 31791: a1 = s1 + 0x240\n 31795: a0 = u64 [s1 + 0x28]\n 31798: ra = 1362, jump @24\n      : @1293 [@dyn 681] (gas: 8)\n 31804: a0 = 0x30270\n 31809: u64 [s1 + 0x68] = a0\n 31812: i32 a0 = a0 + 0\n 31814: ra = 0x554\n 31818: ecalli 3 // 'caller'\n 31820: a2 = u64 [s1 + 0x68]\n 31823: t0 = 0x556\n 31827: jump @1352\n      : @1294 [@dyn 682] (gas: 2)\n 31830: a2 = u64 [s1 + 0x68]\n 31833: t0 = 1366, jump @1352\n      : @1295 [@dyn 683] (gas: 40)\n 31839: t0 = a1 | a0\n 31842: a3 = a3 >> 0x20\n 31845: a2 = reverse a2\n 31847: a1 = a2 << 0x20\n 31850: a1 = a1 | a3\n 31853: a2 = a2 >> 0x20\n 31856: u64 [s1 + 152] = 0\n 31860: u64 [s1 + 184] = 0\n 31864: a0 = u64 [s1 + 0x38]\n 31867: u64 [s1 + 0xb0] = a0\n 31871: a0 = u64 [s1 + 0x70]\n 31874: u64 [s1 + 0xa8] = a0\n 31878: a0 = u64 [s1 + 0x78]\n 31881: u64 [s1 + 0xa0] = a0\n 31885: a0 = u64 [s1 + 0x40]\n 31888: u64 [s1 + 0xd8] = a0\n 31892: a0 = u64 [s1 + 0x48]\n 31895: u64 [s1 + 0xd0] = a0\n 31899: a0 = u64 [s1 + 0x50]\n 31902: u64 [s1 + 0xc8] = a0\n 31906: a0 = u64 [s1 + 0x58]\n 31909: u64 [s1 + 0xc0] = a0\n 31913: a3 = u64 [0x20220]\n 31918: a4 = u64 [0x20228]\n 31923: a5 = u64 [0x20230]\n 31928: a0 = u64 [0x20238]\n 31933: u64 [s1 + 0xf8] = a3\n 31937: u64 [s1 + 0xf0] = a4\n 31941: u64 [s1 + 0xe8] = a5\n 31945: u64 [s1 + 0xe0] = a0\n 31949: u64 [s1 + 0x90] = a2\n 31953: u64 [s1 + 0x88] = a1\n 31957: a2 = s1 + 0xe0\n 31961: a3 = s1 + 0xc0\n 31965: a4 = s1 + 0xa0\n 31969: a5 = s1 + 0x80\n 31973: u64 [s1 + 0x80] = t0\n 31977: a0 = 0\n 31979: a1 = 0\n 31981: ra = 1368, jump @30\n      : @1296 [@dyn 684] (gas: 5)\n 31987: a0 = 0\n 31989: a1 = 0x1\n 31992: a2 = u64 [s1 + 0x30]\n 31995: t0 = 0x55a\n 31999: jump @1360\n      : @1297 (gas: 3)\n 32002: a1 = 0\n 32004: a2 = u64 [s1 + 0x30]\n 32007: t0 = 1370, jump @1360\n      : @1298 [@dyn 685] (gas: 1)\n 32013: ret\n      : @1299 (gas: 17)\n 32015: sp = sp + 0xfffffffffffffc80\n 32019: a2 = sp + 0x300\n 32023: u64 [a2 + 0x78] = ra\n 32026: u64 [a2 + 0x70] = s0\n 32029: u64 [a2 + 0x68] = s1\n 32032: s0 = sp + 0x380\n 32036: sp = sp & 0xffffffffffffffe0\n 32039: s1 = sp\n 32041: a3 = u32 [a0 + 0x10]\n 32044: a2 = u64 [a0]\n 32046: a4 = u64 [a0 + 0x8]\n 32049: u64 [s1 + 0x58] = a2\n 32052: u64 [s1 + 0x48] = a3\n 32055: a0 = a2 | a3\n 32058: u64 [s1 + 0x50] = a4\n 32061: a0 = a0 | a4\n 32064: jump @1326 if a0 == 0\n      : @1300 (gas: 9)\n 32068: a0 = u64 [a1 + 0x18]\n 32071: u64 [s1 + 0x78] = a0\n 32074: a0 = u64 [a1 + 0x10]\n 32077: u64 [s1 + 0x68] = a0\n 32080: a0 = u64 [a1 + 0x8]\n 32083: u64 [s1 + 0x60] = a0\n 32086: a0 = u64 [a1]\n 32088: u64 [s1 + 0x70] = a0\n 32091: ra = 1372, jump @1338\n      : @1301 [@dyn 686] (gas: 11)\n 32097: u64 [s1 + 664] = 0\n 32101: a0 = u64 [s1 + 0x48]\n 32104: a2 = s1 + 0x200\n 32108: u64 [a2 + 0x90] = a0\n 32112: a0 = u64 [s1 + 0x50]\n 32115: u64 [a2 + 0x88] = a0\n 32119: a1 = s1 + 0x280\n 32123: a0 = u64 [s1 + 0x58]\n 32126: u64 [a2 + 0x80] = a0\n 32130: a0 = 0\n 32132: ra = 1374, jump @19\n      : @1302 [@dyn 687] (gas: 1)\n 32138: t0 = 1376, jump @1410\n      : @1303 [@dyn 688] (gas: 1)\n 32144: ra = 1378, jump @19\n      : @1304 [@dyn 689] (gas: 3)\n 32150: a2 = 0x20264\n 32155: a0 = i32 [0x20264]\n 32160: jump @1306 if a0 >u 63\n      : @1305 (gas: 2)\n 32164: u32 [0x20264] = 0x40\n 32170: fallthrough\n      : @1306 (gas: 13)\n 32171: u64 [s1 + 0x38] = a2\n 32174: a0 = sp + 0xffffffffffffffe0\n 32177: a2 = a0 & 0xffffffffffffffe0\n 32180: u64 [s1 + 0x30] = a2\n 32183: sp = a2\n 32185: a0 = 0x20270\n 32190: i32 a0 = a0 + 0\n 32192: i32 a2 = a2 + 0\n 32194: a1 = 0x40\n 32197: u64 [s1 + 0x40] = a0\n 32200: ra = 0x564\n 32204: ecalli 6 // 'hash_keccak_256'\n 32206: fallthrough\n      : @1307 [@dyn 690] (gas: 6)\n 32207: a3 = u64 [s1 + 0x30]\n 32210: a0 = u64 [a3 + 0x18]\n 32213: a1 = u64 [a3 + 0x10]\n 32216: a2 = u64 [a3 + 0x8]\n 32219: a3 = u64 [a3]\n 32221: t0 = 1382, jump @1377\n      : @1308 [@dyn 691] (gas: 7)\n 32227: u64 [s1 + 0x2b8] = a3\n 32231: u64 [s1 + 0x2b0] = a2\n 32235: u64 [s1 + 0x2a8] = a1\n 32239: u64 [s1 + 0x2a0] = a0\n 32243: a0 = s1 + 0x240\n 32247: a1 = s1 + 0x2a0\n 32251: ra = 1384, jump @21\n      : @1309 [@dyn 692] (gas: 28)\n 32257: a1 = s1 + 0x200\n 32261: a2 = u64 [a1 + 0x58]\n 32264: a0 = u64 [a1 + 0x50]\n 32267: a5 = u64 [a1 + 0x48]\n 32270: a4 = u64 [a1 + 0x40]\n 32273: a1 = u64 [s1 + 0x78]\n 32276: t1 = a2 ^ a1\n 32279: u64 [s1 + 0x20] = a2\n 32282: a1 = a2 <u a1\n 32285: a2 = u64 [s1 + 0x68]\n 32288: a3 = a0 <u a2\n 32291: u64 [s1 + 0x8] = a3\n 32294: a1 = a3 if t1 == 0\n 32297: a3 = u64 [s1 + 0x60]\n 32300: t0 = a5 ^ a3\n 32303: u64 [s1 + 0x28] = a5\n 32306: a5 = a5 <u a3\n 32309: a3 = u64 [s1 + 0x70]\n 32312: u64 [s1 + 0x30] = a4\n 32315: a3 = a4 <u a3\n 32318: u64 [s1 + 0x10] = a3\n 32321: a5 = a3 if t0 == 0\n 32324: u64 [s1 + 0x18] = a0\n 32327: a2 = a2 ^ a0\n 32330: a0 = a2 | t1\n 32333: u64 [s1] = a5\n 32335: a1 = a5 if a0 == 0\n 32338: jump @1331 if a1 != 0\n      : @1310 (gas: 11)\n 32342: u64 [s1 + 568] = 0\n 32346: a0 = u64 [s1 + 0x58]\n 32349: a2 = s1 + 0x200\n 32353: u64 [a2 + 0x20] = a0\n 32356: a0 = u64 [s1 + 0x50]\n 32359: u64 [a2 + 0x28] = a0\n 32362: a1 = s1 + 0x220\n 32366: a0 = u64 [s1 + 0x48]\n 32369: u64 [a2 + 0x30] = a0\n 32372: a0 = 0\n 32374: ra = 1386, jump @19\n      : @1311 [@dyn 693] (gas: 7)\n 32380: u64 [s1 + 536] = 0\n 32384: u64 [s1 + 528] = 0\n 32388: u64 [s1 + 520] = 0\n 32392: a0 = 0x20\n 32395: a1 = s1 + 0x200\n 32399: u64 [s1 + 512] = 0\n 32403: ra = 1388, jump @19\n      : @1312 [@dyn 694] (gas: 27)\n 32409: a0 = u64 [s1 + 0x68]\n 32412: a1 = u64 [s1 + 0x18]\n 32415: a0 = a1 - a0\n 32418: a2 = u64 [s1]\n 32420: a1 = a0 - a2\n 32423: u64 [s1 + 0x18] = a1\n 32426: a0 = a0 <u a2\n 32429: a1 = u64 [s1 + 0x78]\n 32432: a2 = u64 [s1 + 0x20]\n 32435: a1 = a2 - a1\n 32438: a2 = u64 [s1 + 0x8]\n 32441: a1 = a1 - a2\n 32444: a1 = a1 - a0\n 32447: u64 [s1 + 0x20] = a1\n 32450: a2 = u64 [s1 + 0x38]\n 32453: a0 = i32 [a2]\n 32455: a1 = u64 [s1 + 0x60]\n 32458: a3 = u64 [s1 + 0x28]\n 32461: a1 = a3 - a1\n 32464: a3 = u64 [s1 + 0x10]\n 32467: a1 = a1 - a3\n 32470: u64 [s1 + 0x28] = a1\n 32473: a3 = u64 [s1 + 0x70]\n 32476: a4 = u64 [s1 + 0x30]\n 32479: a4 = a4 - a3\n 32482: u64 [s1 + 0x30] = a4\n 32485: jump @1314 if a0 >u 63\n      : @1313 (gas: 2)\n 32489: u32 [a2 + 0] = 0x40\n 32492: fallthrough\n      : @1314 (gas: 10)\n 32493: a0 = sp + 0xffffffffffffffe0\n 32496: a0 = a0 & 0xffffffffffffffe0\n 32499: u64 [s1 + 0x38] = a0\n 32502: sp = a0\n 32504: i32 a2 = a0 + 0\n 32506: a1 = 0x40\n 32509: a0 = u64 [s1 + 0x40]\n 32512: ra = 0x56e\n 32516: ecalli 6 // 'hash_keccak_256'\n 32518: fallthrough\n      : @1315 [@dyn 695] (gas: 6)\n 32519: a3 = u64 [s1 + 0x38]\n 32522: a0 = u64 [a3 + 0x18]\n 32525: a1 = u64 [a3 + 0x10]\n 32528: a2 = u64 [a3 + 0x8]\n 32531: a3 = u64 [a3]\n 32533: t0 = 1392, jump @1377\n      : @1316 [@dyn 696] (gas: 16)\n 32539: a4 = s1 + 0x200\n 32543: u64 [a4 + 0xd8] = a3\n 32547: u64 [a4 + 0xd0] = a2\n 32551: u64 [a4 + 0xc8] = a1\n 32555: u64 [a4 + 0xc0] = a0\n 32559: a0 = u64 [s1 + 0x20]\n 32562: u64 [a4 + 0xf8] = a0\n 32566: a0 = u64 [s1 + 0x18]\n 32569: u64 [a4 + 0xf0] = a0\n 32573: a0 = u64 [s1 + 0x28]\n 32576: u64 [a4 + 0xe8] = a0\n 32580: a0 = u64 [s1 + 0x30]\n 32583: u64 [a4 + 0xe0] = a0\n 32587: a0 = s1 + 0x2c0\n 32591: a1 = s1 + 0x2e0\n 32595: ra = 1394, jump @24\n      : @1317 [@dyn 697] (gas: 7)\n 32601: u64 [s1 + 792] = 0\n 32605: u64 [s1 + 784] = 0\n 32609: u64 [s1 + 776] = 0\n 32613: u64 [s1 + 768] = 0x2\n 32618: a0 = s1 + 0x1e0\n 32622: a1 = s1 + 0x300\n 32626: ra = 1396, jump @21\n      : @1318 [@dyn 698] (gas: 34)\n 32632: a1 = u64 [s1 + 0x1e8]\n 32636: t0 = u64 [s1 + 0x1f8]\n 32640: t1 = u64 [s1 + 0x1e0]\n 32644: a3 = u64 [s1 + 0x1f0]\n 32648: a4 = u64 [s1 + 0x60]\n 32651: a0 = a1 ^ a4\n 32654: a5 = a1 <u a4\n 32657: ra = u64 [s1 + 0x70]\n 32660: t2 = t1 <u ra\n 32663: a5 = t2 if a0 == 0\n 32666: a0 = u64 [s1 + 0x68]\n 32669: a2 = a3 - a0\n 32672: a3 = a3 <u a0\n 32675: a0 = u64 [s1 + 0x78]\n 32678: a0 = t0 - a0\n 32681: a0 = a0 - a3\n 32684: a3 = a2 <u a5\n 32687: a0 = a0 - a3\n 32690: a3 = a2 - a5\n 32693: a1 = a1 - a4\n 32696: a1 = a1 - t2\n 32699: a4 = s1 + 0x300\n 32703: u64 [a4 + 32] = 0x2\n 32707: a2 = t1 - ra\n 32710: u64 [a4 + 0x40] = a2\n 32713: u64 [a4 + 0x48] = a1\n 32716: u64 [a4 + 0x50] = a3\n 32719: u64 [a4 + 0x58] = a0\n 32722: u64 [s1 + 824] = 0\n 32726: u64 [s1 + 816] = 0\n 32730: u64 [s1 + 808] = 0\n 32734: a0 = s1 + 0x320\n 32738: a1 = s1 + 0x340\n 32742: ra = 1398, jump @24\n      : @1319 [@dyn 699] (gas: 3)\n 32748: a0 = s1 + 0x1c0\n 32752: a1 = 0x40\n 32755: ra = 1400, jump @17\n      : @1320 [@dyn 700] (gas: 6)\n 32761: a4 = s1 + 0x100\n 32765: a3 = u64 [a4 + 0xd8]\n 32769: a1 = u64 [a4 + 0xd0]\n 32773: a2 = u64 [a4 + 0xc8]\n 32777: a0 = u64 [a4 + 0xc0]\n 32781: t0 = 1402, jump @1368\n      : @1321 [@dyn 701] (gas: 1)\n 32787: jump @1325 if a1 != 0\n      : @1322 (gas: 11)\n 32791: a1 = u64 [s1 + 0x70]\n 32794: u64 [s1 + 0x1a0] = a1\n 32798: a1 = u64 [s1 + 0x60]\n 32801: u64 [s1 + 0x1a8] = a1\n 32805: a1 = u64 [s1 + 0x68]\n 32808: u64 [s1 + 0x1b0] = a1\n 32812: a1 = s1 + 0x1a0\n 32816: a2 = u64 [s1 + 0x78]\n 32819: u64 [s1 + 0x1b8] = a2\n 32823: u64 [s1 + 0x78] = a0\n 32826: ra = 1404, jump @19\n      : @1323 [@dyn 702] (gas: 26)\n 32832: u64 [s1 + 344] = 0\n 32836: u64 [s1 + 336] = 0\n 32840: u64 [s1 + 328] = 0\n 32844: u64 [s1 + 320] = 0\n 32848: u64 [s1 + 376] = 0\n 32852: a0 = u64 [s1 + 0x48]\n 32855: a5 = s1 + 0x100\n 32859: u64 [a5 + 0x70] = a0\n 32862: a0 = u64 [s1 + 0x50]\n 32865: u64 [a5 + 0x68] = a0\n 32868: a0 = u64 [0x20240]\n 32873: a1 = u64 [0x20248]\n 32878: a2 = u64 [0x20250]\n 32883: a3 = u64 [s1 + 0x58]\n 32886: u64 [a5 + 0x60] = a3\n 32889: u64 [a5 + 0x98] = a0\n 32893: u64 [a5 + 0x90] = a1\n 32897: u64 [a5 + 0x88] = a2\n 32901: a0 = u64 [0x20258]\n 32906: a1 = 0x20\n 32909: a2 = s1 + 0x180\n 32913: a3 = s1 + 0x160\n 32917: a4 = s1 + 0x140\n 32921: u64 [a5 + 0x80] = a0\n 32925: a0 = u64 [s1 + 0x78]\n 32928: ra = 1406, jump @27\n      : @1324 [@dyn 703] (gas: 7)\n 32934: sp = s0 + 0xfffffffffffffc80\n 32938: a0 = sp + 0x300\n 32942: ra = u64 [a0 + 0x78]\n 32945: s0 = u64 [a0 + 0x70]\n 32948: s1 = u64 [a0 + 0x68]\n 32951: sp = sp + 0x380\n 32955: ret\n      : @1325 (gas: 1)\n 32957: trap\n      : @1326 (gas: 8)\n 32958: u64 [s1 + 176] = 0\n 32962: u64 [s1 + 168] = 0\n 32966: u64 [s1 + 160] = 0\n 32970: a0 = 0x96c6fd1e00000000\n 32980: a1 = s1 + 0xa0\n 32984: u64 [s1 + 0xb8] = a0\n 32988: a0 = 0\n 32990: ra = 1408, jump @19\n      : @1327 [@dyn 704] (gas: 7)\n 32996: u64 [s1 + 152] = 0\n 33000: u64 [s1 + 144] = 0\n 33004: u64 [s1 + 136] = 0\n 33008: a0 = 0x4\n 33011: a1 = s1 + 0x80\n 33015: u64 [s1 + 128] = 0\n 33019: ra = 1410, jump @19\n      : @1328 [@dyn 705] (gas: 2)\n 33025: a1 = i32 [0x20264]\n 33030: jump @1330 if a1 >u 63\n      : @1329 (gas: 2)\n 33034: u32 [0x20264] = 0x40\n 33040: fallthrough\n      : @1330 (gas: 6)\n 33041: a1 = 0x20270\n 33046: i32 a1 = a1 + 0\n 33048: a0 = 0x1\n 33051: a2 = 0x24\n 33054: ecalli 7 // 'seal_return'\n 33056: fallthrough\n      : @1331 (gas: 8)\n 33057: u64 [s1 + 304] = 0\n 33061: u64 [s1 + 296] = 0\n 33065: u64 [s1 + 288] = 0\n 33069: a0 = 0xe450d38c00000000\n 33079: a1 = s1 + 0x120\n 33083: u64 [s1 + 0x138] = a0\n 33087: a0 = 0\n 33089: ra = 1412, jump @19\n      : @1332 [@dyn 706] (gas: 11)\n 33095: u64 [s1 + 280] = 0\n 33099: a0 = u64 [s1 + 0x48]\n 33102: a3 = s1 + 0x100\n 33106: u64 [a3 + 0x10] = a0\n 33109: a0 = u64 [s1 + 0x50]\n 33112: u64 [a3 + 0x8] = a0\n 33115: a0 = 0x4\n 33118: a1 = s1 + 0x100\n 33122: a2 = u64 [s1 + 0x58]\n 33125: u64 [a3] = a2\n 33127: ra = 1414, jump @19\n      : @1333 [@dyn 707] (gas: 11)\n 33133: a0 = u64 [s1 + 0x20]\n 33136: u64 [s1 + 0xf8] = a0\n 33140: a0 = u64 [s1 + 0x18]\n 33143: u64 [s1 + 0xf0] = a0\n 33147: a0 = u64 [s1 + 0x28]\n 33150: u64 [s1 + 0xe8] = a0\n 33154: a0 = 0x24\n 33157: a1 = s1 + 0xe0\n 33161: a2 = u64 [s1 + 0x30]\n 33164: u64 [s1 + 0xe0] = a2\n 33168: ra = 1416, jump @19\n      : @1334 [@dyn 708] (gas: 11)\n 33174: a0 = u64 [s1 + 0x78]\n 33177: u64 [s1 + 0xd8] = a0\n 33181: a0 = u64 [s1 + 0x68]\n 33184: u64 [s1 + 0xd0] = a0\n 33188: a0 = u64 [s1 + 0x60]\n 33191: u64 [s1 + 0xc8] = a0\n 33195: a0 = 0x44\n 33198: a1 = s1 + 0xc0\n 33202: a2 = u64 [s1 + 0x70]\n 33205: u64 [s1 + 0xc0] = a2\n 33209: ra = 1418, jump @19\n      : @1335 [@dyn 709] (gas: 3)\n 33215: a0 = u64 [s1 + 0x38]\n 33218: a0 = i32 [a0]\n 33220: jump @1337 if a0 >u 127\n      : @1336 (gas: 3)\n 33224: a1 = u64 [s1 + 0x38]\n 33227: u32 [a1 + 0] = 0x80\n 33231: fallthrough\n      : @1337 (gas: 6)\n 33232: a0 = 0x1\n 33235: a2 = 0x64\n 33238: a1 = u64 [s1 + 0x40]\n 33241: ra = 0x58c\n 33245: ecalli 7 // 'seal_return'\n 33247: fallthrough\n      : @1338 [@dyn 710] (gas: 12)\n 33248: sp = sp + 0xffffffffffffff80\n 33251: u64 [sp + 0x78] = ra\n 33254: u64 [sp + 0x70] = s0\n 33257: s0 = sp + 0x80\n 33261: sp = sp & 0xffffffffffffffe0\n 33264: u64 [sp + 88] = 0\n 33267: u64 [sp + 80] = 0\n 33270: u64 [sp + 72] = 0\n 33273: u64 [sp + 64] = 0x5\n 33277: a0 = sp + 0x20\n 33280: a1 = sp + 0x40\n 33283: ra = 1422, jump @21\n      : @1339 [@dyn 711] (gas: 2)\n 33289: a0 = u8 [sp + 0x20]\n 33292: jump @1341 if a0 != 0\n      : @1340 (gas: 5)\n 33295: sp = s0 + 0xffffffffffffff80\n 33298: ra = u64 [sp + 0x78]\n 33301: s0 = u64 [sp + 0x70]\n 33304: sp = sp + 0x80\n 33308: ret\n      : @1341 (gas: 8)\n 33310: u64 [sp + 16] = 0\n 33313: u64 [sp + 8] = 0\n 33316: u64 [sp + 0] = 0\n 33318: a0 = 0xd93c066500000000\n 33328: a1 = sp\n 33330: u64 [sp + 0x18] = a0\n 33333: a0 = 0\n 33335: ra = 1424, jump @19\n      : @1342 [@dyn 712] (gas: 2)\n 33342: a1 = i32 [0x20264]\n 33347: jump @1344 if a1 >u 31\n      : @1343 (gas: 2)\n 33351: u32 [0x20264] = 0x20\n 33357: fallthrough\n      : @1344 (gas: 8)\n 33358: a1 = 0x20270\n 33363: i32 a1 = a1 + 0\n 33365: a0 = 0x1\n 33368: a2 = 0x4\n 33371: ecalli 7 // 'seal_return'\n 33373: a0 = 0\n 33375: ra = 0x592\n 33379: jump @39\n      : @1345 [export #0: 'call'] (gas: 2)\n 33382: a0 = 0\n 33384: ra = 1426, jump @39\n      : @1346 [@dyn 713] [export #1: 'deploy'] (gas: 2)\n 33390: a0 = 0x1\n 33393: ra = 1428, jump @39\n      : @1347 [@dyn 714] (gas: 16)\n 33399: a0 = u64 [a2 + 0x8]\n 33402: a1 = i32 [a2 + 0x10]\n 33405: a2 = u64 [a2]\n 33407: a0 = reverse a0\n 33409: a3 = a0 << 0x20\n 33412: a1 = reverse a1\n 33414: a1 = a1 >> 0x20\n 33417: a3 = a3 | a1\n 33420: a0 = a0 >> 0x20\n 33423: a1 = reverse a2\n 33425: a2 = a1 << 0x20\n 33428: a0 = a0 | a2\n 33431: a1 = a1 >> 0x20\n 33434: a2 = s1 + 0x7ff\n 33438: a2 = a2 + 0x39\n 33441: jump [t0]\n      : @1348 (gas: 30)\n 33443: a3 = u64 [s1 + 0x48]\n 33446: a0 = u64 [a3 + 0x18]\n 33449: a1 = u64 [a3 + 0x10]\n 33452: a2 = u64 [a3 + 0x8]\n 33455: a3 = u64 [a3]\n 33457: a0 = reverse a0\n 33459: u64 [s1 + 0x40] = a0\n 33462: a0 = reverse a1\n 33464: u64 [s1 + 0x38] = a0\n 33467: a0 = reverse a2\n 33469: u64 [s1 + 0x30] = a0\n 33472: a0 = reverse a3\n 33474: u64 [s1 + 0x28] = a0\n 33477: a0 = sp + 0xffffffffffffffe0\n 33480: a0 = a0 & 0xffffffffffffffe0\n 33483: u64 [s1 + 0x48] = a0\n 33486: sp = a0\n 33488: a0 = u64 [s1 + 0x50]\n 33491: a0 = a0 << 0x20\n 33494: a0 = a0 >> 0x20\n 33497: u64 [s1 + 504] = 0\n 33501: u64 [s1] = a0\n 33503: u64 [s1 + 0x1f0] = a0\n 33507: a0 = u64 [s1 + 0x70]\n 33510: u64 [s1 + 0x1e8] = a0\n 33514: a1 = s1 + 0x1e0\n 33518: a0 = u64 [s1 + 0x78]\n 33521: u64 [s1 + 0x1e0] = a0\n 33525: a0 = 0\n 33527: jump [t0]\n      : @1349 (gas: 27)\n 33529: a3 = u64 [s1 + 0x50]\n 33532: a0 = u64 [a3 + 0x18]\n 33535: a1 = u64 [a3 + 0x10]\n 33538: a2 = u64 [a3 + 0x8]\n 33541: a3 = u64 [a3]\n 33543: a0 = reverse a0\n 33545: u64 [s1 + 0x48] = a0\n 33548: a0 = reverse a1\n 33550: u64 [s1 + 0x40] = a0\n 33553: a0 = reverse a2\n 33555: u64 [s1 + 0x38] = a0\n 33558: a0 = reverse a3\n 33560: u64 [s1 + 0x30] = a0\n 33563: a0 = sp + 0xffffffffffffffe0\n 33566: a0 = a0 & 0xffffffffffffffe0\n 33569: u64 [s1 + 0x50] = a0\n 33572: sp = a0\n 33574: u64 [s1 + 344] = 0\n 33578: a0 = u64 [s1]\n 33580: u64 [s1 + 0x150] = a0\n 33584: a0 = u64 [s1 + 0x70]\n 33587: u64 [s1 + 0x148] = a0\n 33591: a1 = s1 + 0x140\n 33595: a0 = u64 [s1 + 0x78]\n 33598: u64 [s1 + 0x140] = a0\n 33602: a0 = 0\n 33604: jump [t0]\n      : @1350 (gas: 15)\n 33606: a2 = u64 [s1 + 0x138]\n 33610: a0 = u64 [a2 + 0x8]\n 33613: a1 = i32 [a2 + 0x10]\n 33616: a2 = u64 [a2]\n 33618: a0 = reverse a0\n 33620: a3 = a0 << 0x20\n 33623: a1 = reverse a1\n 33625: a1 = a1 >> 0x20\n 33628: a3 = a3 | a1\n 33631: a0 = a0 >> 0x20\n 33634: a1 = reverse a2\n 33636: a2 = a1 << 0x20\n 33639: a0 = a0 | a2\n 33642: a1 = a1 >> 0x20\n 33645: jump [t0]\n      : @1351 (gas: 24)\n 33647: a4 = u64 [s1 + 0x138]\n 33651: a2 = a4 <u 0x80\n 33655: a3 = u64 [s1 + 0xf0]\n 33659: a1 = a3 if a2 != 0\n 33662: a5 = u64 [s1 + 0xf8]\n 33666: a3 = u64 [s1 + 0x108]\n 33670: a3 = a3 | a5\n 33673: a3 = a0 if a2 == 0\n 33676: a1 = 0xffffffffffffffff if a4 == 0\n 33679: a3 = 0xffffffffffffffff if a4 == 0\n 33682: a4 = u64 [s1 + 0x100]\n 33686: a4 = 0 if a2 == 0\n 33688: a5 = 0 if a2 == 0\n 33690: a0 = u64 [s1 + 0x118]\n 33694: a0 = a0 & ~a3\n 33697: a2 = u64 [s1 + 0x120]\n 33701: a1 = a2 & ~a1\n 33704: a2 = u64 [s1 + 0x128]\n 33708: a2 = a2 & ~a5\n 33711: a3 = u64 [s1 + 0x130]\n 33715: a3 = a3 & ~a4\n 33718: a4 = s1 + 0x7ff\n 33722: a4 = a4 + 0xb9\n 33726: jump [t0]\n      : @1352 (gas: 8)\n 33728: a0 = u64 [a2 + 0x8]\n 33731: a1 = i32 [a2 + 0x10]\n 33734: a2 = u64 [a2]\n 33736: a3 = reverse a0\n 33738: a0 = a3 << 0x20\n 33741: a1 = reverse a1\n 33743: a1 = a1 >> 0x20\n 33746: jump [t0]\n      : @1353 (gas: 18)\n 33748: a3 = u64 [s1 + 0x28]\n 33751: a0 = u64 [a3 + 0x18]\n 33754: a1 = u64 [a3 + 0x10]\n 33757: a2 = u64 [a3 + 0x8]\n 33760: a3 = u64 [a3]\n 33762: a0 = reverse a0\n 33764: u64 [s1 + 0x20] = a0\n 33767: a0 = reverse a1\n 33769: u64 [s1 + 0x18] = a0\n 33772: a0 = reverse a2\n 33774: u64 [s1 + 0x10] = a0\n 33777: a0 = reverse a3\n 33779: u64 [s1 + 0x8] = a0\n 33782: a0 = sp + 0xffffffffffffffe0\n 33785: a0 = a0 & 0xffffffffffffffe0\n 33788: u64 [s1 + 0x28] = a0\n 33791: sp = a0\n 33793: jump [t0]\n      : @1354 (gas: 26)\n 33795: a3 = u64 [s1 + 0x80]\n 33799: a3 = a3 + 0x1\n 33802: a0 = a3 <u 0x1\n 33805: ra = u64 [s1 + 0x88]\n 33809: ra = ra + a0\n 33812: a0 = a3 | ra\n 33815: a0 = a0 <u 0x1\n 33818: a1 = u64 [s1 + 0x78]\n 33821: t2 = a1 + a0\n 33824: a1 = t2 <u a1\n 33827: a0 = u64 [s1 + 0x90]\n 33831: a0 = a0 + a1\n 33834: a1 = u64 [s1 + 0xb8]\n 33838: t1 = a1 + 0x20\n 33841: a2 = t1 <u a1\n 33844: a4 = u64 [s1 + 0xa0]\n 33848: a1 = a4 + a2\n 33851: a4 = a1 <u a4\n 33854: a4 = a2 if a2 == 0\n 33857: a2 = u64 [s1 + 0xa8]\n 33861: a4 = a4 + a2\n 33864: a2 = a4 <u a2\n 33867: a5 = u64 [s1 + 0xb0]\n 33871: a5 = a5 + a2\n 33874: u64 [s1 + 0xb0] = a5\n 33878: jump [t0]\n      : @1355 (gas: 16)\n 33880: a3 = u64 [s1 + 0x50]\n 33883: a0 = u64 [a3 + 0x18]\n 33886: a1 = u64 [a3 + 0x10]\n 33889: a2 = u64 [a3 + 0x8]\n 33892: a3 = u64 [a3]\n 33894: a0 = reverse a0\n 33896: a4 = reverse a1\n 33898: a2 = reverse a2\n 33900: a3 = reverse a3\n 33902: a1 = u64 [s1 + 0x48]\n 33905: u64 [a1 + 0x18] = a3\n 33908: u64 [a1 + 0x10] = a2\n 33911: u64 [a1 + 0x8] = a4\n 33914: u64 [a1] = a0\n 33916: a0 = s1 + 0x1a0\n 33920: jump [t0]\n      : @1356 (gas: 9)\n 33922: a0 = u64 [a3 + 0x18]\n 33925: a1 = u64 [a3 + 0x10]\n 33928: a2 = u64 [a3 + 0x8]\n 33931: a3 = u64 [a3]\n 33933: a0 = reverse a0\n 33935: a4 = reverse a1\n 33937: a2 = reverse a2\n 33939: a3 = reverse a3\n 33941: jump [t0]\n      : @1357 (gas: 16)\n 33943: a3 = u64 [s1 + 0x68]\n 33946: a0 = u64 [a3 + 0x18]\n 33949: a1 = u64 [a3 + 0x10]\n 33952: a2 = u64 [a3 + 0x8]\n 33955: a3 = u64 [a3]\n 33957: a0 = reverse a0\n 33959: a4 = reverse a1\n 33961: a2 = reverse a2\n 33963: a3 = reverse a3\n 33965: a1 = u64 [s1 + 0x50]\n 33968: u64 [a1 + 0x18] = a3\n 33971: u64 [a1 + 0x10] = a2\n 33974: u64 [a1 + 0x8] = a4\n 33977: u64 [a1] = a0\n 33979: a0 = s1 + 0x100\n 33983: jump [t0]\n      : @1358 (gas: 8)\n 33985: a0 = sp + 0xffffffffffffffe0\n 33988: a0 = a0 & 0xffffffffffffffe0\n 33991: u64 [s1 + 0x50] = a0\n 33994: sp = a0\n 33996: i32 a2 = a0 + 0\n 33998: a1 = 0x40\n 34001: a0 = u64 [s1 + 0x60]\n 34004: jump [t0]\n      : @1359 (gas: 15)\n 34006: a4 = s1 + 0x100\n 34010: a0 = u64 [a4]\n 34012: a1 = u64 [a4 + 0x8]\n 34015: a2 = u64 [a4 + 0x18]\n 34018: a3 = u64 [a4 + 0x10]\n 34021: a0 = a0 & 0xffffffffffffff00\n 34025: a0 = a0 | 0x1\n 34028: a4 = s1 + 0x200\n 34032: u64 [a4 + 0x58] = a2\n 34035: u64 [a4 + 0x50] = a3\n 34038: u64 [a4 + 0x48] = a1\n 34041: u64 [a4 + 0x40] = a0\n 34044: a1 = s1 + 0x240\n 34048: a0 = u64 [s1 + 0x50]\n 34051: jump [t0]\n      : @1360 (gas: 11)\n 34053: u64 [a2] = a1\n 34055: u64 [a2 + 0x8] = a0\n 34058: u64 [a2 + 0x10] = a0\n 34061: u64 [a2 + 0x18] = a0\n 34064: sp = s0 + 0xfffffffffffffd80\n 34068: a0 = sp + 0x200\n 34072: ra = u64 [a0 + 0x78]\n 34075: s0 = u64 [a0 + 0x70]\n 34078: s1 = u64 [a0 + 0x68]\n 34081: sp = sp + 0x280\n 34085: jump [t0]\n      : @1361 (gas: 7)\n 34087: u64 [s1 + 376] = 0\n 34091: u64 [s1 + 368] = 0\n 34095: u64 [s1 + 352] = 0x6\n 34100: a0 = 0x20\n 34103: a1 = s1 + 0x160\n 34107: u64 [s1 + 360] = 0\n 34111: jump [t0]\n      : @1362 (gas: 7)\n 34113: u64 [s1 + 536] = 0\n 34117: u64 [s1 + 528] = 0\n 34121: u64 [s1 + 512] = 0x6\n 34126: a0 = 0x20\n 34129: a1 = s1 + 0x200\n 34133: u64 [s1 + 520] = 0\n 34137: jump [t0]\n      : @1363 (gas: 21)\n 34139: a2 = u64 [s1 + 0x68]\n 34142: a0 = u64 [a2 + 0x8]\n 34145: a1 = i32 [a2 + 0x10]\n 34148: a2 = u64 [a2]\n 34150: a0 = reverse a0\n 34152: a3 = a0 << 0x20\n 34155: a1 = reverse a1\n 34157: a1 = a1 >> 0x20\n 34160: a3 = a3 | a1\n 34163: a0 = a0 >> 0x20\n 34166: a1 = reverse a2\n 34168: a2 = a1 << 0x20\n 34171: a0 = a0 | a2\n 34174: a1 = a1 >> 0x20\n 34177: u64 [s1 + 312] = 0\n 34181: u64 [s1 + 0x130] = a1\n 34185: u64 [s1 + 0x128] = a0\n 34189: a1 = s1 + 0x120\n 34193: u64 [s1 + 0x120] = a3\n 34197: a0 = 0\n 34199: jump [t0]\n      : @1364 (gas: 14)\n 34201: a0 = u64 [a3 + 0x18]\n 34204: a1 = u64 [a3 + 0x10]\n 34207: a2 = u64 [a3 + 0x8]\n 34210: a3 = u64 [a3]\n 34212: a0 = reverse a0\n 34214: a4 = reverse a1\n 34216: a2 = reverse a2\n 34218: a3 = reverse a3\n 34220: a1 = u64 [s1 + 0x28]\n 34223: u64 [a1 + 0x18] = a3\n 34226: u64 [a1 + 0x10] = a2\n 34229: u64 [a1 + 0x8] = a4\n 34232: u64 [a1] = a0\n 34234: jump [t0]\n      : @1365 (gas: 5)\n 34236: sp = a0\n 34238: i32 a2 = a0 + 0\n 34240: a1 = 0x40\n 34243: a0 = u64 [s1 + 0x60]\n 34246: jump [t0]\n      : @1366 (gas: 19)\n 34248: u64 [s1 + 0x90] = ra\n 34252: a0 = u64 [s1 + 0x70]\n 34255: a1 = u64 [s1 + 0xb8]\n 34259: a0 = a1 <u a0\n 34262: a2 = u64 [s1 + 0x60]\n 34265: a1 = t2 ^ a2\n 34268: a2 = t2 <u a2\n 34271: a2 = a0 if a1 == 0\n 34274: a4 = u64 [s1 + 0x68]\n 34277: a0 = t1 <u a4\n 34280: a3 = u64 [s1 + 0x58]\n 34283: a1 = u64 [s1 + 0xb0]\n 34287: a5 = a1 ^ a3\n 34290: a3 = a1 <u a3\n 34293: a3 = a0 if a5 == 0\n 34296: a0 = t1 ^ a4\n 34299: a0 = a0 | a5\n 34302: a3 = a2 if a0 == 0\n 34305: jump [t0]\n      : @1367 (gas: 8)\n 34307: a4 = a4 | a2\n 34310: a2 = a0 | a1\n 34313: a2 = a2 | a4\n 34316: a2 = a2 >> 0x20\n 34319: a1 = a1 | a4\n 34322: a1 = a1 << 0x20\n 34325: a1 = a1 | a2\n 34328: jump [t0]\n      : @1368 (gas: 8)\n 34330: a3 = a3 | a2\n 34333: a2 = a0 | a1\n 34336: a2 = a2 | a3\n 34339: a2 = a2 >> 0x20\n 34342: a1 = a1 | a3\n 34345: a1 = a1 << 0x20\n 34348: a1 = a1 | a2\n 34351: jump [t0]\n      : @1369 (gas: 21)\n 34353: a2 = u64 [s1 + 0x68]\n 34356: a0 = u64 [a2 + 0x8]\n 34359: a1 = i32 [a2 + 0x10]\n 34362: a2 = u64 [a2]\n 34364: a0 = reverse a0\n 34366: a3 = a0 << 0x20\n 34369: a1 = reverse a1\n 34371: a1 = a1 >> 0x20\n 34374: a3 = a3 | a1\n 34377: a0 = a0 >> 0x20\n 34380: a1 = reverse a2\n 34382: a2 = a1 << 0x20\n 34385: a0 = a0 | a2\n 34388: a1 = a1 >> 0x20\n 34391: u64 [s1 + 184] = 0\n 34395: u64 [s1 + 0xb0] = a1\n 34399: u64 [s1 + 0xa8] = a0\n 34403: a0 = 0x4\n 34406: a1 = s1 + 0xa0\n 34410: u64 [s1 + 0xa0] = a3\n 34414: jump [t0]\n      : @1370 (gas: 15)\n 34416: t2 = u64 [s1 + 0xb8]\n 34420: t1 = u64 [s1 + 0xa0]\n 34424: ra = u64 [s1 + 0xa8]\n 34428: a1 = u64 [s1 + 0x50]\n 34431: a0 = a1 + t2\n 34434: a1 = a0 <u a1\n 34437: a4 = u64 [s1 + 0x48]\n 34440: a2 = a4 + t1\n 34443: a2 = a2 + a1\n 34446: a5 = a2 ^ a4\n 34449: a4 = a2 <u a4\n 34452: a4 = a1 if a5 == 0\n 34455: a5 = u64 [s1 + 0x40]\n 34458: a1 = a5 + ra\n 34461: jump [t0]\n      : @1371 (gas: 12)\n 34463: a0 = u64 [s1 + 0x28]\n 34466: a3 = s1 + 0x100\n 34470: u64 [a3 + 0xd8] = a0\n 34474: a0 = u64 [s1 + 0x30]\n 34477: u64 [a3 + 0xd0] = a0\n 34481: a0 = u64 [s1 + 0x38]\n 34484: u64 [a3 + 0xc8] = a0\n 34488: a0 = 0x20\n 34491: a1 = s1 + 0x1c0\n 34495: a2 = u64 [s1 + 0x40]\n 34498: u64 [a3 + 0xc0] = a2\n 34502: jump [t0]\n      : @1372 (gas: 12)\n 34504: a0 = u64 [s1 + 0x30]\n 34507: a3 = s1 + 0x100\n 34511: u64 [a3 + 0x38] = a0\n 34514: a0 = u64 [s1 + 0x38]\n 34517: u64 [a3 + 0x30] = a0\n 34520: a0 = u64 [s1 + 0x40]\n 34523: u64 [a3 + 0x28] = a0\n 34526: a0 = 0x20\n 34529: a1 = s1 + 0x120\n 34533: a2 = u64 [s1 + 0x48]\n 34536: u64 [a3 + 0x20] = a2\n 34539: jump [t0]\n      : @1373 (gas: 7)\n 34541: u64 [s1 + 344] = 0\n 34545: u64 [s1 + 336] = 0\n 34549: u64 [s1 + 320] = 0x6\n 34554: a0 = 0x20\n 34557: a1 = s1 + 0x140\n 34561: u64 [s1 + 328] = 0\n 34565: jump [t0]\n      : @1374 (gas: 18)\n 34567: a3 = u64 [s1 + 0x68]\n 34570: a0 = u64 [a3 + 0x18]\n 34573: a1 = u64 [a3 + 0x10]\n 34576: a2 = u64 [a3 + 0x8]\n 34579: a3 = u64 [a3]\n 34581: a0 = reverse a0\n 34583: u64 [s1 + 0x58] = a0\n 34586: a0 = reverse a1\n 34588: u64 [s1 + 0x50] = a0\n 34591: a0 = reverse a2\n 34593: u64 [s1 + 0x48] = a0\n 34596: a0 = reverse a3\n 34598: u64 [s1 + 0x40] = a0\n 34601: a0 = sp + 0xffffffffffffffe0\n 34604: a0 = a0 & 0xffffffffffffffe0\n 34607: u64 [s1 + 0x60] = a0\n 34610: sp = a0\n 34612: jump [t0]\n      : @1375 (gas: 17)\n 34614: a0 = u64 [a3 + 0x18]\n 34617: a1 = u64 [a3 + 0x10]\n 34620: a2 = u64 [a3 + 0x8]\n 34623: a3 = u64 [a3]\n 34625: a0 = reverse a0\n 34627: u64 [s1 + 0x60] = a0\n 34630: a0 = reverse a1\n 34632: u64 [s1 + 0x58] = a0\n 34635: a0 = reverse a2\n 34637: u64 [s1 + 0x50] = a0\n 34640: a0 = reverse a3\n 34642: u64 [s1 + 0x48] = a0\n 34645: a0 = sp + 0xffffffffffffffe0\n 34648: a0 = a0 & 0xffffffffffffffe0\n 34651: u64 [s1 + 0x68] = a0\n 34654: sp = a0\n 34656: jump [t0]\n      : @1376 (gas: 16)\n 34658: a3 = u64 [s1 + 0x58]\n 34661: a0 = u64 [a3 + 0x18]\n 34664: a1 = u64 [a3 + 0x10]\n 34667: a2 = u64 [a3 + 0x8]\n 34670: a3 = u64 [a3]\n 34672: a0 = reverse a0\n 34674: a4 = reverse a1\n 34676: a2 = reverse a2\n 34678: a3 = reverse a3\n 34680: a1 = u64 [s1 + 0x60]\n 34683: u64 [a1 + 0x18] = a3\n 34686: u64 [a1 + 0x10] = a2\n 34689: u64 [a1 + 0x8] = a4\n 34692: u64 [a1] = a0\n 34694: a0 = s1 + 0xe0\n 34698: jump [t0]\n      : @1377 (gas: 5)\n 34700: a0 = reverse a0\n 34702: a1 = reverse a1\n 34704: a2 = reverse a2\n 34706: a3 = reverse a3\n 34708: jump [t0]\n      : @1378 (gas: 4)\n 34710: a0 = 0x1038\n 34714: a3 = s1 + a0\n 34717: a4 = a3 + 0x600\n 34721: jump [t0]\n      : @1379 (gas: 15)\n 34723: a2 = u64 [s1 + 0x78]\n 34726: a0 = u64 [a2 + 0x8]\n 34729: a1 = i32 [a2 + 0x10]\n 34732: a2 = u64 [a2]\n 34734: a0 = reverse a0\n 34736: a3 = a0 << 0x20\n 34739: a1 = reverse a1\n 34741: a1 = a1 >> 0x20\n 34744: a1 = a1 | a3\n 34747: a0 = a0 >> 0x20\n 34750: a2 = reverse a2\n 34752: a3 = a2 << 0x20\n 34755: a0 = a0 | a3\n 34758: a2 = a2 >> 0x20\n 34761: jump [t0]\n      : @1380 (gas: 16)\n 34763: sp = sp + 0xfffffffffffffd80\n 34767: a2 = sp + 0x200\n 34771: u64 [a2 + 0x78] = ra\n 34774: u64 [a2 + 0x70] = s0\n 34777: u64 [a2 + 0x68] = s1\n 34780: s0 = sp + 0x280\n 34784: sp = sp & 0xffffffffffffffe0\n 34787: s1 = sp\n 34789: a2 = u64 [a1 + 0x10]\n 34792: u64 [s1 + 0x50] = a2\n 34795: a2 = u64 [a1 + 0x8]\n 34798: u64 [s1 + 0x70] = a2\n 34801: a1 = u64 [a1]\n 34803: u64 [s1 + 0x78] = a1\n 34806: u64 [s1 + 0x58] = a0\n 34809: jump [t0]\n      : @1381 (gas: 10)\n 34811: a4 = 0 if a2 == 0\n 34813: a1 = u64 [s1 + 0x118]\n 34817: a1 = a1 & ~a3\n 34820: a2 = u64 [s1 + 0x120]\n 34824: a0 = a2 & ~a0\n 34827: a2 = u64 [s1 + 0x128]\n 34831: a2 = a2 & ~a4\n 34834: a3 = u64 [s1 + 0x130]\n 34838: a3 = a3 & ~a5\n 34841: jump [t0]\n      : @1382 (gas: 13)\n 34843: a4 = a0 << 0x3f\n 34846: a5 = a1 >> 0x1\n 34849: t1 = a5 | a4\n 34852: a5 = a3 << 0x3f\n 34855: a0 = a0 >> 0x1\n 34858: a0 = a0 | a5\n 34861: a1 = a1 << 0x3f\n 34864: a5 = a2 >> 0x1\n 34867: a1 = a1 | a5\n 34870: a3 = a3 >> 0x1\n 34873: a2 = a2 & 0x1\n 34876: a5 = -a2\n 34878: jump [t0]\n      : @1383 (gas: 14)\n 34880: a0 = u64 [a3 + 0x18]\n 34883: a1 = u64 [a3 + 0x10]\n 34886: a2 = u64 [a3 + 0x8]\n 34889: a3 = u64 [a3]\n 34891: a0 = reverse a0\n 34893: a4 = reverse a1\n 34895: a2 = reverse a2\n 34897: a3 = reverse a3\n 34899: a1 = u64 [s1 + 0x68]\n 34902: u64 [a1 + 0x18] = a3\n 34905: u64 [a1 + 0x10] = a2\n 34908: u64 [a1 + 0x8] = a4\n 34911: u64 [a1] = a0\n 34913: jump [t0]\n      : @1384 (gas: 4)\n 34915: a0 = 0x1838\n 34919: a3 = s1 + a0\n 34922: a4 = a3 + 0x200\n 34926: jump [t0]\n      : @1385 (gas: 8)\n 34928: a0 = u64 [a4 + 0x18]\n 34931: a1 = u64 [a4 + 0x20]\n 34934: a2 = u64 [a4 + 0x10]\n 34937: a3 = u64 [a4 + 0x8]\n 34940: a1 = a1 | a2\n 34943: a0 = a0 | a3\n 34946: a0 = a0 | a1\n 34949: jump [t0]\n      : @1386 (gas: 10)\n 34951: a2 = a0 if a1 == 0\n 34954: a0 = u64 [s1 + 0x28]\n 34957: t2 = a4 <u a0\n 34960: a1 = a5 ^ t1\n 34963: a3 = a5 <u t1\n 34966: a3 = t2 if a1 == 0\n 34969: a0 = a0 ^ a4\n 34972: a0 = a0 | a1\n 34975: a3 = a2 if a0 == 0\n 34978: jump [t0]\n      : @1387 (gas: 11)\n 34980: a0 = u64 [s1 + 0x20]\n 34983: u64 [s1 + 0x198] = a0\n 34987: a0 = u64 [s1 + 0x18]\n 34990: u64 [s1 + 0x190] = a0\n 34994: a0 = u64 [s1 + 0x10]\n 34997: u64 [s1 + 0x188] = a0\n 35001: a1 = s1 + 0x180\n 35005: a0 = u64 [s1 + 0x8]\n 35008: u64 [s1 + 0x180] = a0\n 35012: a0 = 0\n 35014: jump [t0]\n      : @1388 (gas: 10)\n 35016: a1 = u64 [s1 + 0xb8]\n 35020: a0 = a1 + 0x3f\n 35023: a1 = a0 <u a1\n 35026: a2 = t2 + a1\n 35029: a0 = a0 & 0xffffffffffffffe0\n 35032: ra = u64 [s1 + 0x30]\n 35035: ra = ra + a0\n 35038: u64 [s1 + 0xb8] = ra\n 35042: a0 = ra <u a0\n 35045: jump [t0]\n      : @1389 (gas: 8)\n 35047: u64 [s1 + 208] = 0\n 35051: u64 [s1 + 200] = 0\n 35055: u64 [s1 + 192] = 0\n 35059: a0 = 0xe2517d3f00000000\n 35069: a1 = s1 + 0xc0\n 35073: u64 [s1 + 0xd8] = a0\n 35077: a0 = 0\n 35079: jump [t0]\n      : @1390 (gas: 16)\n 35081: a4 = u64 [a3]\n 35083: u64 [sp + 0x18] = a4\n 35086: a4 = u64 [a3 + 0x8]\n 35089: u64 [sp + 0x20] = a4\n 35092: a4 = u64 [a3 + 0x10]\n 35095: u64 [sp + 0x28] = a4\n 35098: a3 = u64 [a3 + 0x18]\n 35101: u64 [sp + 0x30] = a3\n 35104: s1 = u64 [a2]\n 35106: a3 = u64 [a2 + 0x8]\n 35109: u64 [sp] = a3\n 35111: a3 = u64 [a2 + 0x10]\n 35114: u64 [sp + 0x8] = a3\n 35117: a2 = u64 [a2 + 0x18]\n 35120: u64 [sp + 0x10] = a2\n 35123: jump [t0]\n      : @1391 (gas: 8)\n 35125: a2 = a4 >u 0\n 35127: a1 = a1 ^ 0x1\n 35130: a1 = a2 if a4 != 0\n 35133: a2 = t2 >u 0\n 35135: a3 = a5 >u 0\n 35137: a3 = a2 if a5 == 0\n 35140: a3 = a1 if a0 == 0\n 35143: jump [t0]\n      : @1392 (gas: 12)\n 35145: a0 = u64 [s1 + 0x40]\n 35148: a3 = s1 + 0x100\n 35152: u64 [a3 + 0x18] = a0\n 35155: a0 = u64 [s1 + 0x48]\n 35158: u64 [a3 + 0x10] = a0\n 35161: a0 = u64 [s1 + 0x50]\n 35164: u64 [a3 + 0x8] = a0\n 35167: a0 = 0x20\n 35170: a1 = s1 + 0x100\n 35174: a2 = u64 [s1 + 0x58]\n 35177: u64 [a3] = a2\n 35179: jump [t0]\n      : @1393 (gas: 10)\n 35181: a0 = u64 [sp + 0x10]\n 35184: a1 = u64 [sp + 0x18]\n 35187: a2 = 0x100000000\n 35197: a2 = a2 ^ a0\n 35200: a2 = a2 | a1\n 35203: a3 = a0 >> 0x20\n 35206: a3 = a3 <u 0x1\n 35209: a3 = 0 if a1 != 0\n 35211: a3 = 0 if a2 == 0\n 35213: jump [t0]\n      : @1394 (gas: 10)\n 35215: a0 = u64 [s1 + 0x28]\n 35218: a1 = u64 [s1 + 0x18]\n 35221: a0 = a0 | a1\n 35224: a1 = 0xffffffe0\n 35234: a3 = u64 [s1 + 0x30]\n 35237: a1 = a3 <u a1\n 35240: a2 = u64 [s1 + 0x20]\n 35243: a1 = 0 if a2 != 0\n 35245: a1 = 0 if a0 != 0\n 35247: jump [t0]\n      : @1395 (gas: 10)\n 35249: a0 = u64 [a3 + 0x18]\n 35252: a1 = u64 [a3 + 0x10]\n 35255: a2 = u64 [a3 + 0x8]\n 35258: a3 = u64 [a3]\n 35260: a0 = reverse a0\n 35262: a1 = reverse a1\n 35264: a2 = reverse a2\n 35266: a3 = reverse a3\n 35268: a4 = s1 + 0x300\n 35272: jump [t0]\n      : @1396 (gas: 8)\n 35274: a0 = u64 [a4 + 0x58]\n 35277: a1 = u64 [a4 + 0x60]\n 35280: a2 = u64 [a4 + 0x50]\n 35283: a3 = u64 [a4 + 0x48]\n 35286: a1 = a1 | a2\n 35289: a0 = a0 | a3\n 35292: a0 = a0 | a1\n 35295: jump [t0]\n      : @1397 (gas: 4)\n 35297: a0 = 0x1838\n 35301: a3 = s1 + a0\n 35304: a4 = a3 + 0x100\n 35308: jump [t0]\n      : @1398 (gas: 10)\n 35310: u64 [s1 + 296] = 0\n 35314: a4 = 0\n 35316: ra = 0\n 35318: u64 [s1 + 280] = 0\n 35322: u64 [s1 + 288] = 0\n 35326: a3 = u64 [s1 + 0x108]\n 35330: a0 = u64 [a3 + 0x18]\n 35333: a1 = u64 [a3 + 0x10]\n 35336: a2 = u64 [a3 + 0x8]\n 35339: jump [t0]\n      : @1399 (gas: 11)\n 35341: a4 = a4 + a1\n 35344: a1 = a4 <u a1\n 35347: a1 = a1 + a5\n 35350: a1 = a1 | a2\n 35353: a2 = a0 | a4\n 35356: a2 = a2 | a1\n 35359: a1 = a1 | a4\n 35362: a2 = a2 >> 0x20\n 35365: a1 = a1 << 0x20\n 35368: a1 = a1 | a2\n 35371: jump [t0]\n      : @1400 (gas: 10)\n 35373: u64 [s1 + 0xf8] = a0\n 35377: u64 [s1 + 0x100] = a1\n 35381: a0 = u64 [s1 + 0xf0]\n 35385: a0 = a0 | a1\n 35388: u64 [s1 + 0xf0] = a0\n 35392: a0 = u64 [s1 + 0x138]\n 35396: a2 = a0 + 0xffffffffffffff80\n 35399: a0 = 0xffffffffffffffff\n 35402: a1 = 0xffffffffffffffff\n 35405: jump [t0]\n      : @1401 (gas: 9)\n 35407: u64 [s1 + 0x18] = a1\n 35410: u64 [s1 + 0x230] = a1\n 35414: u64 [s1 + 0x10] = a2\n 35417: u64 [s1 + 0x228] = a2\n 35421: a1 = s1 + 0x220\n 35425: u64 [s1 + 0x8] = a0\n 35428: u64 [s1 + 0x220] = a0\n 35432: a0 = 0\n 35434: jump [t0]\n      : @1402 (gas: 10)\n 35436: sp = sp + 0xfffffffffffffd80\n 35440: a3 = sp + 0x200\n 35444: u64 [a3 + 0x78] = ra\n 35447: u64 [a3 + 0x70] = s0\n 35450: u64 [a3 + 0x68] = s1\n 35453: s0 = sp + 0x280\n 35457: sp = sp & 0xffffffffffffffe0\n 35460: s1 = sp\n 35462: a3 = u64 [a2 + 0x10]\n 35465: jump [t0]\n      : @1403 (gas: 8)\n 35467: a2 = a1 | a5\n 35470: a0 = a0 | a3\n 35473: a2 = a2 | a0\n 35476: a2 = a2 >> 0x20\n 35479: a0 = a0 | a5\n 35482: a0 = a0 << 0x20\n 35485: a0 = a0 | a2\n 35488: jump [t0]\n      : @1404 (gas: 13)\n 35490: a0 = u64 [s1 + 0xb0]\n 35494: a1 = u64 [s1 + 0xa0]\n 35498: a0 = a0 | a1\n 35501: a1 = u64 [s1 + 0xb8]\n 35505: a4 = a1\n 35507: a2 = u64 [s1 + 0xa8]\n 35511: a1 = a1 | a2\n 35514: a1 = a1 | a0\n 35517: a1 = a1 >> 0x20\n 35520: a0 = a0 | a2\n 35523: a0 = a0 << 0x20\n 35526: a0 = a0 | a1\n 35529: jump [t0]\n      : @1405 (gas: 6)\n 35531: a0 = u64 [a3 + 0x18]\n 35534: a1 = u64 [a3 + 0x10]\n 35537: a2 = u64 [a3 + 0x8]\n 35540: a3 = u64 [a3]\n 35542: a0 = reverse a0\n 35544: jump [t0]\n      : @1406 (gas: 5)\n 35546: sp = a0\n 35548: i32 a2 = a0 + 0\n 35550: a1 = 0x40\n 35553: a0 = u64 [s1 + 0xb8]\n 35557: jump [t0]\n      : @1407 (gas: 12)\n 35559: a2 = u64 [sp]\n 35561: a3 = u64 [sp + 0x8]\n 35564: u64 [s1] = a2\n 35566: u64 [s1 + 0x8] = a3\n 35569: u64 [s1 + 0x10] = a0\n 35572: u64 [s1 + 0x18] = a1\n 35575: sp = s0 + 0xffffffffffffffc0\n 35578: ra = u64 [sp + 0x38]\n 35581: s0 = u64 [sp + 0x30]\n 35584: s1 = u64 [sp + 0x28]\n 35587: sp = sp + 0x40\n 35590: jump [t0]\n      : @1408 (gas: 12)\n 35592: a0 = u64 [a5 + 0xa0]\n 35596: a1 = u64 [a5 + 0x98]\n 35600: a2 = u64 [a5 + 0x90]\n 35604: a4 = u64 [a5 + 0x88]\n 35608: a0 = a0 | a2\n 35611: a2 = a4 | a1\n 35614: a2 = a2 | a0\n 35617: a2 = a2 >> 0x20\n 35620: a0 = a0 | a1\n 35623: a0 = a0 << 0x20\n 35626: a0 = a0 | a2\n 35629: jump [t0]\n      : @1409 (gas: 8)\n 35631: a0 = a0 | a2\n 35634: a2 = a3 | a1\n 35637: a2 = a2 | a0\n 35640: a2 = a2 >> 0x20\n 35643: a0 = a0 | a1\n 35646: a0 = a0 << 0x20\n 35649: a0 = a0 | a2\n 35652: jump [t0]\n      : @1410 (gas: 7)\n 35654: u64 [s1 + 632] = 0\n 35658: u64 [s1 + 624] = 0\n 35662: u64 [s1 + 616] = 0\n 35666: a0 = 0x20\n 35669: a1 = s1 + 0x260\n 35673: u64 [s1 + 608] = 0\n 35677: jump [t0]\n      : @1411 (gas: 7)\n 35679: a0 = a0 << 0x3b\n 35682: a1 = a0 >> 0x38\n 35685: u64 [s1 + 0x138] = a1\n 35689: a2 = 0x80 - a1\n 35693: a0 = 0xffffffffffffffff\n 35696: a1 = 0xffffffffffffffff\n 35699: jump [t0]\n      : @1412 (gas: 8)\n 35701: a1 = sp + 0xffffffffffffffe0\n 35704: a1 = a1 & 0xffffffffffffffe0\n 35707: u64 [s1 + 0x108] = a1\n 35711: sp = a1\n 35713: i32 a0 = a0 + 0\n 35715: i32 a2 = a1 + 0\n 35717: a1 = 0x20\n 35720: jump [t0]\n      : @1413 (gas: 8)\n 35722: a0 = sp + 0xffffffffffffffe0\n 35725: a0 = a0 & 0xffffffffffffffe0\n 35728: u64 [s1 + 0x30] = a0\n 35731: sp = a0\n 35733: i32 a2 = a0 + 0\n 35735: a1 = 0x40\n 35738: a0 = u64 [s1 + 0x40]\n 35741: jump [t0]\n      : @1414 (gas: 8)\n 35743: a0 = sp + 0xffffffffffffffe0\n 35746: a0 = a0 & 0xffffffffffffffe0\n 35749: u64 [s1 + 0x58] = a0\n 35752: sp = a0\n 35754: i32 a2 = a0 + 0\n 35756: a1 = 0x40\n 35759: a0 = u64 [s1 + 0x70]\n 35762: jump [t0]\n      : @1415 (gas: 9)\n 35764: a0 = sp + 0xffffffffffffffe0\n 35767: a4 = a0 & 0xffffffffffffffe0\n 35770: sp = a4\n 35772: a0 = 0\n 35774: u64 [s1 + 184] = 0\n 35778: t2 = 0\n 35780: t1 = 0\n 35782: u64 [s1 + 176] = 0\n 35786: jump [t0]\n      : @1416 (gas: 8)\n 35788: a0 = u64 [a4 + 0xd8]\n 35792: a1 = u64 [a4 + 0xe0]\n 35796: a2 = u64 [a4 + 0xd0]\n 35800: a3 = u64 [a4 + 0xc8]\n 35804: a1 = a1 | a2\n 35807: a0 = a0 | a3\n 35810: a0 = a0 | a1\n 35813: jump [t0]\n      : @1417 (gas: 9)\n 35815: sp = sp + 0xffffffffffffffc0\n 35818: u64 [sp + 0x38] = ra\n 35821: u64 [sp + 0x30] = s0\n 35824: u64 [sp + 0x28] = s1\n 35827: s0 = sp + 0x40\n 35830: sp = sp & 0xffffffffffffffe0\n 35833: s1 = a0\n 35835: i32 a0 = sp + 0\n 35837: jump [t0]\n      : @1418 (gas: 8)\n 35839: a0 = a0 + a4\n 35842: a3 = a3 + a1\n 35845: a5 = a3 <u a1\n 35848: a0 = a0 + a5\n 35851: ra = u64 [s1 + 0x100]\n 35855: ra = ra + a3\n 35858: a3 = ra <u a3\n 35861: jump [t0]\n      : @1419 (gas: 6)\n 35863: a1 = a3 << 0x3\n 35866: u64 [s1 + 0x138] = a1\n 35870: i32 a2 = 0x80 - a1\n 35874: a0 = 0xffffffffffffffff\n 35877: a1 = 0xffffffffffffffff\n 35880: jump [t0]\n      : @1420 (gas: 6)\n 35882: i32 a0 = a0 + 0\n 35884: i32 a2 = a2 + 0\n 35886: u64 [s1 + 0x68] = a1\n 35889: a1 = 0x40\n 35892: u64 [s1 + 0x60] = a0\n 35895: jump [t0]\n      : @1421 (gas: 7)\n 35897: a3 = a3 | a5\n 35900: a3 = a1 if a2 == 0\n 35903: a1 = 0xffffffffffffffff\n 35906: a0 = a1 if a4 == 0\n 35909: a3 = a1 if a4 == 0\n 35912: a5 = 0 if a2 == 0\n 35914: jump [t0]\n      : @1422 (gas: 4)\n 35916: a0 = 0x1038\n 35920: a3 = s1 + a0\n 35923: a4 = a3 + 0x500\n 35927: jump [t0]\n      : @1423 (gas: 2)\n 35929: a3 = a2 & 0x40\n 35932: jump @1427 if a3 != 0\n      : @1424 (gas: 1)\n 35935: jump @1426 if a2 == 0\n      : @1425 (gas: 6)\n 35938: i32 a3 = 0x40 - a2\n 35941: a3 = a1 << a3\n 35944: a1 = a1 >> a2\n 35947: a0 = a0 >> a2\n 35950: a0 = a0 | a3\n 35953: ret\n      : @1426 (gas: 1)\n 35955: ret\n      : @1427 (gas: 4)\n 35957: a0 = a2 + 0xffffffffffffffc0\n 35960: a0 = a1 >> a0\n 35963: a1 = 0\n 35965: ret\n      : @1428 (gas: 2)\n 35967: a3 = a2 & 0x40\n 35970: jump @1432 if a3 != 0\n      : @1429 (gas: 1)\n 35973: jump @1431 if a2 == 0\n      : @1430 (gas: 6)\n 35976: i32 a3 = 0x40 - a2\n 35979: a3 = a0 >> a3\n 35982: a0 = a0 << a2\n 35985: a1 = a1 << a2\n 35988: a1 = a1 | a3\n 35991: ret\n      : @1431 (gas: 1)\n 35993: ret\n      : @1432 (gas: 4)\n 35995: a1 = a2 + 0xffffffffffffffc0\n 35998: a1 = a0 << a1\n 36001: a0 = 0\n 36003: ret\n",
        "bytecode": {
          "object": "50564d000027a7000000000000010700c19002c000800382609bc8e21bad52f2ddaa8d37fc68b0c26916a1c463f1a72b95efb323f54d5af5287ab365328ea2d765b32165339f927464b96c3f931b68c1322a860d44736637f34876c7d2fef02d9fd08c50cca46058de4caba1b8b8858c81a656891c988defee1af85fc1fbac358af209d74f347dae39c6658caab400868e9bd16be37ffe4bb620e3be01ea8ce76274eab57002424ecd5447f7c9b0110d0058a2054b54fcdbeb9bc8e21bad52f2ddaa8d37fc68b0c26916a1c463f1a72b95efb323f54d5af528e6f25b490aeeb95da41b4c83a7919cff534eaae8a544d2fdaa73b0e4ea8ad37b5b7decebe5e15b8cf3841e7d42714fd11e29b2f7c01403dd25b9c3c7c80a205b003c599e0e5a57c228db122fc9f859f9d002053b5a39c3695bf8716f4416255e1dff7e7e1188872fd1014979ec26e982400927504a02787c0d6f6533a74045307ab365328ea2d765b32165339f927464b96c3f931b68c1322a860d44736637f31dff7e7e1188872fd1014979ec26e982400927504a02787c0d6f6533a74045304876c7d2fef02d9fd08c50cca46058de4caba1b8b8858c81a656891c988defee1dff7e7e1188872fd1014979ec26e982400927504a02787c0d6f6533a74045309bc8e21bad52f2ddaa8d37fc68b0c26916a1c463f1a72b95efb323f54d5af5287ab365328ea2d765b32165339f927464b96c3f931b68c1322a860d44736637f31dff7e7e1188872fd1014979ec26e982400927504a02787c0d6f6533a74045309dc6d9325c1f39f67429440b67ea472a64fdc7edd13539b51b1739a847e021eb9bc8e21bad52f2ddaa8d37fc68b0c26916a1c463f1a72b95efb323f54d5af5280480bd0b000000000e0000001c0000002a000000300000003d000000480000005700000062000000740000007f00000063616c6c5f646174615f636f707963616c6c5f646174615f6c6f616463616c6c5f646174615f73697a6563616c6c65726465706f7369745f6576656e746765745f73746f72616765686173685f6b656363616b5f3235367365616c5f72657475726e7365745f696d6d757461626c655f646174617365745f73746f7261676576616c75655f7472616e73666572726564051302c066820463616c6cc06e82066465706c6f7906c0d4a382ca02c0a58c9b00e30106031803cc033c04440416051e051d066106b30636078e07b0070c08cb081f09bc09110a840a9d0ac60a000b190ce20c900da60dab0dbd0d900ece0e071016103d10421059105e106310681085100e115e1163117c11a111bd11c6111c124e12bb12d412fb123613521413158c15a215a715b91561167a16b316f31701182b18311849184f1855185b187d18201989198f19aa19d019ed19f719561a721a781a961aa71aad1ad01ae11ae71a0e1b561b891b381c491c4f1c6b1c881ccd1cd71cf01c621d6f1d891db91dce1dd81d461e531e681ec71ed71ef51e2f1f3f1f5d1f971fa71fc51fff1f0f202d2072208f20d4200f211f213d2178218e219921bf21d922f92216236e2374237a23a223da23e0231724422488249224ef242b255f2569258625a625c7251f2625262b264b266626ae26bc26ee261927222763276c278c27d227dc2738286c28a028aa28c328f8280629632969296f298f29a929f829fe29372a522ab02ab62abc2adc2a1b2be32bf32b2e2c502cbb2cee2c3c2de62d882eb32ef72e002f1d2f262f472f7e2f9b2fab2fb42fc22ff92f1b30b930ef301931423153315d317931eb31fc311a325232d13207330d33133333337633463456348e34b0341b355035a2353d369f36c63622373337723778378637a637e83766389238ac3853398a39b439e339f8391e3a5a3a6b3ace3ad43ada3af33af93a203b753b863bc53bcb3bd93bfa3b3c3c7c3c823c883cb33cb93ce43c113d2b3d893d8f3dc93d393e3f3eaa3eb73ed53e1e3f243f2a3f4a3f793f5940c740d440ea4066418441e441ea4123421c433a437e438743cc43f543494456446b449b44b044ba4434454145574579457f45ea4506460c4622464f4655469b46a1460c4728472e4744477a478047ae48be48dc4847495a4963498549bc491e4a7c4aa74a284b534bbb4b354c3b4c414c6a4d874dcc4de94d234e334e514e934ea34ece4e144f214f3c4f6c4f724f784fbe4fc44f3f504550d35024515451b5514052c152c752cd5251539f53c95323547854b454be5525562f567956ad56df5652575857d0572c586e5818595d596b598459a859525abf5a1c5b185c265c335ca85cf85c085d265d605daa5dc85d075e0d5e3a5e675e805e905e995ea35ec95ecf5ed55eee5efe5e075f485f705fa05fa95fc15ff55f0f6018609a60c360e460ea60f060f66021612e6134613a61406146615f616c6172617861936199619f61a561be61cb61d161d761dd61e361ff610c62126218621e6224623e624762da62e862ea620b63116317631d63486355635b63616367636d638663936399639f63ba63c063c663cc63e563f263f863fe6304640a642664336439643f6445644b6465646e6401650f658c65bb652a669d66ab66b8662c67a067b067b667bf67da67e067f067f667ff67146852686b689968ad68e2689469b269f669ff693d6a666a836a936a9c6aa66a546b726b8f6b9f6ba86bec6b196c376cbe6cfb6c236d4c6d796dcd6d116e2e6e646eee6e146f316f736f7c6f966f1d703a70a470b470bd70f3701c71227128714f717f71ea71f7710d723e72b172f2720f7352736f73bc73e2730b7438745974ae74b474ba74f974ff7419751f7525752b7531754a7557755d75637586758c759c75a275a875d175f1753d764376497688768e76a876ae76b476ba76c076d976e676ec76f27615771b772b7731773777607786778c77d077d677dc77077814781a78207826782c784578527858785e789b78a178a778c078cd78d378d978df78e57801790e7914791a792079267940794979dc79ea79ec79307a367a3c7a677a747a7a7aa87ad57af17a017b0a7b147b447b4a7b507b6c7b797b7f7ba47bcd7be97bf97b027c0c7c3c7c567c5f7cf37c0d7d617d8a7d907d967dcf7de37d017e7c7e997e077f1b7f597f787fec7ff97f13804080a680e480018147816d819681bf81e08109823e826e827782aa876e978a2098aa20977b2098bb20c89b0bc9ba0a979b019abbaeab20ae873751094ec87909647a017c8b95880195ac0178ab64caab9cf42836510934c87909647a017c8b95880195ac0178ab64caab9cf4281c51091a839aff01c8a80b7cbb9599ffc8a70c78cb83aaff5209f03200390868020251080d21330790020383770a082800219511f07b10087b1564896475330820649750100238057c78017c797c7a027c7b03978808d4980897aa1097bb18d4ba0ad4a8087c79057c7a047c7b067c7c07979908d4a90997bb1097cc18d4cb0bd4b909979920d489027c79097c7a087c7b0a7c7c0b979908d4a90997bb1097cc18d4cb0bd4b9097c7a0d7c7b0c7c7c0e7c780f97aa08d4ba0a97cc10978818d4c808d4a808978820d498037c78117c7a107c7b127c7c13978808d4a80897bb1097cc18d4cb0bd4b8087c7a157c7b147c7c167c791797aa08d4ba0a97cc10979918d4c909d4a909979920d4890a7c78197c79187c7b1a7c7c1b978808d4980897bb1097cc18d4cb0bd4b8087c791d7c7b1c7c7c1e7c771f979908d4b90997cc10977718d4c707d49707977720d487076f776fa86f396f2a7b5a187b59107b58087b57821008821595111032009511d87b10207b15187b161082897b19088289087b19828510828618330820501004f0036f686f59821a6faa821b086fbb787b18787a10787908787898bc38787c1f98bc30787c1e98bc28787c1d98bc20787c1c98bc18787c1b98bc10787c1a98bb08787b1998ab38787b1798ab30787b1698ab28787b1598ab20787b1498ab18787b1398ab10787b1298aa08787a11989a38787a0f989a30787a0e989a28787a0d989a20787a0c989a18787a0b989a10787a0a98990878790998893878790798893078790698892878790598892078790498891878790398891078790298880878780182102082151882161095112832009511a07b10587b15507b16489515608411e06476828718828910828a0882886f776f996faa6f887b18187b1a107b19087b17491138491130491128491120481140208318831a20831b403309ff33073300060a0501821738821830821928821a205012087a84007b6a187b69107b68087b679551a082105882155082164895116032009511a07b10587b15509515608411e08272827a08827b108277188283828908828c108288186f746fbb6faa6f276f826fcc6f996f387b17187b1a107b1b087b147b18387b19307b1c287b12208318831a203309ff330b2033070a099551a082105882155095116032009511a07b10587b15507b16489515608411e0829a7b1a18829a087b1a10829a107b1a088299187b19648650100a070282186f888219086f99821a106faa821b186fbb7b1b387b1a307b19287b18208379836a8317203308010a049551a08210588215508216489511603200951120ff7b10d8007b15d0007b16c8009515e0008411e082bc7b1c4082bc087b1c4882bc107b1c5082bb187b1b5850120cd384007b183850100e8f016f687b187882186f887b18708218086f887b18688218106f887b18608218186f887b1898008218206f887b1890008218286f887b1888008218306f887b1880008218406f887b18b8008218486f887b18b0008218506f887b18a8008218586f887b18a0008379811a388317603308030a04955120ff8210d8008215d0008216c8009511e00032009511e0fe7b1018017b1510017b160801951520018411e082c67b166082c6087b166882c6107b167082cc187b1c7882bc7b1c3882bc087b1c4082bc107b1c4882bb187b1b50501210f983007b1858501012b5006f687b18980082186f887b1890008218086f887b1888008218106f887b1880008218186f887b18b8008218206f887b18b0008218286f887b18a8008218306f887b18a0008218386f887b18d8008218406f887b18d0008218486f887b18c8008218506f887b18c0008218606f887b18f8008218686f887b18f0008218706f887b18e8008218786f887b18e0008379811a58831780003308040a049551e0fe8210180182151001821608019511200132008b7910520931c8780883881f8488e05638000001253309640202390a640202ae8a093d086402020133087002028377c887073200009511f07b10087b158475010a02013d0760020251050750101448330016951110fe7b10e8017b15e0017b16d8019515f001951150e68411e06416956938104929e0044929d8044929c8048000330740956800154929d004330002012861fb951108f8951700077b70f0007b75e8007b76e0009515f8079511f8fc8411e0641695670010492738f895670010492730f895680010492820f880003307409568ff0795882195690010492928f850101811fb95670010492758f895670010492750f895670010492748f895670010492740f895670010837740f80a0a0195670010827750f895680010828858f895690010829948f8956a001082aa40f8d49808d4a707d4870751070628631738096002024926f8074926f0074926e8079567ff079577019568e0077b6930017b69e00750101a035195670010827918f895670010827a10f895670010827708f895680010828800f87b672801d497077b683801d4a808d47808988820d4a707977720d4870751070628f6167b6a18017b692001826738018268300150101c45fe83778168300133090a018268300156185f0728dd169567c0078268380150101edaf8956a000182a72082a818d478091407e0ffffff0000000082a838d8780782a828948794975207062895167b6910018267d8077b6788008267d0077b6780008267c8077b67788267c0077b6770826738018378209567a0075010207ef88262b8078264b007826ba807d4240988ba01949a520a06286a16826aa0078269380182673001c87900d89008c8a9097b693001d8a90a826c2801c8cb07c8a703d3b309d8b30bda9a0b64c7c88c0cd87c09da880982681801c8840ad84a0482672001c87202c84202c89804c8ab0bd8ab09c8920ad88408c887077b6008017b6040077b6c00017b6c480782683001956c00077bc8607b6430017b6450077b67f8007bc7587b6368077bcb709567800795686007956940077bca78501022e2501407c0ffffff0000000095690001829838d8780782982894878298109487520706288015826798077b67c000826790077b67b800826788077b67c800826780077b67d00082673801837840956720075010246bf7826238078268300782692807d4280a889b0194ab520b06286715826a2007826b3801c8ab0bd8ab0a826c2801c89c0cc8ac0cd39c07d89c09da7a0982671801c88707c87909d8790ad8870782682001c88202c82707c87a0a956800018287087b67c00682877b67c8067b6be006828730956b00067bb7d0008267f8007bb7d8007bbce8007bb9f000956700079568e0069569c0067bbaf800501026f14f8269b800826bd000d49b078268c000826ac800d4a808d48707987720d49808978820d4870751070628881464b8956900078297187b6798008297107b6790008297087b67a00082977b67a8009567a00650102879f695670006827ab8008278b0008279a8008ea78e8bdba70b7b69f0008e977b68607b6ae800d4a8087b67587b6bb0007b68e000db8b075107062863148267a0067b676895670010492778f895670010492770f895670010492768f895680010492860f803956780069568ff0795886150102a32f8956b000682b7900082b8880082b9800082ba980050122c837d88920184807fd27c04d23c0bdb9800880820d2ac0c648994b9d4c4079479aa920628561450122e747e8267688877207b67d800510a43027b6b10017b6018017b6c20017b6430014926780649267006492668069568600649266006033307501030c4f6390864020256181f0b200364020220019517e08479e07b69280164913307700202837783993308200a0682676895781fd87807826cf000c87c09d8c90ada770a826b60c8ba0a7b6a080197aa3b989b05d4ab0b8267280182731897993b827a10988805d498076f346fa98268d80094c8826ae00094a8948b9487c87402d84207c8790cc8cb0b7b6b3801d39b0cd89b0adac70a7b6a00018267180195701fd8700b826a1001c8ba07d8a70cdabb0c82633001c8c303973b3b987a05d4ba0a97773b980b05d4b707c847077b671801d847076424c8790bc8ab0bd39b0a7b6b1001d89b09daa709826b0801826760d87b07826ae800c8a70798ba05977b3bd4ba0a826b280182b282bb08987705948a94876fb86f2b501232eb7fc8a70282673001d87307826a2001c8a707983a05977c3bd4ca0a987705c8b707956c000182cb38c88a0ad88a08c88707c8a9097bc908d8a908c887077bc79517e08473e064317b63f8000182671801d8740782691001d39b08d89b09da8709826c0801d8c007826a0001d3a208d8a20ada870ad3c007d48707da790a7b347b3b087b30107b3218510a7395670010492798f895670010492790f895670010492788f895670010492780f89568ff079588810064377b6430017b6b38017b6228017b60200150103457f68263f80082622801826b380182643001954401884701c87b0bd4b40788770182682001c88707d88708c8820264702854ff8267d800857701826cf000826858dbc8078268b0008269e000db98078260e800d40c0b82686098843f97000198c93f7b69589789017b6948826a6898a23f97c9017b695097a901510730027b6b207b62307b60387b64287b694084aae07b6ab000492638064926300649262806956820064926200603330750103634f49517e08477e07b671001647133082033075010382df850123acf7d0a064926380120330c4926300150123c367c82a26f736f886f9a6f296492826710017b79187b6af0007b7a107b6808017b7808643a7b7301642464a38267b0007b6b0001d87b07857b017b60f800940b018267200182691801d49707947b018268d00082673801c87808826ac80064c2c8ca0a8269b80082673001c879098267c000826c2801c8c707520b8601826b3801d8b80bc8ba00642ad32002d8a00cda2b0cc89c0cd89c02826b3001d8b909c89707c82707d4c809d47007d47909989920d4c707977720d497077b63e8007b64e00051070628ec0f9567c0017b6ad80050103efaf18267d8018268d0018269c801826ac001956bff0795bbb9007bb77bb8f8956700107b79a8f8956700107b7aa0f89568ff079588a100826710015010406bf48260e80095000188070182620801c87202d420078877018268f000c87803d883088267e000c88707826838019589207b69e800d8890a8268d800c8a8097b69e000d8890bdaaa0b82683001c8b804d8840b82682801c8b8087b68280182680001958b20d88b0c8269f800c8c908d89809dacc09826a1801c8a909d8a90c826a2001c8ca0a7b6a20017b620801826c10017bc208640a7bc07bc31064727bc7187b63f0008267e8007b673801826ce0007b64300164807b691801285cfed48a07d4b707826bd0008263c8008268c000826cb80052073e017b6940492620014926180149262801492630012884016420826368826bb000d33b0b826c60d4cb0b826c20d4cb0b826c38826230510bb400826b3801d8b80bc8ba0ad30a02d80a0cda2b0cc89c0cd89c02826b3001d8b909c89707c82707501242897a51070628620e9567000650104474f0956800068287187b6730018287107b6728018287087b67200182877b671801826768501246277b501048427c7b6708017b68f0003307ff3308ff8269380150104a057c50124cd47950104efb7b5012500c737bba207bb9187bb8107bb7089568ff079588c10082671001501052b4f2826230826c3801826728d4c707826858826948d49808826950d42909826a4095aa01956cff0795ccb900491c40491c38491c30491c28037bca487bc9507bc8587bc7609567ff079577e1009568ff07958801013300622859f2d48c071408e0ffffff00000000d88b089438947851087a0d7b694083b820956740067b64287b60387b62305010547cef826230826038826428826a6895680006828758956900017b97308287507b97288287487b97188287407b972001826758826848d487077b671001d440077b670801826750d427077b670001501256be7a501058217b7b67e0007b68f8008267688a79033307ff3308ff50105ae27a7b67f0007b68e8008268e000d487077b67e000826738018379803307ff3308ff50105cbd7a826b380188b98000826ae000db9a07826ce800826af80050125e817a826bf0005012603a76826b40d4b707956c000182cbd4b80882cb08d4ba0a82cb10d4b909956cff0795ccb900491c68037bc998007bcaa0007bc890007bc78800492c8000491c78491c709567ff07957721019568ff07958841015010621df18268a800826b9000d4b8078269a000826a9800d4a909d49707987720d4b909979920d4970752072b0c9567e0055010643cee95670005827af8008279f0008278e8008ea78e9bdba70b7b68c0008e877b69b8007b6ab000d4a9097b67d8007b6be0007b69f000db9b075207f70c8267e0057b67c8009568ff079588b9004928c0004928b8004928b0004928a800049567c0059568ff0795886101501066fbef956b000582b7d00082b8c80082b9c00082bad8005012684c7588920184807fd27c04d23c0bdb9800880820d2ac0c648994b9d4c4079479ab92f20c50126a3f768267c8008877207b67e800510a3e027b6b10017b6018017b6c20017b6430014926b8054926b0054926a8059568a0054926a00504330750106c8eee390864020256181f0b200364020220019517e08479e07b69280164913307700202837783993308200a068267c80095781fd87807826cc000c87c09d8c90ada770a826bb800c8ba0a7b6a080197aa3b989b05d4ab0b8267280182721897993b827710988805d489096f246f778268e80094c8826af00094a8948b9489c89402d84209c8970cc8cb0b7b6b3801d37b0cd87b0adac90a7b6a00018269180195901fd8900b826a1001c8ba09d8a90cdabb0c82633001c8c303973b3b989a05d4ba0a97993b980b05d4b909c849097b691801d8490b6424c8b709c8a909d3790a7b691001d87909daab09826b08018267b800d87b07826ab000c8a70798ba05977b3bd4ba0a826b280182b282bb08987705948a94876fb86f2b50126eb277c8a70282673001d87307826a2001c8a707983a05977c3bd4ca0a987705c8b707956c000182cb38c88a0ad88a08c88707c8a9097bc908d8a908c887077bc79517e08473e064317b63f8000182671801d8740782691001d39b08d89b09da8709826c0801d8c007826a0001d3a208d8a20ada870ad3c007d48707da790a7b347b3b087b30107b3218510a6b9567ff079577b9004927e0004927d8004927d0004927c8009568ff079588810164377b6430017b6b38017b6228017b60200150107026ee8263f80082622801826b380182643001954401884701c87b0bd4b40788770182682001c88707d88708c882026470285cff8267e800857701826bc0008268d800dbb8078268e0008269f000db980751070e028267c8008477e07b67d000492678054926700549266805956860054926600504330750107238ec9517e08477e07b6710016471330820330750107431f0501276d3750a064926300120330c492638015012783a7482a26f736f886f9a6f296492826710017b79187b6ae8007b7a107b6800017b7808643a7b7301642364a48267d0007b6bf800d87b07857b017b60f000940b018267200182691801d49707947b018268a80082603001c80808826aa00064c2c8ca0a8269900082673801c8790982679800826c2801c8c7077b620801520b6b01d8080bc8ba0a642cd32a02d8ca0cda2b0cc89c0cd89c02826b3801d8b909c89707c8270750127a2f747b64e0007b63d80052070308956760027b60300150107c10ea956b000282b77882b87082b96882ba60956bff0795bbb9007bb700017bb8f8007bb9f0007bbae8009568ff079588a1018267100150107e86ec8260e00095000188070182620001c87202d420078877018268e800c87803d883088267d800c88707826830019589207b69e000d8890a82680801c8a8097b69d800d8890bdaaa0b82683801c8b804d8840b82682801c8b8087b6828018268f800958b20d88b0c8269f000c8c908d89809dacc09826a1801c8a909d8a90c826a2001c8ca0a7b6a20017b620001826c10017bc208640a7bc07bc31064727bc7187b63e8008267e0007b673001826cd8007b64380164807b6918012873fe826ac800826cb800d4ca078269b000d49b08d487078262a800520767014926200149261801492628014926300128b9018262c800826bd000d32b0b8264b800d44b0b8263c0008260b000d4030cd4cb0b510bcf00826b3001d8b80bc8ba0a826c0801d3ca02d8ca0cda2b0cc89c0cd89c02826b3801d8b909c89707c82707502280009e725207790695674005502082008ae8956800058287587b6730018287507b6728018287487b6720018287407b6718018267c800502284003a735020860054747b6708017b68f0003307ff3308ff8269380150208800167450228a00e47150208c000a7450228e001a6b95bc00017bca207bc9187bc8107bc7089568ff079588c1018267100150209000bdea8262c8008263c0008264b8008260b0000198473f970801d4870798383f974901d4980898293f973a01d4a909972a0195aa01956cff0795ccb900492c4001492c3801492c3001492c28010495cb00017bba487bb9507bb8587bb7609567ff079577e1019568ff07958801023300a0002848ea8267980082689000d487071408e0ffffff00000000d88208826aa00094a8947851085d0583282095678005502092006be78269b000826cb800826bc000826ac80095680005828798007b673001828790007b672801828788007b671801828780007b6720010198b73f97c801d487077b67100198c73f979801d487077b67080198a73f97b801d487077b67000197a7017b67f80050229400947250209600f6727b67d8007b68f0008267c8008a79033307ff3308ff50209800b5727b67e8007b68e0008268d800d487077b67d800826738018379803307ff3308ff50209a008f72826b380188b98000826ad800db9a07826ce000826af00050229c005272826be80050229e000a6e826bf800d4b707956c000182cbd4b80882cb08d4ba0a82cb10d4b909956cff0795ccb900492c68010495cb00017bb998007bbaa0007bb890007bb78800492c8001492c7801492c70019567ff07957721029568ff07958841025020a000e4e833077002037b67380183777b6730013300a2000a033302a40028d7685022a400d46849261805956900057b98107b970895672005956800057b9a5020a600d042826730013300a8000a033302aa0028a2685022aa009f684926d8047b68d0047b67c8049567e0049568c0047b6ac0043300ac0033025e0328fe6c826730013300ae000a033302b0002868685022b000656849269804956900047b9890007b9788009567a004956880047b9a80003300b2003302a40328c06c826730010a0301826938018097108298829908d48707d49707510725059568ff079588b9004928c0014928b8014928b0014928a80105956760049568ff07958861025020b40061e77c676004520754059567ff079577b9004927e0014927d8014927d0014927c80102956720049568ff07958881025020b6002ee78264380482633004826020047b602801826c28049518e08488e06481826978c8c90b826770c87000d87007c87b0bd39b0ad89b09daa70982628000c83207826a8800c84a0ad82702c82a0ac87909d87907c87a02d3bc07d8cb0c826a2801d8a00adb7c0ad83907d3240cd84204dac704d39307d4c707db740a7b89107b8b087b807b8218520ae7049567ff079577b900492700024927f8014927f0014927e801029567ff079577a1025020b80002e7826730013300ba000a033302bc002800675022bc00fd6649261804956900047b98107b9708956800047b9a33075020be005ae54926f8034926f0034926e8033307209568e0034926e0035020c0003de59517e08477e07b6728016471390864020256183f0b200364020240019517e08479e07b69200164913307700202837783993308403300c2000a06826a20013302c40028b867826a20015022c400b167826828017b8a187b89107b8b087b879567c0035020c600c7e58267c8038268c0038262d803826ad003826b78c87b0b826c70c88c0cd88c08c88b0bd37b09d87b07da980782688000c8a80882698800c89202d8a809c82909c88707d88708c898089569ff079599b900959a00027bac087bab107ba7187ba8209568ff079588c102826728015020c800d8e59567a0033308405020ca001ce3956b000382bab80082b8b00082b9a80082b7a0005022cc0097685208e3008268707b6880038268787b688803826880007b68900395688003826988007b6998037b6728015020ce000ce4826730013300d0000a03826938013302d20028f565826938015022d200ee65d4780298aa206f99979820d4a80898992049263803492658034926500349264803492640033a0a0000023a0b0800023a0c1000023a071800027b6a78037b6b70037b6c68037b6760037b6930037b68280333082095696003956a4003956b20037b622003826728015020d400c8e5956700033308405020d60038e2956b000382ba1882b81082b90882b75022d800b86751080603003308700202838833070133090a0728313308700202838833070133090a0728213308700202838833070133090a0728113308700202838833070133090a07014926700149266801492660013302da00140700000000717b484e01956860017b67780133075020dc00eee24926580149265001492640014133070495684001492648015020de00d0e2390864020256183f12200364020240330870020228500233087002022848024926b0014926a8014926a0013302e000140700000000717b484e019568a0017b67b80133075020e20086e24926980149269001492680012233070495688001492688015020e40068e2390864020256183f12200364020240330870020228e801330870020228e0014926100249260802492600023302e600140700000000717b484e01956800027b67180233075020e8001ee24926f8014926f0014926e001413307049568e0014926e8015020ea0000e2390864020256183f12200364020240330870020228800133087002022878014926500249264802492640023302ec00140700000000717b484e01956840027b67580233075020ee00b6e14926380249263002492620022233070495682002492628025020f00098e1390864020256183f12200364020240330870020228180133087002022810014926b0024926a8024926a002140700000000052f44ec9568a0027b67b80233075020f20053e149269802492690024926880233070495688002492680025020f40036e1390864020256183f12200364020240330870020228b600330870020228ae0049265004492648044926400414070000000065063cd9956840047b67580433075020f600f1e0390864020256181f0b20036402022001330870020283883307013309040a07014926f0024926e8024926e0023302f800140700000000717b484e019568e0027b67f80233075020fa00a6e04926d8024926d0024926c002113307049568c0024926c8025020fc0088e0390864020256183f112003640202403308700202280833087002020183883307013309240a077b6738013300fe002863e47b6738015020fe005ce48377330833090a28f1de8267380133085020000146e48378330733090a072816fd33076002027b67b80039076002025517040728363195670010837720053308330004010a01019569381081970405524759cb56840a28d71851475448d19174015247419bd8950a28fe105147dffd17a213045247bb9c05a90a286e1b5147931339d5da0751473eed62dd8e045247e9b13ae60a28021f514703defd067c085247b3a75e090a28a11f5247dd0d16180a28d0155247dd72b8230a28c71c5247a39c8a240a281b1a514767e53c31ff0652473aa84b3f0a2800145147190fc140310b5147bb5a975c0a288516956738184927a000492798004927900049278800956700208377c0f80a0a01956a381882a7980082a8a00082a9900082aa8800d49808d4a707d487075107062803258267b800817756170307280725956838184928c0004928b8004928b0004928a800059567ff07957781049568e01850200601dedf9567ff07957739827748047b67b8009567ff07957761043308405020080192dd956aff0795aa3995ac000482cb4082c83882c93082c72850220a01f3625108062842227c68b8008e88492a2004492a18047ba808049568ff0795884104492a10047b67b8003300c602287dde956738184927e0014927d8014927d0014927c80195670020837700fa33000c010a0a33020e0128766650220e017366502210015868510706284a248267b8008177330843ac7806284c249567ff079577810733001201330202042848689568ff07958839958900078297587b67a8008297507b67b0008297487b67b80095670020837720fa330804330014010a0133021601280a6650221601076682b7e80082b8f00082b9f80082aa0002956bff0795bb3995bc00077bca407bc9387bc8309568ff07958861077bc728330750201801aedd9568ff079588394928200749281807492808070664893307209568ff07958841074929100750201a0183dd3308640202390764020256173f0b200364020240019517e08479e07b69900064913307700202837783997b68a0003308407b67980033001c010a06826a900033021e01284666826a900050221e013f667b6788006f877b6780006f977b67786fa77b67709517e08477e07b67900064718267a8009777209877209569ff0795993949290007959a00067ba7f8008267b0007ba7f0009568ff07958821078267b8007ba7e800330750202001d6dc8267709568ff07958839958900067b97e0008267787b97d800826780007b97d000648a3307209568ff0795880107826988007ba9c806502022019adc8268a000818756173f08480840019517e08477e07b67b8006471837933084082679800330024010a06826ab8003302260128265f826ab800502226011f5f826890007b8a187b89107b8b087b879567ff079577e1065020280131dd9567ff079577398277a8067b67b8009567ff079577c10633084050202a01e5da956aff0795aa3995ac000682cba00082c8980082c9900082c7880050222c01426051080628911f7c68b8008e88492a8006492a78067ba868069568ff079588a106492a70067b67b8003300c60228ccdb956738184927600249275802492750024927480295670020837780fa33002e010a0a3302300128476250223001446250223201a56351070628bb218267b80081775617030728bf219567a0113308405020340140da956a381095ac000182cb800082c87882c97082c76850223601a35f51080628f21e492a6001492a5801492a500195688011492a48017b67b8003300c6022837db956738184927200349271803492710034927080395670020837740fb330038010a0a01956a381895ab000350223a01ba61510706284c218267b8008177330843ac7806284e211407ffffffff000000007b67b8009567a01433003c013302f80328fc6495683810828768047b67b000828770047b679000808778047b6788009567801433003e013302020428d164330240019568381001958900048297587b67a8008297507b67a0008297487b67980049284004826788007b9738826790007b97306489956860148267b0007b97280433075020420162da33024401956838100149282004492818044928080401648933072095684014492910045020460139da3308640202390764020256173f0b200364020240019517e08479e07b69880064913307700202837783997b68b0003308407b679000330048010a06826a880033024a0128fc62826a880050224a01f5627b6780006f877b67786f977b67706fa77b67689517e08477e07b6788006471826798008477ff8269a0008498ff8269b800826aa800d2a909956a3810492a000495ab00037bb9f8007bb8f000956820147bb7e800330750204c018dd982676895683810958900037b97e0008267707b97d8008267787b97d000648a33072095680014826980007ba9c80350204e0159d98268b000818756173f08480840019517e08477e07b67b8006471837933084082679000330050010a06826ab8003302520128e55b826ab80050225201de5b826888007b8a187b89107b8b087b879567e01350205401f4d995683810958900038297c0007b67b8008297b8007b67b0008297b0007b67a8008297a8007b67a0009567c0133308405020560193d7956a381095ac000350225801086251070628521c8267a00095a900037b97688267a8007b97708267b0007b97789568a0138267b8007b97800064b77b6bb8003300c6022884d84929e0064929d8064929d0064929c806956700108377000733005a010a0a33025c0128365e50225c01335e50225e01636251070628bb1e8267b80081775617030728bf1e9567e00733084050206001fcd6956b000782baf80082b8f00082b9e80082b7e00050226201775c51080628af1b4926d8074926d0074926c8079568c0074926c007127b67b8003300c60228f3d7956738184927c0024927b8024927b0024927a802956700208377e0fa330064010a0a33026601286e5e502266016b5e82b7b80082b8c00082b9b00082baa800d49808d4a707d4870751070628351e8267b80081775617030728391e9567a0123308405020680154d6956a381095ac000282cb800082c87882c97082c76850226a01b75b51080628061b3a0840000295ac00027bc8603a0b4800023a085000023a095800027bcb587bc850956880127bc9487b67b8003300c6022837d749296005492958054929500549294805956700108377800533006c010a0a33026e01289f6150226e019c6150227001145f51070628b21d8267b80081775617030728b61d9567a00233084050207201afd58267b8027b67188267b0027b67288267a8027b67208267a0027b6730956738104927800549277805492770054927680503956780029568a015502074019cd7826990028264880282629802826c800297973f984801d4870797283f7b69b000989901d4980897493f98ca01d49a0b9829017b6ca80084cc019acad2a808d27a03d2a90984b07fdac00b7b6b7088b7207b636094377b68687b6958d4980894877b6cb80088c801aa7806280e1d826928826b30d49b07826818826a20d4a808d48707987720d49808978820d4780851080628af1964b77b6090007b6498007b62a000826870956a00027ba8608268607ba8688268687ba870956860028269587ba97850207601e2d58267b80051070628721950227801a25d5208062865198268a800848800ff83a720826a9800956900017b9ae8007b98e0008268b0007b98f0009568e001826aa0007b9af80050207a0197d5330433034926b000826790008e779777057b67b80033027c0128815c50227c017e5c826220c8290ac87a00d3900ad8900bdaa70bd84907da8807c83707d83708826928c87909c89b0bd87907d89b09826318826ab000c83a0ac8a808c88707c8970c8ec78eb8dbc708d4cb078e09db78095109062866218267308268b800d87807d32008d8200950227e01d25b510a06284a218267b8007b67c0017b60c8017b6bd0013307409568c0017b6cd8017b60a8007b6ba0007b6cb00050208001d7d4826718956b00017bb7788267287bb7708267207bb7688267307bb7608267b0007bb798008267a0007bb790008267a8007bb788009567a0019568800195696001826ab8007bba800050208201db378269a000826ba8008262b800d492078268b000d4b808d48707987720d49808978820d4870751070628f717956c000182c7a80082c8b8007b6898008263a00182cab0002865084929c0074929b8074929b0074929a807956700108377e0070a0a01956a381095ab000782b7b80082b8c00082b9b00082baa800d49808d4a707d48707510706283a1b8267b8008177330843ac7806283c1b9567ff079577e103330084013302f80328045e9568ff07958839958900038297b8007b67788297b0007b67a8008297a8007b67b00095670020837700f83308240a0195673810957900078298e0007b68a0008298d8007b6890008298d0007b6888008297c8007b6780003a074000027b6740956aff0795aa3995ab00037bb7a0003a084800023a095000023a075800027b68307bb898007b69287bb990009568ff079588c1037b67387bb788003307502086013dd39568ff079588394928800349287803492868030664893307209568ff079588a103492970035020880112d33308640202390764020256173f0b200364020240019517e08479e07b69706491330770020283777b68980083993308407b67b80033008a010a06826a7033028c01284258826a7050228c013c5833077002037b677083777b672033008e010a0382697033029001285d5382697050229001575349296003959b00037bb8587bb7509568ff07958881037bba483307502092017ed28267489568ff07958839958900037b97408267507b97388267587b9730648a3307209568ff07958861038269607ba928035020940147d282689800818756173f08480840019517e08477e07b676050229601455b330098010a06826a6033029a01289858826a6050229a0192589567ff079577410350209c01f5d29569ff079599397c970803520706284d198267789777209879208267b0008268a800d487077b6970d4970752070628fb1950209e01ed519567381849074917f84917f04917e8029567ff0795772103956820185020a0019cd29568ff0795883982840003958900028297f800829be800829cf0009518e08488e06481826a8800c8ca0a82628000c8b202d8b20bc8ba0ad3ca03d8ca09da3b09826b9000c87b0bc89b0cd8bc038260a000c84000d87b0bc80b0bc83b00d87c03d3040bd84004dab304d3c707d4b707da79047b8c107b8a087b827b801851040628ae199567381849172049171849171049170802956740185020a20181d29569ff079599394929e002826770959a00027ba7d8008267a8007ba7d0009568ff07958801038267b0007ba7c80033075020a401d6d09567ff079577394927c0024927b8024927b00264793307209568ff079588e1024929a8025020a601acd09517e08477e07b6778647182699800819756173f08480940019517e08477e07b6798005022a8019e593300aa010a06826a98003302ac01283253826a98005022ac012b538268787b8a187b89107b8b087b879567ff079577c1025020ae013ed19569ff07959939959b000282b7900082b888008292a00282ba9800826b8800c87b0b826c8000c88c0cd88c08c88b0bd37b09d87b07da980782689000c8a8088269a000c89202d8a809c82909c88707d88708c89808956938187b9c287b9b307b97387b9840956860188267785020b0014fd19567ff079577a1023308405020b2018fce956aff0795aa3995ac000282cb800082c87882c97082c7685022b401ef53510806283e138268800095ab00027bb848826888007bb850826890007bb8589568ff07958881028269a0007bb9607b67a0005020b60173cf956cff0795cc39492c000282677095c800017b87f8008267a8007b87f0008267b0007b87e800492c2002492c1802492c10023a07a000023a08a800023a09b000023a0ab8000295cb00027bb7407bb8387bb9307bba283308209569ff0795996102956aff0795aa4102956bff0795bb2102492c08028267a0005020b8013dd133078268b80033090a07282020956738184927200249271802492710024927080295670020837740fa3300ba010a0a3302bc01285f555022bc015c555022be01635551070628bd178267b80081775617030728c117956760113308405020c00158cd95683810958900018297407b67188297387b67288297307b67208297287b6730956838184928400249283802492830024928280204956740119568601a5020c20141cf95673810827418018270100182732001827b080197473f980801d4870797383f984901d4980897093f98ba01d49a0c9839017b6bb00084bb019abad2a808d27a02d2a90984c77f7b67a800dab70c7b6c7088c7207b626094277b68687b6958d4980894877b6bb80088b801aa7806281117826928826a30d49a07826820826b18d4b808d48707987720d49808978820d4780851080628501164a77b6090007b6498007b63a000826870956a38107ba8e8008268607ba8f0008268687ba8f800956820118269587ba900015020c4017fcd8267b800510706282d125022c6013f555208062802118268b000848800ff83a72095693810826a90007b9a707b9868826898007b98789568a010826aa0007b9a80005020c80137cd330433034926b0008267a8008e779777057b67b8003302ca012821545022ca011e54826220c8290ac87a00d3900ad8900bdaa70bd84907da8807c83707d83708826928c87909c89b0bd87907d89b09826318826ab000c83a0ac8a808c88707c8970c8ec78eb8dbc708d4cb078e09db7809510906286d198267308268b800d87807d32008d820095022cc017253510a06285119956938108267b8007b9748640a7b9a507b9b58330740956880107b9c607b6aa8007b6ba0007b6cb0005020ce0175cc956838108267187b87826728958900ff7b97f8008267207b97f0008267307b97e8008267b0007b87208267a0007b87188267a8007b8710648b956760109568401095692010826ab8007bba085020d001752f826aa000826ba8008262b800d4a2078268b000d4b808d48707987720d4a808978820d4870751070628910f956838108287308289407b69980064a9828328828a3801d3b704d8b70cd82300da400cc99a08c9c804d8c808d89a0a82699800c9a90a8269b000c99a0ac98a0ac9b707c90707c92308d4a707d44809d47909d44707989920977720d49707510706282d0f64277b68b8005020d20197cf83788169b80033073300ca020a0728f1184929400749293807492930074929280795670010837760070a0a01956a381095ab000782b73882b84082b93082ba28d49808d4a707d4870751070628e9148267b80081775617030728ed145020d401c03d9567381049276007492758074927500749274807059567ff0795772101956880175020d601f1cb956aff0795aa3982a7e8008478ff0052080628bc1482a8000182a9f80082aaf000847700ff956b3810492b8007492b7807492b7007492b68070595bc00077bca90007bc788007bc998007bc8a0009567a0179568c0175020d80118cc9567ff07957701013308405020da0158c99567ff079577398278e0007b68b0008278d8007b68a8008278d0007b68a0008277c8007b67b80033077002037b67980083773300dc010a033302de012833535022de0130535207e30d826998005022e001f74a4929c0007b98b8007b97b0009568ff079588e1007b9aa80064b75020e2011fca3a07c000023a08c800029569ff079599397b97a0003a07d000027b9898003a0ad800027b97900064973308209569ff079599c1007b7a88008267b8005020e401bbcb33087002028388330733090a0728061b4929e0054929d8054929d0054929c80595670010837700060a0a01956b381095bc000582c7d80082c8e00082c9d00082cac800d49808d4a707d4870751070628ab138267b80081775617030728af13492b0006492bf805492bf005492be8050295670005956820165020e60151ca956800058287187b67b8008287107b67b0008287087b67a80082877b67a0009567e0043308405020e801f9c7956b000482b7f80082b8f00082b9e80082bae0005022ea0189525207af0c8267a000956900047b97c0008267a8007b97c8008267b0007b97d0009568c0048267b8007b97d80064a77b6ab8003300c60228ddc89569381851473182a0700a2814134929e0004929d8004929d0004929c80095670020837700f90a0a01956a381882a7d80082a8e00082a9d00082aac800d49808d4a707d487075107062828138267b8008177330823ac7806282a139567ff07957741053300ec013302f803289752956aff0795aa3982a7080582a8100580a91805492a000595ab00047bb9f8007bb8f0009568ff07958821057bb7e80033075020ee013bc89567ff079577394927e0044927d8044927d00464793307209568ff07958801054929c8045020f00111c8390864020256183f0b200364020240019517e08479e07b69b80064913307700202837783993308403300f2010a0601826ab80082a71882a81082a90882aa5022f4019a4d956b38187bba00017bb9f8007bb8f0007bb7e8009567ff079577e104956820195020f60199c89568ff07958839958900048297c0007b67b8008297b8007b67b0008297b0007b67a8008297a8007b67a0009567ff079577c1043308405020f80131c6956aff0795aa3995ac00045022fa01a3505207f00a8267a00095a900047b97688267a8007b97708267b0007b97789568ff079588a1048267b8007b97800064b77b6bb8003300c602281dc7956738184927600149275801492750014927480195670020837780f93300fc010a0a3302fe0128164f5022fe01134f50220002f64e510706289b118267b800817756170307289f11502002026c3950200402ed469568381849288001492878014928700149286801059567ff07957781069568a0195020060297c7956aff0795aa3995ab000682b74882b85082b95882ba60847700ff867701956b3818492ba001492b9801492b9001492b88010595bc00017bcac0007bc9b8007bc8b0007bc7a8009567c0199568e01950200802c5c79567ff079577610633084050200a0205c59567ff07957739957900068298407b68b0008298387b68a8008298307b68a0008297287b67b80033077002037b679800837733000c020a0333020e0228e04e50220e02dd4e520790098269980050221002a44649292006959c00067bc8187bc7109568ff07958841067bca0864b750201202cbc53a078000023a088800029569ff079599397b9700063a079000027b98f8053a0a9800027b97f00564973308209569ff07959921067b7ae8058267b8005020140267c733087002028388330733090a0728b2168388330733090a0728a716492960064929580649295006492948069567001083778006330016020a0a33021802281d4b502218021a4b50221a02484d510706280f108267b800817756172307281310956700108377a00633080433001c020a0133021e0228e64a50221e02e34a82b96882b77082b87882ba80007b6ab8067b68b0067b67a8069567c0069568a0067b69a00650202002362b8267d8067b67b8008267d0067b67b0008267c8067b67a8008267c0067b67a00095678006330840502022027ac3956b000682b7980082b8900082b9880082ba8000502224020a4e520730088267a000956900067b97608267a8007b97688267b0007b9770956860068267b8007b977864a77b6ab8003300c6022862c49567381849278002492778024927700249276802956700208377a0fa330026020a0a3302280228dd4a50222802da4a82b77882b8800082b97082ba68d49808d4a707d4870751070628140f8267b8008177330843ac780628160f9567601233002a023302f80328214e95683810958900028297287b67b8008297307b67b0008297387b67a8008297407b67a000956700208377c0fa3308240a019567381895790002829888007b689800829890007b689000829898007b6888008297a0007b67800033077002037b6778837733002c020a0333022e02286d4950222e026a49956a3810826b800095ac00017bcbe000826b88007bcbd800826b90007bcbd000826b98007bcbc800826ba0007bab0002826ba8007bcbf800826bb0007bcbf000826bb8007bcbe80095ab00027bb9187bb7107bb808956740129568201295690012492a200250203002c02f9567e01133084050203202d4c1956a381095ac000182cbc00082c8b80082c9b00082c7a80050223402344752088606492aa001492a9801492a8801019568c011492a90017b67b8003300c60228c9c2492920064929180649291006492908069567001083774006330036020a0a33023802287b4850223802784850223a024c495207b40d8267b8008177330863ae78b80d9567400633003c023302f80328a04c826740067b67b800826748067b67b000826750067b67a800826758067b67a0009567200633003e023302020428714c826720067b6778826728067b6770826730067b6768826738067b676095670010837760063308440a0195673810957900068298287b6898008298307b6890008298387b6888008297407b67800033077002037b675883770a0382695882970881981082996f77977a206f88988820d48a0a9877206f98978920d49707988820826980007b69d805826988007b69d005826990007b69c805826998007b69c0054926f8058269a000956b00067bb9188269a8007bb9108269b0007bb9088269b8007bb97b68f0057b67e805956700069568e0059569c0057b6ae00550204002bf28826780007b677805826788007b677005826790007b676805826798007b6760058267607b6798058267687b6790058267707b6788058267787b6780058267a0007b67b8058267a8007b67b0058267b0007b67a8059567a0059568800595696005826ab8007b6aa00550204202a32d9567400533084050204402b7bf956b000582ba5882b85082b94882b740502246023645520871044926380549263005492628059568200549262005017b67b8003300c60228b4c0956738184927400349273803492730034927280395670020837760fb0a0a01956a381895ab000382b73882b84082b93082ba28d49808d4a707d487075207b60b8267b8008177541703bd0b9567e0143308405020480225bf956a381095ac000482cbc00082c8b80082c9b00082c7a80050224a0285445208d7033a0820000295ac00047bc8a0003a0b2800023a083000023a093800027bcb98007bc890009568c0147bc988007b67b8003300c6022803c04929a005492998054929900549298805956700108377c00533004c020a0a33024e02286b4a50224e02684a82b7980082b8a00082b9900082ba8800d49808d4a707d4870752071f0b8267b8008177330843ae78230b9567a004330050023302f80328c749956800048287b0007b6798008287a8007b67b0008287a0007b67b8009517e08477e07b67a0006471956700108377e0053308240a0195673810957b000582b8c00082b9b80082bab00082b7a8007b6850826ba0007bb8187b69487bb9107b6a407bba087b67387bb733077002037b67a80083777b6790000a03018269a8008097108298829908d48707d497075107950a826798009777209878208267b0008269b800d497077b689800d487075107d70a826790000a038269a80082970881981082996f77977a206f88988820d48a0a9877206f98978920d49707988820492698047b6890047b678804956880047b6a8004330750205202a9be492678044926700449266004013307209568600449266804502054028bbe3308640202390764020256173f0b200364020240019517e08479e07b697864913307700202837783997b6888003308407b678000330056020a06826a7833025802285047826a78502258024a477b67706f877b67686f977b67606fa77b67589517e08477e07b6778647149265804826798007b6750048267b0007b674804956840048267b8007b674004330750205a02f9bd826758956a00047ba7388267607ba7308267687ba728330720956820048269707ba92050205c02d0bd82688800818756173f08480840019517e08477e07b67880064718379330840826780000a06826a880082a71882a81082a90882aa6f7b6f886f996faa8267787b7a187b79107b78087b7b8268a00050205e02f1be956700043308405020600235bc956b000482b71882b81082b90882ba50226202ca465207f0008267387b67e0038267407b67e8038267487b67f0039568e0038267507b67f80364a77b6aa000502064022abd82679000330066020a038269a8003302680228133f8269a800502268020c3fd4780298aa206f99979820d4a80898992049269803826798007b6790038267b0007b6788038267b8007b6780034926b8033a0ae000023a0be800023a0cf000023a07f800027b6ad8037b6bd0037b6cc8037b67c0037b69b0037b68a8033308209569c003956aa003956b80037b62a0038267a00050206a02dabe9567600333084050206c024abb956b000382ba7882b87082b96882b76050226e02c94051089e09004926580249265002492648029568400249264002033307502070024cbc502272023b463a020001023a0a0801028268309587207b6750d88707826820c878097b6948d88908da77083a0c1001023a0718010264207bb2187b6a787bba1064c27bbc087b6b980064797bb7826728c878087b6840d87807826818c887077b6738017b6980007b62880050227402e43f520a06285de695672002826898007b63a8007b64a00050207602b1bc502278026a40d8c802826cb000826a38c8ac0cc82c0c50227a02f143520839ff956a000282a93882a83082ac2882ab207bab7bac087ba810956800027ba9187b64b80050207c0276bb50227e02b43d6402826c98007bc00864a97bca644a7bca1064707bc7187b6a787b63b800648464b32865ff956938104929e0004929d8004929d000956800114929c800043307502080022abb5022820219453a026000023a0a6800028268309587207b6750d88707826820c878097b6948d88908da77083a0c7000023a0778000264207bb2187b6a787bba1064c27bbc087b6b980064797bb7826728c878087b6840d87807826818c887077b6738017b6980007b62880050228402c23e520a06289bed9567e010826898007b63a8007b64a000502086028fbb50228802483fd8c802826cb000826a38c8ac0cc82c0c50228a02cf42520817fe956c381082c2c00082c8b80082c9b00082cba8007bcb88007bc990007bc898009568c0107bc2a0007b64b80050208c024bba50228e02893c6402826c98007bc00864a97bca644a7bca1064707bc7187b6a787b63b800648464b3285cff3308700202838833070133090a0728480b3308700202838833070133090a0728370b3308700202838833070133090a0728260b3308700202838833070133090a0728150b3308700202838833070133090a0728040b3308700202838833070133090a0728f30a3308700202838833070133090a0728e20a3308700202838833070133090a0728d10a3308700202838833070133090a0728c00a3308700202838833070133090a0728af0a3308700202838833070133090a07289e0a3308700202838833070133090a07288d0a3308700202838833070133090a07287c0a3308700202838833070133090a07286b0a49261001492608014926000133029002140700000000717b484e01956800017b67180133075020920207b94926f8004926f0004926e000223307049568e0004926e80050209402e9b8390864020256183f12200364020240330870020228fa05330870020228f2053308700202838833070133090a0728f2093308700202838833070133090a0728e1094929580149295001492948011407000000003f7d51e29568ff07958881017b9760013307502096027eb8826720330098020a0382697033029a0228203982697050229a021a3949294001959b00017bb8387bb7303307049568ff07958861017bba2850209c0240b88267409568ff07958839958900017b97208267307b97188267287b9710648a3307249568ff07958841018269387ba9080150209e0209b882679800817756175f1a826898004808603307013309448268b8000a0728fa003307013309448268b8000a0728eb009567ff079577394927980149279001492788016479140700000000052f44ec9568ff079588c1017b97a00133075020a002a7b79567ff0795773949278001492778014927700164793307049568ff079588a101492968013300a4022879b79567ff079577394927d8014927d0014927c8016479140700000000717b484e9568ff07958801027b97e00133075020a20249b79568ff079588394928c0014928b8014928a8011164893307049568ff079588e1014929b0015020a4021eb782679800817756173f19826898004808403307013309248268b8000a07280f3307013309248268b8000a07013308700202838833070133090a07281a083308700202838833070133090a072809089567ff079577394927980749279007492788076479140700000000717b484e9568ff079588c1077b97a00733075020a6029db69568ff079588394928800749287807492868072264893307049568ff079588a107492970075020a80272b6390864020256183f1220036402024033087002022883033308700202287b033308700202838833070133090a07287b073308700202838833070133090a07286a07491a78491a701407000000002b20fc8d7ba780009568ff079588a100491a6833075020aa020ab6390864020256181f112003640202203308700202280833087002020183883307013309040a07013308700202838833070133090a07280b073308700202838833070133090a0728fa0652471f7447d53803956738184927e0024927d8024927d0024927c80295670020837700fb3300ac020a0a3302ae0228313c5022ae022e3c5022b002913f5107b1033308700202838833070133090a0728a8063308700202838833070133090a072897063308700202838833070133090a072886063308700202838833070133090a072875063308700202838833070133090a072864063308700202838833070133090a072853063308700202838833070133090a072842063308700202838833070133090a072831063308700202838833070133090a072820063308700202838833070133090a07280f063308700202838833070133090a0728fe053308700202838833070133090a0728ed053308700202838833070133090a0728dc053308700202838833070133090a0728cb053308700202838833070133090a0728ba054926f0024926e8024926e00214070000000005df02e69568e0027b67f80233075020b2025bb44926d8024926d0024926c8023307049568c0024926c0025020b4023eb4390864020256183f122003640202403308700202284f013308700202284701492630034926280349262003140700000000620d2894956820037b67380333075020b602f9b349261803492610034926080333070495680003492600035020b802dcb3390864020256183f12200364020240330870020228ed00330870020228e5004926500149264801492640013302ba02140700000000717b484e01956840017b67580133075020bc0292b34926380149263001492620014133070495682001492628015020be0274b3390864020256183f1220036402024033087002022885003308700202287d9567ff079577394927d8074927d0074927c80764793302c002140700000000717b484e01956800107b97e00733075020c20222b39568ff079588394928c0074928b8074928a8074164893307049568ff079588e1074929b0075020c402f7b2390864020256183f112003640202403308700202280833087002020183883307013309240a07014926580349265003492648039568400349264003017b67b8005020c602b1b23308208267b8005020c802b3b6837833092033073300ca020a07280e33092033073300ca020a07015247a7c9ff0151956738104927200549271805492710054927080595670010837740053300cc020a0a3302ce0228e33c5022ce02e03c5022d002fe385107fb003308700202838833070133090a0728710352475df12f2f8100956738104927a006492798064927900649278806956700108377c0063300d2020a0a3302d40228db375022d402d83782b7980082b8a00082b9900082ba8800d49808d4a707d48707510731023308700202838833070133090a07280c038267b800817756174397003308700202838833070133090a0728f0025247be8a5636af0195673810492700074927f8064927f0064927e80695670010837720073300d6020a0a3302d802285a375022d802573782b7f80082a8000782b9f00082bae800d49808d4a707d48707510716023308700202838833070133090a07288b028267b8008177561723b1013308700202838833070133090a07286f0295670020837720fb3308040a0195673818957900028298e8007b68b8008298f0007b68b0008298f8007b68a800827700037b67a000956780133300da023302020428173b95683810958900038297487b6798008297507b6790008297587b6788008297607b6780008267a0007b97208267a8007b97188267b0007b9710648a95676013956840138269b8007ba908035020dc02f616956b381095bc000382c82882c73082c93882ca407bca95ba00027ba9f8007ba7f000956720137ba8e8005020de02a3249567381082688000957900027b98a000826888007b989800826890007b989000826898007b9888008268a0007b98c0008268a8007b98b8008268b0007b98b000647b956700139568e0129569c012826ab8007bbaa8023300e0023302200528ba3833087002022892ea5247686c9642d4009567381849176049175849175049174895670020837780f80a0a01956a381882a75882a86082a95082aa48d49808d4a707d48707510702013308700202838833070133090a0728f0008267b8008177561743f9003308700202838833070133090a0728d40095670010837760053308040a013302e2029568381001958b000582b74082b93882ba2882b830977b2098bb20d4a909d48b0bd49b0b510bcc013308700202838833070133090a07288a008267b8008177330843ac7824023308700202838833070133090a07286c52479067cc7950956738184927200149271801492710014927080195670020837740f93300e4020a0a3302e6022823375022e60220375022e802a9355107f9023308700202838833070133090a07281c3308700202838833070133090a07280c838833070133090a07018267b8008177561723da02330870020228e6956700108377e0063308040a0195673810957900068298a8007b68b8008298b0007b68b0008298b8007b68a8008297c0007b67a0009567a0073300ea02330202042899388267a0077b6798008267a8077b6790008267b0077b6788008267b8077b6780008267a0007b6778078267a8007b6770078267b0007b67680795678007956860078269b8007b6960075020ec027b14826880078267880782699007826a98077b6a58077b6950077b674807956740077b6840075020ee022e2282678000956800067b87f800826788007b87f000826790007b87e800826798007b87e0008267a000956b00077bb7188267a8007bb7108267b0007bb70895672007956800079569e006826ab8007bba3300f0023302de04284c3633087002022824e8140a000000000bdb6579d37a0ad48a0ad49a0a88aa01140b00000000a7c9ff01d3b707d48707d49707887701d4a7074926d8004926d0007b67c000330780009568c0004926c8005020f2024dad390864020256289f00182003640202a000330770020283788000289efa3307700202837880002892fa9567ff07957781003300f402330202042836379567ff079577398278607b68a0008278587b68a8008278507b68b0008277487b67b80033077002037b67980083770a03018269980082970882988199106f77987a206f88978b20d4ba0a9777206f99989920d497079888208269a800979920989920d398088269b800d39707d487078268b000d3a808d487075207540195670010837740073308040a0195693810959b000782ba0882b71082b81882b920826ba000956c00107bcb18f8826ba800956c00107bcb10f8826bb000956c00107bcb08f8826bb800956c00107bcb00f8956bff0795bb397bb97bb8f8956800107b8728f89567ff079577419568ff079588219569ff07959901956b00107bba20f83300f6023302200528b13433087002022889e68267b8008177330843ac78fd0033087002022819fd956700208377a0f83308040a01956738188278687b68b8008278707b68b0008278787b68a800827780007b67a00033077002037b67980083773300f8020a03826998003302fa0228552c826998005022fa024e2c826ba000959c00037bcbe000826ba8007bcbd800826bb0007bcbd000826bb8007bcbc800492900047bc8f8007bc7f0009567ff07957721049568ff07958801047bcae8005020fc029c26330870020228cee59569ff0795993949193849193014070000000032b297667b97409568ff0795886149192833075020fe0218ab390864020256181f1220036402022033087002022816f53308700202280ef59567ff0795770106330000033302f803280b359568ff07958839958900058297c8007b67b8008297d0007b67b0008297d8007b67a8008297e0007b67a00095670020837760f93308240a0195673818957900018298287b6898008298307b6890008298387b6888008297407b67800033077002037b67788377330002030a0333020403285430502204035130956aff0795aa39826b800095ac00057bcb8000826b88007bcb78826b90007bcb70826b98007bcb68492aa005826ba0007bcbc000826ba8007bcbb800826bb0007bcbb0007bc998007bc790007bc8880064ab9567ff079577e1059568ff079588c1059569ff079599a105826ab8007bbaa805502006034811826780009568ff07958839958900057b9740826788007b9738826790007b9730826798007b97288267a0007b97608267a8007b97588267b0007b9750648a9567ff07957781059568ff07958861058269b8007ba9480550200803e9243308700202281be4951130ff7b10c8007b15c0007b16b8009515d0008411f08289187b19108289107b19088289087b1982867b17289517900033084050200a031da8821898008219900095671fd86700821ac80a0b8477e0c8b803c879027b1920d8920cc8c303d383067b1818d88309da6c098214a800d8ab0b8216a000da000b821708c87b0bd87b0cc86b0bc89b0a821710c84707c8c707d8ba0cd86b0bc8b707c8c70b8eb78eacdbb70cd4ba078e38db7c08520865d86a07d34b08d84b0cda870cd36a07d48707db7c0952094d7b12707b13787b1a80003307409518707b1b88007b141050200c03ada88217288218107b78187b76108218187b78088218207b78955130ff8210c8008215c0008216b8009511d000320049116049115849115033020e03140700000000717b484e019518507b17683307502010035aa8491148491140491130413307049518304911385020120341a8390864020256183f0b2003640202400133087002028388330701330924330014030a0701951170fe7b1088017b1580017b167801951590018411f08284829b088280088296954a1fd84a02c8200c7b1620d86a03d3bc0a7b1b28d8bc0bdaa30b828610d80c0ada220a829c18828218829310c86a0ad86a08c82808d3c8097b1c10d9c808d83a0cda9c08d33a0ad4a909db980b510bbf027b17087b1318d464077b10387b1230d42008d487079877207b1658d46808978820d4870752079602951750017b145064485020160339a6821a680182196001821b58018ea78e98dba7087b1980007b1a8800d4a9078eb9db7809520968028218500195871f7b1848d887087b1b78c8b8088488018477e0957920d87907c8780ad88a0bda770b492128017b1910017b1a180195173001951810017b1b2001502018037bfd82194801821a400182183801821730017b18407b1968d48909d4a708d498089888207b1a70d4a909979920d498085208e8018216487b16f0008218787b18f800821880007b1800019518f000821988007b1908017b176050201a03a9a6821750c8670ad87a09821438821778c84707c89707d3470bd84708dab90882135882198000c8390995ac20d8ac02c8270b821a20d8ca0c821a28d3ab06d8ba0adb6a0cd8390a82133082168800c83606c86a0ac89808d89809c8a909d87b07da2207c88707d88708c89808821a10d3a809d88a08821b18d87b0ada9a08d3b707d49707db780c520caa01821770821868d478081407e0ffffff00000000821b60d87b09821a4094a9948951090f0164ba821858d43808821c50d87c07944794878210880082198000821b788216485107eb00d49607d40b08d48707987720d49808978820d487075207d20083a72083c8207b1858646850201c03bca97b1750821758646850201e03aea96478821750646950202003d3a3821860c86807d88708821640821978c86909c88909d3690ad8690bdaa80b821c7082188000c8c808c88b0bd88b02d8c808821c8800821a68c8ac0cc8c808c82808d4b808140ae0ffffff00000000d8a70a949a948a510a4d8377204921e8004921e0004921d8009518d0004921d000502022031da58217088218687b78188218707b78107b76088218607b78955170fe82108801821580018216780195119001320000330870020228774921c0004921b8004921b00033022403140700000000717b484e019518b0007b17c800330750202603bda44921a8004921a00049219000413307049518900049219800502028039fa4390864020256183f0b20036402024001330870020283883307013309240a07330870020228083308700202018388330701330933002a030a07019511a0fd951900027b90587b95507b9648951560028411e064168289107b69308289087b695082887b68587b67384926180249261002492608029568000249260002330750202c031ba44926f8014926f0014926e001063307209568e0014926e80150202e03fda33308640202390764020256173f0b200364020240019517e08479e07b692864913307700202837783997b68483308407b6740330030030a063302320328d02550223203cd258267309777209877204926d8017b677b67d0018267507b67c8019568c0018267587b67c0013307502034038ba3826708956a00017ba7b8008267107ba7b0008267187ba7a8003307209568a0018269207ba9a000502036035ea3826848818756173f0e4808403302380328132d50223803102d33003a030a06826a3033023c03280c27826a3050223c0306279567800150203e0314a47c678001510708330828f201492678014926700149266801956860014926600150204003fca250224203242850204403f0a2826848818756173f0e4808403302460328a52c50224603a22c330048030a06826a3033024a0328d02b826a3050224a03ca2b7b67286f877b67206f977b67186fa77b67109517e08477e07b673064714926380182677b6730018267507b672801956820018267587b672001330750204c037da2826710956a00017ba7188267187ba7108267207ba708330720956800018269287ba950204e0355a2826848818756173f08480840019517e08477e07b674864718379330840826740330050030a06826a483302520328e524826a4850225203df248268307b8a187b89107b8b087b879567e00050205403f6a28267e0008268e8008269f800826af000847700ff867701956b00027bb9387bba307bb8287bb720956820028267305020560345a333077002037b67488377330058030a0382694833025a0328b42382694850225a03ae23d4780298aa206f99979820d4a8089899204916784926980082677b6790008267507b6788008267587b6780004926b8004926b0004926a8004926a0003a0a2001023a0b2801023a0c3001023a073801027b6ad8007b6bd0007b6cc8007b67c0007b69707b68689569c000956aa000956b8000956c607b62603307330850205c0337a4330801018269387b984919084919104919189551a0fd951700028270588275508276489511600232003a074001027b67207b6738023a084801023a095001023a0758010250226003712950206203dba050226403572450206603cfa03308640202390764020256173f0b200364020240019517e08479e07b694864913307700202502268030f2b33006a030a0633026c0328782150226c03752150206e038ba0502270036525502072037fa0826868818756173f0e48084033027403286b23502274036823330076030a063302780328ef2250227803ec2250207a033fa17c67a001510711330833078269583302a203287b2350227c03172750207e032ca0502280038e235020820320a0826868818756173f0e48084033028403280c23502284030923330086030a0633028803283121502288032e2150208a03ee9f50228c03f12450208e03e29f826868818756173f08480840019517e08477e07b676850229003c323330092030a0633029403288e22502294038b22502096039fa050229803be2250209a0316a133077002037b6768837733009c030a0382696833029e0328852182696850229e037f21d4780298aa206f99979820d4a808989920492698004926b80082677b67b0008267707b67a8008267787b67a0008267207b67d8008267187b67d0008267107b67c8008267087b67c0003a0a6001023a0b6801023a0c7001023a077801027b6af8007b6bf0007b6ce8007b67e0007b6990007b6888009569e000956ac000956ba000956c80007b628000330733085020a003f7a133073308018269585022a203232232003a078001027b67207b6738023a088801023a099001023a079801025022a6034a275020a803b49e5022aa0330225020ac03a89e3308640202390764020256173f0b200364020240019517e08479e07b6948649133077002025022ae03e8283300b0030a063302b20328511f5022b2034e1f5020b403649e5022b6033e235020b803589e826868818756173f0e4808403302ba032844215022ba0341213300bc030a063302be0328c8205022be03c5205020c003189f7c67a001510711330833078269583302e8032854215022c203f0245020c403059e5022c60367215020c803f99d826868818756173f0e4808403302ca0328e5205022ca03e2203300cc030a063302ce03280a1f5022ce03071f5020d003c79d5022d203ca225020d403bb9d826868818756173f08480840019517e08477e07b67685022d6039c213300d8030a063302da032867205022da0364205020dc03789e5022de0397205020e003ef9e33077002037b676883773300e2030a038269683302e403285e1f8269685022e403581fd4780298aa206f99979820d4a808989920492698004926b80082677b67b0008267707b67a8008267787b67a0008267207b67d8008267187b67d0008267107b67c8008267087b67c0003a0aa001023a0ba801023a0cb001023a07b801027b6af8007b6bf0007b6ce8007b67e0007b6990007b6888009569e000956ac000956ba000956c80007b628000330733085020e603d09f33073308018269585022e803fc1f32009511e0fe7b1018017b1510017b160801951520018411f0828b10828a18828c0882827b1a687b1c78d4ac08d4b20ad48a0a98aa207b1b70d4b808978820d4a8087b170852084b028297187b17488296108297087b175082977b17584921f8004921f0004921e8009518e0004921e0002064277b12605020ea03399c821858d46807821948821a50d4a909d497079877207b1620d46909979920d497075207f2019517c0005020ec03d09a821770821868d47808140700000000010000007b17101407e0ffffff00000000821960d87907821a7894a77b181894875107b401821ad800821bd000821cc8008218c0008397207b18287b18a0007b1c307b1ca8007b1b387b1bb0009518a0007b1a407b1ab80064965020ee039b9b8217109577c0d876078218789487821818948751076201821748821820d487071408e0ffffff00000000821a58d88a08821b5094b8947851083e016469821828821c38d4c807821b40821630d46b0bd4b707987720d4cb0b97bb20d4b7075207170183974083aa207b1a5864865020f003379f7b175082175864685020f203299f647882175064695020f4034e99821760c86707d86708821978821b30c8b909c88909d3b90ad8b90bdaa80b821870821a38c8a808d8a80a821c68821640c86c0cc8ca0ac88b0bd88b08c8a808d4b808140ac0ffffff00000000d8a70a949a948a510a940083774049219800492190004921880095188000492180005020f603999a82162895661f1407e0ffffff01000000d26707821860c88707d88708821a78c88a09d8a90ada880a821870c88a0ad88a08821b68c8b808957b40d87b07c8790cd89c09da7709c8a909d8a907c887078218087b8b7b8c087b89107b87189551e0fe821018018215100182160801951120013200003308043300fa030a013302fc0328c0215022fc03bd21510a0b5022fe032e233200330870020283883307013309330000040a0733020204281024502202040d24330824330004040a0133020604288021502206047d21510a0b50220804ee22320033087002028388330701330933000a040a0701951140ff7b10b8007b15b0007b16a8009515c0008411e064168289828a08828b108288187b67187b68787b6b707b6a689568607b6960330750200c0473994916584916504916400633072095684049164850200e045a99390864020256183f0b200364020240019517e08479e07b69106491330770020283778399330840330010040a0601826a1082a782a80882a91082aa1850221204e51e95aa0188ab01c8b909d49a0b88bb01c88b0bd88b08c887077b6a80007b6988007b6b90007b6798009567209568800050201404d599826730826838826920826a28826b187bb7107bb8187bb97bba08955140ff8210b8008215b0008216a8009511c00032009511e0fc951a00037ba0187ba5107ba608951520038411e06416829a187b6a9800829a107b6a9000829a087b6aa00082997b69a8008289107b6988008289087b69800082887b68788279827808807710140affffffff000000007b6a704926d8027b67407b67d0027b68307b68c8029568c0027b69387b69c00233075020160431984926b8024926b0024926a002013307209568a0024926a8025020180413983308640202390764020256173f0b200364020240019517e08479e07b696864913307700202837783997b68b0003308407b67b80033001a040a06826a6833021c0428431d826a6850221c043d1d8267788477ff826880008488ff82698800826a70d2a909492698027b69787b6990027b6880007b688802956880027b6788007b678002330750201e048897826748956a00027ba7788267507ba7708267587ba768330720956860028269607ba960502020045f978268b000818756173f08480840019517e08477e07b6770502222045d20330024040a06826a703302260428b01d826a7050222604aa1d956740025020280411988260580282635002826b480282624002d20b07d23208d287073308ffaa87fc018267a800d872098268a000d38b07d88b0c7b6950da790c82699000d8930a82689800d38007d880087b6a28da7a08d39309d497077b6c48da7c087b62707b6b687b60607b63585208c901826a40826938d4a907826430d447075107880282678800826878d4870782688000d487075107b702492638027b6920027b642802956820027b6a3002330750202a04719649261802492610024926000201330720956800024926080250202c0453968268b000818756173f08480840019517e08477e07b674050222e04511f330030040a06826a4033023204282f1f826a4050223204291f7b67386f877b67306f977b67206fa77b67189517e08477e07b674064714926f8018267787b67f001826780007b67e8019568e001826788007b67e001330750203404d995826718956a00017ba7d8008267207ba7d0008267307ba7c8003307209568c0018269387ba9c00050203604ac958268b000818756173f08480840019517e08477e07b67b00050223804a91e0a068269b00082976f77829808826c407bc7188297108299186f887bc8106f777bc7086f977bc782679000826858c97807826948c99708d8970782699800826a60c99a09826a28c9a909c979098267a000826a68c97a07826a50c9a707826aa800826b70c9ab0a956b00027bb9f8007bb8f0007bb7e8007bbae0009568e00264c750203a047c969551e0fc95170003827018827510827608951120033200492630014926280149262001140700000000b2418ffb956820017b673801330750203c04ca9449261801826778956a00017ba710826780007ba70833070495680001826988007ba950203e04a2948267607b67f8008267587b67f0008267687b67e8003307249568e0008269707b69e000502040047994826798007b67d800826790007b67d0008267a0007b67c8003307449568c0008269a8007b69c000502042044c948267b000817756177f158268b0004808800033070133096428c8003307013309648268b80033004a040a0728c00049267001492668014926600114070000000005df02e6956860017b677801330750204404f89349265801492650014926480133070495684001492640013300480428d7934926b0014926a8014926a001140700000000620d28949568a0017b67b801330750204604b49349269801492690014926880133070495688001492680015020480497938267b000817756173f138268b00048084033070133092428143307013309248268b80033004a040a07280d8268b80033004a040a0701951120fc951a00037ba0d8007ba5d0007ba6c8009515e0038411e06416807c10827a827b087b6a787b6c68d4ca077b6b70d4b70751073404828710828a088288330bff140cffffffff00000000d2ba0ad2b808d2c7077b68487b6738d487077b6a40d4a707510763048297187b6798008297107b6788008297087b67800082977b67900050204c04f81249263803826768956900037b97308267707b9728956820038267787b9720330750204e04b19249261803492610034926080333072095680003492600035020500494923309640202390764020256173f0b200364020240017b69589517e08479e07b695064913307700202837783993308407b6760330052040a06826a503302540428411a826a50502254043b1a7bba587bb9507bb8487bb7409567e00295684003502056042193956800028289f8008287f000828ce800828be00082689800d389037b6928d8890882698800d8970a7b6a10da3a08826a8000d3ac027b6c30d8ac0c826a90007b6b50d8ab0a7b6a18da2a0c7b6720d37909d439077b6c08da7c085208a6034926d802826778956900027b97c0008267707b97c8009568c0028267687b97d000330750205804a8914926b8024926b0024926a8023307209568a0024926a00250205a048b9182678800826820c97807826908c997087b6820d8970782689800826928c98908826910c99808c978087b6828826958819782688000826a30c98a08826a18c9a8087b6830330b3f82689000826a50c98a0a7b6a50ac7b07480940019517e08477e07b671850225c041e1533005e040a06826a1833026004280019826a1850226004fa187bba787bb9707bb8687bb7608267287bb798008267207bb790008267307bb788008267507bb78000956760039568800350206204479249269802826738956900027b9790008267407b978800956880028267487b978000330750206404a990502266042a1a502068049d908268589517e08477e07b67506471818756173f08480840019517e08477e07b675850226a0473140a06826a5882a71882a81082a90882aa6f776f8b6f996faa8268507b8a187b89107b8b087b879567400250206c043891826748028268400282625802826a5002826b8000c87b0b826c9000c88c0cd88c08c88b0bd37b09d87b07da980782688800c8a80882699800c89202d8a809c82909c88707d88708c89808956900037b9ca0007b9ba8007b97b0007b98b8009568a00382675050206e0450919567200233084050207004948e956b000282ba3882b83082b92882b7205022720413145208be0082689000956a00027ba8826880007ba808826888007ba81095680002826998007ba9187b67980050207404878f4926b801826738956c00017bc7b0008267407bc7a8008267487bc7a0004926d8018267687bc7d0008267707bc7c8003a07c001023a08c801023a09d00102826a787bcac0007bc7f8007bc8f0007bc9e8003a07d801023308209569e001956ac001956ba0017bc7e00082679800502076045d91955120fc951700038270d8008275d0008276c8009511e0033200004926d0004926c8004926c0001407000000001efdc6969568c0007b67d800330750207804d38e4926b8004926b0004926a8003307049568a0004926a00050207a04b68e390864020256183f112003640202403308700202286833087002022861492610014926080149260001140700000000052f44ec956800017b671801330750207c04738e4926f8004926f0004926e8003307049568e0004926e00050207e04568e390864020256183f112003640202403308700202280833087002020183883307013309240a07014926900149268801492680011407000000008cd350e4956880017b679801330750208004098e492678018267687b6770018267707b676801330704956860018269787b69600150208204e38d8267287b6758018267207b6750018267307b674801330724956840018269507b69400150208404ba8d82679800956a00017ba738826788007ba730826780007ba72833074495682001826990007ba920502086048d8d826758817756177f0c8268584808800001330701330964826860330088040a0701951160fe7b1098017b1590017b1688019515a0018411e064163a07e001027b67387b6778013a08e801023a09f001023a07f801027b68287b6870017b69207b696801956860017b67307b676001330750208a04178d50228c043f1250208e040b8d3308640202390764020256173f0b200364020240019517e08479e07b696864913307700202837783997b68783308407b6770330090040a0633029204281112502292040e1233077002037b676883777b6718330094040a033302960428451050229604421050209804a08c50229a04241450209c04948c826878818756173f0e48084033029e04285e1650229e045b163300a0040a063302a204280e125022a2040b125020a404548d7c67e000510719955160fe8210980182159001821688019511a00132005022a60467135020a804398c8267183300aa040a033302ac042898105022ac0495105020ae041d8c8267387b6798008267287b6790008267207b678800330724956880008269307b6980005020b004f48b826778817756175f0b826878480860013307013309448268703300b2040a0701951160fe7b1098017b1590017b1688019515a0018411e064168279827808827a108277187b67207b6778017b6a287b6a70017b68307b686801956860017b69387b69600133075020b404888b5022b604b0105020b8047c8b3308640202390764020256173f0b200364020240019517e08479e07b696864913307700202837783997b68783308407b67703300ba040a063302bc042882105022bc047f1033077002037b676883777b67183300be040a033302c00428b60e5022c004b30e5020c204118b5022c40495125020c604058b826878818756173f0e4808403302c80428cf145022c804cc143300ca040a063302cc04287f105022cc047c105020ce04c58b7c67e000510719955160fe8210980182159001821688019511a00132005022d004d8115020d204aa8a8267183300d4040a033302d60428090f5022d604060f5020d8048e8a8267207b6798008267287b6790008267307b678800330724956880008269387b6980005020da04658a826778817756175f0b826878480860013307013309448268703300dc040a073302de0428e9125022de04e6127b6a50829a087b6a7082997b69788289828a08828b108288187b67587b68087b6838027b6b107b6b30027b6a187b6a2802956820027b69207b69200233075020e004f5895022e204710d5020e404e9893308640202390764020256173f0b200364020240019517e08479e07b6948649133077002025022e60429143300e8040a063302ea0428920a5022ea048f0a5020ec04a5895022ee047f0e5020f0049989826868818756173f0e4808403302f20428850c5022f204820c3300f4040a063302f60428090c5022f604060c5020f804598a7c67a0015107113308330782695833021e0528950c8267207b6780018267187b6788018267107b679001956880018267087b67980133075020fa042a895022fc048c0c5020fe041e89826868818756173f0e48084033020005280a0c50220005070c330002050a0633020405282f0a502204052c0a50200605ec8850220805ef0d50200a05e088826868818756173f08480840019517e08477e07b676850220c05c10c33000e050a0633021005288c0b50221005890b502012059d8950221405bc0b50201605148a33077002037b67688377330018050a0382696833021a0528830a82696850221a057d0ad4780298aa206f99979820d4a808989920492698004926b80082677b67b0008267707b67a8008267787b67a0008267087b67d8008267107b67d0008267187b67c8008267207b67c0003a0a0002023a0b0802023a0c1002023a071802027b6af8007b6bf0007b6ce8007b67e0007b6990007b6888009569e000956ac000956ba000956c80007b6280003307330850201c05f58a330733080182695850221e05210b32007b6a38829a087b6a7082997b69788289828a08828b108288187b67307b68407b6838027b6b487b6b30027b6a507b6a2802956820027b69587b692002330750202205958750222405110b5020260589873308640202390764020256173f0b200364020240019517e08479e07b69286491330770020250222805c91133002a050a0633022c0528630950222c0560098267389777209877204926f8017b67387b67f0018267707b67e8019568e0018267787b67e001330750202e051d87826708956a00017ba7d8008267107ba7d0008267187ba7c8003307209568c0018269207ba9c00050203005f086826868818756173f08480840019517e08477e07b672050223205d10a330034050a06826a2033023605289b0a826a2050223605950a9567a00150203805a3877c67a0015107ea018267587b6780018267507b6788018267487b679001956880018267407b679801330750203a05818650223c05e30950203e057586826868818756173f08480840019517e08477e07b672850224005560a330042050a0633024405285e08502244055b08492658018267387b6750018267707b674801956840018267787b6740013307502046052186826708956a00017ba7388267107ba7308267187ba728330720956820018269207ba92050204805f885826868818756173f08480840019517e08477e07b676850224a05d90933004c050a06826a6833024e0528a309826a6850224e059d099567000150205005ab86956b000182b782b81882b91082ba08847700ff956b00027bb8587bb9507bba487bb7409568400282672850205205fe8633077002037b67688377330054050a0382696833025605286d07826968502256056707d4780298aa206f99979820d4a808989920492698004926b8008267387b67b0008267707b67a8008267787b67a0008267407b67d8008267487b67d0008267507b67c8008267587b67c0003a0a2002023a0b2802023a0c3002023a073802027b6af8007b6bf0007b6ce8007b67e0007b6990007b6888009569e000956ac000956ba000956c80007b6280003307330850205805de87330733080182693033025a05280608330882693050225a05fe073200951180fc951900037b90787b95707b9668951580038411e06416807a108279827b087b69587b6a48d4a9077b6b50d4b70751077e038287187b67788287107b67688287087b676082877b677050205c05850449269802826748956900027b9790008267507b978800956880028267587b978000330750205e053b8450226005bc0d502062052f843309640202390764020256173f0b200364020240017b69389517e08479e07b693064913307700202837783993308407b6740330064050a0601826a3082a71882a81082a90882aa50226605af097b6ab8027b69b0027b68a8027b67a002956740029568a00250206805b68495680002828958828750828c48828b40826878d389037b6920d88908826968d8970a7b6a08da3a08826a60d3ac027b6c28d8ac0c826a707b6b30d8ab0a7b6a10da2a0c7b6718d37909d439077b6cda7c085208cf0249263802826758956900027b97208267507b9728956820028267487b9730330750206a054983492618024926100249260802330720956800024926000250206c052c83826768826818c978078269c997087b6818d89707826878826920c98908826908c99808c978087b68208269388197826860826a28c98a08826a10c9a8087b6828826a70826b30c9ab0b7b6b3056173f08480940019517e08477e07b67386471837933084082674033006e050a0601826a3882a71882a81082a90882aa502270057708956b00027bbad8007bb9d0007bb8c8007bb7c0008267207bb7f8008267187bb7f0008267287bb7e8008267307bb7e0009567c0029568e00250207205e18349261803492610034926080349260003029567e00195680003502074053f838268e8018262f8018263e001826af001826b60d3b807d8b80c826070d80304da740c826768c97a09d87a0a826778c97207c9a707d8c90ac9a707c9c90ac9b808c94808956b0003491b2002c903097bb9407bb8487bba507bb7584926380349263003492628039567200395684003502076054e839567c001330840502078059280956b000182bad80082b8d00082b9c80082b7c00050227a050d065208aa008268707b68a0018268607b68a8018268687b68b0019568a0018269787b69b8017b677850207c0585814926580149265001492648014926400149267801826748956c00017bc7708267507bc7683a074002023a084802023a09500202826a587bca607bc798007bc890007bc988003a0758020233082095698001956a6001956b40017bc7800082677850207e056883955180fc95170003827078827570827668951180033200004926b0004926a8004926a0001407000000001efdc6969568a0007b67b800330750208005e180492698004926900049268800330704956880004926800050208205c480390864020256183f0b20036402024001330870020283883307013309240a07014926300149262801492620011407000000008cd350e4956820017b6738013307502084057e8049261801826748956a00017ba7108267507ba708330704956800018269587ba95020860558808267207b67f8008267187b67f0008267287b67e8003307249568e0008269307b69e000502088052f808267787b67d8008267687b67d0008267607b67c8003307449568c0008269707b69c00050208a050680826738817756177f0c826838480880000133070133096482684033008c050a07019511807b10787b1570951580008411e04911584911504911484911400595172095184050208e05ae807c1720520712955180821078821570951180003200491110491108490114070000000065063cd964187b1718330750209005887fff390864020256181f0b20036402022001330870020283883307013309040a0733073300920528a0833307502092059b8333070150209405928382970881981082996f77977a206f88988820d48a0a9877206f98978920d497079888209569ff079599393202826a4882a71882a81082a90882aa6f777b67406f877b67386f977b67306fa77b67289517e08477e07b674864718267509777209877204926f8017b677b67f0018267707b67e8019568e0018267787b67e00133073202826a5082a71882a81082a90882aa6f777b67486f877b67406f977b67386fa77b67309517e08477e07b675064714926580182677b6750018267707b674801956840018267787b674001330732028269380182970881981082996f77977a206f88988820d48a0a9877206f98978920d497079888203202826b380188b98000826af000db9a08826cf800826a0801d4ca0ada970a93b8ff93baff826b0001939b939c82671801e0a70782692001e0890882692801e0c909826a3001e0ba0a956bff0795bbb900320282970881981082996f7a97a7206f889888203202826a2882a71882a81082a90882aa6f777b67206f877b67186f977b67106fa77b67089517e08477e07b672864713202826a800095aa0188a70182608800c87000d40a07887701826878c87804d8840882679000c887078268b800958320d88309826ba000c89b08d8b80bda990b8269a800c89b0bd89b09826cb000c89c0c7b6cb0003202826a5082a71882a81082a90882aa6f776f8b6f996faa8268487b8a187b89107b8b087b879567a001320282a71882a81082a90882aa6f776f8b6f996faa3202826a6882a71882a81082a90882aa6f776f8b6f996faa8268507b8a187b89107b8b087b879567000132029517e08477e07b6750647183793308408267603202956b000182b782b80882b91882ba10847700ff867701956b00027bb9587bba507bb8487bb7409568400282675032027b987b97087b97107b9718955180fd951700028270788275708276689511800232024926780149267001492660010633072095686001492668013202492618024926100249260002063307209568000249260802320282696882970881981082996f77977a206f88988820d48a0a9877206f98978920d49707988820492638017b6830017b672801956820017b6a20013307320282a71882a81082a90882aa6f776f8b6f996faa8268287b8a187b89107b8b087b8732026471837933084082676032027b6090008267708268b800d87807826960d39408d89409da8709826b68d8b307826a588268b000d3a80cd8a80adac70ad3b307d4c707da790a3202d49b0bd48709d4b909989920d4b808978820d498083202d49a0ad48709d4a909989920d4a808978820d49808320282696882970881981082996f77977a206f88988820d48a0a9877206f98978920d497079888204926b8007b68b0007b67a8003307049568a0007b6aa00032028264b8008263a0008260a800826850c84807d88708826b48c83b09c88909d3b90cd8b90bdac80b826c40c80c083202826728956a00017ba7d8008267307ba7d0008267387ba7c8003307209568c0018269407ba9c0003202826730956a00017ba7388267387ba7308267407ba728330720956820018269487ba92032024926580149265001492640010633072095684001492648013202826a6882a71882a81082a90882aa6f777b67586f877b67506f977b67486fa77b67409517e08477e07b67606471320282a71882a81082a90882aa6f777b67606f877b67586f977b67506fa77b67489517e08477e07b676864713202826a5882a71882a81082a90882aa6f776f8b6f996faa8268607b8a187b89107b8b087b879567e00032026f776f886f996faa320233073810c8760a95ab0006320282697882970881981082996f77977a206f88988820d4a8089877206f99979a20d4a7079899203202951180fd951900027b90787b95707b9668951580028411e064168289107b69508289087b697082887b68787b67583202939b82681801e0a80882692001e0790782692801e0b909826a3001e0ca0a3202977b3f988c01d4bc0397ac3f987701d4c70797883f989c01d4c80898aa018499019a9c320282a71882a81082a90882aa6f776f8b6f996faa8268687b8a187b89107b8b087b87320233073818c8760a95ab0002320282b71882b82082b91082ba08d49808d4a707d487073202da8709826728d87b04d33c08d83c0ada840ad3b707d48707da790a32028267207b6798018267187b6790018267107b678801956880018267087b678001330732028268b80095873fd88708c884098477e0826030c870007b60b800d8700732024926d0004926c8004926c0001407000000003f7d51e29568c0007b67d8003307320282ab7b1b1882ab087b1b2082ab107b1b2882aa187b1a308296829a087b1a829a107b1a088299187b191032028eb9858801dbb9088e498ecadac90ada780a3202826740956a00017ba7188267487ba7108267507ba708330720956800018269587ba9320282171082181814090000000001000000d37909d48909987a2088aa01948a939a3202826728826818d487071408e0ffffff00000000826a30d88a0882692094989478320282a71882a81082a90882aa6f776f886f996faa956b0003320282b75882b86082b95082ba48d49808d4a707d48707320233073818c8760a95ab0001320249262801330b33004926180149262001826a080182a71882a81082a9083202c88b0bd88b08c8c808d49808d4b709d48909d4b808989920978820d4980832027b67f8007b6800018267f000d487077b67f000826738019579803307ff3308ff32027b68187b6830027b69107b692802956820027b67087b67200233073202951180fd951a00027ba0787ba5707ba668951580028411e06416829a103202d4c809d4a707d47909989920d4c707977720d4970732028267b0008268a000d487078268b800648b8269a800d49808d47808988820d49707977720d48707320282a71882a81082a90882aa6f773202647183793308408267b80032028219821a087b697b6a087b67107b68189551c0821038821530821628951140320282c7a00082c8980082c9900082cb8800d49707d48b09d47909989920d48707977720d497073202d49707d48a09d47909989920d48707977720d4970732024926780249267002492668023307209568600249266002320297773b9878387b6838019a8980003307ff3308ff32029518e08488e07b68080164818377838933082032029517e08477e07b67306471837933084082674032029517e08477e07b67586471837933084082677032029517e0847be064b133074926b800330433034926b000320282b7d80082b8e00082b9d00082bac800d49808d4a707d4870732029511c07b10387b15307b16289515408411e0647683173202c8b707c88a0ad88a0cc8c70782600001c8a000d8a00a320297a8037b6838018d8980003307ff3308ff3202837783997b68683308407b67603202d4ca0ada980a3308ffdab807dab80a939c320233073810c8760a95ab00053202849a40520a195109148d9a40cfa80ad09808d09707d4a707320032009597c0d0780733083200849a40520a195109148d9a40d0a70acf9707cf9808d4a808320032009598c0cf87083307320049922425494b2a252da9944c4949214225a952484992244992244992244992244992244992244992244992244992244992244992542529a524292949a84a494a922449922449922449922449922449922449922449929224294955494a922849699204494a929424294949aaaa92942425a9242949929224a95029a524a9a4244911119192244990502a29292952a4489122458a14252922228a88889424494a92244142519122458a142952a4489122458a14295294481111519224082161284d4a432211111129228244442222222245444490484488888888886844444444922444442422424444444424922449222242d11189089124802495444444241289101149494424894492a42491449224494444442222918848082092949288888888488488484a22924892449244924814918888888888109188244992229148141122222a5122894812898888881091101111214992544a421211111111110a218249142a2589244924892449455125492489482249244992444a124924912451521512892449224992a4a4188924914892a42489888888882822224444244922498944129148922449924492241111110a4994422814a1aa229148ad8824129144244a442212919424892449922422890811111125222222422491249248241289249248441249228944442a2522228a2411119188889448922411499224928424422412892221442411420849121121992449928824912411114902484512494292442249924c128924428848921011894812222211214212254922222222928888109188244922424444258a4844242222222244448888889024492a458844444444448442886012854a9144924824892449455125492489482249244992444a1249442249a2a42a2412499244922449493112492291244949121111115144448888489244921289484422121111a1904429844211aa2a1289d48a4822114944a24424221149499248122222224492444444444488249244128944229144128948224924918848a544444491884412111191884422928824922491248808229148242208229208822088248988202262922449928888089124111191880490a8480411111111111131492489249108828848124444229204119188208248942489081111111111114188228a04114944414491202222222211458288888888483452928888881011414444448488082222222949922491489224892449922425222222440411458288242a888844044914229844a11245248248520411114992248944922411912411114482888808229188888808228a480449492222228410222222121111412488240531942a942a942a941a1111c0888288908820441012121111c0888288908820441012121111c0888288908820441012121111c088828890882044101212110144144444228210414848440410511022184a1a1111c088828890882044100a4b8a4804d544415542844844d188400202090824202090804002092490804002028988888846444492248a44448488082211110922912441124544444424222222a2481024519288884422914844248a041111914812918248442811118410c1240a158928221144514a12451289888888888244221211252222882293a844149108224911412422224124222282248a8888884844444444912048a248248888244112111111898888886844904449028888484444444444224622918848a488288818114a4410420493285424a2884410a594248a44221211111105898844a24444104526518928221144922288888888888804114112914824228a48444444140982248a44828888089288881091888888882241444492248a4482884812242112424822118988888822419044914810894422111121228888489248922452922449498a244992244992222291248924882448221211111111414594880449922449922491249594249124482222121111412249924444444444441011892449928888884444443422222249122589884824221111112922222222222412114248242212059188502222082182490a458928910421254a24414412918244224952221241149924881249101144224912912409a22422228844444452249224892491244992242949248908229188888888824844948808921445261144118920498a08221111118924492291244924492488481089481224118944222211442211111111114208912489888888088a4a44444444912048a2482488489224898808114144442449922491922492a4244592244992244911918844221241244112918824121141459488044992244992249124959424912448225292484404911291484422912222124444224992249228992449128924499224498aa0284a44444423922449124582888810114124228988888808111111114424884444444484288a0411414444444108910811a2444404a12a1111118d8888489244918808114124128922124444441011111111114524028988886844442449a2241111894444444444144422a2444410229844a1128d240511111111412422222222221244228888442211114524222222a2481024512408222242440491489248444488888888202241241289442244512488082292881484108910214a444410aa5295888888281204491489481409924444444410111111110922222288884422112922111111114582449224899244442212894422224544444444841445828888888888888888884812111144828888882022424444222222a2481044948888444444444444229148242245241289444825a994a42411111111119148248a88880822222222128944222222222222824810491244444488484444443422499244142241444444102122841011119188888828124444248928111189888888248a481111118924490a51345292882422918822a994a424111151101112118410c124858a4494488294529214111111519048922492208a4ca2124592aa92a408224124298844221189228828221124258988888808218488888844444410092249821811110a82109224491242494a549224191124111141904812442449492482a0489592a844444428084248922449082529514992644490444404412249101111111111110445aa944425944a2895502aa15442a9845209a5124a25944a2895502aa15442a984528988086044414448441022080909a5124a25220288888244892488481291209148929488441045248992448944440144444124224a444422115100115110890825228228224954120da5124a25121105101105918850222208118484845209a59204101129081184c292865209a5121011111151240822944a2895502aa15442a9845209a5124a25944a2895502aa15442a9845209a5121101441444442282104148484404105110118908420421211111018c2888088908420421a1484414018c28884484121141882014963422224490084a51291a88888888281204114a2520222222a2481011912442a94421944a404444444491202222498452894228958814111111111111894824128948245244441091244544441011111111111111514444442424209224a291244922944a1442a944a4889124499208a5122542a9021111111145822042a942a94a8d42282245444444444444222222222222222222828888888808222222222222914844441109092049024892444444042104422444222212492412891035524a494a124922892422524492444444444444444a44241289884848940889489148242242144524828888888888888888084222490089a420441012121191484444444444a48844229108298a0491888844221111111111454444440411894422914824524444441012111149925422414452922449924824499224492a29499224492289044992a4888828490430294822491022184aa21111919292244992244992244992489224499288144444252225224992244922222282888824499224128988884890244992249224499224922449922449924492009254942415914492248924054941294892244912491249920052494444044992a488886828222280110511211141886028291496a21149222549494444144484440421443049a19244912049148948142422914824821489045122092288948888088220452241944882945292144522120589244922052932492551220992a40822222291249120a428910449491245221111114208111149442415644a1291240a89104210044108114c5208a2481004418a4482281204914a240882204522411409822048914982281204411052944882a42411452291482412218410111111111115940485440821088220840826290451240882204522411409824825120441902291208a044110a4c824411409822008294a244152928822914824128910428888888888880a4a82222222494a9224491249921211114a9024499224224812400248528a88882412894814244929920490a4a22449922491a420292805499224499224499204908a4444449004902449922449922449492222a28922418242298a048922418242291a1111a92449921424912408114c52a8445392204992242222112449921211114524899448248a44a294049048242251101112118410c124858a44944882241249242222a22091244924411499248812491041444492442492241249922449124992882412111151101112114491498228910429a5242912111151908844229108a2c82482a29224a5542449224912491249444444414492282202882888442289284824128944101111918808a28848924494880820a220221211898800220a222211411491a424a2221a1111915292249194009224492291481441249244521011890842886092142a89124990241141444444924812492249922411894844a2202212114492249124498a2449224932491025922049128944222288442422511004495291498292a4aa242982888848244912892449222222124482489220228a4422124124229188442284908888908888082222221a11014414444422821041281411014414444422821041282c694404105110894422112412894422884824928804291293442322228544082191884441108410c124854a1245829012458220085224124491208844444441902812048944229108522493442322229524914844a22008428860924225892241488922411004291209a24810442222a220481409824422914804299249a24890a4942489442212054110420493148228120441902291208a0441a412492412912808821489045124088220452609a24810044148512209929244148944229148841042444444444454501294a494248944221205411042049314822812248944221205894824128920452609a2441244109148242251100429324910458248242251904892249220452609a24412441025894892481052944882a4241189442291482442082122222222222a288994a0882491529224912449092211894814044108114c924225d1242988888808224992244992244992a44424924452101189089294244992a424499224324925d1242988888844229188082222440411114992244992248948924444441009222222884422118904111191481242482222242222414492684404105110118908420443492322808882482449a42091482412412291482482148949a249224922099224515200a540886028a9484182a4529292444a924a29254949a24844a292a4524a49521489485424959294a48848449244452291484449a5942495524a928a24922489441249228944495255921425a9aa24a92a498a9254529424124912a9241149a28890882242224a522949492222a2925495245549914892248924494a922425499292544a52928848441191244992a4442412894489244922292224a224a994529254924a29254925495549525455244a522949498a481229494a2a1289444a9224495249aa4a928a444992a42449929448242251912449a4880820a24a9224a524a9a492124992442a092049aa240124a992541525499222515444242949922429221291a4442212159124524a922445248a24494a5255a25292244911114992a42449524424a2242229892a25a9a42495945454141191a42449aa2489a444245592922415899224492aa92449924a0a00"
        },
        "methodIdentifiers": {
          "DEFAULT_ADMIN_ROLE()": "a217fddf",
          "MINTER_ROLE()": "d5391393",
          "PAUSER_ROLE()": "e63ab1e9",
          "allowance(address,address)": "dd62ed3e",
          "approve(address,uint256)": "095ea7b3",
          "balanceOf(address)": "70a08231",
          "burn(uint256)": "42966c68",
          "burnFrom(address,uint256)": "79cc6790",
          "decimals()": "313ce567",
          "getRoleAdmin(bytes32)": "248a9ca3",
          "grantRole(bytes32,address)": "2f2ff15d",
          "hasRole(bytes32,address)": "91d14854",
          "mint(address,uint256)": "40c10f19",
          "name()": "06fdde03",
          "pause()": "8456cb59",
          "paused()": "5c975abb",
          "renounceRole(bytes32,address)": "36568abe",
          "revokeRole(bytes32,address)": "d547741f",
          "supportsInterface(bytes4)": "01ffc9a7",
          "symbol()": "95d89b41",
          "totalSupply()": "18160ddd",
          "transfer(address,uint256)": "a9059cbb",
          "transferFrom(address,address,uint256)": "23b872dd",
          "unpause()": "3f4ba83a"
        }
      },
      "hash": "bebb390725afa285a5160e09213b1aa6df84de582d108fe6e6c6222f9de64607",
      "factoryDependencies": {}
    }
  }
}