{
  "contracts/LendingBorrowing.sol": {
    "LendingBorrowing": {
      "abi": [
        {
          "inputs": [
            {
              "internalType": "contract IERC20",
              "name": "_collateralToken",
              "type": "address"
            },
            {
              "internalType": "contract IERC20",
              "name": "_lendingToken",
              "type": "address"
            },
            {
              "internalType": "uint256",
              "name": "_collateralFactor",
              "type": "uint256"
            }
          ],
          "stateMutability": "nonpayable",
          "type": "constructor"
        },
        {
          "inputs": [
            {
              "internalType": "address",
              "name": "owner",
              "type": "address"
            }
          ],
          "name": "OwnableInvalidOwner",
          "type": "error"
        },
        {
          "inputs": [
            {
              "internalType": "address",
              "name": "account",
              "type": "address"
            }
          ],
          "name": "OwnableUnauthorizedAccount",
          "type": "error"
        },
        {
          "anonymous": false,
          "inputs": [
            {
              "indexed": true,
              "internalType": "address",
              "name": "user",
              "type": "address"
            },
            {
              "indexed": false,
              "internalType": "uint256",
              "name": "amount",
              "type": "uint256"
            }
          ],
          "name": "CollateralDeposited",
          "type": "event"
        },
        {
          "anonymous": false,
          "inputs": [
            {
              "indexed": true,
              "internalType": "address",
              "name": "user",
              "type": "address"
            },
            {
              "indexed": false,
              "internalType": "uint256",
              "name": "amount",
              "type": "uint256"
            }
          ],
          "name": "CollateralWithdrawn",
          "type": "event"
        },
        {
          "anonymous": false,
          "inputs": [
            {
              "indexed": true,
              "internalType": "address",
              "name": "user",
              "type": "address"
            },
            {
              "indexed": false,
              "internalType": "uint256",
              "name": "amount",
              "type": "uint256"
            }
          ],
          "name": "LoanRepaid",
          "type": "event"
        },
        {
          "anonymous": false,
          "inputs": [
            {
              "indexed": true,
              "internalType": "address",
              "name": "user",
              "type": "address"
            },
            {
              "indexed": false,
              "internalType": "uint256",
              "name": "amount",
              "type": "uint256"
            }
          ],
          "name": "LoanTaken",
          "type": "event"
        },
        {
          "anonymous": false,
          "inputs": [
            {
              "indexed": true,
              "internalType": "address",
              "name": "previousOwner",
              "type": "address"
            },
            {
              "indexed": true,
              "internalType": "address",
              "name": "newOwner",
              "type": "address"
            }
          ],
          "name": "OwnershipTransferred",
          "type": "event"
        },
        {
          "inputs": [
            {
              "internalType": "address",
              "name": "",
              "type": "address"
            }
          ],
          "name": "collateralBalances",
          "outputs": [
            {
              "internalType": "uint256",
              "name": "",
              "type": "uint256"
            }
          ],
          "stateMutability": "view",
          "type": "function"
        },
        {
          "inputs": [],
          "name": "collateralFactor",
          "outputs": [
            {
              "internalType": "uint256",
              "name": "",
              "type": "uint256"
            }
          ],
          "stateMutability": "view",
          "type": "function"
        },
        {
          "inputs": [],
          "name": "collateralToken",
          "outputs": [
            {
              "internalType": "contract IERC20",
              "name": "",
              "type": "address"
            }
          ],
          "stateMutability": "view",
          "type": "function"
        },
        {
          "inputs": [
            {
              "internalType": "uint256",
              "name": "_amount",
              "type": "uint256"
            }
          ],
          "name": "depositCollateral",
          "outputs": [],
          "stateMutability": "nonpayable",
          "type": "function"
        },
        {
          "inputs": [
            {
              "internalType": "address",
              "name": "_user",
              "type": "address"
            }
          ],
          "name": "getLoanDetails",
          "outputs": [
            {
              "internalType": "uint256",
              "name": "amount",
              "type": "uint256"
            },
            {
              "internalType": "uint256",
              "name": "collateral",
              "type": "uint256"
            },
            {
              "internalType": "bool",
              "name": "isActive",
              "type": "bool"
            }
          ],
          "stateMutability": "view",
          "type": "function"
        },
        {
          "inputs": [],
          "name": "lendingToken",
          "outputs": [
            {
              "internalType": "contract IERC20",
              "name": "",
              "type": "address"
            }
          ],
          "stateMutability": "view",
          "type": "function"
        },
        {
          "inputs": [
            {
              "internalType": "address",
              "name": "",
              "type": "address"
            }
          ],
          "name": "loans",
          "outputs": [
            {
              "internalType": "uint256",
              "name": "amount",
              "type": "uint256"
            },
            {
              "internalType": "uint256",
              "name": "collateral",
              "type": "uint256"
            },
            {
              "internalType": "bool",
              "name": "isActive",
              "type": "bool"
            }
          ],
          "stateMutability": "view",
          "type": "function"
        },
        {
          "inputs": [],
          "name": "owner",
          "outputs": [
            {
              "internalType": "address",
              "name": "",
              "type": "address"
            }
          ],
          "stateMutability": "view",
          "type": "function"
        },
        {
          "inputs": [],
          "name": "renounceOwnership",
          "outputs": [],
          "stateMutability": "nonpayable",
          "type": "function"
        },
        {
          "inputs": [
            {
              "internalType": "uint256",
              "name": "_amount",
              "type": "uint256"
            }
          ],
          "name": "repayLoan",
          "outputs": [],
          "stateMutability": "nonpayable",
          "type": "function"
        },
        {
          "inputs": [
            {
              "internalType": "uint256",
              "name": "_newFactor",
              "type": "uint256"
            }
          ],
          "name": "setCollateralFactor",
          "outputs": [],
          "stateMutability": "nonpayable",
          "type": "function"
        },
        {
          "inputs": [
            {
              "internalType": "uint256",
              "name": "_amount",
              "type": "uint256"
            }
          ],
          "name": "takeLoan",
          "outputs": [],
          "stateMutability": "nonpayable",
          "type": "function"
        },
        {
          "inputs": [
            {
              "internalType": "address",
              "name": "newOwner",
              "type": "address"
            }
          ],
          "name": "transferOwnership",
          "outputs": [],
          "stateMutability": "nonpayable",
          "type": "function"
        },
        {
          "inputs": [
            {
              "internalType": "uint256",
              "name": "_amount",
              "type": "uint256"
            }
          ],
          "name": "withdrawCollateral",
          "outputs": [],
          "stateMutability": "nonpayable",
          "type": "function"
        }
      ],
      "evm": {
        "assembly": "// RO data = 0/0 bytes\n// RW data = 452/66096 bytes\n// Stack size = 32768 bytes\n\n// Instructions = 7990\n// Code size = 27916 bytes\n\n      : @0 (gas: 7)\n     0: sp = sp + 0xffffffffffffffe8\n     3: u64 [sp + 0x10] = ra\n     6: u64 [sp + 0x8] = s0\n     9: u64 [sp] = s1\n    11: s1 = 0x201c0\n    16: s0 = i32 [0x201c0]\n    21: jump @3 if s0 == 0\n      : @1 (gas: 5)\n    24: a0 = 0x301f0\n    29: i32 a0 = a0 + 0\n    31: i32 a1 = s1 + 0\n    33: ecalli 7 // 'get_immutable_data'\n    35: fallthrough\n      : @2 (gas: 3)\n    36: a0 = i32 [0x201c0]\n    41: u32 [0x201c0] = 0\n    46: jump @4 if a0 <u s0\n      : @3 (gas: 5)\n    49: ra = u64 [sp + 0x10]\n    52: s0 = u64 [sp + 0x8]\n    55: s1 = u64 [sp]\n    57: sp = sp + 0x18\n    60: ret\n      : @4 (gas: 1)\n    62: trap\n      : @5 (gas: 2)\n    63: a1 = i32 [0x201c0]\n    68: jump @75 if a1 == 0\n      : @6 (gas: 4)\n    72: a0 = 0x301f0\n    77: i32 a0 = a0 + 0\n    79: ecalli 14 // 'set_immutable_data'\n    81: jump @75\n      : @7 (gas: 8)\n    84: sp = sp + 0xfffffffffffffff0\n    87: u64 [sp + 0x8] = ra\n    90: u64 [sp] = s0\n    92: a2 = a1\n    94: s0 = a0\n    96: a1 = 0x20\n    99: a0 = a2\n   101: ra = 2, jump @18\n      : @8 [@dyn 1] (gas: 100)\n   106: a1 = u8 [a0 + 0x1]\n   109: a2 = u8 [a0]\n   111: a3 = u8 [a0 + 0x2]\n   114: a4 = u8 [a0 + 0x3]\n   117: a1 = a1 << 0x8\n   120: a1 = a1 | a2\n   123: a3 = a3 << 0x10\n   126: a4 = a4 << 0x18\n   129: a3 = a3 | a4\n   132: a1 = a1 | a3\n   135: a2 = u8 [a0 + 0x5]\n   138: a3 = u8 [a0 + 0x4]\n   141: a4 = u8 [a0 + 0x6]\n   144: a5 = u8 [a0 + 0x7]\n   147: a2 = a2 << 0x8\n   150: a2 = a2 | a3\n   153: a4 = a4 << 0x10\n   156: a5 = a5 << 0x18\n   159: a4 = a4 | a5\n   162: a2 = a2 | a4\n   165: a2 = a2 << 0x20\n   168: t0 = a2 | a1\n   171: a2 = u8 [a0 + 0x9]\n   174: a3 = u8 [a0 + 0x8]\n   177: a4 = u8 [a0 + 0xa]\n   180: a5 = u8 [a0 + 0xb]\n   183: a2 = a2 << 0x8\n   186: a2 = a2 | a3\n   189: a4 = a4 << 0x10\n   192: a5 = a5 << 0x18\n   195: a4 = a4 | a5\n   198: a2 = a2 | a4\n   201: a3 = u8 [a0 + 0xd]\n   204: a4 = u8 [a0 + 0xc]\n   207: a5 = u8 [a0 + 0xe]\n   210: a1 = u8 [a0 + 0xf]\n   213: a3 = a3 << 0x8\n   216: a3 = a3 | a4\n   219: a5 = a5 << 0x10\n   222: a1 = a1 << 0x18\n   225: a1 = a1 | a5\n   228: a1 = a1 | a3\n   231: a1 = a1 << 0x20\n   234: t1 = a1 | a2\n   237: a1 = u8 [a0 + 0x11]\n   240: a3 = u8 [a0 + 0x10]\n   243: a4 = u8 [a0 + 0x12]\n   246: a5 = u8 [a0 + 0x13]\n   249: a1 = a1 << 0x8\n   252: a1 = a1 | a3\n   255: a4 = a4 << 0x10\n   258: a5 = a5 << 0x18\n   261: a4 = a4 | a5\n   264: a1 = a1 | a4\n   267: a3 = u8 [a0 + 0x15]\n   270: a4 = u8 [a0 + 0x14]\n   273: a5 = u8 [a0 + 0x16]\n   276: a2 = u8 [a0 + 0x17]\n   279: a3 = a3 << 0x8\n   282: a3 = a3 | a4\n   285: a5 = a5 << 0x10\n   288: a2 = a2 << 0x18\n   291: a2 = a2 | a5\n   294: a2 = a2 | a3\n   297: a2 = a2 << 0x20\n   300: a3 = a2 | a1\n   303: a1 = u8 [a0 + 0x19]\n   306: a2 = u8 [a0 + 0x18]\n   309: a4 = u8 [a0 + 0x1a]\n   312: a5 = u8 [a0 + 0x1b]\n   315: a1 = a1 << 0x8\n   318: a1 = a1 | a2\n   321: a4 = a4 << 0x10\n   324: a5 = a5 << 0x18\n   327: a4 = a4 | a5\n   330: a1 = a1 | a4\n   333: a2 = u8 [a0 + 0x1d]\n   336: a4 = u8 [a0 + 0x1c]\n   339: a5 = u8 [a0 + 0x1e]\n   342: a0 = u8 [a0 + 0x1f]\n   345: a2 = a2 << 0x8\n   348: a2 = a2 | a4\n   351: a5 = a5 << 0x10\n   354: a0 = a0 << 0x18\n   357: a0 = a0 | a5\n   360: a0 = a0 | a2\n   363: a0 = a0 << 0x20\n   366: a0 = a0 | a1\n   369: a0 = reverse a0\n   371: a1 = reverse a3\n   373: a2 = reverse t1\n   375: a3 = reverse t0\n   377: u64 [s0 + 0x18] = a3\n   380: u64 [s0 + 0x10] = a2\n   383: u64 [s0 + 0x8] = a1\n   386: u64 [s0] = a0\n   388: ra = u64 [sp + 0x8]\n   391: s0 = u64 [sp]\n   393: sp = sp + 0x10\n   396: ret\n      : @9 (gas: 12)\n   398: sp = sp + 0xffffffffffffffd8\n   401: u64 [sp + 0x20] = ra\n   404: u64 [sp + 0x18] = s0\n   407: u64 [sp + 0x10] = s1\n   410: a2 = u64 [a1]\n   412: u64 [sp + 0x8] = a2\n   415: a2 = u64 [a1 + 0x8]\n   418: u64 [sp] = a2\n   420: s0 = u64 [a1 + 0x10]\n   423: s1 = u64 [a1 + 0x18]\n   426: a1 = 0x20\n   429: ra = 4, jump @18\n      : @10 [@dyn 2] (gas: 71)\n   434: a1 = reverse s1\n   436: a2 = reverse s0\n   438: a3 = u64 [sp]\n   440: a3 = reverse a3\n   442: a4 = u64 [sp + 0x8]\n   445: a4 = reverse a4\n   447: u8 [a0 + 0x18] = a4\n   450: u8 [a0 + 0x10] = a3\n   453: u8 [a0 + 0x8] = a2\n   456: u8 [a0] = a1\n   458: a5 = a4 >> 0x38\n   461: u8 [a0 + 0x1f] = a5\n   464: a5 = a4 >> 0x30\n   467: u8 [a0 + 0x1e] = a5\n   470: a5 = a4 >> 0x28\n   473: u8 [a0 + 0x1d] = a5\n   476: a5 = a4 >> 0x20\n   479: u8 [a0 + 0x1c] = a5\n   482: a5 = a4 >> 0x18\n   485: u8 [a0 + 0x1b] = a5\n   488: a5 = a4 >> 0x10\n   491: u8 [a0 + 0x1a] = a5\n   494: a4 = a4 >> 0x8\n   497: u8 [a0 + 0x19] = a4\n   500: a4 = a3 >> 0x38\n   503: u8 [a0 + 0x17] = a4\n   506: a4 = a3 >> 0x30\n   509: u8 [a0 + 0x16] = a4\n   512: a4 = a3 >> 0x28\n   515: u8 [a0 + 0x15] = a4\n   518: a4 = a3 >> 0x20\n   521: u8 [a0 + 0x14] = a4\n   524: a4 = a3 >> 0x18\n   527: u8 [a0 + 0x13] = a4\n   530: a4 = a3 >> 0x10\n   533: u8 [a0 + 0x12] = a4\n   536: a3 = a3 >> 0x8\n   539: u8 [a0 + 0x11] = a3\n   542: a3 = a2 >> 0x38\n   545: u8 [a0 + 0xf] = a3\n   548: a3 = a2 >> 0x30\n   551: u8 [a0 + 0xe] = a3\n   554: a3 = a2 >> 0x28\n   557: u8 [a0 + 0xd] = a3\n   560: a3 = a2 >> 0x20\n   563: u8 [a0 + 0xc] = a3\n   566: a3 = a2 >> 0x18\n   569: u8 [a0 + 0xb] = a3\n   572: a3 = a2 >> 0x10\n   575: u8 [a0 + 0xa] = a3\n   578: a2 = a2 >> 0x8\n   581: u8 [a0 + 0x9] = a2\n   584: a2 = a1 >> 0x38\n   587: u8 [a0 + 0x7] = a2\n   590: a2 = a1 >> 0x30\n   593: u8 [a0 + 0x6] = a2\n   596: a2 = a1 >> 0x28\n   599: u8 [a0 + 0x5] = a2\n   602: a2 = a1 >> 0x20\n   605: u8 [a0 + 0x4] = a2\n   608: a2 = a1 >> 0x18\n   611: u8 [a0 + 0x3] = a2\n   614: a2 = a1 >> 0x10\n   617: u8 [a0 + 0x2] = a2\n   620: a1 = a1 >> 0x8\n   623: u8 [a0 + 0x1] = a1\n   626: ra = u64 [sp + 0x20]\n   629: s0 = u64 [sp + 0x18]\n   632: s1 = u64 [sp + 0x10]\n   635: sp = sp + 0x28\n   638: ret\n      : @11 (gas: 48)\n   640: sp = sp + 0xffffffffffffffa0\n   643: u64 [sp + 0x58] = ra\n   646: u64 [sp + 0x50] = s0\n   649: u64 [sp + 0x48] = s1\n   652: s0 = sp + 0x60\n   655: sp = sp & 0xffffffffffffffe0\n   658: s1 = a0\n   660: a0 = u64 [a1 + 0x18]\n   663: a2 = u64 [a1 + 0x10]\n   666: a3 = u64 [a1 + 0x8]\n   669: a1 = u64 [a1]\n   671: a0 = reverse a0\n   673: a2 = reverse a2\n   675: a3 = reverse a3\n   677: a1 = reverse a1\n   679: u64 [sp + 0x18] = a1\n   682: u64 [sp + 0x10] = a3\n   685: u64 [sp + 0x8] = a2\n   688: u64 [sp] = a0\n   690: u64 [sp + 56] = 0\n   693: u64 [sp + 48] = 0\n   696: u64 [sp + 40] = 0\n   699: u64 [sp + 32] = 0\n   702: u32 [sp + 64] = 0x20\n   706: i32 a1 = sp + 0\n   708: i32 a3 = sp + 0x20\n   711: i32 a4 = sp + 0x40\n   714: a2 = 0xffffffffffffffff\n   717: a0 = 0\n   719: ecalli 8 // 'get_storage'\n   721: a0 = u64 [sp + 0x38]\n   724: a1 = u64 [sp + 0x30]\n   727: a2 = u64 [sp + 0x28]\n   730: a3 = u64 [sp + 0x20]\n   733: a0 = reverse a0\n   735: a1 = reverse a1\n   737: a2 = reverse a2\n   739: a3 = reverse a3\n   741: u64 [s1 + 0x18] = a3\n   744: u64 [s1 + 0x10] = a2\n   747: u64 [s1 + 0x8] = a1\n   750: u64 [s1] = a0\n   752: sp = s0 + 0xffffffffffffffa0\n   755: ra = u64 [sp + 0x58]\n   758: s0 = u64 [sp + 0x50]\n   761: s1 = u64 [sp + 0x48]\n   764: sp = sp + 0x60\n   767: ret\n      : @12 (gas: 40)\n   769: sp = sp + 0xffffffffffffffa0\n   772: u64 [sp + 0x58] = ra\n   775: u64 [sp + 0x50] = s0\n   778: s0 = sp + 0x60\n   781: sp = sp & 0xffffffffffffffe0\n   784: t0 = u64 [a0]\n   786: a3 = u64 [a0 + 0x8]\n   789: a4 = u64 [a0 + 0x10]\n   792: a0 = u64 [a0 + 0x18]\n   795: t1 = u64 [a1]\n   797: a2 = u64 [a1 + 0x8]\n   800: a5 = u64 [a1 + 0x10]\n   803: a1 = u64 [a1 + 0x18]\n   806: t2 = reverse a0\n   808: a4 = reverse a4\n   810: a3 = reverse a3\n   812: a0 = reverse t0\n   814: t0 = reverse a1\n   816: a5 = reverse a5\n   818: a2 = reverse a2\n   820: a1 = reverse t1\n   822: u64 [sp + 0x18] = a0\n   825: u64 [sp + 0x10] = a3\n   828: u64 [sp + 0x8] = a4\n   831: u64 [sp] = t2\n   833: u64 [sp + 0x38] = a1\n   836: u64 [sp + 0x30] = a2\n   839: u64 [sp + 0x28] = a5\n   842: u64 [sp + 0x20] = t0\n   845: i32 a1 = sp + 0\n   847: i32 a3 = sp + 0x20\n   850: a2 = 0xffffffffffffffff\n   853: a4 = 0x20\n   856: a0 = 0\n   858: ecalli 15 // 'set_storage'\n   860: sp = s0 + 0xffffffffffffffa0\n   863: ra = u64 [sp + 0x58]\n   866: s0 = u64 [sp + 0x50]\n   869: sp = sp + 0x60\n   872: ret\n      : @13 (gas: 24)\n   874: sp = sp + 0xffffffffffffff60\n   878: u64 [sp + 0x98] = ra\n   882: u64 [sp + 0x90] = s0\n   886: u64 [sp + 0x88] = s1\n   890: s0 = sp + 0xa0\n   894: sp = sp & 0xffffffffffffffe0\n   897: a4 = u64 [a3]\n   899: u64 [sp + 0x38] = a4\n   902: a4 = u64 [a3 + 0x8]\n   905: u64 [sp + 0x30] = a4\n   908: a4 = u64 [a3 + 0x10]\n   911: u64 [sp + 0x28] = a4\n   914: a3 = u64 [a3 + 0x18]\n   917: u64 [sp + 0x20] = a3\n   920: a3 = u64 [a2]\n   922: u64 [sp + 0x18] = a3\n   925: a3 = u64 [a2 + 0x8]\n   928: u64 [sp + 0x10] = a3\n   931: a3 = u64 [a2 + 0x10]\n   934: u64 [sp + 0x8] = a3\n   937: a2 = u64 [a2 + 0x18]\n   940: u64 [sp] = a2\n   942: s1 = a1\n   944: ra = 6, jump @18\n      : @14 [@dyn 3] (gas: 35)\n   949: a1 = u64 [sp]\n   951: a1 = reverse a1\n   953: a2 = u64 [sp + 0x8]\n   956: a2 = reverse a2\n   958: a3 = u64 [sp + 0x10]\n   961: a3 = reverse a3\n   963: a4 = u64 [sp + 0x18]\n   966: a4 = reverse a4\n   968: u64 [sp + 0x58] = a4\n   971: u64 [sp + 0x50] = a3\n   974: u64 [sp + 0x48] = a2\n   977: u64 [sp + 0x40] = a1\n   980: a1 = u64 [sp + 0x20]\n   983: a1 = reverse a1\n   985: a2 = u64 [sp + 0x28]\n   988: a2 = reverse a2\n   990: a3 = u64 [sp + 0x30]\n   993: a3 = reverse a3\n   995: a4 = u64 [sp + 0x38]\n   998: a4 = reverse a4\n  1000: u64 [sp + 0x78] = a4\n  1003: u64 [sp + 0x70] = a3\n  1006: u64 [sp + 0x68] = a2\n  1009: u64 [sp + 0x60] = a1\n  1012: i32 a2 = a0 + 0\n  1014: i32 a3 = s1 + 0\n  1016: i32 a0 = sp + 0x40\n  1019: a1 = 0x2\n  1022: ecalli 6 // 'deposit_event'\n  1024: sp = s0 + 0xffffffffffffff60\n  1028: ra = u64 [sp + 0x98]\n  1032: s0 = u64 [sp + 0x90]\n  1036: s1 = u64 [sp + 0x88]\n  1040: sp = sp + 0xa0\n  1044: ret\n      : @15 (gas: 33)\n  1046: sp = sp + 0xffffffffffffff20\n  1050: u64 [sp + 0xd8] = ra\n  1054: u64 [sp + 0xd0] = s0\n  1058: u64 [sp + 0xc8] = s1\n  1062: s0 = sp + 0xe0\n  1066: sp = sp & 0xffffffffffffffe0\n  1069: a5 = u64 [a4]\n  1071: u64 [sp + 0x40] = a5\n  1074: a5 = u64 [a4 + 0x8]\n  1077: u64 [sp + 0x48] = a5\n  1080: a5 = u64 [a4 + 0x10]\n  1083: u64 [sp + 0x50] = a5\n  1086: a4 = u64 [a4 + 0x18]\n  1089: u64 [sp + 0x58] = a4\n  1092: t0 = 0x8\n  1095: a4 = u64 [a3]\n  1097: u64 [sp + 0x18] = a4\n  1100: a4 = u64 [a3 + 0x8]\n  1103: u64 [sp + 0x20] = a4\n  1106: a4 = u64 [a3 + 0x10]\n  1109: u64 [sp + 0x28] = a4\n  1112: a3 = u64 [a3 + 0x18]\n  1115: u64 [sp + 0x30] = a3\n  1118: s1 = u64 [a2]\n  1120: a3 = u64 [a2 + 0x8]\n  1123: u64 [sp] = a3\n  1125: a3 = u64 [a2 + 0x10]\n  1128: u64 [sp + 0x8] = a3\n  1131: a2 = u64 [a2 + 0x18]\n  1134: u64 [sp + 0x10] = a2\n  1137: u64 [sp + 56] = 0\n  1140: ra = 0xa\n  1143: jump @18\n      : @16 [@dyn 4] (gas: 2)\n  1146: u64 [sp + 0x38] = a1\n  1149: ra = 10, jump @18\n      : @17 [@dyn 5] (gas: 46)\n  1154: a1 = reverse s1\n  1156: u64 [sp + 0x78] = a1\n  1159: a1 = u64 [sp]\n  1161: a1 = reverse a1\n  1163: u64 [sp + 0x70] = a1\n  1166: a1 = u64 [sp + 0x8]\n  1169: a1 = reverse a1\n  1171: u64 [sp + 0x68] = a1\n  1174: a1 = u64 [sp + 0x10]\n  1177: a1 = reverse a1\n  1179: u64 [sp + 0x60] = a1\n  1182: a1 = u64 [sp + 0x18]\n  1185: a1 = reverse a1\n  1187: u64 [sp + 0x98] = a1\n  1191: a1 = u64 [sp + 0x20]\n  1194: a1 = reverse a1\n  1196: u64 [sp + 0x90] = a1\n  1200: a1 = u64 [sp + 0x28]\n  1203: a1 = reverse a1\n  1205: u64 [sp + 0x88] = a1\n  1209: a1 = u64 [sp + 0x30]\n  1212: a1 = reverse a1\n  1214: u64 [sp + 0x80] = a1\n  1218: a1 = u64 [sp + 0x40]\n  1221: a1 = reverse a1\n  1223: u64 [sp + 0xb8] = a1\n  1227: a1 = u64 [sp + 0x48]\n  1230: a1 = reverse a1\n  1232: u64 [sp + 0xb0] = a1\n  1236: a1 = u64 [sp + 0x50]\n  1239: a1 = reverse a1\n  1241: u64 [sp + 0xa8] = a1\n  1245: a1 = u64 [sp + 0x58]\n  1248: a1 = reverse a1\n  1250: u64 [sp + 0xa0] = a1\n  1254: i32 a2 = a0 + 0\n  1256: a3 = i32 [sp + 0x38]\n  1259: i32 a0 = sp + 0x60\n  1262: a1 = 0x3\n  1265: ecalli 6 // 'deposit_event'\n  1267: sp = s0 + 0xffffffffffffff20\n  1271: ra = u64 [sp + 0xd8]\n  1275: s0 = u64 [sp + 0xd0]\n  1279: s1 = u64 [sp + 0xc8]\n  1283: sp = sp + 0xe0\n  1287: ret\n      : @18 (gas: 2)\n  1289: i32 a2 = a0 >> 0x10\n  1292: jump @23 if a2 != 0\n      : @19 (gas: 4)\n  1295: a1 = a1 + a0\n  1298: i32 a1 = a1 + 0x1f\n  1301: a1 = a1 & 0xffffffffffffffe0\n  1304: jump @23 if a1 >u 65536\n      : @20 (gas: 3)\n  1310: a2 = 0x201c8\n  1315: a3 = i32 [0x201c8]\n  1320: jump @22 if a3 >=u a1\n      : @21 (gas: 2)\n  1323: u32 [0x201c8] = a1\n  1328: fallthrough\n      : @22 (gas: 4)\n  1329: a1 = 0x201d0\n  1334: i32 a0 = a0 + 0\n  1336: a0 = a0 + a1\n  1339: ret\n      : @23 (gas: 1)\n  1341: trap\n      : @24 (gas: 6)\n  1342: sp = sp + 0xfffffffffffffff0\n  1345: u64 [sp + 0x8] = ra\n  1348: u64 [sp] = s0\n  1350: s0 = a0 & 0x1\n  1353: ecalli 4 // 'call_data_size'\n  1355: fallthrough\n      : @25 (gas: 2)\n  1356: u32 [0x201c4] = a0\n  1361: jump @27 if s0 == 0\n      : @26 (gas: 1)\n  1364: ra = 12, jump @28\n      : @27 [@dyn 6] (gas: 18)\n  1368: ra = 0xe\n  1371: sp = sp + 0xfffffffffffffe10\n  1375: u64 [sp + 0x1e8] = ra\n  1379: u64 [sp + 0x1e0] = s0\n  1383: u64 [sp + 0x1d8] = s1\n  1387: s0 = sp + 0x1f0\n  1391: sp = sp + 0xffffffffffffde30\n  1395: sp = sp & 0xffffffffffffffe0\n  1398: s1 = sp\n  1400: a2 = s1 + 0x1878\n  1404: u64 [a2 + 736] = 0\n  1408: u64 [a2 + 728] = 0\n  1412: u64 [a2 + 712] = 0x80\n  1418: a0 = 0x40\n  1421: a1 = s1 + 0x1b40\n  1425: u64 [a2 + 720] = 0\n  1429: ra = 0x48\n  1432: jump @9\n      : @28 [@dyn 7] (gas: 15)\n  1435: sp = sp + 0xfffffffffffffbc0\n  1439: a0 = sp + 0x400\n  1443: u64 [a0 + 0x38] = ra\n  1446: u64 [a0 + 0x30] = s0\n  1449: u64 [a0 + 0x28] = s1\n  1452: s0 = sp + 0x440\n  1456: sp = sp & 0xffffffffffffffe0\n  1459: s1 = sp\n  1461: u64 [s1 + 920] = 0\n  1465: u64 [s1 + 912] = 0\n  1469: u64 [s1 + 904] = 0\n  1473: u64 [s1 + 896] = 0\n  1477: i32 a0 = s1 + 0x380\n  1481: ecalli 16 // 'value_transferred'\n  1483: fallthrough\n      : @29 (gas: 9)\n  1484: a4 = s1 + 0x300\n  1488: a0 = u64 [a4 + 0x90]\n  1492: a1 = u64 [a4 + 0x98]\n  1496: a2 = u64 [a4 + 0x88]\n  1500: a3 = u64 [a4 + 0x80]\n  1504: a1 = a1 | a2\n  1507: a0 = a0 | a3\n  1510: a0 = a0 | a1\n  1513: jump @64 if a0 != 0\n      : @30 (gas: 17)\n  1517: a0 = i32 [0x201c4]\n  1522: u64 [s1 + 0xb8] = a0\n  1526: a0 = a0 << 0x20\n  1529: a0 = a0 >> 0x20\n  1532: a0 = a0 + 0x1f\n  1535: a0 = a0 & 0xffffffffffffffe0\n  1538: a1 = a0 + 0xc0\n  1542: a0 = a1 <u a0\n  1545: a2 = s1 + 0x300\n  1549: u64 [a2 + 0x60] = a1\n  1552: u64 [a2 + 0x68] = a0\n  1555: a0 = 0 if a0 != 0\n  1557: u64 [a2 + 0x70] = a0\n  1560: a0 = 0x40\n  1563: a1 = s1 + 0x360\n  1567: u64 [s1 + 888] = 0\n  1571: ra = 16, jump @9\n      : @31 [@dyn 8] (gas: 3)\n  1576: a0 = 0xc0\n  1580: a1 = u64 [s1 + 0xb8]\n  1584: ra = 18, jump @18\n      : @32 [@dyn 9] (gas: 5)\n  1589: i32 a0 = a0 + 0\n  1591: a1 = u64 [s1 + 0xb8]\n  1595: a2 = 0\n  1597: ecalli 2 // 'call_data_copy'\n  1599: fallthrough\n      : @33 (gas: 2)\n  1600: a1 = u64 [s1 + 0xb8]\n  1604: jump @65 if a1 <=u 95\n      : @34 (gas: 7)\n  1609: u64 [s1 + 824] = 0\n  1613: u64 [s1 + 816] = 0\n  1617: u64 [s1 + 800] = 0xc0\n  1623: a0 = s1 + 0x340\n  1627: a1 = s1 + 0x320\n  1631: u64 [s1 + 808] = 0\n  1635: ra = 20, jump @754\n      : @35 [@dyn 10] (gas: 15)\n  1640: a0 = u64 [s1 + 0x358]\n  1644: u64 [s1 + 0x48] = a0\n  1647: a0 = u64 [s1 + 0x350]\n  1651: u64 [s1 + 0x40] = a0\n  1654: a0 = u64 [s1 + 0x348]\n  1658: u64 [s1 + 0x30] = a0\n  1661: a0 = u64 [s1 + 0x340]\n  1665: u64 [s1 + 0x28] = a0\n  1668: u64 [s1 + 760] = 0\n  1672: u64 [s1 + 752] = 0\n  1676: u64 [s1 + 736] = 0xe0\n  1682: a0 = s1 + 0x300\n  1686: a1 = s1 + 0x2e0\n  1690: u64 [s1 + 744] = 0\n  1694: ra = 22, jump @754\n      : @36 [@dyn 11] (gas: 16)\n  1699: a1 = s1 + 0x300\n  1703: a0 = u64 [a1 + 0x18]\n  1706: u64 [s1 + 0x10] = a0\n  1709: a0 = u64 [a1 + 0x10]\n  1712: u64 [s1 + 0x18] = a0\n  1715: a0 = u64 [a1 + 0x8]\n  1718: u64 [s1 + 0x20] = a0\n  1721: a0 = u64 [a1]\n  1723: u64 [s1 + 0x38] = a0\n  1726: a0 = sp + 0xffffffffffffffe0\n  1729: a0 = a0 & 0xffffffffffffffe0\n  1732: u64 [s1 + 0xa0] = a0\n  1736: sp = a0\n  1738: a0 = s1 + 0x2c0\n  1742: a1 = 0x100\n  1746: ra = 24, jump @7\n      : @37 [@dyn 12] (gas: 20)\n  1751: a4 = s1 + 0x200\n  1755: a0 = u64 [a4 + 0xd0]\n  1759: a1 = u64 [a4 + 0xd8]\n  1763: a3 = u64 [a4 + 0xc0]\n  1767: a2 = u64 [a4 + 0xc8]\n  1771: u64 [s1 + 0x90] = a0\n  1775: a4 = u64 [s1 + 0xa0]\n  1779: u64 [a4 + 0x10] = a0\n  1782: u64 [s1 + 0x88] = a1\n  1786: u64 [a4 + 0x18] = a1\n  1789: u64 [s1 + 0x78] = a3\n  1792: u64 [a4] = a3\n  1794: u64 [s1 + 0x80] = a2\n  1798: u64 [a4 + 0x8] = a2\n  1801: a0 = 0x301d0\n  1806: u64 [s1 + 0xb8] = a0\n  1810: i32 a0 = a0 + 0\n  1812: u64 [s1 + 0xb0] = a0\n  1816: ecalli 5 // 'caller'\n  1818: fallthrough\n      : @38 (gas: 7)\n  1819: a2 = u64 [s1 + 0xb8]\n  1823: a0 = u32 [a2 + 0x10]\n  1826: a1 = u64 [a2]\n  1828: a2 = u64 [a2 + 0x8]\n  1831: a0 = a0 | a1\n  1834: a0 = a0 | a2\n  1837: jump @66 if a0 == 0\n      : @39 (gas: 7)\n  1841: u64 [s1 + 952] = 0\n  1845: u64 [s1 + 944] = 0\n  1849: u64 [s1 + 936] = 0\n  1853: u64 [s1 + 928] = 0\n  1857: a0 = s1 + 0x2a0\n  1861: a1 = s1 + 0x3a0\n  1865: ra = 26, jump @11\n      : @40 [@dyn 13] (gas: 14)\n  1870: a0 = u64 [s1 + 0x2a0]\n  1874: u64 [s1 + 0x70] = a0\n  1877: a0 = u64 [s1 + 0x2a8]\n  1881: u64 [s1 + 0x68] = a0\n  1884: a0 = u64 [s1 + 0x2b8]\n  1888: u64 [s1 + 0x98] = a0\n  1892: a0 = u64 [s1 + 0x2b0]\n  1896: u64 [s1 + 0xa8] = a0\n  1900: a0 = u64 [s1 + 0xb0]\n  1904: ra = 0x1c\n  1907: ecalli 5 // 'caller'\n  1909: a2 = u64 [s1 + 0xb8]\n  1913: t0 = 0x1e\n  1916: jump @905\n      : @41 [@dyn 14] (gas: 2)\n  1919: a2 = u64 [s1 + 0xb8]\n  1923: t0 = 30, jump @905\n      : @42 [@dyn 15] (gas: 22)\n  1928: a0 = a0 >> 0x20\n  1931: a2 = reverse a2\n  1933: a3 = a2 << 0x20\n  1936: a0 = a0 | a3\n  1939: a2 = a2 >> 0x20\n  1942: a3 = u64 [s1 + 0xa8]\n  1946: a3 = a3 >> 0x20\n  1949: a3 = a3 << 0x20\n  1952: a2 = a2 | a3\n  1955: u64 [s1 + 984] = 0\n  1959: u64 [s1 + 976] = 0\n  1963: u64 [s1 + 968] = 0\n  1967: u64 [s1 + 960] = 0\n  1971: a3 = u64 [s1 + 0x98]\n  1975: a4 = s1 + 0x300\n  1979: u64 [a4 + 0xf8] = a3\n  1983: u64 [a4 + 0xf0] = a2\n  1987: u64 [a4 + 0xe8] = a0\n  1991: u64 [a4 + 0xe0] = a1\n  1995: a0 = s1 + 0x3c0\n  1999: a1 = s1 + 0x3e0\n  2003: ra = 32, jump @12\n      : @43 [@dyn 16] (gas: 3)\n  2008: a0 = s1 + 0x280\n  2012: a1 = 0x40\n  2015: ra = 34, jump @7\n      : @44 [@dyn 17] (gas: 14)\n  2020: a0 = u64 [s1 + 0x298]\n  2024: u64 [s1 + 0x58] = a0\n  2027: a0 = u64 [s1 + 0x290]\n  2031: u64 [s1 + 0x50] = a0\n  2034: a0 = u64 [s1 + 0x288]\n  2038: u64 [s1 + 0x60] = a0\n  2041: a0 = u64 [s1 + 0x280]\n  2045: u64 [s1 + 0x98] = a0\n  2049: a0 = u64 [s1 + 0xb0]\n  2053: ra = 0x24\n  2056: ecalli 5 // 'caller'\n  2058: a2 = u64 [s1 + 0xb8]\n  2062: t0 = 0x26\n  2065: jump @896\n      : @45 [@dyn 18] (gas: 2)\n  2068: a2 = u64 [s1 + 0xb8]\n  2072: t0 = 38, jump @896\n      : @46 [@dyn 19] (gas: 34)\n  2077: t0 = a1 | a0\n  2080: a3 = a3 >> 0x20\n  2083: a2 = reverse a2\n  2085: a1 = a2 << 0x20\n  2088: a1 = a1 | a3\n  2091: a2 = a2 >> 0x20\n  2094: a3 = u64 [s1 + 0xa8]\n  2098: a3 = a3 << 0x20\n  2101: a3 = a3 >> 0x20\n  2104: u64 [s1 + 568] = 0\n  2108: u64 [s1 + 600] = 0\n  2112: u64 [s1 + 0x250] = a3\n  2116: a0 = u64 [s1 + 0x68]\n  2119: u64 [s1 + 0x248] = a0\n  2123: a0 = u64 [s1 + 0x70]\n  2126: u64 [s1 + 0x240] = a0\n  2130: a3 = u64 [0x20000]\n  2135: a4 = u64 [0x20008]\n  2140: a5 = u64 [0x20010]\n  2145: a0 = u64 [0x20018]\n  2150: u64 [s1 + 0x278] = a3\n  2154: a3 = s1 + 0x200\n  2158: u64 [a3 + 0x70] = a4\n  2161: u64 [a3 + 0x68] = a5\n  2164: u64 [a3 + 0x60] = a0\n  2167: u64 [a3 + 0x30] = a2\n  2170: u64 [a3 + 0x28] = a1\n  2173: a2 = s1 + 0x260\n  2177: a3 = s1 + 0x240\n  2181: a4 = s1 + 0x220\n  2185: u64 [s1 + 0x220] = t0\n  2189: a0 = 0\n  2191: a1 = 0\n  2193: ra = 40, jump @15\n      : @47 [@dyn 20] (gas: 14)\n  2198: a2 = u64 [s1 + 0x80]\n  2202: a0 = a2 >u 0\n  2204: a1 = u64 [s1 + 0x78]\n  2207: a1 = a1 <u 0x65\n  2210: a1 = a1 ^ 0x1\n  2213: a1 = a0 if a2 != 0\n  2216: a3 = u64 [s1 + 0x90]\n  2220: a0 = a3 >u 0\n  2222: a4 = u64 [s1 + 0x88]\n  2226: a2 = a4 >u 0\n  2228: a2 = a0 if a4 == 0\n  2231: a0 = a3 | a4\n  2234: a2 = a1 if a0 == 0\n  2237: jump @58 if a2 == 0\n      : @48 (gas: 12)\n  2241: a0 = u64 [s1 + 0x98]\n  2245: a3 = u64 [s1 + 0x50]\n  2248: a0 = a0 | a3\n  2251: a1 = u64 [s1 + 0x60]\n  2254: a2 = u64 [s1 + 0x58]\n  2257: a1 = a1 | a2\n  2260: a0 = a0 | a1\n  2263: a0 = a0 >> 0x20\n  2266: a1 = a1 | a3\n  2269: a1 = a1 << 0x20\n  2272: a0 = a0 | a1\n  2275: jump @63 if a0 != 0\n      : @49 (gas: 8)\n  2279: u64 [s1 + 368] = 0\n  2283: u64 [s1 + 360] = 0\n  2287: u64 [s1 + 352] = 0\n  2291: a0 = 0x8c379a000000000\n  2301: a1 = s1 + 0x160\n  2305: u64 [s1 + 0x178] = a0\n  2309: a0 = u64 [s1 + 0x98]\n  2313: ra = 42, jump @9\n      : @50 [@dyn 21] (gas: 11)\n  2318: a0 = u64 [s1 + 0x58]\n  2321: a1 = u64 [s1 + 0x50]\n  2324: a2 = a1 | a0\n  2327: a3 = 0x100000000\n  2337: a0 = 0xfffffffc\n  2347: a1 = u64 [s1 + 0x98]\n  2351: a0 = a1 <u a0\n  2354: a1 = u64 [s1 + 0x60]\n  2357: a0 = 0 if a1 != 0\n  2359: a0 = 0 if a2 != 0\n  2361: jump @63 if a0 == 0\n      : @51 (gas: 11)\n  2365: a0 = u64 [s1 + 0x98]\n  2369: i32 a0 = a0 + 0x4\n  2372: u64 [s1 + 344] = 0\n  2376: u64 [s1 + 336] = 0\n  2380: u64 [s1 + 328] = 0\n  2384: a4 = 0x20\n  2387: a1 = s1 + 0x140\n  2391: u64 [s1 + 0x140] = a4\n  2395: u64 [s1 + 0xb8] = a2\n  2399: u64 [s1 + 0xb0] = a3\n  2403: ra = 44, jump @9\n      : @52 [@dyn 22] (gas: 9)\n  2408: a2 = u64 [s1 + 0xb8]\n  2412: a0 = u64 [s1 + 0xb0]\n  2416: a0 = a0 + 0xffffffffffffffdc\n  2419: a1 = u64 [s1 + 0x98]\n  2423: a0 = a1 <u a0\n  2426: a1 = u64 [s1 + 0x60]\n  2429: a0 = 0 if a1 != 0\n  2431: a0 = 0 if a2 != 0\n  2433: jump @63 if a0 == 0\n      : @53 (gas: 8)\n  2437: a0 = u64 [s1 + 0x98]\n  2441: i32 a0 = a0 + 0x24\n  2444: u64 [s1 + 312] = 0\n  2448: u64 [s1 + 304] = 0\n  2452: u64 [s1 + 288] = 0x20\n  2457: a1 = s1 + 0x120\n  2461: u64 [s1 + 296] = 0\n  2465: ra = 46, jump @9\n      : @54 [@dyn 23] (gas: 8)\n  2470: a0 = 0xffffffbc\n  2480: a1 = u64 [s1 + 0x98]\n  2484: a0 = a1 <u a0\n  2487: a1 = u64 [s1 + 0x60]\n  2490: a0 = 0 if a1 != 0\n  2492: a1 = u64 [s1 + 0xb8]\n  2496: a0 = 0 if a1 != 0\n  2498: jump @63 if a0 == 0\n      : @55 (gas: 13)\n  2502: a0 = u64 [s1 + 0x98]\n  2506: i32 a0 = a0 + 0x44\n  2509: a1 = u64 [0x20020]\n  2514: a4 = s1 + 0x100\n  2518: u64 [a4 + 0x18] = a1\n  2521: a1 = u64 [0x20028]\n  2526: a2 = u64 [0x20030]\n  2531: a3 = u64 [0x20038]\n  2536: u64 [a4 + 0x10] = a1\n  2539: u64 [a4 + 0x8] = a2\n  2542: a1 = s1 + 0x100\n  2546: u64 [a4] = a3\n  2548: ra = 48, jump @9\n      : @56 [@dyn 24] (gas: 3)\n  2553: a1 = 0x64\n  2556: a0 = u64 [s1 + 0x98]\n  2560: ra = 50, jump @18\n      : @57 [@dyn 25] (gas: 5)\n  2565: i32 a1 = a0 + 0\n  2567: a0 = 0x1\n  2570: a2 = 0x64\n  2573: ecalli 13 // 'seal_return'\n  2575: fallthrough\n      : @58 (gas: 12)\n  2576: a0 = u64 [s1 + 0x28]\n  2579: a3 = s1 + 0x200\n  2583: u64 [a3] = a0\n  2585: a0 = u64 [s1 + 0x30]\n  2588: u64 [a3 + 0x8] = a0\n  2591: a0 = u64 [s1 + 0x40]\n  2594: u64 [a3 + 0x10] = a0\n  2597: a0 = 0x80\n  2601: a1 = s1 + 0x200\n  2605: a2 = u64 [s1 + 0x48]\n  2608: u64 [a3 + 0x18] = a2\n  2611: ra = 52, jump @9\n      : @59 [@dyn 26] (gas: 11)\n  2616: a0 = u64 [s1 + 0x10]\n  2619: u64 [s1 + 0x1f8] = a0\n  2623: a0 = u64 [s1 + 0x18]\n  2626: u64 [s1 + 0x1f0] = a0\n  2630: a0 = u64 [s1 + 0x20]\n  2633: u64 [s1 + 0x1e8] = a0\n  2637: a0 = 0xa0\n  2641: a1 = s1 + 0x1e0\n  2645: a2 = u64 [s1 + 0x38]\n  2648: u64 [s1 + 0x1e0] = a2\n  2652: ra = 54, jump @9\n      : @60 [@dyn 27] (gas: 7)\n  2657: u64 [s1 + 1048] = 0\n  2661: u64 [s1 + 1040] = 0\n  2665: u64 [s1 + 1032] = 0\n  2669: u64 [s1 + 1024] = 0x1\n  2674: a0 = s1 + 0x400\n  2678: a1 = u64 [s1 + 0xa0]\n  2682: ra = 56, jump @12\n      : @61 [@dyn 28] (gas: 3)\n  2687: a0 = s1 + 0x1c0\n  2691: a1 = 0x40\n  2694: ra = 58, jump @7\n      : @62 [@dyn 29] (gas: 13)\n  2699: a4 = s1 + 0x100\n  2703: a3 = u64 [a4 + 0xd8]\n  2707: a1 = u64 [a4 + 0xd0]\n  2711: a2 = u64 [a4 + 0xc8]\n  2715: a0 = u64 [a4 + 0xc0]\n  2719: a3 = a3 | a2\n  2722: a2 = a0 | a1\n  2725: a2 = a2 | a3\n  2728: a2 = a2 >> 0x20\n  2731: a1 = a1 | a3\n  2734: a1 = a1 << 0x20\n  2737: a1 = a1 | a2\n  2740: jump @71 if a1 == 0\n      : @63 (gas: 1)\n  2744: trap\n      : @64 (gas: 6)\n  2745: a1 = 0x201d0\n  2750: i32 a1 = a1 + 0\n  2752: a0 = 0x1\n  2755: a2 = 0\n  2757: ecalli 13 // 'seal_return'\n  2759: jump @66\n      : @65 (gas: 6)\n  2761: a1 = 0x201d0\n  2766: i32 a1 = a1 + 0\n  2768: a0 = 0x1\n  2771: a2 = 0\n  2773: ecalli 13 // 'seal_return'\n  2775: fallthrough\n      : @66 (gas: 8)\n  2776: u64 [s1 + 240] = 0\n  2780: u64 [s1 + 232] = 0\n  2784: u64 [s1 + 224] = 0\n  2788: a0 = 0x1e4fbdf700000000\n  2798: a1 = s1 + 0xe0\n  2802: u64 [s1 + 0xf8] = a0\n  2806: a0 = 0\n  2808: ra = 60, jump @9\n      : @67 [@dyn 30] (gas: 7)\n  2813: u64 [s1 + 216] = 0\n  2817: u64 [s1 + 208] = 0\n  2821: u64 [s1 + 200] = 0\n  2825: a0 = 0x4\n  2828: a1 = s1 + 0xc0\n  2832: u64 [s1 + 192] = 0\n  2836: ra = 62, jump @9\n      : @68 [@dyn 31] (gas: 2)\n  2841: a1 = i32 [0x201c8]\n  2846: jump @70 if a1 >u 63\n      : @69 (gas: 2)\n  2850: u32 [0x201c8] = 0x40\n  2856: fallthrough\n      : @70 (gas: 8)\n  2857: a1 = 0x201d0\n  2862: i32 a1 = a1 + 0\n  2864: a0 = 0x1\n  2867: a2 = 0x24\n  2870: ecalli 13 // 'seal_return'\n  2872: u64 [s1 + 0xb8] = a0\n  2876: ra = 0x40\n  2879: jump @18\n      : @71 (gas: 2)\n  2882: u64 [s1 + 0xb8] = a0\n  2886: ra = 64, jump @18\n      : @72 [@dyn 32] (gas: 7)\n  2891: i32 a0 = a0 + 0\n  2893: a1 = 0\n  2895: a2 = 0\n  2897: ecalli 2 // 'call_data_copy'\n  2899: a0 = s1 + 0x1a0\n  2903: a1 = 0x80\n  2907: ra = 66, jump @7\n      : @73 [@dyn 33] (gas: 13)\n  2912: a0 = u64 [s1 + 0x1b8]\n  2916: a4 = 0x301f0\n  2921: u64 [s1 + 0xb0] = a4\n  2925: a1 = u64 [s1 + 0x1b0]\n  2929: a2 = u64 [s1 + 0x1a8]\n  2933: a3 = u64 [s1 + 0x1a0]\n  2937: u64 [0x30208] = a0\n  2942: u64 [0x30200] = a1\n  2947: u64 [0x301f8] = a2\n  2952: u64 [0x301f0] = a3\n  2957: a0 = s1 + 0x180\n  2961: a1 = 0xa0\n  2965: ra = 68, jump @7\n      : @74 [@dyn 34] (gas: 11)\n  2970: a4 = s1 + 0x100\n  2974: a0 = u64 [a4 + 0x98]\n  2978: a1 = u64 [a4 + 0x90]\n  2982: a2 = u64 [a4 + 0x88]\n  2986: a3 = u64 [a4 + 0x80]\n  2990: a4 = u64 [s1 + 0xb0]\n  2994: u64 [a4 + 0x38] = a0\n  2997: u64 [a4 + 0x30] = a1\n  3000: u64 [a4 + 0x28] = a2\n  3003: u64 [a4 + 0x20] = a3\n  3006: jump @5\n      : @75 (gas: 3)\n  3009: a0 = u64 [s1 + 0xb8]\n  3013: a1 = 0\n  3015: ra = 70, jump @18\n      : @76 [@dyn 35] (gas: 5)\n  3020: i32 a1 = a0 + 0\n  3022: a0 = 0\n  3024: a2 = 0\n  3026: ecalli 13 // 'seal_return'\n  3028: jump @66\n      : @77 [@dyn 36] (gas: 4)\n  3031: a0 = 0x201c4\n  3036: u64 [s1 + 0xd8] = a0\n  3040: a0 = i32 [0x201c4]\n  3045: jump @79 if a0 >=u 4\n      : @78 (gas: 1)\n  3049: jump @712\n      : @79 (gas: 6)\n  3052: a0 = s1 + 0x2000\n  3056: i32 a0 = a0 + 0xfffffffffffffb60\n  3060: a1 = 0\n  3062: ra = 0x4a\n  3065: ecalli 3 // 'call_data_load'\n  3067: fallthrough\n      : @80 [@dyn 37] (gas: 3)\n  3068: a2 = s1 + 0x1878\n  3072: a0 = i32 [a2 + 0x304]\n  3076: jump @82 if a0 != 2357215170\n      : @81 (gas: 1)\n  3083: jump @327\n      : @82 (gas: 1)\n  3086: jump @183 if a0 == 2376452955\n      : @83 (gas: 1)\n  3094: jump @85 if a0 != 2863441240\n      : @84 (gas: 1)\n  3101: jump @369\n      : @85 (gas: 2)\n  3104: a3 = s1 + 0x2078\n  3108: jump @87 if a0 != 2876972169\n      : @86 (gas: 1)\n  3115: jump @243\n      : @87 (gas: 1)\n  3118: jump @89 if a0 != 2986437588\n      : @88 (gas: 1)\n  3125: jump @317\n      : @89 (gas: 1)\n  3128: jump @91 if a0 != 3049398615\n      : @90 (gas: 1)\n  3135: jump @297\n      : @91 (gas: 1)\n  3138: jump @130 if a0 == 3134496799\n      : @92 (gas: 1)\n  3146: jump @94 if a0 != 3741391937\n      : @93 (gas: 1)\n  3153: jump @231\n      : @94 (gas: 1)\n  3156: jump @194 if a0 == 3903314574\n      : @95 (gas: 1)\n  3164: jump @97 if a0 == 1628634670\n      : @96 (gas: 1)\n  3171: jump @269\n      : @97 (gas: 8)\n  3174: u64 [a2 + 896] = 0\n  3178: u64 [a2 + 888] = 0\n  3182: u64 [a2 + 880] = 0\n  3186: u64 [a2 + 872] = 0\n  3190: a0 = s1 + 0x2000\n  3194: i32 a0 = a0 + 0xfffffffffffffbe0\n  3198: ecalli 16 // 'value_transferred'\n  3200: fallthrough\n      : @98 (gas: 10)\n  3201: a3 = s1 + 0x1878\n  3205: a4 = a3 + 0x300\n  3209: a0 = u64 [a4 + 0x78]\n  3212: a1 = u64 [a4 + 0x80]\n  3216: a2 = u64 [a4 + 0x70]\n  3219: a3 = u64 [a4 + 0x68]\n  3222: a1 = a1 | a2\n  3225: a0 = a0 | a3\n  3228: a0 = a0 | a1\n  3231: jump @100 if a0 == 0\n      : @99 (gas: 1)\n  3234: jump @654\n      : @100 (gas: 3)\n  3237: a0 = u64 [s1 + 0xd8]\n  3241: a0 = i32 [a0]\n  3243: jump @102 if a0 >u 35\n      : @101 (gas: 1)\n  3247: jump @655\n      : @102 (gas: 24)\n  3250: a0 = s1 + 0x2000\n  3254: i32 a0 = a0 + 0xfffffffffffffc00\n  3258: a1 = 0x4\n  3261: ecalli 3 // 'call_data_load'\n  3263: a0 = s1 + 0x1878\n  3267: a5 = a0 + 0x300\n  3271: a1 = u64 [a5 + 0xa0]\n  3275: a2 = u64 [a5 + 0x98]\n  3279: a3 = u64 [a5 + 0x90]\n  3283: a4 = u64 [a5 + 0x88]\n  3287: u64 [s1 + 0xd0] = a1\n  3291: u64 [s1 + 0xc0] = a3\n  3295: a0 = a3 | a1\n  3298: u64 [s1 + 0xc8] = a2\n  3302: u64 [s1 + 0xb8] = a4\n  3306: a1 = a4 | a2\n  3309: a0 = a0 | a1\n  3312: a0 = a0 >u 0\n  3314: u64 [s1 + 1784] = 0\n  3318: u64 [s1 + 1776] = 0\n  3322: u64 [s1 + 0x6e0] = a0\n  3326: a0 = s1 + 0x6e0\n  3330: u64 [s1 + 1768] = 0\n  3334: ra = 76, jump @768\n      : @103 [@dyn 38] (gas: 8)\n  3339: a0 = 0x301d0\n  3344: u64 [s1 + 0xd8] = a0\n  3348: i32 a0 = a0 + 0\n  3350: u64 [s1 + 0xb0] = a0\n  3354: ra = 0x4e\n  3357: ecalli 5 // 'caller'\n  3359: t0 = 0x50\n  3362: jump @894\n      : @104 [@dyn 39] (gas: 1)\n  3365: t0 = 80, jump @894\n      : @105 [@dyn 40] (gas: 7)\n  3370: u64 [s1 + 1752] = 0\n  3374: u64 [s1 + 0x6d0] = a1\n  3378: u64 [s1 + 0x6c8] = a0\n  3382: a1 = s1 + 0x6c0\n  3386: u64 [s1 + 0x6c0] = a3\n  3390: a0 = 0\n  3392: ra = 82, jump @9\n      : @106 [@dyn 41] (gas: 7)\n  3397: u64 [s1 + 1720] = 0\n  3401: u64 [s1 + 1712] = 0\n  3405: u64 [s1 + 1696] = 0x2\n  3410: a0 = 0x20\n  3413: a1 = s1 + 0x6a0\n  3417: u64 [s1 + 1704] = 0\n  3421: ra = 84, jump @9\n      : @107 [@dyn 42] (gas: 3)\n  3426: a2 = 0x201c8\n  3431: a0 = i32 [0x201c8]\n  3436: jump @109 if a0 >u 63\n      : @108 (gas: 2)\n  3440: u32 [0x201c8] = 0x40\n  3446: fallthrough\n      : @109 (gas: 15)\n  3447: u64 [s1 + 0x98] = a2\n  3451: a0 = sp + 0xffffffffffffffe0\n  3454: a2 = a0 & 0xffffffffffffffe0\n  3457: u64 [s1 + 0xa8] = a2\n  3461: sp = a2\n  3463: a0 = 0x201d0\n  3468: i32 a0 = a0 + 0\n  3470: i32 a2 = a2 + 0\n  3472: a1 = 0x40\n  3475: u64 [s1 + 0xa0] = a0\n  3479: ra = 0x56\n  3482: ecalli 9 // 'hash_keccak_256'\n  3484: a3 = u64 [s1 + 0xa8]\n  3488: t0 = 0x58\n  3491: jump @898\n      : @110 [@dyn 43] (gas: 2)\n  3494: a3 = u64 [s1 + 0xa8]\n  3498: t0 = 88, jump @898\n      : @111 [@dyn 44] (gas: 7)\n  3503: u64 [a5 + 0xc0] = a3\n  3507: u64 [a5 + 0xb8] = a2\n  3511: u64 [a5 + 0xb0] = a1\n  3515: u64 [a5 + 0xa8] = a0\n  3519: a0 = s1 + 0x680\n  3523: a1 = s1 + 0x1c20\n  3527: ra = 90, jump @11\n      : @112 [@dyn 45] (gas: 21)\n  3532: a1 = s1 + 0x600\n  3536: a0 = u64 [a1 + 0x98]\n  3540: t0 = u64 [s1 + 0x680]\n  3544: a2 = u64 [a1 + 0x90]\n  3548: a3 = u64 [a1 + 0x88]\n  3552: a5 = u64 [s1 + 0xd0]\n  3556: a4 = a0 ^ a5\n  3559: a1 = a0 <u a5\n  3562: a0 = u64 [s1 + 0xc8]\n  3566: a5 = a2 <u a0\n  3569: a5 = a1 if a4 != 0\n  3572: a1 = u64 [s1 + 0xc0]\n  3576: t1 = a3 ^ a1\n  3579: a3 = a3 <u a1\n  3582: a1 = u64 [s1 + 0xb8]\n  3586: a1 = t0 <u a1\n  3589: a1 = a3 if t1 != 0\n  3592: a0 = a0 ^ a2\n  3595: a0 = a0 | a4\n  3598: a1 = a5 if a0 != 0\n  3601: jump @114 if a1 != 0\n      : @113 (gas: 1)\n  3604: jump @394\n      : @114 (gas: 3)\n  3607: a0 = s1 + 0x1e0\n  3611: a1 = 0x40\n  3614: ra = 92, jump @7\n      : @115 [@dyn 46] (gas: 6)\n  3619: a1 = s1 + 0x100\n  3623: a4 = u64 [a1 + 0xf8]\n  3627: a5 = u64 [a1 + 0xf0]\n  3631: a3 = u64 [a1 + 0xe8]\n  3635: a0 = u64 [a1 + 0xe0]\n  3639: t0 = 94, jump @904\n      : @116 [@dyn 47] (gas: 1)\n  3644: jump @118 if a1 == 0\n      : @117 (gas: 1)\n  3647: jump @381\n      : @118 (gas: 11)\n  3650: u64 [s1 + 464] = 0\n  3654: u64 [s1 + 456] = 0\n  3658: u64 [s1 + 448] = 0\n  3662: a2 = 0x8c379a000000000\n  3672: a1 = s1 + 0x1c0\n  3676: u64 [s1 + 0x1d8] = a2\n  3680: u64 [s1 + 0xd8] = a0\n  3684: u64 [s1 + 0xd0] = a3\n  3688: u64 [s1 + 0xc8] = a4\n  3692: u64 [s1 + 0xc0] = a5\n  3696: ra = 96, jump @9\n      : @119 [@dyn 48] (gas: 5)\n  3701: a1 = u64 [s1 + 0xd8]\n  3705: a0 = u64 [s1 + 0xc8]\n  3709: a3 = u64 [s1 + 0xc0]\n  3713: a3 = a3 | a0\n  3716: t0 = 98, jump @897\n      : @120 [@dyn 49] (gas: 1)\n  3721: jump @122 if a0 != 0\n      : @121 (gas: 1)\n  3724: jump @381\n      : @122 (gas: 9)\n  3727: i32 a0 = a1 + 0x4\n  3730: u64 [s1 + 440] = 0\n  3734: u64 [s1 + 432] = 0\n  3738: u64 [s1 + 416] = 0x20\n  3743: a1 = s1 + 0x1a0\n  3747: u64 [s1 + 424] = 0\n  3751: u64 [s1 + 0xc8] = a3\n  3755: u64 [s1 + 0xc0] = a4\n  3759: ra = 100, jump @9\n      : @123 [@dyn 50] (gas: 9)\n  3764: a3 = u64 [s1 + 0xc8]\n  3768: a2 = u64 [s1 + 0xd0]\n  3772: a1 = u64 [s1 + 0xd8]\n  3776: a0 = u64 [s1 + 0xc0]\n  3780: a0 = a0 + 0xffffffffffffffdc\n  3783: a0 = a1 <u a0\n  3786: a0 = 0 if a2 != 0\n  3788: a0 = 0 if a3 != 0\n  3790: jump @125 if a0 != 0\n      : @124 (gas: 1)\n  3793: jump @381\n      : @125 (gas: 7)\n  3796: i32 a0 = a1 + 0x24\n  3799: u64 [s1 + 408] = 0\n  3803: u64 [s1 + 400] = 0\n  3807: u64 [s1 + 384] = 0x17\n  3812: a1 = s1 + 0x180\n  3816: u64 [s1 + 392] = 0\n  3820: ra = 102, jump @9\n      : @126 [@dyn 51] (gas: 3)\n  3825: a2 = u64 [s1 + 0xd8]\n  3829: a0 = 0xffffffbc\n  3839: t0 = 104, jump @907\n      : @127 [@dyn 52] (gas: 1)\n  3844: jump @129 if a0 != 0\n      : @128 (gas: 1)\n  3847: jump @381\n      : @129 (gas: 12)\n  3850: i32 a0 = a2 + 0x44\n  3853: a1 = u64 [0x20188]\n  3858: a2 = u64 [0x20190]\n  3863: a3 = u64 [0x20198]\n  3868: a4 = s1 + 0x100\n  3872: u64 [a4 + 0x78] = a1\n  3875: u64 [a4 + 0x70] = a2\n  3878: u64 [a4 + 0x68] = a3\n  3881: a1 = s1 + 0x160\n  3885: u64 [s1 + 352] = 0\n  3889: ra = 0x234\n  3893: jump @9\n      : @130 (gas: 9)\n  3896: u64 [a3 + 288] = 0\n  3900: u64 [a3 + 280] = 0\n  3904: u64 [a3 + 272] = 0\n  3908: u64 [a3 + 264] = 0\n  3912: a0 = s1 + 0x2000\n  3916: i32 a0 = a0 + 0x180\n  3920: ra = 0x6a\n  3923: ecalli 16 // 'value_transferred'\n  3925: fallthrough\n      : @131 [@dyn 53] (gas: 3)\n  3926: a3 = s1 + 0x2078\n  3930: a4 = a3 + 0x100\n  3934: t0 = 108, jump @911\n      : @132 [@dyn 54] (gas: 1)\n  3939: jump @134 if a0 == 0\n      : @133 (gas: 1)\n  3942: jump @656\n      : @134 (gas: 3)\n  3945: a0 = u64 [s1 + 0xd8]\n  3949: a0 = i32 [a0]\n  3951: jump @136 if a0 >u 35\n      : @135 (gas: 1)\n  3955: jump @657\n      : @136 (gas: 25)\n  3958: a0 = s1 + 0x2000\n  3962: i32 a0 = a0 + 0x1a0\n  3966: a1 = 0x4\n  3969: ecalli 3 // 'call_data_load'\n  3971: a0 = s1 + 0x2078\n  3975: a5 = a0 + 0x100\n  3979: a1 = u64 [a5 + 0x40]\n  3982: a2 = u64 [a5 + 0x38]\n  3985: a3 = u64 [a5 + 0x30]\n  3988: a4 = u64 [a5 + 0x28]\n  3991: u64 [s1 + 0xc8] = a1\n  3995: u64 [s1 + 0xb8] = a3\n  3999: a0 = a3 | a1\n  4002: u64 [s1 + 0xc0] = a2\n  4006: u64 [s1 + 0xb0] = a4\n  4010: a1 = a4 | a2\n  4013: a0 = a0 | a1\n  4016: a0 = a0 >u 0\n  4018: a1 = s1 + 0x1078\n  4022: u64 [a1 + 1952] = 0\n  4026: u64 [a1 + 1944] = 0\n  4030: u64 [a1 + 0x788] = a0\n  4034: a0 = s1 + 0x1800\n  4038: u64 [a1 + 1936] = 0\n  4042: ra = 110, jump @768\n      : @137 [@dyn 55] (gas: 8)\n  4047: a0 = 0x301d0\n  4052: u64 [s1 + 0xd8] = a0\n  4056: i32 a0 = a0 + 0\n  4058: u64 [s1 + 0xa8] = a0\n  4062: ra = 0x70\n  4065: ecalli 5 // 'caller'\n  4067: t0 = 0x72\n  4070: jump @894\n      : @138 [@dyn 56] (gas: 1)\n  4073: t0 = 114, jump @894\n      : @139 [@dyn 57] (gas: 9)\n  4078: a2 = s1 + 0x1078\n  4082: u64 [a2 + 1920] = 0\n  4086: a4 = a2 + 0x700\n  4090: u64 [a4 + 0x78] = a1\n  4093: u64 [a4 + 0x70] = a0\n  4096: a1 = s1 + 0x17e0\n  4100: u64 [a4 + 0x68] = a3\n  4103: a0 = 0\n  4105: ra = 116, jump @9\n      : @140 [@dyn 58] (gas: 9)\n  4110: a1 = s1 + 0x1078\n  4114: u64 [a1 + 1888] = 0\n  4118: u64 [a1 + 1880] = 0\n  4122: u64 [a1 + 1864] = 0x2\n  4127: a2 = a1\n  4129: a0 = 0x20\n  4132: a1 = s1 + 0x17c0\n  4136: u64 [a2 + 1872] = 0\n  4140: ra = 118, jump @9\n      : @141 [@dyn 59] (gas: 7)\n  4145: a0 = sp + 0xffffffffffffffe0\n  4148: a0 = a0 & 0xffffffffffffffe0\n  4151: u64 [s1 + 0xd0] = a0\n  4155: sp = a0\n  4157: a2 = 0x201c8\n  4162: a0 = i32 [0x201c8]\n  4167: jump @143 if a0 >u 63\n      : @142 (gas: 2)\n  4171: u32 [0x201c8] = 0x40\n  4177: fallthrough\n      : @143 (gas: 15)\n  4178: u64 [s1 + 0x98] = a2\n  4182: a0 = sp + 0xffffffffffffffe0\n  4185: a2 = a0 & 0xffffffffffffffe0\n  4188: u64 [s1 + 0xa0] = a2\n  4192: sp = a2\n  4194: a0 = 0x201d0\n  4199: i32 a0 = a0 + 0\n  4201: i32 a2 = a2 + 0\n  4203: a1 = 0x40\n  4206: u64 [s1 + 0x80] = a0\n  4210: ra = 0x78\n  4213: ecalli 9 // 'hash_keccak_256'\n  4215: a3 = u64 [s1 + 0xa0]\n  4219: t0 = 0x7a\n  4222: jump @916\n      : @144 [@dyn 60] (gas: 2)\n  4225: a3 = u64 [s1 + 0xa0]\n  4229: t0 = 122, jump @916\n      : @145 [@dyn 61] (gas: 7)\n  4234: a1 = u64 [s1 + 0xd0]\n  4238: u64 [a1 + 0x18] = a3\n  4241: u64 [a1 + 0x10] = a2\n  4244: u64 [a1 + 0x8] = a4\n  4247: u64 [a1] = a0\n  4249: a0 = s1 + 0x17a0\n  4253: ra = 124, jump @11\n      : @146 [@dyn 62] (gas: 39)\n  4258: a1 = s1 + 0x1078\n  4262: t2 = u64 [a1 + 0x740]\n  4266: a2 = a1 + 0x700\n  4270: a0 = u64 [a2 + 0x38]\n  4273: a4 = u64 [a2 + 0x28]\n  4276: a5 = u64 [a2 + 0x30]\n  4279: a1 = sp + 0xffffffffffffffe0\n  4282: a1 = a1 & 0xffffffffffffffe0\n  4285: sp = a1\n  4287: a3 = u64 [s1 + 0xb8]\n  4291: a3 = a3 + a5\n  4294: t0 = u64 [s1 + 0xb0]\n  4298: t0 = t0 + a4\n  4301: a4 = t0 <u a4\n  4304: a3 = a3 + a4\n  4307: t1 = a3 ^ a5\n  4310: a2 = a3 <u a5\n  4313: a2 = a4 if t1 == 0\n  4316: a4 = u64 [s1 + 0xc0]\n  4320: a4 = a4 + a0\n  4323: a5 = a4 + a2\n  4326: t1 = a5 <u a4\n  4329: ra = u64 [s1 + 0xc8]\n  4333: ra = ra + t2\n  4336: a4 = a4 <u a0\n  4339: a4 = a4 + ra\n  4342: ra = a4 + t1\n  4345: t1 = a5 <u a0\n  4348: a4 = t2 ^ ra\n  4351: t2 = ra <u t2\n  4354: t2 = t1 if a4 == 0\n  4357: a0 = a0 ^ a5\n  4360: a0 = a0 | a4\n  4363: t2 = a2 if a0 == 0\n  4366: u64 [a1 + 0x10] = a5\n  4369: u64 [a1 + 0x8] = a3\n  4372: u64 [a1] = t0\n  4374: u64 [a1 + 0x18] = ra\n  4377: jump @148 if t2 == 0\n      : @147 (gas: 1)\n  4380: jump @658\n      : @148 (gas: 2)\n  4383: a0 = u64 [s1 + 0xd0]\n  4387: ra = 126, jump @12\n      : @149 [@dyn 63] (gas: 3)\n  4392: a0 = s1 + 0x1780\n  4396: a1 = 0x40\n  4399: ra = 128, jump @7\n      : @150 [@dyn 64] (gas: 14)\n  4405: a5 = s1 + 0x1078\n  4409: t0 = u64 [a5 + 0x720]\n  4413: a1 = a5 + 0x700\n  4417: a4 = u64 [a1 + 0x18]\n  4420: a3 = u64 [a1 + 0x10]\n  4423: a0 = u64 [a1 + 0x8]\n  4426: a2 = a3 | t0\n  4429: a1 = a0 | a4\n  4432: a1 = a1 | a2\n  4435: a1 = a1 >> 0x20\n  4438: a2 = a2 | a4\n  4441: a2 = a2 << 0x20\n  4444: a1 = a1 | a2\n  4447: jump @152 if a1 == 0\n      : @151 (gas: 1)\n  4450: jump @381\n      : @152 (gas: 11)\n  4453: u64 [a5 + 1784] = 0\n  4457: u64 [a5 + 1776] = 0\n  4461: u64 [a5 + 1768] = 0\n  4465: u64 [s1 + 0xa0] = a3\n  4469: a3 = 0x23b872dd00000000\n  4479: a1 = s1 + 0x1760\n  4483: u64 [a5 + 0x700] = a3\n  4487: u64 [s1 + 0xd0] = a0\n  4491: u64 [s1 + 0x98] = a4\n  4495: u64 [s1 + 0x90] = t0\n  4499: ra = 130, jump @9\n      : @153 [@dyn 65] (gas: 6)\n  4505: a0 = u64 [s1 + 0xa8]\n  4509: ra = 0x84\n  4513: ecalli 0 // 'address'\n  4514: a2 = u64 [s1 + 0xd8]\n  4518: t0 = 0x86\n  4522: jump @905\n      : @154 [@dyn 66] (gas: 2)\n  4525: a2 = u64 [s1 + 0xd8]\n  4529: t0 = 134, jump @905\n      : @155 [@dyn 67] (gas: 14)\n  4535: u64 [s1 + 0x88] = a1\n  4539: a0 = a0 >> 0x20\n  4542: a1 = reverse a2\n  4544: a2 = a1 << 0x20\n  4547: a0 = a0 | a2\n  4550: u64 [s1 + 0x78] = a0\n  4553: a1 = a1 >> 0x20\n  4556: u64 [s1 + 0x70] = a1\n  4559: a0 = u64 [s1 + 0xa8]\n  4563: ra = 0x88\n  4567: ecalli 5 // 'caller'\n  4569: a2 = u64 [s1 + 0xd8]\n  4573: t0 = 0x8a\n  4577: jump @896\n      : @156 [@dyn 68] (gas: 2)\n  4580: a2 = u64 [s1 + 0xd8]\n  4584: t0 = 138, jump @896\n      : @157 [@dyn 69] (gas: 50)\n  4590: t0 = a1 | a0\n  4593: a3 = a3 >> 0x20\n  4596: a2 = reverse a2\n  4598: a1 = a2 << 0x20\n  4601: t1 = a1 | a3\n  4604: t2 = a2 >> 0x20\n  4607: a0 = u64 [s1 + 0xd0]\n  4611: a3 = a0 + 0x4\n  4614: a5 = a3 <u a0\n  4617: a0 = u64 [s1 + 0xa0]\n  4621: a1 = a0 + a5\n  4624: a0 = a1 <u a0\n  4627: a0 = a5 if a5 == 0\n  4630: a4 = u64 [s1 + 0x98]\n  4634: a0 = a0 + a4\n  4637: a5 = a0 <u a4\n  4640: a4 = u64 [s1 + 0x90]\n  4644: a5 = a5 + a4\n  4647: a4 = s1 + 0x1078\n  4651: a2 = u64 [s1 + 0x70]\n  4654: u64 [a4 + 0x678] = a2\n  4658: a2 = u64 [s1 + 0x78]\n  4661: u64 [a4 + 0x670] = a2\n  4665: a2 = u64 [s1 + 0x88]\n  4669: u64 [a4 + 0x668] = a2\n  4673: a2 = a4 + 0x600\n  4677: u64 [a2 + 0xc0] = a5\n  4681: u64 [a2 + 0xb8] = a0\n  4685: a0 = u64 [s1 + 0xc8]\n  4689: u64 [a2 + 0x60] = a0\n  4692: a0 = u64 [s1 + 0xc0]\n  4696: u64 [a2 + 0x58] = a0\n  4699: a0 = u64 [s1 + 0xb8]\n  4703: u64 [a2 + 0x50] = a0\n  4706: a0 = u64 [s1 + 0xb0]\n  4710: u64 [a2 + 0x48] = a0\n  4713: u64 [a4 + 1664] = 0\n  4717: u64 [a2 + 0xb0] = a1\n  4721: u64 [a2 + 0xa8] = a3\n  4725: u64 [a4 + 0x698] = t2\n  4729: u64 [a4 + 0x690] = t1\n  4733: u64 [a4 + 0x688] = t0\n  4737: a5 = a4\n  4739: a0 = s1 + 0x1740\n  4743: a1 = s1 + 0x1720\n  4747: a2 = s1 + 0x1700\n  4751: a3 = s1 + 0x16e0\n  4755: a4 = s1 + 0x16c0\n  4759: u64 [a5 + 1696] = 0\n  4763: ra = 140, jump @824\n      : @158 [@dyn 70] (gas: 17)\n  4769: a1 = s1 + 0x1078\n  4773: a0 = u64 [a1 + 0x6d0]\n  4777: t0 = u64 [a1 + 0x6e0]\n  4781: t1 = u64 [a1 + 0x6c8]\n  4785: a3 = u64 [a1 + 0x6d8]\n  4789: a1 = u64 [s1 + 0xa0]\n  4793: a4 = a0 ^ a1\n  4796: a5 = a0 <u a1\n  4799: ra = u64 [s1 + 0xd0]\n  4803: t2 = t1 <u ra\n  4806: a5 = t2 if a4 == 0\n  4809: a2 = u64 [s1 + 0x98]\n  4813: a4 = a3 - a2\n  4816: a3 = a3 <u a2\n  4819: a2 = u64 [s1 + 0x90]\n  4823: a2 = t0 - a2\n  4826: t0 = 142, jump @912\n      : @159 [@dyn 71] (gas: 2)\n  4832: u64 [s1 + 0x88] = a0\n  4836: ra = 144, jump @0\n      : @160 [@dyn 72] (gas: 10)\n  4842: a1 = u64 [0x301f0]\n  4847: u64 [s1 + 0x60] = a1\n  4850: a1 = u64 [0x30200]\n  4855: u64 [s1 + 0x58] = a1\n  4858: a0 = u64 [0x301f8]\n  4863: u64 [s1 + 0x50] = a0\n  4866: ra = 0x92\n  4870: ecalli 10 // 'ref_time_left'\n  4872: t0 = 0x94\n  4876: jump @900\n      : @161 [@dyn 73] (gas: 1)\n  4879: t0 = 148, jump @900\n      : @162 [@dyn 74] (gas: 19)\n  4885: i32 a0 = a0 + 0x78\n  4888: a2 = s1 + a0\n  4891: u64 [a2 + 352] = 0\n  4895: u64 [a2 + 344] = 0\n  4899: u64 [a2 + 336] = 0\n  4903: a0 = u64 [s1 + 0x88]\n  4907: t0 = a0\n  4909: a5 = u64 [s1 + 0x70]\n  4912: a0 = a0 | a5\n  4915: a1 = u64 [s1 + 0x78]\n  4918: a4 = u64 [s1 + 0x68]\n  4921: a1 = a1 | a4\n  4924: a0 = a0 | a1\n  4927: a0 = a0 >> 0x20\n  4930: a1 = a1 | a5\n  4933: a1 = a1 << 0x20\n  4936: a0 = a0 | a1\n  4939: u64 [a2 + 328] = 0\n  4943: jump @164 if a0 == 0\n      : @163 (gas: 1)\n  4946: jump @381\n      : @164 (gas: 3)\n  4949: a0 = u64 [s1 + 0xd0]\n  4953: a1 = t0\n  4955: ra = 150, jump @18\n      : @165 [@dyn 75] (gas: 4)\n  4961: u64 [s1 + 0x78] = a0\n  4964: a1 = 0x20\n  4967: a0 = u64 [s1 + 0xd0]\n  4971: ra = 152, jump @18\n      : @166 [@dyn 76] (gas: 34)\n  4977: a2 = s1 + 0x2078\n  4981: a3 = a2 + 0x100\n  4985: u32 [a3 + 104] = 0x20\n  4989: u64 [a3 + 160] = 0xffffffffffffffff\n  4994: u64 [a3 + 152] = 0xffffffffffffffff\n  4999: u64 [a3 + 144] = 0xffffffffffffffff\n  5004: u64 [a3 + 136] = 0xffffffffffffffff\n  5009: a1 = u64 [s1 + 0xd8]\n  5013: a1 = a1 << 0x20\n  5016: a1 = a1 >> 0x20\n  5019: a2 = 0x800000000\n  5029: t0 = a1 | a2\n  5032: a1 = s1 + 0x21c0\n  5036: a1 = a1 << 0x20\n  5039: a1 = a1 >> 0x20\n  5042: a2 = s1 + 0x2200\n  5046: a2 = a2 << 0x20\n  5049: a3 = a2 | a1\n  5052: a1 = u64 [s1 + 0x78]\n  5055: a1 = a1 << 0x20\n  5058: a1 = a1 >> 0x20\n  5061: a4 = u64 [s1 + 0x88]\n  5065: a4 = a4 << 0x20\n  5068: a4 = a4 | a1\n  5071: a0 = a0 << 0x20\n  5074: a0 = a0 >> 0x20\n  5077: a1 = s1 + 0x21e0\n  5081: a1 = a1 << 0x20\n  5084: a5 = a1 | a0\n  5087: a1 = 0xffffffffffffffff\n  5090: a2 = 0xffffffffffffffff\n  5093: a0 = t0\n  5095: ecalli 1 // 'call'\n  5097: fallthrough\n      : @167 (gas: 1)\n  5098: jump @169 if a0 == 0\n      : @168 (gas: 1)\n  5101: jump @513\n      : @169 (gas: 2)\n  5104: ecalli 12 // 'return_data_size'\n  5106: fallthrough\n      : @170 (gas: 2)\n  5107: a1 = 0x20\n  5110: jump @172 if a0 >=u a1\n      : @171 (gas: 3)\n  5113: ecalli 12 // 'return_data_size'\n  5115: a1 = a0\n  5117: fallthrough\n      : @172 (gas: 18)\n  5118: a2 = s1 + 0x1078\n  5122: a3 = u64 [s1 + 0xd0]\n  5126: a4 = u64 [s1 + 0x98]\n  5130: a5 = u64 [s1 + 0x90]\n  5134: u64 [s1 + 0x78] = a1\n  5137: u64 [s1 + 136] = 0\n  5141: u64 [a2 + 0x5e8] = a1\n  5145: u64 [a2 + 0x608] = a3\n  5149: u64 [a2 + 1520] = 0\n  5153: a3 = u64 [s1 + 0xa0]\n  5157: u64 [a2 + 0x610] = a3\n  5161: u64 [a2 + 1528] = 0\n  5165: u64 [a2 + 0x618] = a4\n  5169: u64 [a2 + 1536] = 0\n  5173: a0 = s1 + 0x1680\n  5177: a1 = s1 + 0x1660\n  5181: u64 [a2 + 0x620] = a5\n  5185: ra = 154, jump @799\n      : @173 [@dyn 77] (gas: 40)\n  5191: t1 = u64 [s1 + 0xd0]\n  5195: a1 = u64 [s1 + 0x78]\n  5198: a0 = a1 + t1\n  5201: a1 = a0 <u a1\n  5204: t0 = u64 [s1 + 0xa0]\n  5208: a5 = u64 [s1 + 0x88]\n  5212: a2 = a5 + t0\n  5215: a2 = a2 + a1\n  5218: a3 = a2 ^ a5\n  5221: a4 = a2 <u a5\n  5224: a4 = a1 if a3 == 0\n  5227: ra = u64 [s1 + 0x98]\n  5231: a1 = a5 + ra\n  5234: a4 = a4 + a1\n  5237: t2 = a4 <u a1\n  5240: a1 = a1 <u a5\n  5243: a3 = u64 [s1 + 0x90]\n  5247: a5 = a5 + a3\n  5250: a1 = a1 + a5\n  5253: t2 = t2 + a1\n  5256: a1 = s1 + 0x1078\n  5260: u64 [a1 + 0x598] = a4\n  5264: a1 = s1 + 0x1078\n  5268: u64 [a1 + 0x590] = a2\n  5272: a1 = s1 + 0x1078\n  5276: u64 [a1 + 0x588] = a0\n  5280: a0 = s1 + 0x1078\n  5284: u64 [a0 + 0x5c0] = a3\n  5288: a0 = s1 + 0x1078\n  5292: u64 [a0 + 0x5b8] = ra\n  5296: a0 = s1 + 0x1078\n  5300: u64 [a0 + 0x5b0] = t0\n  5304: a0 = s1 + 0x1078\n  5308: u64 [a0 + 0x5a8] = t1\n  5312: a0 = s1 + 0x1640\n  5316: a1 = s1 + 0x1620\n  5320: a2 = s1 + 0x1600\n  5324: a4 = s1 + 0x1078\n  5328: u64 [a4 + 0x5a0] = t2\n  5332: ra = 156, jump @809\n      : @174 [@dyn 78] (gas: 3)\n  5338: a0 = s1 + 0x15e0\n  5342: a1 = 0x40\n  5345: ra = 158, jump @7\n      : @175 [@dyn 79] (gas: 7)\n  5351: a3 = s1 + 0x1078\n  5355: a5 = a3 + 0x500\n  5359: a0 = u64 [a5 + 0x80]\n  5363: a1 = u64 [a5 + 0x78]\n  5366: a2 = u64 [a5 + 0x70]\n  5369: a4 = u64 [a5 + 0x68]\n  5372: t0 = 160, jump @908\n      : @176 [@dyn 80] (gas: 1)\n  5378: jump @178 if a0 == 0\n      : @177 (gas: 1)\n  5381: jump @381\n      : @178 (gas: 13)\n  5384: a0 = u64 [s1 + 0xb0]\n  5388: a2 = a3 + 0x500\n  5392: u64 [a2 + 0x48] = a0\n  5395: a0 = u64 [s1 + 0xb8]\n  5399: u64 [a2 + 0x50] = a0\n  5402: a0 = u64 [s1 + 0xc0]\n  5406: u64 [a2 + 0x58] = a0\n  5409: a1 = s1 + 0x15c0\n  5413: a0 = u64 [s1 + 0xc8]\n  5417: u64 [a2 + 0x60] = a0\n  5420: a0 = a4\n  5422: u64 [s1 + 0xd0] = a4\n  5426: ra = 162, jump @9\n      : @179 [@dyn 81] (gas: 6)\n  5432: a0 = u64 [s1 + 0xa8]\n  5436: ra = 0xa4\n  5440: ecalli 5 // 'caller'\n  5442: a2 = u64 [s1 + 0xd8]\n  5446: t0 = 0xa6\n  5450: jump @896\n      : @180 [@dyn 82] (gas: 2)\n  5453: a2 = u64 [s1 + 0xd8]\n  5457: t0 = 166, jump @896\n      : @181 [@dyn 83] (gas: 25)\n  5463: t0 = a1 | a0\n  5466: a3 = a3 >> 0x20\n  5469: a2 = reverse a2\n  5471: a1 = a2 << 0x20\n  5474: a1 = a1 | a3\n  5477: a2 = a2 >> 0x20\n  5480: a3 = u64 [0x20060]\n  5485: a0 = s1 + 0x1078\n  5489: u64 [a0 + 0x540] = a3\n  5493: a3 = u64 [0x20068]\n  5498: a4 = u64 [0x20070]\n  5503: a5 = u64 [0x20078]\n  5508: u64 [a0 + 0x538] = a3\n  5512: a3 = a0 + 0x500\n  5516: u64 [a3 + 0x30] = a4\n  5519: u64 [a0 + 1312] = 0\n  5523: u64 [a3 + 0x28] = a5\n  5526: u64 [a3 + 0x18] = a2\n  5529: u64 [a3 + 0x10] = a1\n  5532: a1 = 0x20\n  5535: a2 = s1 + 0x15a0\n  5539: a3 = s1 + 0x1580\n  5543: u64 [a0 + 0x508] = t0\n  5547: a0 = u64 [s1 + 0xd0]\n  5551: ra = 168, jump @13\n      : @182 [@dyn 84] (gas: 5)\n  5557: a0 = 0\n  5559: a1 = u64 [s1 + 0x80]\n  5563: a2 = 0\n  5565: ecalli 13 // 'seal_return'\n  5567: jump @714\n      : @183 (gas: 10)\n  5570: u64 [a2 + 1888] = 0\n  5574: u64 [a2 + 1880] = 0\n  5578: u64 [a2 + 1872] = 0\n  5582: u64 [a2 + 1864] = 0\n  5586: a0 = s1 + 0x2000\n  5590: i32 a0 = a0 + 0xffffffffffffffc0\n  5593: ra = 0xaa\n  5597: ecalli 16 // 'value_transferred'\n  5599: t0 = 0xac\n  5603: jump @917\n      : @184 [@dyn 85] (gas: 1)\n  5606: t0 = 172, jump @917\n      : @185 [@dyn 86] (gas: 8)\n  5612: a0 = u64 [a4 + 0x58]\n  5615: a1 = u64 [a4 + 0x60]\n  5618: a2 = u64 [a4 + 0x50]\n  5621: a3 = u64 [a4 + 0x48]\n  5624: a1 = a1 | a2\n  5627: a0 = a0 | a3\n  5630: a0 = a0 | a1\n  5633: jump @187 if a0 == 0\n      : @186 (gas: 1)\n  5636: jump @664\n      : @187 (gas: 3)\n  5639: a0 = u64 [s1 + 0xd8]\n  5643: a0 = i32 [a0]\n  5645: jump @189 if a0 >u 3\n      : @188 (gas: 1)\n  5649: jump @665\n      : @189 (gas: 9)\n  5652: a0 = s1 + 0x1878\n  5656: u64 [a0 + 1920] = 0\n  5660: u64 [a0 + 1912] = 0\n  5664: u64 [a0 + 1904] = 0\n  5668: u64 [a0 + 1896] = 0\n  5672: a0 = s1 + 0x7ff\n  5676: a0 = a0 + 0x781\n  5680: a1 = s1 + 0x1fe0\n  5684: ra = 174, jump @11\n      : @190 [@dyn 87] (gas: 13)\n  5690: a0 = s1 + 0x7ff\n  5694: a0 = a0 + 0x61\n  5697: a2 = a0 + 0x700\n  5701: a1 = u64 [a2 + 0x30]\n  5704: u64 [s1 + 0xc8] = a1\n  5708: a1 = u64 [a2 + 0x28]\n  5711: u64 [s1 + 0xd8] = a1\n  5715: a0 = u64 [a2 + 0x20]\n  5718: u64 [s1 + 0xd0] = a0\n  5722: a0 = s1 + 0x7ff\n  5726: a0 = a0 + 0x761\n  5730: a1 = 0x40\n  5733: ra = 176, jump @7\n      : @191 [@dyn 88] (gas: 15)\n  5739: a3 = s1 + 0x7ff\n  5743: a3 = a3 + 0x61\n  5746: a5 = a3 + 0x700\n  5750: a4 = u64 [a5 + 0x18]\n  5753: a1 = u64 [a5 + 0x10]\n  5756: a2 = u64 [a5 + 0x8]\n  5759: a0 = u64 [a5]\n  5761: a4 = a4 | a2\n  5764: a2 = a0 | a1\n  5767: a2 = a2 | a4\n  5770: a2 = a2 >> 0x20\n  5773: a1 = a1 | a4\n  5776: a1 = a1 << 0x20\n  5779: a1 = a1 | a2\n  5782: jump @193 if a1 == 0\n      : @192 (gas: 1)\n  5785: jump @381\n      : @193 (gas: 15)\n  5788: a1 = u64 [s1 + 0xc8]\n  5792: a1 = a1 << 0x20\n  5795: a2 = a1 >> 0x20\n  5798: u64 [a3 + 1784] = 0\n  5802: a1 = u64 [s1 + 0xd0]\n  5806: a4 = a3 + 0x600\n  5810: u64 [a4 + 0xe0] = a1\n  5814: a1 = u64 [s1 + 0xd8]\n  5818: u64 [a4 + 0xe8] = a1\n  5822: a1 = s1 + 0x7ff\n  5826: a1 = a1 + 0x741\n  5830: u64 [a4 + 0xf0] = a2\n  5834: u64 [s1 + 0xd8] = a0\n  5838: ra = 0xe0\n  5842: jump @9\n      : @194 (gas: 9)\n  5845: u64 [a3 + 544] = 0\n  5849: u64 [a3 + 536] = 0\n  5853: u64 [a3 + 528] = 0\n  5857: u64 [a3 + 520] = 0\n  5861: a0 = s1 + 0x2000\n  5865: i32 a0 = a0 + 0x280\n  5869: ra = 0xb2\n  5873: ecalli 16 // 'value_transferred'\n  5875: fallthrough\n      : @195 [@dyn 89] (gas: 3)\n  5876: a3 = s1 + 0x2078\n  5880: a4 = a3 + 0x200\n  5884: t0 = 180, jump @911\n      : @196 [@dyn 90] (gas: 1)\n  5890: jump @198 if a0 == 0\n      : @197 (gas: 1)\n  5893: jump @666\n      : @198 (gas: 3)\n  5896: a0 = u64 [s1 + 0xd8]\n  5900: a0 = i32 [a0]\n  5902: jump @200 if a0 >u 35\n      : @199 (gas: 1)\n  5906: jump @667\n      : @200 (gas: 6)\n  5909: a0 = s1 + 0x2000\n  5913: i32 a0 = a0 + 0x2a0\n  5917: a1 = 0x4\n  5920: ra = 0xb6\n  5924: ecalli 3 // 'call_data_load'\n  5926: fallthrough\n      : @201 [@dyn 91] (gas: 4)\n  5927: a4 = s1 + 0x2078\n  5931: a1 = u64 [a4 + 0x238]\n  5935: a0 = u64 [a4 + 0x240]\n  5939: t0 = 184, jump @903\n      : @202 [@dyn 92] (gas: 1)\n  5945: jump @204 if a3 != 0\n      : @203 (gas: 1)\n  5948: jump @668\n      : @204 (gas: 11)\n  5951: a2 = u64 [a4 + 0x230]\n  5955: a3 = u64 [a4 + 0x228]\n  5959: a4 = s1 + 0x1878\n  5963: a5 = a4 + 0x100\n  5967: u64 [a5 + 0xe8] = a3\n  5971: u64 [a5 + 0xf0] = a2\n  5975: u64 [a5 + 0xf8] = a1\n  5979: a1 = s1 + 0x1a60\n  5983: u64 [a4 + 0x200] = a0\n  5987: a0 = 0\n  5989: ra = 186, jump @9\n      : @205 [@dyn 93] (gas: 9)\n  5995: a1 = s1 + 0x1878\n  5999: u64 [a1 + 480] = 0\n  6003: u64 [a1 + 472] = 0\n  6007: u64 [a1 + 456] = 0x3\n  6012: a2 = a1\n  6014: a0 = 0x20\n  6017: a1 = s1 + 0x1a40\n  6021: u64 [a2 + 464] = 0\n  6025: ra = 188, jump @9\n      : @206 [@dyn 94] (gas: 6)\n  6031: a0 = sp + 0xffffffffffffffe0\n  6034: a0 = a0 & 0xffffffffffffffe0\n  6037: u64 [s1 + 0xd0] = a0\n  6041: sp = a0\n  6043: a1 = i32 [0x201c8]\n  6048: jump @208 if a1 >u 63\n      : @207 (gas: 2)\n  6052: u32 [0x201c8] = 0x40\n  6058: fallthrough\n      : @208 (gas: 13)\n  6059: a0 = sp + 0xffffffffffffffe0\n  6062: a2 = a0 & 0xffffffffffffffe0\n  6065: u64 [s1 + 0xd8] = a2\n  6069: sp = a2\n  6071: a0 = 0x201d0\n  6076: i32 a0 = a0 + 0\n  6078: i32 a2 = a2 + 0\n  6080: a1 = 0x40\n  6083: ra = 0xbe\n  6087: ecalli 9 // 'hash_keccak_256'\n  6089: a3 = u64 [s1 + 0xd8]\n  6093: t0 = 0xc0\n  6097: jump @915\n      : @209 [@dyn 95] (gas: 2)\n  6100: a3 = u64 [s1 + 0xd8]\n  6104: t0 = 192, jump @915\n      : @210 [@dyn 96] (gas: 12)\n  6110: u64 [s1 + 0xa8] = a1\n  6114: a2 = u64 [s1 + 0xd0]\n  6118: u64 [a2 + 0x18] = a1\n  6121: u64 [s1 + 0xb0] = a0\n  6125: u64 [a2 + 0x10] = a0\n  6128: u64 [s1 + 0xa0] = a4\n  6132: u64 [a2 + 0x8] = a4\n  6135: u64 [s1 + 0x98] = a5\n  6139: u64 [a2] = a5\n  6141: a0 = s1 + 0x1a20\n  6145: a1 = 0x40\n  6148: ra = 194, jump @7\n      : @211 [@dyn 97] (gas: 16)\n  6154: a1 = s1 + 0x1878\n  6158: a5 = a1 + 0x100\n  6162: a0 = u64 [a5 + 0xc0]\n  6166: u64 [s1 + 0xc0] = a0\n  6170: a2 = u64 [a5 + 0xb8]\n  6174: u64 [s1 + 0xb8] = a2\n  6178: a4 = u64 [a5 + 0xb0]\n  6182: u64 [s1 + 0xc8] = a4\n  6186: a3 = u64 [a5 + 0xa8]\n  6190: u64 [s1 + 0xd8] = a3\n  6194: u64 [a5 + 0xa0] = a0\n  6198: u64 [a5 + 0x98] = a2\n  6202: u64 [a5 + 0x90] = a4\n  6206: a0 = s1 + 0x1a00\n  6210: u64 [a5 + 0x88] = a3\n  6214: ra = 196, jump @790\n      : @212 [@dyn 98] (gas: 3)\n  6220: a0 = s1 + 0x19e0\n  6224: a1 = u64 [s1 + 0xd0]\n  6228: ra = 198, jump @11\n      : @213 [@dyn 99] (gas: 6)\n  6234: a0 = u64 [s1 + 0xc0]\n  6238: a1 = u64 [s1 + 0xc8]\n  6242: a0 = a0 | a1\n  6245: a2 = u64 [s1 + 0xb8]\n  6249: a1 = u64 [s1 + 0xd8]\n  6253: t0 = 200, jump @914\n      : @214 [@dyn 100] (gas: 1)\n  6259: jump @216 if a0 == 0\n      : @215 (gas: 1)\n  6262: jump @381\n      : @216 (gas: 17)\n  6265: a0 = s1 + 0x1878\n  6269: a5 = a0 + 0x100\n  6273: a4 = u64 [a5 + 0x80]\n  6277: a3 = u64 [a5 + 0x78]\n  6280: a2 = u64 [a5 + 0x70]\n  6283: a1 = u64 [a5 + 0x68]\n  6286: u64 [s1 + 0xd0] = a1\n  6290: u64 [a5 + 0x48] = a1\n  6293: u64 [s1 + 0x90] = a2\n  6297: u64 [a5 + 0x50] = a2\n  6300: u64 [s1 + 0x88] = a3\n  6304: u64 [a5 + 0x58] = a3\n  6307: a1 = s1 + 0x19c0\n  6311: u64 [s1 + 0x80] = a4\n  6315: u64 [a5 + 0x60] = a4\n  6318: a0 = u64 [s1 + 0xd8]\n  6322: ra = 202, jump @9\n      : @217 [@dyn 101] (gas: 21)\n  6328: a0 = u64 [s1 + 0x98]\n  6332: a0 = a0 + 0x1\n  6335: a1 = a0 <u 0x1\n  6338: a2 = u64 [s1 + 0xa0]\n  6342: a1 = a1 + a2\n  6345: a2 = a0 | a1\n  6348: a2 = a2 <u 0x1\n  6351: a3 = u64 [s1 + 0xb0]\n  6355: a2 = a2 + a3\n  6358: a3 = a2 <u a3\n  6361: a4 = u64 [s1 + 0xa8]\n  6365: a3 = a3 + a4\n  6368: a4 = s1 + 0x2078\n  6372: a5 = a4 + 0x200\n  6376: u64 [a5 + 0x50] = a1\n  6379: u64 [a5 + 0x48] = a0\n  6382: u64 [a5 + 0x58] = a2\n  6385: u64 [a5 + 0x60] = a3\n  6388: a0 = s1 + 0x19a0\n  6392: a1 = s1 + 0x22c0\n  6396: ra = 204, jump @11\n      : @218 [@dyn 102] (gas: 11)\n  6402: a0 = u64 [s1 + 0xc0]\n  6406: a1 = u64 [s1 + 0xb8]\n  6410: a2 = a1 | a0\n  6413: a3 = 0x100000000\n  6423: a0 = 0xffffffe0\n  6433: a1 = u64 [s1 + 0xd8]\n  6437: a0 = a1 <u a0\n  6440: a1 = u64 [s1 + 0xc8]\n  6444: a0 = 0 if a1 != 0\n  6446: a0 = 0 if a2 != 0\n  6448: jump @220 if a0 != 0\n      : @219 (gas: 1)\n  6451: jump @381\n      : @220 (gas: 22)\n  6454: a0 = s1 + 0x1878\n  6458: u64 [s1 + 0xc0] = a2\n  6462: a2 = a0\n  6464: t0 = u64 [a0 + 0x140]\n  6468: a5 = a0 + 0x100\n  6472: a4 = u64 [a5 + 0x38]\n  6475: u64 [s1 + 0xb8] = a3\n  6479: a3 = u64 [a5 + 0x30]\n  6482: a1 = u64 [a5 + 0x28]\n  6485: a0 = u64 [s1 + 0xd8]\n  6489: i32 a0 = a0 + 0x20\n  6492: u64 [s1 + 0x78] = a1\n  6495: a5 = a2 + 0x100\n  6499: u64 [a5 + 0x8] = a1\n  6502: u64 [s1 + 0x70] = a3\n  6505: u64 [a5 + 0x10] = a3\n  6508: u64 [s1 + 0x68] = a4\n  6511: u64 [a5 + 0x18] = a4\n  6514: a1 = s1 + 0x1980\n  6518: u64 [s1 + 0x60] = t0\n  6521: u64 [a2 + 0x120] = t0\n  6525: ra = 206, jump @9\n      : @221 [@dyn 103] (gas: 5)\n  6531: a1 = u64 [s1 + 0x98]\n  6535: a0 = a1 + 0x2\n  6538: a1 = a0 <u a1\n  6541: a3 = u64 [s1 + 0xa0]\n  6545: t0 = 208, jump @920\n      : @222 [@dyn 104] (gas: 14)\n  6551: a1 = u64 [s1 + 0xb0]\n  6555: a3 = a3 + a1\n  6558: a1 = a3 <u a1\n  6561: a4 = u64 [s1 + 0xa8]\n  6565: a1 = a1 + a4\n  6568: a4 = s1 + 0x2078\n  6572: a5 = a4 + 0x200\n  6576: u64 [a5 + 0x70] = a2\n  6579: u64 [a5 + 0x68] = a0\n  6582: u64 [a5 + 0x78] = a3\n  6585: u64 [a5 + 0x80] = a1\n  6589: a0 = s1 + 0x1960\n  6593: a1 = s1 + 0x22e0\n  6597: ra = 210, jump @11\n      : @223 [@dyn 105] (gas: 9)\n  6603: a0 = u64 [s1 + 0xb8]\n  6607: a0 = a0 + 0xffffffffffffffc0\n  6610: a1 = u64 [s1 + 0xd8]\n  6614: a0 = a1 <u a0\n  6617: a1 = u64 [s1 + 0xc8]\n  6621: a0 = 0 if a1 != 0\n  6623: a1 = u64 [s1 + 0xc0]\n  6627: a0 = 0 if a1 != 0\n  6629: jump @225 if a0 != 0\n      : @224 (gas: 1)\n  6632: jump @381\n      : @225 (gas: 13)\n  6635: a3 = s1 + 0x1878\n  6639: a0 = u64 [a3 + 0xe8]\n  6643: a0 = a0 & 0xff\n  6647: a2 = a0 >u 0\n  6649: u64 [s1 + 0xc8] = a2\n  6653: a0 = u64 [s1 + 0xd8]\n  6657: i32 a0 = a0 + 0x40\n  6660: u64 [a3 + 224] = 0\n  6664: u64 [a3 + 216] = 0\n  6668: u64 [a3 + 208] = 0\n  6672: a1 = s1 + 0x1940\n  6676: u64 [a3 + 0xc8] = a2\n  6680: ra = 212, jump @9\n      : @226 [@dyn 106] (gas: 3)\n  6686: a0 = s1 + 0x1920\n  6690: a1 = 0x40\n  6693: ra = 214, jump @7\n      : @227 [@dyn 107] (gas: 41)\n  6699: a1 = s1 + 0x1878\n  6703: a3 = u64 [a1 + 0xc0]\n  6707: u64 [s1 + 0xd8] = a3\n  6711: a2 = u64 [a1 + 0xb8]\n  6715: u64 [s1 + 0xc0] = a2\n  6719: a4 = u64 [a1 + 0xb0]\n  6723: u64 [s1 + 0xb8] = a4\n  6727: a5 = u64 [a1 + 0xa8]\n  6731: u64 [s1 + 0xb0] = a5\n  6735: a0 = u64 [s1 + 0xc8]\n  6739: u64 [a1 + 0x8] = a0\n  6742: a0 = u64 [s1 + 0x60]\n  6745: u64 [a1 + 0x40] = a0\n  6748: a0 = u64 [s1 + 0x68]\n  6751: u64 [a1 + 0x38] = a0\n  6754: a0 = u64 [s1 + 0x70]\n  6757: u64 [a1 + 0x30] = a0\n  6760: u64 [a1 + 32] = 0\n  6763: u64 [a1 + 24] = 0\n  6766: u64 [a1 + 16] = 0\n  6769: a0 = u64 [s1 + 0x78]\n  6772: u64 [a1 + 0x28] = a0\n  6775: a0 = u64 [s1 + 0x80]\n  6779: u64 [a1 + 0x60] = a0\n  6782: a0 = u64 [s1 + 0x88]\n  6786: u64 [a1 + 0x58] = a0\n  6789: a0 = u64 [s1 + 0x90]\n  6793: u64 [a1 + 0x50] = a0\n  6796: a0 = u64 [s1 + 0xd0]\n  6800: u64 [a1 + 0x48] = a0\n  6803: u64 [a1 + 0x80] = a3\n  6807: u64 [a1 + 0x78] = a2\n  6810: u64 [a1 + 0x70] = a4\n  6813: t0 = a1\n  6815: a0 = s1 + 0x1900\n  6819: a1 = s1 + 0x18e0\n  6823: a2 = s1 + 0x18c0\n  6827: a3 = s1 + 0x18a0\n  6831: a4 = s1 + 0x1880\n  6835: u64 [t0 + 0x68] = a5\n  6838: ra = 216, jump @760\n      : @228 [@dyn 108] (gas: 12)\n  6844: a4 = u64 [s1 + 0xb8]\n  6848: a2 = u64 [s1 + 0xb0]\n  6852: a0 = u64 [s1 + 0xd8]\n  6856: a0 = a0 | a4\n  6859: a3 = u64 [s1 + 0xc0]\n  6863: a1 = a2 | a3\n  6866: a1 = a1 | a0\n  6869: a1 = a1 >> 0x20\n  6872: a0 = a0 | a3\n  6875: a0 = a0 << 0x20\n  6878: a0 = a0 | a1\n  6881: jump @230 if a0 == 0\n      : @229 (gas: 1)\n  6884: jump @381\n      : @230 (gas: 8)\n  6887: t0 = a3\n  6889: a1 = s1 + 0x1878\n  6893: a0 = u64 [a1 + 0x90]\n  6897: a3 = u64 [a1 + 0xa0]\n  6901: u64 [s1 + 0xd0] = a3\n  6905: t1 = u64 [a1 + 0x88]\n  6909: a3 = u64 [a1 + 0x98]\n  6913: jump @294\n      : @231 (gas: 8)\n  6916: u64 [a3 + 480] = 0\n  6920: u64 [a3 + 472] = 0\n  6924: u64 [a3 + 464] = 0\n  6928: u64 [a3 + 456] = 0\n  6932: a0 = s1 + 0x2000\n  6936: i32 a0 = a0 + 0x240\n  6940: ecalli 16 // 'value_transferred'\n  6942: fallthrough\n      : @232 (gas: 11)\n  6943: a3 = s1 + 0x2078\n  6947: a5 = a3 + 0x100\n  6951: a0 = u64 [a5 + 0xd8]\n  6955: a1 = u64 [a5 + 0xe0]\n  6959: a2 = u64 [a5 + 0xd0]\n  6963: a4 = a3\n  6965: a3 = u64 [a5 + 0xc8]\n  6969: a1 = a1 | a2\n  6972: a0 = a0 | a3\n  6975: a0 = a0 | a1\n  6978: jump @234 if a0 == 0\n      : @233 (gas: 1)\n  6981: jump @669\n      : @234 (gas: 3)\n  6984: a0 = u64 [s1 + 0xd8]\n  6988: a0 = i32 [a0]\n  6990: jump @236 if a0 >u 3\n      : @235 (gas: 1)\n  6994: jump @670\n      : @236 (gas: 7)\n  6997: u64 [a4 + 512] = 0\n  7001: u64 [a4 + 504] = 0\n  7005: u64 [a4 + 496] = 0\n  7009: u64 [a4 + 488] = 0x1\n  7014: a0 = s1 + 0x1860\n  7018: a1 = s1 + 0x2260\n  7022: ra = 218, jump @11\n      : @237 [@dyn 109] (gas: 13)\n  7028: a0 = s1 + 0x1878\n  7032: a1 = u64 [a0]\n  7034: u64 [s1 + 0xd8] = a1\n  7038: a2 = a0 + 0xffffffffffffff00\n  7042: a1 = u64 [a2 + 0xf8]\n  7046: u64 [s1 + 0xd0] = a1\n  7050: a1 = u64 [a2 + 0xf0]\n  7054: u64 [s1 + 0xc8] = a1\n  7058: a0 = u64 [a2 + 0xe8]\n  7062: u64 [s1 + 0xc0] = a0\n  7066: a0 = s1 + 0x1840\n  7070: a1 = 0x40\n  7073: ra = 220, jump @7\n      : @238 [@dyn 110] (gas: 7)\n  7079: a3 = s1 + 0x1078\n  7083: a5 = a3 + 0x700\n  7087: a0 = u64 [a5 + 0xe0]\n  7091: a1 = u64 [a5 + 0xd8]\n  7095: a2 = u64 [a5 + 0xd0]\n  7099: a4 = u64 [a5 + 0xc8]\n  7103: t0 = 222, jump @908\n      : @239 [@dyn 111] (gas: 1)\n  7109: jump @241 if a0 == 0\n      : @240 (gas: 1)\n  7112: jump @381\n      : @241 (gas: 13)\n  7115: a0 = u64 [s1 + 0xc0]\n  7119: a2 = a3 + 0x700\n  7123: u64 [a2 + 0xa8] = a0\n  7127: a0 = u64 [s1 + 0xc8]\n  7131: u64 [a2 + 0xb0] = a0\n  7135: a0 = u64 [s1 + 0xd0]\n  7139: u64 [a2 + 0xb8] = a0\n  7143: a1 = s1 + 0x1820\n  7147: a0 = u64 [s1 + 0xd8]\n  7151: u64 [a2 + 0xc0] = a0\n  7155: a0 = a4\n  7157: u64 [s1 + 0xd8] = a4\n  7161: ra = 224, jump @9\n      : @242 [@dyn 112] (gas: 4)\n  7167: a1 = 0x20\n  7170: a0 = u64 [s1 + 0xd8]\n  7174: ra = 0x2be\n  7178: jump @18\n      : @243 (gas: 10)\n  7181: u64 [a2 + 1984] = 0\n  7185: u64 [a2 + 1976] = 0\n  7189: u64 [a2 + 1968] = 0\n  7193: u64 [a2 + 1960] = 0\n  7197: a0 = s1 + 0x2000\n  7201: i32 a0 = a0 + 0x20\n  7204: ra = 0xe2\n  7208: ecalli 16 // 'value_transferred'\n  7210: t0 = 0xe4\n  7214: jump @917\n      : @244 [@dyn 113] (gas: 1)\n  7217: t0 = 228, jump @917\n      : @245 [@dyn 114] (gas: 8)\n  7223: a0 = u64 [a4 + 0xb8]\n  7227: a1 = u64 [a4 + 0xc0]\n  7231: a2 = u64 [a4 + 0xb0]\n  7235: a3 = u64 [a4 + 0xa8]\n  7239: a1 = a1 | a2\n  7242: a0 = a0 | a3\n  7245: a0 = a0 | a1\n  7248: jump @247 if a0 == 0\n      : @246 (gas: 1)\n  7251: jump @671\n      : @247 (gas: 3)\n  7254: a0 = u64 [s1 + 0xd8]\n  7258: a0 = i32 [a0]\n  7260: jump @249 if a0 >u 35\n      : @248 (gas: 1)\n  7264: jump @672\n      : @249 (gas: 25)\n  7267: a0 = s1 + 0x2000\n  7271: i32 a0 = a0 + 0x40\n  7274: a1 = 0x4\n  7277: ecalli 3 // 'call_data_load'\n  7279: a0 = s1 + 0x1878\n  7283: a5 = a0 + 0x700\n  7287: a1 = u64 [a5 + 0xe0]\n  7291: a2 = u64 [a5 + 0xd8]\n  7295: a3 = u64 [a5 + 0xd0]\n  7299: a4 = u64 [a5 + 0xc8]\n  7303: u64 [s1 + 0xc0] = a1\n  7307: u64 [s1 + 0xb0] = a3\n  7311: a0 = a3 | a1\n  7314: u64 [s1 + 0xb8] = a2\n  7318: u64 [s1 + 0xa8] = a4\n  7322: a1 = a4 | a2\n  7325: a0 = a0 | a1\n  7328: a0 = a0 >u 0\n  7330: a1 = s1 + 0x1078\n  7334: u64 [a1 + 992] = 0\n  7338: u64 [a1 + 984] = 0\n  7342: u64 [a1 + 0x3c8] = a0\n  7346: a0 = s1 + 0x1440\n  7350: u64 [a1 + 976] = 0\n  7354: ra = 230, jump @768\n      : @250 [@dyn 115] (gas: 28)\n  7360: a0 = 0x301d0\n  7365: u64 [s1 + 0xd0] = a0\n  7369: i32 a0 = a0 + 0\n  7371: u64 [s1 + 0xa0] = a0\n  7375: ecalli 5 // 'caller'\n  7377: a2 = u64 [s1 + 0xd0]\n  7381: a0 = u64 [a2 + 0x8]\n  7384: a1 = i32 [a2 + 0x10]\n  7387: a2 = u64 [a2]\n  7389: a0 = reverse a0\n  7391: a3 = a0 << 0x20\n  7394: a1 = reverse a1\n  7396: a1 = a1 >> 0x20\n  7399: a3 = a3 | a1\n  7402: a0 = a0 >> 0x20\n  7405: a1 = reverse a2\n  7407: a2 = a1 << 0x20\n  7410: a0 = a0 | a2\n  7413: a1 = a1 >> 0x20\n  7416: a2 = s1 + 0x1078\n  7420: u64 [a2 + 960] = 0\n  7424: a4 = a2 + 0x300\n  7428: u64 [a4 + 0xb8] = a1\n  7432: u64 [a4 + 0xb0] = a0\n  7436: a1 = s1 + 0x1420\n  7440: u64 [a4 + 0xa8] = a3\n  7444: a0 = 0\n  7446: ra = 232, jump @9\n      : @251 [@dyn 116] (gas: 9)\n  7452: a1 = s1 + 0x1078\n  7456: u64 [a1 + 928] = 0\n  7460: u64 [a1 + 920] = 0\n  7464: u64 [a1 + 904] = 0x3\n  7469: a2 = a1\n  7471: a0 = 0x20\n  7474: a1 = s1 + 0x1400\n  7478: u64 [a2 + 912] = 0\n  7482: ra = 234, jump @9\n      : @252 [@dyn 117] (gas: 6)\n  7488: a0 = sp + 0xffffffffffffffe0\n  7491: a0 = a0 & 0xffffffffffffffe0\n  7494: u64 [s1 + 0xd8] = a0\n  7498: sp = a0\n  7500: a1 = i32 [0x201c8]\n  7505: jump @254 if a1 >u 63\n      : @253 (gas: 2)\n  7509: u32 [0x201c8] = 0x40\n  7515: fallthrough\n      : @254 (gas: 42)\n  7516: a0 = sp + 0xffffffffffffffe0\n  7519: a2 = a0 & 0xffffffffffffffe0\n  7522: u64 [s1 + 0xc8] = a2\n  7526: sp = a2\n  7528: a0 = 0x201d0\n  7533: i32 a0 = a0 + 0\n  7535: i32 a2 = a2 + 0\n  7537: a1 = 0x40\n  7540: u64 [s1 + 0x98] = a0\n  7544: ecalli 9 // 'hash_keccak_256'\n  7546: a3 = u64 [s1 + 0xc8]\n  7550: a0 = u64 [a3 + 0x18]\n  7553: a1 = u64 [a3 + 0x10]\n  7556: a2 = u64 [a3 + 0x8]\n  7559: a3 = u64 [a3]\n  7561: a0 = reverse a0\n  7563: a5 = reverse a1\n  7565: a2 = reverse a2\n  7567: t0 = reverse a3\n  7569: a1 = u64 [s1 + 0xd8]\n  7573: u64 [a1 + 0x18] = t0\n  7576: u64 [a1 + 0x10] = a2\n  7579: u64 [a1 + 0x8] = a5\n  7582: u64 [a1] = a0\n  7584: a4 = sp + 0xffffffffffffffe0\n  7587: a1 = a4 & 0xffffffffffffffe0\n  7590: sp = a1\n  7592: a4 = a0 + 0x2\n  7595: a0 = a4 <u a0\n  7598: a3 = a5 + a0\n  7601: a5 = a3 <u a5\n  7604: a5 = a0 if a0 == 0\n  7607: a5 = a5 + a2\n  7610: a0 = a5 <u a2\n  7613: a0 = a0 + t0\n  7616: u64 [a1 + 0x10] = a5\n  7619: u64 [a1 + 0x8] = a3\n  7622: u64 [a1] = a4\n  7624: u64 [a1 + 0x18] = a0\n  7627: a0 = s1 + 0x13e0\n  7631: u64 [s1 + 0xc8] = a1\n  7635: ra = 236, jump @11\n      : @255 [@dyn 118] (gas: 3)\n  7641: a0 = s1 + 0x1078\n  7645: a0 = u8 [a0 + 0x368]\n  7649: jump @382 if a0 != 0\n      : @256 (gas: 3)\n  7653: a0 = s1 + 0x1060\n  7657: a1 = 0x40\n  7660: ra = 238, jump @7\n      : @257 [@dyn 119] (gas: 7)\n  7666: a0 = s1 + 0x1078\n  7670: a4 = u64 [a0]\n  7672: a1 = a0 + 0xffffffffffffff00\n  7676: a5 = u64 [a1 + 0xf8]\n  7680: a3 = u64 [a1 + 0xf0]\n  7684: a0 = u64 [a1 + 0xe8]\n  7688: t0 = 240, jump @904\n      : @258 [@dyn 120] (gas: 1)\n  7694: jump @381 if a1 != 0\n      : @259 (gas: 13)\n  7698: u64 [s1 + 0xd0] = a3\n  7702: a3 = s1 + 0x7ff\n  7706: a3 = a3 + 0x61\n  7709: u64 [a3 + 2032] = 0\n  7713: u64 [a3 + 2024] = 0\n  7717: u64 [a3 + 2016] = 0\n  7721: a2 = 0x8c379a000000000\n  7731: a1 = s1 + 0x1040\n  7735: u64 [a3 + 0x7f8] = a2\n  7739: u64 [s1 + 0xd8] = a0\n  7743: u64 [s1 + 0xc0] = a4\n  7747: u64 [s1 + 0xc8] = a5\n  7751: ra = 242, jump @9\n      : @260 [@dyn 121] (gas: 5)\n  7757: a1 = u64 [s1 + 0xd8]\n  7761: a0 = u64 [s1 + 0xc8]\n  7765: a3 = u64 [s1 + 0xc0]\n  7769: a3 = a3 | a0\n  7772: t0 = 244, jump @897\n      : @261 [@dyn 122] (gas: 1)\n  7778: jump @381 if a0 == 0\n      : @262 (gas: 11)\n  7782: i32 a0 = a1 + 0x4\n  7785: a2 = s1 + 0x7ff\n  7789: a2 = a2 + 0x61\n  7792: u64 [a2 + 2008] = 0\n  7796: u64 [a2 + 2000] = 0\n  7800: u64 [a2 + 1984] = 0x20\n  7805: a1 = s1 + 0x1020\n  7809: u64 [a2 + 1992] = 0\n  7813: u64 [s1 + 0xc8] = a3\n  7817: u64 [s1 + 0xc0] = a4\n  7821: ra = 246, jump @9\n      : @263 [@dyn 123] (gas: 1)\n  7827: t0 = 248, jump @901\n      : @264 [@dyn 124] (gas: 1)\n  7833: jump @381 if a0 == 0\n      : @265 (gas: 9)\n  7837: i32 a0 = a1 + 0x24\n  7840: a2 = s1 + 0x7ff\n  7844: a2 = a2 + 0x61\n  7847: u64 [a2 + 1976] = 0\n  7851: u64 [a2 + 1968] = 0\n  7855: u64 [a2 + 1952] = 0xe\n  7860: a1 = s1 + 0x1000\n  7864: u64 [a2 + 1960] = 0\n  7868: ra = 250, jump @9\n      : @266 [@dyn 125] (gas: 3)\n  7874: a2 = u64 [s1 + 0xd8]\n  7878: a0 = 0xffffffbc\n  7888: t0 = 252, jump @907\n      : @267 [@dyn 126] (gas: 1)\n  7894: jump @381 if a0 == 0\n      : @268 (gas: 13)\n  7898: i32 a0 = a2 + 0x44\n  7901: a1 = u64 [0x200d8]\n  7906: a2 = u64 [0x200e0]\n  7911: a3 = s1 + 0x7ff\n  7915: a3 = a3 + 0x61\n  7918: u64 [a3 + 0x798] = a1\n  7922: u64 [a3 + 1928] = 0\n  7926: u64 [a3 + 0x790] = a2\n  7930: a1 = s1 + 0x7ff\n  7934: a1 = a1 + 0x7e1\n  7938: u64 [a3 + 1920] = 0\n  7942: ra = 0x234\n  7946: jump @9\n      : @269 (gas: 1)\n  7949: jump @271 if a0 == 1941178475\n      : @270 (gas: 1)\n  7956: jump @673\n      : @271 (gas: 9)\n  7959: u64 [a2 + 1312] = 0\n  7963: u64 [a2 + 1304] = 0\n  7967: u64 [a2 + 1296] = 0\n  7971: u64 [a2 + 1288] = 0\n  7975: a0 = s1 + 0x2000\n  7979: i32 a0 = a0 + 0xfffffffffffffd80\n  7983: ra = 0xfe\n  7987: ecalli 16 // 'value_transferred'\n  7989: fallthrough\n      : @272 [@dyn 127] (gas: 3)\n  7990: a3 = s1 + 0x1878\n  7994: a4 = a3 + 0x500\n  7998: t0 = 256, jump @911\n      : @273 [@dyn 128] (gas: 1)\n  8004: jump @275 if a0 == 0\n      : @274 (gas: 1)\n  8007: jump @678\n      : @275 (gas: 3)\n  8010: a0 = u64 [s1 + 0xd8]\n  8014: a0 = i32 [a0]\n  8016: jump @277 if a0 >u 35\n      : @276 (gas: 1)\n  8020: jump @679\n      : @277 (gas: 6)\n  8023: a0 = s1 + 0x2000\n  8027: i32 a0 = a0 + 0xfffffffffffffda0\n  8031: a1 = 0x4\n  8034: ra = 0x102\n  8038: ecalli 3 // 'call_data_load'\n  8040: fallthrough\n      : @278 [@dyn 129] (gas: 4)\n  8041: a4 = s1 + 0x1878\n  8045: a1 = u64 [a4 + 0x538]\n  8049: a0 = u64 [a4 + 0x540]\n  8053: t0 = 260, jump @903\n      : @279 [@dyn 130] (gas: 1)\n  8059: jump @281 if a3 != 0\n      : @280 (gas: 1)\n  8062: jump @680\n      : @281 (gas: 12)\n  8065: a2 = u64 [a4 + 0x530]\n  8069: a3 = u64 [a4 + 0x528]\n  8073: a4 = s1 + 0x7ff\n  8077: a4 = a4 + 0x61\n  8080: u64 [a4 + 0x60] = a3\n  8083: u64 [a4 + 0x68] = a2\n  8086: u64 [a4 + 0x70] = a1\n  8089: a1 = s1 + 0x7ff\n  8093: a1 = a1 + 0xc1\n  8097: u64 [a4 + 0x78] = a0\n  8100: a0 = 0\n  8102: ra = 262, jump @9\n      : @282 [@dyn 131] (gas: 7)\n  8108: a1 = s1 + 0x7ff\n  8112: a1 = a1 + 0x61\n  8115: a3 = 0\n  8117: u64 [a1 + 88] = 0\n  8120: u64 [a1 + 80] = 0\n  8123: u64 [a1 + 64] = 0x3\n  8127: t0 = 264, jump @902\n      : @283 [@dyn 132] (gas: 3)\n  8133: a1 = a1 + 0xa1\n  8137: u64 [a2 + 0x48] = a3\n  8140: ra = 266, jump @9\n      : @284 [@dyn 133] (gas: 6)\n  8146: a0 = sp + 0xffffffffffffffe0\n  8149: a0 = a0 & 0xffffffffffffffe0\n  8152: u64 [s1 + 0xb8] = a0\n  8156: sp = a0\n  8158: a1 = i32 [0x201c8]\n  8163: jump @286 if a1 >u 63\n      : @285 (gas: 2)\n  8167: u32 [0x201c8] = 0x40\n  8173: fallthrough\n      : @286 (gas: 30)\n  8174: a0 = sp + 0xffffffffffffffe0\n  8177: a2 = a0 & 0xffffffffffffffe0\n  8180: u64 [s1 + 0xd8] = a2\n  8184: sp = a2\n  8186: a0 = 0x201d0\n  8191: i32 a0 = a0 + 0\n  8193: i32 a2 = a2 + 0\n  8195: a1 = 0x40\n  8198: ecalli 9 // 'hash_keccak_256'\n  8200: a3 = u64 [s1 + 0xd8]\n  8204: a0 = u64 [a3 + 0x18]\n  8207: a1 = u64 [a3 + 0x10]\n  8210: a2 = u64 [a3 + 0x8]\n  8213: a3 = u64 [a3]\n  8215: a5 = reverse a0\n  8217: u64 [s1 + 0xc8] = a5\n  8221: a4 = reverse a1\n  8223: u64 [s1 + 0xd0] = a4\n  8227: a2 = reverse a2\n  8229: u64 [s1 + 0xc0] = a2\n  8233: a0 = reverse a3\n  8235: u64 [s1 + 0xd8] = a0\n  8239: a1 = u64 [s1 + 0xb8]\n  8243: u64 [a1 + 0x18] = a0\n  8246: u64 [a1 + 0x10] = a2\n  8249: u64 [a1 + 0x8] = a4\n  8252: u64 [a1] = a5\n  8254: a0 = s1 + 0x7ff\n  8258: a0 = a0 + 0x81\n  8262: ra = 268, jump @11\n      : @287 [@dyn 134] (gas: 32)\n  8268: a1 = s1 + 0x7ff\n  8272: a1 = a1 + 0x61\n  8275: a0 = u64 [a1 + 0x20]\n  8278: u64 [s1 + 0xb8] = a0\n  8282: a0 = u64 [a1 + 0x28]\n  8285: u64 [s1 + 0xb0] = a0\n  8289: a0 = u64 [a1 + 0x30]\n  8292: u64 [s1 + 0xa8] = a0\n  8296: a0 = u64 [a1 + 0x38]\n  8299: u64 [s1 + 0xa0] = a0\n  8303: a0 = u64 [s1 + 0xc8]\n  8307: a0 = a0 + 0x1\n  8310: a1 = a0 <u 0x1\n  8313: a2 = u64 [s1 + 0xd0]\n  8317: a1 = a1 + a2\n  8320: a2 = s1 + 0x1878\n  8324: a3 = a2 + 0x500\n  8328: u64 [a3 + 0x50] = a1\n  8331: a1 = a1 | a0\n  8334: u64 [a3 + 0x48] = a0\n  8337: a0 = a1 <u 0x1\n  8340: a1 = u64 [s1 + 0xc0]\n  8344: a0 = a0 + a1\n  8347: u64 [a3 + 0x58] = a0\n  8350: a0 = a0 <u a1\n  8353: a1 = u64 [s1 + 0xd8]\n  8357: a0 = a0 + a1\n  8360: u64 [a3 + 0x60] = a0\n  8363: a0 = s1 + 0x7ff\n  8367: a0 = a0 + 0x61\n  8370: a1 = s1 + 0x1dc0\n  8374: ra = 270, jump @11\n      : @288 [@dyn 135] (gas: 9)\n  8380: a5 = s1 + 0x7ff\n  8384: a5 = a5 + 0x61\n  8387: a0 = u64 [a5]\n  8389: u64 [s1 + 0x98] = a0\n  8393: a1 = u64 [s1 + 0xc8]\n  8397: a0 = a1 + 0x2\n  8400: a1 = a0 <u a1\n  8403: a3 = u64 [s1 + 0xd0]\n  8407: t0 = 272, jump @920\n      : @289 [@dyn 136] (gas: 21)\n  8413: a1 = u64 [a5 + 0x8]\n  8416: u64 [s1 + 0xd0] = a1\n  8420: a1 = u64 [s1 + 0xc0]\n  8424: a3 = a3 + a1\n  8427: a1 = a3 <u a1\n  8430: a4 = u64 [s1 + 0xd8]\n  8434: a1 = a1 + a4\n  8437: a4 = u64 [a5 + 0x10]\n  8440: u64 [s1 + 0xc8] = a4\n  8444: a4 = u64 [a5 + 0x18]\n  8447: u64 [s1 + 0xc0] = a4\n  8451: a4 = s1 + 0x1878\n  8455: a5 = a4 + 0x500\n  8459: u64 [a5 + 0x80] = a1\n  8463: u64 [a5 + 0x78] = a3\n  8466: u64 [a5 + 0x70] = a2\n  8469: u64 [a5 + 0x68] = a0\n  8472: a0 = s1 + 0x7ff\n  8476: a0 = a0 + 0x41\n  8479: a1 = s1 + 0x1de0\n  8483: ra = 274, jump @11\n      : @290 [@dyn 137] (gas: 7)\n  8489: a0 = s1 + 0x1000\n  8493: a0 = u8 [a0 + 0xfffffffffffff840]\n  8497: u64 [s1 + 0x90] = a0\n  8501: a0 = s1 + 0x7ff\n  8505: a0 = a0 + 0x21\n  8508: a1 = 0x40\n  8511: ra = 276, jump @7\n      : @291 [@dyn 138] (gas: 44)\n  8517: a0 = s1 + 0x1000\n  8521: a2 = u64 [a0 + 0xfffffffffffff838]\n  8525: u64 [s1 + 0xd8] = a2\n  8529: a0 = s1 + 0x1000\n  8533: a1 = u64 [a0 + 0xfffffffffffff830]\n  8537: u64 [s1 + 0x88] = a1\n  8541: a0 = s1 + 0x1000\n  8545: a3 = u64 [a0 + 0xfffffffffffff828]\n  8549: u64 [s1 + 0x80] = a3\n  8553: a0 = s1 + 0x1000\n  8557: a5 = u64 [a0 + 0xfffffffffffff820]\n  8561: u64 [s1 + 0x78] = a5\n  8564: a0 = u64 [s1 + 0x90]\n  8568: u64 [s1 + 0x780] = a0\n  8572: u64 [s1 + 1944] = 0\n  8576: u64 [s1 + 1936] = 0\n  8580: u64 [s1 + 1928] = 0\n  8584: a0 = u64 [s1 + 0xc0]\n  8588: u64 [s1 + 0x7b8] = a0\n  8592: a0 = u64 [s1 + 0xc8]\n  8596: u64 [s1 + 0x7b0] = a0\n  8600: a0 = u64 [s1 + 0xd0]\n  8604: u64 [s1 + 0x7a8] = a0\n  8608: a0 = u64 [s1 + 0x98]\n  8612: u64 [s1 + 0x7a0] = a0\n  8616: a0 = u64 [s1 + 0xa0]\n  8620: u64 [s1 + 0x7d8] = a0\n  8624: a0 = u64 [s1 + 0xa8]\n  8628: u64 [s1 + 0x7d0] = a0\n  8632: a0 = u64 [s1 + 0xb0]\n  8636: u64 [s1 + 0x7c8] = a0\n  8640: a0 = u64 [s1 + 0xb8]\n  8644: u64 [s1 + 0x7c0] = a0\n  8648: u64 [s1 + 0x7f8] = a2\n  8652: u64 [s1 + 0x7f0] = a1\n  8656: u64 [s1 + 0x7e8] = a3\n  8660: a0 = s1 + 0x7ff\n  8664: a0 = a0 + 0x1\n  8667: a1 = s1 + 0x7e0\n  8671: a2 = s1 + 0x7c0\n  8675: a3 = s1 + 0x7a0\n  8679: a4 = s1 + 0x780\n  8683: u64 [s1 + 0x7e0] = a5\n  8687: ra = 278, jump @760\n      : @292 [@dyn 139] (gas: 12)\n  8693: a4 = u64 [s1 + 0x80]\n  8697: a2 = u64 [s1 + 0x78]\n  8700: a0 = u64 [s1 + 0xd8]\n  8704: a0 = a0 | a4\n  8707: a3 = u64 [s1 + 0x88]\n  8711: a1 = a2 | a3\n  8714: a1 = a1 | a0\n  8717: a1 = a1 >> 0x20\n  8720: a0 = a0 | a3\n  8723: a0 = a0 << 0x20\n  8726: a0 = a0 | a1\n  8729: jump @381 if a0 != 0\n      : @293 (gas: 11)\n  8733: t0 = a3\n  8735: a0 = s1 + 0x1000\n  8739: a0 = u64 [a0 + 0xfffffffffffff808]\n  8743: a1 = s1 + 0x1000\n  8747: a1 = u64 [a1 + 0xfffffffffffff818]\n  8751: u64 [s1 + 0xd0] = a1\n  8755: a1 = s1 + 0x1000\n  8759: t1 = u64 [a1 + 0xfffffffffffff800]\n  8763: a1 = s1 + 0x1000\n  8767: a3 = u64 [a1 + 0xfffffffffffff810]\n  8771: fallthrough\n      : @294 (gas: 26)\n  8772: t2 = a0 ^ a4\n  8775: a5 = a0 <u a4\n  8778: ra = t1 <u a2\n  8781: a5 = ra if t2 == 0\n  8784: a1 = a3 - t0\n  8787: t2 = a1 - a5\n  8790: a1 = a1 <u a5\n  8793: u64 [s1 + 0xc8] = a1\n  8797: a3 = a3 <u t0\n  8800: a5 = u64 [s1 + 0xd8]\n  8804: a1 = u64 [s1 + 0xd0]\n  8808: a5 = a1 - a5\n  8811: a5 = a5 - a3\n  8814: a1 = u64 [s1 + 0xc8]\n  8818: a5 = a5 - a1\n  8821: a0 = a0 - a4\n  8824: a0 = a0 - ra\n  8827: a1 = t1 - a2\n  8830: a0 = a0 | a5\n  8833: a3 = a1 | t2\n  8836: a3 = a3 | a0\n  8839: a0 = a0 | t2\n  8842: a3 = a3 >> 0x20\n  8845: a0 = a0 << 0x20\n  8848: a0 = a0 | a3\n  8851: jump @381 if a0 != 0\n      : @295 (gas: 3)\n  8855: a0 = a2\n  8857: u64 [s1 + 0xd8] = a1\n  8861: ra = 280, jump @18\n      : @296 [@dyn 140] (gas: 5)\n  8867: i32 a1 = a0 + 0\n  8869: a2 = i32 [s1 + 0xd8]\n  8873: a0 = 0\n  8875: ecalli 13 // 'seal_return'\n  8877: jump @696\n      : @297 (gas: 8)\n  8880: u64 [a3 + 192] = 0\n  8884: u64 [a3 + 184] = 0\n  8888: u64 [a3 + 176] = 0\n  8892: u64 [a3 + 168] = 0\n  8896: a0 = s1 + 0x2000\n  8900: i32 a0 = a0 + 0x120\n  8904: ecalli 16 // 'value_transferred'\n  8906: fallthrough\n      : @298 (gas: 9)\n  8907: a3 = s1 + 0x2078\n  8911: a0 = u64 [a3 + 0xb8]\n  8915: a1 = u64 [a3 + 0xc0]\n  8919: a2 = u64 [a3 + 0xb0]\n  8923: a3 = u64 [a3 + 0xa8]\n  8927: a1 = a1 | a2\n  8930: a0 = a0 | a3\n  8933: a0 = a0 | a1\n  8936: jump @300 if a0 == 0\n      : @299 (gas: 1)\n  8939: jump @681\n      : @300 (gas: 3)\n  8942: a0 = u64 [s1 + 0xd8]\n  8946: a0 = i32 [a0]\n  8948: jump @302 if a0 >u 35\n      : @301 (gas: 1)\n  8952: jump @682\n      : @302 (gas: 23)\n  8955: a0 = sp + 0xffffffffffffffe0\n  8958: a0 = a0 & 0xffffffffffffffe0\n  8961: u64 [s1 + 0xd8] = a0\n  8965: sp = a0\n  8967: a0 = s1 + 0x2000\n  8971: i32 a0 = a0 + 0x140\n  8975: a1 = 0x4\n  8978: ecalli 3 // 'call_data_load'\n  8980: a0 = s1 + 0x2078\n  8984: a2 = u64 [a0 + 0xe0]\n  8988: u64 [s1 + 0xc8] = a2\n  8992: a3 = u64 [a0 + 0xd8]\n  8996: u64 [s1 + 0xc0] = a3\n  9000: a1 = u64 [a0 + 0xd0]\n  9004: u64 [s1 + 0xd0] = a1\n  9008: a4 = u64 [a0 + 0xc8]\n  9012: u64 [s1 + 0xb8] = a4\n  9016: a0 = u64 [s1 + 0xd8]\n  9020: u64 [a0 + 0x18] = a2\n  9023: u64 [a0 + 0x10] = a3\n  9026: u64 [a0 + 0x8] = a1\n  9029: u64 [a0] = a4\n  9031: ra = 282, jump @883\n      : @303 [@dyn 141] (gas: 9)\n  9037: a0 = u64 [s1 + 0xc8]\n  9041: a1 = u64 [s1 + 0xc0]\n  9045: a0 = a0 | a1\n  9048: a1 = u64 [s1 + 0xb8]\n  9052: a1 = a1 <u 0x65\n  9055: a2 = u64 [s1 + 0xd0]\n  9059: a1 = 0 if a2 != 0\n  9061: a1 = 0 if a0 != 0\n  9063: jump @305 if a1 == 0\n      : @304 (gas: 1)\n  9066: jump @683\n      : @305 (gas: 3)\n  9069: a0 = s1 + 0x1520\n  9073: a1 = 0x40\n  9076: ra = 284, jump @7\n      : @306 [@dyn 142] (gas: 14)\n  9082: a2 = s1 + 0x1078\n  9086: t0 = u64 [a2 + 0x4c0]\n  9090: a1 = a2 + 0x400\n  9094: a5 = u64 [a1 + 0xb8]\n  9098: a4 = u64 [a1 + 0xb0]\n  9102: a0 = u64 [a1 + 0xa8]\n  9106: a3 = a4 | t0\n  9109: a1 = a0 | a5\n  9112: a1 = a1 | a3\n  9115: a1 = a1 >> 0x20\n  9118: a3 = a3 | a5\n  9121: a3 = a3 << 0x20\n  9124: a1 = a1 | a3\n  9127: jump @381 if a1 != 0\n      : @307 (gas: 11)\n  9131: u64 [a2 + 1176] = 0\n  9135: u64 [a2 + 1168] = 0\n  9139: u64 [a2 + 1160] = 0\n  9143: a3 = 0x8c379a000000000\n  9153: a1 = s1 + 0x1500\n  9157: u64 [a2 + 0x4a0] = a3\n  9161: u64 [s1 + 0xd8] = a0\n  9165: u64 [s1 + 0xd0] = a4\n  9169: u64 [s1 + 0xc0] = t0\n  9173: u64 [s1 + 0xc8] = a5\n  9177: ra = 286, jump @9\n      : @308 [@dyn 143] (gas: 5)\n  9183: a1 = u64 [s1 + 0xd8]\n  9187: a0 = u64 [s1 + 0xc8]\n  9191: a3 = u64 [s1 + 0xc0]\n  9195: a3 = a3 | a0\n  9198: t0 = 288, jump @897\n      : @309 [@dyn 144] (gas: 1)\n  9204: jump @381 if a0 == 0\n      : @310 (gas: 11)\n  9208: i32 a0 = a1 + 0x4\n  9211: a2 = s1 + 0x1078\n  9215: u64 [a2 + 1152] = 0\n  9219: u64 [a2 + 1144] = 0\n  9223: u64 [a2 + 1136] = 0\n  9227: a5 = 0x20\n  9230: a1 = s1 + 0x14e0\n  9234: u64 [a2 + 0x468] = a5\n  9238: u64 [s1 + 0xc8] = a3\n  9242: u64 [s1 + 0xc0] = a4\n  9246: ra = 290, jump @9\n      : @311 [@dyn 145] (gas: 1)\n  9252: t0 = 292, jump @901\n      : @312 [@dyn 146] (gas: 1)\n  9258: jump @381 if a0 == 0\n      : @313 (gas: 8)\n  9262: i32 a0 = a1 + 0x24\n  9265: a2 = s1 + 0x1078\n  9269: u64 [a2 + 1120] = 0\n  9273: u64 [a2 + 1112] = 0\n  9277: u64 [a2 + 1096] = 0x20\n  9282: a1 = s1 + 0x14c0\n  9286: u64 [a2 + 1104] = 0\n  9290: ra = 294, jump @9\n      : @314 [@dyn 147] (gas: 1)\n  9296: t0 = 296, jump @910\n      : @315 [@dyn 148] (gas: 1)\n  9302: jump @381 if a0 == 0\n      : @316 (gas: 14)\n  9306: i32 a0 = a3 + 0x44\n  9309: a1 = u64 [0x20080]\n  9314: a4 = s1 + 0x1078\n  9318: a5 = a4 + 0x400\n  9322: u64 [a5 + 0x40] = a1\n  9325: a1 = u64 [0x20088]\n  9330: a2 = u64 [0x20090]\n  9335: a3 = u64 [0x20098]\n  9340: u64 [a5 + 0x38] = a1\n  9343: u64 [a5 + 0x30] = a2\n  9346: a1 = s1 + 0x14a0\n  9350: u64 [a5 + 0x28] = a3\n  9353: ra = 0x234\n  9357: jump @9\n      : @317 (gas: 8)\n  9360: u64 [a3 + 160] = 0\n  9364: u64 [a3 + 152] = 0\n  9368: u64 [a3 + 144] = 0\n  9372: u64 [a3 + 136] = 0\n  9376: a0 = s1 + 0x2000\n  9380: i32 a0 = a0 + 0x100\n  9384: ecalli 16 // 'value_transferred'\n  9386: fallthrough\n      : @318 (gas: 9)\n  9387: a3 = s1 + 0x2078\n  9391: a0 = u64 [a3 + 0x98]\n  9395: a1 = u64 [a3 + 0xa0]\n  9399: a2 = u64 [a3 + 0x90]\n  9403: a3 = u64 [a3 + 0x88]\n  9407: a1 = a1 | a2\n  9410: a0 = a0 | a3\n  9413: a0 = a0 | a1\n  9416: jump @320 if a0 == 0\n      : @319 (gas: 1)\n  9419: jump @686\n      : @320 (gas: 3)\n  9422: a0 = u64 [s1 + 0xd8]\n  9426: a0 = i32 [a0]\n  9428: jump @322 if a0 >u 3\n      : @321 (gas: 1)\n  9432: jump @687\n      : @322 (gas: 3)\n  9435: a0 = s1 + 0x1480\n  9439: a1 = 0x40\n  9442: ra = 298, jump @7\n      : @323 [@dyn 149] (gas: 11)\n  9448: a0 = s1 + 0x1078\n  9452: a2 = a0 + 0x400\n  9456: a1 = u64 [a2 + 0x20]\n  9459: u64 [s1 + 0xd8] = a1\n  9463: a1 = u64 [a2 + 0x18]\n  9466: u64 [s1 + 0xd0] = a1\n  9470: a1 = u64 [a2 + 0x10]\n  9473: u64 [s1 + 0xc0] = a1\n  9477: a0 = u64 [a2 + 0x8]\n  9480: u64 [s1 + 0xc8] = a0\n  9484: ra = 300, jump @0\n      : @324 [@dyn 150] (gas: 7)\n  9490: a0 = u64 [s1 + 0xd8]\n  9494: a1 = u64 [s1 + 0xc0]\n  9498: a0 = a0 | a1\n  9501: a1 = u64 [s1 + 0xc8]\n  9505: a3 = a1\n  9507: a2 = u64 [s1 + 0xd0]\n  9511: t0 = 302, jump @914\n      : @325 [@dyn 151] (gas: 1)\n  9517: jump @381 if a0 != 0\n      : @326 (gas: 13)\n  9521: a2 = u64 [0x301f0]\n  9526: a1 = u64 [0x301f8]\n  9531: a0 = u32 [0x30200]\n  9536: a4 = s1 + 0x1078\n  9540: u64 [a4 + 1024] = 0\n  9544: a5 = a4 + 0x300\n  9548: u64 [a5 + 0xf8] = a0\n  9552: u64 [a5 + 0xf0] = a1\n  9556: a1 = s1 + 0x1460\n  9560: u64 [a5 + 0xe8] = a2\n  9564: a0 = a3\n  9566: ra = 0x2bc\n  9570: jump @9\n      : @327 (gas: 9)\n  9573: u64 [a2 + 1440] = 0\n  9577: u64 [a2 + 1432] = 0\n  9581: u64 [a2 + 1424] = 0\n  9585: u64 [a2 + 1416] = 0\n  9589: a0 = s1 + 0x2000\n  9593: i32 a0 = a0 + 0xfffffffffffffe00\n  9597: ra = 0x130\n  9601: ecalli 16 // 'value_transferred'\n  9603: fallthrough\n      : @328 [@dyn 152] (gas: 3)\n  9604: a3 = s1 + 0x1878\n  9608: a4 = a3 + 0x500\n  9612: t0 = 306, jump @909\n      : @329 [@dyn 153] (gas: 1)\n  9618: jump @331 if a0 == 0\n      : @330 (gas: 1)\n  9621: jump @688\n      : @331 (gas: 3)\n  9624: a0 = u64 [s1 + 0xd8]\n  9628: a0 = i32 [a0]\n  9630: jump @333 if a0 >u 35\n      : @332 (gas: 1)\n  9634: jump @689\n      : @333 (gas: 27)\n  9637: a0 = s1 + 0x2000\n  9641: i32 a0 = a0 + 0xfffffffffffffe20\n  9645: a1 = 0x4\n  9648: ecalli 3 // 'call_data_load'\n  9650: a0 = s1 + 0x1878\n  9654: a5 = a0 + 0x500\n  9658: a1 = u64 [a5 + 0xc0]\n  9662: a2 = u64 [a5 + 0xb8]\n  9666: a3 = u64 [a5 + 0xb0]\n  9670: a4 = u64 [a5 + 0xa8]\n  9674: u64 [s1 + 0x40] = a1\n  9677: u64 [s1 + 0x30] = a3\n  9680: a0 = a3 | a1\n  9683: u64 [s1 + 0x38] = a2\n  9686: u64 [s1 + 0x28] = a4\n  9689: a1 = a4 | a2\n  9692: a0 = a0 | a1\n  9695: a0 = a0 >u 0\n  9697: a1 = s1 + 0x7ff\n  9701: a1 = a1 + 0x61\n  9704: u64 [a1 + 1752] = 0\n  9708: u64 [a1 + 1744] = 0\n  9712: u64 [a1 + 0x6c0] = a0\n  9716: a0 = s1 + 0x7ff\n  9720: a0 = a0 + 0x721\n  9724: u64 [a1 + 1736] = 0\n  9728: ra = 308, jump @768\n      : @334 [@dyn 154] (gas: 8)\n  9734: a0 = 0x301d0\n  9739: u64 [s1 + 0x60] = a0\n  9742: i32 a0 = a0 + 0\n  9744: u64 [s1 + 0x58] = a0\n  9747: ra = 0x136\n  9751: ecalli 5 // 'caller'\n  9753: t0 = 0x138\n  9757: jump @895\n      : @335 [@dyn 155] (gas: 1)\n  9760: t0 = 312, jump @895\n      : @336 [@dyn 156] (gas: 9)\n  9766: u64 [a2 + 1720] = 0\n  9770: a4 = a2 + 0x600\n  9774: u64 [a4 + 0xb0] = a1\n  9778: u64 [a4 + 0xa8] = a0\n  9782: a1 = s1 + 0x7ff\n  9786: a1 = a1 + 0x701\n  9790: u64 [a4 + 0xa0] = a3\n  9794: a0 = 0\n  9796: ra = 314, jump @9\n      : @337 [@dyn 157] (gas: 6)\n  9802: a1 = s1 + 0x7ff\n  9806: a1 = a1 + 0x61\n  9809: u64 [a1 + 1688] = 0\n  9813: u64 [a1 + 1680] = 0\n  9817: u64 [a1 + 1664] = 0x3\n  9822: t0 = 316, jump @902\n      : @338 [@dyn 158] (gas: 3)\n  9828: a1 = a1 + 0x6e1\n  9832: u64 [a2 + 1672] = 0\n  9836: ra = 318, jump @9\n      : @339 [@dyn 159] (gas: 3)\n  9842: a2 = 0x201c8\n  9847: a0 = i32 [0x201c8]\n  9852: jump @341 if a0 >u 63\n      : @340 (gas: 2)\n  9856: u32 [0x201c8] = 0x40\n  9862: fallthrough\n      : @341 (gas: 38)\n  9863: u64 [s1 + 0x48] = a2\n  9866: a0 = sp + 0xffffffffffffffe0\n  9869: a2 = a0 & 0xffffffffffffffe0\n  9872: u64 [s1 + 0xd8] = a2\n  9876: sp = a2\n  9878: a0 = 0x201d0\n  9883: i32 a0 = a0 + 0\n  9885: i32 a2 = a2 + 0\n  9887: a1 = 0x40\n  9890: u64 [s1 + 0x50] = a0\n  9893: ecalli 9 // 'hash_keccak_256'\n  9895: a3 = u64 [s1 + 0xd8]\n  9899: a0 = u64 [a3]\n  9901: a1 = u64 [a3 + 0x8]\n  9904: a2 = u64 [a3 + 0x10]\n  9907: a3 = u64 [a3 + 0x18]\n  9910: a0 = reverse a0\n  9912: a1 = reverse a1\n  9914: a2 = reverse a2\n  9916: a3 = reverse a3\n  9918: a4 = a3 + 0x2\n  9921: a3 = a4 <u a3\n  9924: a5 = a2 + a3\n  9927: a2 = a5 <u a2\n  9930: a2 = a3 if a3 == 0\n  9933: a2 = a2 + a1\n  9936: a1 = a2 <u a1\n  9939: a0 = a0 + a1\n  9942: a1 = s1 + 0x1878\n  9946: a3 = a1 + 0x500\n  9950: u64 [a3 + 0xc8] = a4\n  9954: u64 [a3 + 0xd0] = a5\n  9958: u64 [a3 + 0xd8] = a2\n  9962: u64 [a3 + 0xe0] = a0\n  9966: a0 = s1 + 0x7ff\n  9970: a0 = a0 + 0x6c1\n  9974: a1 = s1 + 0x1e40\n  9978: ra = 320, jump @11\n      : @342 [@dyn 160] (gas: 4)\n  9984: a0 = s1 + 0x7ff\n  9988: a0 = a0 + 0x61\n  9991: a0 = u8 [a0 + 0x660]\n  9995: jump @423 if a0 != 0\n      : @343 (gas: 5)\n  9999: a0 = u64 [s1 + 0x58]\n 10002: ra = 0x142\n 10006: ecalli 5 // 'caller'\n 10008: t0 = 0x144\n 10012: jump @895\n      : @344 [@dyn 161] (gas: 1)\n 10015: t0 = 324, jump @895\n      : @345 [@dyn 162] (gas: 9)\n 10021: u64 [a2 + 1432] = 0\n 10025: a4 = a2 + 0x500\n 10029: u64 [a4 + 0x90] = a1\n 10033: u64 [a4 + 0x88] = a0\n 10037: a1 = s1 + 0x7ff\n 10041: a1 = a1 + 0x5e1\n 10045: u64 [a4 + 0x80] = a3\n 10049: a0 = 0\n 10051: ra = 326, jump @9\n      : @346 [@dyn 163] (gas: 6)\n 10057: a1 = s1 + 0x7ff\n 10061: a1 = a1 + 0x61\n 10064: u64 [a1 + 1400] = 0\n 10068: u64 [a1 + 1392] = 0\n 10072: u64 [a1 + 1376] = 0x2\n 10077: t0 = 328, jump @902\n      : @347 [@dyn 164] (gas: 3)\n 10083: a1 = a1 + 0x5c1\n 10087: u64 [a2 + 1384] = 0\n 10091: ra = 330, jump @9\n      : @348 [@dyn 165] (gas: 3)\n 10097: a2 = u64 [s1 + 0x48]\n 10100: a0 = i32 [a2]\n 10102: jump @350 if a0 >u 63\n      : @349 (gas: 3)\n 10106: u32 [a2 + 0] = 0x40\n 10109: t0 = 0x14c\n 10113: jump @918\n      : @350 (gas: 1)\n 10116: t0 = 332, jump @918\n      : @351 [@dyn 166] (gas: 4)\n 10122: ra = 0x14e\n 10126: ecalli 9 // 'hash_keccak_256'\n 10128: t0 = 0x150\n 10132: jump @906\n      : @352 [@dyn 167] (gas: 1)\n 10135: t0 = 336, jump @906\n      : @353 [@dyn 168] (gas: 9)\n 10141: u64 [a4 + 0x600] = a3\n 10145: a3 = a4 + 0x500\n 10149: u64 [a3 + 0xf8] = a2\n 10153: u64 [a3 + 0xf0] = a1\n 10157: u64 [a3 + 0xe8] = a0\n 10161: a0 = s1 + 0x7ff\n 10165: a0 = a0 + 0x5a1\n 10169: a1 = s1 + 0x1e60\n 10173: ra = 338, jump @11\n      : @354 [@dyn 169] (gas: 21)\n 10179: a1 = s1 + 0x7ff\n 10183: a1 = a1 + 0x61\n 10186: a2 = a1 + 0x500\n 10190: a0 = u64 [a2 + 0x58]\n 10193: u64 [s1 + 0xd0] = a0\n 10197: a0 = u64 [a2 + 0x50]\n 10200: u64 [s1 + 0xc8] = a0\n 10204: a0 = u64 [a2 + 0x48]\n 10207: u64 [s1 + 0xc0] = a0\n 10211: a0 = u64 [a2 + 0x40]\n 10214: u64 [s1 + 0xd8] = a0\n 10218: a0 = s1 + 0x1878\n 10222: u64 [a0 + 1568] = 0\n 10226: u64 [a0 + 1560] = 0\n 10230: u64 [a0 + 1552] = 0\n 10234: a1 = a0\n 10236: u64 [a1 + 1544] = 0x1\n 10241: a0 = s1 + 0x7ff\n 10245: a0 = a0 + 0x581\n 10249: a1 = s1 + 0x1e80\n 10253: ra = 340, jump @11\n      : @355 [@dyn 170] (gas: 69)\n 10259: a1 = s1 + 0x7ff\n 10263: a1 = a1 + 0x61\n 10266: t2 = u64 [a1 + 0x520]\n 10270: a2 = a1 + 0x500\n 10274: a0 = u64 [a2 + 0x38]\n 10277: u64 [s1 + 0xb8] = a0\n 10281: a3 = u64 [a2 + 0x30]\n 10284: a5 = u64 [a2 + 0x28]\n 10287: ra = u64 [s1 + 0xd8]\n 10291: a1 = ra mulhu t2\n 10294: a0 = u64 [s1 + 0xc0]\n 10298: a2 = a0 * t2\n 10301: a1 = a1 + a2\n 10304: a2 = a1 <u a2\n 10307: a4 = a0 mulhu t2\n 10310: t1 = a4 + a2\n 10313: a4 = ra * a5\n 10316: a1 = a1 + a4\n 10319: u64 [s1 + 0x98] = a1\n 10323: a1 = a1 <u a4\n 10326: a4 = ra mulhu a5\n 10329: a1 = a1 + a4\n 10332: t0 = t1 + a1\n 10335: a2 = a0 * a5\n 10338: a1 = a2 + t0\n 10341: u64 [s1 + 0xb0] = a1\n 10345: a4 = a1 <u a2\n 10348: a1 = t0 <u t1\n 10351: a2 = a0 mulhu a5\n 10354: a1 = a1 + a2\n 10357: a1 = a1 + a4\n 10360: u64 [s1 + 0xa8] = a1\n 10364: a1 = a0 * a3\n 10367: a2 = u64 [s1 + 0xb8]\n 10371: a2 = a2 * ra\n 10374: a1 = a1 + a2\n 10377: u64 [s1 + 0xa0] = a1\n 10381: t0 = u64 [s1 + 0xc8]\n 10385: u64 [s1 + 0x78] = a5\n 10388: a2 = a5 * t0\n 10391: a4 = u64 [s1 + 0xd0]\n 10395: a5 = a4 * t2\n 10398: a5 = a5 + a2\n 10401: a2 = a3 * ra\n 10404: t1 = t0 * t2\n 10407: a2 = a2 + t1\n 10410: u64 [s1 + 0x88] = a3\n 10414: a3 = a3 mulhu ra\n 10417: u64 [s1 + 0x68] = a3\n 10420: a1 = u64 [s1 + 0xa0]\n 10424: a3 = a3 + a1\n 10427: a1 = t0 mulhu t2\n 10430: u64 [s1 + 0xa0] = a1\n 10434: a1 = a1 + a5\n 10437: a5 = a2 <u t1\n 10440: u64 [s1 + 0x70] = a1\n 10443: a1 = a1 + a3\n 10446: t1 = a1 + a5\n 10449: a5 = a0 | a4\n 10452: a1 = ra | t0\n 10455: a1 = a1 | a5\n 10458: a0 = u64 [s1 + 0xb0]\n 10462: a2 = a2 + a0\n 10465: a4 = a2 <u a0\n 10468: a0 = u64 [s1 + 0xa8]\n 10472: t1 = t1 + a0\n 10475: a5 = t1 + a4\n 10478: u64 [s1 + 0x80] = a2\n 10482: jump @358 if a1 == 0\n      : @356 (gas: 52)\n 10486: a1 = a5 ^ a0\n 10489: a2 = a5 <u a0\n 10492: a4 = a2 if a1 != 0\n 10495: a0 = u64 [s1 + 0x68]\n 10498: a3 = a3 <u a0\n 10501: a1 = u64 [s1 + 0xc0]\n 10505: a2 = a1 >u 0\n 10507: ra = a5\n 10509: t0 = u64 [s1 + 0xb8]\n 10513: a5 = t0 >u 0\n 10515: a2 = a2 & a5\n 10518: a5 = u64 [s1 + 0xd8]\n 10522: a5 = t0 mulhu a5\n 10525: a5 = a5 >u 0\n 10527: a2 = a2 | a5\n 10530: t1 = u64 [s1 + 0x88]\n 10534: a5 = a1 mulhu t1\n 10537: a5 = a5 >u 0\n 10539: a2 = a2 | a5\n 10542: a2 = a2 | a3\n 10545: u64 [s1 + 0xc0] = a2\n 10549: a0 = u64 [s1 + 0xa0]\n 10553: a1 = u64 [s1 + 0x70]\n 10556: a0 = a1 <u a0\n 10559: u64 [s1 + 0xb0] = a0\n 10563: a2 = u64 [s1 + 0xd0]\n 10567: a5 = a2 >u 0\n 10569: a0 = u64 [s1 + 0x78]\n 10572: a1 = a0 >u 0\n 10574: a1 = a1 & a5\n 10577: a5 = a2 mulhu t2\n 10580: a5 = a5 >u 0\n 10582: a1 = a1 | a5\n 10585: a5 = ra\n 10587: ra = u64 [s1 + 0xc8]\n 10591: a3 = a0 mulhu ra\n 10594: a3 = a3 >u 0\n 10596: a1 = a1 | a3\n 10599: a0 = u64 [s1 + 0xb0]\n 10603: a1 = a1 | a0\n 10606: a2 = ra | a2\n 10609: a3 = t1 | t0\n 10612: a2 = a2 >u 0\n 10614: a3 = a3 >u 0\n 10616: a2 = a2 & a3\n 10619: a1 = a1 | a2\n 10622: a2 = u64 [s1 + 0x80]\n 10626: a0 = u64 [s1 + 0xc0]\n 10630: a1 = a1 | a0\n 10633: a1 = a1 | a4\n 10636: a1 = a1 & 0x1\n 10639: jump @358 if a1 == 0\n      : @357 (gas: 1)\n 10642: jump @701\n      : @358 (gas: 56)\n 10645: u64 [s1 + 0x90] = a5\n 10649: a1 = u64 [s1 + 0xd8]\n 10653: t0 = a1 * t2\n 10656: a0 = t0 | a2\n 10659: a1 = u64 [s1 + 0x98]\n 10663: t2 = a2\n 10665: a2 = a1 | a5\n 10668: a0 = a0 | a2\n 10671: a0 = a0 <u 0x1\n 10674: u64 [s1 + 0xd8] = a0\n 10678: a0 = clz t2\n 10680: a0 = a0 + 0x40\n 10683: a2 = clz a5\n 10685: a2 = a0 if a5 == 0\n 10688: a0 = clz t0\n 10690: a0 = a0 + 0x40\n 10693: a3 = clz a1\n 10695: a3 = a0 if a1 == 0\n 10698: a0 = a3 + 0x80\n 10702: a4 = t2 | a5\n 10705: a2 = a0 if a4 == 0\n 10708: a5 = a0 <u a3\n 10711: a5 = 0 if a4 != 0\n 10713: a3 = a5 >u 0\n 10715: a0 = a2 <u 0xfa\n 10719: a4 = a0 ^ 0x1\n 10722: a3 = a4 if a5 == 0\n 10725: a0 = a3 <u 0x1\n 10728: a0 = a0 + 0xffffffffffffffff\n 10731: ra = -a3\n 10733: a5 = -a5\n 10735: t1 = a5 - a4\n 10738: a2 = 0xf9 - a2\n 10742: u64 [s1 + 0xc0] = ra\n 10746: a4 = ra >u 0\n 10748: a5 = a0 >u 0\n 10750: u64 [s1 + 0xc8] = a0\n 10754: a5 = a4 if a0 == 0\n 10757: a0 = t1 >u 0\n 10759: u64 [s1 + 0xd0] = a2\n 10763: a2 = a2 <u 0x100\n 10767: a2 = a2 ^ 0x1\n 10770: a2 = a0 if t1 != 0\n 10773: a2 = a5 if a3 != 0\n 10776: a0 = u64 [s1 + 0xd8]\n 10780: a0 = a0 | a2\n 10783: a2 = u64 [s1 + 0x90]\n 10787: a2 = 0 if a0 != 0\n 10789: a3 = t2\n 10791: a3 = 0 if a0 != 0\n 10793: a5 = a1\n 10795: a5 = 0 if a0 != 0\n 10797: u64 [s1 + 0x88] = t0\n 10801: a4 = t0\n 10803: a4 = 0 if a0 != 0\n 10805: jump @360 if a0 == 0\n      : @359 (gas: 1)\n 10808: jump @537\n      : @360 (gas: 8)\n 10811: a0 = u64 [s1 + 0xd0]\n 10815: a0 = a0 ^ 0xff\n 10819: t2 = u64 [s1 + 0xc0]\n 10823: t0 = a0 | t2\n 10826: ra = u64 [s1 + 0xc8]\n 10830: a0 = t1 | ra\n 10833: a0 = t0 | a0\n 10836: jump @362 if a0 != 0\n      : @361 (gas: 1)\n 10839: jump @537\n      : @362 (gas: 18)\n 10842: a3 = u64 [s1 + 0xd0]\n 10846: a2 = a3 + 0x1\n 10849: u64 [s1 + 0xd8] = a2\n 10853: a0 = a2 <u 0x1\n 10856: a0 = a0 + t1\n 10859: u64 [s1 + 0xb0] = a0\n 10863: a0 = a0 | a2\n 10866: a0 = a0 <u 0x1\n 10869: a0 = a0 + t2\n 10872: u64 [s1 + 0xa0] = a0\n 10876: a0 = a0 <u t2\n 10879: a0 = a0 + ra\n 10882: u64 [s1 + 0xa8] = a0\n 10886: a2 = 0xff - a3\n 10890: u64 [s1 + 0xb8] = a2\n 10894: a2 = 0x80 - a2\n 10898: a0 = u64 [s1 + 0x88]\n 10902: ra = 342, jump @921\n      : @363 [@dyn 171] (gas: 6)\n 10908: u64 [s1 + 0xc8] = a0\n 10912: u64 [s1 + 0xc0] = a1\n 10916: a0 = u64 [s1 + 0x80]\n 10920: a1 = u64 [s1 + 0x90]\n 10924: a2 = u64 [s1 + 0xb8]\n 10928: ra = 344, jump @926\n      : @364 [@dyn 172] (gas: 9)\n 10934: u64 [s1 + 0x78] = a0\n 10937: a0 = u64 [s1 + 0xc0]\n 10941: a0 = a0 | a1\n 10944: u64 [s1 + 0xc0] = a0\n 10948: a1 = u64 [s1 + 0xd0]\n 10952: a2 = 0x7f - a1\n 10955: a0 = u64 [s1 + 0x88]\n 10959: a1 = u64 [s1 + 0x98]\n 10963: ra = 346, jump @926\n      : @365 [@dyn 173] (gas: 18)\n 10969: a2 = u64 [s1 + 0xb8]\n 10973: a3 = a2 <u 0x80\n 10977: u64 [s1 + 0xd0] = a3\n 10981: a4 = u64 [s1 + 0xc0]\n 10985: a1 = a4 if a3 != 0\n 10988: a4 = u64 [s1 + 0x90]\n 10992: a1 = a4 if a2 == 0\n 10995: u64 [s1 + 0xc0] = a1\n 10999: a1 = u64 [s1 + 0xc8]\n 11003: a4 = u64 [s1 + 0x78]\n 11006: a1 = a1 | a4\n 11009: a1 = a0 if a3 == 0\n 11012: a0 = u64 [s1 + 0x80]\n 11016: a1 = a0 if a2 == 0\n 11019: u64 [s1 + 0xc8] = a1\n 11023: a0 = u64 [s1 + 0x88]\n 11027: a1 = u64 [s1 + 0x98]\n 11031: ra = 348, jump @926\n      : @366 [@dyn 174] (gas: 13)\n 11037: a3 = u64 [s1 + 0xa0]\n 11041: a4 = u64 [s1 + 0xa8]\n 11045: a2 = u64 [s1 + 0xb0]\n 11049: a2 = a2 | a4\n 11052: a5 = u64 [s1 + 0xd8]\n 11056: a5 = a5 | a3\n 11059: a2 = a2 | a5\n 11062: a3 = u64 [s1 + 0xd0]\n 11066: a1 = 0 if a3 == 0\n 11068: u64 [s1 + 0xb8] = a1\n 11072: a0 = 0 if a3 == 0\n 11074: u64 [s1 + 0xd0] = a0\n 11078: jump @368 if a2 == 0\n      : @367 (gas: 1)\n 11081: jump @530\n      : @368 (gas: 3)\n 11084: a5 = 0\n 11086: u64 [s1 + 120] = 0\n 11089: jump @536\n      : @369 (gas: 10)\n 11092: u64 [a2 + 1952] = 0\n 11096: u64 [a2 + 1944] = 0\n 11100: u64 [a2 + 1936] = 0\n 11104: u64 [a2 + 1928] = 0\n 11108: a0 = s1 + 0x2000\n 11112: i32 a0 = a0 + 0\n 11114: ra = 0x15e\n 11118: ecalli 16 // 'value_transferred'\n 11120: t0 = 0x160\n 11124: jump @917\n      : @370 [@dyn 175] (gas: 1)\n 11127: t0 = 352, jump @917\n      : @371 [@dyn 176] (gas: 1)\n 11133: t0 = 354, jump @909\n      : @372 [@dyn 177] (gas: 1)\n 11139: jump @374 if a0 == 0\n      : @373 (gas: 1)\n 11142: jump @690\n      : @374 (gas: 3)\n 11145: a0 = u64 [s1 + 0xd8]\n 11149: a0 = i32 [a0]\n 11151: jump @376 if a0 >u 3\n      : @375 (gas: 1)\n 11155: jump @691\n      : @376 (gas: 4)\n 11158: a0 = s1 + 0x7ff\n 11162: a0 = a0 + 0x7c1\n 11166: a1 = 0x40\n 11169: ra = 356, jump @7\n      : @377 [@dyn 178] (gas: 12)\n 11175: a0 = s1 + 0x7ff\n 11179: a0 = a0 + 0x61\n 11182: a2 = a0 + 0x700\n 11186: a1 = u64 [a2 + 0x78]\n 11189: u64 [s1 + 0xd8] = a1\n 11193: a1 = u64 [a2 + 0x70]\n 11196: u64 [s1 + 0xd0] = a1\n 11200: a1 = u64 [a2 + 0x68]\n 11203: u64 [s1 + 0xc0] = a1\n 11207: a0 = u64 [a2 + 0x60]\n 11210: u64 [s1 + 0xc8] = a0\n 11214: ra = 358, jump @0\n      : @378 [@dyn 179] (gas: 7)\n 11220: a0 = u64 [s1 + 0xd8]\n 11224: a1 = u64 [s1 + 0xc0]\n 11228: a0 = a0 | a1\n 11231: a1 = u64 [s1 + 0xc8]\n 11235: a3 = a1\n 11237: a2 = u64 [s1 + 0xd0]\n 11241: t0 = 360, jump @914\n      : @379 [@dyn 180] (gas: 1)\n 11247: jump @381 if a0 != 0\n      : @380 (gas: 1)\n 11250: jump @692\n      : @381 (gas: 1)\n 11253: trap\n      : @382 (gas: 3)\n 11254: a0 = s1 + 0x13c0\n 11258: a1 = u64 [s1 + 0xd8]\n 11262: ra = 362, jump @11\n      : @383 [@dyn 181] (gas: 25)\n 11268: a3 = s1 + 0x1078\n 11272: a4 = a3 + 0x300\n 11276: a0 = u64 [a4 + 0x50]\n 11279: a1 = u64 [a4 + 0x60]\n 11282: a2 = u64 [a4 + 0x48]\n 11285: a3 = u64 [a4 + 0x58]\n 11288: a5 = u64 [s1 + 0xb0]\n 11292: a4 = a5 ^ a0\n 11295: a0 = a0 <u a5\n 11298: a5 = u64 [s1 + 0xa8]\n 11302: a2 = a2 <u a5\n 11305: a2 = a0 if a4 != 0\n 11308: a0 = u64 [s1 + 0xb8]\n 11312: t0 = a3 <u a0\n 11315: a5 = u64 [s1 + 0xc0]\n 11319: a4 = a5 ^ a1\n 11322: a1 = a1 <u a5\n 11325: a1 = t0 if a4 == 0\n 11328: a0 = a0 ^ a3\n 11331: a0 = a0 | a4\n 11334: a1 = a2 if a0 == 0\n 11337: u64 [s1 + 0x90] = a1\n 11341: a0 = s1 + 0x13a0\n 11345: a1 = 0x40\n 11348: ra = 364, jump @7\n      : @384 [@dyn 182] (gas: 8)\n 11354: t0 = s1 + 0x1078\n 11358: a0 = t0 + 0x300\n 11362: a2 = u64 [a0 + 0x40]\n 11365: a5 = u64 [a0 + 0x38]\n 11368: a4 = u64 [a0 + 0x30]\n 11371: a3 = u64 [a0 + 0x28]\n 11374: a0 = u64 [s1 + 0x90]\n 11378: jump @440 if a0 == 0\n      : @385 (gas: 8)\n 11382: a0 = a3 | a5\n 11385: a1 = a4 | a2\n 11388: a0 = a0 | a1\n 11391: a0 = a0 >> 0x20\n 11394: a1 = a1 | a5\n 11397: a1 = a1 << 0x20\n 11400: a0 = a0 | a1\n 11403: jump @381 if a0 != 0\n      : @386 (gas: 12)\n 11407: u64 [t0 + 120] = 0\n 11410: u64 [t0 + 112] = 0\n 11413: u64 [t0 + 104] = 0\n 11416: a0 = 0x8c379a000000000\n 11426: a1 = s1 + 0x10e0\n 11430: u64 [t0 + 0x80] = a0\n 11434: a0 = a3\n 11436: u64 [s1 + 0x88] = a3\n 11440: u64 [s1 + 0x80] = a4\n 11444: u64 [s1 + 0x78] = a5\n 11447: u64 [s1 + 0x70] = a2\n 11450: ra = 366, jump @9\n      : @387 [@dyn 183] (gas: 11)\n 11456: a1 = u64 [s1 + 0x88]\n 11460: a0 = u64 [s1 + 0x70]\n 11463: a3 = u64 [s1 + 0x78]\n 11466: a3 = a3 | a0\n 11469: a4 = 0x100000000\n 11479: a0 = 0xfffffffc\n 11489: a0 = a1 <u a0\n 11492: a2 = u64 [s1 + 0x80]\n 11496: a0 = 0 if a2 != 0\n 11498: a0 = 0 if a3 != 0\n 11500: jump @381 if a0 == 0\n      : @388 (gas: 11)\n 11504: i32 a0 = a1 + 0x4\n 11507: a2 = s1 + 0x1078\n 11511: a5 = 0\n 11513: u64 [a2 + 96] = 0\n 11516: u64 [a2 + 88] = 0\n 11519: u64 [a2 + 72] = 0x20\n 11523: a1 = s1 + 0x10c0\n 11527: u64 [a2 + 80] = 0\n 11530: u64 [s1 + 0xd8] = a3\n 11534: u64 [s1 + 0xd0] = a4\n 11538: ra = 368, jump @9\n      : @389 [@dyn 184] (gas: 9)\n 11544: a3 = u64 [s1 + 0xd8]\n 11548: a2 = u64 [s1 + 0x80]\n 11552: a1 = u64 [s1 + 0x88]\n 11556: a0 = u64 [s1 + 0xd0]\n 11560: a0 = a0 + 0xffffffffffffffdc\n 11563: a0 = a1 <u a0\n 11566: a0 = 0 if a2 != 0\n 11568: a0 = 0 if a3 != 0\n 11570: jump @381 if a0 == 0\n      : @390 (gas: 8)\n 11574: i32 a0 = a1 + 0x24\n 11577: a3 = s1 + 0x1078\n 11581: u64 [a3 + 64] = 0\n 11584: u64 [a3 + 56] = 0\n 11587: u64 [a3 + 40] = 0x19\n 11591: a1 = s1 + 0x10a0\n 11595: u64 [a3 + 48] = 0\n 11598: ra = 370, jump @9\n      : @391 [@dyn 185] (gas: 8)\n 11604: a3 = u64 [s1 + 0x88]\n 11608: a0 = 0xffffffbc\n 11618: a0 = a3 <u a0\n 11621: a1 = u64 [s1 + 0x80]\n 11625: a0 = 0 if a1 != 0\n 11627: a1 = u64 [s1 + 0xd8]\n 11631: a0 = 0 if a1 != 0\n 11633: jump @381 if a0 == 0\n      : @392 (gas: 12)\n 11637: i32 a0 = a3 + 0x44\n 11640: a1 = u64 [0x200c0]\n 11645: a2 = u64 [0x200c8]\n 11650: a3 = u64 [0x200d0]\n 11655: a4 = s1 + 0x1078\n 11659: u64 [a4 + 0x20] = a1\n 11662: u64 [a4 + 0x18] = a2\n 11665: u64 [a4 + 0x10] = a3\n 11668: a2 = 0x6e00000000000000\n 11678: a1 = s1 + 0x1080\n 11682: u64 [a4 + 0x8] = a2\n 11685: ra = 372, jump @9\n      : @393 [@dyn 186] (gas: 4)\n 11691: a1 = 0x64\n 11694: a0 = u64 [s1 + 0x88]\n 11698: ra = 0x236\n 11702: jump @18\n      : @394 (gas: 5)\n 11705: a0 = u64 [s1 + 0xb0]\n 11709: ra = 0x176\n 11713: ecalli 5 // 'caller'\n 11715: t0 = 0x178\n 11719: jump @894\n      : @395 [@dyn 187] (gas: 1)\n 11722: t0 = 376, jump @894\n      : @396 [@dyn 188] (gas: 7)\n 11728: u64 [s1 + 1656] = 0\n 11732: u64 [s1 + 0x670] = a1\n 11736: u64 [s1 + 0x668] = a0\n 11740: a1 = s1 + 0x660\n 11744: u64 [s1 + 0x660] = a3\n 11748: a0 = 0\n 11750: ra = 378, jump @9\n      : @397 [@dyn 189] (gas: 7)\n 11756: u64 [s1 + 1624] = 0\n 11760: u64 [s1 + 1616] = 0\n 11764: u64 [s1 + 1600] = 0x2\n 11769: a0 = 0x20\n 11772: a1 = s1 + 0x640\n 11776: u64 [s1 + 1608] = 0\n 11780: ra = 380, jump @9\n      : @398 [@dyn 190] (gas: 3)\n 11786: a2 = u64 [s1 + 0x98]\n 11790: a0 = i32 [a2]\n 11792: jump @400 if a0 >u 63\n      : @399 (gas: 2)\n 11796: u32 [a2 + 0] = 0x40\n 11799: fallthrough\n      : @400 (gas: 12)\n 11800: a0 = sp + 0xffffffffffffffe0\n 11803: a0 = a0 & 0xffffffffffffffe0\n 11806: u64 [s1 + 0xa8] = a0\n 11810: sp = a0\n 11812: i32 a2 = a0 + 0\n 11814: a1 = 0x40\n 11817: a0 = u64 [s1 + 0xa0]\n 11821: ra = 0x17e\n 11825: ecalli 9 // 'hash_keccak_256'\n 11827: a3 = u64 [s1 + 0xa8]\n 11831: t0 = 0x180\n 11835: jump @898\n      : @401 [@dyn 191] (gas: 2)\n 11838: a3 = u64 [s1 + 0xa8]\n 11842: t0 = 384, jump @898\n      : @402 [@dyn 192] (gas: 7)\n 11848: u64 [a5 + 0xe0] = a3\n 11852: u64 [a5 + 0xd8] = a2\n 11856: u64 [a5 + 0xd0] = a1\n 11860: u64 [a5 + 0xc8] = a0\n 11864: a0 = s1 + 0x620\n 11868: a1 = s1 + 0x1c40\n 11872: ra = 386, jump @11\n      : @403 [@dyn 193] (gas: 13)\n 11878: a0 = u64 [s1 + 0x620]\n 11882: u64 [s1 + 0xa8] = a0\n 11886: a0 = u64 [s1 + 0x628]\n 11890: u64 [s1 + 0x90] = a0\n 11894: a0 = u64 [s1 + 0x630]\n 11898: u64 [s1 + 0x88] = a0\n 11902: a0 = u64 [s1 + 0x638]\n 11906: u64 [s1 + 0x80] = a0\n 11910: a0 = u64 [s1 + 0xb0]\n 11914: ra = 0x184\n 11918: ecalli 5 // 'caller'\n 11920: t0 = 0x186\n 11924: jump @894\n      : @404 [@dyn 194] (gas: 1)\n 11927: t0 = 390, jump @894\n      : @405 [@dyn 195] (gas: 27)\n 11933: u64 [s1 + 1528] = 0\n 11937: u64 [s1 + 0x5f0] = a1\n 11941: u64 [s1 + 0x5e8] = a0\n 11945: a0 = s1 + 0x600\n 11949: a1 = s1 + 0x5e0\n 11953: u64 [s1 + 0x5e0] = a3\n 11957: ra = 0x188\n 11961: sp = sp + 0xfffffffffffffcc0\n 11965: a2 = sp + 0x300\n 11969: u64 [a2 + 0x38] = ra\n 11972: u64 [a2 + 0x30] = s0\n 11975: u64 [a2 + 0x28] = s1\n 11978: s0 = sp + 0x340\n 11982: sp = sp & 0xffffffffffffffe0\n 11985: s1 = sp\n 11987: a2 = u64 [a1]\n 11989: a3 = u64 [a1 + 0x8]\n 11992: a1 = u32 [a1 + 0x10]\n 11995: u64 [s1 + 0x8] = a0\n 11998: u64 [s1 + 664] = 0\n 12002: u64 [s1 + 0x290] = a1\n 12006: u64 [s1 + 0x288] = a3\n 12010: a1 = s1 + 0x280\n 12014: u64 [s1 + 0x280] = a2\n 12018: a0 = 0\n 12020: ra = 0x336\n 12024: jump @9\n      : @406 [@dyn 196] (gas: 21)\n 12027: a4 = s1 + 0x600\n 12031: a0 = u64 [a4]\n 12033: a1 = u64 [a4 + 0x8]\n 12036: a2 = u64 [a4 + 0x10]\n 12039: a3 = u64 [a4 + 0x18]\n 12042: u64 [s1 + 0x598] = a3\n 12046: u64 [s1 + 0x590] = a2\n 12050: u64 [s1 + 0x588] = a1\n 12054: u64 [s1 + 0x580] = a0\n 12058: a0 = u64 [s1 + 0x80]\n 12062: u64 [s1 + 0x5b8] = a0\n 12066: a0 = u64 [s1 + 0x88]\n 12070: u64 [s1 + 0x5b0] = a0\n 12074: a0 = u64 [s1 + 0x90]\n 12078: u64 [s1 + 0x5a8] = a0\n 12082: a0 = s1 + 0x5c0\n 12086: a1 = s1 + 0x5a0\n 12090: a2 = s1 + 0x580\n 12094: a3 = u64 [s1 + 0xa8]\n 12098: u64 [s1 + 0x5a0] = a3\n 12102: ra = 394, jump @782\n      : @407 [@dyn 197] (gas: 21)\n 12108: a1 = s1 + 0x500\n 12112: a0 = u64 [a1 + 0xd8]\n 12116: t0 = u64 [s1 + 0x5c0]\n 12120: a2 = u64 [a1 + 0xd0]\n 12124: a3 = u64 [a1 + 0xc8]\n 12128: a5 = u64 [s1 + 0xd0]\n 12132: a4 = a5 ^ a0\n 12135: a1 = a0 <u a5\n 12138: a0 = u64 [s1 + 0xc8]\n 12142: a5 = a2 <u a0\n 12145: a5 = a1 if a4 != 0\n 12148: a1 = u64 [s1 + 0xc0]\n 12152: t1 = a1 ^ a3\n 12155: a3 = a3 <u a1\n 12158: a1 = u64 [s1 + 0xb8]\n 12162: a1 = t0 <u a1\n 12165: a1 = a3 if t1 != 0\n 12168: a0 = a0 ^ a2\n 12171: a0 = a0 | a4\n 12174: a1 = a5 if a0 != 0\n 12177: jump @474 if a1 == 0\n      : @408 (gas: 3)\n 12181: a0 = s1 + 0x2a0\n 12185: a1 = 0x40\n 12188: ra = 396, jump @7\n      : @409 [@dyn 198] (gas: 6)\n 12194: a1 = s1 + 0x200\n 12198: a4 = u64 [a1 + 0xb8]\n 12202: a5 = u64 [a1 + 0xb0]\n 12206: a3 = u64 [a1 + 0xa8]\n 12210: a0 = u64 [a1 + 0xa0]\n 12214: t0 = 398, jump @904\n      : @410 [@dyn 199] (gas: 1)\n 12220: jump @381 if a1 != 0\n      : @411 (gas: 11)\n 12224: u64 [s1 + 656] = 0\n 12228: u64 [s1 + 648] = 0\n 12232: u64 [s1 + 640] = 0\n 12236: a2 = 0x8c379a000000000\n 12246: a1 = s1 + 0x280\n 12250: u64 [s1 + 0x298] = a2\n 12254: u64 [s1 + 0xd8] = a0\n 12258: u64 [s1 + 0xd0] = a3\n 12262: u64 [s1 + 0xc8] = a4\n 12266: u64 [s1 + 0xc0] = a5\n 12270: ra = 400, jump @9\n      : @412 [@dyn 200] (gas: 5)\n 12276: a1 = u64 [s1 + 0xd8]\n 12280: a0 = u64 [s1 + 0xc8]\n 12284: a3 = u64 [s1 + 0xc0]\n 12288: a3 = a3 | a0\n 12291: t0 = 402, jump @897\n      : @413 [@dyn 201] (gas: 1)\n 12297: jump @381 if a0 == 0\n      : @414 (gas: 9)\n 12301: i32 a0 = a1 + 0x4\n 12304: u64 [s1 + 632] = 0\n 12308: u64 [s1 + 624] = 0\n 12312: u64 [s1 + 608] = 0x20\n 12317: a1 = s1 + 0x260\n 12321: u64 [s1 + 616] = 0\n 12325: u64 [s1 + 0xc8] = a3\n 12329: u64 [s1 + 0xc0] = a4\n 12333: ra = 404, jump @9\n      : @415 [@dyn 202] (gas: 4)\n 12339: a1 = u64 [s1 + 0xd8]\n 12343: a0 = u64 [s1 + 0xc0]\n 12347: a0 = a0 + 0xffffffffffffffdc\n 12350: t0 = 406, jump @913\n      : @416 [@dyn 203] (gas: 1)\n 12356: jump @381 if a0 == 0\n      : @417 (gas: 7)\n 12360: i32 a0 = a1 + 0x24\n 12363: u64 [s1 + 600] = 0\n 12367: u64 [s1 + 592] = 0\n 12371: u64 [s1 + 576] = 0x2c\n 12376: a1 = s1 + 0x240\n 12380: u64 [s1 + 584] = 0\n 12384: ra = 408, jump @9\n      : @418 [@dyn 204] (gas: 9)\n 12390: a4 = u64 [s1 + 0xc8]\n 12394: a3 = u64 [s1 + 0xd0]\n 12398: a1 = u64 [s1 + 0xd8]\n 12402: a2 = 0x100000000\n 12412: a0 = 0xffffffbc\n 12422: a0 = a1 <u a0\n 12425: a0 = 0 if a3 != 0\n 12427: a0 = 0 if a4 != 0\n 12429: jump @381 if a0 == 0\n      : @419 (gas: 13)\n 12433: i32 a0 = a1 + 0x44\n 12436: a1 = u64 [0x20160]\n 12441: a4 = s1 + 0x200\n 12445: u64 [a4 + 0x38] = a1\n 12448: a1 = u64 [0x20168]\n 12453: u64 [s1 + 0xc0] = a2\n 12457: a2 = u64 [0x20170]\n 12462: a3 = u64 [0x20178]\n 12467: u64 [a4 + 0x30] = a1\n 12470: u64 [a4 + 0x28] = a2\n 12473: a1 = s1 + 0x220\n 12477: u64 [a4 + 0x20] = a3\n 12480: ra = 410, jump @9\n      : @420 [@dyn 205] (gas: 4)\n 12486: a2 = u64 [s1 + 0xd8]\n 12490: a0 = u64 [s1 + 0xc0]\n 12494: a0 = a0 + 0xffffffffffffff9c\n 12497: t0 = 412, jump @907\n      : @421 [@dyn 206] (gas: 1)\n 12503: jump @381 if a0 == 0\n      : @422 (gas: 10)\n 12507: i32 a0 = a2 + 0x64\n 12510: a1 = u64 [0x20180]\n 12515: u64 [s1 + 520] = 0\n 12519: u64 [s1 + 0x218] = a1\n 12523: a1 = 0x6c6f616e00000000\n 12533: u64 [s1 + 0x210] = a1\n 12537: a1 = s1 + 0x200\n 12541: u64 [s1 + 512] = 0\n 12545: ra = 0x1b0\n 12549: jump @9\n      : @423 (gas: 4)\n 12552: a0 = s1 + 0x7ff\n 12556: a0 = a0 + 0x6a1\n 12560: a1 = 0x40\n 12563: ra = 414, jump @7\n      : @424 [@dyn 207] (gas: 8)\n 12569: a0 = s1 + 0x7ff\n 12573: a0 = a0 + 0x61\n 12576: a1 = a0 + 0x600\n 12580: a4 = u64 [a1 + 0x58]\n 12583: a5 = u64 [a1 + 0x50]\n 12586: a3 = u64 [a1 + 0x48]\n 12589: a0 = u64 [a1 + 0x40]\n 12592: t0 = 416, jump @904\n      : @425 [@dyn 208] (gas: 3)\n 12598: a2 = s1 + 0x7ff\n 12602: a2 = a2 + 0x61\n 12605: jump @381 if a1 != 0\n      : @426 (gas: 12)\n 12609: u64 [a2 + 1584] = 0\n 12613: u64 [a2 + 1576] = 0\n 12617: u64 [a2 + 1568] = 0\n 12621: u64 [s1 + 0xd0] = a3\n 12625: a3 = 0x8c379a000000000\n 12635: a1 = s1 + 0x7ff\n 12639: a1 = a1 + 0x681\n 12643: u64 [a2 + 0x638] = a3\n 12647: u64 [s1 + 0xd8] = a0\n 12651: u64 [s1 + 0xc8] = a4\n 12655: u64 [s1 + 0xc0] = a5\n 12659: ra = 418, jump @9\n      : @427 [@dyn 209] (gas: 5)\n 12665: a1 = u64 [s1 + 0xd8]\n 12669: a0 = u64 [s1 + 0xc8]\n 12673: a3 = u64 [s1 + 0xc0]\n 12677: a3 = a3 | a0\n 12680: t0 = 420, jump @897\n      : @428 [@dyn 210] (gas: 1)\n 12686: jump @381 if a0 == 0\n      : @429 (gas: 12)\n 12690: i32 a0 = a1 + 0x4\n 12693: a2 = s1 + 0x7ff\n 12697: a2 = a2 + 0x61\n 12700: u64 [a2 + 1560] = 0\n 12704: u64 [a2 + 1552] = 0\n 12708: u64 [a2 + 1536] = 0x20\n 12713: a1 = s1 + 0x7ff\n 12717: a1 = a1 + 0x661\n 12721: u64 [a2 + 1544] = 0\n 12725: u64 [s1 + 0xc8] = a3\n 12729: u64 [s1 + 0xc0] = a4\n 12733: ra = 422, jump @9\n      : @430 [@dyn 211] (gas: 4)\n 12739: a1 = u64 [s1 + 0xd8]\n 12743: a0 = u64 [s1 + 0xc0]\n 12747: a0 = a0 + 0xffffffffffffffdc\n 12750: t0 = 424, jump @913\n      : @431 [@dyn 212] (gas: 1)\n 12756: jump @381 if a0 == 0\n      : @432 (gas: 10)\n 12760: i32 a0 = a1 + 0x24\n 12763: a2 = s1 + 0x7ff\n 12767: a2 = a2 + 0x61\n 12770: u64 [a2 + 1528] = 0\n 12774: u64 [a2 + 1520] = 0\n 12778: u64 [a2 + 1504] = 0x22\n 12783: a1 = s1 + 0x7ff\n 12787: a1 = a1 + 0x641\n 12791: u64 [a2 + 1512] = 0\n 12795: ra = 426, jump @9\n      : @433 [@dyn 213] (gas: 9)\n 12801: a2 = u64 [s1 + 0xc8]\n 12805: a3 = u64 [s1 + 0xd0]\n 12809: a1 = u64 [s1 + 0xd8]\n 12813: a4 = 0x100000000\n 12823: a0 = 0xffffffbc\n 12833: a0 = a1 <u a0\n 12836: a0 = 0 if a3 != 0\n 12838: a0 = 0 if a2 != 0\n 12840: jump @381 if a0 == 0\n      : @434 (gas: 16)\n 12844: i32 a0 = a1 + 0x44\n 12847: a1 = u64 [0x200e8]\n 12852: u64 [s1 + 0xc0] = a4\n 12856: a4 = s1 + 0x7ff\n 12860: a4 = a4 + 0x61\n 12863: a5 = a4 + 0x500\n 12867: u64 [a5 + 0xd8] = a1\n 12871: a1 = u64 [0x200f0]\n 12876: a2 = u64 [0x200f8]\n 12881: a3 = u64 [0x20100]\n 12886: u64 [a5 + 0xd0] = a1\n 12890: u64 [a5 + 0xc8] = a2\n 12894: a1 = s1 + 0x7ff\n 12898: a1 = a1 + 0x621\n 12902: u64 [a5 + 0xc0] = a3\n 12906: ra = 428, jump @9\n      : @435 [@dyn 214] (gas: 4)\n 12912: a2 = u64 [s1 + 0xd8]\n 12916: a0 = u64 [s1 + 0xc0]\n 12920: a0 = a0 + 0xffffffffffffff9c\n 12923: t0 = 430, jump @907\n      : @436 [@dyn 215] (gas: 1)\n 12929: jump @381 if a0 == 0\n      : @437 (gas: 11)\n 12933: i32 a0 = a2 + 0x64\n 12936: a3 = s1 + 0x7ff\n 12940: a3 = a3 + 0x61\n 12943: u64 [a3 + 1456] = 0\n 12947: u64 [a3 + 1448] = 0\n 12951: a1 = 0x7374000000000000\n 12961: u64 [a3 + 0x5b8] = a1\n 12965: a1 = s1 + 0x7ff\n 12969: a1 = a1 + 0x601\n 12973: u64 [a3 + 1440] = 0\n 12977: ra = 432, jump @9\n      : @438 [@dyn 216] (gas: 3)\n 12983: a1 = 0x84\n 12987: a0 = u64 [s1 + 0xd8]\n 12991: ra = 434, jump @18\n      : @439 [@dyn 217] (gas: 5)\n 12997: i32 a1 = a0 + 0\n 12999: a0 = 0x1\n 13002: a2 = 0x84\n 13006: ecalli 13 // 'seal_return'\n 13008: fallthrough\n      : @440 (gas: 8)\n 13009: a0 = a3 | a5\n 13012: a1 = a4 | a2\n 13015: a0 = a0 | a1\n 13018: a0 = a0 >> 0x20\n 13021: a1 = a1 | a5\n 13024: a1 = a1 << 0x20\n 13027: a0 = a0 | a1\n 13030: jump @381 if a0 != 0\n      : @441 (gas: 12)\n 13034: u64 [t0 + 792] = 0\n 13038: u64 [t0 + 784] = 0\n 13042: u64 [t0 + 776] = 0\n 13046: a0 = 0x23b872dd00000000\n 13056: a1 = s1 + 0x1380\n 13060: u64 [t0 + 0x320] = a0\n 13064: a0 = a3\n 13066: u64 [s1 + 0x88] = a3\n 13070: u64 [s1 + 0x80] = a4\n 13074: u64 [s1 + 0x78] = a5\n 13077: u64 [s1 + 0x70] = a2\n 13080: ra = 436, jump @9\n      : @442 [@dyn 218] (gas: 6)\n 13086: a0 = u64 [s1 + 0xa0]\n 13090: ra = 0x1b6\n 13094: ecalli 0 // 'address'\n 13095: a2 = u64 [s1 + 0xd0]\n 13099: t0 = 0x1b8\n 13103: jump @905\n      : @443 [@dyn 219] (gas: 2)\n 13106: a2 = u64 [s1 + 0xd0]\n 13110: t0 = 440, jump @905\n      : @444 [@dyn 220] (gas: 14)\n 13116: u64 [s1 + 0x90] = a1\n 13120: a0 = a0 >> 0x20\n 13123: a1 = reverse a2\n 13125: a2 = a1 << 0x20\n 13128: a0 = a0 | a2\n 13131: u64 [s1 + 0x68] = a0\n 13134: a1 = a1 >> 0x20\n 13137: u64 [s1 + 0x60] = a1\n 13140: a0 = u64 [s1 + 0xa0]\n 13144: ra = 0x1ba\n 13148: ecalli 5 // 'caller'\n 13150: a2 = u64 [s1 + 0xd0]\n 13154: t0 = 0x1bc\n 13158: jump @896\n      : @445 [@dyn 221] (gas: 2)\n 13161: a2 = u64 [s1 + 0xd0]\n 13165: t0 = 444, jump @896\n      : @446 [@dyn 222] (gas: 50)\n 13171: t0 = a1 | a0\n 13174: a3 = a3 >> 0x20\n 13177: a2 = reverse a2\n 13179: a1 = a2 << 0x20\n 13182: t1 = a1 | a3\n 13185: t2 = a2 >> 0x20\n 13188: a0 = u64 [s1 + 0x88]\n 13192: a3 = a0 + 0x4\n 13195: a5 = a3 <u a0\n 13198: a0 = u64 [s1 + 0x80]\n 13202: a4 = a0 + a5\n 13205: a0 = a4 <u a0\n 13208: a0 = a5 if a5 == 0\n 13211: a1 = u64 [s1 + 0x78]\n 13214: a0 = a0 + a1\n 13217: a5 = a0 <u a1\n 13220: a1 = u64 [s1 + 0x70]\n 13223: a5 = a5 + a1\n 13226: a1 = s1 + 0x1078\n 13230: a2 = u64 [s1 + 0x60]\n 13233: u64 [a1 + 0x298] = a2\n 13237: a2 = u64 [s1 + 0x68]\n 13240: u64 [a1 + 0x290] = a2\n 13244: a2 = u64 [s1 + 0x90]\n 13248: u64 [a1 + 0x288] = a2\n 13252: a2 = a1 + 0x200\n 13256: u64 [a2 + 0xe0] = a5\n 13260: u64 [a2 + 0xd8] = a0\n 13264: a0 = u64 [s1 + 0xc0]\n 13268: u64 [a2 + 0x80] = a0\n 13272: a0 = u64 [s1 + 0xb8]\n 13276: u64 [a2 + 0x78] = a0\n 13279: a0 = u64 [s1 + 0xb0]\n 13283: u64 [a2 + 0x70] = a0\n 13286: a0 = u64 [s1 + 0xa8]\n 13290: u64 [a2 + 0x68] = a0\n 13293: u64 [a1 + 672] = 0\n 13297: u64 [a2 + 0xd0] = a4\n 13301: u64 [a2 + 0xc8] = a3\n 13305: u64 [a1 + 0x2b8] = t2\n 13309: u64 [a1 + 0x2b0] = t1\n 13313: u64 [a1 + 0x2a8] = t0\n 13317: a5 = a1\n 13319: a0 = s1 + 0x1360\n 13323: a1 = s1 + 0x1340\n 13327: a2 = s1 + 0x1320\n 13331: a3 = s1 + 0x1300\n 13335: a4 = s1 + 0x12e0\n 13339: u64 [a5 + 704] = 0\n 13343: ra = 446, jump @824\n      : @447 [@dyn 223] (gas: 28)\n 13349: a1 = s1 + 0x1078\n 13353: a0 = u64 [a1 + 0x2f0]\n 13357: t0 = u64 [a1 + 0x300]\n 13361: t1 = u64 [a1 + 0x2e8]\n 13365: a3 = u64 [a1 + 0x2f8]\n 13369: a1 = u64 [s1 + 0x80]\n 13373: a4 = a0 ^ a1\n 13376: a5 = a0 <u a1\n 13379: ra = u64 [s1 + 0x88]\n 13383: t2 = t1 <u ra\n 13386: a5 = t2 if a4 == 0\n 13389: a2 = u64 [s1 + 0x78]\n 13392: a4 = a3 - a2\n 13395: a3 = a3 <u a2\n 13398: a2 = u64 [s1 + 0x70]\n 13401: a2 = t0 - a2\n 13404: a2 = a2 - a3\n 13407: a3 = a4 <u a5\n 13410: a2 = a2 - a3\n 13413: u64 [s1 + 0x68] = a2\n 13416: a4 = a4 - a5\n 13419: u64 [s1 + 0x60] = a4\n 13422: a0 = a0 - a1\n 13425: a0 = a0 - t2\n 13428: u64 [s1 + 0x58] = a0\n 13431: a0 = t1 - ra\n 13434: u64 [s1 + 0x90] = a0\n 13438: ra = 448, jump @0\n      : @448 [@dyn 224] (gas: 8)\n 13444: a1 = u64 [0x30210]\n 13449: u64 [s1 + 0x50] = a1\n 13452: a1 = u64 [0x30220]\n 13457: u64 [s1 + 0x48] = a1\n 13460: a0 = u64 [0x30218]\n 13465: u64 [s1 + 0x40] = a0\n 13468: ecalli 10 // 'ref_time_left'\n 13470: fallthrough\n      : @449 (gas: 35)\n 13471: a0 = u64 [s1 + 0x40]\n 13474: a0 = reverse a0\n 13476: a1 = a0 << 0x20\n 13479: a2 = u64 [s1 + 0x48]\n 13482: a2 = reverse a2\n 13484: a2 = a2 >> 0x20\n 13487: a1 = a1 | a2\n 13490: a0 = a0 >> 0x20\n 13493: a2 = u64 [s1 + 0x50]\n 13496: a2 = reverse a2\n 13498: a3 = a2 << 0x20\n 13501: a0 = a0 | a3\n 13504: a3 = u64 [s1 + 0xd0]\n 13508: a2 = a2 >> 0x20\n 13511: u32 [a3 + 0x10] = a2\n 13514: u64 [a3 + 0x8] = a0\n 13517: u64 [a3] = a1\n 13519: a2 = s1 + 0x2078\n 13523: u64 [a2 + 0] = 0\n 13525: u64 [a2 + 4294967288] = 0\n 13528: u64 [a2 + 4294967280] = 0\n 13531: a0 = u64 [s1 + 0x90]\n 13535: t0 = a0\n 13537: a5 = u64 [s1 + 0x60]\n 13540: a0 = a0 | a5\n 13543: a1 = u64 [s1 + 0x68]\n 13546: a4 = u64 [s1 + 0x58]\n 13549: a1 = a1 | a4\n 13552: a0 = a0 | a1\n 13555: a0 = a0 >> 0x20\n 13558: a1 = a1 | a5\n 13561: a1 = a1 << 0x20\n 13564: a0 = a0 | a1\n 13567: u64 [a2 + 4294967272] = 0\n 13570: jump @381 if a0 != 0\n      : @450 (gas: 3)\n 13574: a0 = u64 [s1 + 0x88]\n 13578: a1 = t0\n 13580: ra = 450, jump @18\n      : @451 [@dyn 225] (gas: 4)\n 13586: u64 [s1 + 0x68] = a0\n 13589: a1 = 0x20\n 13592: a0 = u64 [s1 + 0x88]\n 13596: ra = 452, jump @18\n      : @452 [@dyn 226] (gas: 33)\n 13602: a2 = s1 + 0x2078\n 13606: u32 [a2 + 8] = 0x20\n 13610: u64 [a2 + 64] = 0xffffffffffffffff\n 13614: u64 [a2 + 56] = 0xffffffffffffffff\n 13618: u64 [a2 + 48] = 0xffffffffffffffff\n 13622: u64 [a2 + 40] = 0xffffffffffffffff\n 13626: a1 = u64 [s1 + 0xd0]\n 13630: a1 = a1 << 0x20\n 13633: a1 = a1 >> 0x20\n 13636: a2 = 0x800000000\n 13646: t0 = a1 | a2\n 13649: a1 = s1 + 0x2060\n 13653: a1 = a1 << 0x20\n 13656: a1 = a1 >> 0x20\n 13659: a2 = s1 + 0x20a0\n 13663: a2 = a2 << 0x20\n 13666: a3 = a2 | a1\n 13669: a1 = u64 [s1 + 0x68]\n 13672: a1 = a1 << 0x20\n 13675: a1 = a1 >> 0x20\n 13678: a4 = u64 [s1 + 0x90]\n 13682: a4 = a4 << 0x20\n 13685: a4 = a4 | a1\n 13688: a0 = a0 << 0x20\n 13691: a0 = a0 >> 0x20\n 13694: a1 = s1 + 0x2080\n 13698: a1 = a1 << 0x20\n 13701: a5 = a1 | a0\n 13704: a1 = 0xffffffffffffffff\n 13707: a2 = 0xffffffffffffffff\n 13710: a0 = t0\n 13712: ecalli 1 // 'call'\n 13714: fallthrough\n      : @453 (gas: 1)\n 13715: jump @455 if a0 == 0\n      : @454 (gas: 1)\n 13718: jump @624\n      : @455 (gas: 2)\n 13721: ecalli 12 // 'return_data_size'\n 13723: fallthrough\n      : @456 (gas: 2)\n 13724: a1 = 0x20\n 13727: jump @458 if a0 >=u a1\n      : @457 (gas: 3)\n 13730: ecalli 12 // 'return_data_size'\n 13732: a1 = a0\n 13734: fallthrough\n      : @458 (gas: 18)\n 13735: a2 = s1 + 0x1078\n 13739: t0 = u64 [s1 + 0x88]\n 13743: a4 = u64 [s1 + 0x80]\n 13747: a5 = u64 [s1 + 0x78]\n 13750: a3 = u64 [s1 + 0x70]\n 13753: u64 [s1 + 0x68] = a1\n 13756: u64 [s1 + 144] = 0\n 13760: u64 [a2 + 0x208] = a1\n 13764: u64 [a2 + 0x228] = t0\n 13768: u64 [a2 + 528] = 0\n 13772: u64 [a2 + 0x230] = a4\n 13776: u64 [a2 + 536] = 0\n 13780: u64 [a2 + 0x238] = a5\n 13784: u64 [a2 + 544] = 0\n 13788: a0 = s1 + 0x12a0\n 13792: a1 = s1 + 0x1280\n 13796: u64 [a2 + 0x240] = a3\n 13800: ra = 454, jump @799\n      : @459 [@dyn 227] (gas: 35)\n 13806: t0 = u64 [s1 + 0x88]\n 13810: a0 = u64 [s1 + 0x68]\n 13813: ra = a0 + t0\n 13816: a1 = ra <u a0\n 13819: t1 = u64 [s1 + 0x80]\n 13823: a5 = u64 [s1 + 0x90]\n 13827: a2 = a5 + t1\n 13830: a2 = a2 + a1\n 13833: a3 = a2 ^ a5\n 13836: a4 = a2 <u a5\n 13839: a4 = a1 if a3 == 0\n 13842: a3 = u64 [s1 + 0x78]\n 13845: a1 = a5 + a3\n 13848: a4 = a4 + a1\n 13851: t2 = a4 <u a1\n 13854: a1 = a1 <u a5\n 13857: a0 = u64 [s1 + 0x70]\n 13860: a5 = a5 + a0\n 13863: a1 = a1 + a5\n 13866: t2 = t2 + a1\n 13869: a1 = s1 + 0x1078\n 13873: a5 = a1 + 0x100\n 13877: u64 [a5 + 0xb8] = a4\n 13881: u64 [a5 + 0xb0] = a2\n 13885: u64 [a1 + 0x1a8] = ra\n 13889: u64 [a5 + 0xe0] = a0\n 13893: u64 [a5 + 0xd8] = a3\n 13897: u64 [a1 + 0x1d0] = t1\n 13901: u64 [a1 + 0x1c8] = t0\n 13905: a3 = a1\n 13907: a0 = s1 + 0x1260\n 13911: a1 = s1 + 0x1240\n 13915: a2 = s1 + 0x1220\n 13919: u64 [a3 + 0x1c0] = t2\n 13923: ra = 456, jump @809\n      : @460 [@dyn 228] (gas: 7)\n 13929: a0 = sp + 0xffffffffffffffe0\n 13932: a0 = a0 & 0xffffffffffffffe0\n 13935: u64 [s1 + 0x90] = a0\n 13939: sp = a0\n 13941: a0 = s1 + 0x1200\n 13945: a1 = u64 [s1 + 0xd8]\n 13949: ra = 458, jump @11\n      : @461 [@dyn 229] (gas: 22)\n 13955: a5 = s1 + 0x1078\n 13959: a3 = u64 [a5 + 0x188]\n 13963: a0 = u64 [a5 + 0x190]\n 13967: a1 = u64 [a5 + 0x198]\n 13971: a2 = u64 [a5 + 0x1a0]\n 13975: a4 = u64 [s1 + 0xc0]\n 13979: u64 [a5 + 0x140] = a4\n 13983: a4 = u64 [s1 + 0xb8]\n 13987: u64 [a5 + 0x138] = a4\n 13991: a4 = u64 [s1 + 0xb0]\n 13995: u64 [a5 + 0x130] = a4\n 13999: a4 = u64 [s1 + 0xa8]\n 14003: u64 [a5 + 0x128] = a4\n 14007: a4 = a5 + 0x100\n 14011: u64 [a4 + 0x60] = a2\n 14014: u64 [a4 + 0x58] = a1\n 14017: u64 [a4 + 0x50] = a0\n 14020: a0 = s1 + 0x11e0\n 14024: a1 = s1 + 0x11c0\n 14028: a2 = s1 + 0x11a0\n 14032: u64 [a4 + 0x48] = a3\n 14035: ra = 460, jump @782\n      : @462 [@dyn 230] (gas: 17)\n 14041: a0 = s1 + 0x1078\n 14045: a1 = a0 + 0x100\n 14049: a2 = u64 [a1 + 0x78]\n 14052: u64 [s1 + 0x88] = a2\n 14056: a4 = u64 [a1 + 0x80]\n 14060: u64 [s1 + 0x78] = a4\n 14063: a3 = u64 [a1 + 0x68]\n 14066: u64 [s1 + 0x80] = a3\n 14070: a0 = u64 [a1 + 0x70]\n 14073: u64 [s1 + 0x70] = a0\n 14076: a1 = u64 [s1 + 0x90]\n 14080: u64 [a1 + 0x10] = a2\n 14083: u64 [a1 + 0x18] = a4\n 14086: u64 [a1] = a3\n 14088: u64 [a1 + 0x8] = a0\n 14091: a0 = u64 [s1 + 0xd8]\n 14095: ra = 462, jump @12\n      : @463 [@dyn 231] (gas: 8)\n 14101: a0 = u64 [s1 + 0x78]\n 14104: a1 = u64 [s1 + 0x70]\n 14107: a0 = a0 | a1\n 14110: a1 = u64 [s1 + 0x88]\n 14114: a2 = u64 [s1 + 0x80]\n 14118: a1 = a1 | a2\n 14121: a0 = a0 | a1\n 14124: jump @466 if a0 != 0\n      : @464 (gas: 3)\n 14127: a0 = s1 + 0x1180\n 14131: a1 = u64 [s1 + 0xc8]\n 14135: ra = 464, jump @11\n      : @465 [@dyn 232] (gas: 15)\n 14141: a3 = s1 + 0x1078\n 14145: a4 = a3 + 0x100\n 14149: a0 = u64 [a4 + 0x8]\n 14152: a1 = u64 [a4 + 0x20]\n 14155: a2 = u64 [a4 + 0x18]\n 14158: a3 = u64 [a4 + 0x10]\n 14161: a0 = a0 & 0xffffffffffffff00\n 14165: a4 = s1 + 0x2078\n 14169: u64 [a4 + 0x80] = a1\n 14173: u64 [a4 + 0x78] = a2\n 14176: u64 [a4 + 0x70] = a3\n 14179: u64 [a4 + 0x68] = a0\n 14182: a1 = s1 + 0x20e0\n 14186: a0 = u64 [s1 + 0xc8]\n 14190: ra = 466, jump @12\n      : @466 [@dyn 233] (gas: 3)\n 14196: a0 = s1 + 0x1160\n 14200: a1 = 0x40\n 14203: ra = 468, jump @7\n      : @467 [@dyn 234] (gas: 6)\n 14209: a3 = s1 + 0x1078\n 14213: a0 = u64 [a3 + 0x100]\n 14217: a1 = u64 [a3 + 0xf8]\n 14221: a2 = u64 [a3 + 0xf0]\n 14225: a4 = u64 [a3 + 0xe8]\n 14229: t0 = 470, jump @908\n      : @468 [@dyn 235] (gas: 1)\n 14235: jump @381 if a0 != 0\n      : @469 (gas: 12)\n 14239: a0 = u64 [s1 + 0xa8]\n 14243: u64 [a3 + 0xc8] = a0\n 14247: a0 = u64 [s1 + 0xb0]\n 14251: u64 [a3 + 0xd0] = a0\n 14255: a0 = u64 [s1 + 0xb8]\n 14259: u64 [a3 + 0xd8] = a0\n 14263: a1 = s1 + 0x1140\n 14267: a0 = u64 [s1 + 0xc0]\n 14271: u64 [a3 + 0xe0] = a0\n 14275: a0 = a4\n 14277: u64 [s1 + 0xd8] = a4\n 14281: ra = 472, jump @9\n      : @470 [@dyn 236] (gas: 6)\n 14287: a0 = u64 [s1 + 0xa0]\n 14291: ra = 0x1da\n 14295: ecalli 5 // 'caller'\n 14297: a2 = u64 [s1 + 0xd0]\n 14301: t0 = 0x1dc\n 14305: jump @896\n      : @471 [@dyn 237] (gas: 2)\n 14308: a2 = u64 [s1 + 0xd0]\n 14312: t0 = 476, jump @896\n      : @472 [@dyn 238] (gas: 24)\n 14318: t0 = a1 | a0\n 14321: a3 = a3 >> 0x20\n 14324: a2 = reverse a2\n 14326: a1 = a2 << 0x20\n 14329: a1 = a1 | a3\n 14332: a2 = a2 >> 0x20\n 14335: a3 = u64 [0x200a0]\n 14340: a0 = s1 + 0x1078\n 14344: u64 [a0 + 0xc0] = a3\n 14348: a3 = u64 [0x200a8]\n 14353: a4 = u64 [0x200b0]\n 14358: a5 = u64 [0x200b8]\n 14363: u64 [a0 + 0xb8] = a3\n 14367: u64 [a0 + 0xb0] = a4\n 14371: u64 [a0 + 160] = 0\n 14375: u64 [a0 + 0xa8] = a5\n 14379: u64 [a0 + 0x98] = a2\n 14383: u64 [a0 + 0x90] = a1\n 14387: a1 = 0x20\n 14390: a2 = s1 + 0x1120\n 14394: a3 = s1 + 0x1100\n 14398: u64 [a0 + 0x88] = t0\n 14402: a0 = u64 [s1 + 0xd8]\n 14406: ra = 478, jump @13\n      : @473 [@dyn 239] (gas: 5)\n 14412: a0 = 0\n 14414: a1 = u64 [s1 + 0x98]\n 14418: a2 = 0\n 14420: ecalli 13 // 'seal_return'\n 14422: jump @714\n      : @474 (gas: 5)\n 14425: a0 = u64 [s1 + 0xb0]\n 14429: ra = 0x1e0\n 14433: ecalli 5 // 'caller'\n 14435: t0 = 0x1e2\n 14439: jump @894\n      : @475 [@dyn 240] (gas: 1)\n 14442: t0 = 482, jump @894\n      : @476 [@dyn 241] (gas: 7)\n 14448: u64 [s1 + 1400] = 0\n 14452: u64 [s1 + 0x570] = a1\n 14456: u64 [s1 + 0x568] = a0\n 14460: a1 = s1 + 0x560\n 14464: u64 [s1 + 0x560] = a3\n 14468: a0 = 0\n 14470: ra = 484, jump @9\n      : @477 [@dyn 242] (gas: 7)\n 14476: u64 [s1 + 1368] = 0\n 14480: u64 [s1 + 1360] = 0\n 14484: u64 [s1 + 1344] = 0x2\n 14489: a0 = 0x20\n 14492: a1 = s1 + 0x540\n 14496: u64 [s1 + 1352] = 0\n 14500: ra = 486, jump @9\n      : @478 [@dyn 243] (gas: 7)\n 14506: a0 = sp + 0xffffffffffffffe0\n 14509: a0 = a0 & 0xffffffffffffffe0\n 14512: u64 [s1 + 0xa8] = a0\n 14516: sp = a0\n 14518: a2 = u64 [s1 + 0x98]\n 14522: a0 = i32 [a2]\n 14524: jump @480 if a0 >u 63\n      : @479 (gas: 2)\n 14528: u32 [a2 + 0] = 0x40\n 14531: fallthrough\n      : @480 (gas: 12)\n 14532: a0 = sp + 0xffffffffffffffe0\n 14535: a0 = a0 & 0xffffffffffffffe0\n 14538: u64 [s1 + 0x98] = a0\n 14542: sp = a0\n 14544: i32 a2 = a0 + 0\n 14546: a1 = 0x40\n 14549: a0 = u64 [s1 + 0xa0]\n 14553: ra = 0x1e8\n 14557: ecalli 9 // 'hash_keccak_256'\n 14559: a3 = u64 [s1 + 0x98]\n 14563: t0 = 0x1ea\n 14567: jump @916\n      : @481 [@dyn 244] (gas: 2)\n 14570: a3 = u64 [s1 + 0x98]\n 14574: t0 = 490, jump @916\n      : @482 [@dyn 245] (gas: 7)\n 14580: a1 = u64 [s1 + 0xa8]\n 14584: u64 [a1 + 0x18] = a3\n 14587: u64 [a1 + 0x10] = a2\n 14590: u64 [a1 + 0x8] = a4\n 14593: u64 [a1] = a0\n 14595: a0 = s1 + 0x520\n 14599: ra = 492, jump @11\n      : @483 [@dyn 246] (gas: 20)\n 14605: a3 = u64 [s1 + 0x520]\n 14609: a0 = u64 [s1 + 0x528]\n 14613: a1 = u64 [s1 + 0x530]\n 14617: a2 = u64 [s1 + 0x538]\n 14621: a4 = u64 [s1 + 0xd0]\n 14625: u64 [s1 + 0x4d8] = a4\n 14629: a4 = u64 [s1 + 0xc8]\n 14633: u64 [s1 + 0x4d0] = a4\n 14637: a4 = u64 [s1 + 0xc0]\n 14641: u64 [s1 + 0x4c8] = a4\n 14645: a4 = u64 [s1 + 0xb8]\n 14649: u64 [s1 + 0x4c0] = a4\n 14653: u64 [s1 + 0x4f8] = a2\n 14657: u64 [s1 + 0x4f0] = a1\n 14661: u64 [s1 + 0x4e8] = a0\n 14665: a0 = s1 + 0x500\n 14669: a1 = s1 + 0x4e0\n 14673: a2 = s1 + 0x4c0\n 14677: u64 [s1 + 0x4e0] = a3\n 14681: ra = 494, jump @782\n      : @484 [@dyn 247] (gas: 14)\n 14687: a4 = s1 + 0x500\n 14691: a0 = u64 [a4 + 0x18]\n 14694: a1 = u64 [a4 + 0x10]\n 14697: a2 = u64 [a4 + 0x8]\n 14700: a3 = u64 [a4]\n 14702: a4 = s1 + 0x1878\n 14706: u64 [a4 + 0x400] = a0\n 14710: a0 = a4 + 0x300\n 14714: u64 [a0 + 0xf8] = a1\n 14718: u64 [a0 + 0xf0] = a2\n 14722: u64 [a0 + 0xe8] = a3\n 14726: a1 = s1 + 0x1c60\n 14730: a0 = u64 [s1 + 0xa8]\n 14734: ra = 496, jump @12\n      : @485 [@dyn 248] (gas: 3)\n 14740: a0 = s1 + 0x4a0\n 14744: a1 = 0x40\n 14747: ra = 498, jump @7\n      : @486 [@dyn 249] (gas: 13)\n 14753: a1 = s1 + 0x400\n 14757: a5 = u64 [a1 + 0xb8]\n 14761: a4 = u64 [a1 + 0xb0]\n 14765: a3 = u64 [a1 + 0xa8]\n 14769: a0 = u64 [a1 + 0xa0]\n 14773: a2 = a3 | a5\n 14776: a1 = a0 | a4\n 14779: a1 = a1 | a2\n 14782: a1 = a1 >> 0x20\n 14785: a2 = a2 | a4\n 14788: a2 = a2 << 0x20\n 14791: a1 = a1 | a2\n 14794: jump @381 if a1 != 0\n      : @487 (gas: 11)\n 14798: u64 [s1 + 1168] = 0\n 14802: u64 [s1 + 1160] = 0\n 14806: u64 [s1 + 1152] = 0\n 14810: a2 = 0xa9059cbb00000000\n 14820: a1 = s1 + 0x480\n 14824: u64 [s1 + 0x498] = a2\n 14828: u64 [s1 + 0xa8] = a0\n 14832: u64 [s1 + 0x98] = a3\n 14836: u64 [s1 + 0x90] = a4\n 14840: u64 [s1 + 0x88] = a5\n 14844: ra = 500, jump @9\n      : @488 [@dyn 250] (gas: 49)\n 14850: a0 = u64 [s1 + 0xb0]\n 14854: ecalli 5 // 'caller'\n 14856: a2 = u64 [s1 + 0xd8]\n 14860: a0 = u64 [a2 + 0x8]\n 14863: a1 = i32 [a2 + 0x10]\n 14866: a2 = u64 [a2]\n 14868: a0 = reverse a0\n 14870: a3 = a0 << 0x20\n 14873: a1 = reverse a1\n 14875: a1 = a1 >> 0x20\n 14878: t0 = a1 | a3\n 14881: a0 = a0 >> 0x20\n 14884: a1 = reverse a2\n 14886: a2 = a1 << 0x20\n 14889: t1 = a2 | a0\n 14892: a1 = a1 >> 0x20\n 14895: a0 = u64 [s1 + 0xa8]\n 14899: a2 = a0 + 0x4\n 14902: a3 = a2 <u a0\n 14905: a0 = u64 [s1 + 0x98]\n 14909: a5 = a0 + a3\n 14912: a4 = a5 <u a0\n 14915: a4 = a3 if a3 == 0\n 14918: a0 = u64 [s1 + 0x90]\n 14922: a4 = a4 + a0\n 14925: a3 = a4 <u a0\n 14928: a0 = u64 [s1 + 0x88]\n 14932: a3 = a3 + a0\n 14935: a0 = u64 [s1 + 0xd0]\n 14939: u64 [s1 + 0x418] = a0\n 14943: a0 = u64 [s1 + 0xc8]\n 14947: u64 [s1 + 0x410] = a0\n 14951: a0 = u64 [s1 + 0xc0]\n 14955: u64 [s1 + 0x408] = a0\n 14959: a0 = u64 [s1 + 0xb8]\n 14963: u64 [s1 + 0x400] = a0\n 14967: u64 [s1 + 1080] = 0\n 14971: u64 [s1 + 0x458] = a3\n 14975: u64 [s1 + 0x450] = a4\n 14979: u64 [s1 + 0x448] = a5\n 14983: u64 [s1 + 0x440] = a2\n 14987: u64 [s1 + 0x430] = a1\n 14991: u64 [s1 + 0x428] = t1\n 14995: a0 = s1 + 0x460\n 14999: a1 = s1 + 0x440\n 15003: a2 = s1 + 0x420\n 15007: a3 = s1 + 0x400\n 15011: u64 [s1 + 0x420] = t0\n 15015: ra = 502, jump @818\n      : @489 [@dyn 251] (gas: 16)\n 15021: a0 = u64 [s1 + 0x468]\n 15025: t0 = u64 [s1 + 0x478]\n 15029: t1 = u64 [s1 + 0x460]\n 15033: a3 = u64 [s1 + 0x470]\n 15037: a1 = u64 [s1 + 0x98]\n 15041: a4 = a0 ^ a1\n 15044: a5 = a0 <u a1\n 15047: ra = u64 [s1 + 0xa8]\n 15051: t2 = t1 <u ra\n 15054: a5 = t2 if a4 == 0\n 15057: a2 = u64 [s1 + 0x90]\n 15061: a4 = a3 - a2\n 15064: a3 = a3 <u a2\n 15067: a2 = u64 [s1 + 0x88]\n 15071: a2 = t0 - a2\n 15074: t0 = 504, jump @912\n      : @490 [@dyn 252] (gas: 2)\n 15080: u64 [s1 + 0x80] = a0\n 15084: ra = 506, jump @0\n      : @491 [@dyn 253] (gas: 10)\n 15090: a1 = u64 [0x301f0]\n 15095: u64 [s1 + 0x60] = a1\n 15098: a1 = u64 [0x30200]\n 15103: u64 [s1 + 0x58] = a1\n 15106: a0 = u64 [0x301f8]\n 15111: u64 [s1 + 0x50] = a0\n 15114: ra = 0x1fc\n 15118: ecalli 10 // 'ref_time_left'\n 15120: t0 = 0x1fe\n 15124: jump @900\n      : @492 [@dyn 254] (gas: 1)\n 15127: t0 = 510, jump @900\n      : @493 [@dyn 255] (gas: 19)\n 15133: i32 a0 = a0 + 0xfffffffffffff878\n 15137: a2 = s1 + a0\n 15140: u64 [a2 + 1056] = 0\n 15144: u64 [a2 + 1048] = 0\n 15148: u64 [a2 + 1040] = 0\n 15152: a0 = u64 [s1 + 0x80]\n 15156: t0 = a0\n 15158: a5 = u64 [s1 + 0x70]\n 15161: a0 = a0 | a5\n 15164: a1 = u64 [s1 + 0x78]\n 15167: a4 = u64 [s1 + 0x68]\n 15170: a1 = a1 | a4\n 15173: a0 = a0 | a1\n 15176: a0 = a0 >> 0x20\n 15179: a1 = a1 | a5\n 15182: a1 = a1 << 0x20\n 15185: a0 = a0 | a1\n 15188: u64 [a2 + 1032] = 0\n 15192: jump @495 if a0 == 0\n      : @494 (gas: 1)\n 15195: jump @381\n      : @495 (gas: 3)\n 15198: a0 = u64 [s1 + 0xa8]\n 15202: a1 = t0\n 15204: ra = 512, jump @18\n      : @496 [@dyn 256] (gas: 4)\n 15210: u64 [s1 + 0x78] = a0\n 15213: a1 = 0x20\n 15216: a0 = u64 [s1 + 0xa8]\n 15220: ra = 514, jump @18\n      : @497 [@dyn 257] (gas: 34)\n 15226: a2 = s1 + 0x1878\n 15230: a3 = a2 + 0x400\n 15234: u32 [a3 + 40] = 0x20\n 15238: u64 [a3 + 96] = 0xffffffffffffffff\n 15242: u64 [a3 + 88] = 0xffffffffffffffff\n 15246: u64 [a3 + 80] = 0xffffffffffffffff\n 15250: u64 [a3 + 72] = 0xffffffffffffffff\n 15254: a1 = u64 [s1 + 0xd8]\n 15258: a1 = a1 << 0x20\n 15261: a1 = a1 >> 0x20\n 15264: a2 = 0x800000000\n 15274: t0 = a1 | a2\n 15277: a1 = s1 + 0x1c80\n 15281: a1 = a1 << 0x20\n 15284: a1 = a1 >> 0x20\n 15287: a2 = s1 + 0x1cc0\n 15291: a2 = a2 << 0x20\n 15294: a3 = a2 | a1\n 15297: a1 = u64 [s1 + 0x78]\n 15300: a1 = a1 << 0x20\n 15303: a1 = a1 >> 0x20\n 15306: a4 = u64 [s1 + 0x80]\n 15310: a4 = a4 << 0x20\n 15313: a4 = a4 | a1\n 15316: a0 = a0 << 0x20\n 15319: a0 = a0 >> 0x20\n 15322: a1 = s1 + 0x1ca0\n 15326: a1 = a1 << 0x20\n 15329: a5 = a1 | a0\n 15332: a1 = 0xffffffffffffffff\n 15335: a2 = 0xffffffffffffffff\n 15338: a0 = t0\n 15340: ecalli 1 // 'call'\n 15342: fallthrough\n      : @498 (gas: 1)\n 15343: jump @500 if a0 == 0\n      : @499 (gas: 1)\n 15346: jump @634\n      : @500 (gas: 2)\n 15349: ecalli 12 // 'return_data_size'\n 15351: fallthrough\n      : @501 (gas: 2)\n 15352: a1 = 0x20\n 15355: jump @503 if a0 >=u a1\n      : @502 (gas: 3)\n 15358: ecalli 12 // 'return_data_size'\n 15360: a1 = a0\n 15362: fallthrough\n      : @503 (gas: 17)\n 15363: a2 = u64 [s1 + 0xa8]\n 15367: a3 = u64 [s1 + 0x98]\n 15371: a4 = u64 [s1 + 0x90]\n 15375: a5 = u64 [s1 + 0x88]\n 15379: u64 [s1 + 0x78] = a1\n 15382: u64 [s1 + 128] = 0\n 15386: u64 [s1 + 0x3a0] = a1\n 15390: u64 [s1 + 0x3c0] = a2\n 15394: u64 [s1 + 936] = 0\n 15398: u64 [s1 + 0x3c8] = a3\n 15402: u64 [s1 + 944] = 0\n 15406: u64 [s1 + 0x3d0] = a4\n 15410: u64 [s1 + 952] = 0\n 15414: a0 = s1 + 0x3c0\n 15418: a1 = s1 + 0x3a0\n 15422: u64 [s1 + 0x3d8] = a5\n 15426: ra = 516, jump @799\n      : @504 [@dyn 258] (gas: 32)\n 15432: t0 = u64 [s1 + 0xa8]\n 15436: a0 = u64 [s1 + 0x78]\n 15439: ra = a0 + t0\n 15442: a1 = ra <u a0\n 15445: t1 = u64 [s1 + 0x98]\n 15449: a5 = u64 [s1 + 0x80]\n 15453: a2 = a5 + t1\n 15456: a2 = a2 + a1\n 15459: a3 = a2 ^ a5\n 15462: a4 = a2 <u a5\n 15465: a4 = a1 if a3 == 0\n 15468: a3 = u64 [s1 + 0x90]\n 15472: a1 = a5 + a3\n 15475: a4 = a4 + a1\n 15478: t2 = a4 <u a1\n 15481: a1 = a1 <u a5\n 15484: a0 = u64 [s1 + 0x88]\n 15488: a5 = a5 + a0\n 15491: a1 = a1 + a5\n 15494: t2 = t2 + a1\n 15497: u64 [s1 + 0x350] = a4\n 15501: u64 [s1 + 0x348] = a2\n 15505: u64 [s1 + 0x340] = ra\n 15509: u64 [s1 + 0x378] = a0\n 15513: u64 [s1 + 0x370] = a3\n 15517: u64 [s1 + 0x368] = t1\n 15521: u64 [s1 + 0x360] = t0\n 15525: a0 = s1 + 0x380\n 15529: a1 = s1 + 0x360\n 15533: a2 = s1 + 0x340\n 15537: u64 [s1 + 0x358] = t2\n 15541: ra = 518, jump @809\n      : @505 [@dyn 259] (gas: 3)\n 15547: a0 = s1 + 0x320\n 15551: a1 = 0x40\n 15554: ra = 520, jump @7\n      : @506 [@dyn 260] (gas: 13)\n 15560: a4 = s1 + 0x300\n 15564: a0 = u64 [a4 + 0x38]\n 15567: a1 = u64 [a4 + 0x30]\n 15570: a2 = u64 [a4 + 0x28]\n 15573: a3 = u64 [a4 + 0x20]\n 15576: a0 = a0 | a2\n 15579: a2 = a3 | a1\n 15582: a2 = a2 | a0\n 15585: a2 = a2 >> 0x20\n 15588: a0 = a0 | a1\n 15591: a0 = a0 << 0x20\n 15594: a0 = a0 | a2\n 15597: jump @508 if a0 == 0\n      : @507 (gas: 1)\n 15600: jump @381\n      : @508 (gas: 13)\n 15603: a0 = u64 [s1 + 0xb8]\n 15607: a2 = s1 + 0x300\n 15611: u64 [a2] = a0\n 15613: a0 = u64 [s1 + 0xc0]\n 15617: u64 [a2 + 0x8] = a0\n 15620: a0 = u64 [s1 + 0xc8]\n 15624: u64 [a2 + 0x10] = a0\n 15627: a1 = s1 + 0x300\n 15631: a0 = u64 [s1 + 0xd0]\n 15635: u64 [a2 + 0x18] = a0\n 15638: a0 = a3\n 15640: u64 [s1 + 0xd0] = a3\n 15644: ra = 522, jump @9\n      : @509 [@dyn 261] (gas: 6)\n 15650: a0 = u64 [s1 + 0xb0]\n 15654: ra = 0x20c\n 15658: ecalli 5 // 'caller'\n 15660: a2 = u64 [s1 + 0xd8]\n 15664: t0 = 0x20e\n 15668: jump @896\n      : @510 [@dyn 262] (gas: 2)\n 15671: a2 = u64 [s1 + 0xd8]\n 15675: t0 = 526, jump @896\n      : @511 [@dyn 263] (gas: 24)\n 15681: t0 = a1 | a0\n 15684: a3 = a3 >> 0x20\n 15687: a2 = reverse a2\n 15689: a1 = a2 << 0x20\n 15692: a1 = a1 | a3\n 15695: a2 = a2 >> 0x20\n 15698: u64 [s1 + 728] = 0\n 15702: a3 = u64 [0x20140]\n 15707: a4 = u64 [0x20148]\n 15712: a5 = u64 [0x20150]\n 15717: a0 = u64 [0x20158]\n 15722: u64 [s1 + 0x2f8] = a3\n 15726: a3 = s1 + 0x200\n 15730: u64 [a3 + 0xf0] = a4\n 15734: u64 [a3 + 0xe8] = a5\n 15738: u64 [a3 + 0xe0] = a0\n 15742: u64 [a3 + 0xd0] = a2\n 15746: u64 [a3 + 0xc8] = a1\n 15750: a1 = 0x20\n 15753: a2 = s1 + 0x2e0\n 15757: a3 = s1 + 0x2c0\n 15761: u64 [s1 + 0x2c0] = t0\n 15765: a0 = u64 [s1 + 0xd0]\n 15769: ra = 528, jump @13\n      : @512 [@dyn 264] (gas: 5)\n 15775: a0 = 0\n 15777: a1 = u64 [s1 + 0xa0]\n 15781: a2 = 0\n 15783: ecalli 13 // 'seal_return'\n 15785: jump @714\n      : @513 (gas: 3)\n 15788: a0 = s1 + 0x16a0\n 15792: a1 = 0x40\n 15795: ra = 530, jump @7\n      : @514 [@dyn 265] (gas: 14)\n 15801: a0 = s1 + 0x1078\n 15805: a2 = a0 + 0x600\n 15809: a1 = u64 [a2 + 0x40]\n 15812: u64 [s1 + 0xd0] = a1\n 15816: a1 = u64 [a2 + 0x38]\n 15819: u64 [s1 + 0xc8] = a1\n 15823: a1 = u64 [a2 + 0x30]\n 15826: u64 [s1 + 0xc0] = a1\n 15830: a0 = u64 [a2 + 0x28]\n 15833: u64 [s1 + 0xd8] = a0\n 15837: ra = 0x214\n 15841: ecalli 12 // 'return_data_size'\n 15843: t0 = 0x216\n 15847: jump @899\n      : @515 [@dyn 266] (gas: 1)\n 15850: t0 = 534, jump @899\n      : @516 [@dyn 267] (gas: 1)\n 15856: jump @518 if a1 == 0\n      : @517 (gas: 1)\n 15859: jump @381\n      : @518 (gas: 3)\n 15862: a2 = a0\n 15864: a0 = a0 >> 0x20\n 15867: jump @520 if a0 == 0\n      : @519 (gas: 1)\n 15870: jump @381\n      : @520 (gas: 1)\n 15873: t0 = 536, jump @919\n      : @521 [@dyn 268] (gas: 1)\n 15879: ra = 538, jump @18\n      : @522 [@dyn 269] (gas: 11)\n 15885: a1 = s1 + 0x2078\n 15889: a2 = u64 [s1 + 0xc8]\n 15893: u32 [a1 + 0x1a8] = a2\n 15897: i32 a0 = a0 + 0\n 15899: a1 = s1 + 0x2000\n 15903: i32 a1 = a1 + 0x220\n 15907: a2 = 0\n 15909: ecalli 11 // 'return_data_copy'\n 15911: a0 = s1 + 0x2078\n 15915: a0 = i32 [a0 + 0x1a8]\n 15919: fallthrough\n      : @523 (gas: 2)\n 15920: a1 = u64 [s1 + 0xd0]\n 15924: jump @525 if a0 >=u a1\n      : @524 (gas: 1)\n 15927: jump @381\n      : @525 (gas: 2)\n 15930: ecalli 12 // 'return_data_size'\n 15932: fallthrough\n      : @526 (gas: 3)\n 15933: a1 = a0\n 15935: a0 = a0 >> 0x20\n 15938: jump @528 if a0 == 0\n      : @527 (gas: 1)\n 15941: jump @381\n      : @528 (gas: 3)\n 15944: a0 = u64 [s1 + 0xd8]\n 15948: u64 [s1 + 0xd0] = a1\n 15952: ra = 540, jump @18\n      : @529 [@dyn 270] (gas: 5)\n 15958: i32 a1 = a0 + 0\n 15960: a2 = i32 [s1 + 0xd0]\n 15964: a0 = 0x1\n 15967: ecalli 13 // 'seal_return'\n 15969: fallthrough\n      : @530 (gas: 5)\n 15970: a0 = u64 [s1 + 0xd8]\n 15974: a2 = a0 + 0xffffffffffffff80\n 15977: a0 = u64 [s1 + 0x80]\n 15981: a1 = u64 [s1 + 0x90]\n 15985: ra = 542, jump @921\n      : @531 [@dyn 271] (gas: 6)\n 15991: u64 [s1 + 0x78] = a0\n 15994: u64 [s1 + 0x68] = a1\n 15997: a0 = u64 [s1 + 0x88]\n 16001: a1 = u64 [s1 + 0x98]\n 16005: a2 = u64 [s1 + 0xd8]\n 16009: ra = 544, jump @921\n      : @532 [@dyn 272] (gas: 7)\n 16015: u64 [s1 + 0x20] = a0\n 16018: u64 [s1 + 0x70] = a1\n 16021: a1 = u64 [s1 + 0xd8]\n 16025: a2 = 0x80 - a1\n 16029: a0 = u64 [s1 + 0x80]\n 16033: a1 = u64 [s1 + 0x90]\n 16037: ra = 546, jump @926\n      : @533 [@dyn 273] (gas: 21)\n 16043: a2 = u64 [s1 + 0x70]\n 16046: a1 = a1 | a2\n 16049: a3 = u64 [s1 + 0xd8]\n 16053: a4 = a3 <u 0x80\n 16057: u64 [s1 + 0x70] = a4\n 16060: a2 = u64 [s1 + 0x68]\n 16063: a1 = a2 if a4 == 0\n 16066: a2 = u64 [s1 + 0x98]\n 16070: a2 = a1 if a3 != 0\n 16073: u64 [s1 + 0x98] = a2\n 16077: a1 = u64 [s1 + 0x20]\n 16080: a0 = a0 | a1\n 16083: a1 = u64 [s1 + 0x78]\n 16086: a0 = a1 if a4 == 0\n 16089: a1 = u64 [s1 + 0x88]\n 16093: a1 = a0 if a3 != 0\n 16096: a2 = a3\n 16098: u64 [s1 + 0x88] = a1\n 16102: a0 = u64 [s1 + 0x80]\n 16106: a1 = u64 [s1 + 0x90]\n 16110: ra = 548, jump @921\n      : @534 [@dyn 274] (gas: 9)\n 16116: a5 = 0\n 16118: a2 = u64 [s1 + 0x70]\n 16121: a1 = 0 if a2 == 0\n 16123: a0 = 0 if a2 == 0\n 16125: u64 [s1 + 112] = 0x63\n 16129: u64 [s1 + 104] = 0\n 16132: t2 = u64 [s1 + 0x98]\n 16136: t0 = u64 [s1 + 0x88]\n 16140: fallthrough\n      : @535 (gas: 90)\n 16141: u64 [s1 + 0x88] = a1\n 16145: u64 [s1 + 0x90] = a5\n 16149: u64 [s1 + 120] = 0\n 16152: a2 = t0 >> 0x3f\n 16155: a3 = t2 << 0x1\n 16158: a3 = a3 | a2\n 16161: a2 = t0 << 0x1\n 16164: ra = u64 [s1 + 0xc0]\n 16168: a4 = ra >> 0x3f\n 16171: a4 = a4 | a2\n 16174: u64 [s1 + 0x98] = a4\n 16178: a2 = u64 [s1 + 0x68]\n 16181: a1 = a2 ^ a3\n 16184: u64 [s1 + 0x80] = a1\n 16188: a1 = a2 <u a3\n 16191: a5 = u64 [s1 + 0x70]\n 16194: t0 = a5 <u a4\n 16197: a4 = u64 [s1 + 0x80]\n 16201: t0 = a1 if a4 != 0\n 16204: a1 = u64 [s1 + 0x88]\n 16208: a1 = a1 << 0x1\n 16211: a4 = a0 >> 0x3f\n 16214: a1 = a1 | a4\n 16217: u64 [s1 + 0x88] = a1\n 16221: a4 = t2 >> 0x3f\n 16224: a0 = a0 << 0x1\n 16227: a4 = a4 | a0\n 16230: a0 = ra << 0x1\n 16233: a1 = u64 [s1 + 0xc8]\n 16237: a5 = a1 >> 0x3f\n 16240: a0 = a0 | a5\n 16243: u64 [s1 + 0xc0] = a0\n 16247: a5 = a1 << 0x1\n 16250: a0 = u64 [s1 + 0xb8]\n 16254: a1 = a0 >> 0x3f\n 16257: t2 = a5 | a1\n 16260: a5 = a0 << 0x1\n 16263: a0 = u64 [s1 + 0xd0]\n 16267: ra = a0 >> 0x3f\n 16270: a5 = a5 | ra\n 16273: a0 = a0 << 0x1\n 16276: a1 = u64 [s1 + 0x90]\n 16280: a0 = a0 | a1\n 16283: u64 [s1 + 0xd0] = a0\n 16287: a0 = a5 | 0\n 16289: u64 [s1 + 0xb8] = a0\n 16293: a0 = t2 | 0\n 16295: u64 [s1 + 0xc8] = a0\n 16299: a0 = u64 [s1 + 0xc0]\n 16303: a0 = a0 | 0\n 16305: u64 [s1 + 0xc0] = a0\n 16309: a0 = a2 - a4\n 16312: a0 = a0 <u t0\n 16315: a1 = a2 <u a4\n 16318: t1 = u64 [s1 + 0x88]\n 16322: a5 = a2 - t1\n 16325: a5 = a5 - a1\n 16328: a5 = a5 - a0\n 16331: ra = a5 >>a 0x3f\n 16334: a0 = ra & 0x64\n 16337: a1 = u64 [s1 + 0x98]\n 16341: t0 = a1 - a0\n 16344: a1 = a1 <u a0\n 16347: t2 = a3 - a1\n 16350: a1 = 0 if a3 != 0\n 16352: a0 = a4 - a1\n 16355: a1 = a4 <u a1\n 16358: a1 = t1 - a1\n 16361: a3 = u64 [s1 + 0xd8]\n 16365: a5 = u64 [s1 + 0xb0]\n 16369: a2 = a3 | a5\n 16372: a2 = a2 <u 0x1\n 16375: a4 = u64 [s1 + 0xa0]\n 16379: t1 = a4 <u a2\n 16382: a4 = a4 - a2\n 16385: a2 = a3 <u 0x1\n 16388: a5 = a5 - a2\n 16391: a2 = u64 [s1 + 0xa8]\n 16395: a2 = a2 - t1\n 16398: a3 = a3 + 0xffffffffffffffff\n 16401: u64 [s1 + 0xb0] = a5\n 16405: u64 [s1 + 0xa8] = a2\n 16409: a2 = a2 | a5\n 16412: u64 [s1 + 0xd8] = a3\n 16416: a3 = a3 | a4\n 16419: a2 = a2 | a3\n 16422: a5 = ra & 0x1\n 16425: u64 [s1 + 0xa0] = a4\n 16429: t1 = 0\n 16431: jump @535 if a2 != 0\n      : @536 (gas: 20)\n 16435: a2 = u64 [s1 + 0xc8]\n 16439: a0 = a2 >> 0x3f\n 16442: a1 = u64 [s1 + 0xc0]\n 16446: a1 = a1 << 0x1\n 16449: t0 = a1 | a0\n 16452: a0 = u64 [s1 + 0xb8]\n 16456: a1 = a0 >> 0x3f\n 16459: a2 = a2 << 0x1\n 16462: a2 = a2 | a1\n 16465: a1 = u64 [s1 + 0xd0]\n 16469: a3 = a1 >> 0x3f\n 16472: a0 = a0 << 0x1\n 16475: a1 = a1 << 0x1\n 16478: a4 = a5 | a1\n 16481: a1 = u64 [s1 + 0x78]\n 16484: a5 = a1 | a3\n 16487: a5 = a5 | a0\n 16490: a3 = a1 | a2\n 16493: a2 = a1 | t0\n 16496: fallthrough\n      : @537 (gas: 16)\n 16497: a0 = u64 [s1 + 0x28]\n 16500: a0 = a4 <u a0\n 16503: a4 = u64 [s1 + 0x30]\n 16506: a1 = a4 ^ a5\n 16509: a4 = a5 <u a4\n 16512: a4 = a0 if a1 == 0\n 16515: a0 = u64 [s1 + 0x38]\n 16518: t0 = a3 <u a0\n 16521: a5 = u64 [s1 + 0x40]\n 16524: a1 = a5 ^ a2\n 16527: a2 = a2 <u a5\n 16530: a2 = t0 if a1 == 0\n 16533: a0 = a0 ^ a3\n 16536: a0 = a0 | a1\n 16539: a2 = a4 if a0 == 0\n 16542: jump @556 if a2 == 0\n      : @538 (gas: 4)\n 16546: a0 = s1 + 0x7ff\n 16550: a0 = a0 + 0x161\n 16554: a1 = 0x40\n 16557: ra = 550, jump @7\n      : @539 [@dyn 275] (gas: 15)\n 16563: a2 = s1 + 0x7ff\n 16567: a2 = a2 + 0x61\n 16570: t0 = u64 [a2 + 0x118]\n 16574: a1 = a2 + 0x100\n 16578: a5 = u64 [a1 + 0x10]\n 16581: a4 = u64 [a1 + 0x8]\n 16584: a0 = u64 [a1]\n 16586: a3 = a4 | t0\n 16589: a1 = a0 | a5\n 16592: a1 = a1 | a3\n 16595: a1 = a1 >> 0x20\n 16598: a3 = a3 | a5\n 16601: a3 = a3 << 0x20\n 16604: a1 = a1 | a3\n 16607: jump @541 if a1 == 0\n      : @540 (gas: 1)\n 16610: jump @381\n      : @541 (gas: 12)\n 16613: u64 [a2 + 240] = 0\n 16617: u64 [a2 + 232] = 0\n 16621: u64 [a2 + 224] = 0\n 16625: a3 = 0x8c379a000000000\n 16635: a1 = s1 + 0x7ff\n 16639: a1 = a1 + 0x141\n 16643: u64 [a2 + 0xf8] = a3\n 16647: u64 [s1 + 0xd8] = a0\n 16651: u64 [s1 + 0xd0] = a4\n 16655: u64 [s1 + 0xc0] = t0\n 16659: u64 [s1 + 0xc8] = a5\n 16663: ra = 552, jump @9\n      : @542 [@dyn 276] (gas: 5)\n 16669: a1 = u64 [s1 + 0xd8]\n 16673: a0 = u64 [s1 + 0xc8]\n 16677: a3 = u64 [s1 + 0xc0]\n 16681: a3 = a3 | a0\n 16684: t0 = 554, jump @897\n      : @543 [@dyn 277] (gas: 1)\n 16690: jump @545 if a0 != 0\n      : @544 (gas: 1)\n 16693: jump @381\n      : @545 (gas: 13)\n 16696: i32 a0 = a1 + 0x4\n 16699: a2 = s1 + 0x7ff\n 16703: a2 = a2 + 0x61\n 16706: a5 = 0\n 16708: u64 [a2 + 216] = 0\n 16712: u64 [a2 + 208] = 0\n 16716: u64 [a2 + 192] = 0x20\n 16721: a1 = s1 + 0x7ff\n 16725: a1 = a1 + 0x121\n 16729: u64 [a2 + 200] = 0\n 16733: u64 [s1 + 0xc8] = a3\n 16737: u64 [s1 + 0xc0] = a4\n 16741: ra = 556, jump @9\n      : @546 [@dyn 278] (gas: 1)\n 16747: t0 = 558, jump @901\n      : @547 [@dyn 279] (gas: 1)\n 16753: jump @549 if a0 != 0\n      : @548 (gas: 1)\n 16756: jump @381\n      : @549 (gas: 10)\n 16759: i32 a0 = a1 + 0x24\n 16762: a2 = s1 + 0x7ff\n 16766: a2 = a2 + 0x61\n 16769: u64 [a2 + 184] = 0\n 16773: u64 [a2 + 176] = 0\n 16777: u64 [a2 + 160] = 0x1d\n 16782: a1 = s1 + 0x7ff\n 16786: a1 = a1 + 0x101\n 16790: u64 [a2 + 168] = 0\n 16794: ra = 560, jump @9\n      : @550 [@dyn 280] (gas: 1)\n 16800: t0 = 562, jump @910\n      : @551 [@dyn 281] (gas: 1)\n 16806: jump @553 if a0 != 0\n      : @552 (gas: 1)\n 16809: jump @381\n      : @553 (gas: 14)\n 16812: i32 a0 = a3 + 0x44\n 16815: a1 = u64 [0x20128]\n 16820: a2 = u64 [0x20130]\n 16825: a3 = u64 [0x20138]\n 16830: a4 = s1 + 0x7ff\n 16834: a4 = a4 + 0x61\n 16837: u64 [a4 + 0x98] = a1\n 16841: u64 [a4 + 0x90] = a2\n 16845: u64 [a4 + 0x88] = a3\n 16849: a2 = 0x6c696d6974000000\n 16859: a1 = s1 + 0x7ff\n 16863: a1 = a1 + 0xe1\n 16867: u64 [a4 + 0x80] = a2\n 16871: ra = 564, jump @9\n      : @554 [@dyn 282] (gas: 3)\n 16877: a1 = 0x64\n 16880: a0 = u64 [s1 + 0xd8]\n 16884: ra = 566, jump @18\n      : @555 [@dyn 283] (gas: 5)\n 16890: i32 a1 = a0 + 0\n 16892: a0 = 0x1\n 16895: a2 = 0x64\n 16898: ecalli 13 // 'seal_return'\n 16900: fallthrough\n      : @556 (gas: 5)\n 16901: a0 = u64 [s1 + 0x58]\n 16904: ra = 0x238\n 16908: ecalli 5 // 'caller'\n 16910: t0 = 0x23a\n 16914: jump @895\n      : @557 [@dyn 284] (gas: 1)\n 16917: t0 = 570, jump @895\n      : @558 [@dyn 285] (gas: 9)\n 16923: u64 [a2 + 1240] = 0\n 16927: a4 = a2 + 0x400\n 16931: u64 [a4 + 0xd0] = a1\n 16935: u64 [a4 + 0xc8] = a0\n 16939: a1 = s1 + 0x7ff\n 16943: a1 = a1 + 0x521\n 16947: u64 [a4 + 0xc0] = a3\n 16951: a0 = 0\n 16953: ra = 572, jump @9\n      : @559 [@dyn 286] (gas: 6)\n 16959: a1 = s1 + 0x7ff\n 16963: a1 = a1 + 0x61\n 16966: u64 [a1 + 1208] = 0\n 16970: u64 [a1 + 1200] = 0\n 16974: u64 [a1 + 1184] = 0x2\n 16979: t0 = 574, jump @902\n      : @560 [@dyn 287] (gas: 3)\n 16985: a1 = a1 + 0x501\n 16989: u64 [a2 + 1192] = 0\n 16993: ra = 576, jump @9\n      : @561 [@dyn 288] (gas: 3)\n 16999: a2 = u64 [s1 + 0x48]\n 17002: a0 = i32 [a2]\n 17004: jump @563 if a0 >u 63\n      : @562 (gas: 3)\n 17008: u32 [a2 + 0] = 0x40\n 17011: t0 = 0x242\n 17015: jump @918\n      : @563 (gas: 1)\n 17018: t0 = 578, jump @918\n      : @564 [@dyn 289] (gas: 4)\n 17024: ra = 0x244\n 17028: ecalli 9 // 'hash_keccak_256'\n 17030: t0 = 0x246\n 17034: jump @906\n      : @565 [@dyn 290] (gas: 1)\n 17037: t0 = 582, jump @906\n      : @566 [@dyn 291] (gas: 9)\n 17043: a5 = a4 + 0x600\n 17047: u64 [a5 + 0x40] = a3\n 17050: u64 [a5 + 0x38] = a2\n 17053: u64 [a5 + 0x30] = a1\n 17056: u64 [a5 + 0x28] = a0\n 17059: a0 = s1 + 0x7ff\n 17063: a0 = a0 + 0x4e1\n 17067: a1 = s1 + 0x1ea0\n 17071: ra = 584, jump @11\n      : @567 [@dyn 292] (gas: 15)\n 17077: a1 = s1 + 0x7ff\n 17081: a1 = a1 + 0x61\n 17084: a2 = a1 + 0x400\n 17088: a0 = u64 [a2 + 0x98]\n 17092: u64 [s1 + 0xb8] = a0\n 17096: a0 = u64 [a2 + 0x90]\n 17100: u64 [s1 + 0xb0] = a0\n 17104: a0 = u64 [a2 + 0x88]\n 17108: u64 [s1 + 0xa8] = a0\n 17112: a0 = u64 [a2 + 0x80]\n 17116: u64 [s1 + 0xa0] = a0\n 17120: a0 = s1 + 0x7ff\n 17124: a0 = a0 + 0x4c1\n 17128: a1 = 0x40\n 17131: ra = 586, jump @7\n      : @568 [@dyn 293] (gas: 20)\n 17137: a0 = s1 + 0x7ff\n 17141: a0 = a0 + 0x61\n 17144: a5 = a0 + 0x400\n 17148: a1 = u64 [a5 + 0x78]\n 17151: u64 [s1 + 0xc8] = a1\n 17155: a2 = u64 [a5 + 0x70]\n 17158: u64 [s1 + 0xc0] = a2\n 17162: a4 = u64 [a5 + 0x68]\n 17165: u64 [s1 + 0xd0] = a4\n 17169: a3 = u64 [a5 + 0x60]\n 17172: u64 [s1 + 0xd8] = a3\n 17176: u64 [a5 + 0x58] = a1\n 17179: u64 [a5 + 0x50] = a2\n 17182: u64 [a5 + 0x48] = a4\n 17185: a1 = s1 + 0x7ff\n 17189: a1 = a1 + 0x61\n 17192: a0 = s1 + 0x7ff\n 17196: a0 = a0 + 0x4a1\n 17200: u64 [a1 + 0x440] = a3\n 17204: ra = 588, jump @790\n      : @569 [@dyn 294] (gas: 7)\n 17210: a0 = u64 [s1 + 0xc8]\n 17214: a1 = u64 [s1 + 0xd0]\n 17218: a0 = a0 | a1\n 17221: a1 = u64 [s1 + 0xd8]\n 17225: a3 = a1\n 17227: a2 = u64 [s1 + 0xc0]\n 17231: t0 = 590, jump @914\n      : @570 [@dyn 295] (gas: 1)\n 17237: jump @572 if a0 == 0\n      : @571 (gas: 1)\n 17240: jump @381\n      : @572 (gas: 15)\n 17243: a0 = u64 [s1 + 0x28]\n 17246: a2 = s1 + 0x7ff\n 17250: a2 = a2 + 0x61\n 17253: a4 = a2 + 0x400\n 17257: u64 [a4 + 0x20] = a0\n 17260: a0 = u64 [s1 + 0x30]\n 17263: u64 [a4 + 0x28] = a0\n 17266: a0 = u64 [s1 + 0x38]\n 17269: u64 [a4 + 0x30] = a0\n 17272: a1 = s1 + 0x7ff\n 17276: a1 = a1 + 0x481\n 17280: a0 = u64 [s1 + 0x40]\n 17283: u64 [a4 + 0x38] = a0\n 17286: a0 = a3\n 17288: ra = 592, jump @9\n      : @573 [@dyn 296] (gas: 11)\n 17294: a0 = u64 [s1 + 0xc8]\n 17298: a1 = u64 [s1 + 0xc0]\n 17302: a2 = a1 | a0\n 17305: a3 = 0x100000000\n 17315: a0 = 0xffffffe0\n 17325: a4 = u64 [s1 + 0xd8]\n 17329: a0 = a4 <u a0\n 17332: a1 = u64 [s1 + 0xd0]\n 17336: a0 = 0 if a1 != 0\n 17338: a0 = 0 if a2 != 0\n 17340: jump @575 if a0 != 0\n      : @574 (gas: 1)\n 17343: jump @381\n      : @575 (gas: 18)\n 17346: i32 a0 = a4 + 0x20\n 17349: u64 [s1 + 0xc8] = a2\n 17353: a2 = s1 + 0x7ff\n 17357: a2 = a2 + 0x61\n 17360: u64 [s1 + 0xc0] = a3\n 17364: a3 = u64 [s1 + 0xa0]\n 17368: a4 = a2 + 0x400\n 17372: u64 [a4] = a3\n 17374: a3 = u64 [s1 + 0xa8]\n 17378: u64 [a4 + 0x8] = a3\n 17381: a3 = u64 [s1 + 0xb0]\n 17385: u64 [a4 + 0x10] = a3\n 17388: a1 = s1 + 0x7ff\n 17392: a1 = a1 + 0x461\n 17396: a3 = u64 [s1 + 0xb8]\n 17400: u64 [a4 + 0x18] = a3\n 17403: u64 [s1 + 0xb8] = a0\n 17407: ra = 594, jump @9\n      : @576 [@dyn 297] (gas: 4)\n 17413: a1 = u64 [s1 + 0xd8]\n 17417: a0 = u64 [s1 + 0xc0]\n 17421: a0 = a0 + 0xffffffffffffffc0\n 17424: t0 = 596, jump @913\n      : @577 [@dyn 298] (gas: 1)\n 17430: jump @579 if a0 != 0\n      : @578 (gas: 1)\n 17433: jump @381\n      : @579 (gas: 11)\n 17436: i32 a0 = a1 + 0x40\n 17439: a3 = s1 + 0x7ff\n 17443: a3 = a3 + 0x61\n 17446: u64 [a3 + 1016] = 0\n 17450: u64 [a3 + 1008] = 0\n 17454: u64 [a3 + 1000] = 0\n 17458: a1 = s1 + 0x7ff\n 17462: a1 = a1 + 0x441\n 17466: u64 [a3 + 992] = 0x1\n 17471: u64 [s1 + 0xa0] = a0\n 17475: ra = 598, jump @9\n      : @580 [@dyn 299] (gas: 5)\n 17481: a0 = u64 [s1 + 0x58]\n 17484: ra = 0x258\n 17488: ecalli 5 // 'caller'\n 17490: t0 = 0x25a\n 17494: jump @895\n      : @581 [@dyn 300] (gas: 1)\n 17497: t0 = 602, jump @895\n      : @582 [@dyn 301] (gas: 9)\n 17503: u64 [a2 + 984] = 0\n 17507: a4 = a2 + 0x300\n 17511: u64 [a4 + 0xd0] = a1\n 17515: u64 [a4 + 0xc8] = a0\n 17519: a1 = s1 + 0x7ff\n 17523: a1 = a1 + 0x421\n 17527: u64 [a4 + 0xc0] = a3\n 17531: a0 = 0\n 17533: ra = 604, jump @9\n      : @583 [@dyn 302] (gas: 6)\n 17539: a1 = s1 + 0x7ff\n 17543: a1 = a1 + 0x61\n 17546: u64 [a1 + 952] = 0\n 17550: u64 [a1 + 944] = 0\n 17554: u64 [a1 + 928] = 0x3\n 17559: t0 = 606, jump @902\n      : @584 [@dyn 303] (gas: 3)\n 17565: a1 = a1 + 0x401\n 17569: u64 [a2 + 936] = 0\n 17573: ra = 608, jump @9\n      : @585 [@dyn 304] (gas: 7)\n 17579: a0 = sp + 0xffffffffffffffe0\n 17582: a0 = a0 & 0xffffffffffffffe0\n 17585: u64 [s1 + 0xb0] = a0\n 17589: sp = a0\n 17591: a2 = u64 [s1 + 0x48]\n 17594: a0 = i32 [a2]\n 17596: jump @587 if a0 >u 63\n      : @586 (gas: 2)\n 17600: u32 [a2 + 0] = 0x40\n 17603: fallthrough\n      : @587 (gas: 30)\n 17604: a0 = sp + 0xffffffffffffffe0\n 17607: a0 = a0 & 0xffffffffffffffe0\n 17610: u64 [s1 + 0xd0] = a0\n 17614: sp = a0\n 17616: i32 a2 = a0 + 0\n 17618: a1 = 0x40\n 17621: a0 = u64 [s1 + 0x50]\n 17624: ecalli 9 // 'hash_keccak_256'\n 17626: a3 = u64 [s1 + 0xd0]\n 17630: a0 = u64 [a3 + 0x18]\n 17633: a1 = u64 [a3 + 0x10]\n 17636: a2 = u64 [a3 + 0x8]\n 17639: a3 = u64 [a3]\n 17641: a4 = reverse a0\n 17643: u64 [s1 + 0xc0] = a4\n 17647: a1 = reverse a1\n 17649: u64 [s1 + 0xc8] = a1\n 17653: a2 = reverse a2\n 17655: u64 [s1 + 0xa8] = a2\n 17659: a0 = reverse a3\n 17661: u64 [s1 + 0xd0] = a0\n 17665: a3 = u64 [s1 + 0xb0]\n 17669: u64 [a3 + 0x18] = a0\n 17672: u64 [a3 + 0x10] = a2\n 17675: u64 [a3 + 0x8] = a1\n 17678: u64 [a3] = a4\n 17680: a0 = s1 + 0x7ff\n 17684: a0 = a0 + 0x3e1\n 17688: a1 = u64 [s1 + 0xd8]\n 17692: ra = 610, jump @7\n      : @588 [@dyn 305] (gas: 16)\n 17698: a3 = s1 + 0x7ff\n 17702: a3 = a3 + 0x61\n 17705: a4 = a3 + 0x300\n 17709: a0 = u64 [a4 + 0x98]\n 17713: a1 = u64 [a4 + 0x90]\n 17717: a2 = u64 [a4 + 0x88]\n 17721: a3 = u64 [a4 + 0x80]\n 17725: a4 = s1 + 0x1878\n 17729: a5 = a4 + 0x600\n 17733: u64 [a5 + 0x60] = a0\n 17736: u64 [a5 + 0x58] = a1\n 17739: u64 [a5 + 0x50] = a2\n 17742: u64 [a5 + 0x48] = a3\n 17745: a1 = s1 + 0x1ec0\n 17749: a0 = u64 [s1 + 0xb0]\n 17753: ra = 612, jump @12\n      : @589 [@dyn 306] (gas: 4)\n 17759: a0 = s1 + 0x7ff\n 17763: a0 = a0 + 0x3c1\n 17767: a1 = u64 [s1 + 0xb8]\n 17771: ra = 614, jump @7\n      : @590 [@dyn 307] (gas: 31)\n 17777: a0 = s1 + 0x7ff\n 17781: a0 = a0 + 0x61\n 17784: t0 = u64 [a0 + 0x360]\n 17788: t1 = u64 [a0 + 0x368]\n 17792: t2 = u64 [a0 + 0x370]\n 17796: a3 = u64 [a0 + 0x378]\n 17800: a0 = u64 [s1 + 0xc0]\n 17804: a0 = a0 + 0x1\n 17807: a5 = a0 <u 0x1\n 17810: a1 = u64 [s1 + 0xc8]\n 17814: a5 = a5 + a1\n 17817: a4 = a0 | a5\n 17820: a4 = a4 <u 0x1\n 17823: a1 = u64 [s1 + 0xa8]\n 17827: a4 = a4 + a1\n 17830: a1 = a4 <u a1\n 17833: a2 = u64 [s1 + 0xd0]\n 17837: a1 = a1 + a2\n 17840: a2 = s1 + 0x1878\n 17844: u64 [a2 + 0x680] = a1\n 17848: a1 = a2 + 0x600\n 17852: u64 [a1 + 0x78] = a4\n 17855: u64 [a1 + 0x70] = a5\n 17858: u64 [a1 + 0x68] = a0\n 17861: u64 [a1 + 0xa0] = a3\n 17865: u64 [a2 + 0x698] = t2\n 17869: u64 [a2 + 0x690] = t1\n 17873: u64 [a2 + 0x688] = t0\n 17877: a0 = s1 + 0x1ee0\n 17881: a1 = s1 + 0x1f00\n 17885: ra = 616, jump @12\n      : @591 [@dyn 308] (gas: 8)\n 17891: a0 = sp + 0xffffffffffffffe0\n 17894: a5 = a0 & 0xffffffffffffffe0\n 17897: sp = a5\n 17899: a1 = u64 [s1 + 0xc0]\n 17903: a0 = a1 + 0x2\n 17906: a1 = a0 <u a1\n 17909: a3 = u64 [s1 + 0xc8]\n 17913: t0 = 618, jump @920\n      : @592 [@dyn 309] (gas: 14)\n 17919: a1 = u64 [s1 + 0xa8]\n 17923: a3 = a3 + a1\n 17926: a1 = a3 <u a1\n 17929: a4 = u64 [s1 + 0xd0]\n 17933: a1 = a1 + a4\n 17936: u64 [s1 + 0xd8] = a5\n 17940: u64 [a5 + 0x18] = a1\n 17943: u64 [a5 + 0x10] = a3\n 17946: u64 [a5 + 0x8] = a2\n 17949: u64 [a5] = a0\n 17951: a0 = s1 + 0x7ff\n 17955: a0 = a0 + 0x3a1\n 17959: a1 = u64 [s1 + 0xa0]\n 17963: ra = 620, jump @7\n      : @593 [@dyn 310] (gas: 16)\n 17969: a3 = s1 + 0x7ff\n 17973: a3 = a3 + 0x61\n 17976: a4 = a3 + 0x300\n 17980: a0 = u64 [a4 + 0x50]\n 17983: a1 = u64 [a4 + 0x58]\n 17986: a2 = u64 [a4 + 0x48]\n 17989: a3 = u64 [a4 + 0x40]\n 17992: a1 = a1 | a2\n 17995: a0 = a0 | a3\n 17998: a0 = a0 | a1\n 18001: a0 = a0 >u 0\n 18003: u64 [s1 + 0xd0] = a0\n 18007: a0 = s1 + 0x7ff\n 18011: a0 = a0 + 0x381\n 18015: a1 = u64 [s1 + 0xd8]\n 18019: ra = 622, jump @11\n      : @594 [@dyn 311] (gas: 19)\n 18025: a3 = s1 + 0x7ff\n 18029: a3 = a3 + 0x61\n 18032: a4 = a3 + 0x300\n 18036: a0 = u64 [a4 + 0x20]\n 18039: a1 = u64 [a4 + 0x28]\n 18042: a2 = u64 [a4 + 0x38]\n 18045: a3 = u64 [a4 + 0x30]\n 18048: a0 = a0 & 0xffffffffffffff00\n 18052: a4 = u64 [s1 + 0xd0]\n 18056: a0 = a0 | a4\n 18059: a4 = s1 + 0x1878\n 18063: a5 = a4 + 0x600\n 18067: u64 [a5 + 0xc0] = a2\n 18071: u64 [a5 + 0xb8] = a3\n 18075: u64 [a5 + 0xb0] = a1\n 18079: u64 [a5 + 0xa8] = a0\n 18083: a1 = s1 + 0x1f20\n 18087: a0 = u64 [s1 + 0xd8]\n 18091: ra = 624, jump @12\n      : @595 [@dyn 312] (gas: 4)\n 18097: a0 = s1 + 0x7ff\n 18101: a0 = a0 + 0x361\n 18105: a1 = 0x40\n 18108: ra = 626, jump @7\n      : @596 [@dyn 313] (gas: 15)\n 18114: a2 = s1 + 0x7ff\n 18118: a2 = a2 + 0x61\n 18121: t0 = u64 [a2 + 0x318]\n 18125: a1 = a2 + 0x300\n 18129: a5 = u64 [a1 + 0x10]\n 18132: a4 = u64 [a1 + 0x8]\n 18135: a0 = u64 [a1]\n 18137: a3 = a4 | t0\n 18140: a1 = a0 | a5\n 18143: a1 = a1 | a3\n 18146: a1 = a1 >> 0x20\n 18149: a3 = a3 | a5\n 18152: a3 = a3 << 0x20\n 18155: a1 = a1 | a3\n 18158: jump @598 if a1 == 0\n      : @597 (gas: 1)\n 18161: jump @381\n      : @598 (gas: 12)\n 18164: u64 [a2 + 752] = 0\n 18168: u64 [a2 + 744] = 0\n 18172: u64 [a2 + 736] = 0\n 18176: a3 = 0xa9059cbb00000000\n 18186: a1 = s1 + 0x7ff\n 18190: a1 = a1 + 0x341\n 18194: u64 [a2 + 0x2f8] = a3\n 18198: u64 [s1 + 0xd8] = a0\n 18202: u64 [s1 + 0xd0] = a4\n 18206: u64 [s1 + 0xc8] = a5\n 18210: u64 [s1 + 0xc0] = t0\n 18214: ra = 628, jump @9\n      : @599 [@dyn 314] (gas: 6)\n 18220: a0 = u64 [s1 + 0x58]\n 18223: ra = 0x276\n 18227: ecalli 5 // 'caller'\n 18229: a2 = u64 [s1 + 0x60]\n 18232: t0 = 0x278\n 18236: jump @896\n      : @600 [@dyn 315] (gas: 2)\n 18239: a2 = u64 [s1 + 0x60]\n 18242: t0 = 632, jump @896\n      : @601 [@dyn 316] (gas: 48)\n 18248: t0 = a1 | a0\n 18251: a3 = a3 >> 0x20\n 18254: a2 = reverse a2\n 18256: a1 = a2 << 0x20\n 18259: t1 = a1 | a3\n 18262: a2 = a2 >> 0x20\n 18265: a0 = u64 [s1 + 0xd8]\n 18269: a3 = a0 + 0x4\n 18272: a4 = a3 <u a0\n 18275: a0 = u64 [s1 + 0xd0]\n 18279: a5 = a0 + a4\n 18282: a0 = a5 <u a0\n 18285: a0 = a4 if a4 == 0\n 18288: a1 = u64 [s1 + 0xc8]\n 18292: a0 = a0 + a1\n 18295: a4 = a0 <u a1\n 18298: a1 = u64 [s1 + 0xc0]\n 18302: a4 = a4 + a1\n 18305: a1 = s1 + 0x7ff\n 18309: a1 = a1 + 0x61\n 18312: u64 [a1 + 0x2b8] = a4\n 18316: a4 = a1 + 0x200\n 18320: u64 [a4 + 0xb0] = a0\n 18324: u64 [a4 + 0xa8] = a5\n 18328: a0 = u64 [s1 + 0x40]\n 18331: u64 [a4 + 0x78] = a0\n 18334: a0 = u64 [s1 + 0x38]\n 18337: u64 [a4 + 0x70] = a0\n 18340: a0 = u64 [s1 + 0x30]\n 18343: u64 [a4 + 0x68] = a0\n 18346: a0 = u64 [s1 + 0x28]\n 18349: u64 [a4 + 0x60] = a0\n 18352: u64 [a4 + 0xa0] = a3\n 18356: u64 [a4 + 0x90] = a2\n 18360: u64 [a1 + 0x288] = t1\n 18364: u64 [a1 + 0x280] = t0\n 18368: a4 = s1 + 0x7ff\n 18372: a4 = a4 + 0x61\n 18375: a0 = s1 + 0x7ff\n 18379: a0 = a0 + 0x321\n 18383: a1 = s1 + 0x7ff\n 18387: a1 = a1 + 0x301\n 18391: a2 = s1 + 0x7ff\n 18395: a2 = a2 + 0x2e1\n 18399: a3 = s1 + 0x7ff\n 18403: a3 = a3 + 0x2c1\n 18407: u64 [a4 + 664] = 0\n 18411: ra = 634, jump @818\n      : @602 [@dyn 317] (gas: 29)\n 18417: a1 = s1 + 0x7ff\n 18421: a1 = a1 + 0x61\n 18424: a0 = u64 [a1 + 0x2c8]\n 18428: t0 = u64 [a1 + 0x2d8]\n 18432: t1 = u64 [a1 + 0x2c0]\n 18436: a3 = u64 [a1 + 0x2d0]\n 18440: a1 = u64 [s1 + 0xd0]\n 18444: a4 = a0 ^ a1\n 18447: a5 = a0 <u a1\n 18450: ra = u64 [s1 + 0xd8]\n 18454: t2 = t1 <u ra\n 18457: a5 = t2 if a4 == 0\n 18460: a2 = u64 [s1 + 0xc8]\n 18464: a4 = a3 - a2\n 18467: a3 = a3 <u a2\n 18470: a2 = u64 [s1 + 0xc0]\n 18474: a2 = t0 - a2\n 18477: a2 = a2 - a3\n 18480: a3 = a4 <u a5\n 18483: a2 = a2 - a3\n 18486: u64 [s1 + 0xb0] = a2\n 18490: a4 = a4 - a5\n 18493: u64 [s1 + 0xa8] = a4\n 18497: a0 = a0 - a1\n 18500: a0 = a0 - t2\n 18503: u64 [s1 + 0xa0] = a0\n 18507: a0 = t1 - ra\n 18510: u64 [s1 + 0xb8] = a0\n 18514: ra = 636, jump @0\n      : @603 [@dyn 318] (gas: 8)\n 18520: a1 = u64 [0x30210]\n 18525: u64 [s1 + 0x98] = a1\n 18529: a1 = u64 [0x30220]\n 18534: u64 [s1 + 0x90] = a1\n 18538: a0 = u64 [0x30218]\n 18543: u64 [s1 + 0x88] = a0\n 18547: ecalli 10 // 'ref_time_left'\n 18549: fallthrough\n      : @604 (gas: 35)\n 18550: a0 = u64 [s1 + 0x88]\n 18554: a0 = reverse a0\n 18556: a1 = a0 << 0x20\n 18559: a2 = u64 [s1 + 0x90]\n 18563: a2 = reverse a2\n 18565: a2 = a2 >> 0x20\n 18568: a1 = a1 | a2\n 18571: a0 = a0 >> 0x20\n 18574: a2 = u64 [s1 + 0x98]\n 18578: a2 = reverse a2\n 18580: a3 = a2 << 0x20\n 18583: a0 = a0 | a3\n 18586: a3 = u64 [s1 + 0x60]\n 18589: a2 = a2 >> 0x20\n 18592: u32 [a3 + 0x10] = a2\n 18595: u64 [a3 + 0x8] = a0\n 18598: u64 [a3] = a1\n 18600: a2 = s1 + 0x1878\n 18604: u64 [a2 + 1760] = 0\n 18608: u64 [a2 + 1752] = 0\n 18612: u64 [a2 + 1744] = 0\n 18616: a0 = u64 [s1 + 0xb8]\n 18620: t0 = a0\n 18622: a5 = u64 [s1 + 0xa8]\n 18626: a0 = a0 | a5\n 18629: a1 = u64 [s1 + 0xb0]\n 18633: a4 = u64 [s1 + 0xa0]\n 18637: a1 = a1 | a4\n 18640: a0 = a0 | a1\n 18643: a0 = a0 >> 0x20\n 18646: a1 = a1 | a5\n 18649: a1 = a1 << 0x20\n 18652: a0 = a0 | a1\n 18655: u64 [a2 + 1736] = 0\n 18659: jump @606 if a0 == 0\n      : @605 (gas: 1)\n 18662: jump @381\n      : @606 (gas: 3)\n 18665: a0 = u64 [s1 + 0xd8]\n 18669: a1 = t0\n 18671: ra = 638, jump @18\n      : @607 [@dyn 319] (gas: 4)\n 18677: u64 [s1 + 0xb0] = a0\n 18681: a1 = 0x20\n 18684: a0 = u64 [s1 + 0xd8]\n 18688: ra = 640, jump @18\n      : @608 [@dyn 320] (gas: 34)\n 18694: a2 = s1 + 0x1878\n 18698: u32 [a2 + 1768] = 0x20\n 18703: a3 = a2 + 0x700\n 18707: u64 [a3 + 32] = 0xffffffffffffffff\n 18711: u64 [a3 + 24] = 0xffffffffffffffff\n 18715: u64 [a3 + 16] = 0xffffffffffffffff\n 18719: u64 [a3 + 8] = 0xffffffffffffffff\n 18723: a1 = u64 [s1 + 0x60]\n 18726: a1 = a1 << 0x20\n 18729: a1 = a1 >> 0x20\n 18732: a2 = 0x800000000\n 18742: t0 = a1 | a2\n 18745: a1 = s1 + 0x1f40\n 18749: a1 = a1 << 0x20\n 18752: a1 = a1 >> 0x20\n 18755: a2 = s1 + 0x1f80\n 18759: a2 = a2 << 0x20\n 18762: a3 = a2 | a1\n 18765: a1 = u64 [s1 + 0xb0]\n 18769: a1 = a1 << 0x20\n 18772: a1 = a1 >> 0x20\n 18775: a4 = u64 [s1 + 0xb8]\n 18779: a4 = a4 << 0x20\n 18782: a4 = a4 | a1\n 18785: a0 = a0 << 0x20\n 18788: a0 = a0 >> 0x20\n 18791: a1 = s1 + 0x1f60\n 18795: a1 = a1 << 0x20\n 18798: a5 = a1 | a0\n 18801: a1 = 0xffffffffffffffff\n 18804: a2 = 0xffffffffffffffff\n 18807: a0 = t0\n 18809: ecalli 1 // 'call'\n 18811: fallthrough\n      : @609 (gas: 1)\n 18812: jump @644 if a0 != 0\n      : @610 (gas: 2)\n 18816: ecalli 12 // 'return_data_size'\n 18818: fallthrough\n      : @611 (gas: 2)\n 18819: a1 = 0x20\n 18822: jump @613 if a0 >=u a1\n      : @612 (gas: 3)\n 18825: ecalli 12 // 'return_data_size'\n 18827: a1 = a0\n 18829: fallthrough\n      : @613 (gas: 21)\n 18830: a2 = s1 + 0x7ff\n 18834: a2 = a2 + 0x61\n 18837: t0 = u64 [s1 + 0xd8]\n 18841: a4 = u64 [s1 + 0xd0]\n 18845: a5 = u64 [s1 + 0xc8]\n 18849: a3 = u64 [s1 + 0xc0]\n 18853: u64 [s1 + 0xb0] = a1\n 18857: u64 [s1 + 184] = 0\n 18861: u64 [a2 + 0x200] = a1\n 18865: u64 [a2 + 0x220] = t0\n 18869: u64 [a2 + 520] = 0\n 18873: u64 [a2 + 0x228] = a4\n 18877: u64 [a2 + 528] = 0\n 18881: u64 [a2 + 0x230] = a5\n 18885: u64 [a2 + 536] = 0\n 18889: a0 = s1 + 0x7ff\n 18893: a0 = a0 + 0x281\n 18897: a1 = s1 + 0x7ff\n 18901: a1 = a1 + 0x261\n 18905: u64 [a2 + 0x238] = a3\n 18909: ra = 642, jump @799\n      : @614 [@dyn 321] (gas: 51)\n 18915: t0 = u64 [s1 + 0xd8]\n 18919: a1 = u64 [s1 + 0xb0]\n 18923: a0 = a1 + t0\n 18926: a1 = a0 <u a1\n 18929: t1 = u64 [s1 + 0xd0]\n 18933: a5 = u64 [s1 + 0xb8]\n 18937: a2 = a5 + t1\n 18940: a2 = a2 + a1\n 18943: a3 = a2 ^ a5\n 18946: a4 = a2 <u a5\n 18949: a4 = a1 if a3 == 0\n 18952: ra = u64 [s1 + 0xc8]\n 18956: a1 = a5 + ra\n 18959: a4 = a4 + a1\n 18962: t2 = a4 <u a1\n 18965: a1 = a1 <u a5\n 18968: a3 = u64 [s1 + 0xc0]\n 18972: a5 = a5 + a3\n 18975: a1 = a1 + a5\n 18978: t2 = t2 + a1\n 18981: a1 = s1 + 0x7ff\n 18985: a1 = a1 + 0x61\n 18988: u64 [a1 + 0x1b0] = a4\n 18992: a1 = s1 + 0x7ff\n 18996: a1 = a1 + 0x61\n 18999: u64 [a1 + 0x1a8] = a2\n 19003: a1 = s1 + 0x7ff\n 19007: a1 = a1 + 0x61\n 19010: u64 [a1 + 0x1a0] = a0\n 19014: a0 = s1 + 0x7ff\n 19018: a0 = a0 + 0x61\n 19021: u64 [a0 + 0x1d8] = a3\n 19025: a0 = s1 + 0x7ff\n 19029: a0 = a0 + 0x61\n 19032: u64 [a0 + 0x1d0] = ra\n 19036: a0 = s1 + 0x7ff\n 19040: a0 = a0 + 0x61\n 19043: u64 [a0 + 0x1c8] = t1\n 19047: a0 = s1 + 0x7ff\n 19051: a0 = a0 + 0x61\n 19054: u64 [a0 + 0x1c0] = t0\n 19058: a0 = s1 + 0x7ff\n 19062: a0 = a0 + 0x241\n 19066: a1 = s1 + 0x7ff\n 19070: a1 = a1 + 0x221\n 19074: a2 = s1 + 0x7ff\n 19078: a2 = a2 + 0x201\n 19082: a4 = s1 + 0x7ff\n 19086: a4 = a4 + 0x61\n 19089: u64 [a4 + 0x1b8] = t2\n 19093: ra = 644, jump @809\n      : @615 [@dyn 322] (gas: 4)\n 19099: a0 = s1 + 0x7ff\n 19103: a0 = a0 + 0x1e1\n 19107: a1 = 0x40\n 19110: ra = 646, jump @7\n      : @616 [@dyn 323] (gas: 8)\n 19116: a3 = s1 + 0x7ff\n 19120: a3 = a3 + 0x61\n 19123: a5 = a3 + 0x100\n 19127: a0 = u64 [a5 + 0x98]\n 19131: a1 = u64 [a5 + 0x90]\n 19135: a2 = u64 [a5 + 0x88]\n 19139: a4 = u64 [a5 + 0x80]\n 19143: t0 = 648, jump @908\n      : @617 [@dyn 324] (gas: 1)\n 19149: jump @619 if a0 == 0\n      : @618 (gas: 1)\n 19152: jump @381\n      : @619 (gas: 14)\n 19155: a0 = u64 [s1 + 0x28]\n 19158: a2 = a3 + 0x100\n 19162: u64 [a2 + 0x60] = a0\n 19165: a0 = u64 [s1 + 0x30]\n 19168: u64 [a2 + 0x68] = a0\n 19171: a0 = u64 [s1 + 0x38]\n 19174: u64 [a2 + 0x70] = a0\n 19177: a1 = s1 + 0x7ff\n 19181: a1 = a1 + 0x1c1\n 19185: a0 = u64 [s1 + 0x40]\n 19188: u64 [a2 + 0x78] = a0\n 19191: a0 = a4\n 19193: u64 [s1 + 0xd8] = a4\n 19197: ra = 650, jump @9\n      : @620 [@dyn 325] (gas: 6)\n 19203: a0 = u64 [s1 + 0x58]\n 19206: ra = 0x28c\n 19210: ecalli 5 // 'caller'\n 19212: a2 = u64 [s1 + 0x60]\n 19215: t0 = 0x28e\n 19219: jump @896\n      : @621 [@dyn 326] (gas: 2)\n 19222: a2 = u64 [s1 + 0x60]\n 19225: t0 = 654, jump @896\n      : @622 [@dyn 327] (gas: 30)\n 19231: t0 = a1 | a0\n 19234: a3 = a3 >> 0x20\n 19237: a2 = reverse a2\n 19239: a1 = a2 << 0x20\n 19242: a1 = a1 | a3\n 19245: a2 = a2 >> 0x20\n 19248: a3 = u64 [0x20108]\n 19253: a0 = s1 + 0x7ff\n 19257: a0 = a0 + 0x61\n 19260: u64 [a0 + 0x158] = a3\n 19264: a3 = u64 [0x20110]\n 19269: a4 = u64 [0x20118]\n 19274: a5 = u64 [0x20120]\n 19279: u64 [a0 + 0x150] = a3\n 19283: a3 = a0 + 0x100\n 19287: u64 [a3 + 0x48] = a4\n 19290: u64 [a0 + 312] = 0\n 19294: u64 [a3 + 0x40] = a5\n 19297: u64 [a3 + 0x30] = a2\n 19300: u64 [a3 + 0x28] = a1\n 19303: a0 = s1 + 0x7ff\n 19307: a0 = a0 + 0x61\n 19310: a1 = 0x20\n 19313: a2 = s1 + 0x7ff\n 19317: a2 = a2 + 0x1a1\n 19321: a3 = s1 + 0x7ff\n 19325: a3 = a3 + 0x181\n 19329: u64 [a0 + 0x120] = t0\n 19333: a0 = u64 [s1 + 0xd8]\n 19337: ra = 656, jump @13\n      : @623 [@dyn 328] (gas: 5)\n 19343: a0 = 0\n 19345: a1 = u64 [s1 + 0x50]\n 19348: a2 = 0\n 19350: ecalli 13 // 'seal_return'\n 19352: jump @714\n      : @624 (gas: 3)\n 19355: a0 = s1 + 0x12c0\n 19359: a1 = 0x40\n 19362: ra = 658, jump @7\n      : @625 [@dyn 329] (gas: 14)\n 19368: a0 = s1 + 0x1078\n 19372: a2 = a0 + 0x200\n 19376: a1 = u64 [a2 + 0x60]\n 19379: u64 [s1 + 0xd0] = a1\n 19383: a1 = u64 [a2 + 0x58]\n 19386: u64 [s1 + 0xc8] = a1\n 19390: a1 = u64 [a2 + 0x50]\n 19393: u64 [s1 + 0xc0] = a1\n 19397: a0 = u64 [a2 + 0x48]\n 19400: u64 [s1 + 0xd8] = a0\n 19404: ra = 0x294\n 19408: ecalli 12 // 'return_data_size'\n 19410: t0 = 0x296\n 19414: jump @899\n      : @626 [@dyn 330] (gas: 1)\n 19417: t0 = 662, jump @899\n      : @627 [@dyn 331] (gas: 1)\n 19423: jump @629 if a1 == 0\n      : @628 (gas: 1)\n 19426: jump @381\n      : @629 (gas: 3)\n 19429: a2 = a0\n 19431: a0 = a0 >> 0x20\n 19434: jump @631 if a0 == 0\n      : @630 (gas: 1)\n 19437: jump @381\n      : @631 (gas: 1)\n 19440: t0 = 664, jump @919\n      : @632 [@dyn 332] (gas: 1)\n 19446: ra = 666, jump @18\n      : @633 [@dyn 333] (gas: 11)\n 19452: a1 = s1 + 0x2078\n 19456: a2 = u64 [s1 + 0xc8]\n 19460: u32 [a1 + 0x48] = a2\n 19463: i32 a0 = a0 + 0\n 19465: a1 = s1 + 0x2000\n 19469: i32 a1 = a1 + 0xc0\n 19473: a2 = 0\n 19475: ecalli 11 // 'return_data_copy'\n 19477: a0 = s1 + 0x2078\n 19481: a0 = i32 [a0 + 0x48]\n 19484: jump @523\n      : @634 (gas: 3)\n 19487: a0 = s1 + 0x3e0\n 19491: a1 = 0x40\n 19494: ra = 668, jump @7\n      : @635 [@dyn 334] (gas: 13)\n 19500: a1 = s1 + 0x300\n 19504: a0 = u64 [a1 + 0xf8]\n 19508: u64 [s1 + 0xd0] = a0\n 19512: a0 = u64 [a1 + 0xf0]\n 19516: u64 [s1 + 0xc8] = a0\n 19520: a0 = u64 [a1 + 0xe8]\n 19524: u64 [s1 + 0xc0] = a0\n 19528: a0 = u64 [a1 + 0xe0]\n 19532: u64 [s1 + 0xd8] = a0\n 19536: ra = 0x29e\n 19540: ecalli 12 // 'return_data_size'\n 19542: t0 = 0x2a0\n 19546: jump @899\n      : @636 [@dyn 335] (gas: 1)\n 19549: t0 = 672, jump @899\n      : @637 [@dyn 336] (gas: 1)\n 19555: jump @639 if a1 == 0\n      : @638 (gas: 1)\n 19558: jump @381\n      : @639 (gas: 3)\n 19561: a2 = a0\n 19563: a0 = a0 >> 0x20\n 19566: jump @641 if a0 == 0\n      : @640 (gas: 1)\n 19569: jump @381\n      : @641 (gas: 1)\n 19572: t0 = 674, jump @919\n      : @642 [@dyn 337] (gas: 1)\n 19578: ra = 676, jump @18\n      : @643 [@dyn 338] (gas: 11)\n 19584: a1 = s1 + 0x1878\n 19588: a2 = u64 [s1 + 0xc8]\n 19592: u32 [a1 + 0x468] = a2\n 19596: i32 a0 = a0 + 0\n 19598: a1 = s1 + 0x2000\n 19602: i32 a1 = a1 + 0xfffffffffffffce0\n 19606: a2 = 0\n 19608: ecalli 11 // 'return_data_copy'\n 19610: a0 = s1 + 0x1878\n 19614: a0 = i32 [a0 + 0x468]\n 19618: jump @523\n      : @644 (gas: 4)\n 19621: a0 = s1 + 0x7ff\n 19625: a0 = a0 + 0x2a1\n 19629: a1 = 0x40\n 19632: ra = 678, jump @7\n      : @645 [@dyn 339] (gas: 15)\n 19638: a0 = s1 + 0x7ff\n 19642: a0 = a0 + 0x61\n 19645: a2 = a0 + 0x200\n 19649: a1 = u64 [a2 + 0x58]\n 19652: u64 [s1 + 0xd0] = a1\n 19656: a1 = u64 [a2 + 0x50]\n 19659: u64 [s1 + 0xc8] = a1\n 19663: a1 = u64 [a2 + 0x48]\n 19666: u64 [s1 + 0xc0] = a1\n 19670: a0 = u64 [a2 + 0x40]\n 19673: u64 [s1 + 0xd8] = a0\n 19677: ra = 0x2a8\n 19681: ecalli 12 // 'return_data_size'\n 19683: t0 = 0x2aa\n 19687: jump @899\n      : @646 [@dyn 340] (gas: 1)\n 19690: t0 = 682, jump @899\n      : @647 [@dyn 341] (gas: 1)\n 19696: jump @649 if a1 == 0\n      : @648 (gas: 1)\n 19699: jump @381\n      : @649 (gas: 3)\n 19702: a2 = a0\n 19704: a0 = a0 >> 0x20\n 19707: jump @651 if a0 == 0\n      : @650 (gas: 1)\n 19710: jump @381\n      : @651 (gas: 1)\n 19713: t0 = 684, jump @919\n      : @652 [@dyn 342] (gas: 1)\n 19719: ra = 686, jump @18\n      : @653 [@dyn 343] (gas: 11)\n 19725: a1 = s1 + 0x1878\n 19729: a2 = u64 [s1 + 0xc8]\n 19733: u32 [a1 + 0x728] = a2\n 19737: i32 a0 = a0 + 0\n 19739: a1 = s1 + 0x2000\n 19743: i32 a1 = a1 + 0xffffffffffffffa0\n 19746: a2 = 0\n 19748: ecalli 11 // 'return_data_copy'\n 19750: a0 = s1 + 0x1878\n 19754: a0 = i32 [a0 + 0x728]\n 19758: jump @523\n      : @654 (gas: 6)\n 19761: a1 = 0x201d0\n 19766: i32 a1 = a1 + 0\n 19768: a0 = 0x1\n 19771: a2 = 0\n 19773: ecalli 13 // 'seal_return'\n 19775: jump @714\n      : @655 (gas: 6)\n 19778: a1 = 0x201d0\n 19783: i32 a1 = a1 + 0\n 19785: a0 = 0x1\n 19788: a2 = 0\n 19790: ecalli 13 // 'seal_return'\n 19792: jump @714\n      : @656 (gas: 6)\n 19795: a1 = 0x201d0\n 19800: i32 a1 = a1 + 0\n 19802: a0 = 0x1\n 19805: a2 = 0\n 19807: ecalli 13 // 'seal_return'\n 19809: jump @714\n      : @657 (gas: 6)\n 19812: a1 = 0x201d0\n 19817: i32 a1 = a1 + 0\n 19819: a0 = 0x1\n 19822: a2 = 0\n 19824: ecalli 13 // 'seal_return'\n 19826: jump @714\n      : @658 (gas: 8)\n 19829: a0 = s1 + 0x1078\n 19833: u64 [a0 + 1272] = 0\n 19837: u64 [a0 + 1264] = 0\n 19841: u64 [a0 + 1256] = 0\n 19845: a2 = a0\n 19847: t0 = 0x2b0\n 19851: a0 = 0x4e487b7100000000\n 19861: fallthrough\n      : @659 [@dyn 344] (gas: 4)\n 19862: a1 = s1 + 0x1560\n 19866: u64 [a2 + 0x500] = a0\n 19870: a0 = 0\n 19872: ra = 690, jump @9\n      : @660 [@dyn 345] (gas: 9)\n 19878: a1 = s1 + 0x1078\n 19882: u64 [a1 + 1248] = 0\n 19886: u64 [a1 + 1240] = 0\n 19890: u64 [a1 + 1224] = 0x11\n 19895: a2 = a1\n 19897: a0 = 0x4\n 19900: a1 = s1 + 0x1540\n 19904: u64 [a2 + 1232] = 0\n 19908: ra = 692, jump @9\n      : @661 [@dyn 346] (gas: 3)\n 19914: a0 = u64 [s1 + 0x98]\n 19918: a0 = i32 [a0]\n 19920: jump @663 if a0 >u 63\n      : @662 (gas: 3)\n 19924: a1 = u64 [s1 + 0x98]\n 19928: u32 [a1 + 0] = 0x40\n 19931: fallthrough\n      : @663 (gas: 5)\n 19932: a0 = 0x1\n 19935: a2 = 0x24\n 19938: a1 = u64 [s1 + 0x80]\n 19942: ecalli 13 // 'seal_return'\n 19944: fallthrough\n      : @664 (gas: 6)\n 19945: a1 = 0x201d0\n 19950: i32 a1 = a1 + 0\n 19952: a0 = 0x1\n 19955: a2 = 0\n 19957: ecalli 13 // 'seal_return'\n 19959: jump @714\n      : @665 (gas: 6)\n 19962: a1 = 0x201d0\n 19967: i32 a1 = a1 + 0\n 19969: a0 = 0x1\n 19972: a2 = 0\n 19974: ecalli 13 // 'seal_return'\n 19976: jump @714\n      : @666 (gas: 6)\n 19979: a1 = 0x201d0\n 19984: i32 a1 = a1 + 0\n 19986: a0 = 0x1\n 19989: a2 = 0\n 19991: ecalli 13 // 'seal_return'\n 19993: jump @714\n      : @667 (gas: 6)\n 19996: a1 = 0x201d0\n 20001: i32 a1 = a1 + 0\n 20003: a0 = 0x1\n 20006: a2 = 0\n 20008: ecalli 13 // 'seal_return'\n 20010: jump @714\n      : @668 (gas: 6)\n 20013: a1 = 0x201d0\n 20018: i32 a1 = a1 + 0\n 20020: a0 = 0x1\n 20023: a2 = 0\n 20025: ecalli 13 // 'seal_return'\n 20027: jump @714\n      : @669 (gas: 6)\n 20030: a1 = 0x201d0\n 20035: i32 a1 = a1 + 0\n 20037: a0 = 0x1\n 20040: a2 = 0\n 20042: ecalli 13 // 'seal_return'\n 20044: jump @714\n      : @670 (gas: 6)\n 20047: a1 = 0x201d0\n 20052: i32 a1 = a1 + 0\n 20054: a0 = 0x1\n 20057: a2 = 0\n 20059: ecalli 13 // 'seal_return'\n 20061: jump @714\n      : @671 (gas: 6)\n 20064: a1 = 0x201d0\n 20069: i32 a1 = a1 + 0\n 20071: a0 = 0x1\n 20074: a2 = 0\n 20076: ecalli 13 // 'seal_return'\n 20078: jump @714\n      : @672 (gas: 6)\n 20081: a1 = 0x201d0\n 20086: i32 a1 = a1 + 0\n 20088: a0 = 0x1\n 20091: a2 = 0\n 20093: ecalli 13 // 'seal_return'\n 20095: jump @714\n      : @673 (gas: 1)\n 20098: jump @696 if a0 != 4076725131\n      : @674 (gas: 10)\n 20106: a0 = s1 + 0x2078\n 20110: u64 [a0 + 672] = 0\n 20114: u64 [a0 + 664] = 0\n 20118: u64 [a0 + 656] = 0\n 20122: u64 [a0 + 648] = 0\n 20126: a0 = s1 + 0x2000\n 20130: i32 a0 = a0 + 0x300\n 20134: ra = 0x2b6\n 20138: ecalli 16 // 'value_transferred'\n 20140: fallthrough\n      : @675 [@dyn 347] (gas: 3)\n 20141: a3 = s1 + 0x2078\n 20145: a4 = a3 + 0x200\n 20149: t0 = 696, jump @909\n      : @676 [@dyn 348] (gas: 1)\n 20155: jump @714 if a0 == 0\n      : @677 (gas: 6)\n 20159: a1 = 0x201d0\n 20164: i32 a1 = a1 + 0\n 20166: a0 = 0x1\n 20169: a2 = 0\n 20171: ecalli 13 // 'seal_return'\n 20173: jump @714\n      : @678 (gas: 6)\n 20176: a1 = 0x201d0\n 20181: i32 a1 = a1 + 0\n 20183: a0 = 0x1\n 20186: a2 = 0\n 20188: ecalli 13 // 'seal_return'\n 20190: jump @714\n      : @679 (gas: 6)\n 20193: a1 = 0x201d0\n 20198: i32 a1 = a1 + 0\n 20200: a0 = 0x1\n 20203: a2 = 0\n 20205: ecalli 13 // 'seal_return'\n 20207: jump @714\n      : @680 (gas: 6)\n 20210: a1 = 0x201d0\n 20215: i32 a1 = a1 + 0\n 20217: a0 = 0x1\n 20220: a2 = 0\n 20222: ecalli 13 // 'seal_return'\n 20224: jump @714\n      : @681 (gas: 6)\n 20227: a1 = 0x201d0\n 20232: i32 a1 = a1 + 0\n 20234: a0 = 0x1\n 20237: a2 = 0\n 20239: ecalli 13 // 'seal_return'\n 20241: jump @714\n      : @682 (gas: 6)\n 20244: a1 = 0x201d0\n 20249: i32 a1 = a1 + 0\n 20251: a0 = 0x1\n 20254: a2 = 0\n 20256: ecalli 13 // 'seal_return'\n 20258: jump @714\n      : @683 (gas: 8)\n 20261: a1 = s1 + 0x2078\n 20265: u64 [a1 + 256] = 0\n 20269: u64 [a1 + 248] = 0\n 20273: u64 [a1 + 240] = 0\n 20277: u64 [a1 + 232] = 0x1\n 20282: a0 = s1 + 0x2160\n 20286: a1 = u64 [s1 + 0xd8]\n 20290: ra = 698, jump @12\n      : @684 [@dyn 349] (gas: 6)\n 20296: a1 = 0x201d0\n 20301: i32 a1 = a1 + 0\n 20303: a0 = 0\n 20305: a2 = 0\n 20307: ecalli 13 // 'seal_return'\n 20309: jump @714\n      : @685 (gas: 5)\n 20312: i32 a1 = a1 + 0\n 20314: a0 = 0\n 20316: a2 = 0\n 20318: ecalli 13 // 'seal_return'\n 20320: jump @714\n      : @686 (gas: 6)\n 20323: a1 = 0x201d0\n 20328: i32 a1 = a1 + 0\n 20330: a0 = 0x1\n 20333: a2 = 0\n 20335: ecalli 13 // 'seal_return'\n 20337: jump @714\n      : @687 (gas: 6)\n 20340: a1 = 0x201d0\n 20345: i32 a1 = a1 + 0\n 20347: a0 = 0x1\n 20350: a2 = 0\n 20352: ecalli 13 // 'seal_return'\n 20354: jump @714\n      : @688 (gas: 6)\n 20357: a1 = 0x201d0\n 20362: i32 a1 = a1 + 0\n 20364: a0 = 0x1\n 20367: a2 = 0\n 20369: ecalli 13 // 'seal_return'\n 20371: jump @714\n      : @689 (gas: 6)\n 20374: a1 = 0x201d0\n 20379: i32 a1 = a1 + 0\n 20381: a0 = 0x1\n 20384: a2 = 0\n 20386: ecalli 13 // 'seal_return'\n 20388: jump @714\n      : @690 (gas: 6)\n 20391: a1 = 0x201d0\n 20396: i32 a1 = a1 + 0\n 20398: a0 = 0x1\n 20401: a2 = 0\n 20403: ecalli 13 // 'seal_return'\n 20405: jump @714\n      : @691 (gas: 6)\n 20408: a1 = 0x201d0\n 20413: i32 a1 = a1 + 0\n 20415: a0 = 0x1\n 20418: a2 = 0\n 20420: ecalli 13 // 'seal_return'\n 20422: jump @714\n      : @692 (gas: 14)\n 20425: a2 = u64 [0x30210]\n 20430: a1 = u64 [0x30218]\n 20435: a0 = u32 [0x30220]\n 20440: a4 = s1 + 0x7ff\n 20444: a4 = a4 + 0x61\n 20447: u64 [a4 + 1880] = 0\n 20451: a5 = a4 + 0x700\n 20455: u64 [a5 + 0x50] = a0\n 20458: u64 [a5 + 0x48] = a1\n 20461: a1 = s1 + 0x7ff\n 20465: a1 = a1 + 0x7a1\n 20469: u64 [a5 + 0x40] = a2\n 20472: a0 = a3\n 20474: ra = 700, jump @9\n      : @693 [@dyn 350] (gas: 3)\n 20480: a1 = 0x20\n 20483: a0 = u64 [s1 + 0xc8]\n 20487: ra = 702, jump @18\n      : @694 [@dyn 351] (gas: 5)\n 20493: i32 a1 = a0 + 0\n 20495: a2 = 0x20\n 20498: a0 = 0\n 20500: ecalli 13 // 'seal_return'\n 20502: jump @696\n      : @695 (gas: 4)\n 20504: a2 = 0x20\n 20507: a0 = 0\n 20509: ecalli 13 // 'seal_return'\n 20511: fallthrough\n      : @696 (gas: 1)\n 20512: jump @707 if a0 != 700225181\n      : @697 (gas: 10)\n 20520: a0 = s1 + 0x1878\n 20524: u64 [a0 + 800] = 0\n 20528: u64 [a0 + 792] = 0\n 20532: u64 [a0 + 784] = 0\n 20536: u64 [a0 + 776] = 0\n 20540: a0 = s1 + 0x2000\n 20544: i32 a0 = a0 + 0xfffffffffffffb80\n 20548: ra = 0x2c0\n 20552: ecalli 16 // 'value_transferred'\n 20554: fallthrough\n      : @698 [@dyn 352] (gas: 3)\n 20555: a3 = s1 + 0x1878\n 20559: a4 = a3 + 0x300\n 20563: t0 = 706, jump @911\n      : @699 [@dyn 353] (gas: 1)\n 20569: jump @716 if a0 == 0\n      : @700 (gas: 6)\n 20573: a1 = 0x201d0\n 20578: i32 a1 = a1 + 0\n 20580: a0 = 0x1\n 20583: a2 = 0\n 20585: ecalli 13 // 'seal_return'\n 20587: jump @714\n      : @701 (gas: 10)\n 20590: a0 = s1 + 0x7ff\n 20594: a0 = a0 + 0x61\n 20597: u64 [a0 + 1296] = 0\n 20601: u64 [a0 + 1288] = 0\n 20605: u64 [a0 + 1280] = 0\n 20609: a2 = s1 + 0x7ff\n 20613: a2 = a2 + 0x61\n 20616: t0 = 0x2c4\n 20620: a0 = 0x4e487b7100000000\n 20630: fallthrough\n      : @702 [@dyn 354] (gas: 5)\n 20631: a1 = s1 + 0x7ff\n 20635: a1 = a1 + 0x561\n 20639: u64 [a2 + 0x518] = a0\n 20643: a0 = 0\n 20645: ra = 710, jump @9\n      : @703 [@dyn 355] (gas: 12)\n 20651: a1 = s1 + 0x7ff\n 20655: a1 = a1 + 0x61\n 20658: u64 [a1 + 1272] = 0\n 20662: u64 [a1 + 1264] = 0\n 20666: u64 [a1 + 1248] = 0x11\n 20671: a2 = s1 + 0x7ff\n 20675: a2 = a2 + 0x61\n 20678: a0 = 0x4\n 20681: a1 = s1 + 0x7ff\n 20685: a1 = a1 + 0x541\n 20689: u64 [a2 + 1256] = 0\n 20693: ra = 712, jump @9\n      : @704 [@dyn 356] (gas: 3)\n 20699: a0 = u64 [s1 + 0x48]\n 20702: a0 = i32 [a0]\n 20704: jump @706 if a0 >u 63\n      : @705 (gas: 3)\n 20708: a1 = u64 [s1 + 0x48]\n 20711: u32 [a1 + 0] = 0x40\n 20714: fallthrough\n      : @706 (gas: 5)\n 20715: a0 = 0x1\n 20718: a2 = 0x24\n 20721: a1 = u64 [s1 + 0x50]\n 20724: ecalli 13 // 'seal_return'\n 20726: fallthrough\n      : @707 (gas: 2)\n 20727: a2 = s1 + 0x1878\n 20731: jump @712 if a0 != 1901074598\n      : @708 (gas: 9)\n 20738: u64 [a2 + 1184] = 0\n 20742: u64 [a2 + 1176] = 0\n 20746: u64 [a2 + 1168] = 0\n 20750: u64 [a2 + 1160] = 0\n 20754: a0 = s1 + 0x2000\n 20758: i32 a0 = a0 + 0xfffffffffffffd00\n 20762: ra = 0x2ca\n 20766: ecalli 16 // 'value_transferred'\n 20768: fallthrough\n      : @709 [@dyn 357] (gas: 3)\n 20769: a3 = s1 + 0x1878\n 20773: a4 = a3 + 0x400\n 20777: t0 = 716, jump @909\n      : @710 [@dyn 358] (gas: 1)\n 20783: jump @721 if a0 == 0\n      : @711 (gas: 6)\n 20787: a1 = 0x201d0\n 20792: i32 a1 = a1 + 0\n 20794: a0 = 0x1\n 20797: a2 = 0\n 20799: ecalli 13 // 'seal_return'\n 20801: jump @714\n      : @712 (gas: 6)\n 20803: a1 = 0x201d0\n 20808: i32 a1 = a1 + 0\n 20810: a0 = 0x1\n 20813: a2 = 0\n 20815: ecalli 13 // 'seal_return'\n 20817: jump @714\n      : @713 (gas: 5)\n 20819: i32 a1 = a1 + 0\n 20821: a0 = 0x1\n 20824: a2 = 0\n 20826: ecalli 13 // 'seal_return'\n 20828: fallthrough\n      : @714 (gas: 3)\n 20829: a0 = u64 [s1 + 0xd8]\n 20833: a0 = i32 [a0]\n 20835: jump @718 if a0 >u 35\n      : @715 (gas: 2)\n 20839: a1 = 0x201d0\n 20844: jump @713\n      : @716 (gas: 3)\n 20846: a0 = u64 [s1 + 0xd8]\n 20850: a0 = i32 [a0]\n 20852: jump @723 if a0 >u 35\n      : @717 (gas: 2)\n 20856: a1 = 0x201d0\n 20861: jump @713\n      : @718 (gas: 5)\n 20863: a0 = s1 + 0x2000\n 20867: i32 a0 = a0 + 0x320\n 20871: a1 = 0x4\n 20874: ecalli 3 // 'call_data_load'\n 20876: fallthrough\n      : @719 (gas: 13)\n 20877: a0 = s1 + 0x2078\n 20881: a1 = u64 [a0 + 0x2b8]\n 20885: a2 = u64 [a0 + 0x2c0]\n 20889: a0 = 0x100000000\n 20899: a0 = a0 ^ a1\n 20902: a0 = a0 | a2\n 20905: u64 [s1 + 0xd8] = a1\n 20909: a1 = a1 >> 0x20\n 20912: a1 = a1 <u 0x1\n 20915: u64 [s1 + 0xb8] = a2\n 20919: a1 = 0 if a2 != 0\n 20921: a1 = 0 if a0 == 0\n 20923: jump @727 if a1 != 0\n      : @720 (gas: 2)\n 20926: a1 = 0x201d0\n 20931: jump @713\n      : @721 (gas: 3)\n 20933: a0 = u64 [s1 + 0xd8]\n 20937: a0 = i32 [a0]\n 20939: jump @733 if a0 >u 3\n      : @722 (gas: 2)\n 20944: a1 = 0x201d0\n 20949: jump @713\n      : @723 (gas: 6)\n 20952: a0 = s1 + 0x2000\n 20956: i32 a0 = a0 + 0xfffffffffffffba0\n 20960: a1 = 0x4\n 20963: ra = 0x2ce\n 20967: ecalli 3 // 'call_data_load'\n 20969: fallthrough\n      : @724 [@dyn 359] (gas: 4)\n 20970: a0 = s1 + 0x1878\n 20974: a1 = u64 [a0 + 0x338]\n 20978: a0 = u64 [a0 + 0x340]\n 20982: t0 = 720, jump @903\n      : @725 [@dyn 360] (gas: 1)\n 20988: jump @738 if a3 != 0\n      : @726 (gas: 2)\n 20992: a1 = 0x201d0\n 20997: jump @713\n      : @727 (gas: 10)\n 21000: a0 = s1 + 0x2078\n 21004: a1 = u64 [a0 + 0x2b0]\n 21008: u64 [s1 + 0xc8] = a1\n 21012: a0 = u64 [a0 + 0x2a8]\n 21016: u64 [s1 + 0xd0] = a0\n 21020: a0 = u64 [s1 + 0xd8]\n 21024: a0 = a0 << 0x20\n 21027: a0 = a0 >> 0x20\n 21030: u64 [s1 + 0xc0] = a0\n 21034: ra = 722, jump @883\n      : @728 [@dyn 361] (gas: 6)\n 21040: a0 = u64 [s1 + 0xc8]\n 21044: a1 = u64 [s1 + 0xd0]\n 21048: a0 = a0 | a1\n 21051: a1 = u64 [s1 + 0xc0]\n 21055: a0 = a0 | a1\n 21058: jump @749 if a0 == 0\n      : @729 (gas: 10)\n 21062: a0 = 0xffffffff\n 21072: u64 [s1 + 0xb0] = a0\n 21076: a0 = s1 + 0x2078\n 21080: u64 [a0 + 736] = 0\n 21084: u64 [a0 + 728] = 0\n 21088: u64 [a0 + 720] = 0\n 21092: u64 [a0 + 712] = 0\n 21096: a0 = s1 + 0x1b20\n 21100: a1 = s1 + 0x2340\n 21104: ra = 724, jump @11\n      : @730 [@dyn 362] (gas: 30)\n 21110: a3 = s1 + 0x1878\n 21114: a4 = a3 + 0x200\n 21118: a1 = u64 [a4 + 0xb8]\n 21122: u64 [s1 + 0xa8] = a1\n 21126: a0 = u64 [a4 + 0xc0]\n 21130: a1 = a1 >> 0x20\n 21133: a1 = a1 << 0x20\n 21136: a2 = u64 [s1 + 0xd8]\n 21140: a1 = a1 | a2\n 21143: a2 = u64 [a4 + 0xb0]\n 21147: u64 [s1 + 0xd8] = a2\n 21151: a2 = u64 [s1 + 0xb8]\n 21155: a0 = a0 | a2\n 21158: a2 = u64 [a4 + 0xa8]\n 21162: u64 [s1 + 0xb8] = a2\n 21166: a2 = s1 + 0x2078\n 21170: a3 = a2 + 0x300\n 21174: u64 [a3 + 0x20] = a0\n 21177: u64 [a3 + 0x18] = a1\n 21180: u64 [a2 + 768] = 0\n 21184: u64 [a2 + 760] = 0\n 21188: u64 [a2 + 752] = 0\n 21192: u64 [a2 + 744] = 0\n 21196: a0 = u64 [s1 + 0xc8]\n 21200: u64 [a3 + 0x10] = a0\n 21203: a0 = u64 [s1 + 0xd0]\n 21207: u64 [a3 + 0x8] = a0\n 21210: a0 = s1 + 0x2360\n 21214: a1 = s1 + 0x2380\n 21218: ra = 726, jump @12\n      : @731 [@dyn 363] (gas: 35)\n 21224: a0 = u64 [s1 + 0xb8]\n 21228: a0 = a0 & 0xffffffffffffffff\n 21231: a2 = u64 [s1 + 0xd8]\n 21235: a1 = a2 & 0xffffffffffffffff\n 21238: a2 = u64 [s1 + 0xb0]\n 21242: a3 = u64 [s1 + 0xa8]\n 21246: a2 = a2 & a3\n 21249: a4 = s1 + 0x1878\n 21253: u64 [a4 + 608] = 0\n 21257: a3 = u64 [s1 + 0xc0]\n 21261: a5 = a4 + 0x200\n 21265: u64 [a5 + 0x58] = a3\n 21268: a3 = u64 [s1 + 0xc8]\n 21272: u64 [a5 + 0x50] = a3\n 21275: a3 = u64 [s1 + 0xd0]\n 21279: u64 [a5 + 0x48] = a3\n 21282: u64 [a4 + 640] = 0\n 21286: u64 [a5 + 0x78] = a2\n 21289: u64 [a5 + 0x70] = a1\n 21292: a1 = u64 [0x20040]\n 21297: a2 = u64 [0x20048]\n 21302: a3 = u64 [0x20050]\n 21307: u64 [a5 + 0x68] = a0\n 21310: u64 [a5 + 0xa0] = a1\n 21314: u64 [a5 + 0x98] = a2\n 21318: u64 [a5 + 0x90] = a3\n 21322: a1 = a4\n 21324: a0 = u64 [0x20058]\n 21329: a2 = s1 + 0x1b00\n 21333: a3 = s1 + 0x1ae0\n 21337: a4 = s1 + 0x1ac0\n 21341: u64 [a1 + 0x288] = a0\n 21345: a0 = 0\n 21347: a1 = 0\n 21349: ra = 728, jump @15\n      : @732 [@dyn 364] (gas: 2)\n 21355: a1 = 0x201d0\n 21360: jump @685\n      : @733 (gas: 1)\n 21363: ra = 730, jump @883\n      : @734 [@dyn 365] (gas: 8)\n 21369: a0 = s1 + 0x1878\n 21373: u64 [a0 + 1216] = 0\n 21377: u64 [a0 + 1208] = 0\n 21381: u64 [a0 + 1200] = 0\n 21385: u64 [a0 + 1192] = 0\n 21389: a0 = s1 + 0x760\n 21393: a1 = s1 + 0x1d20\n 21397: ra = 732, jump @11\n      : @735 [@dyn 366] (gas: 21)\n 21403: a1 = u64 [s1 + 0x770]\n 21407: u64 [s1 + 0xc8] = a1\n 21411: a0 = u64 [s1 + 0x760]\n 21415: u64 [s1 + 0xd8] = a0\n 21419: a0 = u64 [s1 + 0x768]\n 21423: u64 [s1 + 0xd0] = a0\n 21427: a0 = u64 [s1 + 0x778]\n 21431: a1 = a1 >> 0x20\n 21434: a1 = a1 << 0x20\n 21437: a2 = s1 + 0x1878\n 21441: u64 [a2 + 1248] = 0\n 21445: u64 [a2 + 1240] = 0\n 21449: u64 [a2 + 1232] = 0\n 21453: u64 [a2 + 1224] = 0\n 21457: u64 [a2 + 1264] = 0\n 21461: u64 [a2 + 1256] = 0\n 21465: u64 [a2 + 0x500] = a0\n 21469: u64 [a2 + 0x4f8] = a1\n 21473: a0 = s1 + 0x1d40\n 21477: a1 = s1 + 0x1d60\n 21481: ra = 734, jump @12\n      : @736 [@dyn 367] (gas: 28)\n 21487: a0 = u64 [s1 + 0xc8]\n 21491: a0 = a0 << 0x20\n 21494: a0 = a0 >> 0x20\n 21497: u64 [s1 + 1816] = 0\n 21501: u64 [s1 + 1808] = 0\n 21505: u64 [s1 + 1800] = 0\n 21509: u64 [s1 + 1792] = 0\n 21513: u64 [s1 + 1848] = 0\n 21517: a5 = s1 + 0x700\n 21521: u64 [a5 + 0x30] = a0\n 21524: a0 = u64 [s1 + 0xd0]\n 21528: u64 [a5 + 0x28] = a0\n 21531: a0 = u64 [0x20040]\n 21536: a1 = u64 [0x20048]\n 21541: a2 = u64 [0x20050]\n 21546: a3 = u64 [s1 + 0xd8]\n 21550: u64 [a5 + 0x20] = a3\n 21553: u64 [a5 + 0x58] = a0\n 21556: u64 [a5 + 0x50] = a1\n 21559: u64 [a5 + 0x48] = a2\n 21562: a0 = u64 [0x20058]\n 21567: a2 = s1 + 0x740\n 21571: a3 = s1 + 0x720\n 21575: a4 = s1 + 0x700\n 21579: u64 [a5 + 0x40] = a0\n 21582: a0 = 0\n 21584: a1 = 0\n 21586: ra = 736, jump @15\n      : @737 [@dyn 368] (gas: 2)\n 21592: a1 = 0x201d0\n 21597: jump @685\n      : @738 (gas: 10)\n 21600: a3 = s1 + 0x1878\n 21604: a2 = u64 [a3 + 0x330]\n 21608: a3 = u64 [a3 + 0x328]\n 21612: u64 [s1 + 0x140] = a3\n 21616: u64 [s1 + 0x148] = a2\n 21620: u64 [s1 + 0x150] = a1\n 21624: a1 = s1 + 0x140\n 21628: u64 [s1 + 0x158] = a0\n 21632: a0 = 0\n 21634: ra = 738, jump @9\n      : @739 [@dyn 369] (gas: 7)\n 21640: u64 [s1 + 312] = 0\n 21644: u64 [s1 + 304] = 0\n 21648: u64 [s1 + 288] = 0x2\n 21653: a0 = 0x20\n 21656: a1 = s1 + 0x120\n 21660: u64 [s1 + 296] = 0\n 21664: ra = 740, jump @9\n      : @740 [@dyn 370] (gas: 4)\n 21670: a0 = 0x201c8\n 21675: u64 [s1 + 0xd8] = a0\n 21679: a0 = i32 [0x201c8]\n 21684: jump @742 if a0 >u 63\n      : @741 (gas: 3)\n 21688: a1 = u64 [s1 + 0xd8]\n 21692: u32 [a1 + 0] = 0x40\n 21695: fallthrough\n      : @742 (gas: 14)\n 21696: a0 = sp + 0xffffffffffffffe0\n 21699: a2 = a0 & 0xffffffffffffffe0\n 21702: u64 [s1 + 0xc8] = a2\n 21706: sp = a2\n 21708: a0 = 0x201d0\n 21713: u64 [s1 + 0xd0] = a0\n 21717: i32 a0 = a0 + 0\n 21719: i32 a2 = a2 + 0\n 21721: a1 = 0x40\n 21724: ra = 0x2e6\n 21728: ecalli 9 // 'hash_keccak_256'\n 21730: a3 = u64 [s1 + 0xc8]\n 21734: t0 = 0x2e8\n 21738: jump @898\n      : @743 [@dyn 371] (gas: 2)\n 21741: a3 = u64 [s1 + 0xc8]\n 21745: t0 = 744, jump @898\n      : @744 [@dyn 372] (gas: 7)\n 21751: u64 [a5 + 0x60] = a3\n 21754: u64 [a5 + 0x58] = a2\n 21757: u64 [a5 + 0x50] = a1\n 21760: u64 [a5 + 0x48] = a0\n 21763: a0 = s1 + 0x100\n 21767: a1 = s1 + 0x1bc0\n 21771: ra = 746, jump @11\n      : @745 [@dyn 373] (gas: 12)\n 21777: a4 = s1 + 0x100\n 21781: a2 = u64 [a4]\n 21783: a0 = u64 [a4 + 0x8]\n 21786: a1 = u64 [a4 + 0x10]\n 21789: a3 = u64 [a4 + 0x18]\n 21792: u64 [s1 + 0xf8] = a3\n 21796: u64 [s1 + 0xf0] = a1\n 21800: u64 [s1 + 0xe8] = a0\n 21804: a0 = 0x80\n 21808: a1 = s1 + 0xe0\n 21812: u64 [s1 + 0xe0] = a2\n 21816: ra = 748, jump @9\n      : @746 [@dyn 374] (gas: 3)\n 21822: a0 = u64 [s1 + 0xd8]\n 21826: a0 = i32 [a0]\n 21828: jump @748 if a0 >u 159\n      : @747 (gas: 5)\n 21833: a1 = u64 [s1 + 0xd8]\n 21837: u32 [a1 + 0] = 0xa0\n 21841: a0 = u64 [s1 + 0xd0]\n 21845: i32 a1 = a0 + 0x80\n 21849: jump @695\n      : @748 (gas: 3)\n 21852: a0 = u64 [s1 + 0xd0]\n 21856: i32 a1 = a0 + 0x80\n 21860: jump @695\n      : @749 (gas: 10)\n 21863: a0 = s1 + 0x1878\n 21867: u64 [a0 + 568] = 0\n 21871: u64 [a0 + 560] = 0\n 21875: u64 [a0 + 552] = 0\n 21879: a2 = a0\n 21881: a0 = 0x1e4fbdf700000000\n 21891: a1 = s1 + 0x1aa0\n 21895: u64 [a2 + 0x240] = a0\n 21899: a0 = 0\n 21901: ra = 750, jump @9\n      : @750 [@dyn 375] (gas: 9)\n 21907: a0 = s1 + 0x1878\n 21911: u64 [a0 + 544] = 0\n 21915: u64 [a0 + 536] = 0\n 21919: u64 [a0 + 528] = 0\n 21923: a2 = a0\n 21925: a0 = 0x4\n 21928: a1 = s1 + 0x1a80\n 21932: u64 [a2 + 520] = 0\n 21936: ra = 752, jump @9\n      : @751 [@dyn 376] (gas: 2)\n 21942: a1 = i32 [0x201c8]\n 21947: jump @753 if a1 >u 63\n      : @752 (gas: 2)\n 21951: u32 [0x201c8] = 0x40\n 21957: fallthrough\n      : @753 (gas: 7)\n 21958: a1 = 0x201d0\n 21963: i32 a1 = a1 + 0\n 21965: a0 = 0x1\n 21968: a2 = 0x24\n 21971: ra = 0x2f2\n 21975: ecalli 13 // 'seal_return'\n 21977: fallthrough\n      : @754 [@dyn 377] (gas: 18)\n 21978: sp = sp + 0xffffffffffffffc0\n 21981: u64 [sp + 0x38] = ra\n 21984: u64 [sp + 0x30] = s0\n 21987: u64 [sp + 0x28] = s1\n 21990: s0 = sp + 0x40\n 21993: sp = sp & 0xfffffffffffffff0\n 21996: a2 = u64 [a1 + 0x10]\n 21999: a3 = u64 [a1 + 0x18]\n 22002: a4 = u64 [a1 + 0x8]\n 22005: a1 = u64 [a1]\n 22007: a3 = a3 | a4\n 22010: a4 = a1 | a2\n 22013: a4 = a4 | a3\n 22016: a4 = a4 >> 0x20\n 22019: a2 = a2 | a3\n 22022: a2 = a2 << 0x20\n 22025: a2 = a2 | a4\n 22028: jump @758 if a2 != 0\n      : @755 (gas: 3)\n 22031: s1 = a0\n 22033: a0 = sp\n 22035: ra = 756, jump @7\n      : @756 [@dyn 378] (gas: 10)\n 22041: a0 = u64 [sp + 0x10]\n 22044: a1 = u64 [sp + 0x18]\n 22047: a2 = 0x100000000\n 22057: a2 = a2 ^ a0\n 22060: a2 = a2 | a1\n 22063: a3 = a0 >> 0x20\n 22066: a3 = a3 <u 0x1\n 22069: a3 = 0 if a1 != 0\n 22071: a3 = 0 if a2 == 0\n 22073: jump @759 if a3 == 0\n      : @757 (gas: 12)\n 22076: a2 = u64 [sp]\n 22078: a3 = u64 [sp + 0x8]\n 22081: u64 [s1] = a2\n 22083: u64 [s1 + 0x8] = a3\n 22086: u64 [s1 + 0x10] = a0\n 22089: u64 [s1 + 0x18] = a1\n 22092: sp = s0 + 0xffffffffffffffc0\n 22095: ra = u64 [sp + 0x38]\n 22098: s0 = u64 [sp + 0x30]\n 22101: s1 = u64 [sp + 0x28]\n 22104: sp = sp + 0x40\n 22107: ret\n      : @758 (gas: 1)\n 22109: trap\n      : @759 (gas: 7)\n 22110: a1 = 0x201d0\n 22115: i32 a1 = a1 + 0\n 22117: a0 = 0x1\n 22120: a2 = 0\n 22122: ra = 0x2f6\n 22126: ecalli 13 // 'seal_return'\n 22128: fallthrough\n      : @760 [@dyn 379] (gas: 23)\n 22129: sp = sp + 0xffffffffffffff10\n 22133: u64 [sp + 0xe8] = ra\n 22137: u64 [sp + 0xe0] = s0\n 22141: u64 [sp + 0xd8] = s1\n 22145: s0 = sp + 0xf0\n 22149: sp = sp & 0xfffffffffffffff0\n 22152: s1 = u64 [a1 + 0x10]\n 22155: t0 = u64 [a1 + 0x18]\n 22158: a5 = u64 [a1 + 0x8]\n 22161: a1 = u64 [a1]\n 22163: u64 [sp + 0x68] = a5\n 22166: u64 [sp + 0x58] = t0\n 22169: t1 = a5 | t0\n 22172: t0 = a1\n 22174: a5 = a1 | s1\n 22177: a5 = a5 | t1\n 22180: a5 = a5 >> 0x20\n 22183: u64 [sp + 0x60] = s1\n 22186: a1 = t1 | s1\n 22189: a1 = a1 << 0x20\n 22192: a1 = a1 | a5\n 22195: u64 [sp + 0x50] = a0\n 22198: jump @767 if a1 != 0\n      : @761 (gas: 28)\n 22202: a0 = u64 [a4 + 0x18]\n 22205: u64 [sp + 0x18] = a0\n 22208: a0 = u64 [a4 + 0x10]\n 22211: u64 [sp + 0x8] = a0\n 22214: a0 = u64 [a4 + 0x8]\n 22217: u64 [sp + 0x10] = a0\n 22220: a0 = u64 [a4]\n 22222: u64 [sp] = a0\n 22224: a0 = u64 [a3 + 0x18]\n 22227: u64 [sp + 0x48] = a0\n 22230: a0 = u64 [a3 + 0x10]\n 22233: u64 [sp + 0x40] = a0\n 22236: a0 = u64 [a3 + 0x8]\n 22239: u64 [sp + 0x38] = a0\n 22242: a0 = u64 [a3]\n 22244: u64 [sp + 0x30] = a0\n 22247: a0 = u64 [a2 + 0x18]\n 22250: a1 = u64 [a2 + 0x10]\n 22253: a3 = u64 [a2 + 0x8]\n 22256: a2 = u64 [a2]\n 22258: u64 [sp + 0xb0] = a2\n 22262: u64 [sp + 0xb8] = a3\n 22266: u64 [sp + 0xc0] = a1\n 22270: a1 = sp + 0xb0\n 22274: u64 [sp + 0xc8] = a0\n 22278: s1 = t0\n 22280: a0 = t0\n 22282: ra = 760, jump @9\n      : @762 [@dyn 380] (gas: 12)\n 22288: a0 = u64 [sp + 0x60]\n 22291: a1 = u64 [sp + 0x58]\n 22294: a2 = a0 | a1\n 22297: a0 = 0x100000000\n 22307: u64 [sp + 0x20] = a0\n 22310: a0 = 0xffffffe0\n 22320: a0 = s1 <u a0\n 22323: a1 = u64 [sp + 0x68]\n 22326: a0 = 0 if a1 != 0\n 22328: u64 [sp + 0x28] = a2\n 22331: a0 = 0 if a2 != 0\n 22333: jump @767 if a0 == 0\n      : @763 (gas: 11)\n 22337: i32 a0 = s1 + 0x20\n 22340: a1 = u64 [sp + 0x30]\n 22343: u64 [sp + 0x90] = a1\n 22347: a1 = u64 [sp + 0x38]\n 22350: u64 [sp + 0x98] = a1\n 22354: a1 = u64 [sp + 0x40]\n 22357: u64 [sp + 0xa0] = a1\n 22361: a1 = sp + 0x90\n 22365: a2 = u64 [sp + 0x48]\n 22368: u64 [sp + 0xa8] = a2\n 22372: ra = 762, jump @9\n      : @764 [@dyn 381] (gas: 8)\n 22378: a0 = u64 [sp + 0x20]\n 22381: a0 = a0 + 0xffffffffffffffc0\n 22384: a0 = s1 <u a0\n 22387: a1 = u64 [sp + 0x68]\n 22390: a0 = 0 if a1 != 0\n 22392: a1 = u64 [sp + 0x28]\n 22395: a0 = 0 if a1 != 0\n 22397: jump @767 if a0 == 0\n      : @765 (gas: 30)\n 22401: a0 = u64 [sp + 0x8]\n 22404: a1 = u64 [sp]\n 22406: a0 = a0 | a1\n 22409: a1 = u64 [sp + 0x18]\n 22412: a2 = u64 [sp + 0x10]\n 22415: a1 = a1 | a2\n 22418: a0 = a0 | a1\n 22421: a1 = a0 >u 0\n 22423: a0 = s1 + 0x60\n 22426: u64 [sp + 0x48] = a0\n 22429: a0 = a0 <u s1\n 22432: a2 = u64 [sp + 0x68]\n 22435: a3 = a2 + a0\n 22438: u64 [sp + 0x40] = a3\n 22441: a2 = a3 <u a2\n 22444: a2 = a0 if a0 == 0\n 22447: a0 = u64 [sp + 0x60]\n 22450: a2 = a2 + a0\n 22453: u64 [sp + 0x68] = a2\n 22456: a0 = a2 <u a0\n 22459: a2 = u64 [sp + 0x58]\n 22462: a0 = a0 + a2\n 22465: u64 [sp + 0x60] = a0\n 22468: i32 a0 = s1 + 0x40\n 22471: u64 [sp + 136] = 0\n 22475: u64 [sp + 128] = 0\n 22479: u64 [sp + 0x70] = a1\n 22482: a1 = sp + 0x70\n 22485: u64 [sp + 120] = 0\n 22488: ra = 764, jump @9\n      : @766 [@dyn 382] (gas: 15)\n 22494: a0 = u64 [sp + 0x50]\n 22497: a1 = u64 [sp + 0x60]\n 22500: u64 [a0 + 0x18] = a1\n 22503: a1 = u64 [sp + 0x68]\n 22506: u64 [a0 + 0x10] = a1\n 22509: a1 = u64 [sp + 0x40]\n 22512: u64 [a0 + 0x8] = a1\n 22515: a1 = u64 [sp + 0x48]\n 22518: u64 [a0] = a1\n 22520: sp = s0 + 0xffffffffffffff10\n 22524: ra = u64 [sp + 0xe8]\n 22528: s0 = u64 [sp + 0xe0]\n 22532: s1 = u64 [sp + 0xd8]\n 22536: sp = sp + 0xf0\n 22540: ret\n      : @767 (gas: 1)\n 22542: trap\n      : @768 (gas: 14)\n 22543: sp = sp + 0xffffffffffffff20\n 22547: u64 [sp + 0xd8] = ra\n 22551: u64 [sp + 0xd0] = s0\n 22555: u64 [sp + 0xc8] = s1\n 22559: s0 = sp + 0xe0\n 22563: sp = sp & 0xfffffffffffffff0\n 22566: a1 = u64 [a0 + 0x10]\n 22569: a2 = u64 [a0 + 0x18]\n 22572: a3 = u64 [a0 + 0x8]\n 22575: a0 = u64 [a0]\n 22577: a2 = a2 | a3\n 22580: a0 = a0 | a1\n 22583: a0 = a0 | a2\n 22586: jump @770 if a0 == 0\n      : @769 (gas: 6)\n 22589: sp = s0 + 0xffffffffffffff20\n 22593: ra = u64 [sp + 0xd8]\n 22597: s0 = u64 [sp + 0xd0]\n 22601: s1 = u64 [sp + 0xc8]\n 22605: sp = sp + 0xe0\n 22609: ret\n      : @770 (gas: 3)\n 22611: a0 = sp + 0xa0\n 22615: a1 = 0x40\n 22618: ra = 766, jump @7\n      : @771 [@dyn 383] (gas: 15)\n 22624: a2 = u64 [sp + 0xb8]\n 22628: s1 = u64 [sp + 0xb0]\n 22632: a0 = u64 [sp + 0xa8]\n 22636: a1 = u64 [sp + 0xa0]\n 22640: u64 [sp + 0x10] = a0\n 22643: u64 [sp + 0x8] = a2\n 22646: a0 = a0 | a2\n 22649: u64 [sp + 0x18] = a1\n 22652: a1 = a1 | s1\n 22655: a1 = a1 | a0\n 22658: a1 = a1 >> 0x20\n 22661: a0 = a0 | s1\n 22664: a0 = a0 << 0x20\n 22667: a0 = a0 | a1\n 22670: jump @778 if a0 != 0\n      : @772 (gas: 8)\n 22674: u64 [sp + 144] = 0\n 22678: u64 [sp + 136] = 0\n 22682: u64 [sp + 128] = 0\n 22686: a0 = 0x8c379a000000000\n 22696: a1 = sp + 0x80\n 22700: u64 [sp + 0x98] = a0\n 22704: a0 = u64 [sp + 0x18]\n 22707: ra = 768, jump @9\n      : @773 [@dyn 384] (gas: 11)\n 22713: a2 = u64 [sp + 0x8]\n 22716: a2 = a2 | s1\n 22719: s1 = 0x100000000\n 22729: a0 = 0xfffffffc\n 22739: a1 = u64 [sp + 0x18]\n 22742: a0 = a1 <u a0\n 22745: a1 = u64 [sp + 0x10]\n 22748: a0 = 0 if a1 != 0\n 22750: u64 [sp + 0x8] = a2\n 22753: a0 = 0 if a2 != 0\n 22755: jump @778 if a0 == 0\n      : @774 (gas: 8)\n 22758: a0 = u64 [sp + 0x18]\n 22761: i32 a0 = a0 + 0x4\n 22764: u64 [sp + 120] = 0\n 22767: u64 [sp + 112] = 0\n 22770: u64 [sp + 104] = 0\n 22773: a1 = sp + 0x60\n 22776: u64 [sp + 96] = 0x20\n 22780: ra = 770, jump @9\n      : @775 [@dyn 385] (gas: 8)\n 22786: a0 = s1 + 0xffffffffffffffdc\n 22789: a1 = u64 [sp + 0x18]\n 22792: a0 = a1 <u a0\n 22795: a1 = u64 [sp + 0x10]\n 22798: a0 = 0 if a1 != 0\n 22800: a1 = u64 [sp + 0x8]\n 22803: a0 = 0 if a1 != 0\n 22805: jump @778 if a0 == 0\n      : @776 (gas: 8)\n 22808: s1 = u64 [sp + 0x18]\n 22811: i32 a0 = s1 + 0x24\n 22814: u64 [sp + 88] = 0\n 22817: u64 [sp + 80] = 0\n 22820: u64 [sp + 64] = 0x20\n 22824: a1 = sp + 0x40\n 22827: u64 [sp + 72] = 0\n 22830: ra = 772, jump @9\n      : @777 [@dyn 386] (gas: 7)\n 22836: a0 = 0xffffffbc\n 22846: a0 = s1 <u a0\n 22849: a1 = u64 [sp + 0x10]\n 22852: a0 = 0 if a1 != 0\n 22854: a1 = u64 [sp + 0x8]\n 22857: a0 = 0 if a1 != 0\n 22859: jump @779 if a0 != 0\n      : @778 (gas: 1)\n 22862: trap\n      : @779 (gas: 12)\n 22863: s1 = u64 [sp + 0x18]\n 22866: i32 a0 = s1 + 0x44\n 22869: a1 = u64 [0x201a0]\n 22874: u64 [sp + 0x38] = a1\n 22877: a1 = u64 [0x201a8]\n 22882: a2 = u64 [0x201b0]\n 22887: a3 = u64 [0x201b8]\n 22892: u64 [sp + 0x30] = a1\n 22895: u64 [sp + 0x28] = a2\n 22898: a1 = sp + 0x20\n 22901: u64 [sp + 0x20] = a3\n 22904: ra = 774, jump @9\n      : @780 [@dyn 387] (gas: 3)\n 22910: a1 = 0x64\n 22913: a0 = s1\n 22915: ra = 776, jump @18\n      : @781 [@dyn 388] (gas: 6)\n 22921: i32 a1 = a0 + 0\n 22923: a0 = 0x1\n 22926: a2 = 0x64\n 22929: ra = 0x30a\n 22933: ecalli 13 // 'seal_return'\n 22935: fallthrough\n      : @782 [@dyn 389] (gas: 30)\n 22936: sp = sp + 0xffffffffffffff80\n 22939: u64 [sp + 0x78] = ra\n 22942: u64 [sp + 0x70] = s0\n 22945: u64 [sp + 0x68] = s1\n 22948: s0 = sp + 0x80\n 22952: sp = sp & 0xfffffffffffffff0\n 22955: a4 = u64 [a2]\n 22957: a3 = u64 [a1]\n 22959: s1 = u64 [a2 + 0x8]\n 22962: t1 = u64 [a1 + 0x8]\n 22965: t2 = u64 [a2 + 0x10]\n 22968: a5 = u64 [a1 + 0x10]\n 22971: a2 = u64 [a2 + 0x18]\n 22974: a1 = u64 [a1 + 0x18]\n 22977: t0 = t1 ^ s1\n 22980: u64 [sp + 0x8] = s1\n 22983: s1 = t1 <u s1\n 22986: u64 [sp + 0x18] = a4\n 22989: u64 [sp + 0x10] = a3\n 22992: a3 = a3 <u a4\n 22995: u64 [sp] = a3\n 22997: s1 = a3 if t0 == 0\n 23000: a3 = a1 ^ a2\n 23003: ra = a1 <u a2\n 23006: t0 = a5 <u t2\n 23009: ra = t0 if a3 == 0\n 23012: a4 = a5 ^ t2\n 23015: a3 = a3 | a4\n 23018: ra = s1 if a3 == 0\n 23021: jump @784 if ra != 0\n      : @783 (gas: 23)\n 23024: a3 = a5 - t2\n 23027: a1 = a1 - a2\n 23030: a1 = a1 - t0\n 23033: a2 = a3 <u s1\n 23036: a1 = a1 - a2\n 23039: a3 = a3 - s1\n 23042: a2 = u64 [sp + 0x8]\n 23045: a2 = t1 - a2\n 23048: a4 = u64 [sp]\n 23050: a2 = a2 - a4\n 23053: a4 = u64 [sp + 0x18]\n 23056: a5 = u64 [sp + 0x10]\n 23059: a4 = a5 - a4\n 23062: u64 [a0] = a4\n 23064: u64 [a0 + 0x8] = a2\n 23067: u64 [a0 + 0x10] = a3\n 23070: u64 [a0 + 0x18] = a1\n 23073: sp = s0 + 0xffffffffffffff80\n 23076: ra = u64 [sp + 0x78]\n 23079: s0 = u64 [sp + 0x70]\n 23082: s1 = u64 [sp + 0x68]\n 23085: sp = sp + 0x80\n 23089: ret\n      : @784 (gas: 6)\n 23091: u64 [sp + 80] = 0\n 23094: u64 [sp + 72] = 0\n 23097: u64 [sp + 64] = 0\n 23100: t0 = 0x30c\n 23104: a0 = 0x4e487b7100000000\n 23114: fallthrough\n      : @785 [@dyn 390] (gas: 4)\n 23115: a1 = sp + 0x40\n 23118: u64 [sp + 0x58] = a0\n 23121: a0 = 0\n 23123: ra = 782, jump @9\n      : @786 [@dyn 391] (gas: 7)\n 23129: u64 [sp + 56] = 0\n 23132: u64 [sp + 48] = 0\n 23135: u64 [sp + 32] = 0x11\n 23139: a0 = 0x4\n 23142: a1 = sp + 0x20\n 23145: u64 [sp + 40] = 0\n 23148: ra = 784, jump @9\n      : @787 [@dyn 392] (gas: 2)\n 23154: a1 = i32 [0x201c8]\n 23159: jump @789 if a1 >u 63\n      : @788 (gas: 2)\n 23163: u32 [0x201c8] = 0x40\n 23169: fallthrough\n      : @789 (gas: 7)\n 23170: a1 = 0x201d0\n 23175: i32 a1 = a1 + 0\n 23177: a0 = 0x1\n 23180: a2 = 0x24\n 23183: ra = 0x312\n 23187: ecalli 13 // 'seal_return'\n 23189: fallthrough\n      : @790 [@dyn 393] (gas: 19)\n 23190: sp = sp + 0xffffffffffffff90\n 23193: u64 [sp + 0x68] = ra\n 23196: u64 [sp + 0x60] = s0\n 23199: s0 = sp + 0x70\n 23202: sp = sp & 0xfffffffffffffff0\n 23205: a3 = u64 [a0 + 0x18]\n 23208: a2 = u64 [a0 + 0x10]\n 23211: t1 = u64 [a0]\n 23213: a0 = u64 [a0 + 0x8]\n 23216: a4 = a3 >u 0\n 23218: a5 = a2 >u 0\n 23220: a5 = a4 if a3 != 0\n 23223: t0 = a0 >u 0\n 23225: a4 = t1 <u 0xffffffffffffffa0\n 23228: a4 = a4 ^ 0x1\n 23231: a4 = t0 if a0 != 0\n 23234: a1 = a2 | a3\n 23237: a4 = a5 if a1 != 0\n 23240: jump @793 if a4 != 0\n      : @791 (gas: 15)\n 23243: a1 = t1 + 0x60\n 23246: a4 = a1 <u t1\n 23249: a5 = a0 + a4\n 23252: a0 = a5 <u a0\n 23255: a0 = a4 if a4 == 0\n 23258: a0 = a0 + a2\n 23261: a2 = a0 <u a2\n 23264: a2 = a2 + a3\n 23267: u64 [sp + 0x40] = a1\n 23270: u64 [sp + 0x48] = a5\n 23273: u64 [sp + 0x50] = a0\n 23276: a0 = 0x40\n 23279: a1 = sp + a0\n 23282: u64 [sp + 0x58] = a2\n 23285: ra = 788, jump @9\n      : @792 [@dyn 394] (gas: 5)\n 23291: sp = s0 + 0xffffffffffffff90\n 23294: ra = u64 [sp + 0x68]\n 23297: s0 = u64 [sp + 0x60]\n 23300: sp = sp + 0x70\n 23303: ret\n      : @793 (gas: 6)\n 23305: u64 [sp + 48] = 0\n 23308: u64 [sp + 40] = 0\n 23311: u64 [sp + 32] = 0\n 23314: t0 = 0x316\n 23318: a0 = 0x4e487b7100000000\n 23328: fallthrough\n      : @794 [@dyn 395] (gas: 4)\n 23329: a1 = sp + 0x20\n 23332: u64 [sp + 0x38] = a0\n 23335: a0 = 0\n 23337: ra = 792, jump @9\n      : @795 [@dyn 396] (gas: 7)\n 23343: u64 [sp + 24] = 0\n 23346: u64 [sp + 16] = 0\n 23349: u64 [sp + 0] = 0x41\n 23352: a0 = 0x4\n 23355: a1 = sp\n 23357: u64 [sp + 8] = 0\n 23360: ra = 794, jump @9\n      : @796 [@dyn 397] (gas: 2)\n 23366: a1 = i32 [0x201c8]\n 23371: jump @798 if a1 >u 63\n      : @797 (gas: 2)\n 23375: u32 [0x201c8] = 0x40\n 23381: fallthrough\n      : @798 (gas: 7)\n 23382: a1 = 0x201d0\n 23387: i32 a1 = a1 + 0\n 23389: a0 = 0x1\n 23392: a2 = 0x24\n 23395: ra = 0x31c\n 23399: ecalli 13 // 'seal_return'\n 23401: fallthrough\n      : @799 [@dyn 398] (gas: 46)\n 23402: sp = sp + 0xffffffffffffff70\n 23406: u64 [sp + 0x88] = ra\n 23410: u64 [sp + 0x80] = s0\n 23414: u64 [sp + 0x78] = s1\n 23417: s0 = sp + 0x90\n 23421: sp = sp & 0xfffffffffffffff0\n 23424: t0 = a0\n 23426: a2 = u64 [a1]\n 23428: t2 = u64 [a0 + 0x8]\n 23431: a5 = u64 [a1 + 0x8]\n 23434: t1 = u64 [a0]\n 23436: a3 = a2 + 0x1f\n 23439: ra = a3 <u a2\n 23442: a2 = a5 + ra\n 23445: a3 = a3 & 0xffffffffffffffe0\n 23448: u64 [sp + 0x8] = t1\n 23451: t1 = t1 + a3\n 23454: a4 = t1 <u a3\n 23457: a3 = a2 + t2\n 23460: a3 = a3 + a4\n 23463: s1 = a3 ^ a2\n 23466: a0 = a3 <u a2\n 23469: a0 = a4 if s1 == 0\n 23472: a4 = u64 [t0 + 0x18]\n 23475: a5 = a2 <u a5\n 23478: s1 = u64 [a1 + 0x10]\n 23481: t0 = u64 [t0 + 0x10]\n 23484: a1 = u64 [a1 + 0x18]\n 23487: a5 = ra if ra == 0\n 23490: a5 = a5 + s1\n 23493: s1 = a5 <u s1\n 23496: a2 = a5 + t0\n 23499: a0 = a0 + a2\n 23502: a5 = a2 <u a5\n 23505: a2 = a0 <u a2\n 23508: a1 = a1 + a4\n 23511: a1 = a1 + s1\n 23514: a1 = a1 + a5\n 23517: a5 = a1 + a2\n 23520: a1 = a5 >u 0\n 23522: a2 = a0 >u 0\n 23524: a2 = a1 if a5 != 0\n 23527: a1 = a0 | a5\n 23530: s1 = a3 >u 0\n 23532: s1 = a2 if a1 != 0\n 23535: jump @803 if s1 != 0\n      : @800 (gas: 13)\n 23538: a1 = u64 [sp + 0x8]\n 23541: a1 = t1 <u a1\n 23544: a2 = a3 ^ t2\n 23547: s1 = a3 <u t2\n 23550: s1 = a1 if a2 == 0\n 23553: a1 = a0 <u t0\n 23556: a2 = a5 ^ a4\n 23559: a4 = a5 <u a4\n 23562: a4 = a1 if a2 == 0\n 23565: a1 = a0 ^ t0\n 23568: a1 = a1 | a2\n 23571: a4 = s1 if a1 == 0\n 23574: jump @803 if a4 != 0\n      : @801 (gas: 7)\n 23577: u64 [sp + 0x50] = t1\n 23580: u64 [sp + 0x58] = a3\n 23583: u64 [sp + 0x60] = a0\n 23586: a0 = 0x40\n 23589: a1 = sp + 0x50\n 23592: u64 [sp + 0x68] = a5\n 23595: ra = 798, jump @9\n      : @802 [@dyn 399] (gas: 6)\n 23601: sp = s0 + 0xffffffffffffff70\n 23605: ra = u64 [sp + 0x88]\n 23609: s0 = u64 [sp + 0x80]\n 23613: s1 = u64 [sp + 0x78]\n 23616: sp = sp + 0x90\n 23620: ret\n      : @803 (gas: 6)\n 23622: u64 [sp + 64] = 0\n 23625: u64 [sp + 56] = 0\n 23628: u64 [sp + 48] = 0\n 23631: t0 = 0x320\n 23635: a0 = 0x4e487b7100000000\n 23645: fallthrough\n      : @804 [@dyn 400] (gas: 4)\n 23646: a1 = sp + 0x30\n 23649: u64 [sp + 0x48] = a0\n 23652: a0 = 0\n 23654: ra = 802, jump @9\n      : @805 [@dyn 401] (gas: 7)\n 23660: u64 [sp + 40] = 0\n 23663: u64 [sp + 32] = 0\n 23666: u64 [sp + 16] = 0x41\n 23670: a0 = 0x4\n 23673: a1 = sp + 0x10\n 23676: u64 [sp + 24] = 0\n 23679: ra = 804, jump @9\n      : @806 [@dyn 402] (gas: 2)\n 23685: a1 = i32 [0x201c8]\n 23690: jump @808 if a1 >u 63\n      : @807 (gas: 2)\n 23694: u32 [0x201c8] = 0x40\n 23700: fallthrough\n      : @808 (gas: 7)\n 23701: a1 = 0x201d0\n 23706: i32 a1 = a1 + 0\n 23708: a0 = 0x1\n 23711: a2 = 0x24\n 23714: ra = 0x326\n 23718: ecalli 13 // 'seal_return'\n 23720: fallthrough\n      : @809 [@dyn 403] (gas: 53)\n 23721: sp = sp + 0xffffffffffffff90\n 23724: u64 [sp + 0x68] = ra\n 23727: u64 [sp + 0x60] = s0\n 23730: u64 [sp + 0x58] = s1\n 23733: s0 = sp + 0x70\n 23736: sp = sp & 0xfffffffffffffff0\n 23739: a3 = a1\n 23741: t2 = u64 [a1 + 0x10]\n 23744: a1 = u64 [a1 + 0x8]\n 23747: t0 = u64 [a2 + 0x8]\n 23750: s1 = u64 [a3]\n 23752: u64 [sp] = s1\n 23754: a4 = u64 [a2]\n 23756: u64 [sp + 0x8] = a4\n 23759: ra = u64 [a2 + 0x10]\n 23762: a5 = t0 ^ a1\n 23765: u64 [sp + 0x28] = a5\n 23768: a5 = t0 <u a1\n 23771: a4 = a4 <u s1\n 23774: t1 = u64 [sp + 0x28]\n 23777: a5 = a4 if t1 == 0\n 23780: s1 = a4\n 23782: a3 = u64 [a3 + 0x18]\n 23785: u64 [sp + 0x18] = a3\n 23788: a2 = u64 [a2 + 0x18]\n 23791: u64 [sp + 0x10] = a2\n 23794: a3 = ra - t2\n 23797: a2 = a3 - a5\n 23800: u64 [sp + 0x20] = a2\n 23803: a2 = a3 <u a5\n 23806: u64 [sp + 0x28] = t2\n 23809: a4 = ra <u t2\n 23812: t2 = u64 [sp + 0x18]\n 23815: a3 = u64 [sp + 0x10]\n 23818: a3 = a3 - t2\n 23821: a3 = a3 - a4\n 23824: a3 = a3 - a2\n 23827: a2 = t0 - a1\n 23830: a2 = a2 - s1\n 23833: t0 = u64 [sp]\n 23835: a4 = u64 [sp + 0x8]\n 23838: a4 = a4 - t0\n 23841: a5 = a2 >u 0\n 23843: a4 = a4 <u 0x20\n 23846: a4 = a4 ^ 0x1\n 23849: a4 = a5 if a2 != 0\n 23852: s1 = a3 >s 0\n 23854: a2 = u64 [sp + 0x20]\n 23857: a5 = a2 >u 0\n 23859: a5 = s1 if a3 != 0\n 23862: a2 = a2 | a3\n 23865: a4 = a5 if a2 != 0\n 23868: jump @815 if a4 == 0\n      : @810 (gas: 10)\n 23871: s1 = a0\n 23873: a3 = u64 [sp + 0x28]\n 23876: a0 = t0 | a3\n 23879: a2 = a1 | t2\n 23882: a0 = a0 | a2\n 23885: a0 = a0 >> 0x20\n 23888: a2 = a2 | a3\n 23891: a2 = a2 << 0x20\n 23894: a0 = a0 | a2\n 23897: jump @814 if a0 != 0\n      : @811 (gas: 3)\n 23900: a0 = sp + 0x30\n 23903: a1 = t0\n 23905: ra = 808, jump @7\n      : @812 [@dyn 404] (gas: 9)\n 23911: a0 = u64 [sp + 0x48]\n 23914: a1 = u64 [sp + 0x40]\n 23917: a2 = u64 [sp + 0x30]\n 23920: a3 = u64 [sp + 0x38]\n 23923: a4 = a1 | a0\n 23926: a5 = a2 <u 0x2\n 23929: a5 = 0 if a3 != 0\n 23931: a5 = 0 if a4 != 0\n 23933: jump @816 if a5 == 0\n      : @813 (gas: 10)\n 23936: u64 [s1] = a2\n 23938: u64 [s1 + 0x8] = a3\n 23941: u64 [s1 + 0x10] = a1\n 23944: u64 [s1 + 0x18] = a0\n 23947: sp = s0 + 0xffffffffffffff90\n 23950: ra = u64 [sp + 0x68]\n 23953: s0 = u64 [sp + 0x60]\n 23956: s1 = u64 [sp + 0x58]\n 23959: sp = sp + 0x70\n 23962: ret\n      : @814 (gas: 1)\n 23964: trap\n      : @815 (gas: 2)\n 23965: a1 = 0x201d0\n 23970: jump @817\n      : @816 (gas: 2)\n 23972: a1 = 0x201d0\n 23977: fallthrough\n      : @817 (gas: 6)\n 23978: i32 a1 = a1 + 0\n 23980: a0 = 0x1\n 23983: a2 = 0\n 23985: ra = 0x32a\n 23989: ecalli 13 // 'seal_return'\n 23991: fallthrough\n      : @818 [@dyn 405] (gas: 22)\n 23992: sp = sp + 0xffffffffffffff50\n 23996: u64 [sp + 0xa8] = ra\n 24000: u64 [sp + 0xa0] = s0\n 24004: u64 [sp + 0x98] = s1\n 24008: s0 = sp + 0xb0\n 24012: sp = sp & 0xfffffffffffffff0\n 24015: a5 = u64 [a1 + 0x10]\n 24018: a4 = u64 [a1 + 0x18]\n 24021: s1 = u64 [a1 + 0x8]\n 24024: t0 = u64 [a1]\n 24026: u64 [sp + 0x40] = a4\n 24029: u64 [sp + 0x38] = s1\n 24032: a1 = s1 | a4\n 24035: a4 = t0 | a5\n 24038: a4 = a4 | a1\n 24041: a4 = a4 >> 0x20\n 24044: u64 [sp + 0x48] = a5\n 24047: a1 = a1 | a5\n 24050: a1 = a1 << 0x20\n 24053: a1 = a1 | a4\n 24056: u64 [sp + 0x30] = a0\n 24059: jump @823 if a1 != 0\n      : @819 (gas: 21)\n 24063: s1 = t0\n 24065: a0 = u64 [a3 + 0x18]\n 24068: u64 [sp + 0x28] = a0\n 24071: a0 = u64 [a3 + 0x10]\n 24074: u64 [sp + 0x20] = a0\n 24077: a0 = u64 [a3 + 0x8]\n 24080: u64 [sp + 0x18] = a0\n 24083: a0 = u64 [a3]\n 24085: u64 [sp + 0x10] = a0\n 24088: a0 = u64 [a2 + 0x10]\n 24091: a1 = u64 [a2 + 0x8]\n 24094: a2 = u64 [a2]\n 24096: a0 = a0 << 0x20\n 24099: a0 = a0 >> 0x20\n 24102: u64 [sp + 136] = 0\n 24106: u64 [sp + 0x70] = a2\n 24109: u64 [sp + 0x78] = a1\n 24112: a1 = sp + 0x70\n 24115: u64 [sp + 0x80] = a0\n 24119: a0 = t0\n 24121: ra = 812, jump @9\n      : @820 [@dyn 406] (gas: 9)\n 24127: a2 = u64 [sp + 0x48]\n 24130: a3 = u64 [sp + 0x40]\n 24133: a0 = a2 | a3\n 24136: a1 = 0xffffffe0\n 24146: a1 = s1 <u a1\n 24149: a4 = u64 [sp + 0x38]\n 24152: a1 = 0 if a4 != 0\n 24154: a1 = 0 if a0 != 0\n 24156: jump @823 if a1 == 0\n      : @821 (gas: 23)\n 24159: a0 = s1 + 0x40\n 24162: u64 [sp + 0x8] = a0\n 24165: a0 = a0 <u s1\n 24168: a1 = a4 + a0\n 24171: u64 [sp] = a1\n 24173: a1 = a1 <u a4\n 24176: a1 = a0 if a0 == 0\n 24179: a1 = a1 + a2\n 24182: u64 [sp + 0x38] = a1\n 24185: a0 = a1 <u a2\n 24188: a0 = a0 + a3\n 24191: u64 [sp + 0x48] = a0\n 24194: i32 a0 = s1 + 0x20\n 24197: a1 = u64 [sp + 0x10]\n 24200: u64 [sp + 0x50] = a1\n 24203: a1 = u64 [sp + 0x18]\n 24206: u64 [sp + 0x58] = a1\n 24209: a1 = u64 [sp + 0x20]\n 24212: u64 [sp + 0x60] = a1\n 24215: a1 = sp + 0x50\n 24218: a2 = u64 [sp + 0x28]\n 24221: u64 [sp + 0x68] = a2\n 24224: ra = 814, jump @9\n      : @822 [@dyn 407] (gas: 15)\n 24230: a0 = u64 [sp + 0x30]\n 24233: a1 = u64 [sp + 0x38]\n 24236: u64 [a0 + 0x10] = a1\n 24239: a1 = u64 [sp]\n 24241: u64 [a0 + 0x8] = a1\n 24244: a1 = u64 [sp + 0x8]\n 24247: u64 [a0] = a1\n 24249: a1 = u64 [sp + 0x48]\n 24252: u64 [a0 + 0x18] = a1\n 24255: sp = s0 + 0xffffffffffffff50\n 24259: ra = u64 [sp + 0xa8]\n 24263: s0 = u64 [sp + 0xa0]\n 24267: s1 = u64 [sp + 0x98]\n 24271: sp = sp + 0xb0\n 24275: ret\n      : @823 (gas: 1)\n 24277: trap\n      : @824 (gas: 23)\n 24278: sp = sp + 0xffffffffffffff10\n 24282: u64 [sp + 0xe8] = ra\n 24286: u64 [sp + 0xe0] = s0\n 24290: u64 [sp + 0xd8] = s1\n 24294: s0 = sp + 0xf0\n 24298: sp = sp & 0xfffffffffffffff0\n 24301: s1 = u64 [a1 + 0x10]\n 24304: t0 = u64 [a1 + 0x18]\n 24307: a5 = u64 [a1 + 0x8]\n 24310: a1 = u64 [a1]\n 24312: u64 [sp + 0x68] = a5\n 24315: u64 [sp + 0x58] = t0\n 24318: t1 = a5 | t0\n 24321: t0 = a1\n 24323: a5 = a1 | s1\n 24326: a5 = a5 | t1\n 24329: a5 = a5 >> 0x20\n 24332: u64 [sp + 0x60] = s1\n 24335: a1 = t1 | s1\n 24338: a1 = a1 << 0x20\n 24341: a1 = a1 | a5\n 24344: u64 [sp + 0x50] = a0\n 24347: jump @831 if a1 != 0\n      : @825 (gas: 27)\n 24351: a0 = u64 [a4 + 0x18]\n 24354: u64 [sp + 0x20] = a0\n 24357: a0 = u64 [a4 + 0x10]\n 24360: u64 [sp + 0x18] = a0\n 24363: a0 = u64 [a4 + 0x8]\n 24366: u64 [sp + 0x10] = a0\n 24369: a0 = u64 [a4]\n 24371: u64 [sp + 0x8] = a0\n 24374: a0 = u64 [a3 + 0x10]\n 24377: u64 [sp + 0x30] = a0\n 24380: a0 = u64 [a3 + 0x8]\n 24383: u64 [sp + 0x38] = a0\n 24386: a0 = u64 [a3]\n 24388: u64 [sp + 0x40] = a0\n 24391: a0 = u64 [a2 + 0x10]\n 24394: a1 = u64 [a2 + 0x8]\n 24397: a2 = u64 [a2]\n 24399: a0 = a0 << 0x20\n 24402: a0 = a0 >> 0x20\n 24405: u64 [sp + 200] = 0\n 24409: u64 [sp + 0xb0] = a2\n 24413: u64 [sp + 0xb8] = a1\n 24417: a1 = sp + 0xb0\n 24421: u64 [sp + 0xc0] = a0\n 24425: s1 = t0\n 24427: a0 = t0\n 24429: ra = 816, jump @9\n      : @826 [@dyn 408] (gas: 12)\n 24435: a0 = u64 [sp + 0x60]\n 24438: a1 = u64 [sp + 0x58]\n 24441: a2 = a0 | a1\n 24444: a0 = 0x100000000\n 24454: u64 [sp + 0x28] = a0\n 24457: a0 = 0xffffffe0\n 24467: a0 = s1 <u a0\n 24470: a1 = u64 [sp + 0x68]\n 24473: a0 = 0 if a1 != 0\n 24475: u64 [sp + 0x48] = a2\n 24478: a0 = 0 if a2 != 0\n 24480: jump @831 if a0 == 0\n      : @827 (gas: 14)\n 24484: a1 = 0xffffffff\n 24494: a2 = u64 [sp + 0x30]\n 24497: a2 = a2 & a1\n 24500: a1 = u64 [sp + 0x38]\n 24503: a1 = a1 & 0xffffffffffffffff\n 24506: a3 = u64 [sp + 0x40]\n 24509: a3 = a3 & 0xffffffffffffffff\n 24512: i32 a0 = s1 + 0x20\n 24515: u64 [sp + 168] = 0\n 24519: u64 [sp + 0x90] = a3\n 24523: u64 [sp + 0x98] = a1\n 24527: a1 = sp + 0x90\n 24531: u64 [sp + 0xa0] = a2\n 24535: ra = 818, jump @9\n      : @828 [@dyn 409] (gas: 8)\n 24541: a0 = u64 [sp + 0x28]\n 24544: a0 = a0 + 0xffffffffffffffc0\n 24547: a0 = s1 <u a0\n 24550: a1 = u64 [sp + 0x68]\n 24553: a0 = 0 if a1 != 0\n 24555: a1 = u64 [sp + 0x48]\n 24558: a0 = 0 if a1 != 0\n 24560: jump @831 if a0 == 0\n      : @829 (gas: 26)\n 24564: a0 = s1 + 0x60\n 24567: u64 [sp + 0x48] = a0\n 24570: a0 = a0 <u s1\n 24573: a1 = u64 [sp + 0x68]\n 24576: a2 = a1 + a0\n 24579: u64 [sp + 0x40] = a2\n 24582: a1 = a2 <u a1\n 24585: a1 = a0 if a0 == 0\n 24588: a0 = u64 [sp + 0x60]\n 24591: a1 = a1 + a0\n 24594: u64 [sp + 0x38] = a1\n 24597: a0 = a1 <u a0\n 24600: a1 = u64 [sp + 0x58]\n 24603: a0 = a0 + a1\n 24606: u64 [sp + 0x68] = a0\n 24609: i32 a0 = s1 + 0x40\n 24612: a1 = u64 [sp + 0x8]\n 24615: u64 [sp + 0x70] = a1\n 24618: a1 = u64 [sp + 0x10]\n 24621: u64 [sp + 0x78] = a1\n 24624: a1 = u64 [sp + 0x18]\n 24627: u64 [sp + 0x80] = a1\n 24631: a1 = sp + 0x70\n 24634: a2 = u64 [sp + 0x20]\n 24637: u64 [sp + 0x88] = a2\n 24641: ra = 820, jump @9\n      : @830 [@dyn 410] (gas: 15)\n 24647: a0 = u64 [sp + 0x50]\n 24650: a1 = u64 [sp + 0x38]\n 24653: u64 [a0 + 0x10] = a1\n 24656: a1 = u64 [sp + 0x40]\n 24659: u64 [a0 + 0x8] = a1\n 24662: a1 = u64 [sp + 0x48]\n 24665: u64 [a0] = a1\n 24667: a1 = u64 [sp + 0x68]\n 24670: u64 [a0 + 0x18] = a1\n 24673: sp = s0 + 0xffffffffffffff10\n 24677: ra = u64 [sp + 0xe8]\n 24681: s0 = u64 [sp + 0xe0]\n 24685: s1 = u64 [sp + 0xd8]\n 24689: sp = sp + 0xf0\n 24693: ret\n      : @831 (gas: 1)\n 24695: trap\n      : @832 [@dyn 411] (gas: 7)\n 24696: u64 [s1 + 632] = 0\n 24700: u64 [s1 + 624] = 0\n 24704: u64 [s1 + 608] = 0x3\n 24709: a0 = 0x20\n 24712: a1 = s1 + 0x260\n 24716: u64 [s1 + 616] = 0\n 24720: ra = 824, jump @9\n      : @833 [@dyn 412] (gas: 3)\n 24726: a2 = 0x201c8\n 24731: a0 = i32 [0x201c8]\n 24736: jump @835 if a0 >u 63\n      : @834 (gas: 2)\n 24740: u32 [0x201c8] = 0x40\n 24746: fallthrough\n      : @835 (gas: 15)\n 24747: u64 [s1 + 0x50] = a2\n 24750: a0 = sp + 0xffffffffffffffe0\n 24753: a2 = a0 & 0xffffffffffffffe0\n 24756: u64 [s1 + 0xb8] = a2\n 24760: sp = a2\n 24762: a0 = 0x201d0\n 24767: i32 a0 = a0 + 0\n 24769: i32 a2 = a2 + 0\n 24771: a1 = 0x40\n 24774: u64 [s1 + 0x30] = a0\n 24777: ra = 0x33a\n 24781: ecalli 9 // 'hash_keccak_256'\n 24783: a3 = u64 [s1 + 0xb8]\n 24787: t0 = 0x33c\n 24791: jump @915\n      : @836 [@dyn 413] (gas: 2)\n 24794: a3 = u64 [s1 + 0xb8]\n 24798: t0 = 828, jump @915\n      : @837 [@dyn 414] (gas: 11)\n 24804: u64 [s1 + 0x90] = a1\n 24808: u64 [s1 + 0x2b8] = a1\n 24812: u64 [s1 + 0x98] = a0\n 24816: u64 [s1 + 0x2b0] = a0\n 24820: u64 [s1 + 0x88] = a4\n 24824: u64 [s1 + 0x2a8] = a4\n 24828: u64 [s1 + 0x80] = a5\n 24832: u64 [s1 + 0x2a0] = a5\n 24836: a0 = s1 + 0x240\n 24840: a1 = 0x40\n 24843: ra = 830, jump @7\n      : @838 [@dyn 415] (gas: 15)\n 24849: a4 = s1 + 0x200\n 24853: a0 = u64 [a4 + 0x58]\n 24856: u64 [s1 + 0xa8] = a0\n 24860: a1 = u64 [a4 + 0x50]\n 24863: u64 [s1 + 0xa0] = a1\n 24867: a3 = u64 [a4 + 0x48]\n 24870: u64 [s1 + 0xb0] = a3\n 24874: a2 = u64 [a4 + 0x40]\n 24877: u64 [s1 + 0xb8] = a2\n 24881: u64 [a4 + 0x38] = a0\n 24884: u64 [a4 + 0x30] = a1\n 24887: u64 [a4 + 0x28] = a3\n 24890: a0 = s1 + 0x220\n 24894: u64 [a4 + 0x20] = a2\n 24897: ra = 832, jump @790\n      : @839 [@dyn 416] (gas: 3)\n 24903: a0 = s1 + 0x200\n 24907: a1 = s1 + 0x2a0\n 24911: ra = 834, jump @11\n      : @840 [@dyn 417] (gas: 6)\n 24917: a0 = u64 [s1 + 0xa8]\n 24921: a1 = u64 [s1 + 0xb0]\n 24925: a0 = a0 | a1\n 24928: a2 = u64 [s1 + 0xa0]\n 24932: a1 = u64 [s1 + 0xb8]\n 24936: t0 = 836, jump @914\n      : @841 [@dyn 418] (gas: 1)\n 24942: jump @873 if a0 != 0\n      : @842 (gas: 16)\n 24946: a2 = u64 [s1 + 0x218]\n 24950: a3 = u64 [s1 + 0x210]\n 24954: a1 = u64 [s1 + 0x208]\n 24958: a0 = u64 [s1 + 0x200]\n 24962: u64 [s1 + 0x78] = a0\n 24965: a4 = s1 + 0x100\n 24969: u64 [a4 + 0xe0] = a0\n 24973: u64 [s1 + 0x68] = a1\n 24976: u64 [a4 + 0xe8] = a1\n 24980: u64 [s1 + 0x58] = a3\n 24983: u64 [a4 + 0xf0] = a3\n 24987: a1 = s1 + 0x1e0\n 24991: u64 [s1 + 0x70] = a2\n 24994: u64 [a4 + 0xf8] = a2\n 24998: a0 = u64 [s1 + 0xb8]\n 25002: ra = 838, jump @9\n      : @843 [@dyn 419] (gas: 20)\n 25008: a0 = u64 [s1 + 0x80]\n 25012: a0 = a0 + 0x1\n 25015: a1 = a0 <u 0x1\n 25018: a2 = u64 [s1 + 0x88]\n 25022: a1 = a1 + a2\n 25025: a2 = a0 | a1\n 25028: a2 = a2 <u 0x1\n 25031: a3 = u64 [s1 + 0x98]\n 25035: a2 = a2 + a3\n 25038: a3 = a2 <u a3\n 25041: a4 = u64 [s1 + 0x90]\n 25045: a3 = a3 + a4\n 25048: a4 = s1 + 0x200\n 25052: u64 [a4 + 0xc8] = a1\n 25056: u64 [a4 + 0xc0] = a0\n 25060: u64 [a4 + 0xd0] = a2\n 25064: u64 [a4 + 0xd8] = a3\n 25068: a0 = s1 + 0x1c0\n 25072: a1 = s1 + 0x2c0\n 25076: ra = 840, jump @11\n      : @844 [@dyn 420] (gas: 13)\n 25082: a0 = u64 [s1 + 0xa8]\n 25086: a1 = u64 [s1 + 0xa0]\n 25090: a2 = a1 | a0\n 25093: a0 = 0x100000000\n 25103: u64 [s1 + 0xa0] = a0\n 25107: a0 = 0xffffffe0\n 25117: a1 = u64 [s1 + 0xb8]\n 25121: a0 = a1 <u a0\n 25124: a1 = u64 [s1 + 0xb0]\n 25128: a0 = 0 if a1 != 0\n 25130: u64 [s1 + 0xa8] = a2\n 25134: a0 = 0 if a2 != 0\n 25136: jump @873 if a0 == 0\n      : @845 (gas: 13)\n 25140: a5 = s1 + 0x100\n 25144: a2 = u64 [a5 + 0xd8]\n 25148: a1 = u64 [a5 + 0xd0]\n 25152: a3 = u64 [a5 + 0xc8]\n 25156: a4 = u64 [a5 + 0xc0]\n 25160: a0 = u64 [s1 + 0xb8]\n 25164: i32 a0 = a0 + 0x20\n 25167: u64 [a5 + 0xa0] = a4\n 25171: u64 [a5 + 0xa8] = a3\n 25175: u64 [a5 + 0xb0] = a1\n 25179: a1 = s1 + 0x1a0\n 25183: u64 [a5 + 0xb8] = a2\n 25187: ra = 842, jump @9\n      : @846 [@dyn 421] (gas: 5)\n 25193: a1 = u64 [s1 + 0x80]\n 25197: a0 = a1 + 0x2\n 25200: a1 = a0 <u a1\n 25203: a3 = u64 [s1 + 0x88]\n 25207: t0 = 844, jump @920\n      : @847 [@dyn 422] (gas: 13)\n 25213: a1 = u64 [s1 + 0x98]\n 25217: a3 = a3 + a1\n 25220: a1 = a3 <u a1\n 25223: a4 = u64 [s1 + 0x90]\n 25227: a1 = a1 + a4\n 25230: a4 = s1 + 0x200\n 25234: u64 [a4 + 0xe8] = a2\n 25238: u64 [a4 + 0xe0] = a0\n 25242: u64 [a4 + 0xf0] = a3\n 25246: u64 [a4 + 0xf8] = a1\n 25250: a0 = s1 + 0x180\n 25254: a1 = s1 + 0x2e0\n 25258: ra = 846, jump @11\n      : @848 [@dyn 423] (gas: 9)\n 25264: a0 = u64 [s1 + 0xa0]\n 25268: a0 = a0 + 0xffffffffffffffc0\n 25271: a1 = u64 [s1 + 0xb8]\n 25275: a0 = a1 <u a0\n 25278: a1 = u64 [s1 + 0xb0]\n 25282: a0 = 0 if a1 != 0\n 25284: a1 = u64 [s1 + 0xa8]\n 25288: a0 = 0 if a1 != 0\n 25290: jump @873 if a0 == 0\n      : @849 (gas: 12)\n 25294: a0 = u64 [s1 + 0x180]\n 25298: a0 = a0 & 0xff\n 25302: u64 [s1 + 0xb0] = a0\n 25306: a1 = a0 >u 0\n 25308: a0 = u64 [s1 + 0xb8]\n 25312: i32 a0 = a0 + 0x40\n 25315: u64 [s1 + 376] = 0\n 25319: u64 [s1 + 368] = 0\n 25323: u64 [s1 + 0x160] = a1\n 25327: a1 = s1 + 0x160\n 25331: u64 [s1 + 360] = 0\n 25335: ra = 848, jump @9\n      : @850 [@dyn 424] (gas: 2)\n 25341: a0 = u64 [s1 + 0xb0]\n 25345: jump @869 if a0 == 0\n      : @851 (gas: 24)\n 25349: t1 = 0x64\n 25352: t0 = u64 [s1 + 0x78]\n 25355: a0 = t0 mulhu t1\n 25358: a4 = u64 [s1 + 0x68]\n 25361: a1 = a4 * t1\n 25364: a0 = a0 + a1\n 25367: u64 [s1 + 0x60] = a0\n 25370: a0 = a0 <u a1\n 25373: a1 = a4 mulhu t1\n 25376: a0 = a0 + a1\n 25379: a3 = u64 [s1 + 0x58]\n 25382: a1 = a3 * t1\n 25385: a1 = a1 + a0\n 25388: u64 [s1 + 0xb8] = a1\n 25392: a0 = a1 <u a0\n 25395: a1 = a3 mulhu t1\n 25398: a5 = u64 [s1 + 0x70]\n 25401: a2 = a5 * t1\n 25404: a2 = a2 + a1\n 25407: a3 = t0 | a3\n 25410: a4 = a4 | a5\n 25413: a3 = a3 | a4\n 25416: a4 = a2 + a0\n 25419: jump @853 if a3 == 0\n      : @852 (gas: 7)\n 25422: a0 = 0 if a4 != 0\n 25424: a1 = a2 <u a1\n 25427: a2 = a5 mulhu t1\n 25430: a2 = a2 >u 0\n 25432: a1 = a1 | a2\n 25435: a0 = a0 | a1\n 25438: jump @877 if a0 != 0\n      : @853 (gas: 8)\n 25442: u64 [s1 + 0x70] = a4\n 25445: u64 [s1 + 792] = 0\n 25449: u64 [s1 + 784] = 0\n 25453: u64 [s1 + 776] = 0\n 25457: u64 [s1 + 768] = 0x1\n 25462: a0 = s1 + 0x100\n 25466: a1 = s1 + 0x300\n 25470: ra = 850, jump @11\n      : @854 [@dyn 425] (gas: 8)\n 25476: a5 = u64 [s1 + 0x118]\n 25480: t0 = u64 [s1 + 0x110]\n 25484: t2 = u64 [s1 + 0x108]\n 25488: a4 = u64 [s1 + 0x100]\n 25492: a0 = t2 | a5\n 25495: a1 = a4 | t0\n 25498: a0 = a0 | a1\n 25501: jump @874 if a0 == 0\n      : @855 (gas: 75)\n 25505: a1 = u64 [s1 + 0x78]\n 25508: a1 = a1 * 0x64\n 25511: a0 = a0 <u 0x1\n 25514: a3 = u64 [s1 + 0xb8]\n 25518: a3 = a3 | a1\n 25521: ra = a1\n 25523: u64 [s1 + 0x68] = a1\n 25526: t1 = u64 [s1 + 0x60]\n 25529: a1 = u64 [s1 + 0x70]\n 25532: a2 = t1 | a1\n 25535: a2 = a2 | a3\n 25538: a2 = a2 <u 0x1\n 25541: a0 = a0 | a2\n 25544: u64 [s1 + 0xb0] = a0\n 25548: a0 = clz t0\n 25550: a0 = a0 + 0x40\n 25553: a3 = clz a5\n 25555: a3 = a0 if a5 == 0\n 25558: u64 [s1 + 0x38] = a4\n 25561: a0 = clz a4\n 25563: a0 = a0 + 0x40\n 25566: a4 = clz t2\n 25568: u64 [s1 + 0x40] = t2\n 25571: a4 = a0 if t2 == 0\n 25574: a0 = a4 + 0x80\n 25578: u64 [s1 + 0x50] = a5\n 25581: u64 [s1 + 0x48] = t0\n 25584: a2 = t0 | a5\n 25587: a3 = a0 if a2 == 0\n 25590: a4 = a0 <u a4\n 25593: a4 = 0 if a2 != 0\n 25595: t0 = u64 [s1 + 0xb8]\n 25599: a0 = clz t0\n 25601: a0 = a0 + 0x40\n 25604: a5 = clz a1\n 25606: a5 = a0 if a1 == 0\n 25609: a0 = clz ra\n 25611: a0 = a0 + 0x40\n 25614: a2 = clz t1\n 25616: a2 = a0 if t1 == 0\n 25619: a0 = a2 + 0x80\n 25623: t0 = t0 | a1\n 25626: a5 = a0 if t0 == 0\n 25629: a2 = a0 <u a2\n 25632: a2 = 0 if t0 != 0\n 25634: t0 = a4 ^ a2\n 25637: a0 = a4 <u a2\n 25640: ra = a3 <u a5\n 25643: a0 = ra if t0 == 0\n 25646: t2 = a0 <u 0x1\n 25649: t2 = t2 + 0xffffffffffffffff\n 25652: t0 = -a0\n 25654: a4 = a4 - a2\n 25657: ra = a4 - ra\n 25660: a5 = a3 - a5\n 25663: a3 = t0 >u 0\n 25665: a2 = t2 >u 0\n 25667: a2 = a3 if t2 == 0\n 25670: a4 = ra >u 0\n 25672: u64 [s1 + 0xa8] = a5\n 25676: a3 = a5 <u 0x100\n 25680: a3 = a3 ^ 0x1\n 25683: a3 = a4 if ra != 0\n 25686: a3 = a2 if a0 != 0\n 25689: a2 = u64 [s1 + 0xb0]\n 25693: a2 = a2 | a3\n 25696: a4 = a1\n 25698: a4 = 0 if a2 != 0\n 25700: a3 = u64 [s1 + 0xb8]\n 25704: a3 = 0 if a2 != 0\n 25706: a0 = t1\n 25708: a0 = 0 if a2 != 0\n 25710: a5 = u64 [s1 + 0x68]\n 25713: a5 = 0 if a2 != 0\n 25715: jump @872 if a2 != 0\n      : @856 (gas: 7)\n 25719: a1 = t1\n 25721: a2 = u64 [s1 + 0xa8]\n 25725: a2 = a2 ^ 0xff\n 25729: t1 = a2 | t0\n 25732: a2 = ra | t2\n 25735: a2 = t1 | a2\n 25738: jump @872 if a2 == 0\n      : @857 (gas: 18)\n 25742: a3 = u64 [s1 + 0xa8]\n 25746: a2 = a3 + 0x1\n 25749: u64 [s1 + 0xb0] = a2\n 25753: a0 = a2 <u 0x1\n 25756: a0 = a0 + ra\n 25759: u64 [s1 + 0x88] = a0\n 25763: a0 = a0 | a2\n 25766: a0 = a0 <u 0x1\n 25769: a0 = a0 + t0\n 25772: u64 [s1 + 0x78] = a0\n 25775: a0 = a0 <u t0\n 25778: a0 = a0 + t2\n 25781: u64 [s1 + 0x80] = a0\n 25785: a2 = 0xff - a3\n 25789: u64 [s1 + 0x90] = a2\n 25793: a2 = 0x80 - a2\n 25797: a0 = u64 [s1 + 0x68]\n 25800: ra = 852, jump @921\n      : @858 [@dyn 426] (gas: 6)\n 25806: u64 [s1 + 0xa0] = a0\n 25810: u64 [s1 + 0x98] = a1\n 25814: a0 = u64 [s1 + 0xb8]\n 25818: a1 = u64 [s1 + 0x70]\n 25821: a2 = u64 [s1 + 0x90]\n 25825: ra = 854, jump @926\n      : @859 [@dyn 427] (gas: 9)\n 25831: u64 [s1 + 0x58] = a0\n 25834: a0 = u64 [s1 + 0x98]\n 25838: a0 = a0 | a1\n 25841: u64 [s1 + 0x98] = a0\n 25845: a1 = u64 [s1 + 0xa8]\n 25849: a2 = 0x7f - a1\n 25852: a0 = u64 [s1 + 0x68]\n 25855: a1 = u64 [s1 + 0x60]\n 25858: ra = 856, jump @926\n      : @860 [@dyn 428] (gas: 18)\n 25864: a2 = u64 [s1 + 0x90]\n 25868: a3 = a2 <u 0x80\n 25872: u64 [s1 + 0xa8] = a3\n 25876: a4 = u64 [s1 + 0x98]\n 25880: a1 = a4 if a3 != 0\n 25883: a4 = u64 [s1 + 0x70]\n 25886: a1 = a4 if a2 == 0\n 25889: u64 [s1 + 0x98] = a1\n 25893: a1 = u64 [s1 + 0xa0]\n 25897: a4 = u64 [s1 + 0x58]\n 25900: a1 = a1 | a4\n 25903: a1 = a0 if a3 == 0\n 25906: a0 = u64 [s1 + 0xb8]\n 25910: a1 = a0 if a2 == 0\n 25913: u64 [s1 + 0xa0] = a1\n 25917: a0 = u64 [s1 + 0x68]\n 25920: a1 = u64 [s1 + 0x60]\n 25923: ra = 858, jump @926\n      : @861 [@dyn 429] (gas: 13)\n 25929: a5 = u64 [s1 + 0x78]\n 25932: a2 = u64 [s1 + 0x80]\n 25936: a3 = u64 [s1 + 0x88]\n 25940: a3 = a3 | a2\n 25943: a2 = u64 [s1 + 0xb0]\n 25947: a2 = a2 | a5\n 25950: a2 = a2 | a3\n 25953: a3 = u64 [s1 + 0xa8]\n 25957: a1 = 0 if a3 == 0\n 25959: u64 [s1 + 0x90] = a1\n 25963: a0 = 0 if a3 == 0\n 25965: u64 [s1 + 0xa8] = a0\n 25969: jump @870 if a2 == 0\n      : @862 (gas: 5)\n 25973: a0 = u64 [s1 + 0xb0]\n 25977: a2 = a0 + 0xffffffffffffff80\n 25980: a0 = u64 [s1 + 0xb8]\n 25984: a1 = u64 [s1 + 0x70]\n 25987: ra = 860, jump @921\n      : @863 [@dyn 430] (gas: 6)\n 25993: u64 [s1 + 0x58] = a0\n 25996: u64 [s1 + 0x28] = a1\n 25999: a0 = u64 [s1 + 0x68]\n 26002: a1 = u64 [s1 + 0x60]\n 26005: a2 = u64 [s1 + 0xb0]\n 26009: ra = 862, jump @921\n      : @864 [@dyn 431] (gas: 7)\n 26015: u64 [s1 + 0x20] = a0\n 26018: u64 [s1 + 0x30] = a1\n 26021: a1 = u64 [s1 + 0xb0]\n 26025: a2 = 0x80 - a1\n 26029: a0 = u64 [s1 + 0xb8]\n 26033: a1 = u64 [s1 + 0x70]\n 26036: ra = 864, jump @926\n      : @865 [@dyn 432] (gas: 21)\n 26042: a2 = u64 [s1 + 0x30]\n 26045: a1 = a1 | a2\n 26048: a3 = u64 [s1 + 0xb0]\n 26052: a4 = a3 <u 0x80\n 26056: u64 [s1 + 0x30] = a4\n 26059: a2 = u64 [s1 + 0x28]\n 26062: a1 = a2 if a4 == 0\n 26065: a2 = u64 [s1 + 0x60]\n 26068: a2 = a1 if a3 != 0\n 26071: u64 [s1 + 0x60] = a2\n 26074: a1 = u64 [s1 + 0x20]\n 26077: a0 = a0 | a1\n 26080: a1 = u64 [s1 + 0x58]\n 26083: a0 = a1 if a4 == 0\n 26086: a1 = u64 [s1 + 0x68]\n 26089: a1 = a0 if a3 != 0\n 26092: a2 = a3\n 26094: u64 [s1 + 0x68] = a1\n 26097: a0 = u64 [s1 + 0xb8]\n 26101: a1 = u64 [s1 + 0x70]\n 26104: ra = 866, jump @921\n      : @866 [@dyn 433] (gas: 24)\n 26110: t2 = 0\n 26112: a2 = u64 [s1 + 0x30]\n 26115: a1 = 0 if a2 == 0\n 26117: a0 = 0 if a2 == 0\n 26119: u64 [s1 + 0x70] = a0\n 26122: a2 = u64 [s1 + 0x38]\n 26125: a0 = a2 <u 0x1\n 26128: a3 = u64 [s1 + 0x40]\n 26131: a0 = a3 - a0\n 26134: u64 [s1 + 0x28] = a0\n 26137: a0 = a2 | a3\n 26140: a0 = a0 <u 0x1\n 26143: a3 = u64 [s1 + 0x48]\n 26146: a4 = a3 - a0\n 26149: u64 [s1 + 0x20] = a4\n 26152: a0 = a3 <u a0\n 26155: a3 = u64 [s1 + 0x50]\n 26158: a3 = a3 - a0\n 26161: u64 [s1 + 0x18] = a3\n 26164: a2 = a2 + 0xffffffffffffffff\n 26167: u64 [s1 + 0x10] = a2\n 26170: t1 = u64 [s1 + 0x60]\n 26173: ra = u64 [s1 + 0x68]\n 26176: fallthrough\n      : @867 (gas: 106)\n 26177: u64 [s1 + 0x58] = t2\n 26180: u64 [s1 + 96] = 0\n 26183: u64 [s1 + 48] = 0\n 26186: a4 = ra >> 0x3f\n 26189: a3 = t1 << 0x1\n 26192: t0 = a3 | a4\n 26195: a4 = ra << 0x1\n 26198: a3 = u64 [s1 + 0x98]\n 26202: a2 = a3 >> 0x3f\n 26205: a2 = a2 | a4\n 26208: u64 [s1 + 0x68] = a2\n 26211: a0 = u64 [s1 + 0x28]\n 26214: a5 = a0 ^ t0\n 26217: a4 = a0 <u t0\n 26220: a0 = u64 [s1 + 0x10]\n 26223: t2 = a0 <u a2\n 26226: t2 = a4 if a5 != 0\n 26229: a1 = a1 << 0x1\n 26232: a0 = u64 [s1 + 0x70]\n 26235: a2 = a0 >> 0x3f\n 26238: a1 = a1 | a2\n 26241: u64 [s1 + 0xb8] = a1\n 26245: a2 = t1 >> 0x3f\n 26248: a0 = a0 << 0x1\n 26251: t1 = a0 | a2\n 26254: a0 = a3 << 0x1\n 26257: a1 = u64 [s1 + 0xa0]\n 26261: a2 = a1 >> 0x3f\n 26264: a0 = a0 | a2\n 26267: a2 = a1 << 0x1\n 26270: a1 = u64 [s1 + 0x90]\n 26274: a4 = a1 >> 0x3f\n 26277: a2 = a2 | a4\n 26280: a4 = a1 << 0x1\n 26283: a5 = u64 [s1 + 0xa8]\n 26287: ra = a5 >> 0x3f\n 26290: a4 = a4 | ra\n 26293: a5 = a5 << 0x1\n 26296: a1 = u64 [s1 + 0x58]\n 26299: a1 = a1 | a5\n 26302: u64 [s1 + 0xa8] = a1\n 26306: a3 = u64 [s1 + 0x60]\n 26309: a1 = a3 | a4\n 26312: u64 [s1 + 0x90] = a1\n 26316: a1 = a3 | a2\n 26319: u64 [s1 + 0xa0] = a1\n 26323: a0 = a0 | a3\n 26326: u64 [s1 + 0x98] = a0\n 26330: a1 = u64 [s1 + 0x20]\n 26333: a0 = a1 - t1\n 26336: a0 = a0 <u t2\n 26339: a2 = a1 <u t1\n 26342: a1 = u64 [s1 + 0x18]\n 26345: a3 = u64 [s1 + 0xb8]\n 26349: a4 = a1 - a3\n 26352: a4 = a4 - a2\n 26355: a4 = a4 - a0\n 26358: a4 = a4 >>a 0x3f\n 26361: a0 = u64 [s1 + 0x38]\n 26364: a1 = a4 & a0\n 26367: u64 [s1 + 0x60] = a1\n 26370: a5 = u64 [s1 + 0x40]\n 26373: a5 = a5 & a4\n 26376: a0 = t0 ^ a5\n 26379: a2 = t0 <u a5\n 26382: t2 = u64 [s1 + 0x68]\n 26385: ra = t2 <u a1\n 26388: a2 = ra if a0 == 0\n 26391: a1 = u64 [s1 + 0x48]\n 26394: a3 = a4 & a1\n 26397: a1 = t1 - a3\n 26400: a0 = a1 - a2\n 26403: u64 [s1 + 0x70] = a0\n 26406: a0 = a1 <u a2\n 26409: a1 = t1 <u a3\n 26412: a2 = u64 [s1 + 0x50]\n 26415: a2 = a2 & a4\n 26418: a3 = u64 [s1 + 0xb8]\n 26422: a2 = a3 - a2\n 26425: a1 = a2 - a1\n 26428: a1 = a1 - a0\n 26431: a3 = t0 - a5\n 26434: t1 = a3 - ra\n 26437: a0 = u64 [s1 + 0x60]\n 26440: ra = t2 - a0\n 26443: a5 = u64 [s1 + 0xb0]\n 26447: a2 = u64 [s1 + 0x88]\n 26451: a0 = a5 | a2\n 26454: a0 = a0 <u 0x1\n 26457: a3 = u64 [s1 + 0x78]\n 26460: t2 = a3 <u a0\n 26463: a0 = a3 - a0\n 26466: a3 = a5 <u 0x1\n 26469: a2 = a2 - a3\n 26472: a3 = u64 [s1 + 0x80]\n 26476: a3 = a3 - t2\n 26479: a5 = a5 + 0xffffffffffffffff\n 26482: u64 [s1 + 0x88] = a2\n 26486: u64 [s1 + 0x80] = a3\n 26490: a2 = a2 | a3\n 26493: u64 [s1 + 0xb0] = a5\n 26497: a3 = a5 | a0\n 26500: a3 = a3 | a2\n 26503: t2 = a4 & 0x1\n 26506: u64 [s1 + 0x78] = a0\n 26509: jump @867 if a3 != 0\n      : @868 (gas: 1)\n 26513: jump @871\n      : @869 (gas: 4)\n 26515: a5 = 0\n 26517: a3 = 0\n 26519: a4 = 0\n 26521: jump @872\n      : @870 (gas: 3)\n 26523: t2 = 0\n 26525: u64 [s1 + 48] = 0\n 26528: fallthrough\n      : @871 (gas: 20)\n 26529: a3 = u64 [s1 + 0xa0]\n 26533: a0 = a3 >> 0x3f\n 26536: a1 = u64 [s1 + 0x98]\n 26540: a1 = a1 << 0x1\n 26543: t0 = a1 | a0\n 26546: a0 = u64 [s1 + 0x90]\n 26550: a1 = a0 >> 0x3f\n 26553: a3 = a3 << 0x1\n 26556: a3 = a3 | a1\n 26559: a2 = u64 [s1 + 0xa8]\n 26563: a1 = a2 >> 0x3f\n 26566: a0 = a0 << 0x1\n 26569: a5 = a2 << 0x1\n 26572: a5 = t2 | a5\n 26575: a2 = u64 [s1 + 0x30]\n 26578: a1 = a1 | a2\n 26581: a0 = a0 | a1\n 26584: a3 = a3 | a2\n 26587: a4 = a2 | t0\n 26590: fallthrough\n      : @872 (gas: 12)\n 26591: a2 = u64 [s1 + 0x8]\n 26594: u64 [a2] = a5\n 26596: u64 [a2 + 0x8] = a0\n 26599: u64 [a2 + 0x10] = a3\n 26602: u64 [a2 + 0x18] = a4\n 26605: sp = s0 + 0xfffffffffffffcc0\n 26609: a0 = sp + 0x300\n 26613: ra = u64 [a0 + 0x38]\n 26616: s0 = u64 [a0 + 0x30]\n 26619: s1 = u64 [a0 + 0x28]\n 26622: sp = sp + 0x340\n 26626: ret\n      : @873 (gas: 1)\n 26628: trap\n      : @874 (gas: 6)\n 26629: u64 [s1 + 240] = 0\n 26633: u64 [s1 + 232] = 0\n 26637: u64 [s1 + 224] = 0\n 26641: t0 = 0x364\n 26645: a0 = 0x4e487b7100000000\n 26655: fallthrough\n      : @875 [@dyn 434] (gas: 4)\n 26656: a1 = s1 + 0xe0\n 26660: u64 [s1 + 0xf8] = a0\n 26664: a0 = 0\n 26666: ra = 870, jump @9\n      : @876 [@dyn 435] (gas: 8)\n 26672: u64 [s1 + 216] = 0\n 26676: u64 [s1 + 208] = 0\n 26680: u64 [s1 + 192] = 0x12\n 26685: a0 = 0x4\n 26688: a1 = s1 + 0xc0\n 26692: u64 [s1 + 200] = 0\n 26696: ra = 0x36c\n 26700: jump @9\n      : @877 (gas: 6)\n 26703: u64 [s1 + 336] = 0\n 26707: u64 [s1 + 328] = 0\n 26711: u64 [s1 + 320] = 0\n 26715: t0 = 0x368\n 26719: a0 = 0x4e487b7100000000\n 26729: fallthrough\n      : @878 [@dyn 436] (gas: 4)\n 26730: a1 = s1 + 0x140\n 26734: u64 [s1 + 0x158] = a0\n 26738: a0 = 0\n 26740: ra = 874, jump @9\n      : @879 [@dyn 437] (gas: 7)\n 26746: u64 [s1 + 312] = 0\n 26750: u64 [s1 + 304] = 0\n 26754: u64 [s1 + 288] = 0x11\n 26759: a0 = 0x4\n 26762: a1 = s1 + 0x120\n 26766: u64 [s1 + 296] = 0\n 26770: ra = 876, jump @9\n      : @880 [@dyn 438] (gas: 3)\n 26776: a0 = u64 [s1 + 0x50]\n 26779: a0 = i32 [a0]\n 26781: jump @882 if a0 >u 63\n      : @881 (gas: 3)\n 26785: a1 = u64 [s1 + 0x50]\n 26788: u32 [a1 + 0] = 0x40\n 26791: fallthrough\n      : @882 (gas: 6)\n 26792: a0 = 0x1\n 26795: a2 = 0x24\n 26798: a1 = u64 [s1 + 0x30]\n 26801: ra = 0x36e\n 26805: ecalli 13 // 'seal_return'\n 26807: fallthrough\n      : @883 [@dyn 439] (gas: 13)\n 26808: sp = sp + 0xffffffffffffff40\n 26812: u64 [sp + 0xb8] = ra\n 26816: u64 [sp + 0xb0] = s0\n 26820: u64 [sp + 0xa8] = s1\n 26824: s0 = sp + 0xc0\n 26828: sp = sp & 0xffffffffffffffe0\n 26831: u64 [sp + 152] = 0\n 26835: u64 [sp + 144] = 0\n 26839: u64 [sp + 136] = 0\n 26843: u64 [sp + 128] = 0\n 26847: a0 = sp + 0x60\n 26850: a1 = sp + 0x80\n 26854: ra = 880, jump @11\n      : @884 [@dyn 440] (gas: 11)\n 26860: a0 = u64 [sp + 0x68]\n 26863: u64 [sp + 0x18] = a0\n 26866: a0 = u64 [sp + 0x60]\n 26869: u64 [sp + 0x10] = a0\n 26872: a0 = u32 [sp + 0x70]\n 26875: u64 [sp + 0x8] = a0\n 26878: s1 = 0x301d0\n 26883: i32 a0 = s1 + 0\n 26885: u64 [sp] = a0\n 26887: ecalli 5 // 'caller'\n 26889: fallthrough\n      : @885 (gas: 22)\n 26890: a0 = u64 [0x301d8]\n 26895: a1 = u64 [0x301d0]\n 26900: a2 = i32 [0x301e0]\n 26905: a0 = reverse a0\n 26907: a3 = a0 >> 0x20\n 26910: a1 = reverse a1\n 26912: a4 = a1 << 0x20\n 26915: a3 = a3 | a4\n 26918: a0 = a0 << 0x20\n 26921: a2 = reverse a2\n 26923: a2 = a2 >> 0x20\n 26926: a0 = a0 | a2\n 26929: a1 = a1 >> 0x20\n 26932: a2 = u64 [sp + 0x8]\n 26935: a1 = a1 ^ a2\n 26938: a2 = u64 [sp + 0x10]\n 26941: a0 = a0 ^ a2\n 26944: a0 = a0 | a1\n 26947: a1 = u64 [sp + 0x18]\n 26950: a1 = a1 ^ a3\n 26953: a0 = a0 | a1\n 26956: jump @887 if a0 != 0\n      : @886 (gas: 6)\n 26959: sp = s0 + 0xffffffffffffff40\n 26963: ra = u64 [sp + 0xb8]\n 26967: s0 = u64 [sp + 0xb0]\n 26971: s1 = u64 [sp + 0xa8]\n 26975: sp = sp + 0xc0\n 26979: ret\n      : @887 (gas: 8)\n 26981: u64 [sp + 80] = 0\n 26984: u64 [sp + 72] = 0\n 26987: u64 [sp + 64] = 0\n 26990: a0 = 0x118cdaa700000000\n 27000: a1 = sp + 0x40\n 27003: u64 [sp + 0x58] = a0\n 27006: a0 = 0\n 27008: ra = 882, jump @9\n      : @888 [@dyn 441] (gas: 22)\n 27014: a0 = u64 [sp]\n 27016: ecalli 5 // 'caller'\n 27018: a0 = u64 [s1 + 0x8]\n 27021: a1 = i32 [s1 + 0x10]\n 27024: a2 = u64 [s1]\n 27026: a0 = reverse a0\n 27028: a3 = a0 << 0x20\n 27031: a1 = reverse a1\n 27033: a1 = a1 >> 0x20\n 27036: a3 = a3 | a1\n 27039: a0 = a0 >> 0x20\n 27042: a1 = reverse a2\n 27044: a2 = a1 << 0x20\n 27047: a0 = a0 | a2\n 27050: a1 = a1 >> 0x20\n 27053: u64 [sp + 56] = 0\n 27056: u64 [sp + 0x30] = a1\n 27059: u64 [sp + 0x28] = a0\n 27062: a0 = 0x4\n 27065: a1 = sp + 0x20\n 27068: u64 [sp + 0x20] = a3\n 27071: ra = 884, jump @9\n      : @889 [@dyn 442] (gas: 2)\n 27077: a1 = i32 [0x201c8]\n 27082: jump @891 if a1 >u 63\n      : @890 (gas: 2)\n 27086: u32 [0x201c8] = 0x40\n 27092: fallthrough\n      : @891 (gas: 8)\n 27093: a1 = 0x201d0\n 27098: i32 a1 = a1 + 0\n 27100: a0 = 0x1\n 27103: a2 = 0x24\n 27106: ecalli 13 // 'seal_return'\n 27108: a0 = 0\n 27110: ra = 0x376\n 27114: jump @24\n      : @892 [export #0: 'call'] (gas: 2)\n 27117: a0 = 0\n 27119: ra = 886, jump @24\n      : @893 [@dyn 443] [export #1: 'deploy'] (gas: 2)\n 27125: a0 = 0x1\n 27128: ra = 888, jump @24\n      : @894 [@dyn 444] (gas: 15)\n 27134: a2 = u64 [s1 + 0xd8]\n 27138: a0 = u64 [a2 + 0x8]\n 27141: a1 = i32 [a2 + 0x10]\n 27144: a2 = u64 [a2]\n 27146: a0 = reverse a0\n 27148: a3 = a0 << 0x20\n 27151: a1 = reverse a1\n 27153: a1 = a1 >> 0x20\n 27156: a3 = a3 | a1\n 27159: a0 = a0 >> 0x20\n 27162: a1 = reverse a2\n 27164: a2 = a1 << 0x20\n 27167: a0 = a0 | a2\n 27170: a1 = a1 >> 0x20\n 27173: jump [t0]\n      : @895 (gas: 17)\n 27175: a2 = u64 [s1 + 0x60]\n 27178: a0 = u64 [a2 + 0x8]\n 27181: a1 = i32 [a2 + 0x10]\n 27184: a2 = u64 [a2]\n 27186: a0 = reverse a0\n 27188: a3 = a0 << 0x20\n 27191: a1 = reverse a1\n 27193: a1 = a1 >> 0x20\n 27196: a3 = a3 | a1\n 27199: a0 = a0 >> 0x20\n 27202: a1 = reverse a2\n 27204: a2 = a1 << 0x20\n 27207: a0 = a0 | a2\n 27210: a1 = a1 >> 0x20\n 27213: a2 = s1 + 0x7ff\n 27217: a2 = a2 + 0x61\n 27220: jump [t0]\n      : @896 (gas: 8)\n 27222: a0 = u64 [a2 + 0x8]\n 27225: a1 = i32 [a2 + 0x10]\n 27228: a2 = u64 [a2]\n 27230: a3 = reverse a0\n 27232: a0 = a3 << 0x20\n 27235: a1 = reverse a1\n 27237: a1 = a1 >> 0x20\n 27240: jump [t0]\n      : @897 (gas: 7)\n 27242: a4 = 0x100000000\n 27252: a0 = 0xfffffffc\n 27262: a0 = a1 <u a0\n 27265: a2 = u64 [s1 + 0xd0]\n 27269: a0 = 0 if a2 != 0\n 27271: a0 = 0 if a3 != 0\n 27273: jump [t0]\n      : @898 (gas: 11)\n 27275: a0 = u64 [a3 + 0x18]\n 27278: a1 = u64 [a3 + 0x10]\n 27281: a2 = u64 [a3 + 0x8]\n 27284: a3 = u64 [a3]\n 27286: a0 = reverse a0\n 27288: a1 = reverse a1\n 27290: a2 = reverse a2\n 27292: a3 = reverse a3\n 27294: a4 = s1 + 0x1878\n 27298: a5 = a4 + 0x300\n 27302: jump [t0]\n      : @899 (gas: 12)\n 27304: a1 = u64 [s1 + 0xd0]\n 27308: a2 = u64 [s1 + 0xc0]\n 27312: a1 = a1 | a2\n 27315: a3 = u64 [s1 + 0xc8]\n 27319: a2 = u64 [s1 + 0xd8]\n 27323: a2 = a2 | a3\n 27326: a2 = a2 | a1\n 27329: a2 = a2 >> 0x20\n 27332: a1 = a1 | a3\n 27335: a1 = a1 << 0x20\n 27338: a1 = a1 | a2\n 27341: jump [t0]\n      : @900 (gas: 19)\n 27343: a0 = u64 [s1 + 0x50]\n 27346: a0 = reverse a0\n 27348: a1 = a0 << 0x20\n 27351: a2 = u64 [s1 + 0x58]\n 27354: a2 = reverse a2\n 27356: a2 = a2 >> 0x20\n 27359: a1 = a1 | a2\n 27362: a0 = a0 >> 0x20\n 27365: a2 = u64 [s1 + 0x60]\n 27368: a2 = reverse a2\n 27370: a3 = a2 << 0x20\n 27373: a0 = a0 | a3\n 27376: a3 = u64 [s1 + 0xd8]\n 27380: a2 = a2 >> 0x20\n 27383: u32 [a3 + 0x10] = a2\n 27386: u64 [a3 + 0x8] = a0\n 27389: u64 [a3] = a1\n 27391: a0 = 0x2000\n 27395: jump [t0]\n      : @901 (gas: 9)\n 27397: a4 = u64 [s1 + 0xc8]\n 27401: a3 = u64 [s1 + 0xd0]\n 27405: a1 = u64 [s1 + 0xd8]\n 27409: a0 = u64 [s1 + 0xc0]\n 27413: a0 = a0 + 0xffffffffffffffdc\n 27416: a0 = a1 <u a0\n 27419: a0 = 0 if a3 != 0\n 27421: a0 = 0 if a4 != 0\n 27423: jump [t0]\n      : @902 (gas: 5)\n 27425: a2 = s1 + 0x7ff\n 27429: a2 = a2 + 0x61\n 27432: a0 = 0x20\n 27435: a1 = s1 + 0x7ff\n 27439: jump [t0]\n      : @903 (gas: 8)\n 27441: a2 = 0x100000000\n 27451: a2 = a2 ^ a1\n 27454: a2 = a2 | a0\n 27457: a3 = a1 >> 0x20\n 27460: a3 = a3 <u 0x1\n 27463: a3 = 0 if a0 != 0\n 27465: a3 = 0 if a2 == 0\n 27467: jump [t0]\n      : @904 (gas: 8)\n 27469: a2 = a3 | a4\n 27472: a1 = a0 | a5\n 27475: a1 = a1 | a2\n 27478: a1 = a1 >> 0x20\n 27481: a2 = a2 | a5\n 27484: a2 = a2 << 0x20\n 27487: a1 = a1 | a2\n 27490: jump [t0]\n      : @905 (gas: 9)\n 27492: a0 = u64 [a2 + 0x8]\n 27495: a1 = i32 [a2 + 0x10]\n 27498: a2 = u64 [a2]\n 27500: a0 = reverse a0\n 27502: a3 = a0 << 0x20\n 27505: a1 = reverse a1\n 27507: a1 = a1 >> 0x20\n 27510: a1 = a1 | a3\n 27513: jump [t0]\n      : @906 (gas: 11)\n 27515: a3 = u64 [s1 + 0xd8]\n 27519: a0 = u64 [a3 + 0x18]\n 27522: a1 = u64 [a3 + 0x10]\n 27525: a2 = u64 [a3 + 0x8]\n 27528: a3 = u64 [a3]\n 27530: a0 = reverse a0\n 27532: a1 = reverse a1\n 27534: a2 = reverse a2\n 27536: a3 = reverse a3\n 27538: a4 = s1 + 0x1878\n 27542: jump [t0]\n      : @907 (gas: 6)\n 27544: a0 = a2 <u a0\n 27547: a1 = u64 [s1 + 0xd0]\n 27551: a0 = 0 if a1 != 0\n 27553: a1 = u64 [s1 + 0xc8]\n 27557: a0 = 0 if a1 != 0\n 27559: jump [t0]\n      : @908 (gas: 8)\n 27561: a0 = a0 | a2\n 27564: a2 = a4 | a1\n 27567: a2 = a2 | a0\n 27570: a2 = a2 >> 0x20\n 27573: a0 = a0 | a1\n 27576: a0 = a0 << 0x20\n 27579: a0 = a0 | a2\n 27582: jump [t0]\n      : @909 (gas: 8)\n 27584: a0 = u64 [a4 + 0x98]\n 27588: a1 = u64 [a4 + 0xa0]\n 27592: a2 = u64 [a4 + 0x90]\n 27596: a3 = u64 [a4 + 0x88]\n 27600: a1 = a1 | a2\n 27603: a0 = a0 | a3\n 27606: a0 = a0 | a1\n 27609: jump [t0]\n      : @910 (gas: 8)\n 27611: a3 = u64 [s1 + 0xd8]\n 27615: a0 = 0xffffffbc\n 27625: a0 = a3 <u a0\n 27628: a1 = u64 [s1 + 0xd0]\n 27632: a0 = 0 if a1 != 0\n 27634: a1 = u64 [s1 + 0xc8]\n 27638: a0 = 0 if a1 != 0\n 27640: jump [t0]\n      : @911 (gas: 8)\n 27642: a0 = u64 [a4 + 0x18]\n 27645: a1 = u64 [a4 + 0x20]\n 27648: a2 = u64 [a4 + 0x10]\n 27651: a3 = u64 [a4 + 0x8]\n 27654: a1 = a1 | a2\n 27657: a0 = a0 | a3\n 27660: a0 = a0 | a1\n 27663: jump [t0]\n      : @912 (gas: 11)\n 27665: a2 = a2 - a3\n 27668: a3 = a4 <u a5\n 27671: a2 = a2 - a3\n 27674: u64 [s1 + 0x78] = a2\n 27677: a4 = a4 - a5\n 27680: u64 [s1 + 0x70] = a4\n 27683: a0 = a0 - a1\n 27686: a0 = a0 - t2\n 27689: u64 [s1 + 0x68] = a0\n 27692: a0 = t1 - ra\n 27695: jump [t0]\n      : @913 (gas: 6)\n 27697: a0 = a1 <u a0\n 27700: a2 = u64 [s1 + 0xd0]\n 27704: a0 = 0 if a2 != 0\n 27706: a2 = u64 [s1 + 0xc8]\n 27710: a0 = 0 if a2 != 0\n 27712: jump [t0]\n      : @914 (gas: 7)\n 27714: a1 = a1 | a2\n 27717: a1 = a1 | a0\n 27720: a1 = a1 >> 0x20\n 27723: a0 = a0 | a2\n 27726: a0 = a0 << 0x20\n 27729: a0 = a0 | a1\n 27732: jump [t0]\n      : @915 (gas: 9)\n 27734: a0 = u64 [a3 + 0x18]\n 27737: a1 = u64 [a3 + 0x10]\n 27740: a2 = u64 [a3 + 0x8]\n 27743: a3 = u64 [a3]\n 27745: a5 = reverse a0\n 27747: a4 = reverse a1\n 27749: a0 = reverse a2\n 27751: a1 = reverse a3\n 27753: jump [t0]\n      : @916 (gas: 9)\n 27755: a0 = u64 [a3 + 0x18]\n 27758: a1 = u64 [a3 + 0x10]\n 27761: a2 = u64 [a3 + 0x8]\n 27764: a3 = u64 [a3]\n 27766: a0 = reverse a0\n 27768: a4 = reverse a1\n 27770: a2 = reverse a2\n 27772: a3 = reverse a3\n 27774: jump [t0]\n      : @917 (gas: 4)\n 27776: a0 = 0x1878\n 27780: a3 = s1 + a0\n 27783: a4 = a3 + 0x700\n 27787: jump [t0]\n      : @918 (gas: 8)\n 27789: a0 = sp + 0xffffffffffffffe0\n 27792: a0 = a0 & 0xffffffffffffffe0\n 27795: u64 [s1 + 0xd8] = a0\n 27799: sp = a0\n 27801: i32 a2 = a0 + 0\n 27803: a1 = 0x40\n 27806: a0 = u64 [s1 + 0x50]\n 27809: jump [t0]\n      : @919 (gas: 6)\n 27811: i32 a0 = a2 + 0\n 27813: u64 [s1 + 0xd0] = a0\n 27817: a0 = u64 [s1 + 0xd8]\n 27821: a1 = a2\n 27823: u64 [s1 + 0xc8] = a2\n 27827: jump [t0]\n      : @920 (gas: 4)\n 27829: a2 = a3 + a1\n 27832: a3 = a2 <u a3\n 27835: a3 = a1 if a1 == 0\n 27838: jump [t0]\n      : @921 (gas: 2)\n 27840: a3 = a2 & 0x40\n 27843: jump @925 if a3 != 0\n      : @922 (gas: 1)\n 27846: jump @924 if a2 == 0\n      : @923 (gas: 6)\n 27849: i32 a3 = 0x40 - a2\n 27852: a3 = a1 << a3\n 27855: a1 = a1 >> a2\n 27858: a0 = a0 >> a2\n 27861: a0 = a0 | a3\n 27864: ret\n      : @924 (gas: 1)\n 27866: ret\n      : @925 (gas: 4)\n 27868: a0 = a2 + 0xffffffffffffffc0\n 27871: a0 = a1 >> a0\n 27874: a1 = 0\n 27876: ret\n      : @926 (gas: 2)\n 27878: a3 = a2 & 0x40\n 27881: jump @930 if a3 != 0\n      : @927 (gas: 1)\n 27884: jump @929 if a2 == 0\n      : @928 (gas: 6)\n 27887: i32 a3 = 0x40 - a2\n 27890: a3 = a0 >> a3\n 27893: a0 = a0 << a2\n 27896: a1 = a1 << a2\n 27899: a1 = a1 | a3\n 27902: ret\n      : @929 (gas: 1)\n 27904: ret\n      : @930 (gas: 4)\n 27906: a1 = a2 + 0xffffffffffffffc0\n 27909: a1 = a0 << a1\n 27912: a0 = 0\n 27914: ret\n",
        "bytecode": {
          "object": "50564d00004581000000000000010700c13002c000800381c4145916539c07e08b84f2a4d01fcd4413afdaa322977f4919e057646b6f18b4e3726574616c6c6f436f74636166206c6162207473756d2072303031203d3c2065145916539c07e08b84f2a4d01fcd4413afdaa322977f4919e057646b6f18b4e318d512826f3f24d789eaf61c1454d08fafc3b8ac1fd9c0cf42014858138af8e2726574616c6c6f436f74636166206c6162207473756d2072303031203d3c2065e359d61df3a100c2e25825c812f1e056693844f8b0f7495f238855b35c6fd91c6d6120796170655263786520746e756f616f6c20736465657669746361206f4e00006e616f6c2065676e697473697845756d206e616f6c2065722065622074737269662064696170898d41b9ea76c7d50d31f259eeff40c0ce1b1982f65f5f223548fda713049be5637865206e616f4c6c6f632073646565206c61726574616cdee0c9aabccf0fc33982aa4e7119a7ffbeeed0d0a006f56f5d718872173008177720746f6e6e61432077617264687469726574616c6c6f63656b636f6c206c61206120726f6620646369666675736e496c6f6320746e6569006c61726574616c6d20746e756f6d41672065622074737574207265746165726f72657a206e61684000000004811f1100000000070000000b0000001900000027000000350000003b000000480000005a00000065000000740000008100000091000000a1000000ac000000be000000c90000006164647265737363616c6c63616c6c5f646174615f636f707963616c6c5f646174615f6c6f616463616c6c5f646174615f73697a6563616c6c65726465706f7369745f6576656e746765745f696d6d757461626c655f646174616765745f73746f72616765686173685f6b656363616b5f3235367265665f74696d655f6c65667472657475726e5f646174615f636f707972657475726e5f646174615f73697a657365616c5f72657475726e7365745f696d6d757461626c655f646174617365745f73746f7261676576616c75655f7472616e73666572726564051302c0ed690463616c6cc0f569066465706c6f7906c02c7e81bc02c00c6d6a00b201b5037a04820458059b05280635066806a306d7064e077f078807d807e40714081d0896080e096809a609f909050a380a610a7f0a8b0afd0a190b4b0b600b9a0bcc0bd70bfc0b0b0d250d2a0d450d620da60daf0dcc0d230e3c0e750e890eb40ef10e040f560f630fcf0fe90fee0f0e10311081108a10a210281135119911ad11b711e411ee11a112e012ea120f131513611371134714da14e714021538154d155715b515e615ec153a166b16f4160217271739176b178f17d417de170a184c185a187318b818021983199719cb191e1a2b1abc1a741ba71bc51bff1b311c371cc01c1c1d401dd91df21d0e1e4d1e621e931e991ec21ed61e361f441f691f7b1fac1fc51fd21f4c20bc20dd2029214521f521a3224d237a23df23f42324242a2450245624e82412252d25842592250626202626264a266426722600271f2725274927632771278a2797279d27c32713289c2ab62ad92a1d2b772b7d2b832ba72bd42bef2b042c5a2cc02c182d542dab2dca2dd02dec2d0a2e3e2e482e662e972e9d2efb2e4c2fa22fbc2ff42f0930333044306630c630d7301931363179318e31c331d431013270328132b732c5321e3332333c33693373332534843412352235ee3569368336d93615373d37743781379b37cf37e437ee374c386a3870388c38aa38ea38f4380d395f399439a139023aad3ae83af23a173b1d3b6a3b7a3b483cbb3cc83c223d373d413d9f3db93dea3df03d073e0d3e563e773e8f3eab3ef43eb3401d4132416b417141a041a641ed41fa4115421b423f425942674280428d429342b542f1423a4355438e4305441644494459445f4483449d44ab4422455f457145e345ff4531466946b146c2462c473f474847f1475848f5480649e3499b4aac4acd4a034b164b1f4b8f4ba84bd94bdf4bf64bfc4b2c4c5d4c634c7a4c804cb64cea4cf04c074d0d4d964da64dca4dad4ebb4e484f00500d504b5059509750ab50db5021512f51ea51fc5130527652e8526b5379539b53ef5358548854a654ed54f75411553e559355b655da551956715610576a57de576058b958025934597e59895998594b5a595a725a965afb5a215b2f5b465b6a5b315c5e5c6c5c855ca95c675db85d3f5ea65e735fdd5f476078609660da60e4601161476155616e61b061fa6169627d62b062fd628463ce64e7640865496589659f65ba65fe65206830686a687a689868b868ec688669c569f569fe699511e87b10107b15087b163306c001023905c0010251051c3307f00103837783680a07013907c001022003c00102ac571082101082150882169511183200003908c0010251087d0b3307f0010383770a0e28700b9511f07b10087b15648964753308206497501002a4047c78017c797c7a027c7b03978808d4980897aa1097bb18d4ba0ad4a8087c79057c7a047c7b067c7c07979908d4a90997bb1097cc18d4cb0bd4b909979920d489027c79097c7a087c7b0a7c7c0b979908d4a90997bb1097cc18d4cb0bd4b9097c7a0d7c7b0c7c7c0e7c780f97aa08d4ba0a97cc10978818d4c808d4a808978820d498037c78117c7a107c7b127c7c13978808d4a80897bb1097cc18d4cb0bd4b8087c7a157c7b147c7c167c791797aa08d4ba0a97cc10979918d4c909d4a909979920d4890a7c78197c79187c7b1a7c7c1b978808d4980897bb1097cc18d4cb0bd4b8087c791d7c7b1c7c7c1e7c771f979908d4b90997cc10977718d4c707d49707977720d487076f776fa86f396f2a7b5a187b59107b58087b57821008821595111032009511d87b10207b15187b161082897b19088289087b198285108286183308205010045c036f686f59821a6faa821b086fbb787b18787a10787908787898bc38787c1f98bc30787c1e98bc28787c1d98bc20787c1c98bc18787c1b98bc10787c1a98bb08787b1998ab38787b1798ab30787b1698ab28787b1598ab20787b1498ab18787b1398ab10787b1298aa08787a11989a38787a0f989a30787a0e989a28787a0d989a20787a0c989a18787a0b989a10787a0a98990878790998893878790798893078790698892878790598892078790498891878790398891078790298880878780182102082151882161095112832009511a07b10587b15507b16489515608411e06476828718828910828a0882886f776f996faa6f887b18187b1a107b19087b17491138491130491128491120481140208318831a20831b403309ff33070a08821738821830821928821a206f776f886f996faa7b6a187b69107b68087b679551a082105882155082164895116032009511a07b10587b15509515608411e08272827a08827b108277188283828908828c108288186f746fbb6faa6f276f826fcc6f996f387b17187b1a107b1b087b147b18387b19307b1c287b12208318831a203309ff330b2033070a0f9551a08210588215509511603200951160ff7b1098007b1590007b1688009515a0008411e082ab7b1b3882ab087b1b3082ab107b1b2882aa187b1a20829a7b1a18829a087b1a10829a107b1a088299187b196486501006590182186f888219086f99821a106faa821b186fbb7b1b587b1a507b19487b18408218206f888219286f99821a306faa821b386fbb7b1b787b1a707b19687b18608379836a8317403308020a06955160ff8210980082159000821688009511a0003200951120ff7b10d8007b15d0007b16c8009515e0008411e082bc7b1c4082bc087b1c4882bc107b1c5082bb187b1b5833020882ab7b1b1882ab087b1b2082ab107b1b2882aa187b1a308296829a087b1a829a107b1a088299187b191049113833000a2892007b183850100a8c006f687b187882186f887b18708218086f887b18688218106f887b18608218186f887b1898008218206f887b1890008218286f887b1888008218306f887b1880008218406f887b18b8008218486f887b18b0008218506f887b18a8008218586f887b18a0008379811a388317603308030a06955120ff8210d8008215d0008216c8009511e00032008b7910520931c8780883881f8488e05638000001253309c80102390ac80102ae8a093d08c80102013308d001028377c887073200009511f07b10087b158475010a04013d07c4010251050750100c4733000e951110fe7b10e8017b15e0017b16d8019515f001951130de8411e06416956978184929e0024929d8024929c80280003307409568401b4929d00233004828f6fb9511c0fb951700047b70387b75307b7628951540048411e0641649269803492690034926880349268003836780030a1001956b000382b7900082b8980082b9880082ba8000d49808d4a707d487075207d0043907c401027b67b80097772098772095771f8477e09578c000d87807956900037b98607b976894777b977033074095686003492678035010106bfb3307c0008268b800501012d9fe83778268b80033090a02018268b80054185f8504492638034926300349262003c000956740039568200349262803501014774f826758037b6748826750037b6740826748037b6730826740037b67284926f8024926f0024926e002e000956700039568e0024926e8025010163c4f956800038287187b67108287107b67188287087b672082877b67389517e08477e07b67a00064719567c0023308000150101882f9956b000282b7d00082b8d80082bac00082b9c8007b679000826ba0007bb7107b6888007bb8187b6a787bba7b6980007bb9083307d001037b67b80083777b67b0000a05018269b8008097108298829908d48707d497075107ab034926b8034926b0034926a8034926a0039567a0029568a00350101a37fb8267a0027b67708267a8027b67688267b8027b6798008267b0027b67a8008267b00033001c0a058269b80033021e28e8638269b80050121ee1639877206f99979a20d4a707989920826aa80098aa2097aa20d4a9094926d8034926d0034926c8034926c003826a9800956b00037bbaf8007bb9f0007bb7e8007bb8e0009567c0039568e0035010202efb9567800233084050102275f8826798027b6758826790027b6750826788027b6760826780027b6798008267b0003300240a058269b8003302262845628269b8005012263e62d4780298aa206f99979820d4a808989920826aa80097aa2098aa2049263802492658027b6a50028267687b6748028267707b6740023a0a0000023a0b0800023a0c1000023a071800027b6a7802956a00027bab707bac687ba7607ba9307ba82895696002956a4002956b20027b6220023307330850102885fb826980008e97826878888865858801db9708826a90008ea7826b88008eb9dab709d4ba07da78095109530182679800826a50d4a707826860826958d49808d48707987720d4a808978820d487075207d501492670014926680149266001140700000000a079c308956860017b6778018267980050102a85f8826758826850d47809140a00000000010000001407fcffffff0000000082689800d878078268609487949751077f0182679800837704492658014926500149264801330b20956840017b6b40017b69b8007b6ab00050102c2bf88269b8008267b0009577dc82689800d8780782686094879497510737018267980083772449263801492630014926200120956820014926280150102eedf71407bcffffff0000000082689800d8780782686094878268b80094875107f600826798008377443a08200002956b00017bb8183a082800023a093000023a0a3800027bb8107bb908956800017bba5010309af73308648267980050103209fb83783307013309640a0d01826728956a00027ba78267307ba7088267407ba71033078000956800028269487ba9185010345bf78267107b67f8018267187b67f0018267207b67e8013307a0009568e0018269387b69e00150103632f74926180449261004492608044926000401956700048268a00050103887f89567c00133084050103acef5956b000182bad80082b8d00082b9c80082b7c000d49a0ad48709d4a909989920d4a808978820d4980851088e00003308d00102838833070133090a0d28113308d00102838833070133090a0d014926f0004926e8004926e000140700000000f7bd4f1e9568e0007b67f800330750103c96f64926d8004926d0004926c8003307049568c0004926c00050103e7af63908c8010256183f0b2003c8010240013308d0010283883307013309240a0d7b67b80033004028caf97b67b800501040c3f98377330833090a029567a00133088000501042f9f48267b801330bf001037b6bb0008268b0018269a801826aa0013e070802033e080002033e09f801033e0af00103956780013308a000501044bff4956b000182b7980082b8900082b9880082ba8000826bb0007bb7387bb8307bb9287bba202881f48267b800330850104642f98378330733090a0d2804ff3307c401027b67d8003907c4010255170407285a4595670020837760fb330833004a0a030195697818819704035247c23f808c0a285a1951475bcba58db409524758a5acaa0a28371f956a78205247891c7bab0a28e20f5247d46b01b20a285b1852475721c2b50a28711651471fa0d4baf6025247411c01df0a28b30e51478edaa7e8810a51472efe12610a28aa1249298003492978034929700349296803956700208377e0fb0a1001956a781895ab000382b77882b8800082b97082ba68d49808d4a707d48707510706288f408267d80081775617230728934095670020837700fc3308040a0395677818957c000382c8a00082c9980082ca900082cb88007b68d0007b6ac000d48a077b69c8007b6bb800d49b08d487078e774926f8064926f0067b67e0069567e0064926e80650104c094b3307d001037b67d80083777b67b00033004e0a0533025028dc5c501250d95c4926d8067b68d0067b67c8069568c0067b6ac00633075010524ef44926b8064926b0064926a006023307209568a0064926a80650105431f43309c801023907c8010256173f0b2003c8010240017b6998009517e08479e07b69a80064913307d00102837783993308407b67a0003300560a09826aa80033025828e85c826aa800501258e15c7bcac0007bc9b8007bc8b0007bc7a800956780069568201c50105ab9f495680006828798008262800682899000828a8800826cd000d3c70bd8c7088267c800d8790cdbb80c8268c000d38a03d88a0a8268b800d88208db3a08d39707d4b707db7c0852080628a51f9567e00133084050105c36f295680001828bf800828cf000828ae8008287e00050125e165d51080628b61d4926d0014926c8014926c001140900000000a079c3089568c0017b69d8017b67d8007b6ad0007b6bc8007b6cc0005010601ef38268d8008267c800826ac000d47a0a501262e65b52070628691d8387044926b8014926b0014926a001209568a0014926a8017b6ac8007b6bc000501064dff2826ac8008269d0008268d8008267c0009577dcd87807949794a752070628241d838724492698014926900149268001179568800149268801501066a2f28269d8001407bcffffff00000000501268995c52070628ee1c8397443a088801023a099001023a0a980102956b00017bb8787bb9707bba689568600149266001330034022859f2492a2001492a1801492a1001492a0801956700208377800133006a0a1001956a782095ab000150126c9c5c51070628ed3d8267d80081775617230728f13d956700208377a0013308040a0395677820957c000182c84082c93882ca3082cb287b68c8007b6ab800d48a077b69c0007b6bb000d49b08d487078e77956878104928a007492898077b878807956700184928900750106e45483307d001037b67d80083777b67a8003300700a0533027228185a501272155a9569781049298007959b00077bb8787bb7709568e0177bba68330750107485f1956878104928600749285807492848070264893307209568c0174929500750107662f19517e08477e07b67d00064713309c801023907c8010256173f0b2003c8010240017b6998009517e08479e07b69a00064913307d00102837783993308407b6780003300780a09826aa00033027a28ed5b826aa00050127ae65b8268d0007b8a187b89107b8b087b879567a01750107ce3f1956878108284400795890007829738829b28829c309518e08488e06481826ab800c8ca0a8262b000c8b202d8b20bc8ba0ad3ca03d8ca09da3b09826bc000c87b0bc89b0cd8bc038260c800c84000d87b0bc80b0bc83b00d87c03d3040bd84004dab304d3c707d4b707da79047b8c107b8a087b827b801851040628593c8267d00050107edef1956780173308405020800025ef956c781082c2200795c80007828b18828a10828708d42a09d4b708d49808988820d4b909979920d4980851080628931a492cf806492cf006492ce8067b6aa000140a00000000dd72b823956860177bca00077b67d0007b6b98007b62900050208200fbef8267a800330084000a8269d8003302860028ba598269d80050228600b3597b6888009877206f98978920d497077b67789888207b68708267a800330088000a058269d80033028a002875588269d80050228a006e58d4780298aa206f99979820d4a8039894208267d000957a04d87a0c8267a000c8c708d87807dacc07826b9800c8b707d8b70c826b9000c8bc0c956b78108269707bb978068269787bb97006826988007bb9680695b900067b9cc0007b97b8008267c8007b97608267c0007b97588267b8007b97508267b0007b9748492b80067b98b0007b9aa8007bb498067bb390067bb2880664bc956740179568201795690017956ae016956bc016492ca00650208c003b4c956878108287d0068282e0068283c806828ad8068268a000d3870bd8870c8260d000d80304dab40c82699800c99a0bd89a0a82699000c9920950228e0037597b678800502090001ced3a08f001037b68603a080002037b68583a07f801037b6750330092000a0a3302940028c35750229400c057837778c87609492960014929580149295001826788006472826c70d4c707826878826b68d4b808d48707987720d4c808978820d487074929480151070628a3188267d000642850209600aef17b67783308208267d000502098009ef195697820959a0001481a6820492aa000ff492a9800ff492a9000ff492a8800ff8268d80097882098882014090000000008000000d498029568c02197882098882095690022979920d4890a826878978820988820826b880097bb20d48b0b9777209877209568e021978820d4780c3308ff3309ff64270a010151070628bf290a0c01330820ae87080a0c64780195697810826ad000826b9800826c90007b6878492688007b98e8057b9a08064929f005826aa0007b9a10064929f8057b9b18064929000695678016956860167b9c200650209a0029478263d000826878c83807d887088262a000826c8800c82c09c88909d3c90ad8c90bdaa80b82609800c80c08c88b0bd88b04d8c808826a9000c8ac0cc8c808c88404956878107b8b9805956878107b899005956878107b878805956778107b7ac005956778107b70b805956778107b72b005956778107b73a805956740169568201695690016956b78107bb4a00550209c00d5479567e01533084050209e0073eb956a781095ac000582c7800082c87882c97082cb685022a000ad5651070628f0168267b00095a900057b97488267b8007b97508267c0007b97589568c0158267c8007b976064b77b6bd0005020a2005cec8267a8003300a4000a058269d8003302a600280c558269d8005022a6000555d4780298aa206f99979820d4a8089899203a0a600002956778107b7a40053a0a6800023a0b7000023a0c7800027b7a3805957a00057bab30492720057bac287ba9187ba8103308209569a015956a80157b7208058267d0005020a800bbed33078268800033090a0d289e3b49296007492958074929500749294807956700208377c03300aa000a103302ac00289d565022ac009a5682b75882b86082b95082ba48d49808d4a707d4870751070628e5378267d80081775617030728e93795677818492780074927780749277007492768079567ff07957781079568e01f5020ae004cec9567ff07957761957900078298307b68c8008298287b68d8008297207b67d0009567ff07957761073308405020b000efe9956aff0795aa6195ac000782cb1882c81082c90882c7d49b0bd48709d4b909989920d4b808978820d49808510806285c158268c800978820988920492af8068268d00095ab00067bb8e0008268d8007bb8e8009568ff07958841077bb9f0007b67d8003300e00028bcea492a2002492a1802492a1002492a080295670020837780023300b2000a1001956a782095ab00025022b400fe545107062806378267d800817756172307280a37956700208377a0023308043300b6000a0301956b782082b8380282b740025022b800fe53520a0628f13682b9300282ba2802956b781895bc00017bcae8007bc9f0007bc8f8009568601a7bb7000233075020ba0029ea956878184928e0014928d8014928c8010364893307209568401a4929d0015020bc0005ea9517e08477e07b67d00064713908c8010256183f0b2003c8010240019517e08479e07b69d80064913307d00102837783993308403300be000a09826ad8003302c000288554826ad8005022c0007e547b68a8008269d0007b98187b67b0007b97107b6ba0007b9b087b6c98007b9c9567201a3308405020c20050e895687818958c000182c7c0007b67c00082c9b8007b69b80082cbb0007b6bc80082caa8007b6ad8007bc7a0007bc998007bcb90009567001a7bca88005020c40050429567e0198268d0005020c6002cea8267c0008268c800d487078269b8008268d8005022c800d553510706287f1395677818957c000182cb800082ca7882c97082c8687b68d0007bc8487b6990007bc9507b6a88007bca589568c0197b6b80007bcb608267d8005020ca00dce8826798009577018878018269a000c89808d48709889901826ab000c8a909d8a90a826ba800c8ba0a956b782095bc00027bc8507bc7487bc9587bca609567a0199568c0225020cc0084e98267c0008268b800d47809140a00000000010000001407e0ffffff000000008268d800d878078268c8009487949752070628c212956778187b69c000647982724001957c000182cb387b6ab80082ca3082c8288267d8008377207b6878959c00017bc8087b6a707bca107b6b687bcb18956880197b62607b9220015020ce0011e882689800958702d88708826aa0005022d00024538268b000c88a0ad88a08826ba800c8b808956b782095bc00027bc9707bc7687bca787bc88000956760199568e0225020d200bbe88267b8009577c08268d800d878078268c80094878268c0009487520706280d12956a781882a7e8008477ff008e797b69c8008267d800837740492ae000492ad800492ad000956840197ba9c8005020d40076e7956720193308405020d6002fe695687818828ac0007b6ad8008289b8007b69c000828bb0007b6bb800828ca8007b6cb0008267c8007b87088267607b87408267687b87388267707b87304918204918184918108267787b8728826780007b8760826788007b8758826790007b87508267d0007b87487b8a80007b89787b8b706482956700199568e0189569c018956aa018956b80187b2c685020d800bb3b826bb8008269b0008267d800d4b707826ac000d4a908d47808988820d4a707977720d4870751070628111164a29568781882879000828aa0007b6ad00082838800828a9800284307492ae001492ad801492ad001492ac80195670020837740020a1001956a782095ac000182c7d80082c8e00082c9d00064ab82cac800d49808d4a707d4870751070628f9328267d80081775617030728fd32492b0002492bf801492bf001492be8010195676018956860225020da0012e79567781882787b68d800957900ff8298f8007b68d0008298f0007b68c8008297e8007b67c000956740183308405020dc00b3e4956a781095ac000782c7e00082c8d80082c9d00082cbc8005022de00ea4f510706282d108267c00095a900077b97a8008267c8007b97b0008267d0007b97b800956820188267d8007b97c00064b77b6bd8005020e00095e53308208267d8003300be0228ffe84929c0074929b8074929b0074929a807956700208377203300e2000a103302e4002852505022e4004f5082b7b80082b8c00082b9b00082baa800d49808d4a707d48707510706280d328267d800817756172307281132956700208377403308040a0395677818957c000782c8e00082c9d80082cad00082cbc8007b68c0007b6ab000d48a077b69b8007b6ba800d49b08d487078e77956878104928e0034928d8037b87c803956740144928d0035020e600553b3307d001037b67d00083777b67a0000a058269d00082970881981082996f77977a206f88988820d48a0a9877206f98978920d49707988820956978104929c003959b00037bb8b8007bb7b000956820147bbaa80033075020e80078e4956878104928a003492898034928880303648933072095680014492990035020ea0054e49517e08477e07b67d80064713908c8010256183f0b2003c8010240019517e08479e07b69c80064913307d00102837783993308407b6798000a09826ac80082a71882a81082a90882aa6f776f8c6f996fa28268d8007b82187b89107b8c087b87951be084b8e06481957b02d87b07c87c0ad8ca0cda770cc89c0cd89c07c827077b8c107b8a087b8b7b87189567e0137b68c8005020ec00ade4956778107c7768035207150e956760103308405020ee0068e295677810827b957800ff828cf800828af0008287e8005022f000454d5208e70d7b6ad000956aff0795aa61492af007492ae807492ae007140900000000a079c308956840107ba9f8077b67d8007b6bc0007b6cc8005020f20047e38268d8008267c800826ac000d47a0a5022f4000e4c5107930d8387049569ff079599614929d8074929d0074929c00720956820104929c8077b6ac8007b6bc0005020f60001e35022f800724c51075c0d8387249569ff079599614929b8074929b0074929a0070e956800104929a8075020fa00d2e28269d8001407bcffffff000000005022fc00c84c51071f0d8397443a08d800023a09e00002956aff0795aa617ba89807492a88077ba990079568ff079588e107492a8007330034022884e251476b08b4730a286e2f4929200549291805492910054929080595670020837780fd3300fe000a1001956a781895ab000550220001bc4c51070628892f8267d800817756172307288d2f956700208377a0fd330804330002010a0301956b781882b8380582b7400550220401bc4b520a0628742f82b9300582ba2805956bff0795bb617bba607bb9687bb8709568ff079588c1007bb778330750200601e8e19568ff07958861330a4918584918504918400350220801624b9588a1007b9a4850200a01c2e19517e08477e07b67b80064713908c8010256183f0b2003c8010240019517e08479e07b69d80064913307d00102837783993308400a09826ad80082a71882a81082a90882aa6f7c7b6cc8006f8b7b6bd0006f997b69c0006fa77b67d8008268b8007b87187b89107b8b087b8c9567ff079577810050200c013ae29568ff079588618287207b67b8008287287b67b0008287307b67a8008287387b67a0008267c8009577018878018269d000c8980895697818959a00057ba850d478087ba7488887018268c000c887077ba758d887078268d800c887077ba7609567ff079577619568c01d50200e01cae1956cff0795cc6182c77b6798008268c800958702d88708826ad00050221001de4b82c8087b68d0008268c000c88a0ad88a08826bd800c8b80882cb107b6bc80082cb187b6bc000956b781895bc00057bc880007bca787bc9707bc7689567ff079577419568e01d502012015de1956700107c7740f87b6790009567ff079577213308405020140115df95670010827938f87b69d80095670010827830f87b68880095670010827a28f87b6a800095670010827c20f87b6c78826790007b6780074926980749269007492688078267c0007b67b8078267c8007b67b0078267d0007b67a807826798007b67a0078267a0007b67d8078267a8007b67d0078267b0007b67c8078267b8007b67c0077b69f8077b68f0077b6ae8079567ff079577019568e0079569c007956aa007956b80077b6ce007502016018234826b80008269788267d800d4b707826a8800d4a908d47808988820d4a707977720d487075207dc0964a295670010827708f895680010828818f87b68d00095680010828300f895680010828a10f801d3b704d8b70cd89300da400cc92a08c9c804d8c8087b68c800d82a0a826cd8008268d000c9c80cc9ac0c8268c800c98c0cc9b707c90707c99308d4c707d4480ad47a0ad4470798aa20977720d4a7075207620964977b68d800502018016ce283788169d80033070a0d28732d492ac000492ab800492ab000492aa80095670020837720010a1001956a782082a7b80082a8c00082a9b00082aaa800d49808d4a707d4870751070628182c8267d800817756172307281c2c9517e08477e07b67d800647195670020837740013308040a03956778208279e0007b69c800827ad8007b6ac0008278d0007b68d000827bc8007b6bb8008267d8007b79187b7a107b78087b7b50201a0171458267c8008268c000d487078268b8008888658269d0009498947851080628bb2b9567201533084050201c01e0dc956978108292c00495980004828cb800828bb0008287a800d42b0ad4c708d4a808988820d4ca0a97aa20d4a80852084e08492998044929900449298804140a00000000a079c308956800157b9aa0047b67d8007b6bd0007b62c0007b6cc80050201e01b5dd8268d8008267c800826ac000d47a0a502220017c465107010883870495697810492980044929780449297004330c209568e0147b9c68047b6ac8007b6bc0005020220170dd50222401e1465107cb0783872495697810492960044929580449294804209568c014492950045020260144dd502228018b4751079f0783a7443a08800002956b781095bc00047bc8403a088800023a099000023a0a9800027bc8387bc9309568a0147bca28330034022801dd492aa000492a9800492a9000492a880095670020837700010a1001956a782082a7980082a8a00082a9900082aa8800d49808d4a707d4870751070628982a8267d800817756170307289c2a9567801433084050202a0172db95677810957900048298207b68d8008298187b68d0008298107b68c0008297087b67c80050202c01f4da8267d8008268c000d487078268c800648a8269d00050222e011b475207c8063a09f001033a08f801033807000203956b7810492b000495bc00037bc7f8007bc8f000956860147bc9e80064a73300bc02282cdc4929a00549299805492990054929880595670020837700fe330030010a1001956a781895ab000550223201344651070628f0298267d80081775617230728f42995670020837720fe3308040a0395677818957c000582c8c00082c9b80082cab00082cba8007b68407b6a30d48a077b69387b6b28d49b08d487078e779568ff079588614928d8064928d0067b87c0069567ff07957721074928c806502034010f323307d001037b676083777b6758330036010a0533023801280a445022380107444929b806959b00067bb8b0007bb7a8009568ff07958801077bbaa000330750203a014adb9568ff079588614928980649289006492880060350223c01c3449588e1064929880650203e0122db3309c801023907c8010256173f0b2003c8010240017b69489517e08479e07b69d80064913307d00102837783993308407b67500a09826ad80082a782a80882a91082aa186f776f886f996faa95ab02d8ab0ac8a90cd89c09daaa09c88909d88908c8870795687818958a00057babc8007bacd0007ba9d8007ba7e0009567ff079577c1069568401e5020400186db9567ff079577617c7760065207fd09826758330042010a0533024401280b4350224401084349299805959b00057bb890007bb788009568ff079588e1057bba80003307502046014bda9568ff079588614928780549287005492860050250224801c4439588c1054929680550204a0123da826948819756173f0e48094033024c01280c4550224c01094533004e010a093302500128e74350225001e4437bba000695ba00057ba9f8007ba8f0007ba7e8009567ff079577a1059568601e50205201c3da9568ff07958861958900058297587b67d0008297507b67c8008297487b67c0008297407b67d80095677818492720064927180649271006647849280806019567ff07957781059568801e5020540173da9568ff0795886182842005958900058297387b67b800829a30829c288260d800d640088267c000ca4709c89808d89809d6470bc89b03cac00bc8b8087b689800d8b808d6c00bc8b808c88302cac709c829087b68b000d8980bd83208d6c709c89808c8b8087b68a800caa7088269b800ca0909c898087b68a0008262c8007b6c78ca2c09826bd000ca4b0cc89c0cca0a09ca4203c839097b6a8800d60a0a7b6a688268a000c88a0ad642087b68a000c8c808d8390c7b6870c8a808c8c803d4b70cd42008d4c8088267b000c87909d8790b8267a800c87303c8b30c7b6980005108a300d37c08d87c09db890b826768d87a0a8268c0008e8964c08262b8008e2cd2c909826cd800d6c20c8eccd4c90982638800d6380c8eccd4c909d4a9097b69c0008267a000826870d878077b67b0008269d0008e9c8267788e78d2c808d6490c8eccd4c808640c8260c800d6070a8eaad4a8088267b000d47808d49009d4230a8e998eaad2a909d49808826980008267c000d47808d4b80884880151080628dc267b6c90008268d800ca4802d49207826898006494d4c809d497078877017b67d800684795774068c9dac7096827957740688ada870a95a78000d4c40bdab709d8a70c94bc8eca8897fa00857b01dacb0a88a7019577ff9aa09accc9bc039a99f9007b60c0008e0b8e7c7b67c800da7b0c8e377b69d00088990001859901db3709dbac098267d800d49707826990009479644a947a648c947c7b628800642b947b5107062839168267d0008577ff008264c000d447028260c800d40307d47207520706281a16826ad00095a9017b69d800889701c837077b67b000d49707887701c847077b67a000d84707c807077b67a8009aa9ff007b69b8009a99800082678800502056012a427b67c8007b68c00082678000826890008269b8005020580136427b67788267c000d487077b67c0008268d0009a897f826788008268980050205a0113428269b800889a80007b6ad000826bc000dbab08826b9000da9b087b68c0008268c800826b78d4b808daa70882678000da97087b68c800826788008268980050205c01cf41826aa000826ba8008269b000d4b909826cd800d4ac0cd4c909826ad00093a87b68b80093a77b67d000510906281913330c49167828e2144929a00749299807492990074929880795670020837733005e010a1033026001280c415022600109415022620143405107062821248267d8008177561703072825249567ff079577c10733084050206401b3d49567ff07957761957900078298787b68d8008298707b68d0008298687b68c0008297607b67c8005020660132d48267d8008268c000d487078268c800648a8269d00050226801594052070628d723009567c0138268d80050206a0182d6956a781095ab000382b75082b86082b94882ba58826cb000d37c0bd8c707826ca800d8c909dbb7098267b800d87a02826cc000d38c0bd8c808dab208d3a707d4b707da79087b6890009567a01333084050206c0100d49562781095270003827940827c38827b30827a288267900051075f06d4ca07d49b08d48707987720d4c808978820d4870752076aff491278491270491268140700000000a079c3089568e0107b27800064a77b6a88007b6b80007b6c787b697050206e01d4d482688800826770826a78d47a0a140b00000000010000001407fcffffff00000000d8780782698000949794a7510709ff83870495697810330c491960491958491948209568c0104919507b6ad8007b6bd000502070017cd4826ad80082698000826888008267d0009577dcd87807949794a75107c3fe838724956a7810491a40491a38491a28199568a010491a305020720140d4826a88001407bcffffff00000000d87a078268800094878268d8009487510784fe83a7443a08c000023a09c800023a0ad00002956b78107bb8207bb9187bba101409000000000000006e956880107bb90850207401e9d333086482678800330036022853d78267b000330076010a053302780128373c50227801343c492678067b6870067b676806956860067b6a6006330750207a01a8d349265806492650064926400602330720956840064926480650207c018ad382699800819756173f08480940019517e08477e07b67a800647183793308408267a00033007e010a09826aa8003302800128503c826aa80050228001493c7bcae0007bc9d8007bc8d0007bc7c800956720069568401c5020820120d4826720067b67a800826728067b679000826730067b678800826738067b6780008267b000330084010a0533028601286a3b50228601673b4926f8057b68f0057b67e805956700069568e0057b6ae005330088019511c0fc951900037b90387b95307b9628951540038411e064168289828a088088107b6708492698027b6890027b6a8802956880027b6980023307330036032896d2956b000682b782b80882b91082ba187b6a98057b6990057b6888057b678005826780007b67b805826788007b67b005826790007b67a8059567c0059568a00595698005826aa8007b6aa00550208a01522a956800058287d8008262c0058289d000828ac800826cd000d37c0bd8c7088267c800d8790cdbb80c8268c000d3a803d88a0a8268b800d88208db3a08d39707d4b707db7c085108c8089567a00233084050208c01b8d095680002828bb800828cb000828aa8008287a00050228e01973b520839fc492690024926880249268002140900000000a079c308956880027b6998027b67d8007b6ad0007b6bc8007b6cc00050209001a0d18268d8008267c800826ac000d47a0a50229201673a5107ecfb8387044926780249267002492660022095686002492668027b6ac8007b6bc0005020940161d18268d8008267c0009577dc50229601f33b5107b1fb8387244926580249265002492640022c9568400249264802502098012ed1826bc800826ad0008268d800140900000000010000001407bcffffff00000000d8780794a794b7510768fb8387443a08600102956b00027bb8383a086801027b69c0003a097001023a0a7801027bb8307bb928956820027bba2050209a01ced08269d8008267c00095779c50229c01c73a51071efb8397643a08800102492608027b6818021408000000006e616f6c7b68100295680002492600023300b0012889d09567ff079577a10633084050209e0141cf9567ff0795776195780006828b58828c50828a488287405022a0011d3a9569ff079599615208b8fa4929300649292806492920067b6ad000140a00000000a079c3089568ff07958881067b9a38067b67d8007b6bc8007b6cc0005020a2011bd08268d8008267c800826ac000d47a0a5022a401e238510767fa8387049569ff07959961492918064929100649290006209568ff0795886106492908067b6ac8007b6bc0005020a601d1cf8268d8008267c0009577dc5022a801633a510721fa8387249569ff079599614929f8054929f0054929e005229568ff07958841064929e8055020aa0193cf8269c800826ad0008268d800140b00000000010000001407bcffffff00000000d8780794a794975107cdf98387443a08e800027b6bc000956bff0795bb6195bc00057bc8d8003a08f000023a09f800023a0a0001027bc8d0007bc9c8009568ff07958821067bcac0005020ac0124cf8269d8008267c00095779c5022ae011d39510774f9839764956aff0795aa61492ab005492aa805140800000000000074737ba8b8059568ff0795880106492aa0055020b001ddce330884008267d8005020b2014ad28378330701330984000a0d01d4ca07d49b08d48707987720d4c808978820d4870752070ff9492218034922100349220803140700000000dd72b823956880137b27200364a77b6a88007b6b80007b6c787b69705020b40176ce8267a0003300b6010a8269d0003302b8012835388269d0005022b8012e387b6890009877206f98978920d497077b67689888207b68608267a0003300ba010a058269d0003302bc0128f0368269d0005022bc01e936d4780298aa206f99979820d4a80398942082678800957a04d87a0c82678000c8c70bd87b07dacc07826878c88707d8870c826870c88c0c956878108269607b8998028269687b899002826990007b898802958900027b9ce0007b97d8008267c0007b9780008267b8007b97788267b0007b97708267a8007b97684928a0027b9bd0007b9ac8007b84b8027b83b0027b82a802648c956760139568401395692013956a0013956be012492cc0025020be01b72a956878108287f002828200038283e802828af80282688000d3870bd8870c82608800d80304dab40c826978c99a0bd89a0a826970c99209c9a909d8cb0ac9a9097b6968c9cb0b7b6b60c98707c947077b6758c903077b6790005020c00182cb3a081002037b68503a082002037b68483a071802037b67400a0a018267406f779778208269486f99989920d498089877208269506f99979a20d4a707826ad0009899207aa9107ba7087ba89569782049094919f84919f0826790006472826c60d4c707826868826b58d4b808d48707987720d4c808978820d487074919e85207f3f68267880064285020c201fdcf7b6768330820826788005020c401edcf9569782048190820491940ff491938ff491930ff491928ff8268d00097882098882014090000000008000000d49802956860209788209888209569a020979920d4890a826868978820988820826b900097bb20d48b0b97772098772095688020978820d4780c3308ff3309ff64270a01015107062805160a0c01330820ae87080a0c6478019569781082628800826b8000826c78826a707b6868492690007b9808027b922802492910027b9b3002492918027b9c3802492920029567a012956880127b9a40025020c601822582628800826768c82700d8700882638000826c9000c83c09c88909d3c90ad8c90bdaa80b826a78c8ac08c88b0bd88b04d8c808826770c87c0cc8c808c8840495687810958c00017bcbb8007bc9b0007b80a8017bc7e0007bcad8007b83d0017b82c801648a9567601295684012956920127ba4c0015020c80146269517e08477e07b6790006471956700128268d8005020ca0103cc956c781082ca880182c7900182c8980182c9a001826bc0007bcb4001826bb8007bcb3801826bb0007bcb3001826ba8007bcb280195cb00017bb9607bb8587bb7509567e0119568c0119569a0117bba485020cc01c52295677810957800018289787b698800828b80007b6b78828a687b6a80008287707b6770826890007b89107b8b187b8a7b87088267d8005020ce01f2cb826778826870d487078268880082698000d49808d48707520748956780118268c8005020d00149cb956a781095ab000182b70882b82082b91882ba10847700ff956b78207bb880007bb9787bba707bb7689568e0208267c8005020d20193cb956760113308405020d401d9c8956a781082a7000182a8f80082a9f00082abe8005022d601143452075af48267a8007ba7c8008267b0007ba7d0008267b8007ba7d800956840118267c0007ba7e00064b77b6bd8005020d801c5c98267a0003300da010a058269d0003302dc012875328269d0005022dc016e32d4780298aa206f99979820d4a8089899203a0aa00002956778107b7ac0003a0aa800023a0bb000023a0cb800027b7ab8007b7bb0004927a0007b7ca8007b7998007b78900033082095692011956a00117b7288008267d8005020de0124cb33078268980033090a0d2807198267b0003300e0010a053302e2012897315022e2019431492678057b6870057b676805956860057b6a600533075020e40108c94926580549265005492640050233072095684005492648055020e601eac89517e08477e07b67a800647182699800819756173f08480940019517e08477e07b679800647183793308408267a0003300e8010a09826a98003302ea01288433826a98005022ea017d338268a8007b8a187b89107b8b087b87956720055020ec0179c9826a2005826728058268300582693805826bd0007b6bd804826bc8007b6bd004826bc0007b6bc804826bb8007b6bc0047b69f8047b68f0047b67e804956700059568e0049569c0047b6ae0045020ee013f20956b000582b71882b81082b90882ba956b78187bb7000495b700037b78f8007b79f0007b7ae8009568601c8267a8005020f00173c99567a0043308405020f201b9c695680004828cb800828bb000828aa8008287a000d4ca09d4b708d49808988820d4b909979920d4980852082bf2492690044926880449268004140900000000bb9c05a9956880047b6998047b67a8007b6a98007b6b90007b6c88005020f40192c78267b0000a058269d80082970881981082996f77977a206f88988820d4a8029877206f98978920d479039888208267a800957904d8790a82679800c8a70cd87c0bdaaa0b82679000c87b0bd87b0a82678800c87a0a8267d0007b6718048267c8007b6710048267c0007b6708048267b8007b670004492638047b6a58047b6b50047b6c48047b6940047b6830047b632804956760049568400495692004956a00047b6220045020f6011123826768048262780482636004826a700482689800d3870bd8870c8260a800d80304dab40c82699000c99a0bd89a0a82698800c992095022f8012f317b6780005020fa0114c53a08f001037b68603a080002037b68583a07f801037b67503300fc010a0a3302fe0128bb2f5022fe01b82f837778f8c87609492920044929180449291004826780006472826c70d4c707826878826b68d4b808d48707987720d4c808978820d4870749290804510706289af08267a800642850200002a5c97b67783308208267a8005020020295c995697818959a0004481a2820491a60ff491a58ff491a50ff491a48ff8268d80097882098882014090000000008000000d498029568801c9788209888209569c01c979920d4890a826878978820988820826b800097bb20d48b0b9777209877209568a01c978820d4780c3308ff3309ff64270a0101510706282d100a0c01330820ae87080a0c6478018269a800826a9800826b9000826c88007b6878492680007b68a0037b69c0034926a8037b6ac8034926b0037b6bd0034926b8039567c0039568a0037b6cd80350200402281f8262a800826778c82700d8700882639800826c8000c83c09c88909d3c90ad8c90bdaa80b826a9000c8ac08c88b0bd88b04d8c80882678800c87c0cc8c808c884047b6b50037b6948037b6040037b6778037b6a70037b6368037b6260039567800395686003956940037b64580350200602f41f956720033308405020080292c3956b000382b73882b83082b92882ba20d49707d48a09d47909989920d48707977720d497075107062805ef8267b800956900037b978267c0007b97088267c8007b9710956800038267d0007b971864a77b6ad00050200a0272c48267b00033000c020a058269d80033020e0228222d8269d80050220e021b2dd4780298aa206f99979820d4a8089899204926d8023a0a4001023a0b4801023a0c5001023a075801027b6af802956a00027babf0007bace8007ba7e0007ba9d0007ba8c8003308209569e002956ac0027b62c0028267d00050201002d1c533078268a00033090a0d28b4139567a01633084050201202a1c295677810957900068298407b68d0008298387b68c8008298307b68c0008297287b67d800330014020a0c3302160228c12c50221602be2c5108062802ee647998772051070628f7ed50221802a22e50201a0202c7956878208269c8007a89a8018377956800208388200233090a0b956778208177a801018268d000ae870628beed0a0c01647898772051070628b0ed8267d8007b68d00050201c02b9c683788169d0003307010a0d018267d800957980826780008268900050201e024f2e7b67787b686882678800826898008269d80050202002372e7b67207b68708268d8009a898000826780008268900050202202412e826970d49808826ad80088ab80007b6b70826968dab90882699800dba8097b699800826820d48707826878dab80782688800dba70864a97b688800826780008268900050202402d22d330c82697093989397491670634916688264980082628800017b6888007b6c900049167898293f974a01d49a0a9729018260c000980b3fd49b0b7b6b9800826968d3a9087b688000d8a908826c70d8bc02826b8000dbb80282688800978801987b3fd4b8087b688800984b3f977701d47b0b9707018268c800988c3fd4c7077b67c000978c018267b80098783fd48c04977c018267d00098703fd40c0c97770182689000d487077b67d00086c77b67b80086477b67c8008267c00086777b67c000c9b907d82707d8b90882638800c9390cc98c0cc97c0c99c03f84076482689800c97802d87808c98a0494a8c98b07d88b08c98308826ad800826cb000d4ca09889901826ba000d89b03c99b0b88a901c99c0c8269a800c9390995aaff7b6cb0007b69a800d4c9097b6ad800d4ba0ad4a909840c017b6ba00033035209defe8269c80098973f8268c000978801d478028267b80098783f979901d489098268d000988a3f977701978801d48c0b826878d4a80cd47c0cd4980ad4280901826728d87b07826b30d3cb08d8bc0bda870b826738d87a02826c40d39c08d8c909da8209d3a707d48707da7b09510967019567ff079577610133084050202602a7bf9569ff079599618292180195980001828c10828b088287d42b0ad4c708d4a808988820d4ca0a97aa20d4a8085108062813eb4929f0004929e8004929e000140a00000000a079c3089568ff07958841017b9af8007b67d8007b6bd0007b62c0007b6cc8005020280277c08268d8008267c800826ac000d47a0a50222a023e2952070628c0ea8387049569ff07959961330c4929d8004929d0004929c000209568ff07958821014929c8007b6ac8007b6bc00050202c0229c050222e029a295207062881ea8387249569ff079599614929b8004929b0004929a0001d9568ff07958801014929a80050203002f4bf502232023b2a520706284cea83a7443a082801023a093001023a0a380102956bff0795bb617bb898007bb990007bba8800140900000074696d696c9568ff079588e1007bb9800050203402a7bf3308648267d8005020360215c383783307013309640a0d01826758330038020a0533023a0228152850223a0212284929d804959b00047bb8d0007bb7c8009568ff07958821057bbac000330750203c0255bf9568ff079588614928b8044928b0044928a0040250223e02ce28958801054929a804502040022dbf826948819756173f0e4809403302420228162a50224202132a330044020a093302460228f12850224602ee2895bc00067bca407bc9387bc8307bc7289567ff079577e1049568a01e50204802d1bf9568ff0795886195890004829798007b67b800829790007b67b000829788007b67a800829780007b67a0009567ff079577c10433084050204a0269bd9567ff07957761957c000482c8787b68c80082c9707b69c00082cb687b6bd00082ca607b6ad8007bc8587bc9507bcb489568ff079588619567ff079577a1047b8a400450204c0262178267c8008268d000d487078268d800648a8269c00050224e02f328510706289de88267289569ff07959961959b00047bb7208267307bb7288267387bb7309568ff07958881048267407bb73864a75020500206be8267c8008268c000d47809140a00000000010000001407e0ffffff00000000826bd800d87b078268d000948794975207062836e883b7207b69c8009569ff079599617b6ac000826aa000959b00047bba826aa8007bba08826ab0007bba109568ff0795886104826ab8007bba187b67b800502052028fbd8268d8008267c0009577c050225402212852070628dce7838740956aff0795aa61492af803492af003492ae8039568ff0795884104492ae003017b67a000502056024bbd826758330058020a0533025a0228d12550225a02ce254929d803959b00037bb8d0007bb7c8009568ff07958821047bbac000330750205c0211bd9568ff079588614928b8034928b0034928a0030350225e028a26958801044929a80350206002e9bc9517e08477e07b67b0006471826948819756173f08480940019517e08477e07b67d000647183793308408267500a09826ad00082a71882a81082a90882aa6f7b7b6bc0006f887b68c8006f997b69a8006fa77b67d000826ab0007ba7187ba9107ba8087bab9567ff079577e1038268d8005020620238bb956aff0795aa6195ab000382b7980082b8900082b9880082ba8000956b781895bc00067bc7607bc8587bc9507bca489568c01e8267b00050206402a8bd9567ff079577c1038268b80050206602e9ba9567ff07957761827260038273680382747003827a78038267c000957701887c018268c800c88c0cd4c70b88bb018268a800c88b0bd88b088269d000c89808956978187b988006959800067b8b787b8c707b87687b8aa0007b9498067b9390067b9288069567e01e9568001f5020680224bd9517e0847ce064c18268c000958702d88708826ac80050226a02bc268268a800c88a0ad88a08826bd000c8b8087b6cd8007bc8187bca107bc9087bc79567ff079577a1038268a00050206c0229ba956aff0795aa6195ab000382b75082b85882b94882ba40d49808d4a707d487078e777b67d0009567ff07957781038268d80050206e021dbc956aff0795aa6195ab000382b72082b82882b93882ba30847700ff826bd000d4b707956b781895bc00067bc9c0007bcab8007bc8b0007bc7a8009568201f8267d8005020700256bc9567ff07957761033308405020720298b99569ff079599618292180395980003828c10828b088287d42b0ad4c708d4a808988820d4ca0a97aa20d4a8085108062804e54929f0024929e8024929e002140a00000000bb9c05a99568ff07958841037b9af8027b67d8007b6bd0007b6cc8007b62c0005020740268ba826758330076020a0582696033027802281a23826960502278021423d4780298aa206f99979820d4a8039899208267d800957a04d87a0b8267d000c8b70cd87c07dabb078268c800c88707d8870b8268c000c88b0b9568ff079588617b8bb802958b00027bb7b0007bbca8008267407bb7788267387bb7708267307bb7688267287bb7607bbaa0007bb990007b8388027b828002956bff0795bb619567ff07957721039568ff07958801039569ff079599e102956aff0795aac102492b980250207a02cd159568ff079588618287c8028282d8028283c002828ad0028268d000d3870bd8870c8260d800d80304dab40c8269c800c99a0bd89a0a8269c000c99209c9a909d8cb0ac9a9097b69b000c9cb0b7b6ba800c98707c947077b67a000c903077b67b80050207c02aeb73a081002037b6898003a082002037b6890003a071802037b6788000a0a01826788006f77977820826990006f99989920d49808987720826998006f99979a20d4a707826a609899207aa9107ba7087ba8956978184929e0064929d8064929d0068267b8006472826ca800d4c7078268b000826ba000d4b808d48707987720d4c808978820d487074929c806510706280fe38267d800642850207e021abc7b67b0003308208267d8005020800209bc956978184829e80620959a0007491a20ff491a18ff491a10ff491a08ff82686097882098882014090000000008000000d498029568401f9788209888209569801f979920d4890a8268b000978820988820826bb80097bb20d48b0b9777209877209568601f978820d4780c3308ff3309ff64270a0101520729030a0c01330820ae87080a0c6478019569ff079599618262d800826bd000826cc800826ac0007b68b0004926b8007b9800027b922002492908027b9b2802492910027b9c3002492918029567ff07957781029568ff07958861027b9a3802502082028d118262d8008268b000c82807d887088263d000826cb800c83c09c88909d3c90ad8c90bdaa80b8260c800c80c08c88b0bd88b04d8c808826ac000c8ac0cc8c808c884049568ff079588617b8bb0019568ff079588617b89a8019568ff079588617b87a0019567ff079577617b7ad8019567ff079577617b70d0019567ff079577617b73c8019567ff079577617b72c0019567ff07957741029568ff07958821029569ff0795990102956bff0795bb617bb4b8015020840214129567ff079577e10133084050208602aeb5956aff0795aa6195ac000182c7980082c8900082c9880082cb800050228802e2205107062825e182672895a900017b97608267307b97688267387b97709568ff079588c1018267407b977864b77b6bd80050208a0291b682675833008c020a0582696033028e0228431f82696050228e023d1fd4780298aa206f99979820d4a8089899203a0a0801029567ff079577617b7a58013a0a1001023a0b1801023a0c2001027b7a5001957a00017bab48492738017bac407ba9307ba8289567ff079577613308209569ff079599a101956aff0795aa81017b7220018267d80050209002e1b7330782685033090a0d28c5059567c01233084050209202b2b495677810957900028298607b68d0008298587b68c8008298507b68c0008297487b67d800330094020a0c3302960228d21e50229602cf1e5108062813e064799877205107062808e050229802b32050209a0213b9956878208269c8007a89488377956800208388c00033090a0b956778208177482814f29567e00333084050209c022eb4956800038287f8007b67d0008287f0007b67c8008287e8007b67c0008287e0007b67d80033009e020a0c3302a002284e1e5022a0024b1e510806288fdf64799877205107062884df5022a2022f205020a4028fb8956878188269c8007a8968048377956800208388e0fc33090a0b9567781881776804288ef19567ff079577a1023308405020a602a4b39567ff07957761957900028298587b68d0008298507b68c8008298487b68c0008297407b67d8003300a8020a0c3302aa0228c11d5022aa02be1d5108062802df647998772051070628f7de5022ac02a21f5020ae0202b8956878188269c8007a8928078377956800208388a033090a0b95677818817728072802f13308d00102838833070133090a0d281e043308d00102838833070133090a0d280d043308d00102838833070133090a0d28fc033308d00102838833070133090a0d28eb03956778104927f8044927f0044927e80464793302b002140700000000717b484e01956860157b97000533075020b202eeb3956878104928e0044928d8044928c804116489330704956840154929d0045020b402cab382679800817756173f0c8268980048084001330701330924826880000a0d013308d00102838833070133090a0d2866033308d00102838833070133090a0d2855033308d00102838833070133090a0d2844033308d00102838833070133090a0d2833033308d00102838833070133090a0d2822033308d00102838833070133090a0d2811033308d00102838833070133090a0d2800033308d00102838833070133090a0d28ef023308d00102838833070133090a0d28de0252478be3fdf29e01956778204927a00249279802492790024927880295670020837700033300b6020a1001956a782095ab00025022b8020b1d5107a2023308d00102838833070133090a0d2890023308d00102838833070133090a0d287f023308d00102838833070133090a0d286e023308d00102838833070133090a0d285d023308d00102838833070133090a0d284c023308d00102838833070133090a0d283b0295687820492800014928f8004928f0004928e80001956760218268d8005020ba02bfb33308d001028388330733090a0d2808028388330733090a0d28fd013308d00102838833070133090a0d28ec013308d00102838833070133090a0d28db013308d00102838833070133090a0d28ca013308d00102838833070133090a0d28b9013308d00102838833070133090a0d28a8013308d00102838833070133090a0d2897013a091002033a081802033807200203956bff0795bb61492b580795bc00077bc7507bc8489568ff079588a1077bc94064a75020bc0294b13308208267c8005020be0202b5837833092033070a0d280a33092033070a0d0152479d96bc29d700956778184927200349271803492710034927080395670020837780fb3300c0020a1001956a781895ab00035022c202a71b510715013308d00102838833070133090a0d28f2009567ff079577614927100549270805492700059569ff079599613302c402140700000000717b484e019568ff07958861057b97180533075020c602e9b09568ff079588614928f8044928f0044928e004119569ff079599613307049568ff07958841054929e8045020c802b9b0826748817756173f0b826848480840013307013309248268500a0d01956978185247a6185071484929a00449299804492990044929880495670020837700fd3300ca020a1001956a781895ab00045022cc02971a510796003308d00102838833070133090a0d281c3308d00102838833070133090a0d280c838833070133090a0d018267d80081775617231c3308d0010228e78267d8008177561723643308d0010228d695670020837720033308040a0301956778208278b8028279c00214070000000001000000d38707d497077b68d8009888208888017b69b8009498937852084d3308d0010228908267d8008177561703a8013308d00102287eff956700208377a0fb3308043300ce020a03019567781882783803827740035022d0023b19520a64023308d00102284eff956778208278b0027b68c8008277a8027b67d0008267d8009777209877207b67c0005020d2028e168267c8008268d000d487078268c000d48707510725031407ffffffff000000007b67b000956778204927e0024927d8024927d0024927c8029567201b956840235020d40210b0956a781895ab000282b8b8007b68a80082b7c0009888209788208269d800d4980882b9b0007b69d8008269b800d4970782b9a8007b69b80095697820959a00037ba7207ba818492900034929f8024929f0024929e8028267c8007ba7108267d0007ba70895676023956880235020d6021fb08267b8008477ff8269d8008498ff8269b000826aa800d2a909956b7818492b6002826ac00095bc00027bca58826ac8007bca50826ad0007bca48492b80027bc9787bc8703a084000023a094800023a0a5000027bc7687bc8a0007bc998007bca900064b83a075800029569001b956ae01a956bc01a7b878802330733085020d802b1b03308d0010228e8fb5020da024515956778184927c0044927b8044927b0044927a804956760079568201d5020dc02ebae826870077b68c800826760077b67d800826768077b67d00082677807988820978820956978184929e0044929d8044929d0044929c8044929f0044929e8047b9700057b98f8049567401d9568601d5020de0218af8267c8009777209877204926180749261007492608074926000749263807956c00077bc7308267d0007bc7283a074000023a084800023a09500002826ad8007bca207bc7587bc8507bc9483a0758000295694007956a2007956b00077bc740330733085020e002c4af3308d0010228fbfa956a781882a9300382aa28037b6a40017b6948017b685001956840017b67580133075020e2020cad4926380149263001492620010233072095682001492628015020e402eeac3307c801027b67d8003907c8010256173f0c8268d800480840019517e08479e07b69c80064913307d001027b67d000837783993308403300e6020a09826ac8003302e80228a115826ac8005022e8029a157bca607bc9587bc8507bc748956700019568c01b5020ea0275ad956b000182b982b70882b81082ba187b6af8007b68f0007b67e800330780009568e0007b69e0005020ec0256ac8267d800817756279f00188268d8004808a0008267d0008378800028bffa8267d0008378800028b4fa956778184927380249273002492728026479140700000000f7bd4f1e9568a01a7b97400233075020ee0201ac9567781849272002492718024927100264793307049568801a492908025020f002deab3908c8010256183f0b2003c8010240013308d0010283883307013309243300f2020a0d019511c07b10387b15307b16289515408411f0828910828a18828b088288d4ba0ad4980bd4ab0b98bb20d4a909979920d4b909520951647664175020f40241aa82171082181814090000000001000000d37909d48909987a2088aa01948a939a510a258219821a087b697b6a087b67107b68189551c08210388215308216289511403200003308d00102838833070133093300f6020a0d01951110ff7b10e8007b15e0007b16d8009515f0008411f0828610828218828c0882887b1c687b1258d42c036482d4680cd43c0c98cc207b1660d46308978820d4c8087b17505208580182b7187b171882b7107b170882b7087b171082b77b1782a7187b174882a7107b174082a7087b173882a77b1730829718829810829a0882997b19b0007b1ab8007b18c0009518b0007b17c800642664275020f80284aa821760821858d48709140700000000010000007b17201407e0ffffff00000000d8760782186894877b192894975107d1008367208218307b1890008218387b1898008218407b18a000951890008219487b19a8005020fa022aaa8217209577c0d8760782186894878218289487510791008217088218d48707821818821910d49808d487078e789567607b1748d86707821968c8790a7b1a40d89a09da7709821760c879097b1968d87907821958c897077b176083674049218800492180007b18709518704911785020fc02b6a98217508218607b78188218687b78108218407b78088218487b78955110ff8210e8008215e0008216d8009511f000320000951120ff7b10d8007b15d0007b16c8009515e0008411f0827810827918827a088277d4a909d48707d49707510719955120ff8210d8008215d0008216c8009511e00032009517a0003308405020fe02faa78219b8008216b0008217a8008218a0007b17107b1908d497077b1818d46808d47808988820d46707977720d487075207c000492190004921880049218000140700000000a079c308951880007b17980082171850200003dba8821908d46909140600000000010000001407fcffffff00000000821818d8780782181094877b1908949751076b821718837704491178491170491168951860491160205020020392a89567dc821818d8780782181094878218089487510739821618836724491158491150491140209518404911485020040360a81407bcffffff00000000d8760782181094878218089487520704008216188367443a08a001027b18383a08a801023a09b001023a0ab801027b18307b19289518207b1a205020060316a833086464675020080386ab837833070133096433000a030a0d019511807b10787b15707b1668951580008411f0829b828a829608828308829410828c10829918828818d363027b1608d863067b1b187b1a10d8ba0a7b1ada2a06d3980ad89800d84c02daa200d34c0bd4ba0adaa600520046c94c0ac99808c92808d86a09c99808c96a0a821908c99309821bc9b909821b18821c10c9bc0b7b7b7b79087b7a107b781895518082107882157082166895118000320049115049114849114033020c03140700000000717b484e019518407b1758330750200e033ba7491138491130491120113307049518204911285020100322a73908c8010256183f0b2003c8010240013308d001028388330701330924330012030a0d019511907b10687b15609515708411f0827a1882791082738277088eab8e9cdbab0c8e72883ba085bb01db720bd4a908db8c0b520b41953860d8380bc8b70cd87c07dabb07c89707d89709c8a9097b18407b1c487b1750330740c871087b19585020140399a6955190821068821560951170320049113049112849112033021603140700000000717b484e019518207b173833075020180365a6491118491110490141330704641849110850201a034ea63908c8010256183f0b2003c8010240013308d00102838833070133092433001c030a0d01951170ff7b1088007b1580007b1678951590008411f064728289827408828c088273959a1fd89a00c80c0984aae07b1308c8a303d8a30bc8490ac8ba0ad39a06d89a07da6b07822b18d8c90c828610822210828818da000cc86c0cd86c06c82c09c89707d8c90cd89709c8b808c86808c8c808c8980c8ec88e79dbc809d4c7088ea6db8906520657821808d88308d34a09d84a06da9806d82708d3bc09d8bc0bda980bd32708d49808da860b520b307b13507b1a587b17603307409518507b1c6850201e0363a5955170ff821088008215800082167895119000320049114049113849113033022003140700000000717b484e019518307b174833075020220328a549112849112049111041330704951810491118502024030fa53908c8010256183f0b2003c8010240013308d001028388330701330924330026030a0d019511907b10687b15607b16589515708411f0648a82841082880882920882a67b16829b7b1b08829010d3820c7b1c28d8820cd86b0b821328da3b0c64b682aa187b1a188299187b1910c9400ac9ca097b1920d8ca097b1428d8400b821418821a10c94a0ac9ba0ac99a0ac98209c969098212821b08c92b0b8e9c88bb2085bb01db9c0b8fa68219208e9cdba60cd4a909db9c0b510b616476821a28d4a207d44809d49707987720d4a909979920d49707520743951730642850202803f3a2821748821840821930821a38d4780b889c0294ac94bc510c277b697b6a087b68107b67189551908210688215608216589511703200003308d0010228083308d00102018388330701330933002a030a0d01951150ff7b10a8007b15a0007b1698009515b0008411f0828c10828b1882860882827b1b407b1638d4b608d4c20bd48b0b98bb207b1c48d4c808978820d4b8087b17305208da00642682a7187b172882a7107b172082a7087b171882a77b17108297108298088299977720987720492188007b19707b18789518707b178000642750202c0355a3821948821a40d4a9071408e0ffffff00000000d88608821b3894b894785108799567407b1708d86707c87b087b18d8b808da7708c898087b1838d89807c8a7077b17488367208218107b18508218187b18588218207b18609518508219287b196850202e03eea28217308218387b781082187b78088218087b788218487b7818955150ff8210a8008215a000821698009511b000320000951110ff7b10e8007b15e0007b16d8009515f0008411f0828610828218828c0882887b1c687b1258d42c036482d4680cd43c0c98cc207b1660d46308978820d4c8087b175052085c0182b7187b172082b7107b171882b7087b171082b77b170882a7107b173082a7087b173882a77b174082971082980882999777209877204921c8007b19b0007b18b8009518b0007b17c000642664275020300321a2821760821858d48709140700000000010000007b17281407e0ffffff00000000d8760782186894877b194894975107d7001408ffffffff00000000821930d289098218388488ff821a4084aaff8367204921a8007b1a90007b189800951890007b19a00050203203b7a18217289577c0d8760782186894878218489487510787009567607b1748d86707821868c878097b1940d88908da7708821760c878087b1838d87807821858c887077b17688367408218087b18708218107b18788218187b1880009518708219207b198800502034034da18217508218387b78108218407b78088218487b788218687b7818955110ff8210e8008215e0008216d8009511f00032000049267802492670024926600203330720956860024926680250203803fea03309c801023907c8010256173f0b2003c8010240017b69509517e08479e07b69b80064913307d00102837783993308407b673033003a030a09826ab80033023c03287f0b826ab80050223c03780b7b6890007b68b8027b6798007b67b0027b6b88007b6ba8027b6c80007b6ca0029567400233084050203e03499f956b000282b7587b67a80082b8507b68a00082ba487b6ab00082b9407b69b8007bb7387bb8307bba28956720027bb9205020400355f9956700029568a0025020420331a18267a8008268b000d487078269a0008268b80050224403da0a5207960682691802826a100282680802826700027b6778956b00017bb7e0007b68687bb8e8007b6a587bbaf0009568e0017b69707bb9f8008267b80050204603e49f8267800095770188780182698800c89808d48709889901826a9800c8a909d8a90a826b9000c8ba0a956b00027bb8c8007bb7c0007bb9d0007bbad8009567c0019568c002502048038ca08267a8008268a000d47809140700000000010000007b67a0001407e0ffffff000000008268b800d878078268b00094877b69a80094975107d405956c000182c9d80082c8d00082cac80082cbc0008267b8008377207bcba0007bcaa8007bc8b0009568a0017bc9b80050204a032b9f82688000958702d88708826a880050224c033e0a82689800c88a0ad88a08826b9000c8b808956b00027bb9e8007bb7e0007bbaf0007bb8f800956780019568e00250204e03d69f8267a0009577c08268b800d878078268b00094878268a800948751073a05826780018477ff007b67b0008e788267b80083774049267801492670017b686001956860014926680150205003979e8267b00051079204330364826278d63207826b68ca3b08c887077b6760d88707d63b08c88707826a58ca3a08c878087b68b800d87807d63a08826c70ca3c09c88909d4a20ad4cb0bd4ba0ac8790b510a1794b7d88908d63c098e99d49808d487075207f1047b6b704926180349261003492608034926000301956700019568000350205203029f826c18018262100182640801826b0001d4c407d42b08d4870751076804826878968864887701826ab800d48a0a64807b6868826360826870d48309d4a909889901d497077b67b000682795774068cadac70a7b6b3868b7957740684b7b6440da470b95b780007b6c507b6248d4c209da970ad8b70b949b8262b8006827957740688cda870c68079577406839da370995978000d48202da270cd897099429d39b02d89b07d8ca00da20078874019544ff9a72c99b0bc90b00c9ca0c8e2a8e49da4a098e0b7b6ca80088ca000185aa01db0b0adb790a8269b000d4a909648b949b826ab800949a64379497826c68949c52096c0364388269a8008599ff00d42903d44009d4930951095503826aa80095a9017b69b000889701c807077b678800d49707887701c827077b6778d82707c847077b6780009aa9ff007b6990009a99800082676850205403f8077b67a0007b6898008267b800826870826990005020560305087b675882679800d487077b6798008268a8009a897f82676882686050205803e40782699000889a80007b6aa800826b9800dbab08826b70da9b087b6898008268a000826b58d4b808daa7088267b800da97087b68a00082676882686050205a03a307826c7882698000826a8800d49a0a8269b000d4c909d4a909826aa80093a87b68900093a77b67a80051092a028267b0009579808267b80082687050205c033d077b67587b68288267688268608269b00050205e0327077b67207b68308268b0009a8980008267b800826870502060033207826930d49808826ab00088ab80007b6b30826928dab908826960dba8097b6960826820d48707826858dab807826868dba70864a97b68688267b80082687050206203c8063304826930939893977b6770826938889701826a40c97a077b6728d4a907887701826a48c97a0b7b6b20d87a07826a50c97a0a7b6a189599ff7b6910826360826068017b6458491660491630980b3f973a01d4ba02970b01826a980098a93fd4b9097b6968826728d3270cd8270b826710d89704dbcb0497880182677098793fd498087b68b80098393f977701d4970397a7018268a00098893fd4970797890182689000988b3fd4b909978b01826ca80098c03fd40b0b97cc01826858d4c8087b68a800826a60d4ba087b689000d49a087b68a000d4a7077b679800826820c93807d84707d83809826818826ab800c9a80bc99b0bc97b0b99bb3f826738d27b087b6860826c40d2bc0cd3c207d8c209826468d88400da7009826848d28b0ac9a308c998077b6770d89807d8a308826950d2b909826ab800c99a09c98908c97808c9c20ac90a03826760c97400826cb00082698800d49c07887701826a78d87a04c97a0788ca01c9a909826a8000c94a0a95ccff7b6988007b6a8000d4a9097b6cb000d47c0ad49a0a84b4017b6778520ab4fe2810330c330a330b2846330449163001826aa00098a73f82689800978801d478028267900098783f97aa01d48a0a8269a80098983f977701979c01d4c40c826930d49808d48707d49a0ad4290b018269087b9c7b97087b9a107b9b189551c0fc95170003827038827530827628951140033200004926f0004926e8004926e00033026403140700000000717b484e019568e0007b67f80033075020660364994926d8004926d0004926c000123307049568c0004926c80033006c0328429949265001492648014926400133026803140700000000717b484e01956840017b675801330750206a031a9949263801492630014926200111330704956820014926280150206c03fc98826750817756173f0b8268504808400133070133092482683033006e030a0d01951140ff7b10b8007b15b0007b16a8009515c0008411e04921980049219000492188004921800095176095188000502070039a998217687b17188217607b17108017707b17083306d0010383677b170a05013a07d801033a08d001033909e001036f77987a206f88978b20d4ba0a9777206f99989920d49707988820821908d39808821910d39707d48707821818d3a808d48707520719955140ff8210b8008215b0008216a8009511c0003200491150491148491140140700000000a7da8c119518407b17583307502072030e9882170a0582670881681082696f77977a206f88988820d48a0a9877206f98978920d497079888204911387b18307b17283307049518207b1a2050207403cf973908c8010256183f0b2003c8010240013308d0010283883307013309240a0d33073300760328549b3307502076034f9b33070150207803469b8269d80082970881981082996f77977a206f88988820d48a0a9877206f98978920d49707988820320282696082970881981082996f77977a206f88988820d48a0a9877206f98978920d497079888209569ff07959961320282970881981082996f7a97a7206f889888203202140b00000000010000001407fcffffff00000000d878078269d000949794a7320282a71882a81082a90882aa6f776f886f996faa956b781895bc000332028268d0008269c000d49808826ac8008269d800d4a909d48909989920d4a808978820d4980832028267506f779778208269586f99989920d498089877208269606f99979a20d4a707826ad8009899207aa9107ba7087ba8330700203202826bc800826ad0008268d8008267c0009577dcd8780794a794b732029569ff079599613307209568ff07320214090000000001000000d38909d47909988a2088aa01947a939a3202d4ba09d4c708d49808988820d4c909979920d49808320282970881981082996f77977a206f88988820d4a8083202826ad80082a71882a81082a90882aa6f776f886f996faa956b78183202d879078268d00094878268c80094873202d49707d48b09d47909989920d48707977720d49707320282b7980082b8a00082b9900082ba8800d49808d4a707d487073202826ad8001407bcffffff00000000d87a078268d00094878268c8009487320282b71882b82082b91082ba08d49808d4a707d487073202c9a909d8cb0ac9a9097b6978c9cb0b7b6b70c98707c947077b6768c903073202d878078269d00094978269c80094973202d49808d47808988820d49707977720d48707320282a71882a81082a90882aa6f7c6f8b6f976fa8320282a71882a81082a90882aa6f776f8b6f996faa320233077818c8760a95ab000732029517e08477e07b67d80064718379330840826750320283977b67d0008267d80064987b69c8003202c88a09d8a90ada880a3202849a40520a195109148d9a40cfa80ad09808d09707d4a707320032009597c0d0780733083200849a40520a195109148d9a40d0a70acf9707cf9808d4a808320032009598c0cf870833073200490a21a11a4292d210a1925429a42449922449922449922449922449922449922449922449922449922449922449aa9294529294942454a5242549922449922449922449922449922449922449922449499294a4aa24254994a492a42a494992922425294955559292a42495244544444a9224254952a1524a4992524a4952491111514444a424499292244929499224944a4a4a8a142952a448912245498a888892244108094369521a1289888848111124228948122922221a111149224492442229890811a1a81122828808914824121144448824494a12458488888848244542148d942422222242241211112992082949248988888888880891108944222245122129492411914884104244922422a24294245194242249922489880820224292000288a42212118988081189a422121122420091144524444208491412a1a489922422098944222211222244844888888824491243a942a91111404421221211420443499144a88a08112222420821224444442449a25095102112511a1148402011482081040412104844444423124992248a44a48888888844244544440851a424444444212224228410c148a2508914498488888810111191441249244992488888889044440011111121221292448488881011915492881011228090248410492222111111694448a248448a48928844244544448410454a424424914244841211922884084612854aa44822449222444492a448244912492249922449529208912022922449922422228088880822462482484992882212415292482249249148242222221289442222228a88880822222292482289041184848444912089882849922489240a92082222841022092091449224922492a4264d6a44442222222222228248129124892489241111111111111111111144828848122411894422520411452482a424212284109148928888a0a8444444a2489024499228121111111144229148442488449292244912494444444444242222221a1124512422d188089288888888288888502282240a114ca25089221241442291281244444444444444441011442422482222492412894804914492482211491211442480002251494411892492489244228824824822114922228844a22889882212111141248888888888489224499248241289a4888848101189244992222222121111d18888289224512422424410454444444482888888208988888888288244242222124582888824491489a488888888442445444404218a22a994a424111111511011a144044914229844a1124592aa2249494992244989082222124411114144242202888888202212442211212222082291881011440041248448444444249088888868449044918844232248222249225210298920122451886012854a91a4a2288a48524410492412894822114912492289441029228920114924918888249108222292202222222222121111111111111111111111118988882012892449a288888888982449221149244992248922282a1111118d888824491449a288141111111191a4202291a8241244444424499288880022222282884810898848444410442222440441244424849044221111118d88882449148904118944221144248a20420811111151242222221a11245124224544442449922211111141488922414444441444224210118410c12451a8a4284955922449444444440491884491202222220a22112188085224124491202222222288442291484444142222884424924824499248922492249148229248924412492449924412494492242a4aa4444a22928852528a944852494492242289924429a544928a24a94454a4882491a82a2a898844924422892491444444101111412211890822221289481289882022124914455212111145912048a248448248241289441091288264441091249144128924492212442449449224892401441491049124800012158992884404111149452289481001248a222184481240244844228a041111511011121144914954228a480411111141444444444491202222222292442a4944441489924444444444444444101111914412492449221244444410111140444444101109221121222288481089081141440410402a12222142482241448248880820222211092291244124222202888888082222412412112222228848108944848808222280005291109188104244440411092291880022228288a04493244944440011452441c4884410294912514422484a12492449924422111111119148242222a2888888202222228924499224499244101212d29494242591a42889922449924414241144444444124022892449244924494d9ad48848121111111111412489489224499224222222228a88089228228888888888888848121109221291441249892049449288202249222249441009222222888888888828828822124152921011428888884844445054228a0411115110111211245114994425a2884410498a202222222222222222228248524444444410092222224992444404101111114491544a529248224924918888888888888888888820222292482289041184848444912012115192244912491424114444444424012492489244924492d4a4498d884844444444440491242249124912492222222222228804912449922489281289481144149108929244082144444444222282a2120922128944228a0449498220228aa88891b424114191462282242282242222482292442249224544502a1231224912492491241249224922894492481289a288224924492249492292489248221249a28844124922499224932449922449442488442425499224220288888888202212248914112222220892442242440441921042242202888820119434512488888888824844082282148904512488248988201211111111110922914824124922111144248a2049249224114941440208201295242211512412118920224192484444840812458288888828884484202248a21499442545928aa22822491111442222222249228288082211119144924822119124222222488a2482482291a48808229124498a88082291241189888888082212442292922449121101444444449028910449492289249144221111499224111191888888880822111191441249244924924804214284689428499424491111512422499248a220124184888848124022892492489248921a4d6a2422222222222222222288482292249124912412918844242211894844444444228848108988882049244922922248944882a42421122184884492482222228252890411894422114582a424411091222a924810111111115124484a12041151444524224124128944228a0449498220228a544442a9845209a5124a2522a208604441448412114411994443a9845209a5124a25944a2895502aa15442a90444444444342288502aa15442a9845209a5124a2522224404a12a5509a5124a25944a2895502aa1544208918824220589a054a901111111118d0822944a24222211c0882888448448222248914cd20844444444238208a50aa52a358a5014a1883422024822894a280a21118946441021111111490411894400111111114144442491884844441211118944049148442222128944124248441422222a080922222222888888882422222222228248222222120921449284884805211111111105112111418810914914a212452482248908a2241111114114222212918888028828888828114188602889264992a42449920a920092a4524a9224692845232222494a52922449244952499294244544440549024800492992482422112449295292a42449922449928824419224491111d188884892922422228a04111149922449444400110992000248524a922411244929491249104052ca2424849024410a4aa24912a9244992242949922449922425494992244a12014c0a924812840886926892242995922449922449922448929244009382242941886028894644229594244992244992244992249594244992244992240922225192086052904492204430944493242949952449529224499224494a4a524a92922449928224492a254992341496a211119124254992248992242949492489822401249524294992244992244192929288886844442449494a92248924494a9294a42422222a48124002484a1140922489888820494a912449922449922489248224494a2222a21121114108114c12854aa288441011111111092291482492448288202211414444242291884404914492482211111111442480082012451111119188880822892092484444440491481445441489888820224992244912499224494949242242441011912492444a9224514a4a4924498a524a8924254952924a11492215558a2292442492489224222241442482442292041111492292442209129148a228221209922482242212241149922449522241a924499224499224932449244992244922492249248924492491482449224992244992244992449224894892249144249224aa2a23914492489224c99424224934222280110511211191888800461444844404299249a2111191888844902449a886104a494a9224499288882849004941259592942449922044309454a4204124959294a42495929424525229051040a24a52554411894892a49494242591a4282222a922890248922a499294544a8a24554589a29224491111498a00124525499292244992124525495292aa4a52559128894a2aa228494992249554922449250500"
        },
        "methodIdentifiers": {
          "collateralBalances(address)": "29bc969d",
          "collateralFactor()": "df011c41",
          "collateralToken()": "b2016bd4",
          "depositCollateral(uint256)": "bad4a01f",
          "getLoanDetails(address)": "e8a7da8e",
          "lendingToken()": "aaaca558",
          "loans(address)": "73b4086b",
          "owner()": "8da5cb5b",
          "renounceOwnership()": "715018a6",
          "repayLoan(uint256)": "ab7b1c89",
          "setCollateralFactor(uint256)": "b5c22157",
          "takeLoan(uint256)": "8c803fc2",
          "transferOwnership(address)": "f2fde38b",
          "withdrawCollateral(uint256)": "6112fe2e"
        }
      },
      "hash": "1ad6e5a2980bd914bd204ed835a867a65ec5810a74a1e0902b59e8d0be5e8385",
      "factoryDependencies": {}
    }
  }
}